:020000040000FA
:10000000C01B0020B10100006F2900007129000011
:1000100000000000000000000000000000000000E0
:100020000000000000000000000000007329000034
:100030000000000000000000752900007729000082
:10004000792900007B2900007D2900007F2900001C
:1000500081290000832900008529000087290000EC
:10006000892900008B2900008D2900008F290000BC
:10007000912900009329000095290000972900008C
:10008000992900009B2900009D2900009F2900005C
:10009000A1290000A3290000C3010000A529000038
:1000A000A7290000A929000000F002F800F055F887
:1000B0000CA030C8083824182D18A246671EAB467D
:1000C00054465D46AC4201D100F047F87E460F3EF3
:1000D0000FCCB6460126334200D0FB1AA246AB46EF
:1000E00033431847006A0000206A00000023002400
:1000F00000250026103A01D378C1FBD8520700D35F
:1001000030C100D50B60704710B5642902D104F0EE
:100110000BFF10BD752902D104F006FF10BD782930
:1001200002D104F037FF10BD632902D105F030FF82
:1001300010BD732902D105F033FF10BD002010BDA2
:100140001FB505F09DFE04000020002106F0A0FA76
:10015000401C60601FBD10B510BD06F035FA114699
:10016000FFF7EEFF02F030FD06F04DFA03B4FFF7A3
:10017000F2FF03BC02F02CFC70B505460C46164697
:1001800002E00FCC0FC5103E102EFAD2082E02D37B
:1001900003CC03C5083E042E07D301CC01C5361F8E
:1001A00003E021782970641C6D1C761EF9D270BDA5
:1001B0000748804707480047FEE7FEE7FEE7FEE7FF
:1001C000FEE7FEE704480549054A064B7047000074
:1001D000FB010000A9000000C00F0020C01B002090
:1001E000C0130020C01300204348006870474248F5
:1001F000406870474148006A704710B54048816BBD
:10020000404A1161C16B3D48416001210162426970
:100210009207D20F91404269D207D20F9140CAB2E1
:10022000416940698904890E51438002364A800E33
:10023000504305F060FA3049086010BDF8B5334FFF
:1002400001262E4D01280FD000202862304C104688
:10025000214605F050FAC0B2012808D8EE616F615E
:1002600001210A46134619E02E620C46EFE70021F1
:10027000E961FF2101318006800A084368616869ED
:100280008007C00F86406869C007C00F8640686954
:10029000F2B28004810E68698002830E2046164CFB
:1002A00051436060584305F026FA2060F8BD30B431
:1002B000134B9C6B134D2C61DB6B104C636030BC9B
:1002C000BCE710B50D480121016242699207D20FC7
:1002D00091404269D207D20F9140CAB24169406948
:1002E0008904890E51438002074A800E504305F06D
:1002F00002FA0149886010BD000000200010004192
:1003000080FD030000120041001BB7000001020045
:1003100000127A003F4A3F4B01218032984201D1BE
:10032000116070473B4B2033984201D111627047F6
:10033000394A394B80329842F2D0374B20339842B9
:10034000F4D07047334A334B0121C943803298427D
:1003500001D1116070472F4B2033984201D11162B7
:1003600070472D4A2C4B80329842F2D02A4B2033D2
:100370009842F4D070478168802291438160704731
:100380008168802291438160002101602022826087
:1003900081617047826880239A4382600A680260A4
:1003A00082684B689B0113438A6892001A43CB68AA
:1003B00009695B0013431943EF22114081607047C4
:1003C00020220129816802D0914381607047114346
:1003D000FBE70121C16070474069C0B27047806887
:1003E0008006C00F7047816880221143816070478A
:1003F00000687047016070474068704780687047C8
:100400008160704700697047406970478069704734
:1004100081617047001000400020004070B510243A
:10042000002101604160BF4A4261426281624263D1
:1004300021225206904202D1BB4BBC4A0CE043221F
:100440001206904204D1B84BB84A4033403203E020
:10045000B54BB64A803380320020602685005E515D
:100460005151401CA042F9D370BDF0B521220023A8
:1004700010265206904201D1AB4A08E043221206F0
:10048000904202D1A84A403201E0A74A80320124BA
:1004900025460F689D402F40AF4243D10F79012F71
:1004A0000DD045614D79AD070DD59C001559AD08AE
:1004B000AD001551155902273D4315510BE0076951
:1004C0002F430761EEE79D005759BF08BF00575102
:1004D0005759274357514C79640704D59C00155947
:1004E00004273D4303E09C0015590427BD431551E3
:1004F0004C79A40604D59C00155920273D4303E000
:100500009C0015592027BD4315514C79640604D52C
:100510009C00155940273D4303E09C001559402796
:10052000BD4315515B1CB342B1D3F0BD7D490160A1
:10053000002101716221417170470246126800205A
:100540000A4200D001207047006880B2704702461E
:10055000526800200A4200D001207047406880B2F3
:1005600070470A06920D012312189B02D2181160DF
:100570000A0A920010185A0080180160704710B5DE
:100580000B069B0D0124CA431B18A4021B191A60F9
:10059000090A8900081861004018026010BD10B5F2
:1005A0000B069B0D01241B18A4021B191A60090AD3
:1005B0008900081861004018026010BD4160704752
:1005C000836A0B438362012A03D0426A0A43426270
:1005D0007047026A0A4302627047524A82620129E6
:1005E00001D04262704702627047012A03D0426B19
:1005F0000A4342637047026B0A4302637047494AE9
:10060000012901D042637047026370474549816305
:1006100070470246926B00200A4200D001207047CA
:10062000F0B50126414D002334469C400C420ED0CB
:10063000002810D0012811D03C4C9F0080343C1978
:100640002768BF08BF0027602768174327605B1C27
:10065000102BE9DBF0BD9C006419F1E79C006419E4
:10066000276CBF08BF002764276C17432764EEE799
:100670007CB504461E460D466846FFF757FF6846A0
:100680000095027169462046FFF7EFFE21204006E3
:10069000844201D1002006E043200006844201D1BB
:1006A000012000E0022032462946FFF7B9FF7CBD59
:1006B0007CB5044616460D466846FFF737FF002016
:1006C0006946009508712046FFF7CFFE206A28434F
:1006D0002062A06A2843A062324629462046FFF7DE
:1006E00084FF21204006124E844206D100200122C0
:1006F0002946FFF795FF802012E043200006844240
:1007000007D1012002462946FFF78AFFFF2001306A
:1007100006E0022001222946FFF782FF0120400265
:1007200030607CBDFFFF0000003000410020004130
:1007300000E100E0E12149020160602181800021A7
:10074000C18003220181120242818181704770477A
:10075000F8B50446006B0E46400840002063FFF7E2
:1007600049FD894F0125002842D03D61FFF73CFD3E
:100770007A692946914004F0BEFF074630680001BF
:1007800005F058FB0090384605F054FB009905F041
:100790005DFA074605F00AFB009005F04BFB394671
:1007A00005F0D2FF062105F049FB05F025FA0022ED
:1007B000764B05F0CDF905F0FBF901460098606233
:1007C000A162E06AEE218843B188F2881143328940
:1007D00002431143E162206B6D49B289084071897F
:1007E000114301432163206B284320630020F8BD9F
:1007F000022038617869294681406648BBE710B518
:10080000C36A10242343C3624907890E5207520F5B
:100810001143416310BDC16A10229143C162704708
:1008200001607047006880B27047C16A01221143BD
:10083000C16270470246526800200A4200D001207F
:100840007047416070470246926900200A4200D01A
:1008500001207047002A03D0826B0A4382637047ED
:10086000426C0A43426470470246126C00200A42FE
:1008700000D001207047426C0A434264704710B5B3
:1008800004464548016B02290AD0006B032807D0B3
:10089000FFF7AAFC214604F02EFF4049086110BD75
:1008A000FFF7A5FCF6E710B5FFF7E9FF3B498868BD
:1008B00003228008800010438860002010BD70472C
:1008C00036494A68D207FCD108607047334800684F
:1008D00080B27047314A0146526800200A4200D077
:1008E000012070472D4A0029916801D0014300E0A2
:1008F000814391607047294A0029916801D00143E2
:1009000000E0814391607047244A0146D26800208C
:100910000A4200D0012070472049CA680243CA60D9
:100920007047016082691207FCD40846704730B5F1
:100930000B4605461C78002C03D021462846FFF7BD
:10094000F0FF5B1C002CF5D130BD8169C906FCD4D9
:100950000068C0B2704700B50346FFF7B1FF184604
:1009600000BD10B503461C78002C02D02046FFF7CE
:10097000A7FF5B1C002CF6D110BD08484168890711
:10098000FCD50068C0B27047401100410000E03F54
:10099000FE3CFFFF00127A000010004100600040A2
:1009A000007870470170704730B5002405E00D19DC
:1009B000ADB2455D1555641CA4B29C42F7D330BD61
:1009C00070B5002405E00E19155DB6B28555641C9E
:1009D000A4B29C42F7D370BD70B514000FD01A4A70
:1009E00083049E18F268400795B2184AC00A104363
:1009F0000A4623462946FFF7E3FF2819F06070BD39
:100A000070B514000FD0104A83049E18B26A4007D4
:100A100095B20F4AC00A10430A4623462946FFF7FB
:100A2000C3FF2819B06270BD10B500290BD0064A6B
:100A300083049B189A6A4007054CC00A511820434A
:100A400089B20818986210BD0002014600000246F3
:100A50000000034670B50446082802D90020C043B0
:100A600070BDFA48A604301805461021FFF79AFF1A
:100A70002846FFF795FF0028FAD1F4481F211830C7
:100A80003018FFF78FFFF24801218288A1408A4386
:100A90008280F04A002061005052ED49891D0855BE
:100AA000EA48203034182046FFF77AFF0028FAD1B0
:100AB000012070BDF8B51C4616460F4605460828AD
:100AC00002D90020C043F8BD012F06D0022F04D068
:100AD000042F02D00420C043F8BD6007810FDE4818
:100AE000FAD1002C0CD0012F02D0022F08D103E044
:100AF00021210C42F0D003E0A10601D52106EBD55F
:100B00002846FFF7A7FF21090901D0483943AF0460
:100B100010383818FFF746FF002E0AD1CC48CF4ACC
:100B20000688711C89B20180914202D10321890398
:100B30000180C648F03038184661C4480121381891
:100B40000646FFF72FFF3046FFF72AFF0028FAD1AD
:100B5000BF48E107C90F4288A940114341800121E4
:100B60008288A9408A438280BA4A00206900505294
:100B7000B749891D4855B54820303C182046FFF735
:100B80000FFF0028FAD068B2F8BD70B506460828F5
:100B900002D90020C04370BDAC48B40410382018FE
:100BA000FFF7FEFE0007000F012802D00420C0431B
:100BB00070BDA648203020180546FFF7F1FE132827
:100BC00002D00220C04370BDA04802212018044674
:100BD000FFF7E8FE2046FFF7E3FE0028FAD128469B
:100BE000FFF7DEFE142805D03046FFF733FF032061
:100BF000C04370BD012070BDF7B50D4607460828FB
:100C000002D90020C043FEBD9048BC041038201813
:100C1000FFF7C6FE0007000F012802D00420C043E2
:100C2000FEBD8A48203020180646FFF7B9FE13287B
:100C300002D00220C043FEBD29786A7808028018DD
:100C4000AA7800028018EA7800028018421C32D08C
:100C5000002830D00298002830D081482018FFF7B3
:100C6000A1FE7F486978401E2018FFF79BFE7C4854
:100C7000A978801E2018FFF795FE7948E978C01EF4
:100C80002018FFF78FFE764902982739611808620D
:100C90006E48042120180546FFF784FE2846FFF71A
:100CA0007FFE0028FAD16A4901204988B8400842ED
:100CB0001CD00020FEBD0B20C043FEBD0A20C04357
:100CC000FEBD2846FFF76CFE000708D55F480821E7
:100CD00018302018FFF766FE0C20C043FEBD3046DA
:100CE000FFF75EFE002804D1001FFEBD57481030FC
:100CF00025183046FFF754FE1728E2D10120FEBD2B
:100D000070B50646082802D90020C04370BD4F4880
:100D1000B50410382818FFF743FE0007000F01281C
:100D200002D00420C04370BD48480821281804465A
:100D3000FFF738FE2046FFF733FE0028FAD144497A
:100D400001208A88B04082438A80498808420CD0BA
:100D5000002070BD2046FFF723FE00070BD530466C
:100D6000FFF778FE0C20C04370BD384810302C18B7
:100D7000364820302D182846FFF712FE0028E9D10A
:100D8000012070BDF7B582B002981446082803D937
:100D90000020C04305B0F0BD86042C481038301840
:100DA000FFF7FEFD0007000F012802D00420C0431A
:100DB000F0E7002C0CD02548203030180190FFF7C8
:100DC000EFFD172807D01C2805D00620C043E1E717
:100DD0000D20C043DEE7029801251D4F8540B888ED
:100DE000054211D0194810303018FFF7D9FDC00660
:100DF000C00EC10621D51548102118303018FFF754
:100E0000D1FDB888A843B8801548D9303018009073
:100E1000FFF7C6FD8006000C844200D90446009806
:100E2000406887B20198FFF7BBFD17281AD01C282D
:100E300018D00298FFF70EFEC7E7000718D50298F2
:100E4000FFF708FE0C20C043A4E700001000014695
:100E50000C00002050020020FAFFFFFFF0FF00000E
:100E600027010146FE484088054203D0BC4201D913
:100E700000208FE7BC42D2D8224603990298FFF7A0
:100E8000ABFDF848202130180646FFF78BFD3046B1
:100E9000FFF786FD0028FAD1F14881880D4385804F
:100EA000204677E7F7B582B002981446082802D9A1
:100EB0000020C0436EE78704EA4810383818FFF76F
:100EC0006FFD0007000F012802D00420C04361E736
:100ED000002C19D0E4483818FFF762FD8006000C9A
:100EE000A04200D20446DF48203038180090DE4887
:100EF00020383E18706A85B20098FFF751FD172818
:100F000015D01C2803D00CE00D20C04342E7002D73
:100F10001AD13046FFF744FD7168800289B28842D9
:100F200005D10298FFF796FD0620C04332E70299EB
:100F300001208840CA494988084203D0002D03D1C6
:100F4000002027E7002DD5D0A54200D22C4622460E
:100F500003990298FFF754FDC2484021381805460E
:100F6000FFF720FD2846FFF71BFD0028FAD1204699
:100F700010E7FFB583B003981E461546082803D92D
:100F80000020C04307B0F0BD8404B64810382018D4
:100F9000FFF706FD0007000F022804D0042802D046
:100FA0000420C043EEE7002D1DD030787178000298
:100FB0004018B17800024018F1780002C84202D10E
:100FC0000B20C043DEE70C9800280FD0A548203046
:100FD00020180746FFF7E4FC42280AD0222808D050
:100FE0000620C043CEE70D20C043CBE70A20C04314
:100FF000C8E79D483178F9382018FFF7D3FC9A48A4
:101000007178FA382018FFF7CDFC9748B178FB3893
:101010002018FFF7C7FC9448F178FC382018FFF738
:10102000C1FC90490C98F031611808628E48203854
:1010300020180190FFF7B4FC8006000C854200D90F
:10104000054603990120884000900198406886B2C7
:101050003846FFF7A5FC002808D081490098498848
:10106000084206D0B54204D900208BE70320C043D4
:1010700088E7B542E9D82A4604990398FFF7ACFC03
:101080007848202120180746FFF78CFC7548183057
:1010900026183846FFF784FC0028FAD17148103032
:1010A00024182046FFF77CFCC006C00EC10605D5FB
:1010B00030461021FFF776FC284663E70007F0D59D
:1010C00030460821FFF76EFC0C20C0435AE7FFB5FD
:1010D000002485B00646082802D9601E09B0F0BD7C
:1010E0006048B50410382818FFF75AFC0490000730
:1010F000000F022804D0042802D00420C043EDE7EA
:101100000798002805D059487700C05B002803D015
:1011100022E00D20C043E1E753482038281803900F
:101120005048203028180125B54002900398406AA5
:1011300084B20298FFF734FC002806D04848408863
:10114000054207D0002C03D006E00320C043C5E7CA
:101150000020C3E7002CE9D041480021801D8155C3
:101160000498B20441073F48490F151802291FD0BF
:10117000042957D021463046FFF756FC3B48C4535C
:1011800028464021FFF70EFC2846FFF709FC0028FF
:10119000FAD13648C15B091B0904090CC15305D0BB
:1011A0002F480122801D815D11438155204695E71E
:1011B0002E4CE05B002865D1082269463046FFF7D7
:1011C0001FFC28464021FFF7EDFB2846FFF7E8FB10
:1011D0000028FAD16846017808980170684641787D
:1011E0000898417068468178089881706846C1788F
:1011F0000898C17068460E99007908800102684617
:10120000407908180E99088068468079010268467E
:10121000C0790818E05332E0224630460699FFF7BD
:10122000EFFBADE7114CE05B00282BD102226946B1
:101230003046FFF7E5FB28464021FFF7B3FB284681
:10124000FFF7AEFB0028FAD1684600780102684635
:101250004078081880B20649E05388420FD909E067
:101260000C00002010000146200201465002002020
:10127000EA0500003046FFF7EDFB9E482EE79E4949
:1012800080208855E45B07988442C5D90446C3E7AB
:10129000F8B514460646082802D90020C043F8BD18
:1012A000954B96489B1F0927B2045D88FF43101891
:1012B0000B0005F0D9F90805171B1D252E37314005
:1012C00021780120B040012902D0002905D032E068
:1012D0008949891F284348802BE08749891F854316
:1012E0004D8026E0F540E807C00F19E0844801E092
:1012F000834820301018FFF753FB8002208018E04D
:1013000020781F2817D8C1067C48C90E001D101868
:101310000DE07A48001F1018FFF742FBC006C00E10
:10132000207006E021781F2905D8C906C90EFFF7ED
:1013300039FB0120F8BD3846F8BDF8B51546082838
:1013400002D90020C043F8BD84046D4B6B4A6B4842
:10135000803BDC3224380427E618A2182018FF430B
:101360000B0005F081F9084F050910421316444F90
:1013700062482978E43002E060482978E03020189B
:10138000FFF710FB31E0288810612EE028881062FA
:101390002BE0FFF705FB0007000F01282DD1304699
:1013A000FFF7FEFA002802D00120C043F8BD5348E1
:1013B0002221143820180546FFF7F4FA4F48001F81
:1013C00026180DE03046FFF7EBFA000708D54B482A
:1013D0000821001D2018FFF7E5FA0C20C043F8BDD6
:1013E0002846FFF7DDFA0028ECD10120F8BDFFF711
:1013F000D7FA0007000F012801D03846F8BD297838
:101400003046BDE70920C043F8BDF8B5144606468E
:10141000082802D90020C043F8BDB5043748374A30
:10142000374B2438DC32EF182818AA180B0005F0C7
:101430001BF90D080D121517305E323E404248521E
:101440005E00FFF7ADFA0009000102E02B48E4302E
:1014500033E020703DE02948E0302EE01069F8E7E5
:101460002748D9382818FFF79BFA20702448DA3823
:101470002818FFF795FA60702148DB382818FFF725
:101480008FFAA0701E48DC382818FFF789FAE07040
:101490001FE0106A1CE0FFF783FA0007000F012825
:1014A0001FD1174880382818FFF77AFA10E07868BB
:1014B0000EE0786A0CE011480C302818FFF770FA3B
:1014C000C7E7FFF76DFA0128F3D00E497000085AFC
:1014D00020800120F8BDFFF763FA0007000F012804
:1014E00002D00420C043F8BD0348805DB1E701206D
:1014F000C043F8BD17FCFFFF120000202400014686
:101500000002014650020020704770477047704744
:101510000078704701707047002070477047FE4A9E
:10152000002804D0002902D0D16090607047FB48A9
:101530009060FB48D0607047F74A002804D000292B
:1015400002D0516110617047F6481061F648506151
:10155000704710B5F04A1388DC05FDD5002804D08B
:10156000002902D0D161906110BDF0489061F0482F
:10157000D06110BD10B5E84A13889C05FDD5002840
:1015800004D0002902D0D161906110BDE94890617A
:10159000E948D06110BD0020C04370470020C0431F
:1015A000704710B5E548FFF7FBF90446E3481030F3
:1015B000FFF7F6F90002001980B210BD10B5C1B2F4
:1015C000040A09090901DD48FFF7ECF9DB48214667
:1015D0001030FFF7E7F910BDD84810B5001FFFF72E
:1015E000DFF90446D5480C30FFF7DAF9000200199C
:1015F00080B210BD10B5C1B2040AD0480909090172
:10160000001DFFF7CFF9CD4821460C30FFF7CAF98E
:1016100010BDF0B593B0CA48FFF7C2F91190C848A1
:10162000401EFFF7BDF9C64C1090A41E2046FFF7E0
:10163000B7F9651E0F902846FFF7B2F90E90A01D6E
:10164000FFF7AEF90D90601DFFF7AAF90C90BC48AA
:101650000830FFF7A5F90B90B948C01DFFF7A0F9B6
:10166000B74E0A90B61D3046FFF79AF90990E01D73
:10167000FFF796F90890B01DFFF792F90790701DDB
:10168000FFF78EF90690301DFFF78AF90590F01CE0
:10169000FFF786F90490AA481030FFF781F9A84FA8
:1016A00003900F373846FFF77BF90290781EFFF75B
:1016B00077F90190F01DFFF773F900908021A148A0
:1016C000FFF770F99F48FFF76BF9A01C1199FFF71E
:1016D00069F9601C1099FFF765F920460F99FFF72B
:1016E00061F928460E99FFF75DF9A01D0D99FFF7E6
:1016F00059F9601D0C99FFF755F9B01C0B99FFF7CC
:1017000051F9701C0A99FFF74DF930460999FFF716
:1017100049F9E01D0899FFF745F9B01D0799FFF752
:1017200041F9701D0699FFF73DF9301D0599FFF746
:1017300039F9F01C0499FFF735F9781C0399FFF784
:1017400031F938460299FFF72DF9781E0199FFF714
:1017500029F9F01D0099FFF725F913B0F0BDF8B590
:101760000D4606460024FFF754FF002E14D0002239
:10177000B05C521C001952B244B2082AF8DB102C9B
:1017800017DC714F0024A004315DC019FFF70AF97E
:10179000641C64B2082CF6DB002D19D00021084629
:1017A0002A5C401C511840B249B20828F8DB1029C5
:1017B00002DD0020C043F8BD634E00242036A004A3
:1017C000295D8019FFF7EEF8641C64B2082CF6DB83
:1017D0000020F8BD70B50C460246002108464D1E9B
:1017E000130004F041FF0906091511181C2E2E20C4
:1017F0002E00FFF70EFF22E0002C02D021462046EB
:101800000831FFF7ACFF70BD2088FFF7F3FE16E04C
:10181000FFF7E2FE05E02088FFF7D0FE0FE0FFF7BC
:10182000C0FE20800BE03C4882782270C278627053
:101830000279A2704279E270807920716171002092
:1018400070BD284670BD10B504463D484130FFF7D5
:10185000A7F820703A483D300068608010BD10B590
:101860000446017836484130FFF79CF834496088D7
:101870003D31086010BD10B53248FFF791F810BD3A
:1018800070B50446C720044202D00020C04370BD9A
:101890002C4D2846FFF784F8204301462846FFF7E1
:1018A00081F8002070BD10B504462548FFF778F890
:1018B00020702348401EFFF773F860702048801E98
:1018C000FFF76EF8A0701E48C01EFFF769F8E070C1
:1018D0001B48001DFFF764F820711948C01CFFF772
:1018E0005FF8607116480830FFF75AF8A073144883
:1018F000C01DFFF755F8E0731148801DFFF750F841
:1019000020740F48401DFFF74BF860740C480C30F2
:10191000FFF746F8A07219E0240000200915000026
:101920000B1500000D1500000F150000111500002B
:1019300015150000191500001D15000004210046B2
:101940000360004600230046000201465F480B305A
:10195000FFF726F8E0725D480A30FFF721F82073A0
:101960005A480930FFF71CF8607358481030FFF7E9
:1019700017F8A07155480F30FFF712F8E07153487F
:101980000E30FFF70DF8207250480D30FFF708F8C1
:1019900060724F480178A1744178E17481782175B3
:1019A000C07860754A48401E0078A07510BD10B51B
:1019B000044601784548FEF7F5FF44486178401E2B
:1019C000FEF7F0FF4148A178801EFEF7EBFF3F488D
:1019D000E178C01EFEF7E6FF3C482179001DFEF7C6
:1019E000E1FF3A486179C01CFEF7DCFF3748A17B74
:1019F0000830FEF7D7FF3548E17BC01DFEF7D2FF68
:101A00003248217C801DFEF7CDFF3048617C401DAF
:101A1000FEF7C8FF2D48A17A0C30FEF7C3FF2B4814
:101A2000E17A0B30FEF7BEFF2848217B0A30FEF733
:101A3000B9FF2648617B0930FEF7B4FF2348A1793E
:101A40001030FEF7AFFF2148E1790F30FEF7AAFF13
:101A50001E48217A0E30FEF7A5FF1C48617A0D3032
:101A6000FEF7A0FF1A48A17C0170E17C4170217D46
:101A70008170617DC1701649A07D491E087010BD3E
:101A800010B50C46030004F0EFFD0604080C10141A
:101A9000181D0846FFF78BFF12E00846FFF703FF0B
:101AA0000EE00878FFF7ECFE10BDFFF7E4FE2070B3
:101AB00006E00846FFF7D3FE02E00846FFF7C3FE44
:101AC000002010BD0020C04310BD00000360004690
:101AD0001D00002070B58F4C054620882861618864
:101AE0002846FEF73EFD012001F05FF86188284698
:101AF000FEF745FD012001F058F870BDF8B5074626
:101B00000020844D0446460069883846FEF729FDCA
:101B1000012001F04AF869883846FEF730FD0120BF
:101B200001F043F829883846FEF707FD3043641C6E
:101B3000102CE8D3F8BD70B5764C05462088686156
:101B4000012001F032F861882846FEF70AFD0120E5
:101B500001F02BF861882846FEF711FD012001F005
:101B600024F870BDF8B5074616462020801B81403A
:101B70000C46684D18E02988002C384602DAFEF73A
:101B8000F0FC01E0FEF7FBFC012001F00EF8698893
:101B90003846FEF7E6FC012001F007F86988384670
:101BA000FEF7EDFC6400761E002EE4D1F8BD70B5A2
:101BB0000C46002105462022C943FFF7D3FF04222B
:101BC00006212846FFF7CEFF5248052241682846E5
:101BD000FFF7C8FF052221462846FFF7C3FF284626
:101BE000FFF7A9FF2846FFF789FF04462846FFF7BD
:101BF00071FF204670BD10B5432001210006FFF79C
:101C0000D6FF4007C00F10BD70B50C461646002128
:101C100005462022C943FFF7A5FF042205212846D7
:101C2000FFF7A0FF3B48052241682846FFF79AFFCF
:101C3000052221462846FFF795FF02221146284635
:101C4000FFF790FF102231462846FFF78BFF28460A
:101C5000FFF740FF70BD01221203904203D0212103
:101C6000090208400246002143200006CCE7F8B5EF
:101C70004326294F3606002400212022C94330463E
:101C8000FFF770FF042206213046FFF76BFF0522A5
:101C900021463046FFF766FF052201213046FFF757
:101CA00061FF3046FFF747FF3046FFF727FF054645
:101CB0003046FFF70FFF002D03D0BD4201D0204674
:101CC000F8BD641C082CD7DD14A003F0BBF8D2E7E4
:101CD0007CB5054614460E466846FEF727FC30469E
:101CE000204300900120694608712846FEF7BDFB9D
:101CF000012221461046FEF793FC01223146104690
:101D0000FEF78EFC034D6E802C80FFF7B0FF6860FD
:101D10007CBD000044000020FFFF00000D0A706839
:101D20007920696420646574656374206572726FDC
:101D30007221210D0A00000010B5FE4CFE482178EA
:101D4000FEF730FEFC486178401EFEF72BFEFA4895
:101D5000A178801EFEF726FEF748E178C01EFEF748
:101D600021FEF54808342178001FFEF71BFEF248DB
:101D70006178401FFEF716FEEF48A178801FFEF73E
:101D800011FEED48E178C01FFEF70CFEEA48241F63
:101D900021780838FEF706FEE74861780938FEF733
:101DA00001FEE548A1780A38FEF7FCFDE248E1783B
:101DB0000B38FEF7F7FD10BD10B5E04C8021204632
:101DC000FEF7F0FD2046FEF7EBFDFFF7B5FFD94C1F
:101DD000D948353421781038FEF7E4FDD6486178CB
:101DE0001138FEF7DFFDD448A1781238FEF7DAFD8E
:101DF000D148E1781338FEF7D5FDCF4821790C386A
:101E0000FEF7D0FDCC4861790D38FEF7CBFD10BD53
:101E100010B5CA4C80212046FEF7C4FD2046FEF7CF
:101E2000BFFDC44CC448353421781038FEF7BAFDE4
:101E3000C14861781138FEF7B5FDBF48A178123866
:101E4000FEF7B0FDBC48E1781338FEF7ABFDBA48A9
:101E500021790C38FEF7A6FDB74861790D38FEF7F9
:101E6000A1FD10BDB34B10B5DB1FB54C5C62B54C8A
:101E70009C62B54CDC62002800D05862002900D07A
:101E80009962002A00D0DA6210BD30B5A94B01205A
:101E9000DB1F996B08704870062088700020C8709E
:101EA0005A6B120E0A715A6B120C4A719A8E120AF0
:101EB0008A719A8ECA71996B802208818A72C8725F
:101EC000996B1A46087348738873C873087448740A
:101ED0008874C874087548758875C875087648761A
:101EE0008876C8763C3214780C7754784C7794789E
:101EF0008C77D478CC770C461579203425705279BC
:101F0000627006228C18521CD2B22077102AF9D3A4
:101F10009A6B002154182034491CC9B220734029FF
:101F2000F8D39A6B002154186034491CC9B220734D
:101F30008029F8D3986B6321E030017382224273C9
:101F400053228273C17330BDFEB5FFF79EFF7948FF
:101F50003522C01F836BF021CA540122F121CA54DB
:101F6000F221CA543D22F321CA540722F421CA5453
:101F70000122F521CA5401463C310A78F621CA549F
:101F800001463C314A78F721CA5402463C329478E3
:101F9000F822D45402463C32D478F922D454024672
:101FA0003C321479FA22D45402463C325479FB2252
:101FB000D4540C21FC22D1540027FD21CF541222ED
:101FC00004463946423406E09E18E036521C491C4D
:101FD000357392B289B2655C002DF5D1846B554B97
:101FE000A6183533DD78E0363573521C92B2A61848
:101FF0001D79E0363573521C92B2A5185B79E03535
:102000002B73521C92B2CB1C511A0919E0310B727E
:10201000816B37238C18E0342373521C92B28C18D6
:10202000521C92B28D180623E03423730124E0354C
:102030002C73521C92B28D180324E035521C2C7361
:1020400092B28C18E0342373521C92B28C180F2376
:10205000E0342373521C92B28B183A24E0331C7381
:10206000521C92B28B18E0333B24521C1C7392B268
:10207000FF238C18E0342373521CFF2492B23934AE
:1020800004E08D18E035521C2F7392B2A242F8D3AF
:1020900069460B714B718B71CB7143210091892281
:1020A000816B01AB92008078FEF763FFFEBDFEB549
:1020B000FFF7EBFE1F4C0020E41FE11D20560B46EE
:1020C0002933FF2703284AD0042848D068460771DF
:1020D00047718771C771A26B3520F025A854012084
:1020E000F125A8540320F225A8543D20F325A85437
:1020F0000720F425A8540120F525A8540D48F625FD
:1021000035300078A8540B48F72535304078A8546E
:102110000848F82535308078A8540648F925353028
:10212000C078A8540348FA2535300079A8540148EE
:1021300035300BE0530000201360004600230046BA
:10214000391D0000B91D0000111E00004079FB255B
:10215000A8546D46ED791020FF2D16D039E0A06B04
:1021600000228272C2720A7802734A7842738A78B5
:102170008273CA78C2731A78684602715A784271BB
:102180009A788271DA78C271A5E73225FC208554ED
:102190000425FD2085540E78FE2086544E78FF20BD
:1021A00086548878AE01B054C978701C81543621A9
:1021B000401C8154401C85541978401C8154597826
:1021C000401C81549978401C8154D978401C81541A
:1021D0001C2013180C21E0331973401C1318002124
:1021E000E0331973F94D401C05E01618E036401C29
:1021F000337380B2491C6B5C002BF6D1A36BF34A9E
:102200001E18921FD578E0363573401C80B21E1818
:102210001579E0363573401C80B21D185279E035CF
:102220002A73401C82B2C81C511AC918E0310872C6
:10223000A06B37218318E0331973521C91B24318F5
:102240000822E0331A73491C89B243180122E03393
:102250001A73491C89B243180322E0331A73491CCC
:1022600089B243180622E0331A73491C89B2431815
:102270000F22E0331A73491C89B242183A23E03224
:102280001373491C89B242183B23E032491C137373
:1022900089B242181F23E0321373491C89B24218D5
:1022A0002123E0321373491C89B24218E0321773BC
:1022B000491C0022FF2389B2393303E04518E03579
:1022C0002A73491C9942F9DB43200090892201AB13
:1022D0009200A078A16BFEF74CFEFEBD1CB5FFF787
:1022E000D4FDBA4800214238806B35228172C17218
:1022F000F0210A540122F1210A540422F2210A5445
:102300003D23F3210B540722F4210A540122F52125
:102310000A54AE49F622891F0B7813544B78F722E2
:1023200013548B78F8221354CB78F92213540B7979
:10233000FA2213544A79FB210A543222FC210A540E
:102340000422FD210A54A1493B390A78FE210A548E
:102350009E493B394A78FF210A549C493B398A7887
:10236000FF2101310A5499493B39CA78FF210231D2
:102370000A543622491C0A540422491C0A5493491F
:10238000FF2212390B78053213544B78521C135428
:102390008B78521C1354CA78FF2108310A54FF224B
:1023A000491C0A541D210023FF2239324418E0340D
:1023B000491C23739142F9DBFF206946087148717B
:1023C0008871C87143200090804889224238816B0F
:1023D00001AB92008078FEF7CCFD1CBD7FB57B4C35
:1023E0007B4A423CA07881048918496A0A04120C8D
:1023F00027D001A9009102ABA16BFEF768FE82B263
:102400006846808843283CD1A06B21463C31037F3D
:102410000D78AB4215D1457F4B789D4211D1837F1A
:102420008D78AB420DD1C37FCD78AB4209D1034645
:1024300020331D780E79B54203D15B7849798B4200
:1024400002D0002004B070BDF03000258118F039B2
:1024500015E00278332A3ED008DC002A15D0012A84
:1024600018D0032A1AD0062A06D125E0352A0ED024
:10247000362A3FD0FF2A06D04278801C8018884236
:10248000E7D368B2DEE70846F9E7401CF7E785784E
:10249000C01CF4E74D4A8378333A2EE04B4A437828
:1024A0008678373A1670C6785670067996704679EF
:1024B000801DD670C0180CE0444B427886782F3BC4
:1024C0001E70C6785E7006799E704679801DDE703B
:1024D0008018001FD3E78278A261C37812029A188D
:1024E000A261037912029A18A261437912029A1822
:1024F000A26109E0354A8378123A1370C3785370A9
:10250000037993704379D370801DB8E72F48002179
:102510004238C161052202624170704770B52B4C90
:102520000125423C6157002622469057022917DABE
:10253000E269216A914223D2012804D0022805D001
:10254000042805D102E0FFF7FFFC01E0FFF7AFFD33
:10255000E661E069401D20626078401C60700FE019
:10256000012804D0022805D0042807D102E02670F3
:10257000002503E0FFF7E8FC01202070FFF7C6FF0D
:10258000284670BDF8B5134E3046FEF709FA0546E9
:1025900003213046FEF706FA0C4B0F483B3BDC1F8D
:1025A000009011220DA1A078FEF7E3FC0746294612
:1025B0003046FEF7F7F90D371AD0FFF78FFEE069C6
:1025C000E169091A0229FBD30020F8BD8E00002022
:1025D000000201464460004688130000434845431A
:1025E0004B5F49505F434F4E464C494354000000F7
:1025F0000120EAE7F8B5B74C207806281ED0A0786D
:10260000B54980044018FEF7CBF9222805D00023F5
:1026100044220221A078FEF74DFA0125FFF7DEFEE5
:10262000C1B20022A256AB4800260127C01D1300EC
:1026300004F01AF805060D1C314C2F000520C4E7E4
:10264000067046708670C670FFF77EFC5EE0022959
:102650001CD1A16B0A7C02704A7C42708A7C827019
:10266000C97CC170FFF723FD02204BE005290BD187
:10267000FFF788FF002801D0606A3FE0FFF746FFC0
:10268000E06A8047267004E006293DD0FFF746FF48
:102690000546284699E7A16904254A1CF9D0E26954
:1026A00049089142F5D28B490278C91C0A704278D8
:1026B0004A7082788A70C078C870606B401C606312
:1026C000FFF7F5FCFFF722FF04201BE00425052996
:1026D000DAD180496670C91C0A7803789A420BD116
:1026E0004A7843789A4207D18A7883789A4203D10C
:1026F000C978C078814202D0A06A03258047FFF7DD
:1027000005FF03202070C4E7FFF700FF2770C0E734
:1027100010B5704CA078FEF79DF90620207010BD12
:10272000F3B56E4F83B00646002538460095FEF798
:1027300037F9684C3C342070781EFEF731F9607030
:10274000B81EFEF72DF9A070F81EFEF729F9E0700B
:10275000381DFEF725F92071F81CFEF721F960718C
:10276000014620786278E3781043A2781A43104338
:102770002279104308431FD1257008206070DC20A7
:10278000A070E5702571294665713846FEF70AF993
:102790006178781EFEF706F9A178B81EFEF702F9F7
:1027A000E178F81EFEF7FEF82179381DFEF7FAF8F9
:1027B0006179F81CFEF7F6F8464F4949BE70049857
:1027C000B863E0786379421821798A1848409A18EA
:1027D0005840801878636846017840480C461030AD
:1027E000FEF7E0F868464078029001463B480F301B
:1027F000FEF7D8F8684680780190014637480E30D9
:10280000FEF7D0F86846C678344831460D30FEF7FA
:10281000C9F8324821461030FEF7C4F82F48029913
:102820000F30FEF7BFF82D4801990E30FEF7BAF8C9
:102830002A4831460D30FEF7B5F8284821460830C1
:10284000FEF7B0F825480299C01DFEF7ABF8234803
:102850000199801DFEF7A6F820483146401DFEF77D
:10286000A1F8FFF753FE3D7005B0F0BD1948C169EE
:10287000491CC16170471749C91D0A7802704A781E
:1028800042708A788270C978C170704711490B31E3
:102890000A7802704A7842708A788270C978C1706A
:1028A00070470C490F310A7802704A7842708A7872
:1028B0008270C978C1707047064913310A78027076
:1028C0004A7842708A788270C978C170704701482E
:1028D000806970474C0000203000014603600046CC
:1028E00078563412F0B587B001F064FF04466D46A7
:1028F000A81DFFF7C0FF03A802300690FFF7C6FF30
:1029000002A802300746FFF7CCFF04A802300646B3
:10291000FFF7D2FF214606226B31684602F06AF8C3
:1029200020460422A91D713002F068F820460422D6
:102930007530069902F062F8204604223946793053
:1029400002F05CF8204604223146933002F056F83B
:102950008034607C002801D0022000E0012069461C
:1029600088750020FFF78CF807B0F0BD70477047FE
:10297000704770477047704770477047704770479F
:10298000704770477047704770477047704770478F
:10299000704770477047704770477047704770477F
:1029A0007047704770477047704710B5C0B2FDF769
:1029B000D2FF10BD10B5FDF7E0FFFDF7CCFF10BD55
:1029C0000020C043704710B5C0B2FDF7C4FF10BD72
:1029D000FEE7000010B501F0EDFE8030407C0028DD
:1029E00006D0C5484078012803D0C4A002F02AFAD6
:1029F00010BDFFF76CFF0146C5A002F023FA10BD21
:102A000070B50024CC490420FFF78AFECC49CB4A9C
:102A10000846FFF727FAFFF7EDFD0546042807D023
:102A2000002D01D1641CE4B2032C03D9FFF770FE22
:102A300068B270BD01F00BF901F0B1FBEBE738B5FE
:102A400001F0B8FE0446BFA002F0FCF9BEA1CBA085
:102A500002F0F8F9CBA002F0F5F9D4A00090637968
:102A60002279E178D3A002F0EDF9B7A1C3A002F07A
:102A7000E9F938BD03C880F30888084700B5C1B03C
:102A800000216A460B785354491C0829FAD30821BF
:102A9000435C5354491CA829FAD3A8200178115447
:102AA000401CFF28FAD972B600231A461946122094
:102AB00001F066FAFF2301336A460021222001F06B
:102AC0005FFA62B641B000BD30B591B001F072FE60
:102AD00004460020039004901822C1A105A8FDF728
:102AE0004BFB18210BA802F0A6FD20466030C17AEE
:102AF0000025002905D1017B082902D1407BDC2873
:102B000046D0002303AA1946184601F0A9FA6846E0
:102B1000427C017CC07B6B4607C36846837B427B5B
:102B2000017BB5A002F08EF96846007B002807D132
:102B30006846407B082803D16846807BDC282BD080
:102B4000B948882125460170C035B8A002F07AF94D
:102B50000BA905A800F0C5F900280BD0A87A002819
:102B600003D00BA985A002F06DF9182105A802F089
:102B700062FDEAE7002001F08CFA002322466B3266
:102B80001946184601F0B3FA01F016FE01F02AFFCB
:102B90000125284611B030BD2046062203A96B301E
:102BA00002F0EAFC01F01EFFF3E701B582B0FDF789
:102BB0001BFBA34902F09FFD0299484300E0401E21
:102BC00000900028FBD10EBD01F0F4FD044601F099
:102BD000A7FD9C4900200A46FDF769FB9A48FFF7CC
:102BE000E4FF01F0A9FA01F024FBFDF7FDFA944996
:102BF00002F081FD9549086008202870944868809B
:102C00002846FEF72CFE01F073FD01F0BBFE002507
:102C10007E202646055580363572FFF755FF002881
:102C200003D007200003FFF729FF27462037387914
:102C300001280FD1022001F0A8FB80280AD13D71A4
:102C4000F91D002002F04FFD01F0CCFE072000032B
:102C5000FFF714FF072000030168491C03D003C8D5
:102C600080F308888847C034A07A002801D0FFF795
:102C7000E6FE707C0127002803D0FFF7C1FE042880
:102C800022D002F04DF8A07A002803D001F013FF03
:102C9000FFF7A0FE18480770002001F055FD6D4CAD
:102CA00000F0D5FF707C002801D0FFF7A3FC20784E
:102CB000002806D0002001F05FFD012001F05CFD3E
:102CC000257001F06CFAEBE70B484770DBE700B5C5
:102CD000C1B00020694602780A54401CFF28FAD986
:102CE00072B6FF230A466F2101330902222001F048
:102CF00047F962B6E6E600009C000020202320444D
:102D0000484350204661696C65640D0A000000006C
:102D100020232044484350204950204C656173656E
:102D2000642074696D65203A202575207365636F92
:102D30006E64730D0A000000600200206D2900001F
:102D4000E52800000D0A00003D3D3D3D3D3D3D3D77
:102D50003D3D3D3D3D3D3D3D3D3D3D3D3D3D3D3DA3
:102D60003D3D3D3D3D3D3D3D3D3D3D3D3D3D3D3D93
:102D70003D3D3D3D3D3D3D3D3D3D000025730D0A42
:102D800000000000205B57373530305D20536572FE
:102D900069616C20746F2045746865726E6574207B
:102DA0004465766963650D0A000000004465766538
:102DB0006C6F7000203E3E204669726D77617265CF
:102DC0002076657273696F6E3A20426F6F742025AA
:102DD000642E25642E25642025730D0A0000000052
:102DE0004D4330303A30383A44433A35303A33374D
:102DF0003A37310D0A00000053746F726167652025
:102E00004D41433A20252E32783A252E32783A2504
:102E10002E32783A252E32783A252E32783A252EDF
:102E200032780D0A00000000A0000020494E5055E5
:102E300054204649525354204D41433F0D0A00004F
:102E40001027000000127A00DC0500000020004678
:102E5000C409000014020020F8B500270D460446FE
:102E60000F70E44E09E002F009FB0246204631688B
:102E700002F026FB002804D0361D30680028F2D16D
:102E800029E03068002826D0DA48301A8005060E7E
:102E90002B2E07D02C2E11D0A11C284602F0C8FAE8
:102EA0003046F8BD207A0D2815D1607A0A2812D153
:102EB0000622A11C284602F05FFBF1E7002002E099
:102EC0002954401CC0B2211889780D29F8D1211845
:102ED000C9780A2901D0FF20F8BD2F54281847705F
:102EE000DEE7F0B599B00D46064601F063FC00241C
:102EF0001490039510A8048427460421169403987F
:102F000002F097FBBCA13046F7E304A9FFF7A4FF4A
:102F10000646FF286DD004A802F0B0FA80B20090F7
:102F20006846007C002858D0B24924390A788821A4
:102F30000A425FD04C2E5CD273007B449B885B00BE
:102F40009F4476028B028B028E029802B005AD027E
:102F5000B005B702C202D802F0020A0325033B0300
:102F6000500365036804680468046804680468041E
:102F70009803A503BD03DC031A043A04530469044F
:102F80007F04A104BC04DA040005350540055005A2
:102F90005E05CE05CE056D05CE05CE05CE05CE056A
:102FA000CE05CE05CE05CE05A5055700B005CE054C
:102FB000A2020204CC03B103AD04CD02E402FC0280
:102FC0001603CE0557002A0446045E0474049004D8
:102FD00057005700CB04ED041B058648B10042584A
:102FE000039811780170517841700398801C1590F6
:102FF00001E0F8E3F8E3330003F036FB4C273D45EE
:10300000494C5557555A5E666C767E879099A7A7AE
:1030100055A4A7A7AABCC2CAFBFAF9F8F7F6F5F4BB
:10302000F3F2F1F0EFEEEEEDEEEEECEBEAE9E8E7CD
:10303000E6E555E451E3C5BFE262697179E1E0DF9D
:10304000DEDDDCDBE0E0DAD9D8E0149860308446DD
:10305000634662466146007CDB7B927B497B009144
:103060000390029301926046037BC27A63A1159894
:1030700001F0F6FEBDE1149868A140790090149823
:103080000379C27852E1149A67A1921D64E1149801
:103090008030F7E01498603018E164A18CE1149856
:1030A0008030C279F9E700224DE01498A03001E1A8
:1030B0001498C030827AF0E71498A030C278ECE718
:1030C0001498A030C27DE8E71498A03004E014986A
:1030D000A03006E01498A2304179007909E11498F3
:1030E000A230417E007E04E11498A030FFE01498E5
:1030F000A030417F007FFCE014986030027DC17CED
:1031000001920091837C427C19E014986030027F28
:10311000C17E01920091837E427E10E0149860305F
:10312000027EC17D01920091837D427D07E014986B
:103130008030827D417D01920091037DC27C3CA163
:10314000159814E03D4A39A106E120223CA103E193
:103150001498807900287DD014986030027CC17B5F
:1031600000910192149A837B36A1921D159801F06B
:1031700077FE3EE114988330ACE01498813004E08F
:1031800014988130A8E714988330417B007BB0E02D
:1031900014988030817C002967D18278417801922F
:1031A0000091037814986030C27FC8E7AEE0A6E0D3
:1031B0009BE089E080E077E06EE065E028E1F4E004
:1031C0008BE04DE0FEE020E11BE102E1F6E0E8E00B
:1031D000E0E0D8E0CDE0C9E0C5E0B5E0AAE09EE0DF
:1031E00099E08FE088E07DE072E069E060E057E020
:1031F0004EE045E0C40000200D0A000025303258A2
:103200003A253032583A253032583A253032583A39
:10321000253032583A2530325800000025782E25C6
:10322000782E25780000000025730000256400003A
:1032300025642E25642E25642E256400D60B0000FF
:103240002563000025732D2530327825303278250E
:103250003032780083E0149AF7A1973215987BE01A
:1032600014988030817C002903D0C07D002877D05D
:10327000F1E7027BC17A01920091837A427A5EE79C
:103280001498C030427C08E71498C030427E04E7AE
:103290001498C030827C00E71498C030827EFCE62F
:1032A0001498C030C27CF8E61498C030C27EF4E6B0
:1032B0001498C030027DF0E61498C030027FECE62E
:1032C0001498C030427DE8E61498C030427FE4E6AE
:1032D0001498A130417800780BE01498A130417D1A
:1032E000007D06E01498E030F4E71498E230417A6B
:1032F000007A0A020243D0E61498E230EAE7149812
:10330000E03042E71498E030027902E01498E030AF
:10331000827BCAA150E01498C030C27ABDE61498EE
:10332000C030817B0091437B027BC6A1159801F0E0
:1033300097FD5EE01498A030807A002810D0149A8F
:10334000BDA1AA32159807E01498807E002807D006
:10335000149AB9A11A32159801F082FD49E0FFE7ED
:103360002022BCA128E08120000241E0412040024F
:103370003EE0B94888210078084201D0102037E0AB
:103380004320400234E0B448882100780842F7D056
:1033900020202DE0B048882100780842F0D080201D
:1033A00026E01498C030007C02E01498C030007E03
:1033B0008100AA484258A0A11598CDE71498603022
:1033C000807F02E014988030007A8100A2480830A3
:1033D000F0E7A148882100780842D1D014988330C2
:1033E000427803781002184301280ED00C4300E005
:1033F00004439B4804420FD01598801E0390077029
:1034000059E31498C030C27B47E62120C001EFE7A2
:10341000212080020443D1E792A1159802F0A0F880
:10342000159802F02BF8014615980818039042E30E
:1034300014986030C17A002905D1017B082902D196
:10344000407BDC2809D0149A87A104A86B3200F0D5
:103450003DFDC4E2852000022CE38320000229E325
:1034600000F0EBFC00990129F4D10128F2D814995D
:1034700080318FE100F0E1FC00990129EAD10328B5
:10348000E8D81499603180E000F0D7FC0099012958
:10349000E0D10328DED814998031C8710BE300F025
:1034A000CCFC00990129D5D10128D3D81499A03199
:1034B000BAE100F0C2FC00990129CBD10128C9D89A
:1034C0001499C0318872F6E200F0B7FC0099012926
:1034D000C0D10128BED81499A031C870EBE200F029
:1034E000ACFC00990129B5D10128B3D81499A031B9
:1034F000C875E0E216AA5DA104A801F013FE5C49BC
:1035000016988842A6D81499A031E3E016AA57A1CC
:1035100004A801F007FE5649169888429AD81499D3
:10352000A03116E016AA51A104A801F0FBFD5049F4
:10353000169888428ED81499A231CBE016AA4BA1D6
:1035400004A801F0EFFD4A491698884282D81499E0
:10355000A2310876000A2DE116AA44A104A801F0C0
:10356000E1FD4349169888428AD81499A031BFE1F9
:1035700016AA3EA104A801F0D5FD3D49169888423F
:1035800088D81499A0310877000A487793E217A9E0
:1035900004A800F0EFFB002800D15BE7149810A905
:1035A000097F6030417410A9497F817410A9897F17
:1035B000C17410A9C97F01757DE217A904A800F0A4
:1035C000D9FB0028E9D0149810A9097F6030417612
:1035D00010A9497F817610A9897FC17610A9C97F7A
:1035E000017768E217A904A800F0C4FB0028D4D032
:1035F000149810A9097F6030417510A9497F817521
:1036000010A9897FC17510A9C97F017653E217A956
:1036100004A800F0AFFB0028BFD0149810A9097FC0
:103620008030C17410A9497F017510A9897F417547
:1036300010A9C97F81753EE22573000025303258FC
:1036400000000000253032582530325825303258DD
:103650000000000025630000A000002024020020DC
:10366000B08000000D0A00002E3A2D00256C640089
:10367000FFFF000000990E298FD8202804D0149A4B
:10368000FAA104A8921DC4E11498877113E216AA46
:10369000F74904A801F046FDF64916988842EBD890
:1036A0001499833115E116AAF14904A801F03AFDF5
:1036B000F04916988842DFD81499813119E016AA8A
:1036C000EB4904A801F02EFDEA4916988842D3D8A8
:1036D000149981310871000A4871ECE116AAE44995
:1036E00004A801F01FFDE34916988842C4D8149934
:1036F00083310873000A4873DDE1FCE117A904A8CF
:1037000000F038FB002811D0149810A9803087747D
:103710000A7F14996031CA7710A9497F017010A9F6
:10372000897F417010A9C97F8170C4E1149801217B
:10373000803081746946097C20291BD0149804A923
:10374000973001F075FEB6E117A904A800F012FB4E
:103750000028EBD0149810A980308774097F41723B
:1037600010A9497F817210A9897FC17210A9C97FF0
:103770000173A0E1C7759EE118AABFA104A801F0DA
:10378000D1FC009802288AD810A8008C0D2886D871
:103790001499C03148748EE118AAB7A104A801F0A9
:1037A000C1FC0098022886D810A8008C0D288ED85D
:1037B0001499C03148767EE100F03FFB0099012961
:1037C00000D047E60128FCD81499C031887472E112
:1037D00000F033FB00990129F3D10128F1D81499A5
:1037E000C031887667E181E17DE100F026FB009938
:1037F0000129E6D10228E4D81499C031C8745AE1ED
:1038000000F01BFB00990129DBD10228D9D81499BB
:10381000C031C8764FE100F010FB00990129D0D1EA
:103820000128CED81499C031087544E100F005FB99
:1038300000990129C5D10128C3D81499C03108774E
:1038400039E100F0FAFA014600980128B9D10229BD
:10385000B7D81498C030027C012A01D041752AE102
:10386000477528E100F0E9FA014600980128A8D13F
:103870000229A6D81498C030027E012A01D04177CF
:1038800019E1477717E116AA794904A801F04AFC23
:1038900078491698884294D81499A13119E016AA4B
:1038A000734904A801F03EFC72491698884288D8F2
:1038B0001499A1310875000A4875FCE016AA6C49F4
:1038C00004A801F02FFC6B491698884286D81499F9
:1038D000E0310870000A4870EDE016AA644904A8B7
:1038E00001F020FC63491698884284D81499E2318B
:1038F0000872000A4872DEE018AA5FA104A801F06D
:1039000011FC009803288CD810A8008CFF2888D8B8
:10391000C1B21498E2300170090A4170CBE018AAD4
:1039200055A104A801F0FEFB0098032884D810A834
:10393000008CFF288CD8C1B21498E0300173090ABA
:103940004173B8E00098022891D104A800F05DFA14
:10395000002800D17EE518AA48A104A801F0E2FBE6
:1039600010A8008CC1B21498E0300171002902D077
:10397000012101729FE007729DE000980228E9D1C1
:1039800004A800F042FA0028E4D018AA3BA104A839
:1039900001F0C8FB10A8008CC1B21498E03081730C
:1039A000002902D00121817485E0877483E000F052
:1039B00044FA00990129CDD10128CBD81499C031FE
:1039C000C87278E000980628C4D104A800F01DFA57
:1039D0000028BFD0149904A8CC3100F04CFA00287C
:1039E000B8D068E000990929B4D8202804D0149AE6
:1039F0001EA104A8AA320CE01498A03087725AE0E5
:103A000000990929A6D8202806D0149A17A104A83D
:103A10001A3201F087FB4EE0149887764BE016AA25
:103A2000134904A801F07EFB19211698C9028842A7
:103A300005D914990020273101F055FE0AE51499A3
:103A400080B2273101F04FFE14980121203001711E
:103A50004020044314980A4B6030027DC17C0293DD
:103A600001920091837C427C0CE0000025730000F1
:103A70006C360000FFFF0000256400002578000080
:103A800052C300009AA1039801F0EAF913E000F094
:103A9000D4F900990129D1D10128CFD81499C03186
:103AA000C87308E000F0C9F900990129C6D10128BE
:103AB000C4D800E0044320041BD5AF70FF2E02D011
:103AC0009148B10045580120C003201A00128F49C7
:103AD00080000A582B468EA1039801F0C1F910E02E
:103AE00081200002E6E743204002E3E72120800234
:103AF000E0E789A1002001F05BFC050001D0FFF7A1
:103B000004FA204619B0F0BDF3B599B0054600F0AF
:103B100051FE04467C4E0020243E169030707F48B3
:103B2000FCF73EFF00287DD0222826D17C48406A41
:103B30000204120C21D015A800901A9F17AB294639
:103B40000220FDF7C4FA80B2281800212038C1777E
:103B500005A92846FFF780F92B286DD1062271A10F
:103B600005A801F037FC002808D0214606226B3159
:103B700005A801F02FFC002803D066E030788021F2
:103B800001E03078882108433070000654D5204683
:103B90006030067CC37B827B417B019102A94CC1D2
:103BA000017B0091C37A584860A18030C26A3846D0
:103BB00001F056F90A3505A928460A37FFF74CF9EE
:103BC0002C2842D16846007D202802D1A07E002802
:103BD00006D021461A3105A801F030FD002834D165
:103BE00005A801F04BFC021D2946384601F0C4FC33
:103BF00005A801F043FC451905A82D1D01F03EFC68
:103C0000C419241D21462846FFF76BF9169005A814
:103C100001F034FC0546204601F030FC28180E3037
:103C200082B200E00BE010A8808A009044A302203A
:103C30001A99FDF79EF908E000201BB0F0BD0221A3
:103C40000023414A0846FCF735FF1698F5E770B5A2
:103C500000F0B0FD05463D493D48FFF755FF0446DD
:103C6000000408D5C035A87A012803D1214639A01F
:103C700001F0E8F870BD002CFCD0200702D500F060
:103C8000E1FA0FE0E00602D500F0ACFE0AE0E00445
:103C900008D521A001F0D6F8002000F0FAF90120A3
:103CA00000F0F7F9600607D5042000F06EFB8028CD
:103CB000E0D100F097FE01E02006DBD500F0DBFA52
:103CC00070BD114824384178002910D08288274BD4
:103CD00000219A4203D28288521C828000E08180B7
:103CE0008288234B9A4202D30122827081807047DE
:103CF000465725642E25642E25642E25643A2564B6
:103D00003A25640D0A000000C4000020F8010020DC
:103D100025733A25730D0A000D0A0000300009468C
:103D200000020946FFFFFFFFFFFF00002573256328
:103D3000256325632563256325630D0A00000000C4
:103D4000FFFFFFFF0000000051C30000600C0020D7
:103D5000600A0020203E2053454743503A455252C6
:103D60004F523A253034580D0A000000FFFF000082
:103D7000983A0000F3B5002583B02E462C460398F0
:103D800001F07CFBC7B2002001900090F81F0928C9
:103D900039D22EE001F04EF801680398405D095CCD
:103DA000202902D02E2811D02DE00A214C43303C8E
:103DB00001198CB2FF2C26D8009901AA5054009802
:103DC000401CC0B2009003281DD810E0FF2C1AD868
:103DD000761CF6B2042E16D8002401A801F0DBFAF6
:103DE000049989192039C8770020019000906D1C32
:103DF000EDB2BD42CED301A801F0CDFA04998855A9
:103E0000012005B0F0BD0020FBE770B50546002499
:103E10000CE001F00FF80068295D415C8800484023
:103E2000000601D4002070BD641CE4B2284601F0F5
:103E300025FBA042EDD8012070BD10B50446112825
:103E400001D2FF2010BD00F0F5FF0168085D2028B9
:103E500005D0204628383F2803D2513C08E0303CAA
:103E600006E02046402C04D9472C02D90446313CB8
:103E7000E4B2204610BD70B50E460546002401F0A0
:103E8000FDFAC1B2C80706D1102904D82878002845
:103E900001D0002016E0002070BD2A5C392A01D92B
:103EA000373A00E0303AD3B22A185278392A01D989
:103EB000373A00E0303A1B0113433355641C801C31
:103EC000E4B2C0B28842E8D3012070BDF7B584B037
:103ED0000546002401F0D2FA2978C0B2002901D0A9
:103EE000112802D0002007B0F0BD002601AF60000D
:103EF000201841190322684601F03EFB684681788C
:103F0000002904D0059801F05BFA0028EBD0684640
:103F10008670FFF77AFF0028E5D039196846FFF769
:103F2000AAFF641CE4B2062CE1D3062201A906987C
:103F300001F022FB0120D6E7F8B50D46044601F05A
:103F40009DFAC0B2C10716D1102814D820780028D5
:103F500011D00026C1B268460170617841702A46CE
:103F600086706D1C05A101F0DDF8A078A41C002866
:103F7000F0D10120F8BD0020F8BD00002578000038
:103F800070B5314C256866172660304EB047256005
:103F900070BD2F4A10B50021104202D112240146F3
:103FA0000EE02C4A904204D32B4A104201D1102437
:103FB00006E0294A5242904209D3800C07D11124CD
:103FC00072B600231A462046FFF7DAFF62B610BD2C
:103FD0001F4910B5084207D172B6002301461A46A0
:103FE0001320FFF7CDFF62B610BD70B514460A4628
:103FF000184B1A49984208D3850C06D1FF25013584
:10400000AC420CD8E3188B4209D8002C01D188426D
:1040100005D80F490E4B41185B42994201D200204E
:1040200070BD72B6234601462220FFF7A9FF62B693
:10403000204670BD10B50346002002E01C5C0C5405
:10404000401C9042FAD310BD00E200E00110FF1FB7
:104050000001FEFF00FE03000001FCFFFFFF030064
:1040600070B50D46144601000BD001290DD0022970
:1040700001D0032804D11A4621462846FFF7DAFF6B
:1040800070BD062221462A48F8E71A4621462948EB
:10409000F4E7F8B5002818D0012818D002281AD063
:1040A000032817D12725ED020C270826002420031A
:1040B0004019FFF78DFF641CA4B2BC42F7D338034C
:1040C0004519002E06D000240EE0194800E01948DA
:1040D000FFF75FFFF8BD07252D03E5E72002401934
:1040E000FFF757FF641CA4B2B442F7D3F8BD70B514
:1040F0001C460B46154601000BD0012910D00229A1
:1041000001D0032804D1224629461846FFF76DFF47
:1041100070BD0020FFF7BDFF062229460448F5E7E1
:104120000120FFF7B6FF224629460248EEE70000CD
:1041300000FF010000FF030035490020C860704700
:1041400070B5334C6088401C6080FFF7BAFD00F00A
:10415000E5F9304800250078002808D0E088401CA8
:1041600080B2E080642802D301202070E5807D21A8
:10417000C900608801F0BFFA002905D16580A088D8
:10418000401CA080FEF772FB3C21A08801F0B3FA2E
:10419000002903D1A580A068401CA06070BD10B5A7
:1041A0001B4CE068411CE160232803D3FFF7C8FFE4
:1041B0000020E06010BD30B50124174985B0200310
:1041C0000860164D2846FCF7A5F8FCF70DF87D2190
:1041D000C90001F090FA0090002004900290019430
:1041E000694603942846FCF7D5F801212846FCF7D8
:1041F000E7F82846FCF7F7F805B030BD04488068BA
:10420000704703488088704701484088704770476E
:10421000140200209C00002000E100E0001000409B
:104220001FB56846FCF786FA69460548FCF790FA20
:104230001FBD10B5E1204002FCF735FB10BD0000AA
:1042400000D0004010B500F0B7FA00F0CBFB10BD75
:1042500010B5C648FCF7A4FB172808D01C2806D0C8
:104260000320FCF7F7FB0220FCF7F4FB10BD032052
:10427000FCF746FDF7E7FFF7EBFFBFF34F8FBD49B4
:10428000BB48C860BFF34F8FFEE7BB4800210170F9
:1042900081708180C1804170C1707047F3B581B079
:1042A00000F088FA06460020044600900198243663
:1042B0008704B2483818FCF773FBAF4D172808D0B5
:1042C00002DC00285FD14FE018284DD01C285AD1BD
:1042D00041E0AA4810383818FCF762FBC00707D045
:1042E0000120A870A548012108383818FCF75AFBAE
:1042F000E878012833D0A2483818406A0404240C16
:1043000041D001208002844200D90446F01C01F013
:10431000D9F9E9680A19904201D2401A84B22246BA
:1043200002990198FCF7BEFD84B2E868210A0019E1
:10433000E860684601704470022269460198FCF703
:1043400021FD0027EF80F01C01F0BCF9E9688842EC
:1043500019D8AF80AF700198FCF7D2FC13E0019838
:10436000FCF7CEFC0020FEBD2023864A01210198E7
:10437000FCF7A0FB01460198814204D10020E860CF
:104380000198FCF702FC2046FEBDF1B58AB000F0B2
:1043900011FA0646243600F00DFA05463078C93584
:1043A000202700280FD0F01C01F08CF91922D2022E
:1043B000002801D0904209D96978012903D101462A
:1043C000714800F03FFD40200BB0F0BD27240A9952
:1043D000E402042907D00A4607210903022A4FD024
:1043E000032A48D03BE06978012903D1014667A040
:1043F00000F028FD6049002088600320FFF749FE97
:104400005D480121017004466F490520FFF746FF12
:1044100003000DD02720A168C00209186A4A0320B2
:10442000FFF765FEA16880B20818A0600020A08098
:104430006078012809D0E07801280AD0F01C01F04A
:1044400041F9A1688842DFD80AE0687801285AD08B
:1044500005E06878012802D15CA000F0F3FC402759
:10446000F01C01F02FF944498968884252D16A78DA
:10447000012A4AD04DE0022205940092079103E000
:1044800003220092079405916978012903D101461E
:104490005CA000F0D7FC384C0020A0600A98FFF721
:1044A000F8FD01208002069001202070607801282C
:1044B000CBD0F01C01F006F90122A16892028A1803
:1044C000904202D2401A80B2069007983E4A4118A4
:1044D000069B0098FFF7C4FD03041B0C0CD0059845
:1044E000A168394A41180A98FFF701FEA16880B215
:1044F0000818A0600020A080F01C01F0E3F8A1687B
:104500008842D3D8ACE74FA0A7E702465BA000F0F3
:1045100099FC8027FFF7B9FE384655E730B51648B5
:104520007D230578614A9B0101240021012D0CD1D6
:104530008588954203D285886D1C858000E0818046
:1045400085889D4201D3447081808578012D0CD1EE
:10455000C588954203D2C288521CC28000E0C18047
:10456000C2889A4201D3C470C18030BD30000D466C
:104570000400FA0500ED00E02C02002030000146A6
:104580000002014652C300007C6A0000203E205316
:10459000454743503A46575F5550444154453A4E7B
:1045A0004554574F524B202D204669726D776172EA
:1045B000652073697A653A205B25645D20627974B1
:1045C00065730D0A0000000060060020203E2053A5
:1045D000454743503A46575F5550444154453A4643
:1045E00041494C4544202D204E6574776F726B20F5
:1045F000646F776E6C6F61642074696D656F75743C
:104600000D0A0000203E2053454743503A46575F6D
:104610005550444154453A464C4153482D746F2DF2
:10462000464C415348202D204669726D7761726572
:104630002073697A653A205B25645D206279746530
:10464000730D0A00203E2053454743503A46575FBA
:104650005550444154453A4641494C4544202D204B
:104660004669726D7761726520757064617465204A
:1046700074696D656F75740D0A000000203E20534B
:10468000454743503A46575F5550444154453A5385
:10469000554343455353202D202564202F20256466
:1046A0002062797465730D0A00000000FFFF0000AE
:1046B000FEB50446022818D23A4E6500705B0090A1
:1046C0000120694608713848A700C059FBF7CDFEA4
:1046D0003548715B401F025D801E005DFBF7A0FF47
:1046E0003148715BC059FBF73CFFFEBD7047704716
:1046F00010B50120FFF78BFD0122920343205100EA
:104700000006FDF7E5FA0020FFF781FD26490020AD
:1047100008390870FFF7CCFF0120FFF7C9FF10BD73
:1047200022490220086322498860704710B5FDF7CE
:1047300062FA002801D0002010BD012010BD012028
:10474000704770470020704710B5022807D2154AFD
:104750004100515A144A80001058FBF710FF10BD59
:1047600010B5022807D20F4A4100515A0E4A800064
:104770001058FBF7F6FE10BD022808D20A49820045
:1047800089584A68074B4000185A42404A607047AF
:1047900010B5044A4100515A034A80001058FBF7F3
:1047A000D6FE10BD306800004402002040110041D8
:1047B00000200041F4487047F8B5F34FFC203876EC
:1047C00000207876387001247C700546B8700F217F
:1047D000B81D00F02EFF0F22ECA1B81D00F0CCFE9A
:1047E000FC703C71092078713946C02260314A74EE
:1047F000A8268E74CD747B230B754A758E75CD7586
:10480000FF200C7648768876C8760D7700230A203C
:10481000DD49584341180846603044778477C02208
:10482000C277A822203002700022427002258570D3
:10483000DA480D46181883352870060A6E70AD1ECA
:104840002871000A68711420CF4D5843461930462C
:10485000A1300270150A45703546D148A03528723E
:10486000000A68720846E0300270170A4770E231A9
:104870000A70170A4F70027142718271C27102721E
:104880004272EC70C7482871000A6871C348A236AA
:104890003071000A7071BC48D9000818C030027429
:1048A0000C2141748474C274027542755B1C82755C
:1048B000DBB2C275022BAAD3B34D0120C035A8725A
:1048C00028460A21A63800F0B4FE002634461420FB
:1048D00031464143AC480F183846AA300A2100F04F
:1048E000A8FEA037761CF6B23C75022EEFD3A64880
:1048F0000821803044748474C174017541758175D8
:104900000A21173000F095FE0126EE72EC732B2081
:1049100028736873A8739C48210AE03004754175B8
:10492000811C0C75220A4A750476220A42760C769E
:10493000200A0D464876C23D2C719B49681C0171C6
:10494000090A4171811D002000F0CDFE502028731E
:104950000020687328460F30AE731921044600F01A
:1049600068FE132291A1204600F006FE284628305A
:104970002321044600F05DFE202291A1204600F094
:10498000FBFDF8BD70B5FFF7DCFEFC237E4A00217D
:104990000120FFF765FB7C4D687E297E00020843FD
:1049A00002D08F49884207D1FFF706FFFC23764AE1
:1049B00000210120FFF79BFB002401260A20604311
:1049C000401960308677FFF7BDFEE1004919C0311C
:1049D000641CE4B20874022CF0D3EE702E7109202E
:1049E000687170BD10B5FC23674A00210120FFF7F4
:1049F0007EFB10BD10B500F0BFFD10BD10B500F07E
:104A0000BBFD10BD10B5044601465F4806226B3061
:104A1000FFF7F4FF5C480422A11D7130FFF7EEFFA1
:104A20005948214604220E317530FFF7E7FF5648FA
:104A3000214604220A317930FFF7E0FF524821462F
:104A4000042212319330FFF7D9FF4F48A17D803007
:104A5000012902D00121417410BD0021FBE710B5EE
:104A60004949044606226B31FFF7C4FF4649042238
:104A70007131A01DFFF7BEFF434920460422753166
:104A80000E30FFF7B7FF40492046042279310A3043
:104A9000FFF7B0FF3C492046042293311230FFF764
:104AA000A9FF39488030407C002801D0022000E076
:104AB0000120A07510BDF0B589B0334D03A90120C8
:104AC000FCF7DEFF6846427C017CC07B6B4607C377
:104AD0006846837B427B017B42A000F0B3F92F46FE
:104AE0008137797B387B09020143B81C4278007812
:104AF000120202436846407D00900192029168468E
:104B0000037DC27C817C41A000F09CF96846407F17
:104B100000906846037FC27E817E48A000F092F933
:104B20006846407E00906846037EC27D817D49A034
:104B300000F088F908A84078009008A80378684633
:104B4000C27F817F49A000F07DF9002630460A210E
:104B50004843401904466034617F012912D09221F4
:104B6000495D01290FD0014681314A790B79110243
:104B70001943803002908278009201914378027844
:104B8000E17F7FE090E084E0600E002057495A37D3
:104B9000353053525F32504F52540000881300009A
:104BA000B80B0000581B000052C300006465766912
:104BB00063652E77697A77696B692E6E657400007C
:104BC0002F77697A37353073722F66772F573735DD
:104BD0003030785F5332455F4170702E62696E00ED
:104BE000FFFF00002023204D41433A20253032585A
:104BF0003A253032583A253032583A253032583A30
:104C0000253032583A253032580D0A0020232049E9
:104C100050203A2025642E25642E25642E256420FC
:104C20002F20506F7274313A2025642C20506F72FF
:104C300074323A2025640D0A00000000202320472A
:104C400057203A2025642E25642E25642E25640DD8
:104C50000A000000202320534E203A2025642E25F0
:104C6000642E25642E25640D0A00000020232044B4
:104C70004E533A2025642E25642E25642E25640D7E
:104C80000A00000049A000F0DDF8607F03280CD086
:104C90001DE0002E1BD17879397902020A4329469A
:104CA00097314DA000F0CEF811E0E07F00280BD145
:104CB00002980078002807D102984078002803D194
:104CC00002988078002809D04DA000F0BBF8761C2F
:104CD000F6B2022E00D239E709B0F0BD4DA0F4E7DC
:104CE00010B5514C5148E17AFBF75CFE4F48217BEF
:104CF000401EFBF757FE4D48617B801EFBF752FEBE
:104D00004A48A17BC01EFBF74DFE4848E17B001DD1
:104D1000FBF748FE4548217CC01CFBF743FE10BD55
:104D200010B5414C86B0603C214606226B31684686
:104D3000FFF760FE214601A8042271310230FFF71F
:104D400059FE214603A8042275310230FFF752FEB6
:104D5000214602A8042279310230FFF74BFE21469A
:104D600004A8042293310230FFF744FE8034607CB3
:104D7000002801D0022000E001206946887500204B
:104D8000FCF77EFE06B010BD27482030012141749B
:104D90007047254820300021417470470146224861
:104DA00010B506220B3000F0E7FB10BD2023204495
:104DB000657374696E6174696F6E2049503A20257D
:104DC000642E25642E25642E2564202F20506F72BA
:104DD000743A2025640D0A00202320446573746909
:104DE0006E6174696F6E20446F6D61696E3A202543
:104DF00073202F20506F72743A2025640D0A000032
:104E00002023232055445020313A31204D6F6465D2
:104E10000D0A00002023232055445020313A4E2013
:104E20004D6F64650D0A0000C00E0020036000464F
:104E30007047000010B501F023F8001D10BD00BF41
:104E4000511800000FB4054910B503AA029801F0EB
:104E5000ABF810BC08BC04B0184700009800002054
:104E60000FB41CB5074B06AA7B4469460090059811
:104E700001F06BF80020694601F07AF81CBC08BC10
:104E800004B018470511000070B504468569006834
:104E9000C10601D5302600E02026C00707D070BD2E
:104EA00062683046A1689047206A401C20626D1EEF
:104EB000F6D570BD70B5044685690078C00707D186
:104EC00070BD6268A16820209047206A401C206263
:104ED0006D1EF6D570BD70B50C460546012A05D08D
:104EE0002878800600D5EA69002302E0012305E066
:104EF0005B1C934202D2E05C0028F9D1A869E61855
:104F0000C01AA861286AC01828622846FFF7BCFFAB
:104F100004E06A682078A968641C9047B442F8D31A
:104F20002846FFF7C7FF70BDF7B500257529106843
:104F3000009914A611D0C046C046002802DA4042AB
:104F400011A608E0009909688A0701D50FA602E0BA
:104F5000490704D50EA6012501E0C046C046009FC2
:104F60000024243704E001F0D9F830313955641CAD
:104F70000028F8D12B4632462146009800F088FFE1
:104F8000FEBD0000000000002D0000002B0000000E
:104F90002000000070B504460D4621461068C0464A
:104FA000C0462188090502D50F4A7A4402E00E4A1C
:104FB0007A440E3223460021243305E00607000917
:104FC000360F965D5E54491C0028F7D120780023E7
:104FD000000705D5702D03D0002901D0022311321E
:104FE000204600F055FF70BD86180000F3B504465A
:104FF000002081B020622046E168884700287DD0EB
:10500000252802D06268A16883E0454F00257F44CF
:105010002046E16888472028064608DB312E06D264
:10502000B81920380078002801D00543F0E7A80718
:1050300001D5042085430020E0610746A0612A2EA7
:105040000AD0304601F01DFB002827D0B800001917
:10505000303E0090866119E00298BA00121902C829
:10506000916102902046E1688847012F064617D1DA
:10507000E06900281FDA202085431CE000980A21FF
:105080008069484300998019303888612046E1687A
:105090008847064601F0F5FA0028EFD1012F0AD023
:1050A0002E2E08D12046E168884706462020054379
:1050B0007F1C022FC3DBA069002803DA4042A061F5
:1050C00001200543E80701D010208543002E24D09D
:1050D00030464138192803D80120C0020543203644
:1050E000204625603146029A1546FBF70DF8002848
:1050F0000CD0012807D0ED1DE80800E00DE0C0004D
:105100000830029077E72D1D029574E762683046FB
:10511000A1689047206A401C6CE7206AFEBD000031
:105120004A1800000FB400B58DB010A909900B907B
:105130000020C04300910A9000200C90074878445A
:105140000690074878446A4607900F9909A800F02E
:1051500055FF0DB008BC04B018470000DF0E00007A
:10516000F90E0000FFB51D460027FF4383B05C68C1
:10517000002001909E68A96904987F1C88470090D0
:10518000296A88470028F6D10098401C0CD00320DB
:1051900040028443002E19DD600614D500982B28A8
:1051A00009D02D280FD103E00020C04307B0F0BD87
:1051B000012080020443A96904987F1C8847761E59
:1051C000002E009002DD0098302803D005980028BA
:1051D00025D035E00120A96940020443761E0498D9
:1051E0007F1C8847002E009003DD782805D05828C2
:1051F00003D00598002810D022E00598002801D09F
:1052000010281DD10120A96940028443761E04980C
:105210007F1C88470090102002E0082000E00A2050
:1052200005900DE00121059A49020C430199761E73
:10523000514308180190A96904987F1C8847009081
:10524000002E05DD0599009800F0C2FE0028E9DA7D
:10525000E96904988847A00502D40120C043A5E766
:10526000E00722D1600611D56005019800D54042C3
:1052700029680A1D2A600968220501D5087014E012
:10528000220701D5088010E008600EE02868011DA3
:1052900029600068210502D50199017005E0210708
:1052A000019901D5018000E0016038467EE7FFB535
:1052B000144683B000200026009050680190916948
:1052C0009768049888470C9905460698084305D0C6
:1052D00009E0A1690498761C88470546216A28469A
:1052E00088470028F5D1681C03D00198C00704D076
:1052F00017E00020C04307B0F0BD2068011D216009
:10530000006800900DE00198C00704D10098057076
:105310000098401C0090A169761C04987F1E884765
:105320000546002F1CDD681C1AD0069800280FD0F7
:10533000E817C00E4019411140098A000699400142
:1053400051182A1A0968012090400142DBD107E078
:105350000C980028D7D12846216A88470028D2D047
:10536000E169049888470C98002807D1002E05DDD4
:105370000198C00702D1009800210170A068B842CE
:1053800004DD0C98002804D0002F02D00120C04377
:10539000B1E73046AFE770B5064600F075FD04682A
:1053A000054630460A22002100F05CFE2C6070BDEC
:1053B00010B5024A00F08EFE10BD00004C02002025
:1053C000401ECAB24178401C8A4202D00029F9D15D
:1053D00000207047034610B50B439B070FD1042AEA
:1053E0000DD308C810C9121FA342F8D018BA21BAA9
:1053F000884201D9012010BD0020C04310BD002A01
:1054000003D0D30703D0521C07E0002010BD03785F
:105410000C78401C491C1B1B07D103780C78401CDE
:10542000491C1B1B01D1921EF1D1184610BD000072
:10543000034670B502460B439B070FD10E4CE601A5
:1054400000E008C208C91D1B9D433542F9D0D9B2FE
:105450001170521C00290DD01B0AF8E70B78491C6B
:105460001370521C002B05D00B78491C1370521C72
:10547000002BF3D170BD00000101010130B5441CC7
:1054800003E00178401C00290DD08107F9D10B4BB6
:10549000DD0104C8D11A91432940FAD0001B0A0645
:1054A00003D0C01E30BD001B30BD0A0401D0801ED9
:1054B00030BD0902FCD0401E30BD000001010101D9
:1054C0000346F0B50B439B072DD1244DEF01042A71
:1054D00029D308C810C95E1B9E43121F3E4017D037
:1054E000D8B2E1B2401A3106014310D198B2A1B24C
:1054F000401A310401430AD118022102000A090AA4
:10550000401A3102014302D1180E210E401AF0BD9B
:10551000A342DCD018BA21BA884201D90120F0BDDB
:105520000020C043F0BD002A01D10020F0BD037867
:105530000C78401C491C002B0DD0A3420BD1521EED
:1055400009D003780C78401C491C002B03D0A342DF
:1055500001D1521EEBD1181BF0BD00000101010169
:10556000421E5378521C002BFBD10B78491C137040
:10557000521C002BF9D17047F8B5042A2CD38307AD
:1055800012D00B78491C0370401C521E83070BD0AD
:105590000B78491C0370401C521E830704D00B7803
:1055A000491C0370401C521E8B079B0F05D0C91A63
:1055B000DF002023DE1B08C90AE0FAF7DDFDF8BD95
:1055C0001D4608C9FD401C46B4402C4310C0121FA4
:1055D000042AF5D2F308C91A521EF0D40B78491CDC
:1055E0000370401C521EEAD40B78491C0370401C07
:1055F000012AE4D409780170F8BD01E004C0091F54
:105600000429FBD28B0701D50280801CC90700D07A
:105610000270704700290BD0C30702D00270401CF3
:10562000491E022904D3830702D50280801C891EEB
:10563000E3E70022EEE70022DFE70000024670B554
:105640000A4392072AD11E4DEE0104C808C9541B13
:105650009443344017D0D0B2D9B2401A2106014346
:1056600010D190B299B2401A210401430AD110021C
:105670001902000A090A401A2102014302D1100E40
:10568000190E401A70BD9A42DFD010BA19BA88427A
:1056900001D9012070BD0020C04370BD02780B7895
:1056A000401C491C002A09D09A4207D102780B7885
:1056B000401C491C002A01D09A42EFD0D01A70BD7C
:1056C000010101010378C2781946437812061B02D2
:1056D00019438378C0781B04194311430902090A4E
:1056E000000608437047020A08704A70020C8A706C
:1056F000020ECA707047002203098B422CD3030AA2
:105700008B4211D300239C464EE003460B433CD40E
:10571000002243088B4231D303098B421CD3030A76
:105720008B4201D394463FE0C3098B4201D3CB01A6
:10573000C01A524183098B4201D38B01C01A5241D6
:1057400043098B4201D34B01C01A524103098B42DA
:1057500001D30B01C01A5241C3088B4201D3CB00C5
:10576000C01A524183088B4201D38B00C01A5241A8
:1057700043088B4201D34B00C01A5241411A00D258
:1057800001465241104670475DE0CA0F00D04942C1
:10579000031000D34042534000229C4603098B4231
:1057A0002DD3030A8B4212D3FC22890112BA030AB9
:1057B0008B420CD3890192118B4208D3890192113B
:1057C0008B4204D389013AD0921100E08909C309C0
:1057D0008B4201D3CB01C01A524183098B4201D3C2
:1057E0008B01C01A524143098B4201D34B01C01AAD
:1057F000524103098B4201D30B01C01A5241C30825
:105800008B4201D3CB00C01A524183088B4201D393
:105810008B00C01A5241D9D243088B4201D34B00AE
:10582000C01A5241411A00D20146634652415B10F0
:10583000104601D34042002B00D5494270476346D1
:105840005B1000D3404201B50020C046C04602BDF7
:105850007047704770470000F0B50C46871A9C41AE
:105860000D46861A9D4103D2C01BA141D219634146
:105870000D0D1F0DC94EEC1BAE435CD07F057F0D97
:105880000026002F51D02D05AC46A943DD0201238F
:10589000ED0A1B051D4320231B1B24D41746E7409C
:1058A000381871412F46E740CC199D4028183146E1
:1058B00061410C0D27D161449A4013D50023401C4F
:1058C000594152000ED14008400001224B005205C0
:1058D000D34207D305204007C14201D5B04900E0BB
:1058E000B0493046F0BD6B00002A00D001229A1862
:1058F0001F23203C1B1B01D5002302E0E540281894
:1059000071410C0DD7D0012424050919C407CD0716
:1059100040084908E40F28436144002CD5D00024F6
:10592000401C61419A40D0D1CDE76A05520DD9D1D2
:10593000C90FC907D5E79C4D4E00002801D00124AE
:1059400000E0002434195F00002A01D0012600E0A5
:105950000026BE19954FAC420CD8AE420AD8B442CC
:1059600006D001256D05EC42BCD010461946F0BDAD
:105970009942FCD000203946F0BDF0B51FB40C466A
:105980000F46811A9F412546861A9D4106D2012560
:10599000ED076F40401ABC4152187B41210D1E0D8E
:1059A0008D1BAC467D4D8D437ED075056D0D7CD035
:1059B0000D05AE46AC431B031B0B794D52429D4176
:1059C000202366469B1B14D31746F7403818002641
:1059D0000090744160462F460741E41900989D40AD
:1059E0002818664116D4714671189A4025D50123AE
:1059F00020E093182A466A415200002B00D0521C26
:105A00001E23203E9B1B002B61DD3541EE1728181D
:105A10006641E8D5001876415B1C9A4000D3401CD3
:105A20004B05F3181524E34010D3002B52D07146D8
:105A30007118D30FC01802D3491C05B0F0BD012363
:105A4000DB079A42F9D140084000F6E701225205EF
:105A5000B21801D1002853D00123CC0ADB029943AC
:105A6000891E002A08D1020C03D0020C0004103950
:105A700002E00246002020390023550B05D1120216
:105A80000823550B01D152010D23550C01D11201F0
:105A90001B1DD50C01D192009B1C150D01D152008C
:105AA0005B1C2025EE1A01E02CE022E00546F540C3
:105AB00015439840CA1AE10769181305C918002A46
:105AC000BBDA032040070818C10FC9070FE0714671
:105AD0006118B2E7F10740080843711071444A00A9
