:020000040000FA
:10000000601B0020A9010000017D0000B301000079
:1000100000000000000000000000000000000000E0
:100020000000000000000000000000000D7D000046
:100030000000000000000000157D00001D7D000094
:10004000257D00002D7D0000357D00003D7D0000F8
:10005000457D00004D7D0000557D00005D7D000068
:10006000657D00006D7D0000757D00007D7D0000D8
:10007000857D00008D7D0000957D00009D7D000048
:10008000A57D0000AD7D0000B57D0000BD7D0000B8
:10009000C57D0000CD7D0000D57D0000DD7D000028
:1000A000E57D0000ED7D000000F002F800F050F862
:1000B0000CA030C8083824182D18A246671EAB467D
:1000C00054465D46AC4201D100F042F87E460F3EF8
:1000D0000FCCB6460126334200D0FB1AA246AB46EF
:1000E0003343184704430000244300000023002446
:1000F00000250026103A01D378C1FBD8520700D35F
:1001000030C100D50B60704710B5642902D103F0EF
:10011000E3FA10BD782902D103F014FB10BD632966
:1001200002D103F0CDFE10BD732902D103F0D0FE41
:1001300010BD002010BD1FB503F03AFE04000020E2
:10014000002104F02DF8401C60601FBD10B510BDEB
:1001500003F0BEFF1146FFF7EEFF01F0E0FA03F0F7
:10016000E5FF03B4FFF7F2FF03BC01F037FA00002C
:1001700070B505460C46164602E00FCC0FC5103E82
:10018000102EFAD2082E02D303CC03C5083E042E4B
:1001900007D301CC01C5361F03E021782970641C08
:1001A0006D1C761EF9D270BD07488047074800478E
:1001B000FEE7FEE7FEE7FEE7FEE7FEE70448054947
:1001C000054A064B70470000ED010000A900000041
:1001D000600F0020601B00206013002060130020CF
:1001E00035480068704734484068704710B5334858
:1001F000816B334A1161C16B324841600021016259
:1002000041698907CA0F012191404269D207D20F83
:100210009140CAB2416940698904890E5143800204
:10022000294A800E504303F012FD2349086010BD97
:10023000F8B5264F0126234D01280FD00020286253
:10024000214C1046214603F002FDC0B2012808D817
:10025000EE616F6101210A46134619E02E620C46D9
:10026000EFE70021E961FF2101318006800A0843A0
:10027000686168698007C00F86406869C007C00F61
:1002800086406869F2B28004810E68698002830E3C
:100290002046094C51436060584303F0D8FC20606D
:1002A000F8BD30B4054B9C6B054D2C61DB6B054CE8
:1002B000636030BCBCE700000000002080FD03004C
:1002C000001200410010004100127A0000010200FB
:1002D000F0B52122002310265206904201D1674A30
:1002E00008E043221206904202D1644A403201E003
:1002F000624A8032012425460F689D402F40AF425C
:1003000043D10F79012F0DD045614D79AD070DD542
:100310009C001559AD08AD001551155902273D43F4
:1003200015510BE007692F430761EEE79D00575910
:10033000BF08BF0057515759274357514C7964079D
:1003400004D59C00155904273D4303E09C00155932
:100350000427BD4315514C79A40604D59C001559BA
:1003600020273D4303E09C0015592027BD4315512C
:100370004C79640604D59C00155940273D4303E0A1
:100380009C0015594027BD4315515B1CB342B1D3A6
:10039000F0BD3B490160002101716221417170474C
:1003A0000246126800200A4200D0012070470A0667
:1003B000920D012312189B02D21811600A0A9200B2
:1003C00010185A0080180160704710B50B069B0D7D
:1003D0000124CA431B18A4021B191A60090A8900C8
:1003E000081861004018026010BDF0B50126254DC7
:1003F000002334469C400C420ED0002810D0012827
:1004000011D0204C9F0080343C192768BF08BF00E2
:1004100027602768174327605B1C102BE9DBF0BDC2
:100420009C006419F1E79C006419276CBF08BF00A9
:100430002764276C17432764EEE77CB504461E4605
:100440000D466846FFF7A5FF6846009502716946AC
:100450002046FFF73DFF21204006844201D10020C5
:1004600006E043200006844201D1012000E0022082
:1004700032462946FFF7B9FF7CBD0000003000413D
:10048000FFFF00000020004110B504461848016B32
:1004900002290AD0006B032807D0FFF7A1FE2146EE
:1004A00003F0D5FB1349086110BDFFF79CFEF6E78A
:1004B00010B5FFF7E9FF0F49886803228008800024
:1004C00010438860002010BD0A494A68D207FCD159
:1004D0000860704700B50346FFF7F6FF184600BDF9
:1004E000044841688907FCD50068C0B27047000025
:1004F00000100041006000400078704701707047B4
:1005000030B5002405E00D19ADB2455D1555641CEC
:10051000A4B29C42F7D330BD70B5002405E00E199B
:10052000155DB6B28555641CA4B29C42F7D370BD6C
:1005300070B514000FD01A4A83049E18F268400761
:1005400095B2184AC00A10430A4623462946FFF7C7
:10055000E3FF2819F06070BD70B514000FD0104A89
:1005600083049E18B26A400795B20F4AC00A10432E
:100570000A4623462946FFF7C3FF2819B06270BD1B
:1005800010B500290BD0064A83049B189A6A4007CD
:10059000054CC00A5118204389B20818986210BD52
:1005A0000002014600000246000003463849374871
:1005B000086070473649354808600021C943800704
:1005C0000160002181607047314901200860704757
:1005D0002F492E48086080078168490849008160DA
:1005E000704700B50246FFF7F3FF0120800711684E
:1005F000016051684900816025490120086000BD03
:1006000023482249016089078B68012213438B60CC
:10061000026070471E491D4A0A609207106001205F
:10062000086070471A481949016001218A07D160A2
:1006300001607047012080074069C0B27047012007
:1006400080070069C0B27047012080074069C0B2CE
:10065000704701208007006870470D490B4A0A6007
:1006600092071060012008607047012080074068F1
:10067000704701208007806870470549034A0A6077
:1006800092079060012008607047000051E5CC1A85
:10069000000C004070B50446082802D90020C04371
:1006A00070BDFB48A604301805461021FFF726FF51
:1006B0002846FFF721FF0028FAD1F5481F211830FE
:1006C0003018FFF71BFFF34801218288A1408A43BD
:1006D0008280F14A002061005052EE49891D085580
:1006E000EB48203034182046FFF706FF0028FAD1E7
:1006F000012070BDF8B51C4616460F460546082871
:1007000002D90020C043F8BD012F06D0022F04D02B
:10071000042F02D00420C043F8BD6007810FDF48DA
:10072000FAD1002C0CD0012F02D0022F08D103E007
:1007300021210C42F0D003E0A10601D52106EBD522
:100740002846FFF7A7FF21090901D1483943AF0423
:1007500010383818FFF7D2FE002E0AD1CD48D04A03
:100760000688711C89B20180914202D1032189035C
:100770000180C748F03038184661C5480121381853
:100780000646FFF7BBFE3046FFF7B6FE0028FAD15B
:10079000C048E107C90F4288A940114341800121A7
:1007A0008288A9408A438280BB4A00206900505257
:1007B000B849891D4855B64820303C182046FFF7F7
:1007C0009BFE0028FAD068B2F8BD70B5064608282E
:1007D00002D90020C04370BDAD48B40410382018C1
:1007E000FFF78AFE0007000F012802D00420C04353
:1007F00070BDA748203020180546FFF77DFE13285E
:1008000002D00220C04370BDA14802212018044636
:10081000FFF774FE2046FFF76FFE0028FAD1284646
:10082000FFF76AFE142805D03046FFF733FF032098
:10083000C04370BD012070BD70B50646082802D9BE
:100840000020C04370BD9248B50410382818FFF747
:1008500053FE0007000F012802D00420C04370BDE2
:100860008B48082128180446FFF748FE2046FFF76A
:1008700043FE0028FAD1874901208A88B04082438C
:100880008A80498808420CD0002070BD2046FFF7BE
:1008900033FE00070BD53046FFF7FCFE0C20C043AB
:1008A00070BD7B4810302C18794820302D18284610
:1008B000FFF722FE0028E9D1012070BDF7B582B014
:1008C00002981446082803D90020C04305B0F0BDA3
:1008D00086046F4810383018FFF70EFE0007000F2F
:1008E000012802D00420C043F0E7002C0CD0684857
:1008F000203030180190FFF7FFFD172807D01C2883
:1009000005D00620C043E1E70D20C043DEE7029892
:100910000125604F8540B888054211D05C481030F1
:100920003018FFF7E9FDC006C00EC10620D55848B3
:10093000102118303018FFF7E1FDB888A843B880BF
:10094000584830180090FFF7D7FD8006000C84420D
:1009500000D904460098406887B20198FFF7CCFDA3
:1009600017280DD01C280BD00298FFF793FEC8E77C
:1009700000070BD50298FFF78DFE0C20C043A5E7BA
:1009800044484088054203D0BC4201D900209DE77D
:10099000BC42DFD8224603990298FFF7C9FD3C48C4
:1009A000202130180646FFF7A9FD3046FFF7A4FDC9
:1009B0000028FAD1374881880D438580204685E795
:1009C000F7B582B002981446082802D90020C04327
:1009D0007CE787042E4810383818FFF78DFD000794
:1009E000000F012802D00420C0436FE7002C19D06B
:1009F0002C4820303818FFF77FFD8006000CA042FD
:100A000000D20446224820303818009025483E186D
:100A1000706A85B20098FFF76FFD172815D01C2863
:100A200003D00CE00D20C04350E7002D1AD1304612
:100A3000FFF762FD7168800289B2884205D1029891
:100A4000FFF728FE0620C04340E7029901208840B6
:100A500010494988084203D0002D03D1002035E712
:100A6000002DD5D0A54200D22C46224603990298EB
:100A7000FFF772FD0648402138180546FFF73EFD96
:100A80002846FFF739FD0028FAD120461EE700006E
:100A90001000014608000020F0010020FAFFFFFFCF
:100AA000F0FF000000020146FFB583B003981E4628
:100AB0001546082803D90020C04307B0F0BD8404C0
:100AC000EF482018FFF718FD0007000F022804D098
:100AD000042802D00420C043EFE7002D1DD0307859
:100AE000717800024018B17800024018F1780002D5
:100AF000C84202D10B20C043DFE70C9800280FD07A
:100B0000DF48303020180746FFF7F6FC42280AD0AD
:100B1000222808D00620C043CFE70D20C043CCE7F1
:100B20000A20C043C9E7D74831782018FFF7E6FC10
:100B3000D4487178401E2018FFF7E0FCD148B17806
:100B4000801E2018FFF7DAFCCE48F178C01E20186E
:100B5000FFF7D4FCCB490C98273961180862C948C3
:100B6000D93020180190FFF7C7FC8006000C8542A1
:100B700000D90546039901208840009001984068FB
:100B800086B23846FFF7B8FC002808D0BE49009866
:100B90004988084206D0B54204D900208DE70320D9
:100BA000C0438AE7B542E9D82A4604990398FFF77B
:100BB000BFFCB3482021103020180746FFF79EFCE9
:100BC000AF48283026183846FFF796FC0028FAD19F
:100BD000AB48203024182046FFF78EFCC006C00E1C
:100BE000C10605D530461021FFF788FC284664E78A
:100BF0000007F0D530460821FFF780FC0C20C043E9
:100C00005BE7FFB5002485B00646082802D9601EC0
:100C100009B0F0BD9A48B5042818FFF76DFC0490A0
:100C20000007000F022804D0042802D00420C0438B
:100C3000EEE70798002805D094487700C05B0028AD
:100C400003D022E00D20C043E2E78E48D9302818B7
:100C500003908B48303028180125B5400290039846
:100C6000406A84B20298FFF747FC002806D0864805
:100C70004088054207D0002C03D006E00320C04383
:100C8000C6E70020C4E7002CE9D07F480021801D82
:100C900081550498B20441077948490F103015185E
:100CA00002291FD0042957D021463046FFF768FC9F
:100CB0007648C45328464021FFF720FC2846FFF71A
:100CC0001BFC0028FAD17148C15B091B0904090CFF
:100CD000C15305D06C480122801D815D11438155AF
:100CE000204695E7694CE05B00285BD10822694605
:100CF0003046FFF731FC28464021FFF7FFFB28462E
:100D0000FFF7FAFB0028FAD16846017808980170CD
:100D100068464178089841706846817808988170E3
:100D20006846C1780898C17068460E9900790880B5
:100D300001026846407908180E9908806846807953
:100D400001026846C0790818E05327E02246304681
:100D50000699FFF701FCADE74C4CE05B002821D180
:100D6000022269463046FFF7F7FB28464021FFF78D
:100D7000C5FB2846FFF7C0FB0028FAD1684600787B
:100D8000010268464078081880B24149E053884221
:100D900004D93046FFF77EFC3E4839E73A498020C7
:100DA000891D8855E45B07988442CFD90446CDE776
:100DB000F8B51546082802D90020C043F8BD8404C0
:100DC000304B304A2E485933273A0427E618A218E8
:100DD0002018FF430B0003F0CEF9084F050910421D
:100DE0001316444F274829781F3802E025482978F0
:100DF00023382018FFF782FB31E0288810612EE0AD
:100E0000288810622BE0FFF777FB0007000F01280E
:100E10002DD13046FFF770FB002802D00120C043DF
:100E2000F8BD17482221103020180546FFF766FB51
:100E30001348203026180DE03046FFF75DFB000711
:100E400008D50F48082128302018FFF757FB0C2041
:100E5000C043F8BD2846FFF74FFB0028ECD1012026
:100E6000F8BDFFF749FB0007000F012801D0384605
:100E7000F8BD29783046BDE70920C043F8BD000021
:100E8000000001462701014608000020F001002073
:100E9000EA05000017FCFFFF704770477047704776
:100EA0000078704701707047F0B593B0E648FFF7DF
:100EB00023FB1190E448401EFFF71EFBE24C10900C
:100EC000A41E2046FFF718FB651E0F902846FFF76B
:100ED00013FB0E90A01DFFF70FFB0D90601DFFF799
:100EE0000BFB0C90D8480830FFF706FB0B90D64858
:100EF000C01DFFF701FBD44E0A90B61D3046FFF728
:100F0000FBFA0990E01DFFF7F7FA0890B01DFFF714
:100F1000F3FA0790701DFFF7EFFA0690301DFFF708
:100F2000EBFA0590F01CFFF7E7FA0490C648103082
:100F3000FFF7E2FAC44F03900F373846FFF7DCFAA9
:100F40000290781EFFF7D8FA0190F01DFFF7D4FA4F
:100F500000908021BD48FFF7D1FABC48FFF7CCFADA
:100F6000A01C1199FFF7CAFA601C1099FFF7C6FA86
:100F700020460F99FFF7C2FA28460E99FFF7BEFAEE
:100F8000A01D0D99FFF7BAFA601D0C99FFF7B6FA8C
:100F9000B01C0B99FFF7B2FA701C0A99FFF7AEFA72
:100FA00030460999FFF7AAFAE01D0899FFF7A6FA5B
:100FB000B01D0799FFF7A2FA701D0699FFF79EFA78
:100FC000301D0599FFF79AFAF01C0499FFF796FA7D
:100FD000781C0399FFF792FA38460299FFF78EFAC8
:100FE000781E0199FFF78AFAF01D0099FFF786FA3B
:100FF00013B0F0BD10B5044693484130FFF77CFABA
:10100000207091483D300068608010BD10B50178B7
:101010000446002903D08C484130FFF76FFA8A4913
:1010200060883D31086010BD10B58848FFF764FA4C
:1010300010BD70B50446C720044202D00020C04352
:1010400070BD824D2846FFF757FA204301462846D7
:10105000FFF754FA002070BD10B504467A48FFF738
:101060004BFA20707848401EFFF746FA60707648C9
:10107000801EFFF741FAA0707348C01EFFF73CFACC
:10108000E0707148001DFFF737FA20716E48C01CF0
:10109000FFF732FA60716C480830FFF72DFAA07341
:1010A0006948C01DFFF728FAE0736748801DFFF705
:1010B00023FA20746448401DFFF71EFA60746248EA
:1010C0000C30FFF719FAA0725F480B30FFF714FAE3
:1010D000E0725D480A30FFF70FFA20735A48093072
:1010E000FFF70AFA607358481030FFF705FAA0714D
:1010F00055480F30FFF700FAE07153480E30FFF704
:10110000FBF9207250480D30FFF7F6F96072504835
:101110000178A1744178E17481782175C078607597
:101120004B48401E0078A07510BD10B504460178EC
:101130004548FFF7E3F944486178401EFFF7DEF9C0
:101140004148A178801EFFF7D9F93F48E178C01ED9
:10115000FFF7D4F93C482179001DFFF7CFF93A4851
:101160006179C01CFFF7CAF93748A17B0830FFF747
:10117000C5F93548E17BC01DFFF7C0F93248217C35
:10118000801DFFF7BBF93048617C401DFFF7B6F9C1
:101190002D48A17A0C30FFF7B1F92B48E17A0B30DA
:1011A000FFF7ACF92848217B0A30FFF7A7F926485A
:1011B000617B0930FFF7A2F92348A1791030FFF7CE
:1011C0009DF92148E1790F30FFF798F91E48217AFF
:1011D0000E30FFF793F91C48617A0D30FFF78EF956
:1011E0001B48A17C0170E17C4170217D8170617D93
:1011F000C1701749A07D491E087010BD10B50C467E
:10120000030002F0B8FF0604080C1014181D08466D
:10121000FFF78BFF12E00846FFF71EFF0EE008788D
:10122000FFF707FF10BDFFF7FFFE207006E008463E
:10123000FFF7ECFE02E00846FFF7DCFE002010BDE1
:101240000020C04310BD000003600046002300469C
:101250001900002070B5744C05462088286161880B
:101260002846FFF7A4F8012000F04AFA61882846D2
:10127000FFF7ABF8012000F043FA70BDF8B5074660
:101280000020694D0446460069883846FFF78FF80C
:10129000012000F035FA69883846FFF796F80120FA
:1012A00000F02EFA29883846FFF77AF83043641C9C
:1012B000102CE8D3F8BD70B55B4C054620886861FA
:1012C000012000F01DFA61882846FFF770F8012020
:1012D00000F016FA61882846FFF777F8012000F041
:1012E0000FFA70BDF8B5074616462020801B8140D6
:1012F0000C464D4D18E02988002C384602DAFFF7DD
:1013000056F801E0FFF761F8012000F0F9F969886B
:101310003846FFF74CF8012000F0F2F969883846AA
:10132000FFF753F86400761E002EE4D1F8BD70B5C7
:101330000C461646002105462022C943FFF7D2FF7E
:10134000042205212846FFF7CDFF374805224168D2
:101350002846FFF7C7FF052221462846FFF7C2FFB0
:10136000022211462846FFF7BDFF102231462846CB
:10137000FFF7B8FF2846FFF76DFF70BDF8B50025F1
:1013800043273F06002400212022C9433846FFF7A7
:10139000A9FF042206213846FFF7A4FF05222146B3
:1013A0003846FFF79FFF052201213846FFF79AFFD5
:1013B0003846FFF780FF3846FFF760FF064638469D
:1013C000FFF748FF002E02D01848864209D1641C5E
:1013D000082CD8DD6D1CEDB215A002F00BF9022D22
:1013E000D0D32046F8BD7CB5054614460E46684667
:1013F000FEF7CFFF30462043009001206946087178
:101400002846FEF765FF012221461046FEF7EDFF54
:10141000012231461046FEF7E8FF034D6E802C8016
:10142000FFF7ACFF68607CBD40000020FFFF0000BC
:101430000D0A70687920696420646574656374209E
:101440006572726F7221210D0A00000010B54D4CBB
:101450004D482178FFF752F84B486178401EFFF75E
:101460004DF84948A178801EFFF748F84648E178D2
:10147000C01EFFF743F8444808342178001FFFF7E7
:101480003DF841486178401FFFF738F83E48A178A1
:10149000801FFFF733F83C48E178C01FFFF72EF8B4
:1014A0003948241F21780838FFF728F83648617832
:1014B0000938FFF723F83448A1780A38FFF71EF8F7
:1014C0003148E1780B38FFF719F810BD10B52F4CF3
:1014D00080212046FFF712F82046FFF70DF8FFF7AE
:1014E000B5FF284C2848393421781038FFF706F822
:1014F000254861781138FFF701F82348A1781238A0
:10150000FEF7FCFF2048E1781338FEF7F7FF1E488E
:1015100021790C38FEF7F2FF1B4861790D38FEF790
:10152000EDFF10BD10B5194C80212046FEF7E6FFF7
:101530002046FEF7E1FF134C134839342178103868
:10154000FEF7DCFF104861781138FEF7D7FF0E4830
:10155000A1781238FEF7D2FF0B48E1781338FEF776
:10156000CDFF094821790C38FEF7C8FF064861799C
:101570000D38FEF7C3FF10BD0248C01FC169491CEA
:10158000C16170474F0000201360004600230046F1
:101590007047704770477047704770477047704793
:1015A0007047704770477047704770477047704783
:1015B0007047704770477047704770477047704773
:1015C00070477047704770477047704710B5C0B29A
:1015D000FEF780FF10BD0020C0437047FEE700000B
:1015E00038B501F055FD044687A002F003F887A145
:1015F00093A001F0FFFF94A001F0FCFF96A001F082
:10160000F9FF9FA00090A37D627D217D9EA001F047
:10161000F1FF7EA18AA001F0EDFF38BDF0B58FB0DB
:1016200001F036FD0446002000900190182102A828
:1016300002F0ADFA182108A802F0A9FAE07D002511
:10164000FF2859D1207EFF2856D1607EFF2853D134
:1016500000236A461946184601F0C0F9684600782A
:10166000FF2807D169464978FF2903D1694689785F
:10167000FF2910D0E075684640782076684680786B
:1016800060766846C078A07668460079E07668465D
:101690004079207731E0874888212746017002AEE3
:1016A000403785A001F0A6FF0025FEF719FF705511
:1016B0006D1CEDB2152DF8D308A902A800F057F95A
:1016C00000280BD0787B002803D008A95CA001F08B
:1016D00091FF182102A802F05AFAE2E7002001F077
:1016E00096F90023224617321946184601F0BDF933
:1016F00001F0D0FC01F0B8FD012528460FB0F0BD87
:1017000001B582B0FEF76CFD704902F0A0FA0299B3
:10171000484300E0401E00900028FBD10EBD01F0C0
:10172000B7FC044601F073FC694900200A46FEF745
:10173000B8FD0A20FFF7E4FF01F0BCF901F0FEF963
:10174000FFF7B2FBFEF74CFD604902F080FA6149F9
:10175000086001F019FC60480069800701D5FEF7B8
:1017600061FF01F04EFDFFF759FF2646A036307AA3
:101770000127002501280CD1022001F08BFA214617
:101780003572AB31002002F05AFA2A20075501F0D9
:101790006BFD072636033068401C0DD020462030F4
:1017A000817A00292CD001F049FC002804D031684E
:1017B000706881F3088880472A2005554034607B93
:1017C000002801D0FFF70CFF01F0FFFD607B00282F
:1017D00001D001F07CFD41480770002001F036FC8B
:1017E0003F4C00F024FF2078002806D0002001F0B4
:1017F00039FC012001F036FC257001F08EF9F0E78C
:10180000877201F031FDD7E70D0A00003D3D3D3DF7
:101810003D3D3D3D3D3D3D3D3D3D3D3D3D3D3D3DF8
:101820003D3D3D3D3D3D3D3D3D3D3D3D3D3D3D3DE8
:101830003D3D3D3D3D3D3D3D3D3D3D3D3D3D000052
:1018400025730D0A000000002057495A37353053E0
:1018500052200D0A00000000203E3E2057495A6EDB
:1018600065742053657269616C20746F20457468DB
:1018700065726E6574204465766963650D0A0000C3
:10188000537461626C650000203E3E204669726DB3
:10189000776172652076657273696F6E3A20426F68
:1018A0006F742025642E25642E25642025730D0A6F
:1018B00000000000A0000020494E50555420464929
:1018C000525354204D41433F0D0A000010270000A1
:1018D00000127A000020004600F001409C00002029
:1018E000B0010020F8B500270D4604460F70F94EF0
:1018F00009E002F06FF802462046316802F08CF8E9
:10190000002804D0361D30680028F2D129E0306864
:10191000002826D0EF48301A8005060E2B2E07D05F
:101920002C2E11D0A11C284602F02EF83046F8BD0E
:10193000207A0D2815D1607A0A2812D10622A11C1E
:10194000284602F0C5F8F1E7002002E02954401CC7
:10195000C0B2211889780D29F8D12118C9780A292F
:1019600001D0FF20F8BD2F5428184770DEE7F0B5EE
:1019700097B00E46074601F08BFB0024149010A888
:10198000047625460421304602F0FFF8D2A13846FD
:10199000FCE304A9FFF7A6FF0746FF287BD004A8B5
:1019A00002F018F880B200906846007C002826D02B
:1019B000C84988222439097811426DD03B0002F0D1
:1019C000DAFB3AF2F1F1F0EFEEEDEEECEBEAE9E8FA
:1019D000E7E6E5E4E3E3E3E3E3E3E2E1E0DFDEDDE2
:1019E000DCDBDAD9D8D7D6D5D4D3D2D1D1D0D1D1A6
:1019F000D1D1D1D1D1D1CF6AEED1D1CECD6AB54836
:101A0000B90040583B000178317040787070B61CC6
:101A100002F0B1FB3A1E30454A4EE953E9575B5F8D
:101A200062676A757881E8E8E98BE8E88D9FEAEDFE
:101A3000E5E4E3E2E1E0DFDEDDDCDBDAD9D8D8D7CC
:101A4000D8D8D6D5D4D3D2D1D0CFE9CECDCCCBCA6D
:101A50001498149B149A1499407E1B7FD27E897E21
:101A60006F460FC714989DA1037EC27D304601F0DA
:101A7000CFFDCAE1A1A1A3A002F08CF80028149820
:101A8000807D00901498437D027D06D09FA1304652
:101A900001F0BEFDB9E1F0E3F0E39FA1F7E7149A8E
:101AA000A0A13046521D00E114986030C27802E0D7
:101AB00014982030BFE09CA17AE1149860308278BD
:101AC000F9E714984030427BF5E7149840300278EB
:101AD000F1E71498413001E01498433041780078E0
:101AE000B8E014982130B3E01498149920300078AD
:101AF000C97F009101901498837F427F13E014986E
:101B000020300AE0149820300279C17801920091C7
:101B10008378427807E014986030027AC1790192A4
:101B200000918379427981A10FE0834AC3E7149839
:101B30004079002856D014991498097FC07E0090EF
:101B400014980191837E421D7CA1304601F060FD16
:101B50005BE114982330417B007B7BE0B0E398E3AA
:101B60007EE356E3C7E344E335E324E316E3E9E227
:101B7000DBE2CEE2C1E2A9E29BE28DE27EE270E22C
:101B800047E23DE230E222E20BE20BE2F5E1E9E17D
:101B9000D0E1C2E1B5E1A7E199E18CE17EE16EE33C
:101BA00070E162E15EE147E139E134E125E118E10C
:101BB000F2E011E10CE1FDE0F2E0E6E0DEE0D6E08B
:101BC0007FE07BE077E067E05CE053E04EE048E0F8
:101BD00043E03BE035E030E02BE026E021E01CE094
:101BE00005E001E064E0FAE0149821302BE014985D
:101BF00060300179002907D0407A002858D0149A23
:101C000048A13046693250E014982030827B417BF5
:101C100001920091037BC27A85E714984030827963
:101C200049E714984030C27945E714984030027A69
:101C300041E714984030427A3DE714984030827A68
:101C400039E714982330417C007C03E0149823305A
:101C5000417D007D0A0202432DE714982030427E28
:101C600029E7149839A12030827EA1E014988030B1
:101C7000C27E20E714988030C17F0091837F427F2D
:101C800034A104E714984030807B002810D0149AC7
:101C900024A130464E3208E014984030007E0028DF
:101CA00006D0149A1FA13046583201F0B1FCACE0C6
:101CB00020222CA17CE0812000029CE041204002F7
:101CC00099E0044888212438007808424CD010203C
:101CD00091E00000C40000200D0A000025303258B9
:101CE0003A253032583A253032583A253032583A6F
:101CF000253032583A253032580000004465766568
:101D00006C6F7000537461626C65000025642E2551
:101D1000642E25640000000025642E25642E2564B1
:101D200064657600257300002564000025642E2577
:101D3000642E25642E256400D60B000025732D2506
:101D400030327825303278253032780025303258DC
:101D500000000000253032582530325825303258E6
:101D600000000000256300004320400243E0FE48DD
:101D7000882100780842F7D020203CE0FA488821EA
:101D800000780842F0D0802035E01498F7494030C0
:101D9000407980000A580AE01498403042798AE677
:101DA00014982030807A8100EF4808304258F0A122
:101DB00030467AE7EC48017888200142D4D0149963
:101DC00023314A7B0B7B11021943012904D012E015
:101DD00014988030027F6EE62120C0010BE00022C3
:101DE00069E6E148882100780842BDD014980121B5
:101DF000203081729020044307E01498DDA1403028
:101E0000037BC27A304601F003FCDC4804420AD06E
:101E1000B61E357064E214988030827E4BE6212035
:101E200080020443BCE7D6A1304601F045FE3046AF
:101E300001F0D0FD861953E21498C07D002807D127
:101E40001498007E082803D11498407EDC2809D01D
:101E5000149ACCA104A8173200F01CFDB8E185202B
:101E600000023CE28320000239E200F0BAFC10A933
:101E7000087600990129F2D10128F0D8149960312F
:101E8000C8702DE200F0ADFC10A908760099012978
:101E9000E5D10328E3D81499203115E100F0A1FC25
:101EA00010A9087600990129D9D10128D7D8149909
:101EB0006031887014E200F094FC10A90876009953
:101EC0000129CCD10128CAD81499403196E000F0FC
:101ED00088FC10A9087600990129C0D10128BED834
:101EE000149940310870FBE104A801F000FD01469F
:101EF000A5488142B3D8149841300170090A417055
:101F0000EEE104A801F0F3FC9F498842A7D8149998
:101F100043310870000A4870E2E104A801F0E7FCD0
:101F20000146994881429AD8149821300175090ACE
:101F30004175D5E115A904A800F0F0FB00288ED06A
:101F400010A8017D1498417710A8417D14988177DD
:101F500010A8817D1498C17710A8C17D14982030F5
:101F60000170BDE115A904A800F0D8FB0028E6D057
:101F7000149810A9097D20301EE015A904A800F0CE
:101F8000CDFB0028DBD0149810A9097D20304170CA
:101F900010A9497D817010A9897DC17010A9C97DE2
:101FA00001719DE115A904A800F0B8FB0028C6D076
:101FB00010A91498097D6030417110A9497D817183
:101FC00010A9897DC17110A9C97D017288E10099AC
:101FD0000E2984D8202804D0149804AA64A1401D96
:101FE00010E1149845717BE104A801F080FC66497A
:101FF00088428BD8149923310873000A48736FE123
:1020000004A801F074FC604988428CD814992131ED
:102010007BE015A904A800F081FB002811D01498DA
:1020200010A9603005711498097D2030C17210A983
:10203000497D017310A9897D417310A9C97D817300
:102040004EE114980121603001716946097C202914
:1020500005D0149804A9693001F096FC40E145725E
:102060003EE104A801F036FC009980B20229B0D804
:102070000E28AED814994031887131E100F0B1FBDF
:1020800010A908760099012900D0E8E60128FCD8BB
:1020900014994031C87123E100F0A3FB10A9087620
:1020A00000990129F1D10228EFD814994031087222
:1020B00016E100F096FB10A9087600990129E4D1F9
:1020C0000128E2D814994031487209E100F089FBF7
:1020D00010A90876014600980128D6D10429D4D841
:1020E000149840304279012A05D1032903D00429EC
:1020F00001D08572F4E08172F2E004A801F0F7FBF0
:1021000021498842C1D8149923310874000A4874BF
:10211000E6E004A801F0EBFB1B498842B5D814990E
:1021200023310875000A4875DAE004A801F0D2FBF3
:10213000009980B20329A8D8FF28A6D81499203185
:102140004876CDE0009802289FD104A800F031FB2A
:1021500000289AD016A904A800F061FB10A8017EFF
:1021600014982030817612E0A0000020C0010020E9
:10217000257300002564256400000000B080000085
:102180000D0A00002E3A2D00FFFF0000AAE00029F2
:1021900002D001218177A3E08577A1E000F021FB47
:1021A00010A908760099012989D1012889D81499A4
:1021B0008031C87694E0009806288ED104A800F0FB
:1021C000F8FA0028C5D0149904A89D3100F027FB27
:1021D0000028BED084E00099092993D8202804D093
:1021E000149804AAF7A14E300CE01498403085737F
:1021F00076E00099092985D8202806D0149804AAE9
:10220000F0A1583001F004FA6AE0149840300576E5
:1022100066E004A801F06BFB1921090388421499B8
:1022200004D90020AB3101F00AFD18E6AB3101F012
:1022300006FD14980121A030017240200443149837
:10224000149920300078C97F00910190DE4A1498DB
:102250000292837F427FDDA1304601F0D9F93FE051
:1022600000F0BFFA10A9087600990129DDD10128F4
:10227000DBD814998031087732E042E03EE000F08C
:10228000B0FA10A9087600990129CED10128CCD83E
:1022900026E016A904A800F0C2FA10A8007E0207E2
:1022A0000109120F10A8027600980228BDD8012A51
:1022B000BBD80129B9D814984030C17202730FE01D
:1022C00004A801F007FB009980B20329ADD80028CB
:1022D000ABD0FF28A9D814998031887600E0044358
:1022E000BEA1002001F010FB002801D0FFF751FB38
:1022F000204617B0F0BD81200002F0E743204002E5
:10230000EDE721208002EAE710B500220621FEF762
:102310004FFD10BDF3B591B0064600F0B9FE05467D
:1023200000200E90AE48FEF7E7F80027AD4C1728C6
:10233000277008D002DC00283ED19BE01828FCD092
:102340001C28F9D193E0A6481038FEF7D5F8C0074D
:1023500007D001206070A7800146A1480838FEF729
:10236000CDF8A078012803D10220FFF7CDFFA77098
:102370009D48406A0204120C1ED012980F903146FC
:102380000220FEF71DFB80B230182038C77705A960
:102390003046FFF7A7FA2B2866D1062293A105A89D
:1023A00001F0C4FA002808D029460622173105A8F2
:1023B00001F0BCFA002803D06BE02078802101E016
:1023C000207888210843207000064DD5687E2B7F39
:1023D000EA7EA97E01AC0FC4287E00908148EB7D87
:1023E000A430C26A83A10F9801F012F90F9C0A363B
:1023F00005A930460A34FFF775FA2C2849D16846FA
:10240000007D202803D15820405D002806D02946B1
:10241000583105A801F0BEFB00283AD105A801F00B
:10242000D9FA021D3146204601F052FB05A801F001
:10243000D1FA851905A82D1D01F0CCFA0419241D27
:1024400021462846FFF793FA0E9005A801F0C2FA3C
:102450000546204601F0BEFA28180E3082B202204E
:102460001299FEF72BFA14E0002013B0F0BD022001
:10247000FEF7E2F90220FEF70DF9534A2123521E1E
:1024800001210220FEF736F9022802D16770FEF71B
:102490009CF90E98E9E7F3B599B0054600F0F8FD10
:1024A000044600204F4E169030705748FEF724F82F
:1024B00000287DD0222826D15448406A0204120CFC
:1024C00021D015A800901A9F17AB29460120FEF7CE
:1024D00098FB80B2281800212038C17705A928462A
:1024E000FFF700FA2B286BD1062240A105A801F0C6
:1024F0001DFA002808D021460622173105A801F050
:1025000015FA002803D090E03078802101E030787F
:1025100088210843307000067ED5607E237FE27EEE
:10252000A17E01AE0FC6207E00902E48E37DA43030
:10253000C26A30A1384601F06BF80A3505A9284671
:102540000A37FFF7CFF92C286FD16846007D202885
:1025500003D15820005D002806D02146583105A837
:1025600001F018FB002860D105A801F033FA021D24
:102570002946384601F0ACFA05A801F02BFA4519B6
:1025800005A82D1D01F026FAC419241D2146284650
:10259000FFF7EDF9169005A801F01CFA0546204654
:1025A00001F018FA28180E3082B210A8808A00E0D4
:1025B00035E0009016A301201A99FEF775FA34E071
:1025C0002AE000002573000052C30000465725642E
:1025D0002E25642E25642E25643A25640D0A0000FC
:1025E00030000946A000002000020946FFFFFFFF5F
:1025F000FFFF00002573256325632563256325639D
:1026000025630D0A00000000300005460002054663
:10261000FFFFFFFF0000000000201BB0F0BD012302
:10262000374A02211846FEF765F81698F5E770B5A7
:1026300000F02EFD044633493348FFF72CFF0646D1
:1026400030493148FFF766FE0546354328042AD451
:10265000002D28D0280702D500F076FA0FE0E80612
:1026600002D500F001FE0AE0E80408D527A000F03A
:10267000C1FF002000F0CBF9012000F0C8F9680686
:1026800023D5022000F006FB002180280CD0A820D2
:1026900001552146AB31002001F0D1FA00F0E4FDF4
:1026A0000420FDF7F7FF70BDA82001552146AB318E
:1026B000002001F0C4FA01202034A07200F0D4FD03
:1026C000FF20F530FFF71CF801E02806EBD500F0FD
:1026D00054FA70BD0E484178002910D082880D4B05
:1026E00000219A4203D28288521C828000E08180BD
:1026F0008288094B9A4202D30122827081807047FE
:1027000051C30000000C0020000A00200D0A000048
:10271000A0000020FFFF0000983A0000F3B500255C
:1027200083B02E462C46039801F054F9C7B200201E
:1027300001900090F81F092839D22EE000F042FFE6
:1027400001680398405D095C202902D02E2811D031
:102750002DE00A214C43303C01198CB2FF2C26D8C5
:10276000009901AA50540098401CC0B20090032860
:102770001DD810E0FF2C1AD8761CF6B2042E16D8FD
:10278000002401A801F0A6F8049989192039C87716
:102790000020019000906D1CEDB2BD42CED301A887
:1027A00001F098F804998855012005B0F0BD00208B
:1027B000FBE770B5054600240CE000F003FF00685D
:1027C000295D415C88004840000601D4002070BDAE
:1027D000641CE4B2284601F0FDF8A042EDD80120C7
:1027E00070BD10B50446112801D2FF2010BD00F0C5
:1027F000E9FE0168085D202805D0204628383F28DA
:1028000003D2513C08E0303C06E02046402C04D97D
:10281000472C02D90446313CE4B2204610BDF3B542
:1028200087B00746002501F0D5F8C6B2F00706D1FB
:10283000102E04D83878002801D0002426E000208B
:1028400009B0F0BD385D00F0C5FEC1B26A46117036
:10285000039138190491407800F0BCFEC0B26A467A
:10286000507004993929039901D9373900E030397A
:10287000C9B2392801D9373800E03038090101439D
:10288000089841556D1CA41CEDB2E4B2B442D9D3F2
:102890000120D5E7F7B584B00546002401F09AF889
:1028A0002978C0B2002901D0112802D0002007B039
:1028B000F0BD002601AF60002018411903226846D0
:1028C00001F006F968468178002904D0059801F0E6
:1028D00023F80028EBD068468670FFF76AFF0028CF
:1028E000E5D039196846FFF79AFF641CE4B2062C5C
:1028F000E1D3062201A9069801F0EAF80120D6E703
:1029000070B5314C256866172660304EB04725609B
:1029100070BD10B50021420C16D02D4A904204D350
:102920002C4A104201D1102406E02A4A5242904219
:1029300009D3800C07D1112472B600231A46204611
:10294000FFF7DEFF62B610BD12240146F4E710B5B2
:10295000410C07D172B6002301461A461320FFF737
:10296000CFFF62B610BD70B514460A46184B1A491F
:10297000984208D3850C06D1FF250135AC420DD80D
:10298000E3188B420AD8002C01D1884206D80121D5
:102990004904FF23411A5B02994201D2002070BD15
:1029A00072B6234601462220FFF7AAFF62B62046F0
:1029B00070BD10B50346002002E01C5C0C54401CA6
:1029C0009042FAD310BD000000E200E00110FF1FAA
:1029D00000FE03000001FCFFFFFF030070B50D4681
:1029E000144601000BD001290DD0022901D0032883
:1029F00004D11A4621462846FFF7DBFF70BD0622A8
:102A000021462A48F8E71A4621462948F4E7F8B54E
:102A10000026002817D0012817D0022819D0032833
:102A200016D101256D041927002420034019FFF752
:102A30008EFF641CA4B2BC42F7D338034519002EA4
:102A400006D000240EE0194800E01948FFF761FFA6
:102A5000F8BD07252D03E6E720024019FFF759FFCF
:102A6000641CA4B2B442F7D3F8BD70B51C460B4643
:102A7000154601000BD0012910D0022901D00328EE
:102A800004D1224629461846FFF76DFF70BD00208D
:102A9000FFF7BDFF062229460448F5E70120FFF7AE
:102AA000B6FF224629460248EEE7000000FE03007A
:102AB00000FF03001F490020C860704770B51D4C1F
:102AC0006088401C6080FFF705FE00F05BF91A4843
:102AD00000250078002808D0E088401C80B2E08003
:102AE000642802D301202070E5807D21C900608820
:102AF00001F0ADF8002905D16580A088401CA080B8
:102B0000FEF73AFD3C21A08801F0A1F8002903D18D
:102B1000A580A068401CA06070BD10B5054CE068A1
:102B2000411CE160232803D3FFF7C8FF0020E060C9
:102B300010BD7047B00100209C00002010B5E120BE
:102B40004002FDF7B5FC10BD10B500F0A3FA00F08F
:102B50008BFB10BD10B59F48FDF7CEFC172808D0A1
:102B60001C2806D00220FDF795FD0120FDF792FDFF
:102B700010BD0220FDF760FEF7E7FFF7EBFFBFF3A4
:102B80004F8F96499448C860BFF34F8FFEE7944833
:102B90000021017081708180C1804170C1707047D7
:102BA000F3B581B000F074FA0646002004460090A8
:102BB0000198A83687048B483818FDF79DFC884D8E
:102BC000172808D002DC002862D152E0182850D023
:102BD0001C285DD144E0834810383818FDF78CFC80
:102BE000C0070AD00120A8700220FFF710FF7D481F
:102BF000012108383818FDF781FCE878012833D026
:102C000079483818406A0404240C41D00120C002DD
:102C1000844200D90446F01C01F000F8E9680A1962
:102C2000904201D2401A84B2224602990198FDF7DF
:102C3000C7FE84B2E868210A0019E860684601709E
:102C40004470022269460198FDF738FE0027EF80A4
:102C5000F01C00F0E3FFE968884219D8AF80AF703C
:102C60000198FDF7E9FD13E00198FDF7E5FD00206F
:102C7000FEBD21235D4A01210198FDF73BFD014680
:102C80000198814204D10020E8600198FDF79DFD84
:102C90002046FEBDF8B5044600F0FAF90646A8360F
:102CA00000F0F6F9054630784535202700280FD08A
:102CB000F01C00F0B3FF19221203002801D090424B
:102CC00008D9297A012903D10146494800F092FC2C
:102CD0004020F8BD022C02D0042C46D039E0297ADD
:102CE000012903D1014643A000F084FC00203C4CA4
:102CF0000121A06021704E490420FFF751FF03001D
:102D00000DD00720A16800030918494A0220FFF7E7
:102D1000ACFEA16880B20818A0600020A080607896
:102D200001280BD0E07801280DD0FFF7F6FEF01C4B
:102D300000F074FFA1688842DDD80BE0287A0128F2
:102D400007D13CA003E0287A012802D147A000F077
:102D500051FC4027F01C00F061FF2149896888423E
:102D60000CD12A7A012A04D007E04E4800F042FC38
:102D7000AEE702464CA000F03DFC8027FFF707FFBE
:102D80003846F8BD30B51648534A0578534B0124F0
:102D90000021012D0CD18588954203D285886D1CB8
:102DA000858000E0818085889D4201D344708180C8
:102DB0008578012D0CD1C588954203D2C288521C5A
:102DC000C28000E0C180C2889A4201D3C470C18031
:102DD00030BD0000300009460400FA0500ED00E0B7
:102DE000C8010020300001460002014652C3000025
:102DF00038430000203E2053454743503A46575F32
:102E00005550444154453A4E4554574F524B202D4E
:102E1000204669726D776172652073697A653A2020
:102E20005B25645D2062797465730D0A0000000003
:102E300000020020203E2053454743503A46575F4A
:102E40005550444154453A4641494C4544202D2073
:102E50004669726D77617265207570646174652072
:102E600074696D656F75740D0A000000203E205373
:102E7000454743503A46575F5550444154453A46BA
:102E800041494C4544202D204E6574776F726B206C
:102E9000646F776E6C6F61642074696D656F7574B3
:102EA0000D0A0000A0430000203E20534547435038
:102EB0003A46575F5550444154453A53554343456C
:102EC0005353202D202564202F20256420627974FF
:102ED00065730D0A00000000FFFF0000881300006A
:102EE000FEB50446032818D2644E6500705B00905E
:102EF0000120694608716248A700C059FDF7E8F94A
:102F00005F48715B001F025DC01E005DFDF76DFA3A
:102F10005B48715BC059FDF74AFAFEBD70B50123ED
:102F200011249D03A406002229462046FDF785FAB8
:102F3000656170BD10B501232120002259024006B1
:102F4000FDF77BFA10BD70B5002421256D06022126
:102F50002846FDF725FA002801D0012070BD052084
:102F6000FEF7CEFB641CE4B2052CF0D3002070BD4C
:102F700010B5212464060123002202212046FDF71A
:102F80005CFA0220606110BD70B50120FFF7D1FD31
:102F90003C49612008633C4B01225A6148619A61B7
:102FA00088613948803082613649022080318861E9
:102FB000402045210906486008614402432501027A
:102FC0002D0622462846FEF70EFA22460021284604
:102FD000FEF7ADF90020FFF7ACFDFFF7C9FFFFF7E3
:102FE000B2FF002811D00020254908390870FFF7EA
:102FF000A1FFFFF793FF0020FFF772FF0120FFF70B
:103000006FFF0220FFF76CFF70BD0120ECE71F4946
:10301000022008631C4940398860704710B51120B0
:103020000123002240218006FDF707FA10BD10B5EC
:10303000112040218006FDF7B3F910BD10B5012124
:10304000112089038006FDF7ABF910BD10B50328E8
:1030500007D20A4A4100515A094A80001058FDF728
:10306000B4F910BD032808D20549820089584A687E
:10307000024B4000185A42404A607047CC41000061
:10308000E00100204030004140200041401100415B
:10309000E7487047F8B5E64EF920307000207070B0
:1030A000B0700125F570044630710F21701D00F0DD
:1030B0006CFD0922DFA1701D00F00AFD35750321AA
:1030C0007175B175C0227277A823B3770B27D848E2
:1030D000F77702262030067042708370C770057142
:1030E000FF2646718671C671047245728572C2727E
:1030F00003734773D24A8173C11C0A73130A4B735B
:10310000431C1A74160A5E740C74260A4E74CD4E53
:103110001E75360A5E750C75230A4B7544768476E7
:10312000C476047744778477C47720300570C64B23
:10313000411C0B701B0A4B70C11C0A70120A4A70AA
:1031400044710C268671C571047244728472C47213
:10315000047345730A21183000F017FDB4480A21A2
:103160004E3000F012FDB248082760308470C47001
:10317000047147718771C77107723221093000F0FD
:1031800004FDAB482B2180308776C57604774177E4
:103190008177C177A64F0F20A03738700020787054
:1031A000B81C0570290A41703E71310A79710471A9
:1031B000210A41713C72A549401E0172090A4172FF
:1031C00001460A31002000F03AFD502038740020FA
:1031D000787438461330BD741E21044600F0D5FCC7
:1031E00013229BA1204600F073FC38463130282181
:1031F000044600F0CAFC20229AA1204600F068FC98
:10320000F8BD10B5FFF70AFFF923894A0021012014
:10321000FFF7E4FB864A0021062317320846FFF732
:10322000DDFB834C607821780002084302D0954989
:10323000884207D1FFF72EFFF9237D4A00210120A4
:10324000FFF713FC0121217503206075A075784CF0
:103250004034A07A032805D0042803D0FFF7E7FE06
:10326000607110BD617110BDF0B5714E0025403622
:103270007D27BFB02C46FF00F9236D4A00210120B5
:10328000FFF7F3FBF9236A4600210120FFF7A6FBB5
:10329000F9226946664800F049FB002811D0641CF9
:1032A000707BE4B2002803D0214677A000F0A2F999
:1032B0003846FEF725FA052C01D2012DDCD13FB0AE
:1032C000F0BD0125F4E710B500F002FC10BD30B5EB
:1032D00089B0574D03A90120FDF790FF6846427C55
:1032E000017CC07B6B4607C36846837B427B017BC6
:1032F0006FA000F07FF928462330417B007B090254
:1033000001436846407D009001916846037DC27C80
:10331000817C71A000F06EF96846407F009068469D
:10332000037FC27E817E75A000F064F96846407E0E
:1033300000906846037EC27D817D76A000F05AF938
:1033400008A84078009008A803786846C27F817F6B
:1033500076A000F04FF92C462034607A01282DD059
:103360006420415D601C0129417C0FD0027C080271
:10337000A17B104301900091637B227BE17A71A0D5
:1033800000F038F9607A032809D017E00A02007CBF
:1033900029460243693176A000F02CF90EE0E07A6C
:1033A000002808D1207B002805D1607B002802D1AD
:1033B000A07B002807D078A000F01CF975A000F0D1
:1033C00019F909B030BD79A0F6E710B5184C86B0F0
:1033D0002146062217316846FFF775FF214601A8EE
:1033E00004221D310230FFF76EFF214603A804229C
:1033F00021310230FFF767FF214602A80422253160
:103400000230FFF760FF214604A804226531023034
:10341000FFF759FF6034E078002801D0022000E077
:103420000120694688750020FDF7E8FE06B010BD52
:10343000000E002057495A37353053520000000023
:1034400088130000B80B0000581B000052C3000096
:103450006465766963652E77697A77696B692E6E24
:10346000657400002F77697A37353073722F66776D
:103470002F5737353030785F5332455F4170702EAB
:1034800062696E00FFFF0000203E20446576436FB6
:103490006E66696720757064617465206661696C29
:1034A00065642C2052657472793A2025640D0A00F7
:1034B0002023204D41433A20253032583A253032DE
:1034C000583A253032583A253032583A2530325859
:1034D0003A253032580D0A002023204950203A2046
:1034E00025642E25642E25642E2564202F20506F00
:1034F00072743A2025640D0A000000002023204742
:1035000057203A2025642E25642E25642E25640D2F
:103510000A000000202320534E203A2025642E2547
:10352000642E25642E25640D0A000000202320440B
:103530004E533A2025642E25642E25642E25640DD5
:103540000A00000020232044657374696E61746969
:103550006F6E2049503A2025642E25642E25642E56
:103560002564202F20506F72743A2025640D0A00C4
:1035700020232044657374696E6174696F6E204402
:103580006F6D61696E3A202573202F20506F727421
:103590003A2025640D0A00002023232055445020A2
:1035A000313A31204D6F64650D0A0000202323203D
:1035B00055445020313A4E204D6F64650D0A00008D
:1035C0007047000010B500F0F3FB001D10BD00BFF8
:1035D000D10B000010B50446FFF7F4FF0068005D52
:1035E000000704D5DF2C02D02046203810BD20462D
:1035F00010BD00000FB4054910B503AA029800F0F1
:103600006BFC10BC08BC04B01847000098000020F8
:103610000FB41CB5074B06AA7B4469460090059879
:1036200000F02BFC0020694600F03AFC1CBC08BCF2
:1036300004B018478508000070B504468569006825
:10364000C10601D5302600E02026C00707D070BD96
:1036500062683046A1689047206A401C20626D1E57
:10366000F6D570BD70B5044685690078C00707D1EE
:1036700070BD6268A16820209047206A401C2062CB
:103680006D1EF6D570BD70B50C460546012A05D0F5
:103690002878800600D5EA69002302E0012305E0CE
:1036A0005B1C934202D2E05C0028F9D1A869E618BD
:1036B000C01AA861286AC01828622846FFF7BCFF14
:1036C00004E06A682078A968641C9047B442F8D383
:1036D0002846FFF7C7FF70BDF7B5002575291068AC
:1036E000009914A611D0C046C046002802DA404214
:1036F00011A608E0009909688A0701D50FA602E023
:10370000490704D50EA6012501E0C046C046009F2A
:103710000024243704E000F04FFC30313955641C9C
:103720000028F8D12B4632462146009800F048FB8D
:10373000FEBD0000000000002D0000002B00000076
:103740002000000070B504460D4621461068C046B2
:10375000C0462188090502D50F4A7A4402E00E4A84
:103760007A440E3223460021243305E0060700097F
:10377000360F965D5E54491C0028F7D1207800234F
:10378000000705D5702D03D0002901D00223113286
:10379000204600F015FB70BD740A0000F3B5044626
:1037A000002081B020622046E168884700287DD053
:1037B000252802D06268A16883E0454F00257F4438
:1037C0002046E16888472028064608DB312E06D2CD
:1037D000B81920380078002801D00543F0E7A80781
:1037E00001D5042085430020E0610746A0612A2E10
:1037F0000AD0304600F0CCFC002827D0B8000019D1
:10380000303E0090866119E00298BA00121902C891
:10381000916102902046E1688847012F064617D142
:10382000E06900281FDA202085431CE000980A2167
:103830008069484300998019303888612046E168E2
:103840008847064600F0A4FC0028EFD1012F0AD0DB
:103850002E2E08D12046E1688847064620200543E1
:103860007F1C022FC3DBA069002803DA4042A0615D
:1038700001200543E80701D010208543002E24D005
:1038800030464138192803D80120C00205432036AC
:10389000204625603146029A1546FCF735FC002883
:1038A0000CD0012807D0ED1DE80800E00DE0C000B5
:1038B0000830029077E72D1D029574E76268304664
:1038C000A1689047206A401C6CE7206AFEBD00009A
:1038D000380A000070B5064600F06EFA0468054626
:1038E00030460A22002100F00BFB2C6070BD70B541
:1038F000064600F061FA0468054630460A220021B7
:1039000000F0FEFA2C6070BD10B5024A00F030FBEA
:1039100010BD0000EC010020401ECAB24178401CDE
:103920008A4202D00029F9D100207047034610B521
:103930000B439B070FD1042A0DD308C810C9121FCF
:10394000A342F8D018BA21BA884201D9012010BD8B
:103950000020C04310BD002A03D0D30703D0521C5F
:1039600007E0002010BD03780C78401C491C1B1B8D
:1039700007D103780C78401C491C1B1B01D1921EF7
:10398000F1D1184610BD0000034670B502460B4346
:103990009B070FD10E4CE60100E008C208C91D1BB1
:1039A0009D433542F9D0D9B21170521C00290DD077
:1039B0001B0AF8E70B78491C1370521C002B05D02A
:1039C0000B78491C1370521C002BF3D170BD000002
:1039D0000101010130B5441C03E00178401C0029BD
:1039E0000DD08107F9D10B4BDD0104C8D11A9143E9
:1039F0002940FAD0001B0A0603D0C01E30BD001BB0
:103A000030BD0A0401D0801E30BD0902FCD0401E2A
:103A100030BD0000010101010346F0B50B439B07D7
:103A20002DD1244DEF01042A29D308C810C95E1BEB
:103A30009E43121F3E4017D0D8B2E1B2401A310661
:103A4000014310D198B2A1B2401A310401430AD106
:103A500018022102000A090A401A3102014302D168
:103A6000180E210E401AF0BDA342DCD018BA21BABC
:103A7000884201D90120F0BD0020C043F0BD002ADA
:103A800001D10020F0BD03780C78401C491C002BAC
:103A90000DD0A3420BD1521E09D003780C78401CE4
:103AA000491C002B03D0A34201D1521EEBD1181B9D
:103AB000F0BD000001010101421E5378521C002B91
:103AC000FBD10B78491C1370521C002BF9D17047A5
:103AD000F8B5042A2CD3830712D00B78491C037045
:103AE000401C521E83070BD00B78491C0370401CEE
:103AF000521E830704D00B78491C0370401C521ED1
:103B00008B079B0F05D0C91ADF002023DE1B08C9D5
:103B10000AE0FCF72DFBF8BD1D4608C9FD401C4618
:103B2000B4402C4310C0121F042AF5D2F308C91A5E
:103B3000521EF0D40B78491C0370401C521EEAD46C
:103B40000B78491C0370401C012AE4D409780170E9
:103B5000F8BD01E004C0091F0429FBD28B0701D581
:103B60000280801CC90700D00270704700290BD06A
:103B7000C30702D00270401C491E022904D38307E8
:103B800002D50280801C891EE3E70022EEE70022B6
:103B9000DFE70000024670B50A4392072AD11E4DA6
:103BA000EE0104C808C9541B9443344017D0D0B266
:103BB000D9B2401A2106014310D190B299B2401AED
:103BC000210401430AD110021902000A090A401A0D
:103BD0002102014302D1100E190E401A70BD9A4203
:103BE000DFD010BA19BA884201D9012070BD002077
:103BF000C04370BD02780B78401C491C002A09D0D4
:103C00009A4207D102780B78401C491C002A01D047
:103C10009A42EFD0D01A70BD010101010378C27839
:103C20001946437812061B0219438378C0781B0497
:103C3000194311430902090A000608437047020AA2
:103C400008704A70020C8A70020ECA707047002217
:103C500003098B422CD3030A8B4211D300239C46C9
:103C60004EE003460B433CD4002243088B4231D341
:103C700003098B421CD3030A8B4201D394463FE0D5
:103C8000C3098B4201D3CB01C01A524183098B4235
:103C900001D38B01C01A524143098B4201D34B011E
:103CA000C01A524103098B4201D30B01C01A524181
:103CB000C3088B4201D3CB00C01A524183088B4208
:103CC00001D38B00C01A524143088B4201D34B00F1
:103CD000C01A5241411A00D2014652411046704763
:103CE0005DE0CA0F00D04942031000D34042534068
:103CF00000229C4603098B422DD3030A8B4212D328
:103D0000FC22890112BA030A8B420CD38901921159
:103D10008B4208D3890192118B4204D389013AD096
:103D2000921100E08909C3098B4201D3CB01C01A6B
:103D3000524183098B4201D38B01C01A524143097E
:103D40008B4201D34B01C01A524103098B4201D36C
:103D50000B01C01A5241C3088B4201D3CB00C01AD9
:103D6000524183088B4201D38B00C01A5241D9D2F1
:103D700043088B4201D34B00C01A5241411A00D272
:103D80000146634652415B10104601D34042002B6E
:103D900000D54942704763465B1000D3404201B5ED
:103DA0000020C046C04602BD704770477047000003
:103DB000004870471C0F002000487047FC0E002090
:103DC000FFB504460D4681B0243000902168880676
:103DD00004D51022E0699143216000E00120A8424F
:103DE00001DD471B00E000270498A1697A1910182B
:103DF000081AA0612078C00602D42046FFF71CFCF8
:103E0000002608E003986268A168805D9047206AF8
:103E1000401C761C206204988642F3DB2078C006A2
:103E20000AD52046FFF708FC06E06268A16830204A
:103E30009047206A401C206238467F1E0028F4DC30
:103E400007E000986268A168405D9047206A401CC6
:103E5000206228466D1E0028F3DC2046FFF702FC96
:103E60002078000602D5022005B0F0BD0120FBE756
:103E700001694A1C02610878704700B58FB0029151
:103E8000002105910549019379440391114604905D
:103E90006846FFF783FC0FB000BD0000E5FFFFFFA1
:103EA0000A681070521C0A60704710B54369002BF5
:103EB00002D0C046C04601E0FFF7E5FB012010BD7F
:103EC0001278014624310A7000224A700122ECE780
:103ED00011680022D243E8E7084B70B50D467B44D9
:103EE000FFF7CBFF04462846FDF775FB002802D0FC
:103EF0000020C04370BD204670BD0000EBD6FFFF20
:103F0000F7B50F460026009C2578641C002D05D0CF
:103F1000FFF758FB0068405DC007F5D12B2D02D09C
:103F20002D2D18D0641E3946029A204600F05CF808
:103F3000002F04D03968A14201D100993960710580
:103F4000022400290BDA4042002803DDFFF734FF8A
:103F50000460A007FEBD012080020643E3E70028BD
:103F6000F8DAFFF729FF04600048FEBDFFFFFF7F7E
:103F7000F8B515460E46040003D12C68002C00D17C
:103F80000CA4204600F094F80419207800280ED0E4
:103F900027463146384600F07AF804192078002880
:103FA00002D000202070641C38462C60F8BD002729
:103FB000FAE700000000000001468008081A020924
:103FC0001018020A1018020C1018C00882001218EB
:103FD0005200891A01E0401C0A390A29FBD27047B5
:103FE00000487047FC0E0020F7B5154682B0002748
:103FF000029C2078641C0197302802D0002D15D037
:1040000015E020780127641C782804D0582802D0B5
:10401000002D09D00BE0002D01D0102D07D1207804
:1040200000271025641C02E0082500E00A25002670
:10403000009610E00099012769430818294671434A
:10404000020C80B200908E183804864201D3012001
:1040500001902078641C294600F059F80028E9DA1C
:104060000398002805D0002F01D0641E00E0029CB8
:1040700004600198002806D0FFF79EFE022101602F
:10408000C81E05B0F0BD009930040843F9E730B50B
:1040900003461D78002D03D00A4603E0AC4201D14F
:1040A000181A30BD1478521C002CF7D15B1CF0E7B5
:1040B00030B503461D78002D08D00A461478521CEE
:1040C000002C03D0AC42F9D15B1CF3E7181A30BDC9
:1040D0007546FFF785FFAE46050069465346C008A2
:1040E000C000854618B020B5FCF768F860BC002712
:1040F0004908B6460026C0C5C0C5C0C5C0C5C0C5B4
:10410000C0C5C0C5C0C5403D49008D4670473A286E
:1041100000D23038202302469A43412A01D3104668
:104120003738884201D30020C043704710B5044699
:10413000C046C0462046FCF714F810BD30B58C18B8
:104140000278401C13071B0F01D10378401C120991
:1041500006D10278401C03E00578401C0D70491C14
:104160005B1EF9D101E00B70491C521EFBD1A1422C
:10417000E6D3002030BD30B47446641E2578641C3C
:10418000AB4200D21D46635D5B00E31830BC1847AC
:1041900030380A2801D20120704700207047000003
:1041A00010B500290AD00878002807D005487844BF
:1041B000FFF7F0FC002801D0002010BD0248784431
:1041C00010BD00005A020000520200000400080066
:1041D00000013031323334353637383941424344C7
:1041E000454640305800303132333435363738396F
:1041F0006162636465664030780004000008000076
:104200000000000000020001000010004B2100002F
:104210004B4100004D41000041420000444200007B
:1042200053420000454300004D430000534300004B
:10423000444400005044000055504752414445005A
:1042400041544D4F444500004B450000544500008B
:1042500055450000444700004C470000444800001A
:1042600052480000444900004B4900004C490000FE
:10427000504900005249000055490000464C0000DA
:10428000494D0000534D00004F50454E00000000C6
:104290004D4E0000554E0000504F000043500000AE
:1042A00055445000445000004C5000004E50000057
:1042B0004F5000005050000052500000535000007A
:1042C0004252000045520000465200005052000089
:1042D0005452000056520000445300005053000056
:1042E00053530000434F4E4E454354004954000081
:1042F000424F4F5400000000505400005254000040
:104300005354000053560000445700004657000025
:10431000475700005057000044580000455800001F
:1043200052532D3432322F343835000052532D324F
:1043300033322F54544C0000203E20534547435005
:104340003A46575F5550444154453A4641494C45D9
:1043500044202D20496E76616C6964206669726D17
:10436000776172652073697A653A202564206279E5
:1043700074657320284669726D7761726520736970
:104380007A65206D75737420626520776974686939
:104390006E202564206279746573290D0A0000007F
:1043A000203E2053454743503A46575F55504441BD
:1043B00054453A4641494C4544202D20506C656196
:1043C00073652074727920746F204657205570648D
:1043D00061746520617420415050424F4F54206DEC
:1043E0006F64650D0A000000184500000000002001
:1043F000F00100003C41000028460000F0010020D0
:1044000070190000EC0000001001000043000000E3
:10441000F8FFFFFF004040404040404040404141E5
:104420004141414040404040404040404040404089
:104430004040404040050202020202020202020223
:104440000202020202202020202020202020200220
:1044500002020202020290909090909010101010B0
:10446000101010101010101010101010101010104C
:1044700002020202020288888888888808080808E0
:1044800008080808080808080808080808080808AC
:1044900002020202400000000000000000000000D4
:1044A000000000000000000000000000000000000C
:1044B00000000000000000000000000000000000FC
:1044C00000000000000000000000000000000000EC
:1044D00000000000000000000000000000000000DC
:1044E00000000000000000000000000000000000CC
:1044F00000000000000000000000000000000000BC
:1045000000000000000000000000000000000000AB
:104510000000000000000000A10217C03B0101578D
:104520003735303000990E339B0E339D0E339F0E7E
:1045300033A10E43A50E041D80004055FFFFFFFF71
:104540004205334D1433CD1403192515071557496A
:104550005A6E657433F04233884233E44233384252
:1045600033404273A04233284233D4423390423323
:10457000804233B042333042339C4233984233540A
:1045800042331042336842334842337442336C4200
:1045900033844233104333D84233704233B442330E
:1045A000184333A442336442330843335C4233A894
:1045B0004233B84233604233C042331C4233CC42B0
:1045C000332042337C4233EC4233F84233DC423313
:1045D0003442334C4233E04233AC4233BC42335872
:1045E0004233C442330C4333144233144333044341
:1045F000331C4333FC42439442324333C842332496
:1046000042330C42335042337842331842332C4207
:104610000317D042332C43031420435701010201F6
:084620000101424342435244F0
:020000040000FA
:107D000010B5F9F745FC10BD0000000010B5F9F7FB
:107D100040FC10BD10B5F9F73DFC10BD10B5F9F7EA
:107D20003AFC10BD10B5F9F737FC10BD10B5F9F7E6
:107D300034FC10BD10B5F9F731FC10BD10B5F9F7E2
:107D40002EFC10BD10B5F9F72BFC10BD10B5F9F7DE
:107D500028FC10BD10B5F9F725FC10BD10B5F9F7DA
:107D600022FC10BD10B5F9F71FFC10BD10B5F9F7D6
:107D70001CFC10BD10B5F9F719FC10BD10B5F9F7D2
:107D800016FC10BD10B5F9F713FC10BD10B5F9F7CE
:107D900010FC10BD10B5F9F70DFC10BD10B5F9F7CA
:107DA0000AFC10BD10B5F9F707FC10BD10B5F9F7C6
:107DB00004FC10BD10B5F9F701FC10BD10B5F9F7C2
:107DC000FEFB10BD10B5F9F7FBFB10BD10B5F9F7C0
:107DD000F8FB10BD10B5F9F7F5FB10BD10B5F9F7BC
:107DE000F2FB10BD10B5F9F7EFFB10BD10B5F9F7B8
:047DF000ECFB10BDDB
:04000005000000A94E
:00000001FF
