:020000040000FA
:1070000060350020F17100009D9D00009F9D0000F3
:107010000000000000000000000000000000000070
:10702000000000000000000000000000A19D000022
:107030000000000000000000A39D0000A59D0000CE
:10704000AD9D0000AF9D0000B19D0000BB9D000004
:10705000C59D0000C79D0000C99D0000CB9D00009C
:10706000CD9D0000CF9D0000D19D0000D39D00006C
:10707000D59D0000DD9D0000DF9D0000E19D00002A
:10708000E39D0000E59D0000E79D0000E99D0000F4
:10709000EB9D0000ED9D000003720000EF9D0000DD
:1070A000F19D0000F39D000000F002F800F059F897
:1070B0000CA030C8083824182D18A246671EAB460D
:1070C00054465D46AC4201D100F04BF87E460F3E7F
:1070D0000FCCB6460126334200D0FB1AA246AB467F
:1070E00033431847F89F000018A000000023002435
:1070F00000250026103A01D378C1FBD8520700D3EF
:1071000030C100D50B60704710B5642902D108F07A
:1071100085F810BD752902D108F080F810BD7829D6
:1071200002D108F0B1F810BD632902D109F040F98D
:1071300010BD732902D109F043F910BD002010BD24
:107140001FB5C046C04608F0F7FA09F0A9F80400D8
:107150000020002109F0B2FC401C60601FBD10B58A
:1071600010BD09F047FC1146FFF7EAFF03F053FAA0
:1071700009F05FFC03B4FFF7F2FF03BC02F051FE1D
:1071800030B40C490C684A6823681068C018106055
:10719000241D121D8C4207D28A4208D20C604A601C
:1071A00030BC4000400870470C00DC3CF6E70A00A9
:1071B000DC3AF3E7F428002070B505460C46164685
:1071C00002E00FCC0FC5103E102EFAD2082E02D3CB
:1071D00003CC03C5083E042E07D301CC01C5361FDE
:1071E00003E021782970641C6D1C761EF9D270BDF5
:1071F0000748804707480047FEE7FEE7FEE7FEE74F
:10720000FEE7FEE704480549054A064B70470000C3
:107210003B720000A970000060290020603500204A
:10722000602D0020602D00203648006870473548EA
:10723000406870473448006A704710B53348816B26
:10724000334A1161C16B30484160002101624169DC
:107250008907CA0F012191404269D207D20F91409C
:10726000CAB2416940698904890E51438002294AA2
:10727000800E504308F055FC2249086010BDF8B557
:10728000254F0126204D01280FD000202862214CD7
:107290001046214608F045FCC0B2012808D8EE612E
:1072A0006F6101210A46134619E02E620C46EFE792
:1072B0000021E961FF2101318006800A08436861ED
:1072C00068698007C00F86406869C007C00F8640A4
:1072D0006869F2B28004810E68698002830E2046DC
:1072E000084C51436060584308F01BFC2060F8BD17
:1072F00030B4064B9C6B064D2C61DB6B024C63601B
:1073000030BCBCE7000000200010004180FD0300FD
:107310000012004100127A0000010200412109061A
:10732000002801D0032000E00120086070474121BF
:1073300009064860704701204121090688607047AE
:1073400041200006C06880B270474121090600282C
:1073500000D0022008617047412000060069000645
:10736000000E00D00120704701204121090608616C
:1073700070470020D2E700B50120FFF7CFFF0020C3
:10738000FFF7E3FF00BD00003F4A3F4B0121803281
:10739000984201D1116070473B4B2033984201D194
:1073A00011627047394A394B80329842F2D0374BDC
:1073B00020339842F4D07047334A334B0121C943FC
:1073C0008032984201D1116070472F4B2033984290
:1073D00001D1116270472D4A2C4B80329842F2D075
:1073E0002A4B20339842F4D0704781688022914321
:1073F0008160704781688022914381600021016033
:107400002022826081617047826880239A43826073
:107410000A68026082684B689B0113438A68920085
:107420001A43CB6809695B0013431943EF221140EB
:107430008160704720220129816802D091438160D8
:1074400070471143FBE70121C16070474069C0B23A
:10745000704780688006C00F7047816880221143A2
:1074600081607047006870470160704740687047EE
:107470008068704781607047006970474069704755
:107480008069704781617047001000400020004013
:1074900070B51024002101604160BF4A4261426220
:1074A0008162426321225206904202D1BB4BBC4A08
:1074B0000CE043221206904204D1B84BB84A403344
:1074C000403203E0B54BB64A80338032002060265C
:1074D00085005E515151401CA042F9D370BDF0B5FA
:1074E0002122002310265206904201D1AB4A08E027
:1074F00043221206904202D1A84A403201E0A74A34
:107500008032012425460F689D402F40AF4243D171
:107510000F79012F0DD045614D79AD070DD59C0038
:107520001559AD08AD001551155902273D431551A8
:107530000BE007692F430761EEE79D005759BF082D
:10754000BF0057515759274357514C79640704D509
:107550009C00155904273D4303E09C00155904275E
:10756000BD4315514C79A40604D59C00155920271C
:107570003D4303E09C0015592027BD4315514C792C
:10758000640604D59C00155940273D4303E09C0048
:1075900015594027BD4315515B1CB342B1D3F0BD13
:1075A0007D490160002101716221417170470246ED
:1075B000126800200A4200D001207047006880B2A3
:1075C00070470246526800200A4200D001207047EE
:1075D000406880B270470A06920D012312189B0280
:1075E000D21811600A0A920010185A00801801601F
:1075F000704710B50B069B0D0124CA431B18A4024B
:107600001B191A60090A89000818610040180260F5
:1076100010BD10B50B069B0D01241B18A4021B19ED
:107620001A60090A8900081861004018026010BD3C
:1076300041607047836A0B438362012A03D0426A28
:107640000A4342627047026A0A4302627047524A22
:107650008262012901D04262704702627047012AAA
:1076600003D0426B0A4342637047026B0A430263D2
:107670007047494A012901D042637047026370474D
:107680004549816370470246926B00200A4200D050
:1076900001207047F0B50126414D002334469C403F
:1076A0000C420ED0002810D0012811D03C4C9F0075
:1076B00080343C192768BF08BF002760276817433C
:1076C00027605B1C102BE9DBF0BD9C006419F1E71F
:1076D0009C006419276CBF08BF002764276C174300
:1076E0002764EEE77CB504461E460D466846FFF764
:1076F00057FF68460095027169462046FFF7EFFE86
:1077000021204006844201D1002006E043200006EB
:10771000844201D1012000E0022032462946FFF7D1
:10772000B9FF7CBD7CB5044616460D466846FFF79A
:1077300037FF00206946009508712046FFF7CFFE0D
:10774000206A28432062A06A2843A0623246294664
:107750002046FFF784FF21204006124E844206D1C6
:10776000002001222946FFF795FF802012E04320E8
:107770000006844207D1012002462946FFF78AFF0E
:10778000FF20013006E0022001222946FFF782FF98
:107790000120400230607CBDFFFF0000003000414E
:1077A0000020004100E100E0E12149020160602188
:1077B00081800021C18003220181120242818181E6
:1077C00070477047F8B50446006B0E46400840000D
:1077D0002063FFF72FFD8B4F0125002846D03D6128
:1077E000FFF722FD7A692946914008F09AF9074689
:1077F0003068000108F02EFD0090384608F02AFDA0
:10780000009908F033FC074608F0E0FC009008F00F
:1078100021FD394609F0AEF9062108F01FFD08F0F8
:10782000FBFB0022784B08F0A9FB08F0D3FB0146D4
:1078300000986062A162E06AEE218843B188F28814
:10784000114332890243E06A11430843E062206B2E
:107850006E49B2890840718911430143206B084386
:107860002063206B284320630020F8BD022038618C
:107870007869294681406648B7E710B5C36A102485
:107880002343C3624907890E5207520F11434163D4
:1078900010BDC16A10229143C162704701607047F8
:1078A000006880B27047C16A01221143C16270470B
:1078B0000246526800200A4200D001207047416011
:1078C00070470246926900200A4200D001207047AA
:1078D000002A03D0826B0A4382637047426C0A43DA
:1078E000426470470246126C00200A4200D0012018
:1078F0007047426C0A4342647047704710B50446B3
:107900004448016B02290AD0006B032807D0FFF717
:107910008BFC214608F005F93F49086110BDFFF7CF
:1079200086FCF6E710B5FFF7E9FF3B4988680322BC
:107930008008800010438860002010BD36494A68E6
:10794000D207FCD1086070473348006880B27047A6
:10795000314A0146526800200A4200D00120704797
:107960002D4A0029916801D0014300E081439160D4
:107970007047294A0029916801D0014300E0814302
:1079800091607047244A0146D26800200A4200D024
:10799000012070472049CA680243CA6070470160ED
:1079A00082691207FCD40846704730B50B4605467D
:1079B0001C78002C03D021462846FFF7F0FF5B1C03
:1079C000002CF5D130BD8169C906FCD40068C0B275
:1079D000704700B50346FFF7B1FF184600BD10B56C
:1079E00003461C78002C02D02046FFF7A7FF5B1C43
:1079F000002CF6D110BD084841688907FCD5006805
:107A0000C0B27047401100410000E03FFE3CFFFF64
:107A100000127A00001000410060004000787047BA
:107A20000170704730B5002405E00D19ADB2455D19
:107A30001555641CA4B29C42F7D330BD70B5002428
:107A400005E00E19155DB6B28555641CA4B29C42C2
:107A5000F7D370BD70B514000FD01A4A83049E1876
:107A6000F268400795B2184AC00A10430A462346F6
:107A70002946FFF7E3FF2819F06070BD70B51400C8
:107A80000FD0104A83049E18B26A400795B20F4A7D
:107A9000C00A10430A4623462946FFF7C3FF2819A8
:107AA000B06270BD10B500290BD0064A83049B1844
:107AB0009A6A4007054CC00A5118204389B2081839
:107AC000986210BD00020146000002460000034615
:107AD00070B50446082802D90020C04370BDFA489A
:107AE000A604301805461021FFF79AFF2846FFF735
:107AF00095FF0028FAD1F4481F2118303018FFF7FD
:107B00008FFFF24801218288A1408A438280F04A97
:107B1000002061005052ED49891D0855EA48203087
:107B200034182046FFF77AFF0028FAD1012070BDF3
:107B3000F8B51C4616460F460546082802D900200F
:107B4000C043F8BD012F06D0022F04D0042F02D06D
:107B50000420C043F8BD6007810FDE48FAD1002C35
:107B60000CD0012F02D0022F08D103E021210C42BA
:107B7000F0D003E0A10601D52106EBD52846FFF79A
:107B8000A7FF21090901D0483943AF04103838183C
:107B9000FFF746FF002E0AD1CC48CF4A0688711C59
:107BA00089B20180914202D1032189030180C64834
:107BB000F03038184661C448012138180646FFF7EE
:107BC0002FFF3046FFF72AFF0028FAD1BF48E10710
:107BD000C90F4288A9401143418001218288A940F0
:107BE0008A438280BA4A002069005052B749891DF1
:107BF0004855B54820303C182046FFF70FFF0028B5
:107C0000FAD068B2F8BD70B50646082802D900203F
:107C1000C04370BDAC48B40410382018FFF7FEFE16
:107C20000007000F012802D00420C04370BDA64801
:107C3000203020180546FFF7F1FE132802D002205D
:107C4000C04370BDA048022120180446FFF7E8FE9B
:107C50002046FFF7E3FE0028FAD12846FFF7DEFEB4
:107C6000142805D03046FFF733FF0320C04370BD12
:107C7000012070BDF7B50D460746082802D900203F
:107C8000C043FEBD9048BC0410382018FFF7C6FE64
:107C90000007000F012802D00420C043FEBD8A481F
:107CA000203020180646FFF7B9FE132802D0022024
:107CB000C043FEBD29786A7808028018AA780002BD
:107CC0008018EA7800028018421C32D0002830D098
:107CD0000298002830D081482018FFF7A1FE7F4885
:107CE0006978401E2018FFF79BFE7C48A978801E0B
:107CF0002018FFF795FE7948E978C01E2018FFF795
:107D00008FFE764902982739611808626E4804216F
:107D100020180546FFF784FE2846FFF77FFE00285F
:107D2000FAD16A4901204988B84008421CD0002095
:107D3000FEBD0B20C043FEBD0A20C043FEBD284649
:107D4000FFF76CFE000708D55F480821183020189F
:107D5000FFF766FE0C20C043FEBD3046FFF75EFE17
:107D6000002804D1001FFEBD5748103025183046AA
:107D7000FFF754FE1728E2D10120FEBD70B506467C
:107D8000082802D90020C04370BD4F48B504103800
:107D90002818FFF743FE0007000F012802D0042037
:107DA000C04370BD4848082128180446FFF738FE34
:107DB0002046FFF733FE0028FAD1444901208A8883
:107DC000B04082438A80498808420CD0002070BDB0
:107DD0002046FFF723FE00070BD53046FFF778FE5D
:107DE0000C20C04370BD384810302C183648203065
:107DF0002D182846FFF712FE0028E9D1012070BD9A
:107E0000F7B582B002981446082803D90020C04371
:107E100005B0F0BD86042C4810383018FFF7FEFD81
:107E20000007000F012802D00420C043F0E7002C17
:107E30000CD02548203030180190FFF7EFFD1728AF
:107E400007D01C2805D00620C043E1E70D20C04321
:107E5000DEE7029801251D4F8540B888054211D004
:107E6000194810303018FFF7D9FDC006C00EC10602
:107E700021D51548102118303018FFF7D1FDB888EA
:107E8000A843B8801548D93030180090FFF7C6FDD8
:107E90008006000C844200D904460098406887B2EE
:107EA0000198FFF7BBFD17281AD01C2818D002989C
:107EB000FFF70EFEC7E7000718D50298FFF708FE88
:107EC0000C20C043A4E70000100001460800002079
:107ED0000C030020FAFFFFFFF0FF0000270101461E
:107EE000FE484088054203D0BC4201D900208FE7FC
:107EF000BC42D2D8224603990298FFF7ABFDF8485E
:107F0000202130180646FFF78BFD3046FFF786FD2F
:107F10000028FAD1F14881880D438580204677E713
:107F2000F7B582B002981446082802D90020C04351
:107F30006EE78704EA4810383818FFF76FFD00072E
:107F4000000F012802D00420C04361E7002C19D0A3
:107F5000E4483818FFF762FD8006000CA04200D20A
:107F60000446DF48203038180090DE4820383E189C
:107F7000706A85B20098FFF751FD172815D01C28AC
:107F800003D00CE00D20C04342E7002D1AD130464B
:107F9000FFF744FD7168800289B2884205D10298DA
:107FA000FFF796FD0620C04332E702990120884082
:107FB000CA494988084203D0002D03D1002027E791
:107FC000002DD5D0A54200D22C4622460399029816
:107FD000FFF754FDC248402138180546FFF720FD41
:107FE0002846FFF71BFD0028FAD1204610E7FFB511
:107FF00083B003981E461546082803D90020C043C5
:1080000007B0F0BD8404B64810382018FFF706FD0D
:108010000007000F022804D0042802D00420C04327
:10802000EEE7002D1DD03078717800024018B1784D
:1080300000024018F1780002C84202D10B20C04370
:10804000DEE70C9800280FD0A548203020180746FE
:10805000FFF7E4FC42280AD0222808D00620C043BB
:10806000CEE70D20C043CBE70A20C043C8E79D48B8
:108070003178F9382018FFF7D3FC9A487178FA382C
:108080002018FFF7CDFC9748B178FB382018FFF790
:10809000C7FC9448F178FC382018FFF7C1FC9049E0
:1080A0000C98F031611808628E4820382018019031
:1080B000FFF7B4FC8006000C854200D90546039901
:1080C0000120884000900198406886B23846FFF74A
:1080D000A5FC002808D0814900984988084206D0AC
:1080E000B54204D900208BE70320C04388E7B5429E
:1080F000E9D82A4604990398FFF7ACFC7848202178
:1081000020180746FFF78CFC7548183026183846AB
:10811000FFF784FC0028FAD171481030241820465B
:10812000FFF77CFCC006C00EC10605D53046102105
:10813000FFF776FC284663E70007F0D530460821B4
:10814000FFF76EFC0C20C0435AE7FFB5002485B052
:108150000646082802D9601E09B0F0BD6048B50483
:1081600010382818FFF75AFC04900007000F022867
:1081700004D0042802D00420C043EDE7079800286B
:1081800005D059487700C05B002803D022E00D20BD
:10819000C043E1E753482038281803905048203066
:1081A00028180125B54002900398406A84B20298CD
:1081B000FFF734FC002806D048484088054207D025
:1081C000002C03D006E00320C043C5E70020C3E72E
:1081D000002CE9D041480021801D81550498B2044B
:1081E00041073F48490F151802291FD0042957D0CD
:1081F00021463046FFF756FC3B48C45328464021F1
:10820000FFF70EFC2846FFF709FC0028FAD1364894
:10821000C15B091B0904090CC15305D02F48012279
:10822000801D815D11438155204695E72E4CE05B12
:10823000002865D1082269463046FFF71FFC284612
:108240004021FFF7EDFB2846FFF7E8FB0028FAD1B5
:10825000684601780898017068464178089841702E
:1082600068468178089881706846C1780898C1701E
:1082700068460E990079088001026846407908181E
:108280000E9908806846807901026846C07908180E
:10829000E05332E0224630460699FFF7EFFBADE7A8
:1082A000114CE05B00282BD1022269463046FFF7D3
:1082B000E5FB28464021FFF7B3FB2846FFF7AEFB5E
:1082C0000028FAD16846007801026846407808180C
:1082D00080B20649E05388420FD909E00800002027
:1082E00010000146200201460C030020EA050000B0
:1082F0003046FFF7EDFB9E482EE79E4980208855CB
:10830000E45B07988442C5D90446C3E7F8B5144630
:108310000646082802D90020C043F8BD954B964870
:108320009B1F0927B2045D88FF4310180B0008F05B
:10833000B1FB0805171B1D252E3731402178012080
:10834000B040012902D0002905D032E08949891FB7
:10835000284348802BE08749891F85434D8026E0CC
:10836000F540E807C00F19E0844801E08348203059
:108370001018FFF753FB8002208018E020781F2898
:1083800017D8C1067C48C90E001D10180DE07A48A8
:10839000001F1018FFF742FBC006C00E207006E059
:1083A00021781F2905D8C906C90EFFF739FB01201E
:1083B000F8BD3846F8BDF8B51546082802D90020A2
:1083C000C043F8BD84046D4B6B4A6B48803BDC3284
:1083D00024380427E618A2182018FF430B0008F0E1
:1083E00059FB084F050910421316444F624829787B
:1083F000E43002E060482978E0302018FFF710FBF5
:1084000031E0288810612EE0288810622BE0FFF709
:1084100005FB0007000F01282DD13046FFF7FEFABB
:10842000002802D00120C043F8BD5348222114384F
:1084300020180546FFF7F4FA4F48001F26180DE0F4
:108440003046FFF7EBFA000708D54B480821001D1E
:108450002018FFF7E5FA0C20C043F8BD2846FFF7C7
:10846000DDFA0028ECD10120F8BDFFF7D7FA0007AC
:10847000000F012801D03846F8BD29783046BDE705
:108480000920C043F8BDF8B514460646082802D9AD
:108490000020C043F8BDB5043748374A374B24386D
:1084A000DC32EF182818AA180B0008F0F3FA0D08B0
:1084B0000D121517305E323E404248525E00FFF703
:1084C000ADFA0009000102E02B48E43033E02070EF
:1084D0003DE02948E0302EE01069F8E72748D93818
:1084E0002818FFF79BFA20702448DA382818FFF77D
:1084F00095FA60702148DB382818FFF78FFAA070D2
:108500001E48DC382818FFF789FAE0701FE0106A6F
:108510001CE0FFF783FA0007000F01281FD117485E
:1085200080382818FFF77AFA10E078680EE0786A49
:108530000CE011480C302818FFF770FAC7E7FFF776
:108540006DFA0128F3D00E497000085A20800120EE
:10855000F8BDFFF763FA0007000F012802D00420DE
:10856000C043F8BD0348805DB1E70120C043F8BDBA
:1085700017FCFFFF0E000020240001460002014608
:108580000C030020704770477047704700787047B1
:1085900001707047002070477047FE4A002804D0E1
:1085A000002902D0D16090607047FB489060FB4882
:1085B000D0607047F74A002804D0002902D05161EA
:1085C00010617047F6481061F6485061704710B569
:1085D000F04A1388DC05FDD5002804D0002902D01C
:1085E000D161906110BDF0489061F048D06110BD3C
:1085F00010B5E84A13889C05FDD5002804D0002951
:1086000002D0D161906110BDE9489061E948D06124
:1086100010BD0020C04370470020C043704710B514
:10862000E548FFF7FBF90446E3481030FFF7F6F999
:108630000002001980B210BD10B5C1B2040A0909C8
:108640000901DD48FFF7ECF9DB4821461030FFF760
:10865000E7F910BDD84810B5001FFFF7DFF9044651
:10866000D5480C30FFF7DAF90002001980B210BDCE
:1086700010B5C1B2040AD04809090901001DFFF76D
:10868000CFF9CD4821460C30FFF7CAF910BDF0B53F
:1086900093B0CA48FFF7C2F91190C848401EFFF7CF
:1086A000BDF9C64C1090A41E2046FFF7B7F9651E11
:1086B0000F902846FFF7B2F90E90A01DFFF7AEF914
:1086C0000D90601DFFF7AAF90C90BC480830FFF729
:1086D000A5F90B90B948C01DFFF7A0F9B74E0A9055
:1086E000B61D3046FFF79AF90990E01DFFF796F99D
:1086F0000890B01DFFF792F90790701DFFF78EF9F3
:108700000690301DFFF78AF90590F01CFFF786F9F7
:108710000490AA481030FFF781F9A84F03900F3753
:108720003846FFF77BF90290781EFFF777F9019042
:10873000F01DFFF773F900908021A148FFF770F951
:108740009F48FFF76BF9A01C1199FFF769F9601CAE
:108750001099FFF765F920460F99FFF761F9284650
:108760000E99FFF75DF9A01D0D99FFF759F9601DEE
:108770000C99FFF755F9B01C0B99FFF751F9701CD4
:108780000A99FFF74DF930460999FFF749F9E01DBD
:108790000899FFF745F9B01D0799FFF741F9701DDA
:1087A0000699FFF73DF9301D0599FFF739F9F01CDF
:1087B0000499FFF735F9781C0399FFF731F938462A
:1087C0000299FFF72DF9781E0199FFF729F9F01D9D
:1087D0000099FFF725F913B0F0BDF8B50D46064630
:1087E0000024FFF754FF002E14D00022B05C521C6E
:1087F000001952B244B2082AF8DB102C17DC714F72
:108800000024A004315DC019FFF70AF9641C64B2AA
:10881000082CF6DB002D19D0002108462A5C401CEC
:10882000511840B249B20828F8DB102902DD0020B7
:10883000C043F8BD634E00242036A004295D801992
:10884000FFF7EEF8641C64B2082CF6DB0020F8BDDC
:1088500070B50C460246002108464D1E130008F074
:1088600019F90906091511181C2E2E202E00FFF7E4
:108870000EFF22E0002C02D0214620460831FFF7EF
:10888000ACFF70BD2088FFF7F3FE16E0FFF7E2FEB5
:1088900005E02088FFF7D0FE0FE0FFF7C0FE208044
:1088A0000BE03C4882782270C27862700279A27034
:1088B0004279E270807920716171002070BD284694
:1088C00070BD10B504463D484130FFF7A7F8207051
:1088D0003A483D300068608010BD10B5044601780C
:1088E00036484130FFF79CF8344960883D310860D4
:1088F00010BD10B53248FFF791F810BD70B50446B1
:10890000C720044202D00020C04370BD2C4D284631
:10891000FFF784F8204301462846FFF781F800203E
:1089200070BD10B504462548FFF778F8207023483D
:10893000401EFFF773F860702048801EFFF76EF846
:10894000A0701E48C01EFFF769F8E0701B48001DAC
:10895000FFF764F820711948C01CFFF75FF86071D9
:1089600016480830FFF75AF8A0731448C01DFFF7E7
:1089700055F8E0731148801DFFF750F820740F4838
:10898000401DFFF74BF860740C480C30FFF746F8B9
:10899000A07219E020000020858500008785000076
:1089A000898500008B8500008D8500009185000081
:1089B000958500009985000004210046036000466B
:1089C00000230046000201465F480B30FFF726F8FF
:1089D000E0725D480A30FFF721F820735A480930E9
:1089E000FFF71CF8607358481030FFF717F8A071B4
:1089F00055480F30FFF712F8E07153480E30FFF77B
:108A00000DF8207250480D30FFF708F860724F489B
:108A10000178A1744178E17481782175C07860751E
:108A20004A48401E0078A07510BD10B50446017874
:108A30004548FEF7F5FF44486178401EFEF7F0FF19
:108A40004148A178801EFEF7EBFF3F48E178C01E49
:108A5000FEF7E6FF3C482179001DFEF7E1FF3A48AA
:108A60006179C01CFEF7DCFF3748A17B0830FEF7B8
:108A7000D7FF3548E17BC01DFEF7D2FF3248217C8D
:108A8000801DFEF7CDFF3048617C401DFEF7C8FF1A
:108A90002D48A17A0C30FEF7C3FF2B48E17A0B304A
:108AA000FEF7BEFF2848217B0A30FEF7B9FF2648B3
:108AB000617B0930FEF7B4FF2348A1791030FEF73F
:108AC000AFFF2148E1790F30FEF7AAFF1E48217A57
:108AD0000E30FEF7A5FF1C48617A0D30FEF7A0FFAF
:108AE0001A48A17C0170E17C4170217D8170617D1B
:108AF000C1701649A07D491E087010BD10B50C4606
:108B0000030007F0C7FF0604080C1014181D0846E0
:108B1000FFF78BFF12E00846FFF703FF0EE008782F
:108B2000FFF7ECFE10BDFFF7E4FE207006E00846FC
:108B3000FFF7D3FE02E00846FFF7C3FE002010BD9A
:108B40000020C04310BD0000036000461900002053
:108B500070B58F4C05462088286161882846FEF74D
:108B60003AFD012001F0D8FD61882846FEF741FD5D
:108B7000012001F0D1FD70BDF8B507460020844DFD
:108B80000446460069883846FEF725FD012001F0BD
:108B9000C3FD69883846FEF72CFD012001F0BCFDBD
:108BA00029883846FEF703FD3043641C102CE8D3B7
:108BB000F8BD70B5764C054620886861012001F04B
:108BC000ABFD61882846FEF706FD012001F0A4FDFB
:108BD00061882846FEF70DFD012001F09DFD70BD66
:108BE000F8B5074616462020801B81400C46684D8C
:108BF00018E02988002C384602DAFEF7ECFC01E088
:108C0000FEF7F7FC012001F087FD69883846FEF782
:108C1000E2FC012001F080FD69883846FEF7E9FC9E
:108C20006400761E002EE4D1F8BD70B50C4600211C
:108C300005462022C943FFF7D3FF04220621284618
:108C4000FFF7CEFF5248052241682846FFF7C8FFCC
:108C5000052221462846FFF7C3FF2846FFF7A9FF54
:108C60002846FFF789FF04462846FFF771FF204694
:108C700070BD10B5432001210006FFF7D6FF400765
:108C8000C00F10BD70B50C461646002105462022C7
:108C9000C943FFF7A5FF042205212846FFF7A0FFDF
:108CA0003B48052241682846FFF79AFF05222146E6
:108CB0002846FFF795FF022211462846FFF790FF4E
:108CC000102231462846FFF78BFF2846FFF740FF6A
:108CD00070BD01221203904203D0212109020840F5
:108CE0000246002143200006CCE7F8B54326294F71
:108CF0003606002400212022C9433046FFF770FFCA
:108D0000042206213046FFF76BFF0522214630463C
:108D1000FFF766FF052201213046FFF761FF30466D
:108D2000FFF747FF3046FFF727FF05463046FFF7BE
:108D30000FFF002D03D0BD4201D02046F8BD641CBA
:108D4000082CD7DD14A006F0F5F9D2E77CB505466E
:108D500014460E466846FEF723FC3046204300903A
:108D60000120694608712846FEF7B9FB0122214619
:108D70001046FEF78FFC012231461046FEF78AFCB2
:108D8000034D6E802C80FFF7B0FF68607CBD000053
:108D900040000020FFFF00000D0A70687920696420
:108DA00020646574656374206572726F7221210D91
:108DB0000A00000010B5FE4CFE482178FEF730FE98
:108DC000FC486178401EFEF72BFEFA48A178801E11
:108DD000FEF726FEF748E178C01EFEF721FEF548B3
:108DE00008342178001FFEF71BFEF2486178401F0F
:108DF000FEF716FEEF48A178801FFEF711FEED4842
:108E0000E178C01FFEF70CFEEA48241F21780838DD
:108E1000FEF706FEE74861780938FEF701FEE548EF
:108E2000A1780A38FEF7FCFDE248E1780B38FEF73E
:108E3000F7FD10BD10B5E04C80212046FEF7F0FD97
:108E40002046FEF7EBFDFFF7B5FFD94CD948353486
:108E500021781038FEF7E4FDD64861781138FEF726
:108E6000DFFDD448A1781238FEF7DAFDD148E17869
:108E70001338FEF7D5FDCF4821790C38FEF7D0FD29
:108E8000CC4861790D38FEF7CBFD10BD10B5CA4C4A
:108E900080212046FEF7C4FD2046FEF7BFFDC44CEE
:108EA000C448353421781038FEF7BAFDC1486178DE
:108EB0001138FEF7B5FDBF48A1781238FEF7B0FDB6
:108EC000BC48E1781338FEF7ABFDBA4821790C387D
:108ED000FEF7A6FDB74861790D38FEF7A1FD10BD7C
:108EE000B34B10B5DB1FB54C5C62B54C9C62B54C06
:108EF000DC62002800D05862002900D09962002A64
:108F000000D0DA6210BD30B5A94B0120DB1F996B90
:108F100008704870062088700020C8705A6B120EC6
:108F20000A715A6B120C4A719A8E120A8A719A8EC1
:108F3000CA71996B802208818A72C872996B1A462D
:108F4000087348738873C873087448748874C87445
:108F5000087548758875C875087648768876C87625
:108F60003C3214780C7754784C7794788C77D4789A
:108F7000CC770C4615792034257052796270062220
:108F80008C18521CD2B22077102AF9D39A6B002188
:108F900054182034491CC9B220734029F8D39A6B65
:108FA000002154186034491CC9B220738029F8D3B9
:108FB000986B6321E03001738222427353228273E3
:108FC000C17330BDFEB5FFF79EFF79483522C01F43
:108FD000836BF021CA540122F121CA54F221CA54F0
:108FE0003D22F321CA540722F421CA540122F5215B
:108FF000CA5401463C310A78F621CA5401463C3134
:109000004A78F721CA5402463C329478F822D45464
:1090100002463C32D478F922D45402463C321479C8
:10902000FA22D45402463C325479FB22D4540C2107
:10903000FC22D1540027FD21CF5412220446394688
:10904000423406E09E18E036521C491C357392B239
:1090500089B2655C002DF5D1846B554BA61835336C
:10906000DD78E0363573521C92B2A6181D79E036D1
:109070003573521C92B2A5185B79E0352B73521CE4
:1090800092B2CB1C511A0919E0310B72816B372354
:109090008C18E0342373521C92B28C18521C92B27A
:1090A0008D180623E03423730124E0352C73521C01
:1090B00092B28D180324E035521C2C7392B28C1896
:1090C000E0342373521C92B28C180F23E0342373C4
:1090D000521C92B28B183A24E0331C73521C92B289
:1090E0008B18E0333B24521C1C7392B2FF238C1864
:1090F000E0342373521CFF2492B2393404E08D18FB
:10910000E035521C2F7392B2A242F8D369460B711C
:109110004B718B71CB71432100918922816B01AB23
:1091200092008078FEF763FFFEBDFEB5FFF7EBFE11
:109130001F4C0020E41FE11D20560B462933FF275A
:1091400003284AD0042848D06846077147718771C0
:10915000C771A26B3520F025A8540120F125A85431
:109160000320F225A8543D20F325A8540720F42518
:10917000A8540120F525A8540D48F625353000786F
:10918000A8540B48F72535304078A8540848F825EE
:1091900035308078A8540648F9253530C078A85471
:1091A0000348FA2535300079A854014835300BE0E2
:1091B0004F0000201360004600230046B58D0000DC
:1091C000358E00008D8E00004079FB25A8546D4639
:1091D000ED791020FF2D16D039E0A06B00228272AD
:1091E000C2720A7802734A7842738A788273CA78A4
:1091F000C2731A78684602715A7842719A788271FD
:10920000DA78C271A5E73225FC2085540425FD20BB
:1092100085540E78FE2086544E78FF208654887838
:10922000AE01B054C978701C81543621401C815461
:10923000401C85541978401C81545978401C815435
:109240009978401C8154D978401C81541C201318F3
:109250000C21E0331973401C13180021E0331973FB
:10926000F94D401C05E01618E036401C337380B2FF
:10927000491C6B5C002BF6D1A36BF34A1E18921F9E
:10928000D578E0363573401C80B21E181579E0366B
:109290003573401C80B21D185279E0352A73401C8A
:1092A00082B2C81C511AC918E0310872A06B37216C
:1092B0008318E0331973521C91B243180822E0332B
:1092C0001A73491C89B243180122E0331A73491CEE
:1092D00089B243180322E0331A73491C89B2431838
:1092E0000622E0331A73491C89B243180F22E03377
:1092F0001A73491C89B242183A23E0321373491C8D
:1093000089B242183B23E032491C137389B24218D8
:109310001F23E0321373491C89B242182123E03223
:109320001373491C89B24218E0321773491C00229A
:10933000FF2389B2393303E04518E0352A73491C0D
:109340009942F9DB43200090892201AB9200A0787A
:10935000A16BFEF74CFEFEBD1CB5FFF7D4FDBA486D
:1093600000214238806B35228172C172F0210A548B
:109370000122F1210A540422F2210A543D23F3214F
:109380000B540722F4210A540122F5210A54AE4954
:10939000F622891F0B7813544B78F72213548B78DD
:1093A000F8221354CB78F92213540B79FA22135470
:1093B0004A79FB210A543222FC210A540422FD215D
:1093C0000A54A1493B390A78FE210A549E493B3987
:1093D0004A78FF210A549C493B398A78FF210131A0
:1093E0000A5499493B39CA78FF2102310A5436227E
:1093F000491C0A540422491C0A549349FF22123979
:109400000B78053213544B78521C13548B78521C32
:109410001354CA78FF2108310A54FF22491C0A5408
:109420001D210023FF2239324418E034491C2373E4
:109430009142F9DBFF206946087148718871C87153
:1094400043200090804889224238816B01AB920012
:109450008078FEF7CCFD1CBD7FB57B4C7B4A423C3F
:10946000A07881048918496A0A04120C27D001A93E
:10947000009102ABA16BFEF768FE82B2684680885D
:1094800043283CD1A06B21463C31037F0D78AB4291
:1094900015D1457F4B789D4211D1837F8D78AB42AA
:1094A0000DD1C37FCD78AB4209D1034620331D785F
:1094B0000E79B54203D15B7849798B4202D0002006
:1094C00004B070BDF03000258118F03915E0027845
:1094D000332A3ED008DC002A15D0012A18D0032AEE
:1094E0001AD0062A06D125E0352A0ED0362A3FD0DA
:1094F000FF2A06D04278801C80188842E7D368B2E1
:10950000DEE70846F9E7401CF7E78578C01CF4E77A
:109510004D4A8378333A2EE04B4A43788678373A7F
:109520001670C6785670067996704679801DD6708A
:10953000C0180CE0444B427886782F3B1E70C678EA
:109540005E7006799E704679801DDE708018001F5F
:10955000D3E78278A261C37812029A18A2610379D4
:1095600012029A18A261437912029A18A26109E0C4
:10957000354A8378123A1370C37853700379937025
:109580004379D370801DB8E72F4800214238C1616C
:10959000052202624170704770B52B4C0125423C98
:1095A0006157002622469057022917DAE269216A9C
:1095B000914223D2012804D0022805D0042805D1E5
:1095C00002E0FFF7FFFC01E0FFF7AFFDE661E069B5
:1095D000401D20626078401C60700FE0012804D0BC
:1095E000022805D0042807D102E02670002503E0F8
:1095F000FFF7E8FC01202070FFF7C6FF284670BD8A
:10960000F8B5134E3046FEF709FA054603213046F9
:10961000FEF706FA0C4B0F483B3BDC1F0090112273
:109620000DA1A078FEF7E3FC074629463046FEF779
:10963000F7F90D371AD0FFF78FFEE069E169091AD3
:109640000229FBD30020F8BD8A0000200002014659
:109650004460004688130000434845434B5F49502F
:109660005F434F4E464C4943540000000120EAE757
:10967000F8B5B74C207806281ED0A078B5498004EC
:109680004018FEF7CBF9222805D0002344220221FE
:10969000A078FEF74DFA0125FFF7DEFEC1B20022E9
:1096A000A256AB4800260127C01D130007F0F2F9AF
:1096B00005060D1C314C2F000520C4E706704670CE
:1096C0008670C670FFF77EFC5EE002291CD1A16B9C
:1096D0000A7C02704A7C42708A7C8270C97CC170AC
:1096E000FFF723FD02204BE005290BD1FFF788FF90
:1096F000002801D0606A3FE0FFF746FFE06A80473C
:10970000267004E006293DD0FFF746FF05462846AF
:1097100099E7A16904254A1CF9D0E26949089142F8
:10972000F5D28B490278C91C0A7042784A70827857
:109730008A70C078C870606B401C6063FFF7F5FCEE
:10974000FFF722FF04201BE004250529DAD1804918
:109750006670C91C0A7803789A420BD14A7843781C
:109760009A4207D18A7883789A4203D1C978C0781F
:10977000814202D0A06A03258047FFF705FF03203E
:109780002070C4E7FFF700FF2770C0E710B5704CEA
:10979000A078FEF79DF90620207010BDF3B56E4F3E
:1097A00083B00646002538460095FEF737F9684C29
:1097B0003C342070781EFEF731F96070B81EFEF759
:1097C0002DF9A070F81EFEF729F9E070381DFEF79C
:1097D00025F92071F81CFEF721F960710146207807
:1097E0006278E3781043A2781A4310432279104339
:1097F00008431FD1257008206070DC20A070E57040
:109800002571294665713846FEF70AF96178781E98
:10981000FEF706F9A178B81EFEF702F9E178F81E06
:10982000FEF7FEF82179381DFEF7FAF86179F81C89
:10983000FEF7F6F8464F4949BE700498B863E078E1
:109840006379421821798A1848409A18584080183C
:1098500078636846017840480C461030FEF7E0F81F
:1098600068464078029001463B480F30FEF7D8F832
:10987000684680780190014637480E30FEF7D0F8F0
:109880006846C678344831460D30FEF7C9F832488C
:1098900021461030FEF7C4F82F4802990F30FEF72A
:1098A000BFF82D4801990E30FEF7BAF82A48314624
:1098B0000D30FEF7B5F8284821460830FEF7B0F81D
:1098C00025480299C01DFEF7ABF823480199801D79
:1098D000FEF7A6F820483146401DFEF7A1F8FFF735
:1098E00053FE3D7005B0F0BD1948C169491CC16106
:1098F00070471749C91D0A7802704A7842708A7801
:109900008270C978C170704711490B310A780270B2
:109910004A7842708A788270C978C17070470C4961
:109920000F310A7802704A7842708A788270C9785A
:10993000C1707047064913310A7802704A78427044
:109940008A788270C978C170704701488069704711
:10995000480000203000014603600046785634126B
:10996000017840780902401880B270470A0A0270F4
:109970004170801C7047F0B58446002005460646BD
:109980000C78491C002D00D1401C2706BF0F032F67
:109990000AD1002D00D1401CA4060978A40C64440F
:1099A000091901250C78491C002C19D01B1B5B1EC2
:1099B0001BB2002B02DA0020C043F0BD002D05D100
:1099C000001903E00F781770491C521C2746641ECB
:1099D000A4B2002FF6D12E241470521C761CCFE7AF
:1099E000002E02D12E211170521C00211170F0BDE9
:1099F00010B593B00C464B236A46FFF7BCFF411CE1
:109A000003D02018001D13B010BD0020FBE770B577
:109A100093B015460C4606464B236A46FFF7ABFF4C
:109A2000411C46D024182046FFF79AFF0A34030051
:109A300007F030F8103C09133C3C13291313133C76
:109A40003C13183C1F3C2078287060786870A07820
:109A5000A870E078E870241D28E04B236A460BE0EC
:109A6000241823E02078641C20180178401C441836
:109A70001CE04B236A46A41C21463046FFF77BFFBF
:109A8000411C16D0ECE74B236A4621463046FFF7CF
:109A900072FF411C0DD024184B236A4621463046E4
:109AA000FFF769FF411C04D024181434204613B07A
:109AB00070BD0020FBE7F7B50D460446122105F006
:109AC00098FF2846FFF74CFF2080A81CFFF748FFAF
:109AD00002040121002A00DAA1704204120FE27090
:109AE000420500D52171820500D56171C20500D5FE
:109AF000A171020600D5E1710007000F2072281D38
:109B0000FFF72EFF6081A81DFFF72AFFA0812846DE
:109B10000830FFF725FFE08128460A30FFF720FFD5
:109B200029460C3100262082771E06E02846FFF7E2
:109B30005FFF010014D0761CB6B26089B042F5D840
:109B4000002607E02846029AFFF761FF010007D0D0
:109B5000761CB6B2A089B042F4D80020E18903E0B7
:109B60003846FEBD401C80B28142FBD80020218ACD
:109B700001E0401C80B28142FBD8207A002801D04D
:109B80000020FEBD0120FEBDFFB55E4A0D46518896
:109B900095B00346491C89B217985180FFF7E6FE3D
:109BA000D902FF31013189B2FFF7E0FE0121FFF751
:109BB000DDFE0021FFF7DAFE0021FFF7D7FE0021CE
:109BC000FFF7D4FE04462946684605F011FE6E46AE
:109BD000304605F033FE80B213902E21304605F05A
:109BE000BBFD070002D0B81B85B200E0139D2570B5
:109BF000641C002D12D02A463146204605F0FEFE98
:109C00006419002F07D013987619401B401E80B2AC
:109C1000761C1390E1E700202070641C012120468F
:109C2000FFF7A4FE0121FFF7A1FE179919B0401A12
:109C300000B2F0BD3348816803290BD30022826053
:109C40000178022902D30270501E7047491C01702E
:109C500000207047012070472A4A50702A485160FE
:109C600050807047F7B5274C0D46002388B01A4640
:109C700002216078FDF75CFFFF2601363346294656
:109C800000206268FFF780FF3525009582B2089BAF
:109C900060786168FEF7ABF91C4F60788004C019EA
:109CA000406A05042D0C16D0B54200D9354607A8E8
:109CB000009006AB2A4660786168FEF746FA0A9A79
:109CC00001A86168FFF7F7FE05466078FDF700FF21
:109CD00028460BB0F0BDFFF7ADFF002801DA0020E9
:109CE000F7E70028D9D1352000902A46089B6078F4
:109CF0006168FEF77CF9D0E702488168491C816001
:109D0000704700009400002022110000000201466C
:109D1000F0B587B002F0E0F904466D46A81DFFF7E4
:109D2000E8FD03A802300690FFF7EEFD02A802301E
:109D30000746FFF7F4FD04A802300646FFF7FAFDD8
:109D4000214606221731684602F0AEFA2046042268
:109D5000A91D1D3002F0ACFA2046042221300699DC
:109D600002F0A6FA204604223946253002F0A0FA75
:109D7000204604223146653002F09AFA6034E078D9
:109D8000002801D0022000E00120694688750020EB
:109D9000FEF7B4FE07B0F0BD704700007047704793
:109DA0007047704710B500F0BFFC10BD704770479A
:109DB00010B5104804F024F810BD10B50E4804F09A
:109DC0001FF810BD70477047704770477047704765
:109DD0007047704710B503F0A6FF10BD704770477D
:109DE00070477047704770477047704770477047BB
:109DF0007047704700C0004000D0004010B5C0B2AE
:109E0000FDF7E7FD10BD10B5FDF7F5FDFDF7E1FD30
:109E100010BD0020C043704710B5C0B2FDF7D9FD9A
:109E200010BDFEE73EB502F057F96421095C002938
:109E300006D0B3490978012906D0B2A005F07AF915
:109E4000B4A005F077F93EBD014621314A7C097C7A
:109E500012020A43014620318B7B4C7B0094019314
:109E600002920B7BCA7A4931ABA005F063F9E7E7B0
:109E7000FEB502F031F904460025B0490420FFF791
:109E8000EBFE20466030427969460A7082794A705A
:109E9000C27906468A70007AC870032000F0C2FEBC
:109EA00020462B306934019021466846019AFFF71D
:109EB000D9FE074601280BD06D1CEDB2022D07D844
:109EC00003F0F2FBF0780028EED0FFF7D1FBEBE7D0
:109ED000012000F0A7FE3846FEBD10B502F0FCF8E8
:109EE0006030C078002806D095480078012803D05B
:109EF00094A005F01FF910BDFFF727FD014696A0BD
:109F000005F018F910BD70B500248C490320FFF747
:109F100045FC9C499A4A0846FEF7E2FF032000F000
:109F200081FEFFF7A5FB0546042807D0002D01D1CF
:109F3000641CE4B2032C06D9FFF728FC012000F0D2
:109F400071FE68B270BD03F0AFFBEAE7F0B58FB009
:109F500002F0C2F8044638228B496846FDF72CF916
:109F6000611D8AA005F0E6F826462036707A8D49F4
:109F7000800009588CA005F0DDF891A005F0DAF812
:109F8000204660300E90C078012823D092A194A082
:109F900005F0D0F89BA005F0CDF827462337787B55
:109FA0003A7B010211439CA005F0C4F8A149A2A08C
:109FB00005F0C0F89F49A9A0491C05F0BBF8B0A066
:109FC00005F0B8F825464035287E002804D0224602
:109FD000583202E0B0A1DAE7B4A2002801D0B5A15E
:109FE00000E0B6A1B8A005F0A5F8BBA005F0A2F866
:109FF0000E988078012811D0B0A1C0A2C7A005F0AA
:10A0000099F8C9A005F096F8D0A005F093F8787CEF
:10A010003A7C0102114303D0D2A003E0A5A1ECE7F2
:10A02000A6A15EA005F086F8D2A005F083F8204630
:10A030002130417D007D0902014301D0D3A001E020
:10A040009EA156A005F076F8D4A005F073F8002381
:10A05000D8A2D8A1D9A005F06DF86879DE498000B2
:10A060000958DEA005F066F8A8796946800009580D
:10A07000E0A005F05FF8E879E149095CE1A005F0AE
:10A0800059F8287AE04980000958E0A005F052F814
:10A09000687ADF49095CDFA005F04CF86979DF4890
:10A0A00000291CD00168DEA005F044F80223C1A2FB
:10A0B000C0A1E0A005F03EF8E5A3E7A2E8A1ECA06E
:10A0C00005F038F8EFA005F035F8F7A005F032F804
:10A0D000787D3A7D0102114305D0ACA005E0A97A54
:10A0E00089004158DFE775A12CA005F023F8F1A005
:10A0F00005F020F8717E002901D0F1A0EAE1E7E146
:10A10000CA000020202320444E53204661696C651C
:10A11000640D0A000D0A0000202320444E533A200B
:10A120002573203D3E2025642E25642E25642E2592
:10A1300064203A2025640D0A000000001C03002062
:10A140001401002020232044484350204661696CBC
:10A1500065640D0A0000000020232044484350207D
:10A160004950204C65617365642074696D65203ABF
:10A17000202575207365636F6E64730D0A000000FF
:10A18000999D0000119D00005C0C0100202D2044D1
:10A190006576696365206E616D653A2025730D0AE9
:10A1A0000000000004010020202D20446576696332
:10A1B00065206D6F64653A2025730D0A000000006C
:10A1C000202D204E6574776F726B207365747469EF
:10A1D0006E67733A200D0A0053746174696300005E
:10A1E000092D204F627461696E696E6720495020A5
:10A1F00073657474696E67733A205B25735D0D0A2D
:10A2000000000000092D205443502F554450207069
:10A210006F7274730D0A0000092020202B20533226
:10A2200045206461746120706F72743A205B25640C
:10A230005D0D0A0051C30000092020202B2054434B
:10A24000502F5544502073657474696E6720706F89
:10A2500072743A205B25645D0D0A000009202020FD
:10A260002B204669726D7761726520757064617428
:10A270006520706F72743A205B25645D0D0A0000E2
:10A28000202D2053656172636820494420636F6408
:10A29000653A200D0A0000004175746F6D617469A4
:10A2A00063202D2044484350000000004E6F6E652F
:10A2B00000000000456E61626C6564004469736172
:10A2C000626C656400000000092D2025733A205B54
:10A2D00025735D0D0A000000202D2045746865720D
:10A2E0006E657420636F6E6E656374696F6E207047
:10A2F000617373776F72643A200D0A0028544350DB
:10A3000020736572766572202F206D6978656420F0
:10A310006D6F6465206F6E6C79290000092D202512
:10A32000732025730D0A0000202D20436F6E6E658B
:10A330006374696F6E2074696D65722073657474DF
:10A34000696E67733A200D0A00000000092D20494C
:10A350006E61637469766974792074696D65723AA7
:10A36000200000005B25645D2028736563290D0AC9
:10A3700000000000092D205265636F6E6E656374E6
:10A3800020696E74657276616C3A20005B25645DAD
:10A3900020286D736563290D0A000000202D2053CD
:10A3A000657269616C2073657474696E67733A20B5
:10A3B0000D0A00005541525400000000092D2044B0
:10A3C00061746120257320706F72743A20205B25C0
:10A3D0007325645D0D0A0000BC02002009202020C6
:10A3E0002B20554152542049463A205B25735D0D80
:10A3F0000A000000092020202B2025642D000000E9
:10A400009C02002025642D00A002002025732D0051
:10A41000AC0200202564202F20000000B0020020A4
:10A42000466C6F7720636F6E74726F6C3A20257381
:10A430000D0A0000092D20446562756720257320F0
:10A44000706F72743A205B257325645D0D0A0000FD
:10A4500028666978656429004E4F4E45000000006B
:10A460003131353230302D382D4E2D310000000085
:10A47000092020202B202573202F202573202573D1
:10A480000D0A0000202D2053657269616C20646103
:10A490007461207061636B696E67206F7074696F9F
:10A4A0006E733A0D0A000000092D2054696D653A5B
:10A4B00020000000092D2053697A653A2000000031
:10A4C0005B25645D20286279746573290D0A00009C
:10A4D000AB49AC4804F02EFEABA004F02BFEB07FDD
:10A4E00001281CD0A649A74804F024FEA9A004F026
:10A4F00021FE8034E07E012814D0A149AFA004F0F1
:10A5000019FEE37FA27F617FAEA004F013FEB6A028
:10A5100004F010FEE87A002807D0BDA206E0B17E64
:10A52000BCA0E1E796490839E8E7BFA2C1A1C3A0F2
:10A5300004F000FE287B002801D0C7A200E0C7A2DB
:10A54000CAA1CCA004F0F6FDD1A004F0F3FDDB4CD1
:10A55000207804F0B1FCDA4D80002F58207804F008
:10A560009CFCD84E800032583B46D7A1D8A004F0BE
:10A57000E1FD607804F0A0FC80002F58607804F0C2
:10A580008CFC800032583B46D9A1DBA004F0D2FD00
:10A59000A07804F091FC80002F58A07804F07DFC96
:10A5A000800032583B46DCA1DDA004F0C3FDE0781A
:10A5B00004F082FC80002D58E07804F06EFC8000EE
:10A5C00032582B46DEA1E0A004F0B4FDE6A1A0A025
:10A5D00004F0B0FD0FB0F0BD38B501F07DFD0446CC
:10A5E00080A004F0A7FDE0A199A004F0A3FDEBA1D9
:10A5F000EDA004F09FFDEEA004F09CFDF6A00090FD
:10A60000A37D627D217DF6A004F094FDD6A190A0EB
:10A6100004F090FD38BD1FB501F05EFD044600F06A
:10A620008BF8F8A103C901910090F6A103C9039129
:10A630000290FCF7F9FDF54905F073FAF44908605A
:10A6400008202870F34868802846FEF746F902A9DA
:10A650006846FEF7C2F800F059FA01F0F5FD01F086
:10A6600002FF03F0E3FC04F07AFB25464035687BEB
:10A67000002803D0FFF7B0FFFFF768FC26466036DE
:10A68000F0780127002803D0FFF73DFC042840D0D4
:10A6900001F009FF687B002803D001F066FEFFF798
:10A6A0001CFC2034607A012808D03079002805D0BD
:10A6B000FFF7DEFB002801D0D7480770687B002831
:10A6C00001D0FFF7AFFBD54800240770D44F38788E
:10A6D000002803D0002001F0E6FA3C70D14F02F0D0
:10A6E000E3FF002001F01EFBF078002801D0FEF708
:10A6F000BFFFCD480178002900D0047038780028C9
:10A70000EDD0687B002802D0C8A004F013FD3C7097
:10A71000E5E7CE480770BDE701B5CD480099016077
:10A7200001680029FCD108BDC9480168002902D090
:10A730000168491E0160704710B500F014FAC54A5F
:10A7400001209110FCF7D4FD03F0CAFA03F0A7FC36
:10A75000FCF76AFD7D21C90005F0E3F9BE49401E02
:10A7600088420CD8BD494861BD480722C3691B0215
:10A770001B0A4C042343C361002088610A6110BD99
:10A78000BCA200009CA10000092D20436861723A20
:10A7900020000000202D2053657269616C20636FDA
:10A7A0006D6D616E64206D6F64652073777469638D
:10A7B0006820636F64653A0D0A000000092D2025AA
:10A7C000730D0A00092D205B252E32585D5B252E66
:10A7D00032585D5B252E32585D2028486578206F01
:10A7E0006E6C79290D0A0000202D20486172647773
:10A7F00061726520696E666F726D6174696F6E3A21
:10A80000205374617475732070696E730D0A0000B3
:10A81000445452005B252E32585D2028686578200C
:10A820006F6E6C79290D0A00504859206C696E6B67
:10A830000000000050415F3130000000092D20531E
:10A84000746174757320313A205B25735D202D206F
:10A8500025730D0A00000000445352005443502059
:10A86000636F6E6E656374696F6E000050415F3098
:10A8700031000000092D2053746174757320323A41
:10A88000205B25735D202D2025730D0A000000003C
:10A89000202D20486172647761726520696E666F51
:10A8A000726D6174696F6E3A205573657220492F1D
:10A8B0004F2070696E730D0A00000000F402002042
:10A8C00000030020F802002050435F3133000000F5
:10A8D000092D2055736572494F20413A205B25733D
:10A8E0005D202D202573202F2025730D0A000000E8
:10A8F00050435F3132000000092D205573657249C5
:10A900004F20423A205B25735D202D202573202F98
:10A910002025730D0A00000050435F30390000000D
:10A92000092D2055736572494F20433A205B2573EA
:10A930005D202D202573202F2025730D0A00000097
:10A9400050435F3038000000092D2055736572496F
:10A950004F20443A205B25735D202D202573202F46
:10A960002025730D0A0000003D3D3D3D3D3D3D3D30
:10A970003D3D3D3D3D3D3D3D3D3D3D3D3D3D3D3D07
:10A980003D3D3D3D3D3D3D3D3D3D3D3D3D3D3D3DF7
:10A990003D3D3D3D3D3D3D3D3D3D000057495A3724
:10A9A0003530535200000000202573200D0A0000AE
:10A9B000203E3E2057495A6E657420536572696186
:10A9C0006C20746F2045746865726E6574204465F0
:10A9D000766963650D0A0000537461626C6500005E
:10A9E000203E3E204669726D776172652076657201
:10A9F00073696F6E3A2025642E25642E2564202508
:10AA0000730D0A0004020202020202001027000075
:10AA100000200046C4090000CA000020BB0000203E
:10AA2000A80000208C020020BA000020203E205503
:10AA30004152542052782052696E672062756666D2
:10AA400065722046756C6C0D0A0000001401002030
:10AA5000A4000020006CDC02FFFFFF0000E000E02B
:10AA600004ED00E0FEB50446022818D2684E6500E9
:10AA7000705B00900120694608716648A700C059C4
:10AA8000FCF72DFD6348715B401F025D801E005D79
:10AA9000FCF700FE5F48715BC059FCF79CFDFEBDF2
:10AAA00070B5012311249D03A406002229462046E7
:10AAB000FCF718FE656170BD10B50123212000224E
:10AAC00059024006FCF70EFE10BD70B5002421258A
:10AAD0006D0602212846FCF76AFD002801D00120FE
:10AAE00070BD0520FFF718FE641CE4B2052CF0D3FE
:10AAF000002070BD10B5212464060123002202212C
:10AB00002046FCF7EFFD0220606110BD10B501206A
:10AB100003F062F940486121016341610122D203DF
:10AB2000432051100006FEF711F9FF200130FEF717
:10AB3000D0F8002003F050F9FFF7DCFFFFF7C5FF66
:10AB400000280ED00020334908390870FFF7B4FF01
:10AB5000FFF7A6FF0020FFF785FF0120FFF782FF28
:10AB600010BD0120EFE72D49022008632C498860C1
:10AB7000704710B50121212049024006FCF717FD5E
:10AB800010BD10B511200123002240218006FCF7E2
:10AB9000A9FD10BD10B5112040218006FCF707FD6E
:10ABA00010BD10B50121112089038006FCF7FFFCC0
:10ABB00010BD10B5022807D2154A4100515A154A56
:10ABC00080001058FCF715FD10BD10B5022807D203
:10ABD0000F4A4100515A0F4A80001058FCF7FBFC05
:10ABE00010BD022808D20B49820089584A68084BD8
:10ABF0004000185A42404A60704710B5044A41006C
:10AC0000515A044A80001058FCF7DBFC10BD0000CC
:10AC1000940C0100B0000020403000414011004180
:10AC20000020004170B5054601F056FA044629346B
:10AC300001F052FA2B0005F02DFF06100406090C56
:10AC40000E10012003E0022060700EE0032060700F
:10AC500006E00420FBE70520F9E76078022804D02D
:10AC60000021022004F0BFF970BD0121F9E700299D
:10AC70000FD00023F74A00280CD0012813D0022857
:10AC80001AD0032805D1106B401C1ED0D06B401881
:10AC9000D0637047106B401C03D0106B40181063DA
:10ACA000704713637047106B401C03D0506B401803
:10ACB0005063704753637047106B401C03D0906B18
:10ACC00040189063704793637047D3637047FEB535
:10ACD0000C46074601F000FA002506464E36009560
:10ACE000019502950B2C00D30A242246394668466A
:10ACF00004F022FE304604F0A1FDA04207D1224616
:10AD00006946304604F046FD002800D1012528465A
:10AD1000FEBDF1B584B001F0DFF92930039001F0F8
:10AD2000DBF90746453701F0D7F94E3002907879C4
:10AD3000022804D1002003F015FB002871D10498EB
:10AD40008104C5480818406A002586B20120C00267
:10AD5000C04C864201D9064601E0002E3CD0BF48D7
:10AD60000818FCF75BFE172829D01C2827D02228BA
:10AD70002BD1B84832462830034600901833B849E2
:10AD80000498FDF7E2F9B349E08440310422081D3C
:10AD900004F000FD002818D0AE49086C4864387AE9
:10ADA000012812D108464030228DC17801920091CD
:10ADB000837842780178ABA004F0BCF905E0324614
:10ADC000A7490498FDF7ACF8E084E5822583257354
:10ADD000E18C0220FFF74BFF03984078012804D054
:10ADE000022809D16078002806D10298007D012848
:10ADF00002D1A07A002806D0E08C002811D0F87982
:10AE0000012813D016E031469548FFF760FF01286E
:10AE100009D0A572E584A07A002802D10498FCF735
:10AE2000ADFF05B0F0BD0120A072F3E704F036F9E4
:10AE30000028F6D038788A4E012804D07879012885
:10AE400014D000272CE0002003F05CFA002705E076
:10AE5000F15D002003F08FF97F1CBFB2E08C8742C8
:10AE6000F6D3002003F066FAE18C0EE0607B012847
:10AE7000D7D1002705E0F15D002003F07CF97F1CAD
:10AE8000BFB2E08C8742F6D30DE00320FFF7EFFE60
:10AE9000E584C6E7F15D002003F06DF97F1CBFB2C9
:10AEA000E08C8742F6D381B2EFE7F8B501F014F9F0
:10AEB0000546764829350188754800880A1875487E
:10AEC0000088101A04F037FE624C8EB2A08C012765
:10AED0003018FF02B84213D3687C00280DD0012E31
:10AEE0000BD1002003F079F9C1B26B48A28C8154D8
:10AEF000687C884201D11046F8BDA08C381A86B211
:10AF0000E87BA97B0002084305D1287C002802D1F8
:10AF1000687C002801D000272AE000255E4F08E069
:10AF2000002003F05AF9A18C7854491C6D1CA184AF
:10AF3000ADB2B542F4D3A08CF8BD002003F04DF9BA
:10AF400002465549A08C0A54401C80B2A0846A7CF9
:10AF5000002A04D009182039C97F8A4204D0297CEC
:10AF6000002903D0814201D180B2F8BD7F1CBFB25D
:10AF7000B742E2D3E87BA97B0002084315D0A58C39
:10AF8000002D12D0207A00280FD040480188404878
:10AF900000880A183F480088101A04F0CCFD0029E8
:10AFA00001D1002020722846F8BD0020F8BDFEB572
:10AFB000064601F091F80546293501F08DF8453037
:10AFC0000090FFF7D6FD002868D1FFF76EFF01461D
:10AFD00001900020FFF74BFE019800271D4C002830
:10AFE00069D01E48B1040818FCF718FD14287DD05C
:10AFF000172861D01C285FD0222879D1A878002892
:10B0000008D1E878002805D12879002802D168798C
:10B01000002806D0687A297A00020843AB1C009009
:10B0200011E00C4840300178002908D1417800290E
:10B0300005D18178002902D1C07800282FD0054B96
:10B04000208D4033009014493046019AFCF7CFFF21
:10B0500006B22BE0BC000020000201463000014691
:10B060001C0B0020203E2055445020506565722066
:10B0700049502F506F72743A2025642E25642E2576
:10B08000642E2564203A2025640D0A0096020020D3
:10B0900092020020940200201C03002029E0009866
:10B0A000007A012802D1FE4804F044F8002E1FDD8A
:10B0B000A08C801BA0841BE0A07A012818D1F9493C
:10B0C0003046019AFCF79CFE00B2002802DDA18CFC
:10B0D000081AA08401200199FFF7C9FDE87D012825
:10B0E00006D1207B002805D0277300E005E02783E8
:10B0F000E782FEBD01202071F7E7A784FEBDF8B509
:10B10000074600F0E9FF00F0E7FF0446293400F0AD
:10B11000E3FF0646E448BD0445362818FCF77EFCEC
:10B12000E24AE34B00281BD0222818D1E1480188CD
:10B1300010881A880818801A04F0FDFCDE4CA08CD8
:10B14000014302D03846FFF732FFDC482818406A36
:10B15000E18C80B2084302D03846FFF7DAFDF8BD33
:10B16000002010801880D44D0023A884E884E07962
:10B17000A17902020A4302213846FCF7D9FCB84201
:10B18000EDD10520FFF74EFDE07BA17B00020843D7
:10B1900000D0A883307A0128E1D1C9A003F0CAFF0A
:10B1A000F8BD10B5C44CA08A002809D0CB4988420C
:10B1B00004D2401C0840A08202D00DE00020A082F2
:10B1C00002F011FE04F0A2FAFBF7DAFFC44904F022
:10B1D000B2FCC4480818A08280B210BDB648002155
:10B1E000C170C171017141720172C1728172C182FB
:10B1F000018401834184704770B5054600F06CFFFF
:10B200000446A949A80429344018FCF707FC002883
:10B2100007D02178032909D0172804D01C2802D090
:10B2200004E0284670BD2846FCF7A8FD2846FCF738
:10B230004FFCF6E710B500220621FDF7BCF810BD63
:10B24000F0B585B000F048FF0446293400F044FF13
:10B250000546453500F040FF014600204E310646C8
:10B2600000900391A048FCF7D9FB69460870029052
:10B270009D48401EFCF7D2FB6946487001909A48F1
:10B28000801EFCF7CBFB6946887007469648C01EB7
:10B29000FCF7C4FB6946C8700399897D012908D170
:10B2A0008549897B012904D0287A012851D18FA0B2
:10B2B00011E00299002906D10199002903D1002F3C
:10B2C00001D1002803D0A178002907D00FE0287A07
:10B2D00001283ED18FA003F02DFF3AE0E278002A4A
:10B2E00005D12279002A02D16279002A10D0029A6F
:10B2F0008A4214D1E378019A9A4210D12279974276
:10B300000DD1627990420AD1287A012805D020E037
:10B31000287A01281DD18E48DDE78EA0DBE7029850
:10B32000C02817D10198A82814D10398407D00287F
:10B3300010D1C0290ED1E278A82A0BD123799F42DF
:10B3400008D0287A012804D1607900908E4803F053
:10B35000F1FE0126304664E5F1B586B000F0BCFE92
:10B3600000F0BAFE0546293500F0B6FE45300090E3
:10B3700000F0B2FE064600246846029484810698D6
:10B380004E368104484804910818FCF747FB4B4AA5
:10B390000499012789180591172858D020DC002826
:10B3A0007AD013282BD0142818D1434C6078002869
:10B3B00014D1404801883D4800880A183C4800885C
:10B3C000101A04F0B8FB002908D00698FFF714FF04
:10B3D0006770687B297B00020843E08307B0F0BDFB
:10B3E0001828DDD01C28F9D1334C0598406AE18C2F
:10B3F00080B20843069850D0FFF78BFCF5E72E4E3D
:10B4000070780128EAD1687B297B00020843F18B20
:10B410008842E3D8F483FFF713FF01280DD0687A40
:10B42000297A02020A43A91C0698FCF723FC707CC7
:10B43000401CC0B270740A28D0D30698FFF7DCFE17
:10B440001A48747404801A4804807470C6E7164958
:10B45000049810394018FCF7E1FAC0071ED002200A
:10B46000FFF7E0FB1448C18A002905D1E97AAA7ADE
:10B470000902114300D0C7700F48008B002804D187
:10B48000E87D002801D00C480771307D002806D0E7
:10B4900009484178012979E027E123E1B4E07AE025
:10B4A000900D01001C030020300001469202002094
:10B4B0009402002096020020BC00002000020146F9
:10B4C000203E205345473A5544505F4D4F44453A3E
:10B4D000534F434B4F50454E0D0A0000FFFF0000F5
:10B4E00010270000B888000013600046203E20535B
:10B4F00045473A434F4E4E454354494F4E204641EF
:10B50000494C4544202D20444E53204661696C65CA
:10B51000640D0A00203E205345473A434F4E4E45A6
:10B520004354494F4E204641494C4544202D204923
:10B530006E76616C69642049502061646472657341
:10B54000733A205A65726F2049500D0A00000000BE
:10B55000240E0100203E205345473A434F4E4E45AE
:10B560004354494F4E204641494C4544202D2044E8
:10B5700075706C6963617465204950206164647200
:10B580006573730D0A000000DC0D010003D0827AA0
:10B59000114303D004E0FD48877201E04772448400
:10B5A0000098007A012819D102AA04210698FCF714
:10B5B0006AFF03AA05210698FCF765FFF348407867
:10B5C000002868468189C07A009001916846837A94
:10B5D000427A017A09D0EEA003F0ACFDEB48417845
:10B5E000002904D0012907D007E0F4A0F4E7FE49C0
:10B5F0000C80FE490C8000E044704474FC490498BF
:10B6000040180121FCF70CFAFA480188F648008836
:10B610000A18F6480088101A04F08DFADB48808C6E
:10B62000014302D00698FFF7C2FC0598406AD7494B
:10B6300080B2C98C084302D00698FFF76AFBD34852
:10B64000C07801280ED1E87AA97A00020843CF49D0
:10B65000C98A884206D80698FFF7CEFDCB48047108
:10B6600004834470E87D012827D1C8480179012965
:10B6700023D1007B002802D0012810D01DE0687E75
:10B68000297E00020843C149098B884215D8002849
:10B6900013D00698FFF7CEFDBC4804830773E87EFD
:10B6A000A97E0002B94D0843298B884205D800289D
:10B6B00003D00698FFF7BEFD2C83B44D68780028B0
:10B6C00000D08BE6307D0128FBD1A87A0028F8D184
:10B6D000688CC9498842F4D30698FFF78DFD6C72D7
:10B6E0006C847BE6FCF74AFB78E60120FFF79AFAC8
:10B6F000A64A5078002812D020461446D084FFF77E
:10B7000050FD0246202301210698FCF711FA069904
:10B710008842D6D14036707B012825D02AE0FFF739
:10B720005DFD20469084D084E8791446A979020210
:10B730000A43202301210698FCF7FAF9069988426A
:10B74000BFD14036707B012805D1E87BA97B000280
:10B75000084300D0A0830698FCF755FA0098007AB9
:10B760000128AED1A5A013E0E87BA97B0002084325
:10B7700000D0A083A079002805D1687B297B000236
:10B78000084300D0A7710098007A012899D1A5A09C
:10B7900003F0D0FC22E6F1B586B000F09DFC00F08D
:10B7A0009BFC0646293600F097FC4530009000F0DF
:10B7B00093FC0746002568460295858106984E371A
:10B7C00084048B4808302018FCF728F99F49611839
:10B7D0000491172812D002DC00287DD1B7E0182888
:10B7E000FCD01C2878D1694C0498406AE18C80B266
:10B7F0000843069871D0FFF78CFAF5E77C480838C3
:10B800002018FCF70BF9C0073AD00220FFF70AFA1C
:10B810005E48C18A002906D1F17AB27A0902114341
:10B8200001D00121C170397D002907D00121417269
:10B8300045840098007A012803D018E00121817224
:10B84000F7E702AA04210698FCF71DFE03AA0521CA
:10B850000698FCF718FE68468189C07A009001912D
:10B860006846837A427A017A54A003F063FC5E480A
:10B87000012105805D4805805D482018FCF7D0F85F
:10B880005C480188584800880A1858480088101AEF
:10B8900004F051F93D4CA08C014302D00698FFF70B
:10B8A00086FB0498406AE18C80B2084302D0069877
:10B8B000FFF72FFAE07801280BD1F07AB17A000275
:10B8C0000843E18A884204D80698FFF795FC257161
:10B8D0002583F07D012801E035E035E024D1207991
:10B8E000012821D1207B002802D001280FD01BE0A5
:10B8F000707E317E00020843218B884214D80028D4
:10B9000012D00698FFF796FC258301202073F07E65
:10B91000B17E00020843218B884205D8002803D05D
:10B920000698FFF787FC2583387D01280BD1A07A84
:10B93000002808D1608C3049884204D30698FFF76C
:10B940005BFC6572658449E5FCF718FA46E5012061
:10B95000FFF768F9FFF742FC0C4C2023A584E5842F
:10B96000F079B17902020A4301210698FCF7E0F868
:10B9700006998842E7D14037787B012805D1F07BD2
:10B98000B17B0002084300D0A08361E0BC0000202E
:10B99000203E205345473A434F4E4E45435445447D
:10B9A00020544F202D2025642E25642E25642E251D
:10B9B00064203A2025640D0A00000000203E205338
:10B9C00045473A434F4E4E45435445442046524F17
:10B9D0004D202D2025642E25642E25642E256420DF
:10B9E0003A2025640D0A00009202002094020020F3
:10B9F000280001469602002088130000203E2053B4
:10BA000045473A5443505F4D495845445F4D4F4474
:10BA1000453A5345525645525F534F434B4F50455D
:10BA20004E0D0A00203E205345473A5443505F4D87
:10BA3000495845445F4D4F44453A434C49454E545F
:10BA40005F534F434B4F50454E0D0A0000020146D5
:10BA50000698FCF7D8F80098007A01288AD1FCA053
:10BA600003F068FBBAE4F1B584B000F035FB00F0F8
:10BA700033FB0546293500F02FFB4530009000F0E0
:10BA80002BFB4E3000240190029468468481049878
:10BA90008604F8483018FBF7C1FFF74977181728D4
:10BAA00028D019DC00287DD0132814D1687B2A7B8C
:10BAB0000102F2481143C28B91420CD8C483FFF7B4
:10BAC000BFFB012807D0687A297A02020A43A91C21
:10BAD0000498FCF7CFF83EE41828E4D01C28FAD1EB
:10BAE000E64C786AE18C80B2084304987CD0FFF77A
:10BAF00010F9F6E7DF4810383018FBF78FFFC00762
:10BB000044D00220FFF78EF8DC48C18A002906D114
:10BB1000E97AAA7A0902114301D00121C170018B8F
:10BB2000002904D1E97D002901D001210171D34808
:10BB3000012181728079012802D1D0488471C483A7
:10BB40000098007A012815D102AA04210498FCF774
:10BB50009AFC03AA05210498FCF795FC68468189A4
:10BB6000C07A009001916846837A427A017AC4488B
:10BB700003F0E0FAC34801210480C3480480BF48B1
:10BB8000C473BC4808383018FBF74AFFBF48018827
:10BB9000BC4800880A18BC480088101A03F0CBFF84
:10BBA000B64E00E04AE0B08C014302D00498FFF7A3
:10BBB000FEF9786AF18C80B2084302D00498FFF74E
:10BBC000A8F8F07801280BD1E87AA97A0002084396
:10BBD000F18A884204D80498FFF70EFB347134834D
:10BBE000E87D012801D076E725E030790128FAD1F7
:10BBF000307B00280FD00128F5D1E87EA97E000215
:10BC00000843318B8842EED80028ECD00498FFF727
:10BC100011FB34835FE7687E297E00020843318B85
:10BC20008842F7D80028F5D00498FFF703FB348347
:10BC300001203073E1E7FCF7A1F84CE70120FEF7A3
:10BC4000F1FFFFF7CBFA8D4EB484F484FFF7A9FA25
:10BC50000246202301210498FBF76AFF04998842D9
:10BC6000D8D101984030407B012805D1E87BA97BE1
:10BC70000002084300D0B083B079002806D1687B69
:10BC8000297B0002084301D00120B0710098007A9E
:10BC90000128BFD1F07B0028BCD17DA003F04AFA77
:10BCA0000120F07317E7F8B5044600F015FA0746CF
:10BCB000293700F011FA06462046453600246F4D1C
:10BCC000002807D001202870FEF7ACFF3878022842
:10BCD0000DD00DE02C700420FEF7A4FF307A002870
:10BCE00011D074A003F026FA0E2277A108E06C7040
:10BCF000307A002807D078A003F01CFA0E227BA12E
:10BD0000002002F04DFA5F48AC8404805E48048055
:10BD1000EC702C71EC716C71EC822C832C846C8334
:10BD20002C72F8BDF1B500F0D7F90646293600F0BF
:10BD3000D3F90546453500F0CFF9504C0027217C5A
:10BD4000A830002900D02774007801282FD020784F
:10BD500001282CD1A078012809D10098FFF74CFACE
:10BD60000020FFF7A0FFA770207801281FD13078AE
:10BD7000002806D0012808D002280AD003280FD1B5
:10BD80000BE00098FFF76FFE0AE00098FFF703FD55
:10BD900006E00098FFF7E0FA02E00098FFF7AFF93D
:10BDA0006879012801D0022801D102F08EF9F8BD8E
:10BDB00010B500F091F92930407810BDF8B507466C
:10BDC00032480024008825462E4E00900FE02B4874
:10BDD0004A492A30025D30880A54401C009903F019
:10BDE000A0FE264831802A300555641CE4B2BC42CE
:10BDF000EDD3224845718574F8BD70B5054600F055
:10BE00006BF900F069F91D4C4E302178012911D1F0
:10BE1000014640310B46497B00290BD0A17C2246CC
:10BE20002A32002908D001296BD0022969D00329C0
:10BE30007BD173E0002070BDD87BA84275D1608BA8
:10BE4000A18B884271D115700120A07460716CE0E3
:10BE5000203E205345473A5443505F534552564580
:10BE6000525F4D4F44453A534F434B4F50454E0D53
:10BE70000A0000003000014600020146BC0000201C
:10BE800090B9000092020020940200209602002047
:10BE9000203E205345473A5443505F434C49454E5A
:10BEA000545F4D4F44453A534F434B4F50454E0D11
:10BEB0000A000000203E205345473A4154204D6F70
:10BEC00064650D0A000000005345473A4154204D77
:10BED0006F64650D0A000000203E205345473A4735
:10BEE00057204D6F64650D0A000000005345473A26
:10BEF0004757204D6F64650D0A000000151800209B
:10BF0000FFE740184030C07BA8420BD1608BA38B69
:10BF1000984207D25554491CA17406E0608BA28B4D
:10BF2000904202D20846FFF749FF00206083A07CC0
:10BF300070BD70B5044600F0CFF80546293500F015
:10BF4000CBF80246687845320021012806D0022845
:10BF500007D0042805D0052812D102E0287802284D
:10BF60000ED15079012101280AD15948112C02D053
:10BF7000132C02D004E0012100E0002141730021D4
:10BF8000084670BD10B500F0A7F80446293400F04B
:10BF9000A3F88E30407B01280FD14D490878012845
:10BFA0000BD1E07BA27B0002104306D0C8790028A9
:10BFB00001D10120C8710020088410BD00B5002205
:10BFC0004349030004F066FD05090B0D0704080052
:10BFD0000A634A638A63CA6300BD0A6300BD4A6399
:10BFE00000BD8A6300BD024600203949002A07D0FF
:10BFF000012A07D0022A07D0032A00D1C86B704754
:10C00000086B7047486B7047886B7047F8B500F055
:10C0100063F82F4C0646A07929362E4F00250028BC
:10C0200007D0E08BB84203D2E08B401CE08300E0F5
:10C03000E5832079002807D0208BB84203D2208BDB
:10C04000401C208300E02583608BA18B884202D2B4
:10C05000608B401C6083607900280AD0608BA18BC4
:10C06000884206D1A07C032811D0FFF7A7FEA57453
:10C070006571E079002811D0F07BB17B00020843A4
:10C08000218C884206D9208C401C208406E00120A7
:10C09000A070ECE72584E57101202072607A002809
:10C0A00005D0608CB84203D2608C401C6084F8BD1F
:10C0B0006584F8BD0648C178002906D0C18A054AC2
:10C0C000914202D2C18A491CC18201210174704788
:10C0D000BC000020FFFF0000FE487047F8B5FD4E91
:10C0E000F920307000207070B0700125F5700446A2
:10C0F00030710F21701D03F07CFC0922F6A1701D28
:10C1000003F01AFC35757575B475C0217177A822D6
:10C11000B2770B23EF48F377022620300670417088
:10C120008270C3700571FF2646718671C6710472F4
:10C1300045728572C172027343730321E94A8173A8
:10C14000C11C0A73130A4B73431C1A74160A5E74DB
:10C150000C74260A4E74E44E1E75360A5E750C7514
:10C16000230A4B7544768476C476047744778477C3
:10C17000C47720300570DD4B411C0B701B0A4B70DF
:10C18000C11C0A70120A4A7044710C268671C5716E
:10C19000047244728472C472047345730A211830A5
:10C1A00003F027FCCB480A214E3003F022FCC9489B
:10C1B000082160308470C470047141718171C17153
:10C1C00001723221093003F014FCC2482B21803067
:10C1D000C576047741778177C177BE4F0F20A037AE
:10C1E000387000207870B81C0570290A41703E71C3
:10C1F000310A79710471210A41713C72BC49401EB7
:10C200000172090A417201460A31002003F081FCE3
:10C21000502038740020787438461330BD741E21C5
:10C22000044603F0E6FB1322B2A1204603F084FB90
:10C23000384631302821044603F0DBFB2022B2A12E
:10C24000204603F079FBF8BD10B5FEF79AFCF92300
:10C25000A04A0021012001F0D7FC9E4C6078217893
:10C260000002084302D0B049884207D1FFF736FFE9
:10C27000F923984A0021012001F00DFD9549012084
:10C2800020318872207560750020A075FEF782FC51
:10C2900090494031487110BD10B5F9238D4A0021F5
:10C2A000012001F0F8FC10BD10B503F045FB10BDF6
:10C2B00010B503F041FB10BD10B50446014685489A
:10C2C00006221730FFF7F4FF82480422A11D1D301B
:10C2D000FFF7EEFF7F48214604220E312130FFF7A1
:10C2E000E7FF7C48214604220A312530FFF7E0FFB2
:10C2F00078482146042212316530FFF7D9FF75488E
:10C30000A17D6030012902D00121C17010BD002142
:10C31000FBE710B56F49044606221731FFF7C4FF4B
:10C320006C4904221D31A01DFFF7BEFF694920465C
:10C33000042221310E30FFF7B7FF66492046042260
:10C3400025310A30FFF7B0FF6249204604226531EB
:10C350001230FFF7A9FF5F486030C078002801D095
:10C36000022000E00120A07510BD30B589B0594D04
:10C3700003A90120FCF7C2FB6846427C017CC07B1C
:10C380006B4607C36846837B427B017B67A002F054
:10C39000D1FE28462330417B007B090201436846D9
:10C3A000407D009001916846037DC27C817C69A03C
:10C3B00002F0C0FE6846407F00906846037FC27E60
:10C3C000817E6DA002F0B6FE6846407E0090684611
:10C3D000037EC27D817D6EA002F0ACFE08A840788D
:10C3E000009008A803786846C27F817F6EA002F0A3
:10C3F000A1FE2C462034607A01282DD06420415DB6
:10C40000601C0129417C0FD0027C0802A17B1043F3
:10C4100001900091637B227BE17A69A002F08AFEA1
:10C42000607A032809D017E00A02007C29460243FB
:10C4300069316EA002F07EFE0EE0E07A002808D19D
:10C44000207B002805D1607B002802D1A07B00283A
:10C4500007D070A002F06EFE6DA002F06BFE09B076
:10C4600030BD71A0F6E710B51A4C7448E17DFBF7BA
:10C47000D7FA7248217E401EFBF7D2FA6F48617EE0
:10C48000801EFBF7CDFA6D48A17EC01EFBF7C8FAEF
:10C490006A48E17E001DFBF7C3FA6848217FC01C93
:10C4A000FBF7BEFA10BD10B50A4C86B02146062235
:10C4B00017316846FFF7F8FE214601A804221D3116
:10C4C0000230FFF7F1FE21460422213103A8023099
:10C4D000B6E000001C13002057495A37353053523C
:10C4E0000000000088130000B80B0000581B00007B
:10C4F00052C300006465766963652E77697A77694F
:10C500006B692E6E657400002F77697A373530734A
:10C51000722F66772F5737353030785F5332455F4B
:10C520004170702E62696E00FFFF00002023204DD5
:10C5300041433A20253032583A253032583A253096
:10C5400032583A253032583A253032583A2530326E
:10C55000580D0A002023204950203A2025642E251A
:10C56000642E25642E2564202F20506F72743A208B
:10C5700025640D0A000000002023204757203A20A0
:10C5800025642E25642E25642E25640D0A000000E6
:10C59000202320534E203A2025642E25642E256426
:10C5A0002E25640D0A000000202320444E533A201B
:10C5B00025642E25642E25642E25640D0A000000B6
:10C5C00020232044657374696E6174696F6E20491D
:10C5D000503A2025642E25642E25642E2564202FB4
:10C5E00020506F72743A2025640D0A0020232044E5
:10C5F000657374696E6174696F6E20446F6D6169F3
:10C600006E3A202573202F20506F72743A202564D3
:10C610000D0A00002023232055445020313A3120B8
:10C620004D6F64650D0A00002023232055445020DF
:10C63000313A4E204D6F64650D0A000003600046DC
:10C64000FFF732FE214602A8042225310230FFF70F
:10C650002BFE214604A8042265310230FFF724FE98
:10C660006034E078002801D0022000E00120694613
:10C6700088750020FCF742FA06B010BD074801217A
:10C68000C170704705480021C170704701460348DA
:10C6900010B50622493803F04FF910BD7C13002075
:10C6A000F8B500270D4604460F70FB4E09E003F075
:10C6B000C5F802462046316803F0E2F8002804D0AD
:10C6C000361D30680028F2D129E03068002826D0D5
:10C6D000F148301A8005060E2B2E07D02C2E11D0D3
:10C6E000A11C284603F084F83046F8BD207A0D28B6
:10C6F00015D1607A0A2812D10622A11C284603F01F
:10C700001BF9F1E7002002E02954401CC0B22118B7
:10C7100089780D29F8D12118C9780A2901D0FF207C
:10C72000F8BD2F5428184770DEE7F0B59FB00F46CC
:10C730000546FFF7D1FC1590002410A90C840421B4
:10C740003846199403F055F9D4A12846DAE304A930
:10C75000FFF7A6FF0646FF2867D004A803F06EF88F
:10C7600080B202906846007C002854D0CA498822D2
:10C7700024390978114259D0482E56D273007B448F
:10C780009B885B009F4488029B029B029E02A90239
:10C790005C05B9025C05C402CE02D902E502F402CE
:10C7A0000003190324033903740474047404740427
:10C7B000740474044E035C036B037A03A303B30392
:10C7C000FC030704120421043104400452046A04E7
:10C7D0007504830492047E057E05A3047E057E0510
:10C7E0007E057E057E057E057E057E055105510090
:10C7F0005C05D204D204D204D204E804E804E804BC
:10C80000E804150518031803180318033805430531
:10C81000180318037E05A048B1004058017839700C
:10C8200040787870BF1C169701E0FDE3FDE333000C
:10C8300004F030F94825384B5054EE59EE5D6165EF
:10C84000686D707B7E87EDEDEE91EDED93A5AAAD61
:10C85000C3C7EFF3F7FBE8E7E6E5E4E3E2E1E1E095
:10C86000E1E1DFDEDDDCDBDAD9D8EED7D7D7D7D60A
:10C87000D6D6D6D5D4D3D2D1D0CFCECDCCCB159B96
:10C88000159A159915981B7FD27E897E407E00905F
:10C8900001A80EC0159882A1037EC27D384602F021
:10C8A00057FCDAE186A188A003F0DEF8002815988D
:10C8B000807D00901598437D027D04D084A1169858
:10C8C00002F046FCC9E185A1F9E7159A86A1384630
:10C8D000521D40E115986030C27802E01598203072
:10C8E0009DE082A17EE1159860308278F9E7159885
:10C8F0004030427BF5E7159840300278F1E7159813
:10C90000413001E0159843304178007896E0159861
:10C91000213091E01598159920300078C97F019059
:10C9200015980091837F427F13E0159820300AE02C
:10C93000159820300279C17801920091837842786D
:10C9400007E015986030027AC179019200918379ED
:10C95000427967A10FE0694AC3E71598407900283A
:10C9600055D015991598097FC07E019100901598B2
:10C9700063A1837E421D384602F0EAFB6DE1159803
:10C980002330417B007B59E0159821304FE015980A
:10C9900060300179002907D0407A002837D0159AF5
:10C9A00051A138466932D6E015982030827B417B10
:10C9B00001920091037BC27ACBE7159840308279CF
:10C9C0008FE715984030C2798BE757E12BE107E1FB
:10C9D00004E100E1FBE0EAE0E2E0DCE0D8E0CEE008
:10C9E000BCE0AAE045E140E129E120E114E10CE1ED
:10C9F00004E1F9E09EE09AE043E038E02EE029E02F
:10CA000023E01EE016E010E00BE006E001E08BE022
:10CA100032E115984030027A63E715984030427A47
:10CA20005FE715984030827A5BE715982330417CA8
:10CA3000007C03E015982330417D007D0A0202430B
:10CA40004FE715982030427E4BE7159830A12030F3
:10CA5000827EC7E015988030C27E42E7159880300C
:10CA6000C17F0091837F427F2BA1384628E715982C
:10CA70004030807B002857D0159A1BA138464E3293
:10CA800069E015984030007E00284DD0159A16A117
:10CA9000384658325FE000003C0100200D0A0000DB
:10CAA000253032583A253032583A253032583A2516
:10CAB0003032583A253032583A253032580000008A
:10CAC000446576656C6F7000537461626C6500003C
:10CAD00025642E25642E25640000000025642E2583
