:020000040000FA
:1070000050360020ED710000419E0000439E0000BC
:107010000000000000000000000000000000000070
:10702000000000000000000000000000459E00007D
:107030000000000000000000479E0000499E000084
:10704000519E0000539E0000559E0000619E00006E
:107050006D9E00006F9E0000719E0000739E0000F8
:10706000759E0000779E0000799E00007B9E0000C8
:107070007D9E0000859E0000879E0000899E000086
:107080008B9E00008D9E00008F9E0000919E000050
:10709000939E0000959E0000FF710000979E0000E7
:1070A000999E00009B9E000000F002F800F057F847
:1070B0000CA030C8083824182D18A246671EAB460D
:1070C00054465D46AC4201D100F049F87E460F3E81
:1070D0000FCCB6460126334200D0FB1AA246AB467F
:1070E00033431847CCAD0000ECAD00000023002472
:1070F00000250026103A01D378C1FBD8520700D3EF
:1071000030C100D50B60704710B5642902D108F07A
:107110004BFF10BD752902D108F046FF10BD78293C
:1071200002D108F077FF10BD632902D10AF00EF8F2
:1071300010BD732902D10AF011F810BD002010BD56
:107140001FB509F0C1F909F079FF04000020002102
:107150000AF07CFB401C60601FBD10B510BD0AF03A
:1071600011FB1146FFF7ECFF03F075FB0AF029FB5A
:1071700003B4FFF7F2FF03BC02F0A7FE30B40C49E2
:107180000C684A6823681068C0181060241D121D1E
:107190008C4207D28A4208D20C604A6030BC400060
:1071A000400870470C00DC3CF6E70A00DC3AF3E7E5
:1071B000E429002070B505460C46164602E00FCCC7
:1071C0000FC5103E102EFAD2082E02D303CC03C5F1
:1071D000083E042E07D301CC01C5361F03E02178F9
:1071E0002970641C6D1C761EF9D270BD074880475B
:1071F00007480047FEE7FEE7FEE7FEE7FEE7FEE79B
:1072000004480549054A064B7047000037720000E4
:10721000A9700000502A002050360020502E002077
:10722000502E002036480068704735484068704747
:107230003448006A704710B53348816B334A116196
:10724000C16B304841600021016241698907CA0F62
:10725000012191404269D207D20F9140CAB24169DF
:1072600040698904890E51438002294A800E5043A7
:1072700009F01FFB2249086010BDF8B5254F012613
:10728000204D01280FD000202862214C10462146B5
:1072900009F00FFBC0B2012808D8EE616F6101212F
:1072A0000A46134619E02E620C46EFE70021E96119
:1072B000FF2101318006800A084368616869800700
:1072C000C00F86406869C007C00F86406869F2B287
:1072D0008004810E68698002830E2046084C514369
:1072E0006060584309F0E5FA2060F8BD30B4064B01
:1072F0009C6B064D2C61DB6B024C636030BCBCE7C1
:10730000000000200010004180FD03000012004139
:1073100000127A000001020041210906002801D074
:10732000032000E001200860704741210906486001
:1073300070470120412109068860704741200006FE
:10734000C06880B2704741210906002800D00220A1
:10735000086170474120000600690006000E00D059
:107360000120704701204121090608617047002073
:10737000D2E700B50120FFF7CFFF0020FFF7E3FFC2
:1073800000BD00003F4A3F4B01218032984201D1AD
:10739000116070473B4B2033984201D11162704716
:1073A000394A394B80329842F2D0374B20339842D9
:1073B000F4D07047334A334B0121C943803298429D
:1073C00001D1116070472F4B2033984201D11162D7
:1073D00070472D4A2C4B80329842F2D02A4B2033F2
:1073E0009842F4D070478168802291438160704751
:1073F00081688022914381600021016020228260A7
:1074000081617047826880239A4382600A680260C3
:1074100082684B689B0113438A6892001A43CB68C9
:1074200009695B0013431943EF22114081607047E3
:1074300020220129816802D0914381607047114365
:10744000FBE70121C16070474069C0B270478068A6
:107450008006C00F704781688022114381607047A9
:1074600000687047016070474068704780687047E7
:107470008160704700697047406970478069704754
:1074800081617047001000400020004070B510245A
:10749000002101604160BF4A4261426281624263F1
:1074A00021225206904202D1BB4BBC4A0CE043223F
:1074B0001206904204D1B84BB84A4033403203E040
:1074C000B54BB64A803380320020602685005E517D
:1074D0005151401CA042F9D370BDF0B521220023C8
:1074E00010265206904201D1AB4A08E04322120610
:1074F000904202D1A84A403201E0A74A80320124DA
:1075000025460F689D402F40AF4243D10F79012F90
:107510000DD045614D79AD070DD59C001559AD08CD
:10752000AD001551155902273D4315510BE0076970
:107530002F430761EEE79D005759BF08BF00575121
:107540005759274357514C79640704D59C00155966
:1075500004273D4303E09C0015590427BD43155102
:107560004C79A40604D59C00155920273D4303E01F
:107570009C0015592027BD4315514C79640604D54C
:107580009C00155940273D4303E09C0015594027B6
:10759000BD4315515B1CB342B1D3F0BD7D490160C1
:1075A000002101716221417170470246126800207A
:1075B0000A4200D001207047006880B2704702463E
:1075C000526800200A4200D001207047406880B213
:1075D00070470A06920D012312189B02D2181160FF
:1075E0000A0A920010185A0080180160704710B5FE
:1075F0000B069B0D0124CA431B18A4021B191A6019
:10760000090A8900081861004018026010BD10B511
:107610000B069B0D01241B18A4021B191A60090AF2
:107620008900081861004018026010BD4160704771
:10763000836A0B438362012A03D0426A0A4342628F
:107640007047026A0A4302627047524A8262012905
:1076500001D04262704702627047012A03D0426B38
:107660000A4342637047026B0A4302637047494A08
:10767000012901D042637047026370474549816325
:1076800070470246926B00200A4200D001207047EA
:10769000F0B50126414D002334469C400C420ED0EB
:1076A000002810D0012811D03C4C9F0080343C1998
:1076B0002768BF08BF0027602768174327605B1C47
:1076C000102BE9DBF0BD9C006419F1E79C00641904
:1076D000276CBF08BF002764276C17432764EEE7B9
:1076E0007CB504461E460D466846FFF757FF6846C0
:1076F0000095027169462046FFF7EFFE2120400603
:10770000844201D1002006E043200006844201D1DA
:10771000012000E0022032462946FFF7B9FF7CBD78
:107720007CB5044616460D466846FFF737FF002035
:107730006946009508712046FFF7CFFE206A28436E
:107740002062A06A2843A062324629462046FFF7FD
:1077500084FF21204006124E844206D100200122DF
:107760002946FFF795FF802012E04320000684425F
:1077700007D1012002462946FFF78AFFFF2001308A
:1077800006E0022001222946FFF782FF0120400285
:1077900030607CBDFFFF0000003000410020004150
:1077A00000E100E0E12149020160602181800021C7
:1077B000C18003220181120242818181704770479A
:1077C000F8B50446006B0E46400840002063FFF702
:1077D0002FFD8C4F0125002842D03D61FFF722FD8F
:1077E0007A692946914009F064F80746306800013B
:1077F00009F0FEFB0090384609F0FAFB009909F009
:1078000003FB074609F0B0FB009009F0F1FB394695
:107810000AF078F8062109F0EFFB09F0CBFA002214
:10782000794B09F073FA09F0A1FA014600986062F9
:10783000A162E06AEE218843B188F288114332895F
:1078400002431143E162206B7049B289084071899B
:10785000114301432163206B284320630020F8BDBE
:10786000022038617869294681406948BBE710B534
:10787000C36A10242343C3624907890E5207520F7B
:107880001143416310BDC16A10229143C162704728
:1078900001607047006880B27047C16A01221143DD
:1078A000C16270470246526800200A4200D001209F
:1078B0007047416070470246926900200A4200D03A
:1078C00001207047002A826B01D00A4300E08A43FE
:1078D000826370470246926B00200A4200D001206A
:1078E00070470246126C00200A4200D00120704707
:1078F000426C0A434264704710B504464548016B28
:1079000002290AD0006B032807D0FFF78BFC214621
:1079100008F0CFFF4049086110BDFFF786FCF6E78D
:1079200010B5FFF7E9FF3C49886803228008800012
:1079300010438860002010BD704737494A68D2075D
:10794000FCD1086070473448006880B27047324A02
:107950000146526800200A4200D0012070472E4A9A
:107960000029916801D0014300E081439160704794
:10797000294A0029916801D0014300E081439160C8
:107980007047254A0146D26800200A4200D00120F3
:1079900070472149CA680243CA6070470160826922
:1079A0001207FCD40846704730B50B4605461C78D4
:1079B000002C03D021462846FFF7F0FF5B1C002C6B
:1079C000F5D130BD8169C906FCD40068C0B27047EA
:1079D00000B50346FFF7B1FF184600BD10B50346DA
:1079E0001C78002C02D02046FFF7A7FF5B1C002C60
:1079F000F6D110BD084841688907FCD50068C0B2BF
:107A000070470000401100410000E03FFE3CFFFFD6
:107A100000127A00001000410060004000787047BA
:107A20000170704730B5002405E00D19ADB2455D19
:107A30001555641CA4B29C42F7D330BD70B5002428
:107A400005E00E19155DB6B28555641CA4B29C42C2
:107A5000F7D370BD70B514000FD01A4A83049E1876
:107A6000F268400795B2184AC00A10430A462346F6
:107A70002946FFF7E3FF2819F06070BD70B51400C8
:107A80000FD0104A83049E18B26A400795B20F4A7D
:107A9000C00A10430A4623462946FFF7C3FF2819A8
:107AA000B06270BD10B500290BD0064A83049B1844
:107AB0009A6A4007054CC00A5118204389B2081839
:107AC000986210BD00020146000002460000034615
:107AD00070B50446082802D90020C04370BDFA489A
:107AE000A604301805461021FFF79AFF2846FFF735
:107AF00095FF0028FAD1F4481F2118303018FFF7FD
:107B00008FFFF24801218288A1408A438280F04A97
:107B1000002061005052ED49891D0855EA48203087
:107B200034182046FFF77AFF0028FAD1012070BDF3
:107B3000F8B51C4616460F460546082802D900200F
:107B4000C043F8BD012F06D0022F04D0042F02D06D
:107B50000420C043F8BD6007810FDE48FAD1002C35
:107B60000CD0012F02D0022F08D103E021210C42BA
:107B7000F0D003E0A10601D52106EBD52846FFF79A
:107B8000A7FF21090901D0483943AF04103838183C
:107B9000FFF746FF002E0AD1CC48CF4A0688711C59
:107BA00089B20180914202D1032189030180C64834
:107BB000F03038184661C448012138180646FFF7EE
:107BC0002FFF3046FFF72AFF0028FAD1BF48E10710
:107BD000C90F4288A9401143418001218288A940F0
:107BE0008A438280BA4A002069005052B749891DF1
:107BF0004855B54820303C182046FFF70FFF0028B5
:107C0000FAD068B2F8BD70B50646082802D900203F
:107C1000C04370BDAC48B40410382018FFF7FEFE16
:107C20000007000F012802D00420C04370BDA64801
:107C3000203020180546FFF7F1FE132802D002205D
:107C4000C04370BDA048022120180446FFF7E8FE9B
:107C50002046FFF7E3FE0028FAD12846FFF7DEFEB4
:107C6000142805D03046FFF733FF0320C04370BD12
:107C7000012070BDF7B50D460746082802D900203F
:107C8000C043FEBD9048BC0410382018FFF7C6FE64
:107C90000007000F012802D00420C043FEBD8A481F
:107CA000203020180646FFF7B9FE132802D0022024
:107CB000C043FEBD29786A7808028018AA780002BD
:107CC0008018EA7800028018421C32D0002830D098
:107CD0000298002830D081482018FFF7A1FE7F4885
:107CE0006978401E2018FFF79BFE7C48A978801E0B
:107CF0002018FFF795FE7948E978C01E2018FFF795
:107D00008FFE764902982739611808626E4804216F
:107D100020180546FFF784FE2846FFF77FFE00285F
:107D2000FAD16A4901204988B84008421CD0002095
:107D3000FEBD0B20C043FEBD0A20C043FEBD284649
:107D4000FFF76CFE000708D55F480821183020189F
:107D5000FFF766FE0C20C043FEBD3046FFF75EFE17
:107D6000002804D1001FFEBD5748103025183046AA
:107D7000FFF754FE1728E2D10120FEBD70B506467C
:107D8000082802D90020C04370BD4F48B504103800
:107D90002818FFF743FE0007000F012802D0042037
:107DA000C04370BD4848082128180446FFF738FE34
:107DB0002046FFF733FE0028FAD1444901208A8883
:107DC000B04082438A80498808420CD0002070BDB0
:107DD0002046FFF723FE00070BD53046FFF778FE5D
:107DE0000C20C04370BD384810302C183648203065
:107DF0002D182846FFF712FE0028E9D1012070BD9A
:107E0000F7B582B002981446082803D90020C04371
:107E100005B0F0BD86042C4810383018FFF7FEFD81
:107E20000007000F012802D00420C043F0E7002C17
:107E30000CD02548203030180190FFF7EFFD1728AF
:107E400007D01C2805D00620C043E1E70D20C04321
:107E5000DEE7029801251D4F8540B888054211D004
:107E6000194810303018FFF7D9FDC006C00EC10602
:107E700021D51548102118303018FFF7D1FDB888EA
:107E8000A843B8801548D93030180090FFF7C6FDD8
:107E90008006000C844200D904460098406887B2EE
:107EA0000198FFF7BBFD17281AD01C2818D002989C
:107EB000FFF70EFEC7E7000718D50298FFF708FE88
:107EC0000C20C043A4E70000100001460800002079
:107ED0007C030020FAFFFFFFF0FF000027010146AE
:107EE000FE484088054203D0BC4201D900208FE7FC
:107EF000BC42D2D8224603990298FFF7ABFDF8485E
:107F0000202130180646FFF78BFD3046FFF786FD2F
:107F10000028FAD1F14881880D438580204677E713
:107F2000F7B582B002981446082802D90020C04351
:107F30006EE78704EA4810383818FFF76FFD00072E
:107F4000000F012802D00420C04361E7002C19D0A3
:107F5000E4483818FFF762FD8006000CA04200D20A
:107F60000446DF48203038180090DE4820383E189C
:107F7000706A85B20098FFF751FD172815D01C28AC
:107F800003D00CE00D20C04342E7002D1AD130464B
:107F9000FFF744FD7168800289B2884205D10298DA
:107FA000FFF796FD0620C04332E702990120884082
:107FB000CA494988084203D0002D03D1002027E791
:107FC000002DD5D0A54200D22C4622460399029816
:107FD000FFF754FDC248402138180546FFF720FD41
:107FE0002846FFF71BFD0028FAD1204610E7FFB511
:107FF00083B003981E461546082803D90020C043C5
:1080000007B0F0BD8404B64810382018FFF706FD0D
:108010000007000F022804D0042802D00420C04327
:10802000EEE7002D1DD03078717800024018B1784D
:1080300000024018F1780002C84202D10B20C04370
:10804000DEE70C9800280FD0A548203020180746FE
:10805000FFF7E4FC42280AD0222808D00620C043BB
:10806000CEE70D20C043CBE70A20C043C8E79D48B8
:108070003178F9382018FFF7D3FC9A487178FA382C
:108080002018FFF7CDFC9748B178FB382018FFF790
:10809000C7FC9448F178FC382018FFF7C1FC9049E0
:1080A0000C98F031611808628E4820382018019031
:1080B000FFF7B4FC8006000C854200D90546039901
:1080C0000120884000900198406886B23846FFF74A
:1080D000A5FC002808D0814900984988084206D0AC
:1080E000B54204D900208BE70320C04388E7B5429E
:1080F000E9D82A4604990398FFF7ACFC7848202178
:1081000020180746FFF78CFC7548183026183846AB
:10811000FFF784FC0028FAD171481030241820465B
:10812000FFF77CFCC006C00EC10605D53046102105
:10813000FFF776FC284663E70007F0D530460821B4
:10814000FFF76EFC0C20C0435AE7FFB5002485B052
:108150000646082802D9601E09B0F0BD6048B50483
:1081600010382818FFF75AFC04900007000F022867
:1081700004D0042802D00420C043EDE7079800286B
:1081800005D059487700C05B002803D022E00D20BD
:10819000C043E1E753482038281803905048203066
:1081A00028180125B54002900398406A84B20298CD
:1081B000FFF734FC002806D048484088054207D025
:1081C000002C03D006E00320C043C5E70020C3E72E
:1081D000002CE9D041480021801D81550498B2044B
:1081E00041073F48490F151802291FD0042957D0CD
:1081F00021463046FFF756FC3B48C45328464021F1
:10820000FFF70EFC2846FFF709FC0028FAD1364894
:10821000C15B091B0904090CC15305D02F48012279
:10822000801D815D11438155204695E72E4CE05B12
:10823000002865D1082269463046FFF71FFC284612
:108240004021FFF7EDFB2846FFF7E8FB0028FAD1B5
:10825000684601780898017068464178089841702E
:1082600068468178089881706846C1780898C1701E
:1082700068460E990079088001026846407908181E
:108280000E9908806846807901026846C07908180E
:10829000E05332E0224630460699FFF7EFFBADE7A8
:1082A000114CE05B00282BD1022269463046FFF7D3
:1082B000E5FB28464021FFF7B3FB2846FFF7AEFB5E
:1082C0000028FAD16846007801026846407808180C
:1082D00080B20649E05388420FD909E00800002027
:1082E00010000146200201467C030020EA05000040
:1082F0003046FFF7EDFB9E482EE79E4980208855CB
:10830000E45B07988442C5D90446C3E7F8B5144630
:108310000646082802D90020C043F8BD954B964870
:108320009B1F0927B2045D88FF4310180B0009F05A
:1083300079FA0805171B1D252E37314021780120B9
:10834000B040012902D0002905D032E08949891FB7
:10835000284348802BE08749891F85434D8026E0CC
:10836000F540E807C00F19E0844801E08348203059
:108370001018FFF753FB8002208018E020781F2898
:1083800017D8C1067C48C90E001D10180DE07A48A8
:10839000001F1018FFF742FBC006C00E207006E059
:1083A00021781F2905D8C906C90EFFF739FB01201E
:1083B000F8BD3846F8BDF8B51546082802D90020A2
:1083C000C043F8BD84046D4B6B4A6B48803BDC3284
:1083D00024380427E618A2182018FF430B0009F0E0
:1083E00021FA084F050910421316444F62482978B4
:1083F000E43002E060482978E0302018FFF710FBF5
:1084000031E0288810612EE0288810622BE0FFF709
:1084100005FB0007000F01282DD13046FFF7FEFABB
:10842000002802D00120C043F8BD5348222114384F
:1084300020180546FFF7F4FA4F48001F26180DE0F4
:108440003046FFF7EBFA000708D54B480821001D1E
:108450002018FFF7E5FA0C20C043F8BD2846FFF7C7
:10846000DDFA0028ECD10120F8BDFFF7D7FA0007AC
:10847000000F012801D03846F8BD29783046BDE705
:108480000920C043F8BDF8B514460646082802D9AD
:108490000020C043F8BDB5043748374A374B24386D
:1084A000DC32EF182818AA180B0009F0BBF90D08E8
:1084B0000D121517305E323E404248525E00FFF703
:1084C000ADFA0009000102E02B48E43033E02070EF
:1084D0003DE02948E0302EE01069F8E72748D93818
:1084E0002818FFF79BFA20702448DA382818FFF77D
:1084F00095FA60702148DB382818FFF78FFAA070D2
:108500001E48DC382818FFF789FAE0701FE0106A6F
:108510001CE0FFF783FA0007000F01281FD117485E
:1085200080382818FFF77AFA10E078680EE0786A49
:108530000CE011480C302818FFF770FAC7E7FFF776
:108540006DFA0128F3D00E497000085A20800120EE
:10855000F8BDFFF763FA0007000F012802D00420DE
:10856000C043F8BD0348805DB1E70120C043F8BDBA
:1085700017FCFFFF0E000020240001460002014608
:108580007C03002070477047704770470078704741
:1085900001707047002070477047FE4A002804D0E1
:1085A000002902D0D16090607047FB489060FB4882
:1085B000D0607047F74A002804D0002902D05161EA
:1085C00010617047F6481061F6485061704710B569
:1085D000F04A1388DC05FDD5002804D0002902D01C
:1085E000D161906110BDF0489061F048D06110BD3C
:1085F00010B5E84A13889C05FDD5002804D0002951
:1086000002D0D161906110BDE9489061E948D06124
:1086100010BD0020C04370470020C043704710B514
:10862000E548FFF7FBF90446E3481030FFF7F6F999
:108630000002001980B210BD10B5C1B2040A0909C8
:108640000901DD48FFF7ECF9DB4821461030FFF760
:10865000E7F910BDD84810B5001FFFF7DFF9044651
:10866000D5480C30FFF7DAF90002001980B210BDCE
:1086700010B5C1B2040AD04809090901001DFFF76D
:10868000CFF9CD4821460C30FFF7CAF910BDF0B53F
:1086900093B0CA48FFF7C2F91190C848401EFFF7CF
:1086A000BDF9C64C1090A41E2046FFF7B7F9651E11
:1086B0000F902846FFF7B2F90E90A01DFFF7AEF914
:1086C0000D90601DFFF7AAF90C90BC480830FFF729
:1086D000A5F90B90B948C01DFFF7A0F9B74E0A9055
:1086E000B61D3046FFF79AF90990E01DFFF796F99D
:1086F0000890B01DFFF792F90790701DFFF78EF9F3
:108700000690301DFFF78AF90590F01CFFF786F9F7
:108710000490AA481030FFF781F9A84F03900F3753
:108720003846FFF77BF90290781EFFF777F9019042
:10873000F01DFFF773F900908021A148FFF770F951
:108740009F48FFF76BF9A01C1199FFF769F9601CAE
:108750001099FFF765F920460F99FFF761F9284650
:108760000E99FFF75DF9A01D0D99FFF759F9601DEE
:108770000C99FFF755F9B01C0B99FFF751F9701CD4
:108780000A99FFF74DF930460999FFF749F9E01DBD
:108790000899FFF745F9B01D0799FFF741F9701DDA
:1087A0000699FFF73DF9301D0599FFF739F9F01CDF
:1087B0000499FFF735F9781C0399FFF731F938462A
:1087C0000299FFF72DF9781E0199FFF729F9F01D9D
:1087D0000099FFF725F913B0F0BDF8B50D46064630
:1087E0000024FFF754FF002E14D00022B05C521C6E
:1087F000001952B244B2082AF8DB102C17DC714F72
:108800000024A004315DC019FFF70AF9641C64B2AA
:10881000082CF6DB002D19D0002108462A5C401CEC
:10882000511840B249B20828F8DB102902DD0020B7
:10883000C043F8BD634E00242036A004295D801992
:10884000FFF7EEF8641C64B2082CF6DB0020F8BDDC
:1088500070B50C460246002108464D1E130008F074
:10886000E1FF0906091511181C2E2E202E00FFF716
:108870000EFF22E0002C02D0214620460831FFF7EF
:10888000ACFF70BD2088FFF7F3FE16E0FFF7E2FEB5
:1088900005E02088FFF7D0FE0FE0FFF7C0FE208044
:1088A0000BE03C4882782270C27862700279A27034
:1088B0004279E270807920716171002070BD284694
:1088C00070BD10B504463D484130FFF7A7F8207051
:1088D0003A483D300068608010BD10B5044601780C
:1088E00036484130FFF79CF8344960883D310860D4
:1088F00010BD10B53248FFF791F810BD70B50446B1
:10890000C720044202D00020C04370BD2C4D284631
:10891000FFF784F8204301462846FFF781F800203E
:1089200070BD10B504462548FFF778F8207023483D
:10893000401EFFF773F860702048801EFFF76EF846
:10894000A0701E48C01EFFF769F8E0701B48001DAC
:10895000FFF764F820711948C01CFFF75FF86071D9
:1089600016480830FFF75AF8A0731448C01DFFF7E7
:1089700055F8E0731148801DFFF750F820740F4838
:10898000401DFFF74BF860740C480C30FFF746F8B9
:10899000A07219E020000020858500008785000076
:1089A000898500008B8500008D8500009185000081
:1089B000958500009985000004210046036000466B
:1089C00000230046000201465F480B30FFF726F8FF
:1089D000E0725D480A30FFF721F820735A480930E9
:1089E000FFF71CF8607358481030FFF717F8A071B4
:1089F00055480F30FFF712F8E07153480E30FFF77B
:108A00000DF8207250480D30FFF708F860724F489B
:108A10000178A1744178E17481782175C07860751E
:108A20004A48401E0078A07510BD10B50446017874
:108A30004548FEF7F5FF44486178401EFEF7F0FF19
:108A40004148A178801EFEF7EBFF3F48E178C01E49
:108A5000FEF7E6FF3C482179001DFEF7E1FF3A48AA
:108A60006179C01CFEF7DCFF3748A17B0830FEF7B8
:108A7000D7FF3548E17BC01DFEF7D2FF3248217C8D
:108A8000801DFEF7CDFF3048617C401DFEF7C8FF1A
:108A90002D48A17A0C30FEF7C3FF2B48E17A0B304A
:108AA000FEF7BEFF2848217B0A30FEF7B9FF2648B3
:108AB000617B0930FEF7B4FF2348A1791030FEF73F
:108AC000AFFF2148E1790F30FEF7AAFF1E48217A57
:108AD0000E30FEF7A5FF1C48617A0D30FEF7A0FFAF
:108AE0001A48A17C0170E17C4170217D8170617D1B
:108AF000C1701649A07D491E087010BD10B50C4606
:108B0000030008F08FFE0604080C1014181D084618
:108B1000FFF78BFF12E00846FFF703FF0EE008782F
:108B2000FFF7ECFE10BDFFF7E4FE207006E00846FC
:108B3000FFF7D3FE02E00846FFF7C3FE002010BD9A
:108B40000020C04310BD0000036000461900002053
:108B500070B58F4C05462088286161882846FEF74D
:108B600038FD012002F00DF961882846FEF73FFD2F
:108B7000012002F006F970BDF8B507460020844DCB
:108B80000446460069883846FEF723FD012002F0BE
:108B9000F8F869883846FEF72AFD012002F0F1F85E
:108BA00029883846FEF701FD3043641C102CE8D3B9
:108BB000F8BD70B5764C054620886861012002F04A
:108BC000E0F861882846FEF704FD012002F0D9F89C
:108BD00061882846FEF70BFD012002F0D2F870BD37
:108BE000F8B5074616462020801B81400C46684D8C
:108BF00018E02988002C384602DAFEF7EAFC01E08A
:108C0000FEF7F5FC012002F0BCF869883846FEF753
:108C1000E0FC012002F0B5F869883846FEF7E7FC71
:108C20006400761E002EE4D1F8BD70B50C4600211C
:108C300005462022C943FFF7D3FF04220621284618
:108C4000FFF7CEFF5248052241682846FFF7C8FFCC
:108C5000052221462846FFF7C3FF2846FFF7A9FF54
:108C60002846FFF789FF04462846FFF771FF204694
:108C700070BD10B5432001210006FFF7D6FF400765
:108C8000C00F10BD70B50C461646002105462022C7
:108C9000C943FFF7A5FF042205212846FFF7A0FFDF
:108CA0003B48052241682846FFF79AFF05222146E6
:108CB0002846FFF795FF022211462846FFF790FF4E
:108CC000102231462846FFF78BFF2846FFF740FF6A
:108CD00070BD01221203904203D0212109020840F5
:108CE0000246002143200006CCE7F8B54326294F71
:108CF0003606002400212022C9433046FFF770FFCA
:108D0000042206213046FFF76BFF0522214630463C
:108D1000FFF766FF052201213046FFF761FF30466D
:108D2000FFF747FF3046FFF727FF05463046FFF7BE
:108D30000FFF002D03D0BD4201D02046F8BD641CBA
:108D4000082CD7DD14A007F0BBF8D2E77CB50546A8
:108D500014460E466846FEF721FC3046204300903C
:108D60000120694608712846FEF7B7FB012221461B
:108D70001046FEF78DFC012231461046FEF788FCB6
:108D8000034D6E802C80FFF7B0FF68607CBD000053
:108D900040000020FFFF00000D0A70687920696420
:108DA00020646574656374206572726F7221210D91
:108DB0000A00000010B5FE4CFE482178FEF730FE98
:108DC000FC486178401EFEF72BFEFA48A178801E11
:108DD000FEF726FEF748E178C01EFEF721FEF548B3
:108DE00008342178001FFEF71BFEF2486178401F0F
:108DF000FEF716FEEF48A178801FFEF711FEED4842
:108E0000E178C01FFEF70CFEEA48241F21780838DD
:108E1000FEF706FEE74861780938FEF701FEE548EF
:108E2000A1780A38FEF7FCFDE248E1780B38FEF73E
:108E3000F7FD10BD10B5E04C80212046FEF7F0FD97
:108E40002046FEF7EBFDFFF7B5FFD94CD948353486
:108E500021781038FEF7E4FDD64861781138FEF726
:108E6000DFFDD448A1781238FEF7DAFDD148E17869
:108E70001338FEF7D5FDCF4821790C38FEF7D0FD29
:108E8000CC4861790D38FEF7CBFD10BD10B5CA4C4A
:108E900080212046FEF7C4FD2046FEF7BFFDC44CEE
:108EA000C448353421781038FEF7BAFDC1486178DE
:108EB0001138FEF7B5FDBF48A1781238FEF7B0FDB6
:108EC000BC48E1781338FEF7ABFDBA4821790C387D
:108ED000FEF7A6FDB74861790D38FEF7A1FD10BD7C
:108EE000B34B10B5DB1FB54C5C62B54C9C62B54C06
:108EF000DC62002800D05862002900D09962002A64
:108F000000D0DA6210BD30B5A94B0120DB1F996B90
:108F100008704870062088700020C8705A6B120EC6
:108F20000A715A6B120C4A719A8E120A8A719A8EC1
:108F3000CA71996B802208818A72C872996B1A462D
:108F4000087348738873C873087448748874C87445
:108F5000087548758875C875087648768876C87625
:108F60003C3214780C7754784C7794788C77D4789A
:108F7000CC770C4615792034257052796270062220
:108F80008C18521CD2B22077102AF9D39A6B002188
:108F900054182034491CC9B220734029F8D39A6B65
:108FA000002154186034491CC9B220738029F8D3B9
:108FB000986B6321E03001738222427353228273E3
:108FC000C17330BD0007000F092801D83030704749
:108FD00037307047FEB5FFF796FF754C3522E41F1A
:108FE000A06BF0210A540122F1210A54F2210A5403
:108FF0003D22F3210A540722F4210A540122F521CB
:109000000A5421463C310A78F6210A5421463C3163
:109010004A78F7210A5422463C329378F8221354B6
:1090200022463C32D378F922135422463C3213793B
:10903000FA22135422463C325379FB2213540C215A
:10904000FC2211540023FD210B54122225461946FF
:10905000423506E08718E037521C491C3E7392B235
:1090600089B26E5C002EF5D1514D3535E878000996
:10907000FFF7A8FFA66BB618E0363073521C92B209
:10908000E878FFF79FFFA66BB618E03630732879B3
:10909000521C92B20009FFF795FFA66BB618E03696
:1090A0003073521C92B22879FFF78CFFA66BB6186A
:1090B000E03630736879521C92B20009FFF782FFE4
:1090C000A66BB618E0363073521C92B26879FFF77F
:1090D00079FFA56BAE18E0363073521C92B2881D32
:1090E000511A4919E0314871A06B37218518E035D4
:1090F0002973521C91B24518491C89B246180622A0
:10910000E0352A730125E0363573491C89B24618CB
:109110000325E036491C357389B24518E0352A73BA
:10912000491C89B245180F22E0352A73491C89B2BF
:1091300042183A25E0321573491C89B242183B2582
:10914000E0321573491C89B24518FF22E0352A73B5
:10915000491CFF2589B2393504E04618E036491C20
:10916000337389B2A942F8D36846027142718271A1
:10917000C27143200090892201AB9200A078A16BBC
:10918000FEF735FFFEBDFEB5FFF7BDFE084B002024
:10919000DB1FDA1D185614462934FF27032844D054
:1091A000042842D06846077147718771C7710BE088
:1091B0004F0000201360004600230046B58D0000DC
:1091C000358E00008D8E0000986B3521F0252954D6
:1091D0000121F12529540321F22529543D21F325AC
:1091E00029540721F42529540121F5252954F8494A
:1091F000F62509782954F649F72549782954F44980
:10920000F82589782954F249F925C9782954F04973
:10921000FA2509792954EE49FB25497929546D46E7
:10922000ED791021FF2D16D039E0986B0021817265
:10923000C172117801735178417391788173D1783B
:10924000C17321786846017161784171A17881719B
:10925000E178C171ABE73225FC210D540425FD21D5
:109260000D541678FE210E545678FF210E54967830
:10927000491C0E54D278491C0A543622491C0A54FF
:10928000491C0D542278491C0A546278491C0A541E
:10929000A278491C0A54E278491C0A541C2143183C
:1092A0000C22E0331A73491C42180025E032C84BE7
:1092B00015739B1D2A46491C05E04618E036491CDB
:1092C000347389B2521C9C5C002CF6D1C04BD87808
:1092D0000009FFF777FEBE4C3C3CA66B7618E036E3
:1092E0003073491C89B2D878FFF76CFEA66B7618EC
:1092F000E03630731879491C89B20009FFF762FE25
:10930000A66B7618E0363073491C89B21879FFF7DE
:1093100059FEA66B7618E03630735879491C89B22D
:109320000009FFF74FFEA66B7618E0363073491C34
:1093300089B25879FFF746FEA36B5E18E0363073AA
:10934000491C88B2911D821AD218E0325171A16B6A
:1093500037220B18E0331A73401C80B20B18082216
:10936000E0331A73401C80B20B180122E0331A73E9
:10937000401C80B20B180322E0331A73401C80B2E9
:109380000B180622E0331A73401C80B20B180F2210
:10939000E0331A73401C80B20B183A22E0331A7380
:1093A000401C80B20B183B22E0331A73401C80B281
:1093B0000B181F22E0331A73401C80B20B182122B5
:1093C000E033401C1A7380B20A18E0321773401C55
:1093D000FF2280B2393203E00B18E0331D73401CCA
:1093E0009042F9DB43200090892201AB9200A078E3
:1093F000A16BFEF7FCFDFEBD1CB5FFF784FD7448B4
:1094000000213C38806B35228172C172F0210A54F0
:109410000122F1210A540422F2210A543D23F321AE
:109420000B540722F4210A540122F5210A546849F9
:10943000F6220B7813544B78F72213548B78F822CA
:109440001354CB78F92213540B79FA2213544A7926
:10945000FB210A543222FC210A540422FD210A5421
:109460005B4935390A78FE210A54594935394A7819
:10947000FF210A54564935398A78FF2101310A54AF
:1094800053493539CA78FF2102310A543622491C22
:109490000A540422491C0A544D49FF220C390B7806
:1094A000053213544B78521C13548B78521C1354AE
:1094B000CA78FF2108310A54FF22491C0A541D2191
:1094C0000023FF2239324418E034491C23739142AF
:1094D000F9DBFF206946087148718871C871432023
:1094E00000903B4889223C38816B01AB9200807828
:1094F000FEF77DFD1CBD7FB5354C364A3C3CA0785F
:1095000081048918496A0A04120C26D001A9009125
:1095100002ABA16BFEF719FE82B268468088432831
:109520003BD1A06B2A49037F0D78AB4215D1457F13
:109530004B789D4211D1837F8D78AB420DD1C37F93
:10954000CD78AB4209D1034620331D780E79B54260
:1095500003D15B7849798B4202D0002004B070BD02
:10956000F03000258118F03915E00278332A41D017
:1095700008DC002A15D0012A18D0032A1AD0062A9E
:1095800006D129E0352A0ED0362A42D0FF2A06D04D
:109590004278801C80188842E7D368B2DEE708462C
:1095A000F9E7401CF7E78578C01CF4E7084A8378A0
:1095B0002D3A31E0064A43788678313A1670C678FB
:1095C0005670067996704679801DD670C0180FE0E7
:1095D0008400002000020146F84B427886781E7015
:1095E000C6785E7006799E704679801DDE708018A0
:1095F000001FD0E78278A261C37812029A18A26194
:10960000037912029A18A261437912029A18A26190
:1096100009E0EA4A83781D321370C37853700379E6
:1096200093704379D370801DB5E7E4480021133867
:10963000C161052202624170704770B5DF4C01259F
:10964000133C6157002622469057022917DAE26937
:10965000216A914223D2012804D0022805D004288F
:1096600005D102E0FFF7B6FC01E0FFF78CFDE661F3
:10967000E069401D20626078401C60700FE00128A6
:1096800004D0022805D0042807D102E02670002566
:1096900003E0FFF79FFC01202070FFF7C6FF28467C
:1096A00070BDF8B5C64E3046FEF7B8F90546032141
:1096B0003046FEF7B5F9C14BC2480C3BDC1F0090A9
:1096C0001122C1A1A078FEF792FC07462946304638
:1096D000FEF7A6F90D3708D0FFF78EFEE069E169C5
:1096E000091A0229FBD30020F8BD0120F8BDF8B506
:1096F000B24C133C207806281ED0A078B7498004CD
:109700004018FEF78BF9222805D0002344220221BD
:10971000A078FEF70DFA0125FFF7EDFEC1B2002299
:10972000A256A648002601270C38130008F07AF844
:1097300005060D1C314C2F000520F8BD0670467043
:109740008670C670FFF746FC5EE002291CD1A16B53
:109750000A7C02704A7C42708A7C8270C97CC1702B
:10976000FFF711FD02204BE005290BD1FFF799FF10
:10977000002801D0606A3FE0FFF757FFE06A8047AA
:10978000267004E006293DD0FFF757FF054628461E
:10979000F8BDA16904254A1CF9D0E2694908914243
:1097A000F5D28649027810390A7042784A70827878
:1097B0008A70C078C870606B401C6063FFF7E3FC80
:1097C000FFF733FF04201BE004250529DAD17B498C
:1097D000667010390A7803789A420BD14A78437838
:1097E0009A4207D18A7883789A4203D1C978C0789F
:1097F000814202D0A06A03258047FFF716FF0320AD
:109800002070C4E7FFF711FF2770C0E710B56B4C5D
:10981000133CA078FEF75CF90620207010BDF3B56C
:10982000674F83B006460025413F38460095FEF756
:10983000F5F8624C29342070781EFEF7EFF860705E
:10984000B81EFEF7EBF8A070F81EFEF7E7F8E07020
:10985000381DFEF7E3F82071F81CFEF7DFF86071A1
:10986000014620786278E3781043A2781A431043C7
:109870002279104308431FD1257008206070DC2036
:10988000A070E5702571294665713846FEF7C8F865
:109890006178781EFEF7C4F8A178B81EFEF7C0F80C
:1098A000E178F81EFEF7BCF82179381DFEF7B8F80C
:1098B0006179F81CFEF7B4F8404F4949133FBE7078
:1098C0000498B863E0786379421821798A1848408F
:1098D0009A185840801878636846017838480C46D2
:1098E0003138FEF79DF868464078029001463448CA
:1098F0003238FEF795F86846807801900146304886
:109900003338FEF78DF86846C6782D48314634382E
:10991000FEF786F82A4821463138FEF781F82848B4
:1099200002993238FEF77CF8254801993338FEF762
:1099300077F8234831463438FEF772F8204821463C
:109940003938FEF76DF81E4802993A38FEF768F884
:109950001B4801993B38FEF763F8194831463C38FB
:10996000FEF75EF8FFF761FE3D7005B0F0BD1348ED
:109970001338C169491CC161704710490C390A7814
:1099800002704A7842708A788270C978C1707047D4
:109990000A4908390A7802704A7842708A788270D7
:1099A000C978C17070470549091F0A7802704A7862
:1099B00042708A788270C978C17070475B0000205D
:1099C0004460004688130000434845434B5F4950BC
:1099D0005F434F4E464C494354000000300001465F
:1099E0007856341206490A7802704A7842708A78AA
:1099F0008270C978C170E0E7014813388069DCE7FC
:109A00005B000020017840780902401880B270475E
:109A10000A0A02704170801C7047F0B5844600202D
:109A2000054606460C78491C002D00D1401C27062F
:109A3000BF0F032F0AD1002D00D1401CA4060978C6
:109A4000A40C6444091901250C78491C002C19D078
:109A50001B1B5B1E1BB2002B02DA0020C043F0BDB3
:109A6000002D05D1001903E00F781770491C521C16
:109A70002746641EA4B2002FF6D12E241470521C67
:109A8000761CCFE7002E02D12E211170521C00212E
:109A90001170F0BD10B593B00C464B236A46FFF72A
:109AA000BCFF411C03D02018001D13B010BD0020C6
:109AB000FBE770B593B015460C4606464B236A4645
:109AC000FFF7ABFF411C46D024182046FFF79AFF52
:109AD0000A34030007F0A6FE103C09133C3C13298E
:109AE0001313133C3C13183C1F3C207828706078FB
:109AF0006870A078A870E078E870241D28E04B23F7
:109B00006A460BE0241823E02078641C20180178B2
:109B1000401C44181CE04B236A46A41C21463046D6
:109B2000FFF77BFF411C16D0ECE74B236A4621462A
:109B30003046FFF772FF411C0DD024184B236A46B4
:109B400021463046FFF769FF411C04D02418143425
:109B5000204613B070BD0020FBE7F7B50D46044664
:109B6000122106F00EFE2846FFF74CFF2080A81CAD
:109B7000FFF748FF02040121002A00DAA170420425
:109B8000120FE270420500D52171820500D5617186
:109B9000C20500D5A171020600D5E1710007000FD2
:109BA0002072281DFFF72EFF6081A81DFFF72AFFF6
:109BB000A08128460830FFF725FFE08128460A30BB
:109BC000FFF720FF29460C3100262082771E06E091
:109BD0002846FFF75FFF010014D0761CB6B26089FB
:109BE000B042F5D8002607E02846029AFFF761FF49
:109BF000010007D0761CB6B2A089B042F4D800208C
:109C0000E18903E03846FEBD401C80B28142FBD8AA
:109C10000020218A01E0401C80B28142FBD8207ADA
:109C2000002801D00020FEBD0120FEBDFFB55E4A28
:109C30000D46518895B00346491C89B2179851804A
:109C4000FFF7E6FED902FF31013189B2FFF7E0FEEE
:109C50000121FFF7DDFE0021FFF7DAFE0021FFF70B
:109C6000D7FE0021FFF7D4FE04462946684606F0D9
:109C700087FC6E46304606F0A9FC80B213902E2178
:109C8000304606F031FC070002D0B81B85B200E078
:109C9000139D2570641C002D12D02A4631462046A3
:109CA00006F074FD6419002F07D013987619401B35
:109CB000401E80B2761C1390E1E700202070641CE7
:109CC00001212046FFF7A4FE0121FFF7A1FE17990D
:109CD00019B0401A00B2F0BD3348816803290BD394
:109CE000002282600178022902D30270501E704760
:109CF000491C017000207047012070472A4A5070AB
:109D00002A48516050807047F7B5274C0D46002314
:109D100088B01A4602216078FDF70AFFFF26013657
:109D20003346294600206268FFF780FF35250095FD
:109D300082B2089B60786168FEF759F91C4F607821
:109D40008004C019406A05042D0C16D0B54200D914
:109D5000354607A8009006AB2A4660786168FEF792
:109D6000F4F90A9A01A86168FFF7F7FE05466078E2
:109D7000FDF7AEFE28460BB0F0BDFFF7ADFF0028A3
:109D800001DA0020F7E70028D9D1352000902A46D3
:109D9000089B60786168FEF72AF9D0E7024881687D
:109DA000491C8160704700009400002022110000CF
:109DB00000020146F0B587B002F05AFD04466D4638
:109DC000A81DFFF7DAFD03A802300690FFF7E0FDBB
:109DD00002A802300746FFF7E6FD04A80230064657
:109DE000FFF700FE214606222931684602F07BFE7D
:109DF00020460422A91D2F3002F079FE20460422BD
:109E00003330069902F073FE20460422394637307B
:109E100002F06DFE204604223146513002F067FE0A
:109E20004034E07B002801D0022000E00120694698
:109E300088750020FEF762FE07B0F0BD7047000095
:109E4000704770477047704710B500F0A2FF10BD13
:109E50007047704710B50021104804F0EDFD10BDAB
:109E600010B501210E4804F0E7FD10BD70477047A2
:109E700070477047704770477047704710B504F0DF
:109E80006AFD10BD70477047704770477047704754
:109E900070477047704770477047704700C0004078
:109EA00000D0004010B5C0B2FDF792FD10BD10B556
:109EB000FDF7A0FDFDF78CFD10BD0020C0437047ED
:109EC00010B5C0B2FDF784FD10BDFEE78107C90ED5
:109ED000002808DA0007000F08388008AD4A800023
:109EE0008018C06904E08008AB4A800080180068D0
:109EF000C8400006800F70473EB502F0B9FC01462D
:109F000040310A7C012A06D1A44A1278012A03D0E2
:109F1000A3A005F0D5FF3EBD024643325378147826
:109F20001A020B78014622432031CC7F0094019322
:109F300002928B7F4A7F35319DA005F0C1FF3EBD67
:109F4000FEB502F095FC04460025A2A005F0B8FF7E
:109F5000A6490520FFF7D2FE20464030427C6946E4
:109F60000A70827C4A70C27C07468A70007DC87085
:109F700000260321304601F02DF8761CF6B2022EA1
:109F8000F7D320463D305534019021466846019A6A
:109F9000FFF7BAFE064601280FD06D1CEDB2022D68
:109FA0000DD8294692A005F08BFF04F069F9F87BE3
:109FB0000128EAD1FFF79BFBE7E798A000E09CA00F
:109FC00005F07EFF00240121204601F003F8641C07
:109FD000E4B2022CF7D33046FEBD10B502F048FCC7
:109FE0004030C07B012806D196480078012803D074
:109FF00095A005F065FF10BDFFF7FEFC014697A098
:10A0000005F05EFF10BD70B500249EA005F058FF5E
:10A0100076490420FFF703FCA249A14A0846FEF74F
:10A020005FFF00250321284600F0D4FF6D1CEDB230
:10A03000022DF7D3FFF75BFB0546042809D0002D5E
:10A0400015D0032C1BD998A005F03AFFFFF7DEFBD3
:10A0500002E09AA005F034FF00240121204600F020
:10A06000B9FF641CE4B2022CF7D368B270BD641C63
:10A07000E4B2032CE7D8214695A005F021FF04F0B7
:10A08000FFF8D7E7F0B58FB002F0F2FB04463822B4
:10A090009A4901A8FDF78EF8A11D99A005F010FFBF
:10A0A0009DA005F00DFF4F20005D01280CD0A0A160
:10A0B000A1A005F005FFA9A005F002FFE07F0028A0
:10A0C00004D022461F3202E0AAA1F1E7AEA2002886
:10A0D00001D0AFA100E0B0A1B2A005F0F1FEB5A1A2
:10A0E0008BA005F0EDFE00260A20704305193B20E9
:10A0F000405D8100BC4842583146BCA005F0E0FEFE
:10A10000C1A005F0DDFE28464130417800780A0202
:10A1100002430021C1A005F0D3FECB49CBA005F03E
:10A12000CFFEC949D2A0491C05F0CAFE3146D9A0CC
:10A1300005F0C6FE142070430719384680300090A1
:10A14000007C012813D094A1DFA2E7A005F0B8FE9F
:10A15000E8A005F0B5FE3146EFA005F0B1FE61378D
:10A16000787F3A7F0102114303D0F4A003E088A175
:10A17000EAE789A166A005F0A3FE3146F3A005F049
:10A180009FFE0098417900790902014301D0F9A0AE
:10A19000FBE1F7E100ED00E000E400E0BF0000209B
:10A1A000202320444E53204661696C65640D0A00EB
:10A1B000202320444E533A202573203D3E20256421
:10A1C0002E25642E25642E2564203A2025640D0A50
:10A1D00000000000202D20444E5320436C69656E22
:10A1E000742072756E6E696E670D0A008C03002014
:10A1F000202D20444E532054696D656F7574206F77
:10A200006363757272656420616E64207265747236
:10A2100079205B25645D0D0A00000000202D20449C
:10A220004E5320537563636573730D0A000000007D
:10A23000202D20444E53204661696C65640D0A0D43
:10A240000A00000040010020202320444843502001
:10A250004661696C65640D0A0000000020232044FB
:10A26000484350204950204C6561736564207469EF
:10A270006D65203A202575207365636F6E64730DDC
:10A280000A000000202D204448435020436C69659B
:10A290006E742072756E6E696E670D0A00000000A4
:10A2A0003D9E0000B59D0000202D204448435020D5
:10A2B0004661696C65640D0A0D0A0000202D20447A
:10A2C00048435020537563636573730D0A000000A3
:10A2D000202D20444843502054696D656F757420CB
:10A2E0006F6363757272656420616E642072657459
:10A2F0007279205B25645D0D0A000000EC190100F5
:10A30000202D20446576696365206E616D653A2075
:10A3100025730D0A00000000202D204E6574776F14
:10A32000726B2073657474696E67733A200D0A004E
:10A330005374617469630000092D204F6274616970
:10A340006E696E672049502073657474696E677317
:10A350003A205B25735D0D0A00000000202D20537C
:10A36000656172636820494420636F64653A200D1B
:10A370000A0000004175746F6D61746963202D20BF
:10A3800044484350000000004E6F6E65000000001E
:10A39000456E61626C65640044697361626C6564FA
:10A3A00000000000092D2025733A205B25735D0D08
:10A3B0000A0000003D3D3D3D3D3D3D3D3D3D3D3DB7
:10A3C0003D3D3D3D3D3D3D3D3D3D3D3D3D3D3D3DBD
:10A3D0003D3D3D3D3D3D3D3D3D3D3D3D3D3D3D3DAD
:10A3E0003D3D3D3D3D3D000030010020202D205BE6
:10A3F00025645D204368616E6E656C206D6F6465D9
:10A400003A2025730D0A0000092D205443502F5582
:10A41000445020706F7274730D0A000009202020D0
:10A420002B205B25645D204368616E6E656C205354
:10A430003245206461746120706F72743A205B252C
:10A44000645D0D0A0000000051C3000009202020B7
:10A450002B205443502F5544502073657474696EFB
:10A460006720706F72743A205B25645D0D0A0000EE
:10A47000092020202B204669726D77617265207556
:10A48000706461746520706F72743A205B25645D3E
:10A490000D0A0000202D205B25645D204368616E5D
:10A4A0006E656C2045746865726E657420636F6EAE
:10A4B0006E656374696F6E2070617373776F726419
:10A4C0003A200D0A000000002854435020736572A2
:10A4D000766572202F206D69786564206D6F6465E4
:10A4E000206F6E6C79290000092D202573202573BB
:10A4F0000D0A0000202D20436F6E6E656374696F36
:10A500006E2074696D65722073657474696E67730B
:10A510003A200D0A00000000092D205B25645D2013
:10A520004368616E6E656C20496E6163746976691B
:10A5300074792074696D65723A2000005B25645D52
:10A540002028736563290D0A00000000092D205B97
:10A5500025645D204368616E6E656C205265636F93
:10A560006E6E65637420696E74657276616C3A20F4
:10A57000000000005B25645D20286D736563290D74
:10A580000A000000C2490846883805F099FCC1A0BD
:10A5900005F096FCC5A3C5A23146C6A0009605F0FD
:10A5A0008FFCF0000719A037387B8100CB48415859
:10A5B000CBA005F085FC787B810001A84158CEA096
:10A5C00005F07EFCB97BCF48415CCFA005F078FC5C
:10A5D000F87B8100CD484158CDA005F071FC397C55
:10A5E000CC48415CCCA005F06BFC387B002814D033
:10A5F000CB480168CBA005F063FC3146CEA005F046
:10A600005FFCD9A005F05CFC2846A030417F007FAC
:10A610000902014306D0D74807E0787C8100C04892
:10A620004158E7E79A490846883805F049FCD2A026
:10A6300005F046FC2846A230417F007F0902014315
:10A6400001D0D0A002E092490846883805F038FCD5
:10A65000D0A005F035FCC035287901283AD08C49C6
:10A660000846883805F02CFC89491C310846A43876
:10A6700005F026FC761CF6B2022E00D234E5022349
:10A680008AA28AA1C6A005F01BFCCCA3CDA2CFA1B3
:10A69000D2A005F015FC7E491C310846A43805F00F
:10A6A0000FFCD3A005F00CFCA034E079012814D0F5
:10A6B0007749D9A005F004FCA37A627A217AD8A060
:10A6C00005F0FEFB72491C310846A43805F0F8FB82
:10A6D0000FB0F0BD2978DBA0C4E76D490839E8E781
:10A6E00038B502F0C5F804466FA005F0E9FB6849EB
:10A6F0001C310846A43805F0E3FBD7A005F0E0FBC9
:10A70000DFA0009063792279E178DFA005F0D8FB23
:10A710005F491C310846A43805F0D2FB38BD7FB52F
:10A72000E2A003C801910090E0A103C90391029047
:10A73000FCF778FDDF4906F0BCF8DF4D2860DFA0AC
:10A7400005F0BEFB2A68286881B2E9A005F0B8FBD5
:10A7500008202070ED4860802046FEF7BEF82046B5
:10A76000FEF7AFF862882178E9A005F0A9FB02A9FD
:10A770006846FEF732F8F2A005F0A2FBFBA005F058
:10A780009FFBFD4D0024A0044019FDF747F9014649
:10A79000FAA005F095FB641CE4B2082CF3D342A0A8
:10A7A00005F08EFBF6A005F08BFBF34D0024203561
:10A7B000A0044019FDF732F90146F0A005F080FB36
:10A7C000641CE4B2082CF3D337A005F079FB7FBDFD
:10A7D00070B500F0AFFBED4C0120A51022462946D4
:10A7E000FCF784FD04F094F804F0FCFAFCF71AFD81
:10A7F0007D21C90006F05DF8E549401E88420CD86D
:10A80000E4494861E4480722C3691B021B0A4E045D
:10A810003343C361002088610A61E0A005F050FB6A
:10A82000FCF706FD002801D0E9A100E0EBA12A46D3
:10A83000EDA005F045FBF4484169F4A005F040FBAC
:10A840002146F9A005F03CFBFCF7ECFC0146FEA01C
:10A8500005F036FB70BD02F00BF80446FFF7B8FFB9
:10A86000FFF75DFF00F049FB02F0EFF802F0AFFAEE
:10A870000025284604F064FA6D1CEDB2022DF8D3D1
:10A8800005F09AF82546A035A8790128ECE10000EA
:10A8900098A30000202D2053657269616C207365B8
:10A8A0007474696E67733A200D0A00005541525462
:10A8B00000000000092D205B25645D204368616E67
:10A8C0006E656C204461746120257320706F727412
:10A8D0003A20205B257325645D0D0A003C030020AF
:10A8E000092020202B20554152542049463A205B14
:10A8F00025735D0D0A000000092020202B2025640F
:10A900002D0000001903002025642D001C030020E9
:10A9100025732D00280300202564202F200000002F
:10A920002C030020466C6F7720636F6E74726F6C1F
:10A930003A2025730D0A0000202D205B25645D2040
:10A940004368616E6E656C2053657269616C20644A
:10A95000617461207061636B696E67206F707469E8
:10A960006F6E733A0D0A0000092D2054696D653A27
:10A970002000000074A50000092D2053697A653A73
:10A98000200000005B25645D2028627974657329CE
:10A990000D0A0000092D20436861723A2000000072
:10A9A000202D20446562756720257320706F7274B6
:10A9B0003A205B257325645D0D0A000028666978DE
:10A9C000656429004E4F4E4500000000313135329C
:10A9D00030302D382D4E2D31000000002020202B4E
:10A9E000202573202F2025732025730D0A000000D9
:10A9F000202D2053657269616C20636F6D6D616EEF
:10AA000064206D6F64652073777469636820636F79
:10AA100064653A0D0A000000092D2025730D0A0017
:10AA2000092D205B252E32585D5B252E32585D5B4B
:10AA3000252E32585D2028486578206F6E6C792964
:10AA40000D0A00005B252E32585D202868657820AD
:10AA50006F6E6C79290D0A00205B57373530305DF9
:10AA60002053657269616C20746F2045746865724B
:10AA70006E6574204465766963650D0A0000000008
:10AA8000446576656C6F7000203E3E204669726DAD
:10AA9000776172652076657273696F6E3A202564FE
:10AAA0002E25642E25642025730D0A000202020261
:10AAB0000202000010270000002000460D0A203E80
:10AAC0003E20575A544F452053657474696E67731E
:10AAD000203D3D3D3D3D3D3D3D3D3D3D3D3D3D3DC3
:10AAE0003D3D3D3D3D3D3D3D3D3D3D0D0A000000B0
:10AAF000202D2067657454494331303055533A2036
:10AB000025582C2028255829200D0A00C4090000AA
:10AB1000204E6574776F726B2054696D656F757424
:10AB20002053657474696E6773202D205254523A15
:10AB30002025642C205243523A2025640D0A00003F
:10AB4000202D20575A544F4520482F5720536F63CC
:10AB50006B6574204275666665722053657474690E
:10AB60006E677320286B42290D0A00002020205BAD
:10AB700054785D200000000000020146256420009A
:10AB80002020205B52785D2000000000006CDC0279
:10AB9000FFFFFF0000E000E004ED00E00D0A203EB2
:10ABA0003E20573735303078204D435520436C6F69
:10ABB000636B2053657474696E6773203D3D3D3D42
:10ABC0003D3D3D3D3D3D3D3D3D3D3D0D0A000000CF
:10ABD00045787465726E616C00000000496E7465A2
:10ABE000726E616C00000000202D20476574504C8F
:10ABF0004C536F757263653A2025732C20256C7554
:10AC00002028487A290D0A0000100041092B204312
:10AC100052472D3E504C4C5F4643523A20307825E7
:10AC20002E38780D0A000000202D205365745379CA
:10AC30007374656D436C6F636B3A20256C752028C7
:10AC4000487A29200D0A0000202D20476574537989
:10AC50007374656D436C6F636B3A202564202848DC
:10AC60007A29200D0A00000003D1FFF739FDFFF714
:10AC700009FA00F065F901464AA005F021F95049AA
:10AC80000846A43805F01CF926464036F07B01271B
:10AC9000012803D1FFF7B7F9042805D002F0B7F86F
:10ACA000A879012803D006E046480770F8E701F0CC
:10ACB0007BFFFFF792F92034E07E012808D0307C3A
:10ACC000012805D1FFF73CF9012801D13E48077062
:10ACD000A879012801D1FFF70FF93C48002407703B
:10ACE0003B4F3878012803D1002001F02FFB3C7046
:10ACF00033490846A43805F0E3F80020C043FFF7C5
:10AD0000E5F8014633A005F0DBF80220FFF7DEF896
:10AD100001463AA005F0D4F80320FFF7D7F8014622
:10AD20003FA005F0CDF80420FFF7D0F8014645A07C
:10AD300005F0C6F822490846A43805F0C1F84A4F84
:10AD400003F09EFA01F075FBF07B012801D1FEF7BC
:10AD5000CEFC46480178012901D100210170002470
:10AD6000385D012808D1A879012803D1214640A0E7
:10AD700005F0A6F800203855641CE4B2022CEFD38D
:10AD8000DEE701B543480099016001680029FCD164
:10AD900008BD40480168002902D00168491E0160D1
:10ADA00070470000202D20504859204C696E6B20C0
:10ADB0007374617475733A2025780D0A00000000E1
:10ADC000B4A3000040010020BF000020BB00002011
:10ADD000A80000204E5649435F4765745072696F62
:10ADE00072697479205379735469636B5F49525166
:10ADF0006E203A20252B640D0A0000004E56494370
:10AE00005F4765745072696F726974792055415259
:10AE100054305F4952516E203A20252B640D0A00B0
:10AE20004E5649435F4765745072696F7269747911
:10AE30002055415254315F4952516E203A20252B02
:10AE4000640D0A004E5649435F4765745072696F3E
:10AE5000726974792055415254325F4952516E20C3
:10AE60003A20252B640D0A0011030020BA000020AF
:10AE7000203E204348414E4E454C5B25645D527850
:10AE80002052696E67206275666665722046756C31
:10AE90006C0D0A00A400002010B50123212000221F
:10AEA00019024006FCF71CFC10BD10B5012321203F
:10AEB000002219464006FCF713FC10BD7047FEB592
:10AEC0000446022818D23F4E6500705B00900120B6
:10AED000694608713C48A700C059FCF7FEFA3A4899
:10AEE000715B401F025D801E005DFCF7D1FB3648A0
:10AEF000715BC059FCF76DFBFEBD10B50020FFF77C
:10AF0000DEFF0120FFF7DBFF012003F080FD0122BF
:10AF10009203432051000006FDF718FF002003F0C4
:10AF200076FD2949002008390870FFF7BEFFFFF7BA
:10AF3000B3FF10BD2549022008632549886070478A
:10AF400010B5212001214006FCF72FFB10BD012088
:10AF5000704770470020704710B5FF212120013154
:10AF60004006FCF722FB10BD10B5022807D2154A97
:10AF70004100515A144A80001058FCF738FB10BDAC
:10AF800010B5022807D20F4A4100515A0E4A8000DC
:10AF90001058FCF71EFB10BD022808D20A49820097
:10AFA00089584A68074B4000185A42404A60704727
:10AFB00010B5044A4100515A034A80001058FCF76A
:10AFC000FEFA10BD241A0100B0000020401100411B
:10AFD0000020004170B50D46044601F049FC2146B1
:10AFE0000A2251433B302B0006F01CFC06120406DB
:10AFF0000A0E1012012204E002220818427011E029
:10B0000003220818427007E00422FAE70522F8E755
:10B0100008184078022805D000222146012004F0BB
:10B020000DFE70BD0122F8E7F0B58FB0044601F0C7
:10B030001FFCAC30069001F01BFCA530029001F023
:10B0400017FC3B300E9001F013FC0027002C0AD0B7
:10B05000FE480390E0000699099040180D90407951
:10B06000022802D006E0FA48F3E7204603F08AFF00
:10B0700000287DD1F748A2041018406A0004000C93
:10B0800004907BD001218902884200D904911420C8
:10B09000F14B6043C0180590C368056940685B1BAD
:10B0A0000121C01A8902884268D1EC481018FCF7C7
:10B0B000B5FC0146EA4AA0028518A600172932D03D
:10B0C0001C2930D0222936D1E64800900346294673
:10B0D00024332046049AFDF738F80146E14836301B
:10B0E00081510146042212390E3805F01BFA00285E
:10B0F00021D0DC482430018881804188C1800298B9
:10B100004078012817D1D7481E38C38B4230C27807
:10B110008178009102930192437802782146D2A06F
:10B1200004F0CEFE07E00122294692022046FCF7F9
:10B13000F7FE80B20490CB4A0020610010325052DA
:10B14000121D50521146163908550D98C079012824
:10B1500003D104F0A8FD002810D006990998085CD6
:10B1600001280DD00D984079012821D02A4600E011
:10B1700004E0049B0599039803F0C3FC0FB0F0BDF5
:10B18000204603F0CFFEB748363083592A4605994A
:10B19000039803F0B6FCBF487F1CBFB28742FBD3C5
:10B1A000204603F0D7FEAF49002036318851E5E74D
:10B1B000AC48801C005D0128E0D1AA4C3634A3596C
:10B1C0002A460599039803F09CFC0020A051D5E77E
:10B1D000F0B587B0054601F04BFBBC30039014205E
:10B1E000AD4968434018019001F038FB86B29D4894
:10B1F000AC002E300059A902A84A05918918009187
:10B2000083190A210120694380020291834226D3D7
:10B210000846039947183879002819D0012E17D10C
:10B22000012204A9019803F088FC002806D0684692
:10B23000017C8C482E3002590098115489482E30D8
:10B2400002590099515C3A79914201D100596DE05F
:10B2500084482E30015901208002401A86B2039999
:10B2600002984718787839780002084307D1F878AF
:10B27000B9780002084302D13879002801D00020B3
:10B2800038E032460099019803F057FC75482E309B
:10B29000015989190151D9E7012204A9019803F044
:10B2A0004CFC002809D06F496846027C2E310859B1
:10B2B000009B1B18401C08511A703879002809D0CF
:10B2C00068492E310A59754952180599491E515C31
:10B2D000814209D0F878B9780002084307D0614963
:10B2E0002E310959884202D15E482E30AEE70298CD
:10B2F000401C80B20290B042CED3787839780002F8
:10B30000084309D0574E2E363059002804D037460E
:10B31000383F785D012802D0002007B0F0BD0198C9
:10B3200001F09CFA002800D17855305980B2F4E73A
:10B33000F0B585B0044601F09BFA3B30039001F074
:10B3400097FAA530029001F093FA7D300090FFF754
:10B35000F7FD002878D12046FFF73AFF0026670066
:10B360000190002853D03D49A0044018FCF756FB3B
:10B37000A5000246142868D04849A0024118172A9F
:10B3800046D01C2A44D0222A41D120460A225043CA
:10B39000039A83189878002808D1D878002805D116
:10B3A0001879002802D15879002808D0587A1A7ADA
:10B3B00000021043009020469B1C019A15E029488A
:10B3C00024300278002A08D14278002A05D18278F8
:10B3D000002A02D1C07800280BD02248214B1E3809
:10B3E000C08B009024332046019AFCF700FE04B283
:10B3F00006E002984078012802D1294804F060FD57
:10B40000002C54DD17482E304159091B41514EE0A4
:10B410001448801F005D012849D12046019AFCF79D
:10B42000EFFC01B2002904DD0E482E304259511ABA
:10B43000415114200099604340188078012836D18A
:10B440000848801E015D2DE034E03AE000D0004065
:10B4500000C0004000020146B8180020300001463C
:10B460008C0B0020DA000020203E205B25645D5517
:10B47000445020506565722049502F506F72743AC5
:10B480002025642E25642E25642E2564203A20254F
:10B49000640D0A00FFFF0000E01800208C0300206C
:10B4A000201B0100002907D00655FE48C653FD4861
:10B4B000001FC65305B0F0BDFA49012028390855D0
:10B4C000F3E7F8481A304651F4E7FEB5044601F0B8
:10B4D000CFF93B30019001F0CBF90746A53701F0D9
:10B4E000C7F90646A004F0490090BC364018FCF7A6
:10B4F00095FA0146204614225043EC4AA5008018D4
:10B5000000291DD022291AD101F0A8F9002804D160
:10B51000E4481A304059002802D02046FFF708FFBF
:10B52000E34900984018406A0004000C04D1DD484B
:10B5300022304059002802D02046FFF775FDFEBD9D
:10B5400003F0FFFAD74900201A3148510831485119
:10B550000A20019960434118C879897902020A4397
:10B56000002302212046FCF7E3FAA042E7D105219F
:10B570002046FFF72FFD707831780002084302D093
:10B58000C8493239C88178780128D8D12146C9A064
:10B5900004F096FCFEBD70B5C24C4500083C605BF3
:10B5A000002809D0CB49884204D2401C084060538F
:10B5B00002D00DE00020605303F030FA04F06EFF7B
:10B5C000FBF7DCFDC44905F07EF9C4480818605358
:10B5D00080B270BDB34A00212A3A11540A32115484
:10B5E000083A11540C321154921E1154921D1154E8
:10B5F000921E11544000163211520C321152083A68
:10B6000011520C321152704770B5054601F030F9F5
:10B610000446A549A8043B344018FCF7FFF900286C
:10B6200009D00A216943615C032909D0172804D095
:10B630001C2802D004E0284670BD2846FCF79EFB7B
:10B640002846FCF745FAF6E710B500220621FCF77C
:10B65000B2FE10BDF1B584B001F00AF94F3003908D
:10B6600001F006F90546A53501F002F9044600206F
:10B6700000903B3401269A48FCF7D0F9074668460B
:10B6800007709748401EFCF7C9F9014668464170AB
:10B6900093480291801EFCF7C1F90146684681700B
:10B6A0008F480191C01EFCF7B9F901466846C17088
:10B6B00003984078012804D17A483238C0780028AD
:10B6C00002D0002F05D00CE06878012858D185A061
:10B6D00014E00298002804D10198002801D1002923
:10B6E00008D004980A225043001982789446002A10
:10B6F00007D00FE06878012842D184A004F0E0FB75
:10B700003EE0C278002A05D10279002A02D14279AE
:10B71000002A10D0674515D1C378029A9A4211D1F8
:10B720000379019A9A420DD1427991420AD16878FF
:10B73000012805D024E06878012821D18248DDE77E
:10B7400082A0DBE7C02F1CD10299A82919D1039947
:10B750000978002915D16146C02912D1C178A829DC
:10B760000FD10079019981420BD06878012807D167
:10B77000607900902379E278A178814804F0A0FBF9
:10B780000026304696E6F0B58FB0044601F070F81A
:10B7900007467D3701F06CF83B30019001F068F806
:10B7A000A530029001F064F8A730089001F060F82D
:10B7B000BC3007900020694603900883A1043A48F2
:10B7C0000C910818FCF72AF91422264637495643EB
:10B7D00071180991364A0C99650089180D91A100DC
:10B7E0000B9121460A2251430091172856D01FDCA5
:10B7F000002854D0132827D0142818D129482C38D1
:10B80000005D002813D1099801F028F800280ED017
:10B810002046FFF7F9FE234801212C380155F01985
:10B82000017AC27908021F491043091D4853A5E453
:10B830001828DED01C28FAD11A4D22350D98406AFE
:10B840000004000C2CD1B4E116482C38005D01280E
:10B85000EDD11448001D425BF1190B7ACE79190223
:10B8600031438A42E3D3002646532046FFF7F2FED7
:10B87000002816D0019900984118487A0B7A0202E4
:10B880001A432046891CFCF7F5F9064D0E3D285D4C
:10B89000401CC0B228550A28C9D373E083E090E168
:10B8A00083E179E0EE00002030000146E01800203E
:10B8B00000020146203E205345475B25645D3A5512
:10B8C00044505F4D4F44453A534F434B4F50454EC4
:10B8D0000D0A0000FFFF000010270000B8880000DC
:10B8E00013600046203E205345473A434F4E4E4595
:10B8F0004354494F4E204641494C4544202D204455
:10B900004E53204661696C65640D0A00203E205349
:10B9100045473A434F4E4E454354494F4E204641CA
:10B92000494C4544202D20496E76616C696420495C
:10B930005020616464726573733A205A65726F2097
:10B9400049500D0A00000000B41B0100203E2053A6
:10B9500045473A434F4E4E454354494F4E2046418A
:10B96000494C4544202D204475706C6963617465B1
:10B9700020495020616464726573730D0A000000F1
:10B980006C1B01002046FFF73FFE2E55099803F07F
:10B99000D8F8F84806550AE42046FFF735FEF54882
:10B9A0001E300655F2E7F4490C984018FCF736F8BB
:10B9B000C00773D002212046FFF70CFBED4828306A
:10B9C000405B002809D1F119487809780002084342
:10B9D00003D0E8480121801C0155E6482C30405B2B
:10B9E000002806D1F0198078012802D1E149091D0B
:10B9F0000855F019C07C002806D0DE48005D0128FB
:10BA000002D0002805D010E0DA4901201231085593
:10BA10000BE0D8481230005D002806D1D54801213E
:10BA200010300155002128304153029840780128F8
:10BA30001AD103AA04212046FCF725FD06AA0521F8
:10BA40002046FCF720FDCB486B46005D0028684689
:10BA5000028BC17B807B07C36846437B027B214608
:10BA600009D0C6A004F02CFAC248015D002904D018
:10BA7000012906D007E0CDA0F4E7099803F061F8AA
:10BA800001E000210155BB4800211E300155BA4993
:10BA90000C98083140180121FBF7C2FF099800F00B
:10BAA000DDFE002805D1B3490B984631085800281F
:10BAB00002D02046FFF73CFC0D98406A0004000CC1
:10BAC00005D1AC490B984E310858002802D02046C9
:10BAD000FFF7AAFAA748801C005D012814D1A548E9
:10BAE0002830415BF21950781278000210438142ED
:10BAF0000AD32046FFF788FD9E490020091D0855FE
:10BB0000283148532C390855F719B878012830D115
:10BB10009848001D005D01282BD196481630005D25
:10BB2000002802D0012814D023E0924E2C36715BFD
:10BB30003A79FB781002184381421AD3002818D0B2
:10BB40002046FFF781FD002171530120314616394F
:10BB50000855884E2C36715BBA797B7910021843F0
:10BB6000814206D3002804D02046FFF76DFD002057
:10BB700070538048005D002800D00CE7F87C012855
:10BB8000FBD17C481230005D0028F6D1794E383662
:10BB9000705B92498842F0D32046FFF735FD0020C4
:10BBA000314628390855705341E62046FFF73CFAE4
:10BBB00044E60B9828580028F7D12046FCF7DEF819
:10BBC00035E601212046FFF705FA6A48694D005D18
:10BBD000AD1F002814D000202A460B995432505033
:10BBE0002046FFF7D8FC0246202301212046FBF720
:10BBF0009FFFA042D8D10898007801282FD035E0C7
:10BC00002046FFF7E7FC5B4900200B9A463188503D
:10BC1000584A0B994E3250500199009820234118F0
:10BC2000C879897902020A4301212046FBF780FF87
:10BC3000A042B9D108980078012806D10798417828
:10BC400002780802104300D0E8812046FBF7DBFFB2
:10BC5000029840780128A7D1214661A019E00798F1
:10BC6000417802780802104300D0E88141480A3048
:10BC7000015D002907D1F1190A7ACB791102194324
:10BC800001D0012101550298407801288CD121462C
:10BC90005EA004F015F9CAE5F0B589B0044600F0DD
:10BCA000E7FD7D30059000F0E3FDA530009000F049
:10BCB000DFFD3B30019000F0DBFD0746A73700F0C9
:10BCC000D7FD054600206946039008822A49A00452
:10BCD00010310690BC354018FBF7A0FEA6001728CF
:10BCE00011D002DC002842D15DE11828FCD01C28CC
:10BCF0003DD1514906981F4F45184E37686A0004D8
:10BD0000000C35D148E11C4906984018FBF786FE27
:10BD1000C1074A4814222746574338186500079040
:10BD2000002926D002212046FFF754F91148283077
:10BD3000405B00280AD10598391848780978000234
:10BD4000084303D00B490120891C08550598381871
:10BD5000C07C002876D00748012110300155002111
:10BD6000283041530098407801286FD085E00DE1DC
:10BD70000EE197E0C200002020000146203E205343
:10BD800045475B25645D3A434F4E4E454354454419
:10BD900020544F202D2025642E25642E25642E2529
:10BDA00064203A2025640D0A00000000203E205344
:10BDB00045475B25645D3A434F4E4E4543544544E9
:10BDC0002046524F4D202D2025642E25642E2564BB
:10BDD0002E2564203A2025640D0A000088130000F7
:10BDE000203E205345475B25645D3A5443505F4DE8
:10BDF000495845445F4D4F44453A53455256455284
:10BE00005F534F434B4F50454E0D0A00203E205389
:10BE100045475B25645D3A5443505F4D495845445E
:10BE20005F4D4F44453A434C49454E545F534F4351
:10BE30004B4F50454E0D0A0000020146E01800200D
:10BE400000E003E0FE49012008558BE703AA042126
:10BE50002046FCF718FB04AA05212046FCF713FB3B
:10BE60006846028AC17B807B6B4607C36846437B7A
:10BE7000027B2146F34804F023F8079802F061FEA4
:10BE8000F148381802F05DFEF0490698401801218B
:10BE9000FBF7C6FDEA49002044318851083188513A
:10BEA00008318851079800F0D9FC002804D1E448F3
:10BEB00034308059002802D02046FFF739FA204656
:10BEC000FFF7B2F8DE481038005D012813D1DC48D6
:10BED0001630415B05983A185078127800021043EA
:10BEE000814208D32046FFF78FFBD54900200E3949
:10BEF00008552831485305983E18B078012830D1AC
:10BF0000CF480E38005D01282BD1CD48001D005DC3
:10BF1000002802D0012814D023E0C94F1A37795BDA
:10BF20003279F3781002184381421AD3002818D0CE
:10BF30002046FFF789FB0020785301203946163947
:10BF40000855BF4F1A37795BB279737910021843DD
:10BF5000814206D3002804D02046FFF775FB00205D
:10BF60007853F07C012811D1B548005D00280DD12F
:10BF7000B34E2636705BB649884207D32046FFF79A
:10BF800043FB0020314628390855705309B0F0BDF5
:10BF90002046FFF749F8B1E6B8590028F8D1204605
:10BFA000FBF7ECFEF2E701212046FFF713F82046ED
:10BFB000FFF710FBA2490020343188510831885125
:10BFC0000A20019960434018C17980790A0202432E
:10BFD000002301212046FBF7ABFDA042D6D13878E3
:10BFE000012807D1687829780002084302D09449D3
:10BFF0001839C8812046FBF706FE009840780128D2
:10C00000C4D1214693A003F05BFFBFE7F0B589B030
:10C01000044600F02DFC07467D3700F029FC3B303C
:10C02000079000F025FCA730029000F021FCA5301D
:10C03000009000F01DFCBC30019000206946039088
:10C0400008828248A104083008180691FBF7E6FC34
:10C05000142126464E43894A06996500891808919D
:10C06000A100059117282ED021DC00287ED01328AE
:10C070008CD173481E30415BF219137AD6791A02BB
:10C080003243914282D3002141532046FFF7E2FA26
:10C0900000280BD00A20079960434118487A0B7A90
:10C0A00002021A432046891CFBF7E4FD6EE71828BC
:10C0B000DCD01C28FAD1624D3C350898406A000457
:10C0C000000C7DD1F6E06149069808394018FBF76D
:10C0D000A5FCC2076A481421614308180790002A8A
:10C0E00056D002212046FEF775FF55481630405BBA
:10C0F000002809D1F119487809780002084303D0D3
:10C100004F490120103908554D481A30405B00282E
:10C1100007D1F0198078002803D0494901200E3951
:10C12000085547490120085508460838015D01298E
:10C1300003D1002101552630415300984078012851
:10C1400019D103AA04212046FCF79DF904AA052170
:10C150002046FCF798F96846028AC17B807B6B46D3
:10C1600007C36846437B027B214600E0AAE03548CE
:10C17000303803F0A5FE079802F0E3FC30480021B8
:10C180000A3001553149069840180121FBF748FC57
:10C19000079800F063FB002805D129490598343140
:10C1A0000858002802D02046FFF7C2F80898406AD5
:10C1B0000004000C07D1224905983C31085800E0E2
:10C1C00074E0002802D02046FEF72EFF1C481038ED
:10C1D000005D012812D11A481630415BF2195078DF
:10C1E000127800021043814208D32046FFF70CFA70
:10C1F000134900200E39085528314853F619B078F4
:10C20000012800D0C2E60E480E38005D0128F9D1A1
:10C210000B48001D005D002834D00128F2D1084FE2
:10C220001A37795BB0797279000210438142E9D301
:10C230000028E7D02046FFF707FA00207853A5E64C
:10C24000D4000020ACBD0000B81800202800014632
:10C2500088130000203E205345475B25645D3A5417
:10C2600043505F5345525645525F4D4F44453A53F4
:10C270004F434B4F50454E0D0A000000000201464F
:10C28000E0180020F74F795B3279F37810021843F9
:10C290008142B7D30028B5D02046FFF7D5F900205A
:10C2A00078530121384616380155B8E72046FEF785
:10C2B000BBFE02E7059828580028F7D12046FBF777
:10C2C0005DFD63E601212046FEF784FE2046FFF770
:10C2D00081F9E44A002005991A3250500599083234
:10C2E00050502046FFF757F902460023012120460F
:10C2F000FBF71EFCA04285D102980078012808D1E6
:10C300000198417802780802104302D0D5493239A9
:10C31000C881D4482238015D002907D1F1190A7A71
:10C32000CB791102194301D00121015500984078C1
:10C33000012884D1CB4D103D285D0028C1D1214674
:10C34000C9A003F0BDFD012028551FE6F8B504463D
:10C3500000F08EFA0546A53500F08AFAC14E074670
:10C360003B37323E002C0CD00120307000240121DC
:10C370002046FEF72FFE0A206043385C022819D0C1
:10C380001CE000203070044604212046FEF722FE07
:10C39000641CE4B2022CF7D36878012806D1BCA053
:10C3A00003F08EFDBFA1C348FBF7FEFA0120FEF7A4
:10C3B000DBFD14E0AB4900202C390855641CE4B2C5
:10C3C000022CD4D36878002806D0BBA003F078FDF7
:10C3D000BEA1B848FBF7E8FA0120FEF7D1FD002422
:10C3E0002546A048A1001A30455044380555801C08
:10C3F0000555083005559B496000091F0D52091D60
:10C400000D5208310D520846263805552046142194
:10C410004843B2490746401802F093FBB048381829
:10C4200002F08FFB641CE4B2022CDAD3B570B58144
:10C43000F8BDF8B500F01CFA06463B3600F018FAD5
:10C440000546AC3500F016FA0078012856D0854F25
:10C45000323F3878012851D1787801280FD1002453
:10C460002046FFF7D1F8641CE4B2022CF8D3002078
:10C47000FFF76CFF00207870387801283ED1002447
:10C480000A206043305C002806D0012808D002282A
:10C490000AD003280FD10BE02046FFF7B7FD0AE0D2
:10C4A0002046FFF7F9FB06E02046FFF76CF902E0B3
:10C4B0002046FFF70AF8002C17D08A4F786800282A
:10C4C0000BD008213846FBF7EDF9002802D038469A
:10C4D000FBF7E0F97868C0437860E00040194179E3
:10C4E000012904D0022902D004E0724FE6E7204679
:10C4F00002F08EFC641CE4B2022CC1D3F8BD10B56E
:10C50000044600F0B5F90A214C433B30201840782E
:10C5100010BDF7B584B017460D4600F0A9F9002606
:10C5200004467D340096019602960B2D00D30A2511
:10C530002A466846049904F0C7F8142047433C197A
:10C540000934204604F042F8A84207D120462A4682
:10C55000694603F0E7FF002800D10126304607B006
:10C56000F0BDF8B500243F4E074625460C3E06E0D8
:10C5700031195B4803F0C7FB3555641CE4B2BC427B
:10C58000F6D33848323885704571F8BD70B5054628
:10C5900000F06EF9334C0146323C2078A731012877
:10C5A00001D0002070BD08780028FBD02D4A6079AA
:10C5B0000C3A002806D0012810D002280ED00328FB
:10C5C0001ED117E04878A8421AD1A089E189884293
:10C5D00016D1157001206071A07011E0091849781A
:10C5E000A9420BD1A189E389994207D21554401C75
:10C5F000607105E0A189E289914201D2FFF7B1FFA4
:10C600000020A081607970BD70B50E46044600F030
:10C610002FF905463B3500F02BF921460A235943F3
:10C6200002464B195B78AC320020012B06D0022B5E
:10C6300007D0042B05D0052B12D102E0695C02293A
:10C640000ED1E100891849790120012908D1054955
:10C650001239112E48D0132E02D100200855002087
:10C6600070BD0000EE000020203E205345475B25B2
:10C67000645D3A5443505F434C49454E545F4D4FBF
:10C6800044453A534F434B4F50454E0D0A0000006E
:10C69000203E205345473A4154204D6F64650D0AB2
:10C6A000000000005345473A4154204D6F64650D2A
:10C6B0000A00000000C00040203E205345473A4792
:10C6C00057204D6F64650D0A000000005345473A3E
:10C6D0004757204D6F64650D0A000000B818002010
:10C6E000E018002000D000400120B7E770B50446F4
:10C6F00000F0BEF80546A73500F0BAF801462878E4
:10C70000BC310128ACD1574800780128A8D10A20B3
:10C71000604341184878097800020843A0D0514886
:10C720001230015D002901D1012101554D4A00203F
:10C7300061003A32505293E7F8B500F099F8494E4B
:10C74000BC3000901036002031462631464D0A1F7D
:10C750000446335C002B08D04300CF5AAF4203D2CB
:10C76000CF5A7F1CCF5200E0CC523E4B0A331B5CA9
:10C77000002B08D04300D75AAF4203D2D75A7F1CB0
:10C78000D75200E0D452401CC0B20228E1D3354E4B
:10C79000B089F189884202D2B089401CB081B0785A
:10C7A00000280AD0B089F189884206D1707903281F
:10C7B0001DD0FFF7D6FE7471B4702A4A00201232E1
:10C7C000115C00291CD0274B41003A335F5A0A26DE
:10C7D00003467343009E9E19737836781B023343D9
:10C7E0009F42224B06D25E5A761C5E5208E0012020
:10C7F0007070E0E75C521B4B012114541433195440
:10C8000018491631095C00290AD018494300091D4E
:10C81000CE5AAE4203D2CE5A761CCE5200E0CC5253
:10C82000401CC0B20228CBD3F8BD30B50D4B002060
:10C8300008330D4C194626311A5C012A06D14200F4
:10C840008D5AA54202D28D5A6D1C8D52401CC0B229
:10C850000228F1D303490120087130BDC168006985
:10C86000081A7047BC000020FFFF0000F6000020FF
:10C87000FE487047FD48D8307047F8B5FB48D821CE
:10C880004177002181770546297001266E700C469C
:10C89000A9700D21A81D03F074FF0D22F4A1A81D9D
:10C8A00003F012FFEE702E71192068712A46C02025
:10C8B0002032D073A821117454747B239374D074E4
:10C8C000117554759675FF23D37513765376947648
:10C8D000002210460A21484341190B462033DE76D8
:10C8E0001E77C0205877A8209877DC77022740234E
:10C8F0005F54E34BD7180B4641331F70380A58700A
:10C900009B1C1F703F0A5F70142353435F193B4603
:10C9100061331C77200A58771F33DA481871000AF0
:10C9200058719C460B46A0331C77200A58779B1CF5
:10C930001C77200A5877C0310C704C708C70CC700A
:10C940000C714C717F23DE55CF4963461970090A7B
:10C950005970CB4982373970090AD0004019797073
:10C96000A03004730D2141738673C473047444743E
:10C97000521C8474D2B2C474022AAAD3BB4F0120C1
:10C98000A037B87138460A21813803F0FAFE002634
:10C99000142031464143B5480D18284686300A21F7
:10C9A00003F0EFFE8035761CF6B22C74022EEFD326
:10C9B000AE4808214030C473047441748174C1745A
:10C9C00001752821153003F0DCFE0126FE71FC7292
:10C9D0002B2038727872B872A4480F21C0300174CD
:10C9E00000214174811C0E7400224A740C220275CD
:10C9F000002242750C75200A0D46487516352C70BC
:10CA0000A24928464170090A8170E91C104603F0CA
:10CA100048FF502028720020687228460B30AE7202
:10CA20001E21044603F0ADFE132299A1204603F017
:10CA30004BFE284629302821044603F0A2FE20227E
:10CA400098A1204603F040FEF8BD70B5FEF781FACC
:10CA5000D823864A0021012001F0EAFE834A5123AF
:10CA6000D8320021022001F0E3FE8048817F427F1E
:10CA70000802104302D0934988420ED1FFF7FDFE11
:10CA8000D8237A4A0021012001F013FF774A51236D
:10CA9000D8320021022001F00CFF0024734D012642
:10CAA0000A206043401920300677FEF753FAE10070
:10CAB0004919A031641CE4B20873022CF0D3EE7063
:10CAC0002E711920687170BD10B5D823674A0021F6
:10CAD000012001F0EEFE654A5123D83200210220E8
