:020000040000FA
:10700000A0390020ED710000017D0000F771000043
:107010000000000000000000000000000000000070
:107020000000000000000000000000000D7D0000D6
:107030000000000000000000157D00001D7D000024
:10704000257D00002D7D0000357D00003D7D000088
:10705000457D00004D7D0000557D00005D7D0000F8
:10706000657D00006D7D0000757D00007D7D000068
:10707000857D00008D7D0000957D00009D7D0000D8
:10708000A57D0000AD7D0000B57D0000BD7D000048
:10709000C57D0000CD7D0000D57D0000DD7D0000B8
:1070A000E57D0000ED7D000000F002F800F057F8EB
:1070B0000CA030C8083824182D18A246671EAB460D
:1070C00054465D46AC4201D100F049F87E460F3E81
:1070D0000FCCB6460126334200D0FB1AA246AB467F
:1070E00033431847DCEC0000FCEC000000230024D4
:1070F00000250026103A01D378C1FBD8520700D3EF
:1071000030C100D50B60704710B5642902D109F079
:1071100047FD10BD752902D109F042FD10BD782947
:1071200002D109F073FD10BD632902D10AF0CAFC37
:1071300010BD732902D10AF0CDFC10BD002010BD96
:107140001FB509F083FE0AF035FC04000020002181
:107150000AF04EFE401C60601FBD10B510BD0AF065
:10716000B9FD1146FFF7ECFF04F08BF80AF0E0FDE3
:1071700003B4FFF7F2FF03BC00F0B8FD30B40C49D4
:107180000C684A6823681068C0181060241D121D1E
:107190008C4207D28A4208D20C604A6030BC400060
:1071A000400870470C00DC3CF6E70A00DC3AF3E7E5
:1071B000382D002070B505460C46164602E00FCC6F
:1071C0000FC5103E102EFAD2082E02D303CC03C5F1
:1071D000083E042E07D301CC01C5361F03E02178F9
:1071E0002970641C6D1C761EF9D270BD074880475B
:1071F00007480047FEE7FEE7FEE7FEE7FEE7FEE79B
:1072000004480549054A064B7047000037720000E4
:10721000A9700000A02D0020A0390020A03100207E
:10722000A0310020364800687047354840687047F4
:107230003448006A704710B53348816B334A116196
:10724000C16B304841600021016241698907CA0F62
:10725000012191404269D207D20F9140CAB24169DF
:1072600040698904890E51438002294A800E5043A7
:1072700009F0DBFF2249086010BDF8B5254F012653
:10728000204D01280FD000202862214C10462146B5
:1072900009F0CBFFC0B2012808D8EE616F6101216F
:1072A0000A46134619E02E620C46EFE70021E96119
:1072B000FF2101318006800A084368616869800700
:1072C000C00F86406869C007C00F86406869F2B287
:1072D0008004810E68698002830E2046084C514369
:1072E0006060584309F0A1FF2060F8BD30B4064B40
:1072F0009C6B064D2C61DB6B024C636030BCBCE7C1
:10730000000000200010004180FD03000012004139
:1073100000127A000001020041210906002801D074
:10732000032000E001200860704741210906486001
:1073300070470120412109068860704741200006FE
:10734000C06880B270474120000600690006000E48
:1073500000D0012070470020DEE70000244A244BC3
:1073600001218032984201D111607047204B2033B7
:10737000984201D1116270471E4A1E4B80329842DA
:10738000F2D01C4B20339842F4D0704781688022A1
:10739000914381607047826880239A4382600A68C3
:1073A000026082684B689B0113438A6892001A430B
:1073B000CB6809695B0013431943EF2211408160D8
:1073C000704720220129816802D091438160704773
:1073D0001143FBE70121C16070474069C0B27047AB
:1073E000816880221143816070470160704700000E
:1073F0000010004000200040F0B52122002310269C
:107400005206904201D16A4A08E043221206904295
:1074100002D1674A403201E0654A803201242546A4
:107420000F689D402F40AF4243D10F79012F0DD0FF
:1074300045614D79AD070DD59C001559AD08AD00DE
:107440001551155902273D4315510BE007692F438C
:107450000761EEE79D005759BF08BF0057515759C4
:10746000274357514C79640704D59C0015590427CC
:107470003D4303E09C0015590427BD4315514C7949
:10748000A40604D59C00155920273D4303E09C0029
:1074900015592027BD4315514C79640604D59C002D
:1074A000155940273D4303E09C0015594027BD4333
:1074B00015515B1CB342B1D3F0BD3E4901600021C0
:1074C00001716221417170470246126800200A4230
:1074D00000D0012070470246526800200A4200D0C6
:1074E000012070470A06920D012312189B02D21840
:1074F00011600A0A920010185A0080180160704743
:1075000010B50B069B0D0124CA431B18A4021B19BE
:107510001A60090A8900081861004018026010BD4D
:10752000F0B50126244D002334469C400C420ED079
:10753000002810D0012811D01F4C9F0080343C1926
:107540002768BF08BF0027602768174327605B1CB8
:10755000102BE9DBF0BD9C006419F1E79C00641975
:10756000276CBF08BF002764276C17432764EEE72A
:107570007CB504461E460D466846FFF79EFF6846EA
:107580000095027169462046FFF736FF212040062C
:10759000844201D1002006E043200006844201D14C
:1075A000012000E0022032462946FFF7B9FF7CBDEA
:1075B00000300041FFFF000000200041F8B5044604
:1075C000006B0E46400840002063FFF731FE504F2D
:1075D0000125002846D03D61FFF724FE7A6929463F
:1075E000914009F022FE0746306800010AF0BCF91C
:1075F000009038460AF0B8F900990AF0C1F8074639
:107600000AF06EF900900AF0AFF939460AF04CFC26
:1076100006210AF0ADF90AF089F800223D4B0AF084
:1076200031F80AF05FF8014600986062A162E06AF2
:10763000EE218843B188F288114332890243E06A1F
:1076400011430843E062206B3349B28908407189D5
:1076500011430143206B08432063206B28432063C0
:107660000020F8BD022038617869294681402B4806
:10767000B7E7006880B270470246526800200A42AD
:1076800000D001207047002A826B01D00A4300E03D
:107690008A43826370470246126C00200A4200D07F
:1076A00001207047426C0A434264704710B504469B
:1076B0001B48016B02290AD0006B032807D0FFF793
:1076C000B1FD214609F0B1FD1649086110BDFFF773
:1076D000ACFDF6E710B5FFF7E9FF12498868032211
:1076E0008008800010438860002010BD0D494A6862
:1076F000D207FCD108607047016082691207FCD490
:107700000846704700B50346FFF7F0FF184600BD76
:10771000401100410000E03FFE3CFFFF00127A00F4
:1077200000100041006000401949184808608007B7
:107730008168490849008160704700B50246FFF73B
:10774000F3FF0120800711680160516849008160E2
:107750000F490120086000BD0D480C4901608907F0
:107760008B68012213438B60026070470848074909
:10777000016001218A07D160016070470449034A12
:107780000A609207106001200860704751E5CC1A2A
:10779000000C0040007870470170704730B500243D
:1077A00005E00D19ADB2455D1555641CA4B29C42AF
:1077B000F7D330BD70B5002405E00E19155DB6B2E3
:1077C0008555641CA4B29C42F7D370BD70B51400FB
:1077D0000FD01A4A83049E18F268400795B2184ADF
:1077E000C00A10430A4623462946FFF7E3FF28193B
:1077F000F06070BD70B514000FD0104A83049E185D
:10780000B26A400795B20F4AC00A10430A4623469F
:107810002946FFF7C3FF2819B06270BD10B50029D3
:107820000BD0064A83049B189A6A4007054CC00A8D
:107830005118204389B20818986210BD0002014611
:1078400000000246000003467047704770477047CB
:107850000078704701707047F0B593B0F748FFF7B4
:1078600099FF1190F548401EFFF794FFF34C1090DC
:10787000A41E2046FFF78EFF651E0F902846FFF7D7
:1078800089FF0E90A01DFFF785FF0D90601DFFF78B
:1078900081FF0C90E9480830FFF77CFF0B90E74828
:1078A000C01DFFF777FFE54E0A90B61D3046FFF783
:1078B00071FF0990E01DFFF76DFF0890B01DFFF705
:1078C00069FF0790701DFFF765FF0690301DFFF7F9
:1078D00061FF0590F01CFFF75DFF0490D748103062
:1078E000FFF758FFD54F03900F373846FFF752FF89
:1078F0000290781EFFF74EFF0190F01DFFF74AFF40
:1079000000908021CE48FFF747FFCD48FFF742FFA8
:10791000A01C1199FFF740FF601C1099FFF73CFF76
:1079200020460F99FFF738FF28460E99FFF734FFDE
:10793000A01D0D99FFF730FF601D0C99FFF72CFF7C
:10794000B01C0B99FFF728FF701C0A99FFF724FF62
:1079500030460999FFF720FFE01D0899FFF71CFF4B
:10796000B01D0799FFF718FF701D0699FFF714FF68
:10797000301D0599FFF710FFF01C0499FFF70CFF6D
:10798000781C0399FFF708FF38460299FFF704FFB8
:10799000781E0199FFF700FFF01D0099FFF7FCFE2C
:1079A00013B0F0BDF8B50D4606460024FFF754FFAE
:1079B000002E14D00022B05C521C001952B244B206
:1079C000082AF8DB102C17DC9E4F0024A004315D40
:1079D000C019FFF7E1FE641C64B2082CF6DB002D31
:1079E00019D0002108462A5C401C511840B249B207
:1079F0000828F8DB102902DD0020C043F8BD914EB5
:107A000000242036A004295D8019FFF7C5FE641C00
:107A100064B2082CF6DB0020F8BD10B50446874898
:107A20004130FFF7B7FE207084483D300068608029
:107A300010BD10B501780446002903D07F484130BD
:107A4000FFF7AAFE7D4960883D31086010BD10B582
:107A50007B48FFF79FFE10BD70B50446C720044267
:107A600002D00020C04370BD754D2846FFF792FE3E
:107A7000204301462846FFF78FFE002070BD10B559
:107A800004466E48FFF786FE20706C48401EFFF7E4
:107A900081FE60706948801EFFF77CFEA070674819
:107AA000C01EFFF777FEE0706448001DFFF772FE0E
:107AB00020716248C01CFFF76DFE60715F4808309E
:107AC000FFF768FEA0735D48C01DFFF763FEE0731B
:107AD0005A48801DFFF75EFE20745848401DFFF78E
:107AE00059FE607455480C30FFF754FEA07253489D
:107AF0000B30FFF74FFEE07250480A30FFF74AFEA6
:107B000020734E480930FFF745FE60734B48103034
:107B1000FFF740FEA07149480F30FFF73BFEE071D0
:107B200046480E30FFF736FE207244480D30FFF70E
:107B300031FE607244480178A1744178E174817823
:107B40002175C07860754048401E0078A07510BD52
:107B500010B5044601783948FFF71EFE37486178B2
:107B6000401EFFF719FE3548A178801EFFF714FE6E
:107B70003248E178C01EFFF70FFE30482179001D22
:107B8000FFF70AFE2D486179C01CFFF705FE2B4860
:107B9000A17B0830FFF700FE2848E17BC01DFFF7FE
:107BA000FBFD2648217C801DFFF7F6FD2348617C04
:107BB000401DFFF7F1FD2148A17A0C30FFF7ECFDE5
:107BC0001E48E17A0B30FFF7E7FD1C48217B0A30A5
:107BD000FFF7E2FD1948617B0930FFF7DDFD17482B
:107BE000A1791030FFF7D8FD1448E1790F30FFF785
:107BF000D3FD1248217A0E30FFF7CEFD0F48617A8F
:107C00000D30FFF7C9FD1048A17C0170E17C417087
:107C1000217D8170617DC1700B49A07D491E087076
:107C200010BD10B50C4603000AF0CDF80604101480
:107C3000181C20250846FFF78BFF1AE0036000465A
:107C40000023004600020146190000200846FFF705
:107C500016FF0EE00878FFF7FFFE10BDFFF7F7FEF6
:107C6000207006E00846FFF7E4FE02E00846FFF752
:107C7000D4FE002010BD0020C04310BD70477047E7
:107C8000704710B503F073FD10BD7047704710B515
:107C9000104807F041FA10BD10B50F4807F03CFA44
:107CA00010BD704770477047704770477047704706
:107CB000704710B507F0B1F910BD704770477047B5
:107CC00070477047704770477047704770477047FC
:107CD0007047704700C0004000D0004010B5C0B2EF
:107CE000FFF710FD10BD0020C0437047FEE770474E
:107CF00010B509F05FFE001D10BD00BFF5A000002B
:107D000010B5FFF7BBFF10BD0708090010B5FFF75E
:107D1000B6FF10BD10B5FFF7B3FF10BD10B5FFF7EC
:107D2000B0FF10BD10B5FFF7B0FF10BD10B5FFF7E5
:107D3000ADFF10BD10B5FFF7AAFF10BD10B5FFF7DE
:107D4000ABFF10BD10B5FFF7ACFF10BD10B5FFF7CE
:107D5000A9FF10BD10B5FFF7A6FF10BD10B5FFF7C6
:107D6000A3FF10BD10B5FFF7A0FF10BD10B5FFF7C2
:107D70009DFF10BD10B5FFF79AFF10BD10B5FFF7BE
:107D800097FF10BD10B5FFF794FF10BD10B5FFF7BA
:107D900094FF10BD10B5FFF791FF10BD10B5FFF7B0
:107DA0008EFF10BD10B5FFF78BFF10BD10B5FFF7AC
:107DB00088FF10BD10B5FFF785FF10BD10B5FFF7A8
:107DC00082FF10BD10B5FFF77FFF10BD10B5FFF7A4
:107DD0007CFF10BD10B5FFF779FF10BD10B5FFF7A0
:107DE00076FF10BD10B5FFF773FF10BD10B5FFF79C
:107DF00070FF10BD70B50446082802D90020C043AA
:107E000070BDFA48A604301805461021FFF7C4FCDF
:107E10002846FFF7BFFC0028FAD1F4481F2118308C
:107E20003018FFF7B9FCF24801218288A1408A434B
:107E30008280F04A002061005052ED49891D0855AA
:107E4000EA48203034182046FFF7A4FC0028FAD175
:107E5000012070BDF8B51C4616460F460546082899
:107E600002D90020C043F8BD012F06D0022F04D054
:107E7000042F02D00420C043F8BD6007810FDE4804
:107E8000FAD1002C0CD0012F02D0022F08D103E030
:107E900021210C42F0D003E0A10601D52106EBD54B
:107EA0002846FFF7A7FF21090901D0483943AF044D
:107EB00010383818FFF770FC002E0AD1CC48CF4A92
:107EC0000688711C89B20180914202D10321890385
:107ED0000180C648F03038184661C448012138187E
:107EE0000646FFF759FC3046FFF754FC0028FAD14C
:107EF000BF48E107C90F4288A940114341800121D1
:107F00008288A9408A438280BA4A00206900505280
:107F1000B749891D4855B54820303C182046FFF721
:107F200039FC0028FAD068B2F8BD70B506460828BA
:107F300002D90020C04370BDAC48B40410382018EA
:107F4000FFF728FC0007000F012802D00420C043DF
:107F500070BDA648203020180546FFF71BFC1328EB
:107F600002D00220C04370BDA04802212018044660
:107F7000FFF712FC2046FFF70DFC0028FAD1284637
:107F8000FFF708FC142805D03046FFF733FF032025
:107F9000C04370BD012070BDF7B50D4607460828E7
:107FA00002D90020C043FEBD9048BC041038201800
:107FB000FFF7F0FB0007000F012802D00420C043A8
:107FC000FEBD8A48203020180646FFF7E3FB132841
:107FD00002D00220C043FEBD29786A7808028018CA
:107FE000AA7800028018EA7800028018421C32D079
:107FF000002830D00298002830D081482018FFF7A0
:10800000CBFB7F486978401E2018FFF7C5FB7C48F2
:10801000A978801E2018FFF7BFFB7948E978C01EB9
:108020002018FFF7B9FB76490298273961180862D2
:108030006E48042120180546FFF7AEFB2846FFF7DF
:10804000A9FB0028FAD16A4901204988B8400842B2
:108050001CD00020FEBD0B20C043FEBD0A20C04343
:10806000FEBD2846FFF796FB000708D55F480821AC
:1080700018302018FFF790FB0C20C043FEBD30469F
:10808000FFF788FB002804D1001FFEBD57481030C1
:1080900025183046FFF77EFB1728E2D10120FEBDF0
:1080A00070B50646082802D90020C04370BD4F486D
:1080B000B50410382818FFF76DFB0007000F0128E2
:1080C00002D00420C04370BD484808212818044647
:1080D000FFF762FB2046FFF75DFB0028FAD1444919
:1080E00001208A88B04082438A80498808420CD0A7
:1080F000002070BD2046FFF74DFB00070BD5304632
:10810000FFF778FE0C20C04370BD384810302C18A3
:10811000364820302D182846FFF73CFB0028E9D1CF
:10812000012070BDF7B582B002981446082803D923
:108130000020C04305B0F0BD86042C48103830182C
:10814000FFF728FB0007000F012802D00420C043DE
:10815000F0E7002C0CD02548203030180190FFF7B4
:1081600019FB172807D01C2805D00620C043E1E7DB
:108170000D20C043DEE7029801251D4F8540B888D9
:10818000054211D0194810303018FFF703FBC00624
:10819000C00EC10621D51548102118303018FFF740
:1081A000FBFAB888A843B8801548D9303018009039
:1081B000FFF7F0FA8006000C844200D904460098CC
:1081C000406887B20198FFF7E5FA17281AD01C28F3
:1081D00018D00298FFF70EFEC7E7000718D50298DF
:1081E000FFF708FE0C20C043A4E700001000014682
:1081F0000800002074030020FAFFFFFFF0FF0000DA
:1082000027010146FE484088054203D0BC4201D9FF
:1082100000208FE7BC42D2D8224603990298FFF78C
:10822000D5FAF848202130180646FFF7B5FA30464F
:10823000FFF7B0FA0028FAD1F14881880D43858014
:10824000204677E7F7B582B002981446082802D98D
:108250000020C0436EE78704EA4810383818FFF75B
:1082600099FA0007000F012802D00420C04361E7FB
:10827000002C19D0E4483818FFF78CFA8006000C5F
:10828000A04200D20446DF48203038180090DE4873
:1082900020383E18706A85B20098FFF77BFA1728DD
:1082A00015D01C2803D00CE00D20C04342E7002D60
:1082B0001AD13046FFF76EFA7168800289B288429F
:1082C00005D10298FFF796FD0620C04332E70299D8
:1082D00001208840CA494988084203D0002D03D1B3
:1082E000002027E7002DD5D0A54200D22C462246FB
:1082F00003990298FFF77EFAC248402138180546D4
:10830000FFF74AFA2846FFF745FA0028FAD1204637
:1083100010E7FFB583B003981E461546082803D919
:108320000020C04307B0F0BD8404B64810382018C0
:10833000FFF730FA0007000F022804D0042802D00B
:108340000420C043EEE7002D1DD030787178000284
:108350004018B17800024018F1780002C84202D1FA
:108360000B20C043DEE70C9800280FD0A548203032
:1083700020180746FFF70EFA42280AD0222808D014
:108380000620C043CEE70D20C043CBE70A20C04300
:10839000C8E79D483178F9382018FFF7FDF99A4869
:1083A0007178FA382018FFF7F7F99748B178FB3859
:1083B0002018FFF7F1F99448F178FC382018FFF7FE
:1083C000EBF990490C98F031611808628E4820381A
:1083D00020180190FFF7DEF98006000C854200D9D5
:1083E000054603990120884000900198406886B2B4
:1083F0003846FFF7CFF9002808D08149009849880E
:10840000084206D0B54204D900208BE70320C043C0
:1084100088E7B542E9D82A4604990398FFF7D6F9C8
:108420007848202120180746FFF7B6F9754818301C
:1084300026183846FFF7AEF90028FAD171481030F7
:1084400024182046FFF7A6F9C006C00EC10605D5C0
:1084500030461021FFF7A0F9284663E70007F0D562
:1084600030460821FFF798F90C20C0435AE7FFB5C2
:10847000002485B00646082802D9601E09B0F0BD68
:108480006048B50410382818FFF784F904900007F5
:10849000000F022804D0042802D00420C043EDE7D6
:1084A0000798002805D059487700C05B002803D002
:1084B00022E00D20C043E1E75348203828180390FC
:1084C0005048203028180125B54002900398406A92
:1084D00084B20298FFF75EF9002806D04848408829
:1084E000054207D0002C03D006E00320C043C5E7B7
:1084F0000020C3E7002CE9D041480021801D8155B0
:108500000498B20441073F48490F151802291FD0AB
:10851000042957D021463046FFF780F93B48C45321
:1085200028464021FFF738F92846FFF733F900289D
:10853000FAD13648C15B091B0904090CC15305D0A7
:108540002F480122801D815D11438155204695E70A
:108550002E4CE05B002865D1082269463046FFF7C3
:1085600049F928464021FFF717F92846FFF712F985
:108570000028FAD168460178089801706846417869
:108580000898417068468178089881706846C1787B
:108590000898C17068460E99007908800102684603
:1085A000407908180E99088068468079010268466B
:1085B000C0790818E05332E0224630460699FFF7AA
:1085C00019F9ADE7114CE05B00282BD10222694676
:1085D0003046FFF70FF928464021FFF7DDF828461F
:1085E000FFF7D8F80028FAD16846007801026846FB
:1085F0004078081880B20649E05388420FD909E054
:1086000008000020100001462002014674030020EB
:10861000EA0500003046FFF7EDFB9E482EE79E4935
:1086200080208855E45B07988442C5D90446C3E797
:10863000F8B514460646082802D90020C043F8BD04
:10864000954B96489B1F0927B2045D88FF4310187D
:108650000B0009F0B8FB0805171B1D252E3731400C
:1086600021780120B040012902D0002905D032E054
:108670008949891F284348802BE08749891F854302
:108680004D8026E0F540E807C00F19E0844801E07E
:10869000834820301018FFF77DF88002208018E012
:1086A00020781F2817D8C1067C48C90E001D101855
:1086B0000DE07A48001F1018FFF76CF8C006C00ED6
:1086C000207006E021781F2905D8C906C90EFFF7DA
:1086D00063F80120F8BD3846F8BDF8B515460828FE
:1086E00002D90020C043F8BD84046D4B6B4A6B482F
:1086F000803BDC3224380427E618A2182018FF43F8
:108700000B0009F060FB084F050910421316444F97
:1087100062482978E43002E060482978E030201887
:10872000FFF73AF831E0288810612EE028881062BF
:108730002BE0FFF72FF80007000F01282DD130465E
:10874000FFF728F8002802D00120C043F8BD5348A5
:108750002221143820180546FFF71EF84F48001F45
:1087600026180DE03046FFF715F8000708D54B48EE
:108770000821001D2018FFF70FF80C20C043F8BD9A
:108780002846FFF707F80028ECD10120F8BDFFF7D5
:1087900001F80007000F012801D03846F8BD2978FC
:1087A0003046BDE70920C043F8BDF8B5144606467B
:1087B000082802D90020C043F8BDB5043748374A1D
:1087C000374B2438DC32EF182818AA180B0009F0B0
:1087D000FAFA0D080D121517305E323E404248522B
:1087E0005E00FEF7D7FF0009000102E02B48E430ED
:1087F00033E020703DE02948E0302EE01069F8E7D2
:108800002748D9382818FEF7C5FF20702448DA38E1
:108810002818FEF7BFFF60702148DB382818FEF7E4
:10882000B9FFA0701E48DC382818FEF7B3FFE070CF
:108830001FE0106A1CE0FEF7ADFF0007000F0128E3
:108840001FD1174880382818FEF7A4FF10E0786879
:108850000EE0786A0CE011480C302818FEF79AFFF9
:10886000C7E7FEF797FF0128F3D00E497000085ABA
:1088700020800120F8BDFEF78DFF0007000F0128C2
:1088800002D00420C043F8BD0348805DB1E7012059
:10889000C043F8BD17FCFFFF0E0000202400014676
:1088A000000201467403002070B5744C0546208810
:1088B000286161882846FEF715FE012002F047FF77
:1088C00061882846FEF71CFE012002F040FF70BDC3
:1088D000F8B507460020694D0446460069883846C9
:1088E000FEF700FE012002F032FF69883846FEF7ED
:1088F00007FE012002F02BFF29883846FEF7E4FD31
:108900003043641C102CE8D3F8BD70B55B4C0546B1
:1089100020886861012002F01AFF61882846FEF76E
:10892000E1FD012002F013FF61882846FEF7E8FD13
:10893000012002F00CFF70BDF8B507461646202056
:10894000801B81400C464D4D18E02988002C38468C
:1089500002DAFEF7C7FD01E0FEF7D2FD012002F0CA
:10896000F6FE69883846FEF7BDFD012002F0EFFEF5
:1089700069883846FEF7C4FD6400761E002EE4D1F7
:10898000F8BD70B50C461646002105462022C943A5
:10899000FFF7D2FF042205212846FFF7CDFF374815
:1089A000052241682846FFF7C7FF052221462846D1
:1089B000FFF7C2FF022211462846FFF7BDFF102233
:1089C00031462846FFF7B8FF2846FFF76DFF70BD18
:1089D000F8B5002543273F06002400212022C94383
:1089E0003846FFF7A9FF042206213846FFF7A4FF07
:1089F000052221463846FFF79FFF05220121384610
:108A0000FFF79AFF3846FFF780FF3846FFF760FF11
:108A100006463846FFF748FF002E02D01848864227
:108A200009D1641C082CD8DD6D1CEDB215A008F02E
:108A300043F8022DD0D32046F8BD7CB50546144638
:108A40000E466846FEF739FD30462043009001206F
:108A5000694608712846FEF7CFFC012221461046E0
:108A6000FEF75EFD012231461046FEF759FD034D2B
:108A70006E802C80FFF7ACFF68607CBD400000205A
:108A8000FFFF00000D0A7068792069642064657436
:108A9000656374206572726F7221210D0A000000F7
:108AA00010B5FE4CFE482178FEF776FEFC48617852
:108AB000401EFEF771FEFA48A178801EFEF76CFE9C
:108AC000F748E178C01EFEF767FEF54808342178C4
:108AD000001FFEF761FEF2486178401FFEF75CFE62
:108AE000EF48A178801FFEF757FEED48E178C01FE0
:108AF000FEF752FEEA48241F21780838FEF74CFEA4
:108B0000E74861780938FEF747FEE548A1780A385A
:108B1000FEF742FEE248E1780B38FEF73DFE10BD5D
:108B200010B5E04C80212046FEF736FE2046FEF7C9
:108B300031FEFFF7B5FFD94CD948393421781038C8
:108B4000FEF72AFED64861781138FEF725FED44894
:108B5000A1781238FEF720FED148E1781338FEF7ED
:108B60001BFECF4821790C38FEF716FECC48617900
:108B70000D38FEF711FE10BD10B5CA4C80212046FD
:108B8000FEF70AFE2046FEF705FEC44CC448393401
:108B900021781038FEF700FEC14861781138FEF7E1
:108BA000FBFDBF48A1781238FEF7F6FDBC48E1781E
:108BB0001338FEF7F1FDBA4821790C38FEF7ECFDC9
:108BC000B74861790D38FEF7E7FD10BDB34B10B51E
:108BD000DB1FB54C5C62B54C9C62B54CDC62002876
:108BE00000D05862002900D09962002A00D0DA62D1
:108BF00010BD30B5A94B0120DB1FD96B0870487040
:108C0000062088700020C8709A6B120E0A719A6B49
:108C1000120C4A711A8F120A8A711A8FCA71D96B93
:108C2000802208818A72C872D96B1A460873487309
:108C30008873C873087448748874C8740875487554
:108C40008875C875087648768876C8764032147874
:108C50000C7754784C7794788C77D478CC770C4612
:108C60001579203425705279627006228C18521CB6
:108C7000D2B22077102AF9D3DA6B002154182034AD
:108C8000491CC9B220734029F8D3DA6B002154186B
:108C90006034491CC9B220738029F8D3D86B632192
:108CA000E03001738222427353228273C17330BD5C
:108CB000FEB5FFF79EFF7949002029310870487002
:108CC0008870C870091D087048708870C870343981
:108CD000CB6B3522F021CA540127F121CF54F22168
:108CE000CF543D22F321CA540722F421CA54F5215E
:108CF0006A4ACF5439321478F621CC5411464C7854
:108D0000F721CC541446A578F824E5541446E578A8
:108D1000F924E55414462579FA24E5541446657976
:108D2000FB24E5540C21FC24E154FD21C8541221FC
:108D3000941D06E05E18E036491C401C357389B26C
:108D400080B2255C002DF5D1544CD578E41FE36B3F
:108D50005E18E0363573491C89B25E181579E03625
:108D60003573491C89B25D185279E0352A73491C64
:108D700089B2C21C081AC018E0300272E06B3722B8
:108D80004318E0331A73491C89B243180622E033B2
:108D9000491C1A7389B24318E033491C1F7389B206
:108DA00043180325E033491C1D7389B24318E0338F
:108DB0001A73491C89B243180F22E0331A73491CF5
:108DC00089B242183A23E0321373491C89B242181F
:108DD0003B23E0321373491C89B2FF224318E0336E
:108DE0001A73491C0025FF2389B2393304E0461861
:108DF000E036491C357389B29942F8D3684602714E
:108E000042718271C27143200090892201AB9200AD
:108E1000A078E16BFFF77DFAFEBDFEB5FFF7E9FE36
:108E20001E4C0020E41FE11D20560B462933FF276E
:108E3000032849D0042847D06846077147718771D5
:108E4000C771E26B3520F025A8540120F125A85404
:108E50000320F225A8543D20F325A8540720F4252B
:108E6000A8540120F525A8540C48F625393000787F
:108E7000A8540A48F72539304078A8540748F825FF
:108E800039308078A8540548F9253930C078A8547D
:108E9000024839300079FA25A8540BE04F00002031
:108EA0001360004600230046A18A0000218B0000C9
:108EB000798B0000FC48FB254079A8546D46ED797C
:108EC0001020FF2D16D039E0E06B00228272C272B2
:108ED0000A7802734A7842738A788273CA78C273B6
:108EE0001A78684602715A7842719A788271DA78F3
:108EF000C271A6E73225FC2085540425FD20855447
:108F00000E78FE2086544E78FF2086548878AE0175
:108F1000B054C978701C81543621401C8154401CC7
:108F200085541978401C81545978401C8154997893
:108F3000401C8154D978401C81541C2013180C21EA
:108F4000E0331973401C1318D74D0021E033AD1DD9
:108F50001973401C05E01618E036401C337380B2CC
:108F6000491C6B5C002BF6D1E36BCF4A1E18D578F9
:108F7000E0363573401C80B21E181579E036357323
:108F8000401C80B21D185279E0352A73401C82B211
:108F9000C81C511AC918E0310872E06B37218318D8
:108FA000E0331973521C91B243180822E0331A734C
:108FB000491C89B243180122E0331A73491C89B253
:108FC00043180322E0331A73491C89B2431806225E
:108FD000E0331A73491C89B243180F22E0331A7325
:108FE000491C89B242183A23E0321373491C89B2F2
:108FF0004218E0323B23491C137389B21F234218E5
:10900000E0321373491C89B242182123E0321373F2
:10901000491C89B24218E0321773491C0022FF2311
:1090200089B2393303E04518E0352A73491C994267
:10903000F9DB43200090892201AB9200A078E16B1C
:10904000FFF767F9FEBD1CB5FFF7D3FD9648002179
:109050004038C06B35228172C172F0210A5401225E
:10906000F1210A540422F2210A543D23F3210B5426
:109070000722F4210A540122F5210A548A49F622D2
:109080000B7813544B78F72213548B78F82213542F
:10909000CB78F92213540B79FA2213544A79FB2125
:1090A0000A543222FC210A540422FD210A547E492A
:1090B00039390A78FE210A547B4939394A78FF2127
:1090C0000A54794939398A78FF2101310A5476499D
:1090D0003939CA78FF2102310A543622491C0A5410
:1090E0000422491C0A547049FF2210390B780532BA
:1090F00013544B78521C13548B78521C1354CA7857
:10910000FF2108310A54FF22491C0A541D21002363
:10911000FF2239324418E034491C23739142F9DBB1
:10912000FF206946087148718871C871432000901A
:109130005D4889224038C16B01AB92008078FFF70F
:10914000E8F81CBDF0B5584C584A403CA07885B0B2
:1091500081048918496A0A04120C5BD003A90091A2
:1091600001ABE16BFFF783F983B26846808943283E
:1091700070D1E06B4C49027F0D78AA424AD1427F00
:109180004D78AA4246D1827F8D78AA4242D1C57FCE
:10919000CA7895423ED102462032154616780A79A1
:1091A000964237D16A7849798A4233D121463031A3
:1091B0000D780A1D002D08D14E78002E05D18E782D
:1091C000002E02D1CE78002E27D06E463679AE42E0
:1091D0000ED16D466D794F78BD4209D16D46AD799E
:1091E0008F78BD4204D16D46ED79CF78BD4214D061
:1091F0001578AE420ED16D466D795678B54209D1DB
:109200006D46AD799678B54204D16D46EE79D57844
:10921000AE4202D0002005B0F0BDF0300025C318EA
:10922000F03B15E00678332E42D008DC002E15D036
:10923000012E18D0032E21D0062E06D124E0352E83
:109240000ED0362E43D0FF2E06D04678801C8019D3
:109250009842E7D368B2DEE71846F9E7401CF7E723
:109260008578C01CF4E7104E8778313E3770C77898
:1092700077700779B7704779F7703CE04678877860
:10928000B446094E353E04E046788778B446064E2B
:109290002D3E3770C77877700779B7704779801D92
:1092A0006044F770001FD3E78800002000020146E9
:1092B0008678A661C7783602BF19A76106793F0292
:1092C000F719A76146793F02F619A66113E086787F
:1092D0000E70C6784E7006798E704679CE706E46E6
:1092E000367916706E46767956706E46B6799670F7
:1092F0006E46F679D670801DAAE7E8480021C16164
:10930000052202624170704770B5E44C0125615737
:10931000002622469057022917DAE269216A914213
:1093200023D2012804D0022805D0042805D102E068
:10933000FFF7BEFC01E0FFF770FDE661E069401D4C
:1093400020626078401C60700FE0012804D0022881
:1093500005D0042807D102E02670002503E0FFF7BE
:10936000A7FC01202070FFF7C8FF284670BDF8B5A4
:10937000CB4E3046FEF70EFA054603213046FEF787
:109380000BFAC64BC748DB1DDC1F00901122C6A19B
:10939000A078FEF7BEFF074629463046FEF7FCF9E7
:1093A0000D3708D0FFF74FFEE069E169091A02297D
:1093B000FBD30020F8BD0120F8BDF8B5B74C2078EC
:1093C00006281ED0A078BD4980044018FEF7E2F9B7
:1093D000222805D0002344220221A078FEF73AFD7E
:1093E0000125FFF7AFFEC1B20022A256AB4800260E
:1093F0000127C01D130008F0E6FC05060D1C314CCA
:109400002F000520F8BD067046708670C670FFF705
:109410004FFC5EE002291CD1E16B0A7C02704A7CA1
:1094200042708A7C8270C97CC170FFF7F6FC022012
:109430004BE005290BD1FFF79AFF002801D0606AA5
:109440003FE0FFF75AFFE06A8047267004E00629F4
:109450003DD0FFF759FF05462846F8BDA169042510
:109460004A1CF9D0E26949089142F5D28B49027849
:10947000C91C0A7042784A7082788A70C078C870B5
:10948000A06B401CA063FFF7C8FCFFF736FF042069
:109490001BE004250529DAD180496670C91C0A78C9
:1094A00003789A420BD14A7843789A4207D18A7856
:1094B00083789A4203D1C978C078814202D0A06AE9
:1094C00003258047FFF719FF03202070C4E7FFF74B
:1094D00014FF2770C0E710B5704CA078FEF78AFC27
:1094E0000620207010BDF3B56D4F83B006460025F1
:1094F000413F38460095FEF74DF9684C40342070E6
:10950000781EFEF747F96070B81EFEF743F9A070A9
:10951000F81EFEF73FF9E070381DFEF73BF92071A9
:10952000F81CFEF737F96071014620786278E3781D
:109530001043A2781A4310432279104308431FD1E5
:10954000257008206070DC20A070E5702571294628
:1095500065713846FEF720F96178781EFEF71CF930
:10956000A178B81EFEF718F9E178F81EFEF714F995
:109570002179381DFEF710F96179F81CFEF70CF916
:10958000464F4F49BE700498F863E07863794218FB
:1095900021798A1848409A1858408018B86368465C
:1095A00001783F480C463138FEF7F6F868464078B7
:1095B000029001463A483238FEF7EEF86846807865
:1095C0000190014636483338FEF7E6F86846C6781B
:1095D000334831463438FEF7DFF831482146313818
:1095E000FEF7DAF82E4802993238FEF7D5F82C4803
:1095F00001993338FEF7D0F8294831463438FEF760
:10960000CBF8274821463938FEF7C6F82448029996
:109610003A38FEF7C1F8224801993B38FEF7BCF80A
:109620001F4831463C38FEF7B7F8FFF766FE3D703D
:10963000F1E51A48C169491CC16170471749C91D44
:109640000A7802704A7842708A788270C978C1704C
:10965000704712490B310A7802704A7842708A7852
:109660008270C978C17070470C490F310A78027056
:109670004A7842708A788270C978C1707047074909
:1096800013310A7802704A7842708A788270C978F9
:10969000C170704701488069704700004800002091
:1096A0004460004688130000434845434B5F4950DF
:1096B0005F434F4E464C4943540000003000014682
:1096C00078563412017840780902401880B2704709
:1096D0000A0A02704170801C7047F0B58446002071
:1096E000054606460C78491C002D00D1401C270673
:1096F000BF0F032F0AD1002D00D1401CA40609780A
:10970000A40C6444091901250C78491C002C19D0BB
:109710001B1B5B1E1BB2002B02DA0020C043F0BDF6
:10972000002D05D1001903E00F781770491C521C59
:109730002746641EA4B2002FF6D12E241470521CAA
:10974000761CCFE7002E02D12E211170521C002171
:109750001170F0BD10B593B00C464B236A46FFF76D
:10976000BCFF411C03D02018001D13B010BD002009
:10977000FBE770B593B015460C4606464B236A4688
:10978000FFF7ABFF411C46D024182046FFF79AFF95
:109790000A34030008F017FB103C09133C3C132962
:1097A0001313133C3C13183C1F3C2078287060783E
:1097B0006870A078A870E078E870241D28E04B233A
:1097C0006A460BE0241823E02078641C20180178F6
:1097D000401C44181CE04B236A46A41C214630461A
:1097E000FFF77BFF411C16D0ECE74B236A4621466E
:1097F0003046FFF772FF411C0DD024184B236A46F8
:1098000021463046FFF769FF411C04D02418143468
:10981000204613B070BD0020FBE7F7B50D460446A7
:10982000122107F070FC2846FFF74CFF2080A81C8F
:10983000FFF748FF02040121002A00DAA170420468
:10984000120FE270420500D52171820500D56171C9
:10985000C20500D5A171020600D5E1710007000F15
:109860002072281DFFF72EFF6081A81DFFF72AFF39
:10987000A08128460830FFF725FFE08128460A30FE
:10988000FFF720FF29460C3100262082771E06E0D4
:109890002846FFF75FFF010014D0761CB6B260893E
:1098A000B042F5D8002607E02846029AFFF761FF8C
:1098B000010007D0761CB6B2A089B042F4D80020CF
:1098C000E18903E03846FEBD401C80B28142FBD8EE
:1098D0000020218A01E0401C80B28142FBD8207A1E
:1098E000002801D00020FEBD0120FEBDFFB55E4A6C
:1098F0000D46518895B00346491C89B2179851808E
:10990000FFF7E6FED902FF31013189B2FFF7E0FE31
:109910000121FFF7DDFE0021FFF7DAFE0021FFF74E
:10992000D7FE0021FFF7D4FE04462946684607F01B
:10993000E9FA6E46304607F00BFB80B213902E21F9
:10994000304607F093FA070002D0B81B85B200E05A
:10995000139D2570641C002D12D02A4631462046E6
:1099600007F0D6FB6419002F07D013987619401B17
:10997000401E80B2761C1390E1E700202070641C2A
:1099800001212046FFF7A4FE0121FFF7A1FE179950
:1099900019B0401A00B2F0BD3348816803290BD3D7
:1099A000002282600178022902D30270501E7047A3
:1099B000491C017000207047012070472A4A5070EE
:1099C0002A48516050807047F7B5274C0D46002358
:1099D00088B01A4602216078FEF73CFAFF2601366D
:1099E0003346294600206268FFF780FF3525009541
:1099F00082B2089B60786168FEF78BFC1C4F607830
:109A00008004C019406A05042D0C16D0B54200D957
:109A1000354607A8009006AB2A4660786168FEF7D5
:109A200026FD0A9A01A86168FFF7F7FE05466078EF
:109A3000FEF7E0F928460BB0F0BDFFF7ADFF0028B8
:109A400001DA0020F7E70028D9D1352000902A4616
:109A5000089B60786168FEF75CFCD0E7024881688B
:109A6000491C81607047000098000020221100000E
:109A70000002014601463039092901D8C8B27047B1
:109A800001466139052901D8573804E001464139BA
:109A90000529F4D83738C0B27047F8B50025064616
:109AA0002C4611E0705525280CD1301900904078D3
:109AB000FFF7E0FF070100988078FFF7DBFF381819
:109AC0007055A41C641C6D1C305D0028EAD17055D3
:109AD000F8BD3EB50546012931D0022931D0032910
:109AE00031D0042931D0052931D0092931D00A29B2
:109AF00031D00C2931D00B2931D0082931D00D2992
:109B000031D00E2931D0142931D0152931D0162960
:109B100031D0172931D0182931D000248CA16846C2
:109B200006F0D8FF2146284607F0ECF9694628469A
:109B300007F080FA87A1284607F07CFA3EBD874CE3
:109B4000ECE787A4EAE795A4E8E7A3A4E6E7B14C2D
:109B5000E4E7B14CE2E7B1A4E0E7BF4CDEE7BF4C7D
:109B6000DCE7BFA4DAE7CDA4D8E7DBA4D6E7EA4C6C
:109B7000D4E7EA4CD2E7EA4CD0E7EA4CCEE7EAA4D5
:109B8000CCE770B50D460446F7A1284607F078F9F2
:109B9000002805D1F6A1284607F072F9002801D067
:109BA000012006E0F4A1284607F06AF9002802D057
:109BB0000220207070BDF2A1284607F061F900284C
:109BC00005D1F1A1284607F05BF9002801D0032058
:109BD000EFE7EFA1284607F053F9002805D1EEA1E1
:109BE000284607F04DF9002801D00420E1E7ECA158
:109BF000284607F045F9002801D00520D9E7EAA159
:109C0000284607F03DF90826002805D1E8A1284696
:109C100007F036F9002801D0267070BDE6A128466D
:109C200007F02EF9002805D1E5A1284607F028F90C
:109C3000002801D00C20BCE7E3A1284607F020F95A
:109C4000002805D1E1A1284607F01AF9002801D023
:109C50000B20AEE7D6A1284607F012F90028DBD189
:109C6000D1A1284607F00CF90028D5D1D8A1284663
:109C700007F006F9002805D1D7A1284607F000F91A
:109C8000002801D0092094E7D5A1284607F0F8F86C
:109C9000002805D1D4A1284607F0F2F8002801D009
:109CA0000A2086E7D2A1284607F0EAF8002805D165
:109CB000D1A1284607F0E4F8002801D00D2078E76C
:109CC000CFA1284607F0DCF8002805D1CEA1284610
:109CD00007F0D6F8002801D00E206AE7CCA128466C
:109CE00007F0CEF8002805D1CBA1284607F0C8F828
:109CF000002801D014205CE7C9A1284607F0C0F86D
:109D0000002805D1C8A1284607F0BAF8002801D0DC
:109D100015204EE7C6A1284607F0B2F8002805D165
:109D2000C5A1284607F0ACF8002801D0162040E76E
:109D3000C3A1284607F0A4F8002805D1C2A12846EF
:109D400007F09EF8002801D0172032E780E10000DC
:109D5000256C64000D0A0D0A000000004456010045
:109D6000485454502F312E3120323030204F4B0D7B
:109D70000A436F6E74656E742D547970653A20696C
:109D80006D6167652F6769660D0A436F6E74656E56
:109D9000742D4C656E6774683A2000004854545026
:109DA0002F312E3120323030204F4B0D0A436F6E51
:109DB00074656E742D547970653A20746578742FCB
:109DC000706C61696E0D0A436F6E74656E742D4C14
:109DD000656E6774683A2000485454502F312E3114
:109DE00020323030204F4B0D0A436F6E74656E7415
:109DF0002D547970653A20696D6167652F6A7065C9
:109E0000670D0A436F6E74656E742D4C656E6774D2
:109E1000683A2000345701009856010048545450C5
:109E20002F312E3120323030204F4B0D0A436F6ED0
:109E300074656E742D547970653A20746578742F4A
:109E40006373730D0A436F6E74656E742D4C656E8B
:109E50006774683A20000000845701001858010018
:109E6000485454502F312E3120323030204F4B0D7A
:109E70000A436F6E74656E742D547970653A207460
:109E80006578742F68746D6C0D0A436F6E74656E1F
:109E9000742D4C656E6774683A2000004854545025
:109EA0002F312E3120323030204F4B0D0A436F6E50
:109EB00074656E742D547970653A20696D616765BB
:109EC0002F706E670D0A436F6E74656E742D4C654E
:109ED0006E6774683A200000485454502F312E3178
:109EE00020323030204F4B0D0A436F6E74656E7414
:109EF0002D547970653A20696D6167652F782D69F9
:109F0000636F6E0D0A436F6E74656E742D4C656ED3
:109F10006774683A20000000A4550100F455010060
:109F2000EC560100C8570100485454502F312E31CF
:109F300020323030204F4B0D0A436F6E74656E74C3
:109F40002D547970653A20696D6167652F73766766
:109F50002B786D6C0D0A436F6E74656E742D4C65B5
:109F60006E6774683A2000002E68746D000000006F
:109F70002E68746D6C0000002E676966000000009A
:109F80002E746578740000002E7478740000000050
:109F90002E6A7065670000002E6A7067000000007E
:109FA0002E737766000000002E63676900000000D2
:109FB0002E434749000000002E6A736F6E000000B8
:109FC0002E4A534F4E0000002E6A73002E4A530053
:109FD0002E786D6C000000002E584D4C00000000E3
:109FE0002E637373000000002E43535300000000E3
:109FF0002E706E67000000002E504E4700000000DB
:10A000002E69636F000000002E49434F00000000DE
:10A010002E747466000000002E54544600000000A8
:10A020002E6F7466000000002E4F544600000000A2
:10A030002E776F66660000002E574F4646000000E0
:10A040002E656F74000000002E454F540000000084
:10A0500085A1284606F014FF002806D184A12846D1
:10A0600006F00EFF002800D1A3E51820A1E570B589
:10A070000A46044680A1104606F0F0FE002605467A
:10A0800000283CD07DA107F079F800281FD07CA1E2
:10A09000284607F073F8002819D07AA1284607F05F
:10A0A0006DF8002815D079A1284607F067F8002838
:10A0B0000FD078A1284607F061F8002811D077A1C9
:10A0C000284607F05BF800280BD0267012E001202C
:10A0D00000E00220207068A1002006F0BFFE0546C7
:10A0E00006E062A1002006F0B9FE054603202070BC
:10A0F000002D04D02946A01C06F004FF70BD267078
:10A1000070BD70B50E460546002404E06D1CFFF7D7
:10A11000B1FC744304192878002801D02028F5D117
:10A12000A0B270BDF8B51D4616460C4606F0A8FE56
:10A130000746204606F00CFFC4193146204606F0BB
:10A140009FFE001B86B232462146284606F0E0FFFD
:10A150000020A855F8BDF0B5002689B00D46074689
:10A160001446039604960596002842D0002D40D050
:10A1700003AB4CA24CA1FFF7D5FF0A2103A8FFF7C0
:10A18000C0FF00904D49384606F07AFE0099001D48
:10A190004654294606F074FE07002AD0284606F0E9
:10A1A000D7FEC5196D1C46A1284606F069FE002899
:10A1B00003D1284606F0CCFE4019401B0204120CC5
:10A1C00013D0A6542946204606F0A2FF2046FFF7EA
:10A1D00064FC2B212023002003E08A4200D1235479
:10A1E000401C225C002AF8D100E02670204609B00D
:10A1F000F0BD0020FBE770B50D46002813D00146E6
:10A20000284606F07FFE2FA1284606F027FE0446CA
:10A210002DA106F0B3FF002800D0641C214628467B
:10A2200006F070FE012070BD30B50D4689B00146C4
:10A23000684606F067FE6846002424A106F00EFE7C
:10A240000178302902D1417878290AD00A21FFF714
:10A2500058FF2855641C0020E4B2042CEDD309B04B
:10A2600030BD1021801CF2E72E73766700000000DD
:10A270002E535647000000002000000047455400C0
:10A2800067657400484541440000000068656164EA
:10A2900000000000504F535400000000706F7374B2
:10A2A000000000000D0A0000436F6E74656E742D8F
:10A2B0004C656E6774683A2000000000549D0000F1
:10A2C00026000000203F00002F0000002E000000AC
:10A2D0007047704710B50022FE4B03E08C5C9C5425
:10A2E000521CD2B28242F9D310BD10B40446F948D0
:10A2F000801E0462416210BC19461046EAE7F54A26
:10A30000921E002800D0D060002900D01161704753
:10A3100070B50D46EF491C46891E0988884201D94F
:10A32000002070BD1C214843EB4940188169002A78
:10A3300000D089181A46284606F0EAFE0020285563
:10A34000284606F005FE80B270BDFFB581B0002042
:10A350000A9C00901F46019800F07DFA411C3DD0F8
:10A3600094214843DD49461835468035A968DC48C4
:10A37000002905D0EA688C1A84420FD904460FE000
:10A3800084420DD96F60AC600446701C802106F0D9
:10A39000BAFE701C029906F0B5FD01E001200090A4
:10A3A000287C012813D1A868002800D06F68A3B2C8
:10A3B000B8B2EA680399FFF7ABFF002C07D0A2B24E
:10A3C00003990198FDF7AEFE0098002803D0002005
:10A3D0006860A86001E0E8680019E86005B0F0BDB9
:10A3E00070B5BC4C0546A41EE069C82B10D01946B8
:10A3F000FF39913913D0042914D0002B07D0E0691C
:10A4000006F0A6FD82B22846E169FDF78BFE70BD1D
:10A410000829FCD00929FAD0FFF75BFBEFE7762289
:10A42000B04902E0AF499922993906F00FFEE6E7FC
:10A4300038B50C4605460092ABA2BAA1204606F0FC
:10A4400049FB82B221462846FDF76CFE38BDF7B5C0
:10A450000025A04F2C46A04EBF1E09E01C206043E3
:10A460008119009806F08AFE002806D0641CA4B268
:10A4700038888442F2D32846FEBD1C2060438019F0
:10A48000416902980125016001980480F3E7F3B562
:10A49000FFB086B00D46002769468F810121490231
:10A4A00004A8019706F031FE859800F0D4F906461D
:10A4B000401C5ED0874CFF23A41E606AE061002030
:10A4C00001902878913300287DD0012804D00228FB
:10A4D00002D0032877D166E004A9A81CFFF78BFE01
:10A4E00004A893A1029006F049FE002803D191A18F
:10A4F000029806F007FD92A1029806F03FFE0028A0
:10A5000003D190A1029806F0FDFC92A1029806F0FA
:10A5100035FE002803D191A1029806F0F3FC681CD7
:10A520000299FFF72EFB687801AA082810D003A92A
:10A5300004A8FFF78CFF002822D094214E436749DE
:10A54000684687897118012080310874C82619E08F
:10A55000216A029800F0A7F9002852D060490198BA
:10A56000413988424DD883B2226AE1698598FFF764
:10A570005FFF7FB008B0F0BD8598FFF731FFF8E7C7
:10A58000FF26953669783346019A8598FFF728FFAC
:10A59000C82EEED1019800903B46E2690299859859
:10A5A000FFF7D3FEE5E704AB71A261A1A81CFFF79A
:10A5B000B9FD04AE3146681CFFF7E3FA6878082855
:10A5C00004D0FF23953300221146D5E701AB29467D
:10A5D0003046E26900F0A7F9050012D04049019821
:10A5E000413988420DD883B2E269216A8598FFF724
:10A5F0001FFF022DBDD10A2000F03BFEE06880471E
:10A60000B7E7FF23953300220821B5E7FEB5314DAA
:10A610000446AD1E686A6861286AA861A81C005DCE
:10A620000190860454483018FDF7B4F8142807D078
:10A6300007DC00284CD0132802D10198FDF775FCE7
:10A64000FEBD172805D01C28FAD10198FDF728FD7A
:10A65000FEBD494810383018FDF79CF8C00705D0FA
:10A660004548012108383018FDF796F894204443F6
:10A670001A481A49005D67188037002815D003284A
:10A6800027D00428E4D10020B860F860786008552D
:10A6900039480821203830180446FDF77DF8204657
:10A6A000FDF778F80028FAD1FEBD34483618706AF4
:10A6B0000204120CF8D00120C002824200D90246E6
:10A6C000044D0198AD1E6969FDF7BCFD80B257E0ED
:10A6D00097E077E0A60000204005002084030020DA
:10A6E000FF07000029200100485454502F312E311B
:10A6F00020323030204F4B0D0A436F6E74656E74FC
:10A700002D547970653A20746578742F68746D6C77
:10A710000D0A436F6E74656E742D4C656E677468B8
:10A720003A200000257325640D0A0D0A25730000E8
:10A730002F000000696E6465782E68746D6C0000EF
:10A740006D0000006D2F696E6465782E68746D6C05
:10A75000000000006D6F62696C6500006D6F6269DA
:10A760006C652F696E6465782E68746D6C000000EE
:10A7700020485454500000003000014600020146B9
:10A78000696900220A54A869FFF771FCA969019858
:10A79000FFF77DFEAD6804E036488068401B032863
:10A7A00007D83046FCF7F6FF7168800289B288420C
:10A7B000F2D1B9683048002901D0032100E004211A
:10A7C0000155FEBD00202B4D009003460146EA696D
:10A7D0000198FFF7BAFDAD682848361804E025480F
:10A7E0008068401B032807D83046FCF7D3FF716808
:10A7F000800289B28842F2D1B9681F480029DED0B0
:10A80000FEBD00231E4A01210198FDF723FBFEBD7A
:10A81000F8B50D4607001DD0002D1BD0154C208823
:10A820000A2817D2384606F093FB284606F090FB1C
:10A83000009020881C214843124E3946801906F0AA
:10A8400061FB20881C224243921900999561401CAB
:10A8500051612080F8BD074A0021921C535C83425D
:10A8600001D148B27047491CC9B20829F6D300206B
:10A87000C0437047A400002084030020000201466A
:10A8800053C300004005002070B50E461546012454
:10A890002DA106F073FC002803D12946304605F0AF
:10A8A0007FFC204670BD38B5154600226B461A80E5
:10A8B00001246A46FFF7E8FF002804D068460088B4
:10A8C0002860204638BD0024FBE7FFB581B00F4665
:10A8D0001C461646012520A1019806F04FFC0028D1
:10A8E0000FD021A1019806F049FC00280DD023A12A
:10A8F000019806F043FC00280BD00025284605B03F
:10A90000F0BD384605F0BBFC06E0384605F0A8FD72
:10A9100002E0384605F0A6FDC2B21DA1304606F0A1
:10A92000D9F82080EAE738B51C4600236D462B8015
:10A930006B46891CFFF7C9FF002803D069460988C8
:10A940000220216038BD00006765745F6465766928
:10A950006E666F2E636769007365745F6465766900
:10A960006E666F2E636769007365745F64657672E7
:10A97000657365742E636769000000007365745F1A
:10A9800064657666616372657365742E63676900DA
:10A9900025640000F0B587B002F010FC04466D4657
:10A9A000A81DFEF74BFE03A802300690FEF751FEED
:10A9B00002A802300746FEF757FE04A802300646FA
:10A9C000FEF75DFE214606221731684602F014FDAF
:10A9D00020460422A91D1D3002F012FD204604224B
:10A9E0002130069902F00CFD20460422394625301C
:10A9F00002F006FD204604223146663002F000FDDA
:10AA000060342079002801D0022000E0012069464E
:10AA100088750020FDF705F907B0F0BD704700000C
:10AA200010B5C049097801290AD1BF4C2178012904
:10AA300006D101F0D5FB002002F0FEF900202070C5
:10AA400010BD3EB502F0BAFB6521095C002906D0B5
:10AA5000B6490978012906D0B5A006F02DF8B8A0AE
:10AA600006F02AF83EBD014621314A7C097C1202DB
:10AA70000A43014620318B7B4C7B00940193029268
:10AA80000B7BCA7A4A31AFA006F016F8E7E7FEB5AD
:10AA900002F094FB04460025B3490420FEF78EFF24
:10AAA00020466030827969460A70C2794A70027A1B
:10AAB00006468A70407AC870032000F08DFF204659
:10AAC0002B306A34019021466846019AFEF77CFFDC
:10AAD000074601280BD06D1CEDB2022D07D803F0FC
:10AAE000EEFE30790028EED0FEF767FCEBE70120A0
:10AAF00000F072FF3846FEBD10B502F05FFB60301B
:10AB00000079002806D099480078012803D098A041
:10AB100005F0D2FF10BDFEF7BDFD014699A005F07E
:10AB2000CBFF10BD70B5002502F048FB0646293664
:10AB30008D490320FEF7D7FC9D499C4A0846FEF745
:10AB400045F8032000F048FFFEF737FC04460428D0
:10AB500007D0002C01D16D1CEDB2032D09D9FEF7F1
:10AB6000BAFC7078042802D0012000F035FF60B2F2
:10AB700070BD03F0A4FE0020FFF752FFE4E7F0B53C
:10AB800091B002F01BFB04463C228A496846FCF760
:10AB900011FB611D88A005F08FFF26462036707AD4
:10ABA0008B49800009588BA005F086FF8FA005F027
:10ABB00083FF204660300F90007901282AD091A1B0
:10ABC00092A005F079FF9AA005F076FF274623377B
:10ABD000787B3A7B010211439AA005F06DFFA049F2
:10ABE000A0A005F069FF9E49A7A0491C05F064FFDD
:10ABF000AE48FCF7CFFD0146ADA005F05DFFB5A066
:10AC000005F05AFF25464035687E002804D02246CC
:10AC1000593202E0B5A1D3E7B9A2002801D0BAA108
:10AC200000E0BBA1BDA005F047FFC0A005F044FFB8
:10AC30000F98C078012811D0B5A1C5A2CCA005F00D
:10AC40003BFFCEA005F038FFD5A005F035FF787C9E
:10AC50003A7C0102114303D0D7A003E0AAA1ECE79C
:10AC6000ABA159A005F028FFD7A005F025FF20468D
:10AC70002130417D007D0902014301D0D8A001E0CF
:10AC8000A3A151A005F018FFD9A005F015FF0023DE
:10AC9000DDA2DDA1DEA005F00FFF6879E3498000A9
:10ACA0000958E3A005F008FFE879694680000958D3
:10ACB000E5A005F001FF287AE649095CE6A005F069
:10ACC000FBFE687AE54980000958E5A005F0F4FE2E
:10ACD000A87AE449095CE4A005F0EEFE6979E4484D
:10ACE00000291CD00168E3A005F0E6FE0223C6A2FD
:10ACF000C5A1E5A005F0E0FEEAA3ECA2EDA1F1A05C
:10AD000005F0DAFEF4A005F0D7FEFCA005F0D4FEB5
:10AD1000787D3A7D0102114302D0B1A0FAE1F3E15E
:10AD2000F6E10000F4000020F600002002010020FF
:10AD3000202320444E53204661696C65640D0A004F
:10AD40000D0A0000202320444E533A202573203D55
:10AD50003E2025642E25642E25642E2564203A206D
:10AD600025640D0A00000000580600204C01002058
:10AD700020232044484350204661696C65640D0AD5
:10AD80000000000020232044484350204950204C1C
:10AD900065617365642074696D65203A20257520AE
:10ADA0007365636F6E64730D0A0000001DAA0000D6
:10ADB00095A9000098520100202D20446576696312
:10ADC00065206E616D653A2025730D0A0000000054
:10ADD0003C010020202D20446576696365206D6F5D
:10ADE00064653A2025730D0A00000000202D204ED6
:10ADF0006574776F726B2073657474696E67733AEC
:10AE0000200D0A005374617469630000092D204FFE
:10AE1000627461696E696E6720495020736574744D
:10AE2000696E67733A205B25735D0D0A00000000B0
:10AE3000092D205443502F55445020706F72747365
:10AE40000D0A0000092020202B2053324520646188
:10AE5000746120706F72743A205B25645D0D0A0086
:10AE600051C30000092020202B205443502F55446B
:10AE7000502073657474696E6720706F72743A2025
:10AE80005B25645D0D0A0000092020202B20466907
:10AE9000726D776172652075706461746520706F82
:10AEA00072743A205B25645D0D0A00004460004620
:10AEB000092D205443502052657472616E736D6980
:10AEC0007373696F6E2072657472793A205B2564C2
:10AED0005D0D0A00202D205365617263682049448E
:10AEE00020636F64653A200D0A0000004175746F9D
:10AEF0006D61746963202D204448435000000000B8
:10AF00004E6F6E6500000000456E61626C65640006
:10AF100044697361626C656400000000092D20259E
:10AF2000733A205B25735D0D0A000000202D20453B
:10AF3000746865726E657420636F6E6E65637469A4
:10AF40006F6E2070617373776F72643A200D0A0020
:10AF50002854435020736572766572202F206D69E6
:10AF6000786564206D6F6465206F6E6C79290000D0
:10AF7000092D2025732025730D0A0000202D204364
:10AF80006F6E6E656374696F6E2074696D65722093
:10AF900073657474696E67733A200D0A00000000CF
:10AFA000092D20496E61637469766974792074692A
:10AFB0006D65723A200000005B25645D2028736592
:10AFC00063290D0A00000000092D205265636F6E91
:10AFD0006E65637420696E74657276616C3A2000E8
:10AFE0005B25645D20286D736563290D0A000000F0
:10AFF000202D2053657269616C2073657474696ECD
:10B0000067733A200D0A00005541525400000000B9
:10B01000092D204461746120257320706F72743A89
:10B0200020205B257325645D0D0A000004030020C9
:10B03000092020202B20554152542049463A205BBC
:10B0400025735D0D0A000000092020202B202564B7
:10B050002D000000087D000025642D00E80200207E
:10B0600025732D00185301002564202F20000000B7
:10B07000F4020020466C6F7720636F6E74726F6C01
:10B080003A2025730D0A0000092D2044656275677A
:10B0900020257320706F72743A205B257325645DE0
:10B0A0000D0A000028666978656429004E4F4E45F8
:10B0B000000000003131353230302D382D4E2D3129
:10B0C00000000000092020202B202573202F2025A0
:10B0D000732025730D0A0000202D205365726961CD
:10B0E0006C2064617461207061636B696E67206FAE
:10B0F0007074696F6E733A0D0A000000092D2054B8
:10B10000696D653A20000000E97A89004158EAE556
:10B11000AE49AF4805F0D0FCAEA005F0CDFC717E85
:10B12000002901D0AEA001E0A849A94805F0C4FC5F
:10B13000AFA005F0C1FCB07F01281ED0A349A448F0
:10B1400005F0BAFCADA005F0B7FC26468036307F8E
:10B15000012815D09D49B3A005F0AEFCA03423789A
:10B16000F27FB17FB1A005F0A7FCB9A005F0A4FC67
:10B17000287B002807D0C0A206E0B17EBFA0DFE791
:10B1800092490839E7E7C2A2C4A1C6A005F094FC21
:10B19000687B002801D0CAA200E0CAA2CDA1CFA03E
:10B1A00005F08AFCD4A005F087FCDE4C207804F082
:10B1B000BEFEDD4D80002F58207804F0A9FEDB4E46
:10B1C000800032583B46DAA1DBA005F075FC6078C0
:10B1D00004F0ADFE80002F58607804F099FE8000E6
:10B1E00032583B46DCA1DEA005F066FCA07804F0F6
:10B1F0009EFE80002F58A07804F08AFE800032580E
:10B200003B46DFA1E0A005F057FCE07804F08FFE9C
:10B2100080002D58E07804F07BFE800032582B46E9
:10B22000E1A1E3A005F048FCE9A1A3A005F044FCDE
:10B2300011B0F0BD38B501F0C1FF04466BA005F0B8
:10B240003BFCE3A19CA005F037FCEEA1F1A005F0CA
:10B2500033FCF2A005F030FCFAA00090A37D627DE3
:10B26000217DFAA005F028FCD9A193A005F024FCCB
:10B2700038BD01B5FE480099016001680029FCD184
:10B2800008BD8AB001F09AFF044600F080FAF9A1E7
:10B2900003C907910690F7A103C909910890FCF72B
:10B2A000DBFAFBF7BFFFF54905F0BFFFF449086083
:10B2B00008A906A8FCF776FB00F022FBF14800691C
:10B2C000800701D5FCF752FAE948FF210904001D67
:10B2D000012642C00838FCF730FA02F02CF820466C
:10B2E000203007908672C01C417D027D0802104309
:10B2F00001D0E549088002F005F901F05FFF8030D8
:10B30000C17E684601767D210901418306A8FCF7CC
:10B3100090FB04F039F825464035A87B002803D07F
:10B32000FFF788FFFFF72BFC02F00CF92746603788
:10B33000387900282BD0FFF7F5FB042825D02146CB
:10B3400006221731684602F057F8214601A8042268
:10B350001D31023002F054F8214603A804222131A5
:10B36000023002F04DF8214602A8042225310230B5
:10B3700002F046F804A80422B91D023002F040F899
:10B3800069460020FCF74DFC03E0C0480670C04849
:10B390000670A87B002803D002F036F8FFF7ACFB5C
:10B3A0000798407A01280DD0787900280AD0FFF755
:10B3B0006EFB002801D0B7480670A87B002801D09A
:10B3C000FFF73FFBB448B54C067069E110AF0000D1
:10B3D000C8AD0000092D2053697A653A20000000AD
:10B3E0005B25645D20286279746573290D0A00006D
:10B3F000092D20436861723A20000000202D20535F
:10B40000657269616C20636F6D6D616E64206D6F34
:10B4100064652073776974636820636F64653A0DAF
:10B420000A000000092D2025730D0A00092D205B5C
:10B43000252E32585D5B252E32585D5B252E325805
:10B440005D2028486578206F6E6C79290D0A000010
:10B45000202D20486172647761726520696E666F85
:10B46000726D6174696F6E3A2053746174757320E4
:10B4700070696E730D0A0000445452005B252E3231
:10B48000585D2028686578206F6E6C79290D0A0058
:10B49000504859206C696E6B0000000050415F31CC
:10B4A00030000000092D2053746174757320313A07
:10B4B000205B25735D202D2025730D0A0000000000
:10B4C0004453520054435020636F6E6E6563746939
:10B4D0006F6E000050415F3031000000092D205395
:10B4E000746174757320323A205B25735D202D20C2
:10B4F00025730D0A00000000202D2048617264773A
:10B5000061726520696E666F726D6174696F6E3A03
:10B51000205573657220492F4F2070696E730D0A94
:10B5200000000000400300204C03002044030020E2
:10B5300050435F3133000000092D20557365724977
:10B540004F20413A205B25735D202D202573202F4D
:10B550002025730D0A00000050435F3132000000C7
:10B56000092D2055736572494F20423A205B25739F
:10B570005D202D202573202F2025730D0A0000004B
:10B5800050435F3039000000092D20557365724922
:10B590004F20433A205B25735D202D202573202FFB
:10B5A0002025730D0A00000050435F303800000072
:10B5B000092D2055736572494F20443A205B25734D
:10B5C0005D202D202573202F2025730D0A000000FB
:10B5D0003D3D3D3D3D3D3D3D3D3D3D3D3D3D3D3D9B
:10B5E0003D3D3D3D3D3D3D3D3D3D3D3D3D3D3D3D8B
:10B5F0003D3D3D3D3D3D3D3D3D3D3D3D3D3D3D3D7B
:10B600003D3D000057495A37353053522D31787837
:10B6100000000000202573200D0A0000203E3E207F
:10B6200057495A6E65742053657269616C20746F56
:10B630002045746865726E6574204465766963653B
:10B640000D0A0000537461626C650000203E3E20CC
:10B650004669726D776172652076657273696F6E87
:10B660003A2025642E25642E25642025730D0A00BA
:10B67000D000002004020202020202001027000093
:10B680000020004600F00140100100204C01002085
:10B690004D01002002010020F3000020DC0000200A
:10B6A00020780026002803D0002001F0C5FB26707A
:10B6B00004F0ADFBFCF750F8687E00280ED1484B33
:10B6C000032248494848FEF710FE00214748FEF78C
:10B6D00016FE434946A0C91CFFF79AF8A87901282D
:10B6E00005D146A005F0E8F9E87905F049F8FF2012
:10B6F0000004FCF743F803F0E2F80020FFF790F9AC
:10B7000043480078002802D0002001F052FB38792D
:10B71000002801D0FDF751FE687E002806D10024E4
:10B720002046FEF773FF641C032CF9DB39480178CF
:10B73000002900D00670384C20780028D7D0A87B8C
:10B74000002802D035A005F0B7F92670CFE701B583
:10B7500081B0002000901921019889014843009987
:10B7600002E000BF491C00918842FAD80CBD334862
:10B770000168002902D00168491E01607047BFF3CB
:10B780004F8F30492E48C860BFF34F8FFEE710B58A
:10B7900000F0E5F82C4A01209110FBF7A7FD03F01B
:10B7A00019FC03F02AFEFBF73DFD7D21C90005F0E1
:10B7B0003CFD2649401E88420DD825494861214854
:10B7C0000722001DC3691B021B0A4C042343C361EB
:10B7D000002088610A610A20FFF74BFD10BD0000C0
:10B7E000A020010052190020521700207FB700004E
:10B7F000696E6465782E68746D6C0000203E204D83
:10B800006F64627573204D6F64650D0A000000005F
:10B810004D010020F2000020D8020020203E2055DB
:10B820004152542052782052696E672062756666D4
:10B8300065722046756C6C0D0A000000D000002077
:10B840000400FA0500ED00E0006CDC02FFFFFF00E1
:10B8500000E000E0FEB50446032818D25A4E650009
:10B86000705B00900120694608715848A700C059D4
:10B87000FBF7C2FD5548715B001F025DC01E005DF5
:10B88000FBF74EFE5148715BC059FBF72BFEFEBD26
:10B8900070B5012321241D0264060022294620469A
:10B8A000FBF766FE656170BD10B501232120002203
:10B8B00019464006FBF75CFE10BD70B5012500245B
:10B8C0006D022126760629463046FBF7FDFD00284D
:10B8D00001D0012070BD0520FFF7CBFC641CE4B251
:10B8E000052CF0D3002070BD70B5012321245D022A
:10B8F0006406002229462046FBF73AFE656170BDCA
:10B9000070B5012003F0F4FB01229203432554009B
:10B910002D0621462846FDF790F8224600212846AC
:10B92000FDF72FF8002003F0E3FBFFF7DDFFFFF743
:10B93000C4FF002811D00020244908390870FFF7FF
:10B94000B3FFFFF7A5FF0020FFF784FF0120FFF7FB
:10B9500081FF0220FFF77EFF70BD0120ECE71C494C
:10B96000022008631B498860704710B5212001211F
:10B970004006FBF7A9FD10BD70470020704710B5C9
:10B98000032807D2104A4100515A104A800010582B
:10B99000FBF7B6FD10BD10B5032807D20A4A4100D7
:10B9A000515A0A4A80001058FBF79CFD10BD03282D
:10B9B00008D20649820089584A68034B4000185A49
:10B9C00042404A6070470000D4520100E400002069
:10B9D000401100410020004170B5054601F0EEFB2A
:10B9E0000446293401F0EAFB2B0006F0ECF90610BE
:10B9F0000406090C0E10012003E0022060700EE026
:10BA00000320607006E00420FBE70520F9E760787A
:10BA1000022804D00021802004F029FB70BD012100
:10BA2000F9E700290FD00023FE4A00280CD0012896
:10BA300013D002281AD0032805D1106B401C1ED049
:10BA4000D06B4018D0637047106B401C03D0106B54
:10BA500040181063704713637047106B401C03D08D
:10BA6000506B40185063704753637047106B401C15
:10BA700003D0906B40189063704793637047D36313
:10BA80007047F7B582B015460E46002403F024FB3C
:10BA9000002811D003F029FB009003F023FB019054
:10BAA00003F01DFB074603F017FB01463A46DEA0F4
:10BAB000019B05F001F80DE003F017FB009003F087
:10BAC00011FB074603F00BFB01463A46DCA0009B46
:10BAD00004F0F2FF022D02D0032D02D018E0DDA108
:10BAE00000E0DDA13246DDA004F0E6FFFF252D04D5
:10BAF00009E02846FBF742FE0298015DDAA004F057
:10BB0000DBFF641CA4B2B442F3D3D9A004F0D4FF89
:10BB1000204605B0F0BDFEB50C46074601F04EFBD1
:10BB2000002506464F360095019502950B2C00D353
:10BB30000A2422463946684605F088FA304605F060
:10BB400007FAA04207D122466946304605F0ACF913
:10BB5000002800D101252846FEBDF1B584B001F0D2
:10BB60002DFB2930039001F029FB0546453501F0F6
:10BB700025FB4F300290A879022804D1002003F061
:10BB800061FD0028C5D104988104BA480818406AAC
:10BB9000002687B20120C002A24C874201D9074685
:10BBA00001E0002F3CD0B4480818FBF7F3FD17283C
:10BBB00029D01C2827D022282BD19A483A46283051
:10BBC000034600901833AD490498FCF750FC9549A2
:10BBD000E08440310422081D05F066F9002818D0E1
:10BBE0009049086C4864687A002812D008464030B2
:10BBF000228DC17801920091837842780178A0A0CB
:10BC000004F05AFF05E03A469C490498FCF71AFBF9
:10BC1000E084E68226832673E18C0220FFF701FF91
:10BC200003984078012804D0022809D160780028C0
:10BC300006D10298007D012802D1A07A002806D002
:10BC4000E08C002811D0287A012812D015E039465E
:10BC50008A48FFF760FF012808D0A672E684A07A20
:10BC6000002802D10498FCF71BFA52E70120A072C9
:10BC7000F4E704F061FA0128F7D028787F4F012813
:10BC800008D0A879012822D0687A03283DD004285A
:10BC90003BD03FE0687A032801D0042804D1032276
:10BCA000E18C7648FFF7EDFE002003F080FC0025D4
:10BCB00005E0795D002003F00CFC6D1CADB2E08C5A
:10BCC0008542F6D3002003F09AFCE18C18E0607BFB
:10BCD0000128CAD1687A032801D0042804D103229C
:10BCE000E18C6648FFF7CDFE002505E0795D002078
:10BCF00003F0EFFB6D1CADB2E08C8542F6D314E08F
:10BD00000320FFF78EFEE68403E70322E18C5B4805
:10BD1000FFF7B7FE002505E0795D002003F0D9FBB1
:10BD20006D1CADB2E08C8542F6D381B2E8E7F8B580
:10BD300001F044FA05465C48293501885B480088D3
:10BD40000A185B480088101A05F079FA354C8EB253
:10BD5000A08C01273018FF02B84213D3687C00285A
:10BD60000DD0012E0BD1002003F0FDFBC1B25148D4
:10BD7000A28C8154687C884201D11046F8BDA08C09
:10BD8000381A86B2E87BA97B0002084305D1287CDB
:10BD9000002802D1687C002801D000272AE0002575
:10BDA000444F08E0002003F0DEFBA18C7854491CCE
:10BDB0006D1CA184ADB2B542F4D3A08CF8BD0020B7
:10BDC00003F0D1FB02463B49A08C0A54401C80B2D0
:10BDD000A0846A7C002A04D009182039C97F8A42CD
:10BDE00004D0297C002903D0814201D180B2F8BD62
:10BDF0007F1CBFB2B742E2D3E87BA97B00020843B5
:10BE000060D0A58C002D5DD0207A00285AD026481D
:10BE10000188264800880A1825480088101A05F06D
:10BE20000EFA49E0F4000020205B2564642F2530E1
:10BE300032643A253032643A253032645D000000C5
:10BE4000205B253032643A253032643A2530326442
:10BE50005D00000053324500453253005B25735DA1
:10BE60005B253034645D200025303258200000000E
:10BE70000D0A00000002014630000146580E002065
:10BE8000203E2055445020506565722049502F5067
:10BE90006F72743A2025642E25642E25642E256445
:10BEA000203A2025640D0A00E2020020DE02002074
:10BEB000E002002058060020002901D10020207255
:10BEC0002846F8BD0020F8BDFEB5074601F076F91A
:10BED0000546293501F072F906464536FFF745FD5E
:10BEE000002876D1FFF723FFFE4C019000286ED08A
:10BEF00001460020FFF795FD707A022801D0042842
:10BF000004D10222F8480199FFF7BBFDF749B804B4
:10BF10004018FBF73FFC14285FD017283BD01C28A3
:10BF200039D0222853D1A878002808D1E8780028F1
:10BF300005D12879002802D16879002806D0687ACE
:10BF4000297A00020843AB1C009011E0E54840301C
:10BF50000178002908D14178002905D1817800298C
:10BF600002D1C07800280AD0DE4B208D40330090EB
:10BF7000DD493846019AFCF7CCF907B205E0707A42
:10BF8000002802D0DA4804F097FD002F1FDDA08CB6
:10BF9000C01BA0841BE0A07A012818D1D2493846E2
:10BFA000019AFCF7BFF800B2002802DDA18C081A44
:10BFB000A08401200199FFF734FDE87D012806D116
:10BFC000207B002806D00020207300202083002042
:10BFD000E082FEBD01202071F7E70020A084FEBDB5
:10BFE000F0B589B0074601F0E9F801F0E7F804463A
:10BFF000293401F0E3F80646BC48BD04453628184C
:10C00000FBF7C8FB0023BB4ABB4900283ED02228CF
:10C0100029D1BA487378BC042418002B08D0012B0E
:10C0200021D104F001FCB648017801291DD021E09E
:10C03000B4481288008809888218521A01461046AE
:10C0400005F0FDF8A74DA88C014302D03846FFF754
:10C050003BFF606A0004000C02D1E88C002802D08B
:10C060003846FFF77AFD09B0F0BD0021017038466F
:10C0700004F064FC606A0004000C03D19948C08C91
:10C080000028F0D0384604F043FCECE70020108094
:10C09000088094498884C884A1780846E0380F282D
:10C0A00056D8012268460275002242755E228275CA
:10C0B000E0784206520E6846C275039222790276F3
:10C0C0000292627942768D480192D9382818FBF79E
:10C0D00063FB8A48E178DA382818FBF75DFB87486C
:10C0E0002179DB382818FBF757FB84486179DC3865
:10C0F0002818FBF751FB607A217A000208437B493C
:10C10000D031691808627D480121E5382818FBF70D
:10C1100043FB7A480021E6382818FBF73DFB7748B7
:10C120005E21E7382818FBF737FB70480399E830A1
:10C130002818FBF731FB71480299E3382818FBF700
:10C140002BFB6E480199E4382818FBF725FB802368
:10C1500001200343E079A17902020A430221384613
:10C16000FBF778FEB84290D10520FFF735FCE07B65
:10C17000A17B0002084301D05A498883707A0028C5
:10C1800083D061A004F098FC6DE710B5554CA08AEF
:10C19000002809D06349884204D2401C0840A0828C
:10C1A00002D00DE00020A08202F0A9FF04F038FECA
:10C1B000FAF7E4FF5C4905F042F85C480818A082F1
:10C1C00080B210BD47480021C170C1710171417238
:10C1D0000172C1728172C1820184018341847047FE
:10C1E00070B5054600F0EAFF04464049A80429342A
:10C1F0004018FBF7CFFA002807D02178032909D08F
:10C20000172804D01C2802D004E0284670BD284618
:10C21000FBF746FF2846FBF7EDFDF6E710B50022D9
:10C220000621FCF75AFA10BDF0B585B000F0C6FF44
:10C230000446293400F0C2FF0546453500F0BEFF34
:10C24000014600204F310646009003913848FBF725
:10C25000A1FA6946087002903548401EFBF79AFA29
:10C260006946487001903248801EFBF793FA694690
:10C27000887007462E48C01EFBF78CFA6946C870C6
:10C280000399897D012908D11649897B012904D0A8
:10C29000687A002815D027A011E00299002906D15C
:10C2A0000199002903D1002F01D1002803D0A178E2
:10C2B000002907D00FE0687A002802D027A004F0F8
:10C2C000FBFB7DE0E278002A05D12279002A02D129
:10C2D0006279002A6FD0029A8A4272D1E27801997B
:10C2E000914259E0F4000020580600203000014639
:10C2F0009C580100DE020020E002002000020146FE
:10C3000055030020E2020020203E205345473A55C5
:10C3100044505F4D4F44453A534F434B4F50454E69
:10C320000D0A0000FFFF000010270000B888000081
:10C3300013600046203E205345473A434F4E4E453A
:10C340004354494F4E204641494C4544202D2044FA
:10C350004E53204661696C65640D0A00203E2053EF
:10C3600045473A434F4E4E454354494F4E20464170
:10C37000494C4544202D20496E76616C6964204902
:10C380005020616464726573733A205A65726F203D
:10C3900049500D0A0000000013D121798F4210D1BD
:10C3A000617988420DD1687A002809D001E002E065
:10C3B00007E0F4A083E7687A002801D0FE487EE712
:10C3C0000126304651E4F1B586B000F0F7FE00F0EA
:10C3D000F5FE0546293500F0F1FE0746453700F029
:10C3E000EDFE4F3000240590029468468481069843
:10C3F0008104F24804910818FBF7CCF9F04A04993B
:10C400008E18172855D021DC00287DD0132828D07D
:10C41000142819D1EB4C6078002815D1EA4801881E
:10C42000EA4800880A18EA480088101A04F007FF52
:10C43000002909D00698FFF7D3FE01206070687BC1
:10C44000297B00020843E08307B0F0BD1828DCD048
:10C450001C28F9D17878FF252D04DA4C00287DD0EE
:10C4600028E1D84E70780128EED1687B297B000244
:10C470000843F18B8842E7D8F483FFF7D5FE012803
:10C480000DD0687A297A02020A43A91C0698FBF7A4
:10C4900083FD707C401CC0B270740A28D4D3069807
:10C4A000FFF79EFEC94874740480C9480480747004
:10C4B000CAE70846C14910394018FBF76BF9C007B5
:10C4C00062D00220FFF788FABE48C18A002906D14F
:10C4D000E97AAA7A0902114301D00121C170B94851
:10C4E000008B002805D1E87D002802D0B549012045
:10C4F00008710598007D002809D0B24841780129CB
:10C5000005D0827A114300E0DFE004D006E0AD49B7
:10C510000120887202E0012141724484787A002867
:10C5200019D002AA04210698FCF73FF903AA0521B5
:10C530000698FCF73AF9A3484078002868468189B4
:10C54000C07A009001916846837A427A017A0BD0D2
:10C55000A0A004F0B1FA9B48417800E09FE00029D8
:10C5600004D0012907D007E0A5A0F2E797490C8085
:10C5700097490C8000E0447044749049049808394D
:10C5800040180121FBF708F97878002802D001282B
:10C5900031D11BE08C4801888C4800880A188C48EF
:10C5A0000088101A04F04BFE864FB88C014302D06D
:10C5B0000698FFF789FC706A0004000C02D1F88C21
:10C5C000002818D00698FFF7C8FA14E004F02CF9F8
:10C5D00096480178012903D10470069804F0AEF959
:10C5E000706A0004000C03D17648C08C002802D089
:10C5F000069804F08DF9734EF07801280CD1E87A92
:10C60000A97A00020843F18A884205D80698FFF704
:10C61000E7FD347134837470E87D012824D13079CA
:10C62000012821D1307B002802D001280FD01BE047
:10C63000687E297E00020843318B884214D8002886
:10C6400012D00698FFF7EAFD348301203073E87EAC
:10C65000A97E00020843318B884205D8002803D008
:10C660000698FFF7DBFD34837078002800D0EBE6F6
:10C670000598007D0128FAD1B07A0028F7D1708C96
:10C680006B498842F3D30698FFF7AAFD747274844D
:10C69000DAE62846FBF772F80698FFF75EFA706A4A
:10C6A0000004000CF5D1E08C0028F2D109E0284606
:10C6B000FBF764F8706A0004000CF8D1E08C0028E5
:10C6C000F5D10698FBF7ECFCBEE60120FFF784F9F4
:10C6D0003C4E7078002815D0F484FFF756FD0246D2
:10C6E000212301210698FBF7B5FB06998842BED1AC
:10C6F000E87BA97B0002084300D0B083B079002812
:10C700001ED024E0FFF75EFDB484F484E879A979B3
:10C7100002020A43212301210698FBF79BFB06999D
:10C720008842A4D1E87BA97B0002084300D0B083F3
:10C730000698FBF7FAFB787A002898D03DA00AE02B
:10C74000687B297B0002084301D00120B071787A10
:10C7500000288CD041A004F0AFF975E6F1B586B0A1
:10C7600000F02CFD00F02AFD0646293600F026FDDB
:10C770000546453500F022FD4F3000240590029417
:10C7800068467FE0203E205345473A434F4E4E4592
:10C790004354494F4E204641494C4544202D2044A6
:10C7A00075706C69636174652049502061646472BE
:10C7B0006573730D0A000000E8580100300001465F
:10C7C00000020146F4000020E2020020DE02002008
:10C7D000E0020020203E205345473A434F4E4E454D
:10C7E0004354454420544F202D2025642E25642E8B
:10C7F00025642E2564203A2025640D0A00000000DF
:10C80000203E205345473A434F4E4E4543544544FE
:10C810002046524F4D202D2025642E25642E256460
:10C820002E2564203A2025640D0A000055030020BF
:10C8300088130000203E205345473A5443505F4D33
:10C84000495845445F4D4F44453A53455256455229
:10C850005F534F434B4F50454E0D0A00203E20532F
:10C8600045473A5443505F4D495845445F4D4F4406
:10C87000453A434C49454E545F534F434B4F504507
:10C880004E0D0A00848106988104FE480491081820
:10C89000FAF780FFFC4A04998F1817280ED002DCA3
:10C8A000002871D1ECE01828FCD01C286CD16878E5
:10C8B000FF242404F54D002867D0D6E00846F1494E
:10C8C00010394018FAF766FFC00738D00220FFF78A
:10C8D00083F8EE48C18A002906D1F17AB27A0902BA
:10C8E000114301D00121C1700599097D00292CD087
:10C8F000012141724484687A002815D002AA0421DB
:10C900000698FBF752FF03AA05210698FBF74DFF97
:10C9100068468189C07A009001916846837A427A9C
:10C92000017ADB4804F0C8F8DA48D6490480DA48CE
:10C9300008390480049840180121FAF72DFF68781F
:10C94000002805D0012836D120E001218172D2E7EC
:10C95000D2480188CF4800880A18CF480088101AAA
:10C9600004F06DFCC94DA88C014302D00698FFF776
:10C97000ABFA786A0004000C02D1E88C00281AD0C7
:10C980000698FFF7EAF816E05DE063E003F04CFF7D
:10C99000C3480178012903D10470069803F0CEFF43
:10C9A000786A0004000C03D1B848C08C002802D07B
:10C9B000069803F0ADFFB54DE87801280BD1F07A69
:10C9C000B17A00020843E98A884204D80698FFF742
:10C9D00007FC2C712C83F07D012824D128790128B3
:10C9E00021D1287B002802D001280FD01BE0707EC7
:10C9F000317E00020843298B884214D8002812D0C7
:10CA00000698FFF70BFC2C8301202873F07EB17E83
:10CA100000020843298B884205D8002803D00698D5
:10CA2000FFF7FCFB2C830598007D01280BD1A87A29
:10CA3000002808D1688C9B49884204D30698FFF7E8
:10CA4000CFFB6C726C84FFE42046FAF797FE0698E1
:10CA5000FFF783F8786A0004000CF5D1E88C002811
:10CA6000F2D109E02046FAF789FE786A0004000C4A
:10CA7000F8D1E88C0028F5D10698FBF711FBE3E428
:10CA80000120FEF7A9FFFFF79DFB804F2123BC8407
:10CA9000FC84F079B17902020A4301210698FBF780
:10CAA000D9F906998842CED1F07BB17B00020843C8
:10CAB00000D0B8830698FBF738FA687A0028C2D00D
:10CAC00079A003F0F9FFBFE4F1B586B000F076FB82
:10CAD00000F074FB0546293500F070FB074645372A
