:020000040000FA
:1070000088350020ED710000017D0000F77100005F
:107010000000000000000000000000000000000070
:107020000000000000000000000000000D7D0000D6
:107030000000000000000000157D00001D7D000024
:10704000257D00002D7D0000357D00003D7D000088
:10705000457D00004D7D0000557D00005D7D0000F8
:10706000657D00006D7D0000757D00007D7D000068
:10707000857D00008D7D0000957D00009D7D0000D8
:10708000A57D0000AD7D0000B57D0000BD7D000048
:10709000C57D0000CD7D0000D57D0000DD7D0000B8
:1070A000E57D0000ED7D000000F002F800F057F8EB
:1070B0000CA030C8083824182D18A246671EAB460D
:1070C00054465D46AC4201D100F049F87E460F3E81
:1070D0000FCCB6460126334200D0FB1AA246AB467F
:1070E00033431847A0970000C097000000230024F6
:1070F00000250026103A01D378C1FBD8520700D3EF
:1071000030C100D50B60704710B5642902D107F07B
:1071100061FF10BD752902D107F05CFF10BD782911
:1071200002D107F08DFF10BD632902D108F0D6FE11
:1071300010BD732902D108F0D9FE10BD002010BD8A
:107140001FB508F09DF808F041FE04000020002162
:1071500009F042F8401C60601FBD10B510BD08F07A
:10716000C5FF1146FFF7ECFF03F05DF808F0ECFFF8
:1071700003B4FFF7F2FF03BC00F0C0FD30B40C49CC
:107180000C684A6823681068C0181060241D121D1E
:107190008C4207D28A4208D20C604A6030BC400060
:1071A000400870470C00DC3CF6E70A00DC3AF3E7E5
:1071B0002029002070B505460C46164602E00FCC8B
:1071C0000FC5103E102EFAD2082E02D303CC03C5F1
:1071D000083E042E07D301CC01C5361F03E02178F9
:1071E0002970641C6D1C761EF9D270BD074880475B
:1071F00007480047FEE7FEE7FEE7FEE7FEE7FEE79B
:1072000004480549054A064B7047000037720000E4
:10721000A97000008829002088350020882D0020D2
:10722000882D002036480068704735484068704710
:107230003448006A704710B53348816B334A116196
:10724000C16B304841600021016241698907CA0F62
:10725000012191404269D207D20F9140CAB24169DF
:1072600040698904890E51438002294A800E5043A7
:1072700008F0E7F92249086010BDF8B5254F01264E
:10728000204D01280FD000202862214C10462146B5
:1072900008F0D7F9C0B2012808D8EE616F6101216A
:1072A0000A46134619E02E620C46EFE70021E96119
:1072B000FF2101318006800A084368616869800700
:1072C000C00F86406869C007C00F86406869F2B287
:1072D0008004810E68698002830E2046084C514369
:1072E0006060584308F0ADF92060F8BD30B4064B3B
:1072F0009C6B064D2C61DB6B024C636030BCBCE7C1
:10730000000000200010004180FD03000012004139
:1073100000127A000001020041210906002801D074
:10732000032000E001200860704741210906486001
:1073300070470120412109068860704741200006FE
:10734000C06880B270474120000600690006000E48
:1073500000D0012070470020DEE70000204A204BCB
:1073600001218032984201D1116070471C4B2033BB
:10737000984201D1116270471A4A1A4B80329842E2
:10738000F2D0184B20339842F4D0704782688023A3
:107390009A4382600A68026082684B689B011343CB
:1073A0008A6892001A43CB6809695B00134319434A
:1073B000EF2211408160704720220129816802D0AC
:1073C0009143816070471143FBE70121C160704721
:1073D0004069C0B270478168802211438160704764
:1073E0000010004000200040F0B5212200231026AC
:1073F0005206904201D16A4A08E0432212069042A6
:1074000002D1674A403201E0654A803201242546B4
:107410000F689D402F40AF4243D10F79012F0DD00F
:1074200045614D79AD070DD59C001559AD08AD00EE
:107430001551155902273D4315510BE007692F439C
:107440000761EEE79D005759BF08BF0057515759D4
:10745000274357514C79640704D59C0015590427DC
:107460003D4303E09C0015590427BD4315514C7959
:10747000A40604D59C00155920273D4303E09C0039
:1074800015592027BD4315514C79640604D59C003D
:10749000155940273D4303E09C0015594027BD4343
:1074A00015515B1CB342B1D3F0BD3E4901600021D0
:1074B00001716221417170470246126800200A4240
:1074C00000D0012070470246526800200A4200D0D6
:1074D000012070470A06920D012312189B02D21850
:1074E00011600A0A920010185A0080180160704753
:1074F00010B50B069B0D0124CA431B18A4021B19CF
:107500001A60090A8900081861004018026010BD5D
:10751000F0B50126244D002334469C400C420ED089
:10752000002810D0012811D01F4C9F0080343C1936
:107530002768BF08BF0027602768174327605B1CC8
:10754000102BE9DBF0BD9C006419F1E79C00641985
:10755000276CBF08BF002764276C17432764EEE73A
:107560007CB504461E460D466846FFF79EFF6846FA
:107570000095027169462046FFF736FF212040063C
:10758000844201D1002006E043200006844201D15C
:10759000012000E0022032462946FFF7B9FF7CBDFA
:1075A00000300041FFFF000000200041F8B5044614
:1075B000006B0E46400840002063FFF739FE504F35
:1075C0000125002846D03D61FFF72CFE7A69294647
:1075D000914008F036F807463068000108F0D0FB0B
:1075E0000090384608F0CCFB009908F0D5FA074621
:1075F00008F082FB009008F0C3FB394608F048FE13
:10760000062108F0C1FB08F09DFA00223D4B08F06E
:1076100045FA08F073FA014600986062A162E06AD8
:10762000EE218843B188F288114332890243E06A2F
:1076300011430843E062206B3349B28908407189E5
:1076400011430143206B08432063206B28432063D0
:107650000020F8BD022038617869294681402B4816
:10766000B7E7006880B270470246526800200A42BD
:1076700000D001207047002A826B01D00A4300E04D
:107680008A43826370470246126C00200A4200D08F
:1076900001207047426C0A434264704710B50446AB
:1076A0001B48016B02290AD0006B032807D0FFF7A3
:1076B000B9FD214607F0C5FF1649086110BDFFF767
:1076C000B4FDF6E710B5FFF7E9FF12498868032219
:1076D0008008800010438860002010BD0D494A6872
:1076E000D207FCD108607047016082691207FCD4A0
:1076F0000846704700B50346FFF7F0FF184600BD87
:10770000401100410000E03FFE3CFFFF00127A0004
:107710000010004100600040007870470170704721
:1077200030B5002405E00D19ADB2455D1555641C5A
:10773000A4B29C42F7D330BD70B5002405E00E1909
:10774000155DB6B28555641CA4B29C42F7D370BDDA
:1077500070B514000FD01A4A83049E18F2684007CF
:1077600095B2184AC00A10430A4623462946FFF735
:10777000E3FF2819F06070BD70B514000FD0104AF7
:1077800083049E18B26A400795B20F4AC00A10439C
:107790000A4623462946FFF7C3FF2819B06270BD89
:1077A00010B500290BD0064A83049B189A6A40073B
:1077B000054CC00A5118204389B20818986210BDC0
:1077C0000002014600000246000003467047704771
:1077D000704770470078704701707047F0B593B0FC
:1077E000F748FFF799FF1190F548401EFFF794FF07
:1077F000F34C1090A41E2046FFF78EFF651E0F90DD
:107800002846FFF789FF0E90A01DFFF785FF0D901A
:10781000601DFFF781FF0C90E9480830FFF77CFFFF
:107820000B90E748C01DFFF777FFE54E0A90B61DA5
:107830003046FFF771FF0990E01DFFF76DFF0890DC
:10784000B01DFFF769FF0790701DFFF765FF0690F9
:10785000301DFFF761FF0590F01CFFF75DFF0490FE
:10786000D7481030FFF758FFD54F03900F373846F1
:10787000FFF752FF0290781EFFF74EFF0190F01DB8
:10788000FFF74AFF00908021CE48FFF747FFCD4821
:10789000FFF742FFA01C1199FFF740FF601C1099F1
:1078A000FFF73CFF20460F99FFF738FF28460E9957
:1078B000FFF734FFA01D0D99FFF730FF601D0C99F5
:1078C000FFF72CFFB01C0B99FFF728FF701C0A99DB
:1078D000FFF724FF30460999FFF720FFE01D0899C4
:1078E000FFF71CFFB01D0799FFF718FF701D0699E1
:1078F000FFF714FF301D0599FFF710FFF01C0499E6
:10790000FFF70CFF781C0399FFF708FF3846029930
:10791000FFF704FF781E0199FFF700FFF01D0099A3
:10792000FFF7FCFE13B0F0BDF8B50D460646002487
:10793000FFF754FF002E14D00022B05C521C001937
:1079400052B244B2082AF8DB102C17DC9E4F0024F8
:10795000A004315DC019FFF7E1FE641C64B2082C7D
:10796000F6DB002D19D0002108462A5C401C511876
:1079700040B249B20828F8DB102902DD0020C043DC
:10798000F8BD914E00242036A004295D8019FFF730
:10799000C5FE641C64B2082CF6DB0020F8BD10B5EF
:1079A000044687484130FFF7B7FE207084483D30D9
:1079B0000068608010BD10B501780446002903D02E
:1079C0007F484130FFF7AAFE7D4960883D3108605D
:1079D00010BD10B57B48FFF79FFE10BD70B5044683
:1079E000C720044202D00020C04370BD754D284618
:1079F000FFF792FE204301462846FFF78FFE002046
:107A000070BD10B504466E48FFF786FE20706C48C6
:107A1000401EFFF781FE60706948801EFFF77CFE04
:107A2000A0706748C01EFFF777FEE0706448001D35
:107A3000FFF772FE20716248C01CFFF76DFE607197
:107A40005F480830FFF768FEA0735D48C01DFFF770
:107A500063FEE0735A48801DFFF75EFE20745848AD
:107A6000401DFFF759FE607455480C30FFF754FE77
:107A7000A07253480B30FFF74FFEE07250480A30B7
:107A8000FFF74AFE20734E480930FFF745FE60734A
:107A90004B481030FFF740FEA07149480F30FFF708
:107AA0003BFEE07146480E30FFF736FE2072444838
:107AB0000D30FFF731FE607244480178A1744178BF
:107AC000E17481782175C07860754048401E007867
:107AD000A07510BD10B5044601783948FFF71EFEA9
:107AE00037486178401EFFF719FE3548A178801E9F
:107AF000FFF714FE3248E178C01EFFF70FFE304852
:107B00002179001DFFF70AFE2D486179C01CFFF79F
:107B100005FE2B48A17B0830FFF700FE2848E17BDB
:107B2000C01DFFF7FBFD2648217C801DFFF7F6FDF9
:107B30002348617C401DFFF7F1FD2148A17A0C30FC
:107B4000FFF7ECFD1E48E17A0B30FFF7E7FD1C481C
:107B5000217B0A30FFF7E2FD1948617B0930FFF70E
:107B6000DDFD1748A1791030FFF7D8FD1448E17901
:107B70000F30FFF7D3FD1248217A0E30FFF7CEFD0C
:107B80000F48617A0D30FFF7C9FD1048A17C0170E4
:107B9000E17C4170217D8170617DC1700B49A07DC8
:107BA000491E087010BD10B50C46030008F0FFFA1E
:107BB00006041014181C20250846FFF78BFF1AE056
:107BC0000360004600230046000201461900002021
:107BD0000846FFF716FF0EE00878FFF7FFFE10BD1E
:107BE000FFF7F7FE207006E00846FFF7E4FE02E02C
:107BF0000846FFF7D4FE002010BD0020C04310BD92
:107C0000F0B587B004F0A6F904466D46A81D01F052
:107C1000BFFC03A80230069001F0C5FC02A80230A8
:107C2000074601F0CBFC04A80230064601F0D1FC67
:107C3000214606221731684604F0A7FA204604229E
:107C4000A91D1D3004F0A5FA204604222130069912
:107C500004F09FFA204604223946253004F099FAB0
:107C6000204604223146653004F093FA6034E0780F
:107C7000002801D0022000E001206946887500201C
:107C8000FFF791FF07B0F0BD7047000070477047E5
:107C9000704710B502F0FFFC10BD7047704710B57B
:107CA000104806F0BFF810BD10B50F4806F0BAF83E
:107CB00010BD7047704770477047704770477047F6
:107CC000704710B506F031F810BD70477047704727
:107CD00070477047704770477047704770477047EC
:107CE0007047704700C0004000D0004010B5C0B2DF
:107CF000FFF700FD10BD0020C0437047FEE770474E
:107D000010B5FFF7C3FF10BDFF00000010B5FFF76F
:107D1000BEFF10BD10B5FFF7BBFF10BD10B5FFF7DC
:107D2000B8FF10BD10B5FFF7B8FF10BD10B5FFF7D5
:107D3000B5FF10BD10B5FFF7B2FF10BD10B5FFF7CE
:107D4000B3FF10BD10B5FFF7B4FF10BD10B5FFF7BE
:107D5000B1FF10BD10B5FFF7AEFF10BD10B5FFF7B6
:107D6000ABFF10BD10B5FFF7A8FF10BD10B5FFF7B2
:107D7000A5FF10BD10B5FFF7A2FF10BD10B5FFF7AE
:107D80009FFF10BD10B5FFF79CFF10BD10B5FFF7AA
:107D90009CFF10BD10B5FFF799FF10BD10B5FFF7A0
:107DA00096FF10BD10B5FFF793FF10BD10B5FFF79C
:107DB00090FF10BD10B5FFF78DFF10BD10B5FFF798
:107DC0008AFF10BD10B5FFF787FF10BD10B5FFF794
:107DD00084FF10BD10B5FFF781FF10BD10B5FFF790
:107DE0007EFF10BD10B5FFF77BFF10BD10B5FFF78C
:107DF00078FF10BD70B50446082802D90020C043A2
:107E000070BDFA48A604301805461021FFF786FC1D
:107E10002846FFF781FC0028FAD1F4481F211830CA
:107E20003018FFF77BFCF24801218288A1408A4389
:107E30008280F04A002061005052ED49891D0855AA
:107E4000EA48203034182046FFF766FC0028FAD1B3
:107E5000012070BDF8B51C4616460F460546082899
:107E600002D90020C043F8BD012F06D0022F04D054
:107E7000042F02D00420C043F8BD6007810FDE4804
:107E8000FAD1002C0CD0012F02D0022F08D103E030
:107E900021210C42F0D003E0A10601D52106EBD54B
:107EA0002846FFF7A7FF21090901D0483943AF044D
:107EB00010383818FFF732FC002E0AD1CC48CF4AD0
:107EC0000688711C89B20180914202D10321890385
:107ED0000180C648F03038184661C448012138187E
:107EE0000646FFF71BFC3046FFF716FC0028FAD1C8
:107EF000BF48E107C90F4288A940114341800121D1
:107F00008288A9408A438280BA4A00206900505280
:107F1000B749891D4855B54820303C182046FFF721
:107F2000FBFB0028FAD068B2F8BD70B506460828F9
:107F300002D90020C04370BDAC48B40410382018EA
:107F4000FFF7EAFB0007000F012802D00420C0431E
:107F500070BDA648203020180546FFF7DDFB13282A
:107F600002D00220C04370BDA04802212018044660
:107F7000FFF7D4FB2046FFF7CFFB0028FAD12846B5
:107F8000FFF7CAFB142805D03046FFF733FF032064
:107F9000C04370BD012070BDF7B50D4607460828E7
:107FA00002D90020C043FEBD9048BC041038201800
:107FB000FFF7B2FB0007000F012802D00420C043E6
:107FC000FEBD8A48203020180646FFF7A5FB13287F
:107FD00002D00220C043FEBD29786A7808028018CA
:107FE000AA7800028018EA7800028018421C32D079
:107FF000002830D00298002830D081482018FFF7A0
:108000008DFB7F486978401E2018FFF787FB7C486E
:10801000A978801E2018FFF781FB7948E978C01EF7
:108020002018FFF77BFB7649029827396118086210
:108030006E48042120180546FFF770FB2846FFF71D
:108040006BFB0028FAD16A4901204988B8400842F0
:108050001CD00020FEBD0B20C043FEBD0A20C04343
:10806000FEBD2846FFF758FB000708D55F480821EA
:1080700018302018FFF752FB0C20C043FEBD3046DD
:10808000FFF74AFB002804D1001FFEBD57481030FF
:1080900025183046FFF740FB1728E2D10120FEBD2E
:1080A00070B50646082802D90020C04370BD4F486D
:1080B000B50410382818FFF72FFB0007000F012820
:1080C00002D00420C04370BD484808212818044647
:1080D000FFF724FB2046FFF71FFB0028FAD1444995
:1080E00001208A88B04082438A80498808420CD0A7
:1080F000002070BD2046FFF70FFB00070BD5304670
:10810000FFF778FE0C20C04370BD384810302C18A3
:10811000364820302D182846FFF7FEFA0028E9D10E
:10812000012070BDF7B582B002981446082803D923
:108130000020C04305B0F0BD86042C48103830182C
:10814000FFF7EAFA0007000F012802D00420C0431D
:10815000F0E7002C0CD02548203030180190FFF7B4
:10816000DBFA172807D01C2805D00620C043E1E71A
:108170000D20C043DEE7029801251D4F8540B888D9
:10818000054211D0194810303018FFF7C5FAC00663
:10819000C00EC10621D51548102118303018FFF740
:1081A000BDFAB888A843B8801548D9303018009077
:1081B000FFF7B2FA8006000C844200D9044600980A
:1081C000406887B20198FFF7A7FA17281AD01C2831
:1081D00018D00298FFF70EFEC7E7000718D50298DF
:1081E000FFF708FE0C20C043A4E700001000014682
:1081F0000800002038030020FAFFFFFFF0FF000016
:1082000027010146FE484088054203D0BC4201D9FF
:1082100000208FE7BC42D2D8224603990298FFF78C
:1082200097FAF848202130180646FFF777FA3046CB
:10823000FFF772FA0028FAD1F14881880D43858052
:10824000204677E7F7B582B002981446082802D98D
:108250000020C0436EE78704EA4810383818FFF75B
:108260005BFA0007000F012802D00420C04361E739
:10827000002C19D0E4483818FFF74EFA8006000C9D
:10828000A04200D20446DF48203038180090DE4873
:1082900020383E18706A85B20098FFF73DFA17281B
:1082A00015D01C2803D00CE00D20C04342E7002D60
:1082B0001AD13046FFF730FA7168800289B28842DD
:1082C00005D10298FFF796FD0620C04332E70299D8
:1082D00001208840CA494988084203D0002D03D1B3
:1082E000002027E7002DD5D0A54200D22C462246FB
:1082F00003990298FFF740FAC24840213818054612
:10830000FFF70CFA2846FFF707FA0028FAD12046B3
:1083100010E7FFB583B003981E461546082803D919
:108320000020C04307B0F0BD8404B64810382018C0
:10833000FFF7F2F90007000F022804D0042802D04A
:108340000420C043EEE7002D1DD030787178000284
:108350004018B17800024018F1780002C84202D1FA
:108360000B20C043DEE70C9800280FD0A548203032
:1083700020180746FFF7D0F942280AD0222808D053
:108380000620C043CEE70D20C043CBE70A20C04300
:10839000C8E79D483178F9382018FFF7BFF99A48A7
:1083A0007178FA382018FFF7B9F99748B178FB3897
:1083B0002018FFF7B3F99448F178FC382018FFF73C
:1083C000ADF990490C98F031611808628E48203858
:1083D00020180190FFF7A0F98006000C854200D913
:1083E000054603990120884000900198406886B2B4
:1083F0003846FFF791F9002808D08149009849884C
:10840000084206D0B54204D900208BE70320C043C0
:1084100088E7B542E9D82A4604990398FFF798F906
:108420007848202120180746FFF778F9754818305A
:1084300026183846FFF770F90028FAD17148103035
:1084400024182046FFF768F9C006C00EC10605D5FE
:1084500030461021FFF762F9284663E70007F0D5A0
:1084600030460821FFF75AF90C20C0435AE7FFB500
:10847000002485B00646082802D9601E09B0F0BD68
:108480006048B50410382818FFF746F90490000733
:10849000000F022804D0042802D00420C043EDE7D6
:1084A0000798002805D059487700C05B002803D002
:1084B00022E00D20C043E1E75348203828180390FC
:1084C0005048203028180125B54002900398406A92
:1084D00084B20298FFF720F9002806D04848408867
:1084E000054207D0002C03D006E00320C043C5E7B7
:1084F0000020C3E7002CE9D041480021801D8155B0
:108500000498B20441073F48490F151802291FD0AB
:10851000042957D021463046FFF742F93B48C4535F
:1085200028464021FFF7FAF82846FFF7F5F800281B
:10853000FAD13648C15B091B0904090CC15305D0A7
:108540002F480122801D815D11438155204695E70A
:108550002E4CE05B002865D1082269463046FFF7C3
:108560000BF928464021FFF7D9F82846FFF7D4F841
:108570000028FAD168460178089801706846417869
:108580000898417068468178089881706846C1787B
:108590000898C17068460E99007908800102684603
:1085A000407908180E99088068468079010268466B
:1085B000C0790818E05332E0224630460699FFF7AA
:1085C000DBF8ADE7114CE05B00282BD102226946B5
:1085D0003046FFF7D1F828464021FFF79FF828469C
:1085E000FFF79AF80028FAD1684600780102684639
:1085F0004078081880B20649E05388420FD909E054
:108600000800002010000146200201463803002027
:10861000EA0500003046FFF7EDFB72482EE772498D
:1086200080208855E45B07988442C5D90446C3E797
:10863000F8B51546082802D90020C043F8BD8404C7
:108640006A4B6A4A6A4880330427E618A218201841
:10865000FF430B0007F0ABFD084F0509104213164E
:10866000444F62482978083002E060482978001DAC
:108670002018FFF753F831E0288810612EE0288891
:1086800010622BE0FFF748F80007000F01282DD1FA
:108690003046FFF741F8002802D00120C043F8BD62
:1086A00053482221103020180546FFF737F850486C
:1086B000203026180DE03046FFF72EF8000708D5C9
:1086C0004B48082128302018FFF728F80C20C04319
:1086D000F8BD2846FFF720F80028ECD10120F8BDAE
:1086E000FFF71AF80007000F012801D03846F8BD3F
:1086F00029783046BDE70920C043F8BDF8B51446D7
:108700000646082802D90020C043F8BDB504394BFD
:108710003748364AEF182818AA180B0007F047FD0B
:108720000D080D121517305E323E404248525E0071
:10873000FEF7F2FF0009000102E02C48083033E0A8
:1087400020703DE02948001D2EE01069F8E7274819
:1087500027302818FEF7E0FF20702448263028181C
:10876000FEF7DAFF6070214825302818FEF7D4FFA5
:10877000A0701E4824302818FEF7CEFFE0701FE0DE
:10878000106A1CE0FEF7C8FF0007000F01281FD188
:10879000164880302818FEF7BFFF10E078680EE01A
:1087A000786A0CE0124830302818FEF7B5FFC7E7AA
:1087B000FEF7B2FF0128F3D00F497000085A20805D
:1087C0000120F8BDFEF7A8FF0007000F012802D026
:1087D0000420C043F8BD0448805DB1E70120C043D8
:1087E000F8BD000017FCFFFF0E000020000101464D
:1087F00000000146000201463803002070B5744CA9
:1088000005462088286161882846FEF763FE01201E
:1088100001F001FD61882846FEF76AFE012001F0A3
:10882000FAFC70BDF8B507460020694D04464600C5
:1088300069883846FEF74EFE012001F0ECFC69889D
:108840003846FEF755FE012001F0E5FC2988384640
:10885000FEF732FE3043641C102CE8D3F8BD70B52F
:108860005B4C054620886861012001F0D4FC6188DA
:108870002846FEF72FFE012001F0CDFC6188284636
:10888000FEF736FE012001F0C6FC70BDF8B50746C4
:1088900016462020801B81400C464D4D18E029884B
:1088A000002C384602DAFEF715FE01E0FEF720FE46
:1088B000012001F0B0FC69883846FEF70BFE01206C
:1088C00001F0A9FC69883846FEF712FE6400761EA6
:1088D000002EE4D1F8BD70B50C46164600210546C1
:1088E0002022C943FFF7D2FF042205212846FFF7C3
:1088F000CDFF3748052241682846FFF7C7FF05220C
:1089000021462846FFF7C2FF022211462846FFF7FC
:10891000BDFF102231462846FFF7B8FF2846FFF773
:108920006DFF70BDF8B5002543273F0600240021E8
:108930002022C9433846FFF7A9FF04220621384602
:10894000FFF7A4FF052221463846FFF79FFF0522C7
:1089500001213846FFF79AFF3846FFF780FF384677
:10896000FFF760FF06463846FFF748FF002E02D0AB
:108970001848864209D1641C082CD8DD6D1CEDB264
:1089800015A006F0B3FA022DD0D32046F8BD7CB571
:10899000054614460E466846FEF787FD30462043DE
:1089A00000900120694608712846FEF71DFD01224E
:1089B00021461046FEF7ACFD012231461046FEF777
:1089C000A7FD034D6E802C80FFF7ACFF68607CBD77
:1089D00040000020FFFF00000D0A706879206964E4
:1089E00020646574656374206572726F7221210D55
:1089F0000A00000010B5FE4CFE482178FEF78EFEFE
:108A0000FC486178401EFEF789FEFA48A178801E76
:108A1000FEF784FEF748E178C01EFEF77FFEF548BA
:108A200008342178001FFEF779FEF2486178401F74
:108A3000FEF774FEEF48A178801FFEF76FFEED4849
:108A4000E178C01FFEF76AFEEA48241F2178083843
:108A5000FEF764FEE74861780938FEF75FFEE548F7
:108A6000A1780A38FEF75AFEE248E1780B38FEF7A3
:108A700055FE10BD10B5E04C80212046FEF74EFE9D
:108A80002046FEF749FEFFF7B5FFD94CD9483934E7
:108A900021781038FEF742FED64861781138FEF78B
:108AA0003DFED448A1781238FEF738FED148E1786F
:108AB0001338FEF733FECF4821790C38FEF72EFE2F
:108AC000CC4861790D38FEF729FE10BD10B5CA4CAF
:108AD00080212046FEF722FE2046FEF71DFEC44CF4
:108AE000C448393421781038FEF718FEC14861783F
:108AF0001138FEF713FEBF48A1781238FEF70EFEBC
:108B0000BC48E1781338FEF709FEBA4821790C38E1
:108B1000FEF704FEB74861790D38FEF7FFFD10BD82
:108B2000B34B10B5DB1FB54C5C62B54C9C62B54CC9
:108B3000DC62002800D05862002900D09962002A27
:108B400000D0DA6210BD30B5A94B0120DB1FD96B14
:108B500008704870062088700020C8709A6B120E4A
:108B60000A719A6B120C4A711A8F120A8A711A8F43
:108B7000CA71D96B802208818A72C872D96B1A4671
:108B8000087348738873C873087448748874C87409
:108B9000087548758875C875087648768876C876E9
:108BA000403214780C7754784C7794788C77D4785A
:108BB000CC770C46157920342570527962700622E4
:108BC0008C18521CD2B22077102AF9D3DA6B00210C
:108BD00054182034491CC9B220734029F8D3DA6BE9
:108BE000002154186034491CC9B220738029F8D37D
:108BF000D86B6321E0300173822242735322827367
:108C0000C17330BDFEB5FFF79EFF794900202931C1
:108C1000087048708870C870091D087048708870A6
:108C2000C8703439CB6B3522F021CA540127F121A9
:108C3000CF54F221CF543D22F321CA540722F4210C
:108C4000CA54F5216A4ACF5439321478F621CC54EB
:108C500011464C78F721CC541446A578F824E554F5
:108C60001446E578F924E55414462579FA24E554A8
:108C700014466579FB24E5540C21FC24E154FD21C4
:108C8000C8541221941D06E05E18E036491C401CB1
:108C9000357389B280B2255C002DF5D1544CD5785E
:108CA000E41FE36B5E18E0363573491C89B25E1829
:108CB0001579E0363573491C89B25D185279E03573
:108CC0002A73491C89B2C21C081AC018E03002720B
:108CD000E06B37224318E0331A73491C89B24318FA
:108CE0000622E033491C1A7389B24318E033491C49
:108CF0001F7389B243180325E033491C1D7389B2E1
:108D00004318E0331A73491C89B243180F22E03329
:108D10001A73491C89B242183A23E0321373491C72
:108D200089B242183B23E0321373491C89B2FF22F7
:108D30004318E0331A73491C0025FF2389B23933E5
:108D400004E04618E036491C357389B29942F8D3DD
:108D50006846027142718271C2714320009089227B
:108D600001AB9200A078E16BFFF7D3FAFEBDFEB530
:108D7000FFF7E9FE1E4C0020E41FE11D20560B46C4
:108D80002933FF27032849D0042847D068460771B4
:108D900047718771C771E26B3520F025A854012017
:108DA000F125A8540320F225A8543D20F325A8540A
:108DB0000720F425A8540120F525A8540C48F625D1
:108DC00039300078A8540A48F72539304078A8543B
:108DD0000748F82539308078A8540548F9253930F6
:108DE000C078A854024839300079FA25A8540BE01D
:108DF0004F0000201360004600230046F589000064
:108E0000758A0000CD8A0000FC48FB254079A854F3
:108E10006D46ED791020FF2D16D039E0E06B002271
:108E20008272C2720A7802734A7842738A788273B5
:108E3000CA78C2731A78684602715A7842719A7871
:108E40008271DA78C271A6E73225FC2085540425A8
:108E5000FD2085540E78FE2086544E78FF208654DF
:108E60008878AE01B054C978701C81543621401CFA
:108E70008154401C85541978401C81545978401CF9
:108E800081549978401C8154D978401C81541C200D
:108E900013180C21E0331973401C1318D74D00210F
:108EA000E033AD1D1973401C05E01618E036401C78
:108EB000337380B2491C6B5C002BF6D1E36BCF4A55
:108EC0001E18D578E0363573401C80B21E1815790F
:108ED000E0363573401C80B21D185279E0352A7394
:108EE000401C82B2C81C511AC918E0310872E06BEC
:108EF00037218318E0331973521C91B243180822AA
:108F0000E0331A73491C89B243180122E0331A7303
:108F1000491C89B243180322E0331A73491C89B2F1
:108F200043180622E0331A73491C89B243180F22F2
:108F3000E0331A73491C89B242183A23E0321373A2
:108F4000491C89B24218E0323B23491C137389B291
:108F50001F234218E0321373491C89B2421821239F
:108F6000E0321373491C89B24218E0321773491C6E
:108F70000022FF2389B2393303E04518E0352A7314
:108F8000491C9942F9DB43200090892201AB9200F1
:108F9000A078E16BFFF7BDF9FEBD1CB5FFF7D3FD6F
:108FA000964800214038C06B35228172C172F02191
:108FB0000A540122F1210A540422F2210A543D23C9
:108FC000F3210B540722F4210A540122F5210A54FB
:108FD0008A49F6220B7813544B78F72213548B7876
:108FE000F8221354CB78F92213540B79FA22135434
:108FF0004A79FB210A543222FC210A540422FD2121
:109000000A547E4939390A78FE210A547B49393994
:109010004A78FF210A54794939398A78FF21013188
:109020000A5476493939CA78FF2102310A54362266
:10903000491C0A540422491C0A547049FF22103961
:109040000B78053213544B78521C13548B78521CF6
:109050001354CA78FF2108310A54FF22491C0A54CC
:109060001D210023FF2239324418E034491C2373A8
:109070009142F9DBFF206946087148718871C87117
:10908000432000905D4889224038C16B01AB9200BB
:109090008078FFF73EF91CBDF0B5584C584A403C6B
:1090A000A07885B081048918496A0A04120C5BD043
:1090B00003A9009101ABE16BFFF7D9F983B26846D0
:1090C0008089432870D1E06B4C49027F0D78AA4219
:1090D0004AD1427F4D78AA4246D1827F8D78AA42FA
:1090E00042D1C57FCA7895423ED10246203215460C
:1090F00016780A79964237D16A7849798A4233D10B
:10910000214630310D780A1D002D08D14E78002EF1
:1091100005D18E78002E02D1CE78002E27D06E4653
:109120003679AE420ED16D466D794F78BD4209D188
:109130006D46AD798F78BD4204D16D46ED79CF781B
:10914000BD4214D01578AE420ED16D466D79567879
:10915000B54209D16D46AD799678B54204D16D46D8
:10916000EE79D578AE4202D0002005B0F0BDF030E7
:109170000025C318F03B15E00678332E42D008DCFA
:10918000002E15D0012E18D0032E21D0062E06D188
:1091900024E0352E0ED0362E43D0FF2E06D0467852
:1091A000801C80199842E7D368B2DEE71846F9E7D9
:1091B000401CF7E78578C01CF4E7104E8778313EF5
:1091C0003770C77877700779B7704779F7703CE0E8
:1091D00046788778B446094E353E04E0467887786D
:1091E000B446064E2D3E3770C77877700779B77052
:1091F0004779801D6044F770001FD3E78800002086
:10920000000201468678A661C7783602BF19A761B9
:1092100006793F02F719A76146793F02F619A66160
:1092200013E086780E70C6784E7006798E70467997
:10923000CE706E46367916706E46767956706E46EA
:10924000B67996706E46F679D670801DAAE7E84822
:109250000021C161052202624170704770B5E44C83
:1092600001256157002622469057022917DAE26944
:10927000216A914223D2012804D0022805D0042873
:1092800005D102E0FFF7BEFC01E0FFF770FDE661EB
:10929000E069401D20626078401C60700FE001288A
:1092A00004D0022805D0042807D102E0267000254A
:1092B00003E0FFF7A7FC01202070FFF7C8FF284656
:1092C00070BDF8B5CB4E3046FEF726FA05460321B1
:1092D0003046FEF723FAC64BC748DB1DDC1F009063
:1092E0001122C6A1A078FFF714F807462946304698
:1092F000FEF714FA0D3708D0FFF74FFEE069E16979
:10930000091A0229FBD30020F8BD0120F8BDF8B5E9
:10931000B74C207806281ED0A078BD49800440189C
:10932000FEF7FAF9222805D0002344220221A07872
:10933000FEF790FD0125FFF7AFFEC1B20022A25655
:10934000AB4800260127C01D130006F030FF0506BC
:109350000D1C314C2F000520F8BD0670467086703C
:10936000C670FFF74FFC5EE002291CD1E16B0A7C5E
:1093700002704A7C42708A7C8270C97CC170FFF79F
:10938000F6FC02204BE005290BD1FFF79AFF0028DD
:1093900001D0606A3FE0FFF75AFFE06A804726701D
:1093A00004E006293DD0FFF759FF05462846F8BDE1
:1093B000A16904254A1CF9D0E26949089142F5D215
:1093C0008B490278C91C0A7042784A7082788A7088
:1093D000C078C870A06B401CA063FFF7C8FCFFF703
:1093E00036FF04201BE004250529DAD18049667088
:1093F000C91C0A7803789A420BD14A7843789A427A
:1094000007D18A7883789A4203D1C978C07881429B
:1094100002D0A06A03258047FFF719FF03202070C0
:10942000C4E7FFF714FF2770C0E710B5704CA078B1
:10943000FEF7E0FC0620207010BDF3B56D4F83B041
:1094400006460025413F38460095FEF765F9684C11
:1094500040342070781EFEF75FF96070B81EFEF78A
:109460005BF9A070F81EFEF757F9E070381DFEF7A3
:1094700053F92071F81CFEF74FF96071014620780E
:109480006278E3781043A2781A431043227910439C
:1094900008431FD1257008206070DC20A070E570A3
:1094A0002571294665713846FEF738F96178781ECE
:1094B000FEF734F9A178B81EFEF730F9E178F81E0E
:1094C000FEF72CF92179381DFEF728F96179F81C8F
:1094D000FEF724F9464F4F49BE700498F863E078D0
:1094E0006379421821798A1848409A1858408018A0
:1094F000B863684601783F480C463138FEF70EF9EC
:1095000068464078029001463A483238FEF706F93C
:10951000684680780190014636483338FEF7FEF8F9
:109520006846C678334831463438FEF7F7F8314894
:1095300021463138FEF7F2F82E4802993238FEF70C
:10954000EDF82C4801993338FEF7E8F82948314600
:109550003438FEF7E3F8274821463938FEF7DEF8BD
:10956000244802993A38FEF7D9F8224801993B3845
:10957000FEF7D4F81F4831463C38FEF7CFF8FFF726
:1095800066FE3D70F1E51A48C169491CC16170472A
:109590001749C91D0A7802704A7842708A78827029
:1095A000C978C170704712490B310A7802704A7845
:1095B00042708A788270C978C17070470C490F3147
:1095C0000A7802704A7842708A788270C978C170CD
:1095D0007047074913310A7802704A7842708A78D6
:1095E0008270C978C1707047014880697047000077
:1095F000480000204460004688130000434845436B
:109600004B5F49505F434F4E464C49435400000066
:10961000300001467856341201784078090240182B
:1096200080B270470A0A02704170801C7047F0B522
:1096300084460020054606460C78491C002D00D1C2
:10964000401C2706BF0F032F0AD1002D00D1401C5C
:10965000A4060978A40C6444091901250C78491C56
:10966000002C19D01B1B5B1E1BB2002B02DA002042
:10967000C043F0BD002D05D1001903E00F7817702D
:10968000491C521C2746641EA4B2002FF6D12E247A
:109690001470521C761CCFE7002E02D12E211170BF
:1096A000521C00211170F0BD10B593B00C464B2335
:1096B0006A46FFF7BCFF411C03D02018001D13B001
:1096C00010BD0020FBE770B593B015460C4606466A
:1096D0004B236A46FFF7ABFF411C46D024182046B7
:1096E000FFF79AFF0A34030006F061FD103C0913EE
:1096F0003C3C13291313133C3C13183C1F3C2078AB
:10970000287060786870A078A870E078E870241DF0
:1097100028E04B236A460BE0241823E02078641CE1
:1097200020180178401C44181CE04B236A46A41CF6
:1097300021463046FFF77BFF411C16D0ECE74B2358
:109740006A4621463046FFF772FF411C0DD02418AF
:109750004B236A4621463046FFF769FF411C04D07F
:1097600024181434204613B070BD0020FBE7F7B571
:109770000D460446122105F0CCFE2846FFF74CFFAB
:109780002080A81CFFF748FF02040121002A00DA0C
:10979000A1704204120FE270420500D521718205CA
:1097A00000D56171C20500D5A171020600D5E17135
:1097B0000007000F2072281DFFF72EFF6081A81DF3
:1097C000FFF72AFFA08128460830FFF725FFE08138
:1097D00028460A30FFF720FF29460C310026208258
:1097E000771E06E02846FFF75FFF010014D0761CC5
:1097F000B6B26089B042F5D8002607E02846029A42
:10980000FFF761FF010007D0761CB6B2A089B04215
:10981000F4D80020E18903E03846FEBD401C80B248
:109820008142FBD80020218A01E0401C80B28142A5
:10983000FBD8207A002801D00020FEBD0120FEBD0B
:10984000FFB55E4A0D46518895B00346491C89B262
:1098500017985180FFF7E6FED902FF31013189B236
:10986000FFF7E0FE0121FFF7DDFE0021FFF7DAFE42
:109870000021FFF7D7FE0021FFF7D4FE044629465A
:10988000684605F045FD6E46304605F067FD80B23E
:1098900013902E21304605F003FD070002D0B81BBF
:1098A00085B200E0139D2570641C002D12D02A465D
:1098B0003146204605F032FE6419002F07D0139878
:1098C0007619401B401E80B2761C1390E1E7002001
:1098D0002070641C01212046FFF7A4FE0121FFF740
:1098E000A1FE179919B0401A00B2F0BD3348816843
:1098F00003290BD3002282600178022902D302706F
:10990000501E7047491C01700020704701207047AD
:109910002A4A50702A48516050807047F7B5274C4A
:109920000D46002388B01A4602216078FEF792FAAD
:10993000FF2601363346294600206268FFF780FF84
:109940003525009582B2089B60786168FEF7E1FCDE
:109950001C4F60788004C019406A05042D0C16D095
:10996000B54200D9354607A8009006AB2A46607874
:109970006168FEF77CFD0A9A01A86168FFF7F7FEAF
:1099800005466078FEF736FA28460BB0F0BDFFF7C3
:10999000ADFF002801DA0020F7E70028D9D13520F3
:1099A00000902A46089B60786168FEF7B2FCD0E719
:1099B00002488168491C81607047000098000020BF
:1099C000221100000002014610B5C04909780129A2
:1099D0000AD1BF4C2178012906D101F067FB002094
:1099E00002F030F90020207010BD3EB502F0B2FA4E
:1099F0006421095C002906D0B6490978012906D0FE
:109A0000B5A005F073FAB8A005F070FA3EBD0146A6
:109A100021314A7C097C12020A43014620318B7BAA
:109A20004C7B0094019302920B7BCA7A4931AFA020
:109A300005F05CFAE7E7FEB502F08CFA0446002573
:109A4000B3490420FFF764FF20466030427969463D
:109A50000A7082794A70C27906468A70007AC870A4
:109A6000032000F029FF20462B3069340190214665
:109A70006846019AFFF752FF074601280BD06D1C7C
:109A8000EDB2022D07D803F02EFEF0780028EED0BC
:109A9000FFF73DFCEBE7012000F00EFF3846FEBD6E
:109AA00010B502F057FA6030C078002806D0994807
:109AB0000078012803D098A005F018FA10BDFFF730
:109AC00093FD014699A005F011FA10BD70B500256F
:109AD00002F040FA064629368D490320FFF7ADFC17
:109AE0009D499C4A0846FFF71BF8032000F0E4FE5E
:109AF000FFF70DFC0446042807D0002C01D16D1C93
:109B0000EDB2032D09D9FFF790FC7078042802D03C
:109B1000012000F0D1FE60B270BD03F0E4FD002032
:109B2000FFF752FFE4E7F0B591B002F013FA0446F4
:109B30003C228A496846FDF73DFB611D88A005F07F
:109B4000D5F926462036707A8B49800009588BA0BB
:109B500005F0CCF98FA005F0C9F9204660300F90D0
:109B6000C07801282AD091A192A005F0BFF99AA04F
:109B700005F0BCF927462337787B3A7B0102114375
:109B80009AA005F0B3F9A049A0A005F0AFF99E494D
:109B9000A7A0491C05F0AAF9AE48FDF7BDFD014696
:109BA000ADA005F0A3F9B5A005F0A0F92546403514
:109BB000287E002804D02246583202E0B5A1D3E71F
:109BC000B9A2002801D0BAA100E0BBA1BDA005F058
:109BD0008DF9C0A005F08AF90F988078012811D07E
:109BE000B5A1C5A2CCA005F081F9CEA005F07EF903
:109BF000D5A005F07BF9787C3A7C0102114303D0B3
:109C0000D7A003E0AAA1ECE7ABA159A005F06EF93B
:109C1000D7A005F06BF920462130417D007D090277
:109C2000014301D0D8A001E0A3A151A005F05EF945
:109C3000D9A005F05BF90023DDA2DDA1DEA005F0CF
:109C400055F96879E34980000958E3A005F04EF919
:109C5000A879694680000958E5A005F047F9E87938
:109C6000E649095CE6A005F041F9287AE54980005B
:109C70000958E5A005F03AF9687AE449095CE4A0DE
:109C800005F034F96979E44800291CD00168E3A0A3
:109C900005F02CF90223C6A2C5A1E5A005F026F91E
:109CA000EAA3ECA2EDA1F1A005F020F9F4A005F0E3
:109CB0001DF9FCA005F01AF9787D3A7D01021143E7
:109CC00002D0B1A0FAE1F3E1F6E10000C800002003
:109CD000CA000020D6000020202320444E532046F6
:109CE00061696C65640D0A000D0A000020232044A0
:109CF0004E533A202573203D3E2025642E25642EA8
:109D000025642E2564203A2025640D0A00000000F9
:109D100048030020200100202023204448435020F5
:109D20004661696C65640D0A000000002023204430
:109D3000484350204950204C656173656420746924
:109D40006D65203A202575207365636F6E64730D11
:109D50000A000000897C0000017C000078030100FB
:109D6000202D20446576696365206E616D653A201B
:109D700025730D0A0000000010010020202D204452
:109D80006576696365206D6F64653A2025730D0AF9
:109D900000000000202D204E6574776F726B2073D9
:109DA000657474696E67733A200D0A0053746174A8
:109DB00069630000092D204F627461696E696E67E6
:109DC0002049502073657474696E67733A205B256F
:109DD000735D0D0A00000000092D205443502F55DB
:109DE000445020706F7274730D0A00000920202007
:109DF0002B20533245206461746120706F72743A75
:109E0000205B25645D0D0A0051C30000092020205D
:109E10002B205443502F5544502073657474696E41
:109E20006720706F72743A205B25645D0D0A000034
:109E3000092020202B204669726D7761726520759C
:109E4000706461746520706F72743A205B25645D84
:109E50000D0A000044600046092D20544350205252
:109E6000657472616E736D697373696F6E2072656C
:109E70007472793A205B25645D0D0A00202D205311
:109E8000656172636820494420636F64653A200D00
:109E90000A0000004175746F6D61746963202D20A4
:109EA00044484350000000004E6F6E650000000003
:109EB000456E61626C65640044697361626C6564DF
:109EC00000000000092D2025733A205B25735D0DED
:109ED0000A000000202D2045746865726E657420AC
:109EE000636F6E6E656374696F6E207061737377F4
:109EF0006F72643A200D0A00285443502073657233
:109F0000766572202F206D69786564206D6F6465B9
:109F1000206F6E6C79290000092D20257320257390
:109F20000D0A0000202D20436F6E6E656374696F0B
:109F30006E2074696D65722073657474696E6773E1
:109F40003A200D0A00000000092D20496E6163745B
:109F500069766974792074696D65723A2000000031
:109F60005B25645D2028736563290D0A00000000ED
:109F7000092D205265636F6E6E65637420696E747F
:109F8000657276616C3A20005B25645D20286D73F4
:109F90006563290D0A000000202D20536572696158
:109FA0006C2073657474696E67733A200D0A000043
:109FB0005541525400000000092D20446174612075
:109FC000257320706F72743A20205B257325645DC1
:109FD0000D0A0000E4020020092020202B2055411A
:109FE00052542049463A205B25735D0D0A0000005B
:109FF000092020202B2025642D000000C002002015
:10A0000025642D00C402002025732D00D0020020FD
:10A010002564202F20000000D4020020466C6F77BA
:10A0200020636F6E74726F6C3A2025730D0A000006
:10A03000092D20446562756720257320706F727446
:10A040003A205B257325645D0D0A00002866697857
:10A05000656429004E4F4E45000000003131353215
:10A0600030302D382D4E2D310000000009202020E9
:10A070002B202573202F2025732025730D0A000027
:10A08000202D2053657269616C20646174612070B9
:10A0900061636B696E67206F7074696F6E733A0DE0
:10A0A0000A000000092D2054696D653A2000000067
:10A0B000A97A89004158EAE5AD49AE4804F016FF97
:10A0C000ADA004F013FF717E002901D0ADA001E026
:10A0D000A749A84804F00AFFAEA004F007FFB07F2C
:10A0E00001281CD0A249A34804F000FFACA004F052
:10A0F000FDFE8034E07E012814D09D49B2A004F01A
:10A10000F5FEE37FA27F617FB1A004F0EFFEB9A06E
:10A1100004F0ECFEE87A002807D0C0A206E0B17E89
:10A12000BFA0E1E792490839E8E7C2A2C4A1C6A0EE
:10A1300004F0DCFE287B002801D0CAA200E0CAA2FD
:10A14000CDA1CFA004F0D2FED4A004F0CFFEDE4C0F
:10A15000207804F078FDDD4D80002F58207804F041
:10A1600063FDDB4E800032583B46DAA1DBA004F0F1
:10A17000BDFE607804F067FD80002F58607804F021
:10A1800053FD800032583B46DCA1DEA004F0AEFE59
:10A19000A07804F058FD80002F58A07804F044FD0A
:10A1A000800032583B46DFA1E0A004F09FFEE0783B
:10A1B00004F049FD80002D58E07804F035FD800062
:10A1C00032582B46E1A1E3A004F090FEE9A1A3A040
:10A1D00004F08CFE11B0F0BD38B501F0BBFE0446B2
:10A1E0006BA004F083FEE3A19CA004F07FFEEEA12F
:10A1F000F1A004F07BFEF2A004F078FEFAA000903B
:10A20000A37D627D217DFAA004F070FED9A193A008
:10A2100004F06CFE38BD01B5FE480099016001688C
:10A220000029FCD108BD8AB001F094FE044600F07C
:10A230003AFAF9A003C806900791F7A003C809915C
:10A240000890FDF7CBFAFCF7EDFFF54905F0F9F9B9
:10A25000F449086008A906A8FDF766FB00F0C0FAFB
:10A2600001F031FF20462030012507908572C01C87
:10A27000417D027D0802104301D0EB49088002F0C5
:10A280000AF801F067FE8030817E68460176E74972
:10A29000418306A8FDF78FFB03F003FF26464036F7
:10A2A000707B002803D0FFF797FFFFF73CFC02F01C
:10A2B00012F827466037F87800282BD0FFF706FC05
:10A2C000042825D0214606221731684601F05DFF9B
:10A2D000214601A804221D31023001F05AFF214617
:10A2E00003A804222131023001F053FF214602A8C5
:10A2F00004222531023001F04CFF04A80422791D0C
:10A30000023001F046FF69460020FDF74CFC03E0F7
:10A31000C7480570C7480570707B002803D001F05E
:10A320003CFFFFF7BDFB0798407A01280DD0387934
:10A3300000280AD0FFF77FFB002801D0BE48057037
:10A34000707B002801D0FFF750FBBC48002405704B
:10A35000BB4D2878002803D0002001F073FC2C703E
:10A3600004F0E1FBB74D03F0BEF900206CE1000002
:10A37000B89E0000709D0000092D2053697A653A4F
:10A38000200000005B25645D2028627974657329D4
:10A390000D0A0000092D20436861723A2000000078
:10A3A000202D2053657269616C20636F6D6D616E45
:10A3B00064206D6F64652073776974636820636FD0
:10A3C00064653A0D0A000000092D2025730D0A006E
:10A3D000092D205B252E32585D5B252E32585D5BA2
:10A3E000252E32585D2028486578206F6E6C7929BB
:10A3F0000D0A0000202D204861726477617265208B
:10A40000696E666F726D6174696F6E3A2053746124
:10A410007475732070696E730D0A00004454520005
:10A420005B252E32585D2028686578206F6E6C7928
:10A43000290D0A00504859206C696E6B000000001D
:10A4400050415F3130000000092D20537461747554
:10A450007320313A205B25735D202D2025730D0A72
:10A46000000000004453520054435020636F6E6E4E
:10A47000656374696F6E000050415F303100000009
:10A48000092D2053746174757320323A205B257353
:10A490005D202D2025730D0A00000000202D20488E
:10A4A0006172647761726520696E666F726D617446
:10A4B000696F6E3A205573657220492F4F2070697D
:10A4C0006E730D0A00000000200300202C03002002
:10A4D0002403002050435F3133000000092D205534
:10A4E000736572494F20413A205B25735D202D2012
:10A4F0002573202F2025730D0A00000050435F3183
:10A5000032000000092D2055736572494F20423AF0
:10A51000205B25735D202D202573202F2025730DB2
:10A520000A00000050435F3039000000092D20551B
:10A53000736572494F20433A205B25735D202D20BF
:10A540002573202F2025730D0A00000050435F3033
:10A5500038000000092D2055736572494F20443A98
:10A56000205B25735D202D202573202F2025730D62
:10A570000A0000003D3D3D3D3D3D3D3D3D3D3D3DF5
:10A580003D3D3D3D3D3D3D3D3D3D3D3D3D3D3D3DFB
:10A590003D3D3D3D3D3D3D3D3D3D3D3D3D3D3D3DEB
:10A5A0003D3D3D3D3D3D000057495A373530535202
:10A5B0002D31787800000000202573200D0A00005E
:10A5C000203E3E2057495A6E65742053657269617A
:10A5D0006C20746F2045746865726E6574204465E4
:10A5E000766963650D0A00005F44494B0000000076
:10A5F000203E3E204669726D7761726520766572F5
:10A6000073696F6E3A2025642E25642E25642025FB
:10A61000730D0A00A80000200402020202020200D8
:10A620001027000000200046E400002088130000EE
:10A630002001002021010020D6000020C4000020BD
:10A64000AC000020B0020020FFF7BEF929480078D6
:10A65000002802D0002001F0B2FAF878002801D0DA
:10A66000FEF755FE24480178002900D004702348E5
:10A670000178002903D00470012000F008F928783F
:10A68000002800D16FE6707B002802D01CA004F0E7
:10A690002DFC2C7067E622480168002902D0016871
:10A6A000491E0160704710B500F0C9F81D4A01202D
:10A6B0009110FCF71BFE03F015FB03F02BFDFCF7DC
:10A6C000B1FD7D21C90004F0BCFF1749401E88423E
:10A6D0000CD81649486116480722C3691B021B0A99
:10A6E0004C042343C361002088610A610A20FFF7FC
:10A6F00092FD10BD21010020C2000020C3000020F7
:10A70000203E20554152542052782052696E6720D5
:10A710006275666665722046756C6C0D0A000000F5
:10A72000A8000020006CDC02FFFFFF0000E000E05A
:10A7300004ED00E0FEB50446032818D25A4E650029
:10A74000705B00900120694608715848A700C05905
:10A75000FCF74AFE5548715B001F025DC01E005D9C
:10A76000FCF7D6FE5148715BC059FCF7B3FEFEBD45
:10A7700070B5012321241D026406002229462046CB
:10A78000FCF7EEFE656170BD10B5012321200022AB
:10A7900019464006FCF7E4FE10BD70B50125002403
:10A7A0006D022126760629463046FCF785FE0028F4
:10A7B00001D0012070BD0520FFF72DFD641CE4B21F
:10A7C000052CF0D3002070BD70B5012321245D025B
:10A7D0006406002229462046FCF7C2FE656170BD72
:10A7E00070B5012003F009FB0122920343255400B8
:10A7F0002D0621462846FEF7CAF8224600212846A3
:10A80000FEF769F8002003F0F8FAFFF7DDFFFFF725
:10A81000C4FF002811D00020244908390870FFF730
:10A82000B3FFFFF7A5FF0020FFF784FF0120FFF72C
:10A8300081FF0220FFF77EFF70BD0120ECE71C497D
:10A84000022008631B498860704710B52120012150
:10A850004006FCF731FE10BD70470020704710B570
:10A86000032807D2104A4100515A104A800010585C
:10A87000FCF73EFE10BD10B5032807D20A4A41007E
:10A88000515A0A4A80001058FCF724FE10BD0328D4
:10A8900008D20649820089584A68034B4000185A7A
:10A8A00042404A6070470000B4030100B400002039
:10A8B000401100410020004170B5054601F04AFBFF
:10A8C0000446293401F046FB2B0005F070FC06100D
:10A8D0000406090C0E10012003E0022060700EE057
:10A8E0000320607006E00420FBE70520F9E76078AC
:10A8F000022804D00021802004F045FA70BD012117
:10A90000F9E700290FD00023FE4A00280CD00128C7
:10A9100013D002281AD0032805D1106B401C1ED07A
:10A92000D06B4018D0637047106B401C03D0106B85
:10A9300040181063704713637047106B401C03D0BE
:10A94000506B40185063704753637047106B401C46
:10A9500003D0906B40189063704793637047D36344
:10A960007047F7B582B015460E46002403F039FA59
:10A97000002811D003F03EFA009003F038FA01905D
:10A9800003F032FA074603F02CFA01463A46DEA0FD
:10A99000019B04F0ABFA0DE003F02CFA009003F0F9
:10A9A00026FA074603F020FA01463A46DCA0009B4F
:10A9B00004F09CFA022D02D0032D02D013E0DDA199
:10A9C00000E0DDA13246DDA004F090FA06E0029836
:10A9D000015DDDA004F08AFA641CA4B2B442F6D38F
:10A9E000DBA004F083FA204605B0F0BDFEB50C46AE
:10A9F000074601F0AFFA002506464E360095019550
:10AA000002950B2C00D30A2422463946684604F0EE
:10AA100023FD304604F0A2FCA04207D1224669463D
:10AA2000304604F047FC002800D101252846FEBD31
:10AA3000F1B584B001F08EFA2930039001F08AFA62
:10AA40000546453501F086FA4E30029068790228B5
:10AA500004D1002003F07FFC0028C5D104988104B4
:10AA6000BC480818406A002687B20120C002A54CE5
:10AA7000874201D9074601E0002F3CD0B6480818AC
:10AA8000FCF74AFE172829D01C2827D022282BD1D2
:10AA90009C483A462830034600901833AF49049842
:10AAA000FDF7E5FC9749E08440310422081D04F0DD
:10AAB00001FC002818D09349086C4864287A0028C3
:10AAC00012D008464030228DC178019200918378DF
:10AAD00042780178A2A004F009FA05E03A469F49BD
:10AAE0000498FDF7AFFBE084E68226832673E18CB1
:10AAF0000220FFF706FF03984078012804D00228BF
:10AB000009D16078002806D10298007D012802D181
:10AB1000A07A002806D0E08C002811D0E87901281E
:10AB200012D015E039468D48FFF760FF012808D0A4
:10AB3000A672E684A07A002802D10498FDF7B0FA44
:10AB400052E70120A072F4E704F084F90028F7D05E
:10AB50002878824F012808D06879012822D0287AE5
:10AB6000032844D0042842D046E0287A032801D0A4
:10AB7000042804D10322E18C7848FFF7F2FE00207C
:10AB800003F099FB002505E0795D002003F02EFB22
:10AB90006D1CADB2E08C8542F6D3002003F0B3FB10
:10ABA000E18C1FE0607B012803D077A004F09EF9C0
:10ABB0001AE777A004F09AF9287A032801D004282C
:10ABC00004D10322E18C6548FFF7CBFE002505E0A8
:10ABD000795D002003F00AFB6D1CADB2E08C85426C
:10ABE000F6D314E00320FFF78CFEE684FCE6032294
:10ABF000E18C5A48FFF7B5FE002505E0795D00209D
:10AC000003F0F4FA6D1CADB2E08C8542F6D381B24C
:10AC1000E8E7F8B501F09EF905465F482935018857
:10AC20005E4800880A185E480088101A04F013FD78
:10AC3000344C8EB2A08C01273018FF02B84213D3D7
:10AC4000687C00280DD0012E0BD1002003F015FBED
:10AC5000C1B25448A28C8154687C884201D110460C
:10AC6000F8BDA08C381A86B2E87BA97B00020843A5
:10AC700005D1287C002802D1687C002801D000275B
:10AC80002AE00025474F08E0002003F0F6FAA18CE7
:10AC90007854491C6D1CA184ADB2B542F4D3A08C8C
:10ACA000F8BD002003F0E9FA02463E49A08C0A54A0
:10ACB000401C80B2A0846A7C002A04D00918203984
:10ACC000C97F8A4204D0297C002903D0814201D166
:10ACD00080B2F8BD7F1CBFB2B742E2D3E87BA97B4C
:10ACE0000002084368D0A58C002D65D0207A00288A
:10ACF00062D029480188294800880A182848008815
:10AD0000101A51E0C8000020205B2564642F253014
:10AD100032643A253032643A253032645D000000F6
:10AD2000205B253032643A253032643A2530326473
:10AD30005D00000053324500453253005B25735DD2
:10AD40005B253034645D200025303258200000003F
:10AD50000D0A00000002014630000146480B0020A9
:10AD6000203E2055445020506565722049502F5098
:10AD70006F72743A2025642E25642E25642E256476
:10AD8000203A2025640D0A00584F46460D0A00005F
:10AD9000584F4E310D0A0000BA020020B6020020C2
:10ADA000B80200204803002004F055FC002901D11E
:10ADB000002020722846F8BD0020F8BDFEB50746E9
:10ADC00001F0C8F80546293501F0C4F806464536B5
:10ADD000FFF73BFD00287DD1002C11D02146EBA0D0
:10ADE00004F084F80198EC4C002877D0014600204C
:10ADF000FFF787FD307A022808D0042806D00AE041
:10AE0000FFF707FF01460190E4A0E9E70222E948C5
:10AE10000199FFF7A6FDE849B8044018FCF77CFC4F
:10AE2000142861D017283BD01C2839D0222855D1AE
:10AE3000A878002808D1E878002805D128790028CA
:10AE400002D16879002806D0687A297A000208437E
:10AE5000AB1C009011E0D04840300178002908D1A7
:10AE60004178002905D18178002902D1C0780028D5
:10AE70000AD0C94B208D40330090CE493846019A04
:10AE8000FDF747FA07B205E0307A002802D0CB4838
:10AE900004F02CF8002F21DDA08CC01BA0841DE045
:10AEA000A07A01281AD1C3493846019AFDF73AF928
:10AEB00000B2002802DDA18C081AA08401200199AB
:10AEC000FFF71FFDE87D012808D1207B002808D06E
:10AED000002000E004E02073002020830020E082B6
:10AEE000FEBD01202071F7E70020A084FEBDF0B573
:10AEF00089B0074601F02EF801F02CF805462935F7
:10AF000001F028F80646AC48BC0445362018FCF78A
:10AF100003FC0023AA4A00281FD022281BD1A948DD
:10AF2000018810880A18A8480088101A04F093FBBA
:10AF3000994DA88C014302D03846FFF73FFFA34844
:10AF40002018406A0004000C02D1E88C002802D0CE
:10AF50003846FFF76DFD09B0F0BD00209A4910801A
:10AF600008808D498884C884A9780A46E03A0F2A67
:10AF700054D801236A46137450745E209074E878A4
:10AF80004006400ED07402902879107501906879BF
:10AF9000507500908D48D9382018FCF7BFFB8B48BE
:10AFA000E978DA382018FCF7B9FB88482979DB38CA
:10AFB0002018FCF7B3FB85486979DC382018FCF7CA
:10AFC000ADFB687A297A000208437B49D0316118C9
:10AFD00008627E480121E5382018FCF79FFB7B487A
:10AFE0000021E6382018FCF799FB78485E21E73805
:10AFF0002018FCF793FB70480299E8302018FCF702
:10B000008DFB72480199E3382018FCF787FB6F48E5
:10B010000099E4382018FCF781FB802301200343CA
:10B02000E879A97902020A4302213846FCF712FFA7
:10B03000B84290D10520FFF73FFCE87BA97B0002D6
:10B04000084301D054498883307A002883D060A017
:10B0500003F04CFF7FE710B54F4CA08A002809D0C1
:10B060006249884204D2401C0840A08202D00DE010
:10B070000020A08202F0C8FE04F0ECF8FCF77EF895
:10B080005B4904F0E8FA5B480818A08280B210BD62
:10B0900041480021C170C171017141720172C172D8
:10B0A0008172C182018401834184704770B5054675
:10B0B00000F050FF04464049A80429344018FCF72A
:10B0C0002BFB002807D02178032909D0172804D0AA
:10B0D0001C2802D004E0284670BD2846FCF7E0FF9B
:10B0E0002846FCF787FEF6E710B500220621FDF79B
:10B0F0009FFA10BDF0B585B000F02CFF044629344E
:10B1000000F028FF0546453500F024FF01460020E9
:10B110004E310646009003913748FCF7FDFA694628
:10B12000087002903448401EFCF7F6FA69464870F1
:10B1300001903148801EFCF7EFFA69468870074697
:10B140002D48C01EFCF7E8FA6946C8700399897D4E
:10B15000012908D11049897B012904D0287A0028C7
:10B1600013D026A05FE00299002906D10199002999
:10B1700003D1002F01D1002803D0A178002955D098
:10B180005DE0287A002871D04CE06FE06C656E209D
:10B190003D2025640D0A0000C80000206765745F2B
:10B1A00073657269616C5F64617461203D20256420
:10B1B0000D0A00004803002030000146B8040100D9
:10B1C000B6020020BA020020B802002000020146A8
:10B1D000203E205345473A5544505F4D4F44453A31
:10B1E000534F434B4F50454E0D0A0000FFFF0000E8
:10B1F00010270000B888000013600046203E20534E
:10B2000045473A434F4E4E454354494F4E204641E1
:10B21000494C4544202D20444E53204661696C65BD
:10B22000640D0A00F3A003F061FE1FE0E278002A3B
:10B2300005D12279002A02D16279002A11D0029A1E
:10B240008A4214D1E2780199914210D121798F423A
:10B250000DD1617988420AD1287A002806D0F4A05D
:10B26000E1E7287A002801D0FE48DCE701263046D5
:10B2700066E4F1B588B000F06DFE00F06BFE0546A7
:10B28000293500F067FE0746453700F063FE4E3073
:10B290000024069002946846848108988104F2484C
:10B2A00004910818FCF738FAF04A04990126891825
:10B2B0000591172851D01FDC002878D0132824D0FE
:10B2C000142818D1EA4C6078002814D1E948018884
:10B2D000E94800880A18E9480088101A04F0BBF908
:10B2E000002908D00898FFF7E1FE6670687B297B8B
:10B2F00000020843E0832EE61828DED01C28FAD18D
:10B30000DFA003F0F3FDDA4CF6E0D94E70780128A7
:10B31000F1D1687B297B00020843F18B8842EAD88F
:10B32000F483FFF7E7FE01280DD0687A297A02023C
:10B330000A43A91C0898FCF72FFE707C401CC0B281
:10B3400070740A28D7D30898FFF7B0FECA487474FF
:10B350000480CA4804807470FDE5C349049810391C
:10B360004018FCF7D9F9C0075BD00220FFF7A4FA18
:10B37000BF48C18A002905D1E97AAA7A0902114396
:10B3800000D0C670BA48008B002804D1E87D0028A0
:10B3900001D0B74806710698007D002808D0B4484F
:10B3A0004178012904D0827A114304D005E0B3E04A
:10B3B000AF48867201E046724484387A002819D07A
:10B3C00002AA04210898FDF799F903AA0521089813
:10B3D000FDF794F9A6484078002868468189C07A2C
:10B3E000009001916846837A427A017A09D0A6A03A
:10B3F00003F07CFD9E484178002904D0012907D044
:10B4000007E0ACA0F4E79C490C809C490C8000E06C
:10B410004470447494490498083940180121FCF799
:10B420007DF994480188944800880A189348008858
:10B43000101A04F010F98E4FB88C014302D008980E
:10B44000FFF7BCFC0598406A0004000C02D1F88CA0
:10B45000002802D00898FFF7EBFAF87801280CD101
:10B46000E87AA97A00020843F98A884205D8089840
:10B47000FFF71CFE3C713C837C70E87D012823D1E2
:10B480003879012820D1387B002802D001280ED03D
:10B490001AE0687E297E00020843398B884213D85F
:10B4A000002811D00898FFF71FFE3C833E73E87E0A
:10B4B000A97E00020843398B884205D8002803D0B2
:10B4C0000898FFF711FE3C837878002800D042E509
:10B4D0000698007D0128FAD1B87A0028F7D1788C37
:10B4E0007F498842F3D30898FFF7E0FD7C727C84A3
:10B4F00031E50898FFF79CFA0598406A0004000CB3
:10B50000F7D1E08C0028F4D176A003F0EFFC089886
:10B51000FCF7C6FD75A03DE00120FFF7CDF9544AC8
:10B520005078002817D020461446D084FFF793FDAA
:10B530000246212301210898FCF78CFC08998842D7
:10B54000C5D1E87BA97B0002084300D0A083A07985
:10B55000002822D027E0FFF79BFD20469084D0846E
:10B56000E8791446A97902020A43212301210898A7
:10B57000FCF770FC08998842A9D1E87BA97B0002FE
:10B58000084300D0A0830898FCF7CFFC387A002845
:10B590009DD058A003F0AAFCDDE4687B297B000263
:10B5A000084300D0A671387A002890D05BA0F1E75C
:10B5B000F1B586B000F0CEFC00F0CCFC0646293692
:10B5C00000F0C8FC4530009000F0C4FC4E3000256F
:10B5D00004900295684685810698840422482018C4
:10B5E000FCF79AF821496718172801D001DCA9E077
:10B5F000B5E0AAE0203E205345473A434F4E4E4522
:10B600004354494F4E204641494C4544202D204942
:10B610006E76616C69642049502061646472657360
:10B62000733A205A65726F2049500D0A00000000DD
:10B63000203E205345473A434F4E4E454354494FD1
:10B640004E204641494C4544202D204475706C697C
:10B650006361746520495020616464726573730D81
:10B660000A00000004050100300001460002014606
:10B67000C8000020BA020020B6020020B802002054
:10B68000646973310D0A0000203E205345473A4358
:10B690004F4E4E454354454420544F202D202564A1
:10B6A0002E25642E25642E2564203A2025640D0A5B
:10B6B00000000000203E205345473A434F4E4E4580
:10B6C000435445442046524F4D202D2025642E25BD
:10B6D000642E25642E2564203A2025640D0A00007E
:10B6E00088130000646973320D0A000064697333C3
:10B6F0000D0A0000203E205345473A5443505F4D09
:10B70000495845445F4D4F44453A5345525645527A
:10B710005F534F434B4F50454E0D0A00203E205380
:10B7200045473A5443505F4D495845445F4D4F4457
:10B73000453A434C49454E545F534F434B4F504558
:10B740004E0D0A0000287DD1BEE01828FCD01C2830
:10B7500078D1FE4C786A0004000C74D1ADE0FC484E
:10B760002018FBF7D9FFC00738D00220FFF7A4F854
:10B77000F648C18A002906D1F17AB27A090211434A
:10B7800001D00121C1700499097D00293CD001211B
:10B79000417245840098007A002815D002AA04213D
:10B7A0000698FCF7ABFF03AA05210698FCF7A6FF55
:10B7B00068468189C07A009001916846837A427A0E
:10B7C000017AE44803F092FBE34801210580E34855
:10B7D0000580DF4808302018FBF7A0FFE04801880B
:10B7E000DD4800880A18DD480088101A03F033FF8E
:10B7F000D64CA08C014302D00698FFF7DFFA786A96
:10B800000004000C06D102E001218172C2E7E08C45
:10B81000002802D00698FFF70BF9E07801280BD139
:10B82000F07AB17A00020843E18A884204D8069887
:10B83000FFF73CFC25712583F07D012827D1207975
:10B84000012801E033E034E021D1207B002802D040
:10B8500001280FD01BE0707E317E00020843218B4F
:10B86000884214D8002812D00698FFF73DFC2583A3
:10B8700001202073F07EB17E00020843218B8842B4
:10B8800005D8002803D00698FFF72EFC25830498DE
:10B89000007D01280BD1A07A002808D1608CB14925
:10B8A000884204D30698FFF701FC6572658407B0EF
:10B8B000F0BD0698FFF7BCF84CE7E08C0028F8D103
:10B8C0000698FCF7EDFBF2E70120FEF7F5FFFFF726
:10B8D000DFFB9E4C2123A584E584F079B179020237
:10B8E0000A4301210698FCF7B5FA06998842DED191
:10B8F000F07BB17B0002084300D0A0830698FCF7E0
:10B9000014FB0098007A0028D1D097A003F0EEFA3B
:10B91000CDE7F1B584B000F01DFB00F01BFB054640
:10B92000293500F017FB4530009000F013FB002490
:10B930006846029484810498860485481030301843
:10B94000FBF7EAFE91497718172824D019DC002864
:10B950007DD0132814D1687B2A7B01027B481143D8
:10B96000C28B91420CD8C483FFF7C4FB012807D0D7
:10B97000687A297A02020A43A91C0498FCF70CFB96
:10B9800076E41828E4D01C28FAD1704C786A0004B8
:10B99000000C7CD1A6E06E483018FBF7BDFEC00756
:10B9A00045D00220FEF788FF6848C18A002906D1E9
:10B9B000E97AAA7A0902114301D00121C170018BF1
:10B9C000002904D1E97D002901D0012101715F48DE
:10B9D000012181728079012802D15C488471C4837D
:10B9E0000098007A002816D002AA04210498FCF7D7
:10B9F00085FE03AA05210498FCF780FE684681892C
:10BA0000C07A009001916846837A427A017A51485F
:10BA10002C3803F06BFA5048012104804F48048011
:10BA20004A48C4734A4808303018FBF777FE4C4840
:10BA30000188494800880A1848480088101A03F00D
:10BA40000AFE424EB08C014304D0049800E050E05E
:10BA5000FFF7B4F9786A0004000C02D1F08C0028DA
:10BA600002D00498FEF7E4FFF07801280BD1E87AC1
:10BA7000A97A00020843F18A884204D80498FFF7A3
:10BA800015FB34713483E87D012801D078E725E087
:10BA900030790128FAD1307B00280FD00128F5D168
:10BAA000E87EA97E00020843318B8842EED8002848
:10BAB000ECD00498FFF718FB348361E7687E297E99
:10BAC00000020843318B8842F7D80028F5D004984B
:10BAD000FFF70AFB348301203073E1E70498FEF797
:10BAE000A7FF53E7E08C0028F8D10498FCF7D8FAB8
:10BAF00046E70120FEF7E0FEFFF7CAFA134EB484D2
:10BB0000F484FFF7A8FA0246212301210498FCF7E8
:10BB1000A1F904998842D0D1E87BA97B00020843AF
:10BB200000D0B083B079002806D1687B297B000261
:10BB3000084301D00120B0710098007A0028BCD0E1
:10BB4000F07B0028B9D112A034E00000C80000202A
:10BB500020000146B4B60000B6020020B802002062
:10BB6000BA02002088130000203E205345473A5473
:10BB700043505F5345525645525F4D4F44453A53EB
:10BB80004F434B4F50454E0D0A0000000002014646
:10BB9000203E205345473A5443505F434C49454E5D
:10BBA000545F4D4F44453A534F434B4F50454E0D14
:10BBB0000A00000003F09AF90120F073E0E670B586
:10BBC000064600F0C7F90546293500F0C3F90446DA
:10BBD000453400F0BFF9C749A8300A7C002A01D0DB
:10BBE00000220A740078012825D00878012822D183
:10BBF0002878002806D0012808D002280AD0032877
:10BC00000FD10BE03046FFF784FE0AE03046FFF725
:10BC1000CFFC06E03046FFF72CFB02E03046FFF792
:10BC200066F9002002F0A5FB6079012801D0022806
:10BC300001D102F085FA70BD10B500F08BF9293002
:10BC4000407810BDF8B5044600F084F9074629375E
:10BC500000F080F90646204645360024A54D002810
:10BC600007D001202870FEF727FE387802280DD073
:10BC70000DE02C700420FEF71FFE307A002811D052
:10BC80009DA003F033F90E22A0A108E06C70307A79
:10BC9000002807D0A1A003F029F90E22A4A10020BA
:10BCA00002F0CEFAA648AC840480A6480480EC706A
:10BCB0002C71EC716C71EC822C832C846C832C7253
:10BCC000F8BDF8B50746A0480024008825469C4EDC
:10BCD00000900FE087489D492A30025D30880A5461
:10BCE000401C009903F0ADFC824831802A30055594
:10BCF000641CE4B2BC42EDD37E4845718574F8BD46
:10BD000070B5054600F026F900F024F9794C0022C0
:10BD100021784E30012911D1014640310E46497B30
:10BD200000290BD0A17C23462A33002908D0012901
:10BD300012D0022910D0032927D11AE0002070BDAB
:10BD4000F07BA84221D1608BA18B88421DD31D704E
:10BD50000120A074607118E040184030C07BA842F8
:10BD600010D1608BA28B90420CD85D54491CA174F9
:10BD70000BE0608BA18B884200D201220420A074CA
:10BD8000002A02D0A07CFFF79CFF00206083A07CEB
:10BD900070BD10B500F0DEF80446293400F0DAF882
:10BDA00060780021012806D0022807D0042805D099
:10BDB000052804D102E02078022800D1012108469C
:10BDC00010BD10B500F0C6F80446293400F0C2F8E2
:10BDD0004848017801290BD1E17BA27B090211437C
:10BDE00006D0C179002901D10121C171002101844E
:10BDF00010BD00B500223F49030004F0D8F9050941
:10BE00000B0D070408000A634A638A63CA6300BD16
:10BE10000A6300BD4A6300BD8A6300BDF8B500F047
:10BE200099F8344C0646A0792936494F0025002858
:10BE300007D0E08BB84203D2E08B401CE08300E0E7
:10BE4000E5832079002807D0208BB84203D2208BCD
:10BE5000401C208300E02583608BA18B884202D2A6
:10BE6000608B401C6083607900280ED0608BA18BB2
:10BE700088420AD3A07C032815D0FFF722FFF07B6D
:10BE8000B17B0002084313D0A083E079002816D0CC
:10BE9000F07BB17B00020843218C88420BD9208CB7
:10BEA000401C20840BE00120A070A5746571E6E7BA
:10BEB000FF20F530E8E72584E57101202072607AE3
:10BEC000002805D0608CB84203D2608C401C60848E
:10BED000F8BD6584F8BD0748C178002906D0C18A3D
:10BEE0001B4A914202D2C18A491CC18201210174BC
:10BEF00070470000C8000020203E205345473A41CB
:10BF000054204D6F64650D0A000000005345473A08
:10BF10004154204D6F64650D0A000000203E2053FF
:10BF200045473A4757204D6F64650D0A00000000F1
:10BF30005345473A4757204D6F64650D0A0000008E
:10BF4000B6020020B8020020BA02002041180020EA
:10BF5000FFFF0000F9487047F8B5F84EF92030703F
:10BF600000207070B0700125F570044630710F210B
:10BF7000701D03F0CEFA0D22F1A1701D03F06CFAD2
:10BF8000357503217175B175C0227277A823B37717
:10BF90000B27EA48F777022620300670427083703C
:10BFA000C7700571FF2646718671C67104724572AD
:10BFB0008572C27203734773E54A8173C11C0A73A9
:10BFC000130A4B73431C1A74160A5E740C74260A07
:10BFD0004E74E04E1E75360A5E750C75230A4B755D
:10BFE00044768476C476047744778477C4772030A7
:10BFF0000570D94B411C0B701B0A4B70C11C0A7099
:10C00000120A4A7044710C268671C571047244721A
:10C010008472C572057345730A21183003F079FAEA
:10C02000C6480A214E3003F074FAC448082760302D
:10C030008470C470047147718771C77107723221AF
:10C04000093003F066FABD482B2180308776C5762B
:10C05000047741778177C177B84F0F20A0373870C8
:10C0600000207870B81C0570290A41703E71310AB1
:10C0700079710471210A41713C72B849401E017204
:10C08000090A417201460A31002003F0D2FA502019
:10C0900038740020787438461330BD741E2104466D
:10C0A00003F037FA1322AEA1204603F0D5F9384643
:10C0B00031302821044603F02CFA2022ADA120467D
:10C0C00003F0CAF9F8BD10B5FEF7C6FBF9239B4A89
:10C0D0000021012001F086FD984A00210623173235
:10C0E000084601F07FFD954C6078217800020843F6
:10C0F00002D0A849884207D1FFF72EFFF9238F4AC3
:10C100000021012001F0C9FD012121750320607586
:10C11000A0758A4C4034A07A032805D0042803D0A7
:10C12000FEF79BFB607110BD617110BDF0B5834ED1
:10C13000002540367D27BFB02C46FF00F9237F4AFB
:10C140000021012001F0A9FDF9236A460021012008
:10C1500001F048FDF9226946784803F0ABF8002861
:10C1600011D0641C707BE4B2002803D021468AA061
:10C1700002F0BCFE3846FEF74EF8052C01D2012D28
:10C18000DCD13FB0F0BD0125F4E710B503F064F950
:10C1900010BD10B503F060F910BD30B589B0674D22
:10C1A00003A90120FBF7FFFC6846427C017CC07BB1
:10C1B0006B4607C36846837B427B017B80A002F00D
:10C1C00095FE28462330417B007B090201436846E7
:10C1D000407D009001916846037DC27C817C82A0F5
:10C1E00002F084FE6846407F00906846037FC27E6E
:10C1F000817E86A002F07AFE6846407E0090684606
:10C20000037EC27D817D87A002F070FE08A8407881
:10C21000009008A803786846C27F817F87A002F05B
:10C2200065FE2C462034607A01282DD06420415DC3
:10C23000601C0129417C0FD0027C0802A17B1043C5
:10C2400001900091637B227BE17A82A002F04EFE96
:10C25000607A032809D017E00A02007C29460243CD
:10C26000693187A002F042FE0EE0E07A002808D192
:10C27000207B002805D1607B002802D1A07B00280C
:10C2800007D089A002F032FE86A002F02FFE09B08E
:10C2900030BD8AA0F6E710B5284C8D48E17DFBF74C
:10C2A0003DFA8B48217E401EFBF738FA8848617EB4
:10C2B000801EFBF733FA8648A17EC01EFBF72EFADC
:10C2C0008348E17E001DFBF729FA8148217FC01CCD
:10C2D000FBF724FA10BD10B5184C86B02146062293
:10C2E00017316846FFF751FF214601A804221D318E
:10C2F0000230FFF74AFF214603A804222131023011
:10C30000FFF743FF214602A8042225310230FFF740
:10C310003CFF214604A8042265310230FFF735FFB7
:10C320006034E078002801D0022000E00120694656
:10C3300088750020FBF737FC06B010BD48130020BD
:10C3400057495A37353053522D3178780000000064
:10C3500088130000B80B0000581B000052C30000F7
:10C360006465766963652E77697A77696B692E6E85
:10C37000657400002F77697A37353073722F6677CE
:10C380002F5737353030785F5332455F4170702E0C
:10C3900062696E00FFFF0000203E20446576436F17
:10C3A0006E66696720757064617465206661696C8A
:10C3B00065642C2052657472793A2025640D0A0058
:10C3C0002023204D41433A20253032583A2530323F
:10C3D000583A253032583A253032583A25303258BA
:10C3E0003A253032580D0A002023204950203A20A7
:10C3F00025642E25642E25642E2564202F20506F61
:10C4000072743A2025640D0A0000000020232047A2
:10C4100057203A2025642E25642E25642E25640D90
:10C420000A000000202320534E203A2025642E25A8
:10C43000642E25642E25640D0A000000202320446C
:10C440004E533A2025642E25642E25642E25640D36
:10C450000A00000020232044657374696E617469CA
:10C460006F6E2049503A2025642E25642E25642EB7
:10C470002564202F20506F72743A2025640D0A0025
:10C4800020232044657374696E6174696F6E204463
:10C490006F6D61696E3A202573202F20506F727482
:10C4A0003A2025640D0A0000202323205544502003
:10C4B000313A31204D6F64650D0A0000202323209E
:10C4C00055445020313A4E204D6F64650D0A0000EE
:10C4D0000360004610B5FA49401E884201D9012088
:10C4E00010BDF8494861F8480722C3691B021B0ABE
:10C4F0004C042343C361002088610A6110BDF34AE4
:10C5000010B591100120FAF7B8FEFAF78BFE7D21E5
:10C51000C90003F096F8FFF7DDFF01F0FBFDEC48E2
:10C52000EC498068086010BDEB4910B50A46002050
:10C53000FAF7A3FEFAF776FE7D21C90003F081F831
:10C54000FFF7C8FF01F0E6FDE2480168E04A9160AC
:10C550004117016010BDF8B50027DD4E0D460446B9
:10C560000F70283609E002F0F9FE024620463168D5
:10C5700002F016FF002804D0361D30680028F2D1E2
:10C580002AE03068002827D0D1482830301A8005AA
:10C59000060E2B2E07D02C2E11D0A11C284602F0FF
:10C5A000B7FE3046F8BD207A0D2815D1607A0A28EA
:10C5B00012D10622A11C284602F04EFFF1E700200E
:10C5C00002E02954401CC0B2211889780D29F8D105
:10C5D0002118C9780A2901D0FF20F8BD2F54281846
:10C5E0004770DEE7F0B59FB00F460546FFF7B2FC97
:10C5F0001590002418A8047010A8848404213846DB
:10C6000002F087FFB5A12846EEE304A9FFF7A3FFD8
:10C610000646FF286AD004A802F0A0FE80B203906C
:10C620006846007C002856D0A9490A7888210A4229
:10C630005DD04B2E5AD273007B449B885B009F4495
:10C64000BD02D002D002D302E1029A05F2029A059D
:10C65000FF020B03180321032D033A0353035E0368
:10C660007303B204B204B204B204B204B204D80335
:10C67000E603F203FF03280437044404540461046E
:10C68000760482048E049D04B304C004CF04DE0447
:10C6900001060106EF040106010601060106010676
:10C6A0000106010601068D0555009A050E050E05C9
:10C6B0000E050E0524052405240524055005520306
:10C6C00052035203520374058205520352030106BA
:10C6D0000106A405B5057E48B10028304058017810
:10C6E000397040787870BF1C169701E0FAE3FAE3DE
:10C6F000330003F05CFD4B273A64696DE472E47625
:10C700007A7E8186899497A0E3E3E4AAE3E3ACE22E
:10C71000E1E0DFDEDDDCDBDAD9D8D7D6D5D4D3D281
:10C72000D2D1D2D2D0CFCECDCCCBCAC9E4C8C8C822
:10C73000C8C7C7C7C7C6C5C4C3C2C1C0BFBEBDBCCA
:10C74000BBD1BA00159B159A159915981B7FD27EFF
:10C75000897E407E009001A80EC0159860A1037EDE
:10C76000C27D384602F0D0FB0BE265A166A002F064
:10C770000BFF002810D066A163A002F005FF00287F
:10C7800012D0159860A1807D01910090159862A14A
:10C79000437D027D1698DDE0159862A1807D0090B2
:10C7A0001598437D027D06E0159861A1807D00907B
:10C7B0001598437D027D169802F0A6FBE1E1159ADB
:10C7C00057A13846521D44E115986030C27802E006
:10C7D00015982030EDE059A184E1159860308278F9
:10C7E000F9E715984030427BF5E71598403002781C
:10C7F000F1E71598413001E0159843304178007811
:10C80000E6E015982130E1E0159815992030007880
:10C81000C97F019015980091837F427F13E015989E
:10C8200020300AE0159820300279C17801920091F9
:10C830008378427807E015986030027AC1790192D6
:10C840000091837942793EA183E0404AC3E715987D
:10C850004079002832D015991598097FC07E019142
:10C8600000901598837E421D72E099E191E17DE18F
:10C8700059E135E132E12EE129E118E110E10AE167
:10C8800006E1FCE0E8E0D6E06BE166E157E14EE16D
:10C8900042E13AE132E127E17FE1C9E0BBE0B0E00B
:10C8A000A6E0A1E09BE096E08EE088E083E07EE0F9
:10C8B00079E074E06FE058E054E04EE0B5E053E119
:10C8C000FFFFFF0000E000E004ED00E0006CDC0290
:10C8D0002401002000E200E000127A000D0A0000AE
:10C8E000253032583A253032583A253032583A25D8
:10C8F0003032583A253032583A253032580000004C
:10C90000537461626C6500005F44494B0000000095
:10C91000446576656C6F700025642E25642E256451
:10C920002573000025642E25642E25640000000078
:10C9300025642E25642E2564646576002564000038
:10C9400025642E25642E25642E256400D60B000058
:10C95000FEA1384602F0D8FA13E115982330417B46
:10C96000007B35E0159821302BE015986030017977
:10C97000002907D0407A002857D0159AF7A13846E9
:10C98000693266E015982030827B417B01920091EC
:10C99000037BC27A57E71598403082791BE71598D8
:10C9A0004030C27917E715984030027A13E715989E
:10C9B0004030427A0FE715984030827A0BE715989D
:10C9C0002330417C007C03E015982330417D007DBD
:10C9D0000A020243FFE615982030427EFBE61598D6
:10C9E000DFA12030827E7DE015988030C27EF2E6A5
:10C9F00015988030C17F0091837F427FDAA138464D
:10CA0000DAE615984030807B00280ED0159AD3A125
:10CA100038464E321DE015984030007E002804D084
:10CA2000159ACEA13846583213E02022D2A159E0FF
:10CA300081200002A4E030463638D049C0B2085CFC
:10CA400019A902F01BF90028F2D010A8828CCCA101
:10CA50002BE002F059FA94E030463A38C0B2C74FA2
:10CA60000290385C02F0E0F800900298385C02F026
:10CA7000EAF801460098C007820F0A43E7E71598D5
:10CA8000C0A14030037BC27A384602F03DFA78E01C
:10CA90000120800200E0802002F0BCF90246D6E7C7
:10CAA000002001F002FCB9A2ACA11698D1E71598BC
:10CAB0000121A0300172C1730020FEF7F7FAB5A37F
:10CAC000BCA2C1A1169802F01FFA412058E01598A7
:10CAD000A030827C7FE61598A03072E7B5A200E016
