:020000040000FA
:10700000F83D0020ED710000017D0000F7710000E7
:107010000000000000000000000000000000000070
:107020000000000000000000000000000D7D0000D6
:107030000000000000000000157D00001D7D000024
:10704000257D00002D7D0000357D00003D7D000088
:10705000457D00004D7D0000557D00005D7D0000F8
:10706000657D00006D7D0000757D00007D7D000068
:10707000857D00008D7D0000957D00009D7D0000D8
:10708000A57D0000AD7D0000B57D0000BD7D000048
:10709000C57D0000CD7D0000D57D0000DD7D0000B8
:1070A000E57D0000ED7D000000F002F800F057F8EB
:1070B0000CA030C8083824182D18A246671EAB460D
:1070C00054465D46AC4201D100F049F87E460F3E81
:1070D0000FCCB6460126334200D0FB1AA246AB467F
:1070E0003343184758F0000078F0000000230024D4
:1070F00000250026103A01D378C1FBD8520700D3EF
:1071000030C100D50B60704710B5642902D109F079
:1071100073FD10BD752902D109F06EFD10BD7829EF
:1071200002D109F09FFD10BD632902D10AF0F2FCE3
:1071300010BD732902D10AF0F5FC10BD002010BD6E
:107140001FB509F0AFFE0AF05DFC0400002000212D
:107150000AF05EFE401C60601FBD10B510BD0AF055
:10716000E1FD1146FFF7ECFF04F01FF80AF008FEFE
:1071700003B4FFF7F2FF03BC00F0BAFD30B40C49D2
:107180000C684A6823681068C0181060241D121D1E
:107190008C4207D28A4208D20C604A6030BC400060
:1071A000400870470C00DC3CF6E70A00DC3AF3E7E5
:1071B0008C31002070B505460C46164602E00FCC17
:1071C0000FC5103E102EFAD2082E02D303CC03C5F1
:1071D000083E042E07D301CC01C5361F03E02178F9
:1071E0002970641C6D1C761EF9D270BD074880475B
:1071F00007480047FEE7FEE7FEE7FEE7FEE7FEE79B
:1072000004480549054A064B7047000037720000E4
:10721000A9700000F8310020F83D0020F83500206A
:10722000F835002036480068704735484068704798
:107230003448006A704710B53348816B334A116196
:10724000C16B304841600021016241698907CA0F62
:10725000012191404269D207D20F9140CAB24169DF
:1072600040698904890E51438002294A800E5043A7
:107270000AF007F82249086010BDF8B5254F01262D
:10728000204D01280FD000202862214C10462146B5
:1072900009F0F7FFC0B2012808D8EE616F61012143
:1072A0000A46134619E02E620C46EFE70021E96119
:1072B000FF2101318006800A084368616869800700
:1072C000C00F86406869C007C00F86406869F2B287
:1072D0008004810E68698002830E2046084C514369
:1072E0006060584309F0CDFF2060F8BD30B4064B14
:1072F0009C6B064D2C61DB6B024C636030BCBCE7C1
:10730000000000200010004180FD03000012004139
:1073100000127A000001020041210906002801D074
:10732000032000E001200860704741210906486001
:1073300070470120412109068860704741200006FE
:10734000C06880B270474120000600690006000E48
:1073500000D0012070470020DEE70000234A234BC5
:1073600001218032984201D1116070471F4B2033B8
:10737000984201D1116270471D4A1D4B80329842DC
:10738000F2D01B4B20339842F4D0704781688022A2
:10739000914381607047826880239A4382600A68C3
:1073A000026082684B689B0113438A6892001A430B
:1073B000CB6809695B0013431943EF2211408160D8
:1073C000704720220129816802D091438160704773
:1073D0001143FBE70121C16070474069C0B27047AB
:1073E00081688022114381607047000000100040D6
:1073F00000200040F0B521220023102652069042C2
:1074000001D16A4A08E043221206904202D1674A3B
:10741000403201E0654A8032012425460F689D40D4
:107420002F40AF4243D10F79012F0DD045614D79E7
:10743000AD070DD59C001559AD08AD001551155976
:1074400002273D4315510BE007692F430761EEE723
:107450009D005759BF08BF005751575927435751EF
:107460004C79640704D59C00155904273D4303E07B
:107470009C0015590427BD4315514C79A40604D529
:107480009C00155920273D4303E09C0015592027F7
:10749000BD4315514C79640604D59C00155940270D
:1074A0003D4303E09C0015594027BD4315515B1C2B
:1074B000B342B1D3F0BD3E490160002101716221A8
:1074C000417170470246126800200A4200D0012034
:1074D00070470246526800200A4200D001207047DF
:1074E0000A06920D012312189B02D21811600A0A93
:1074F000920010185A0080180160704710B50B06F2
:107500009B0D0124CA431B18A4021B191A60090A07
:107510008900081861004018026010BDF0B501260E
:10752000244D002334469C400C420ED0002810D03D
:10753000012811D01F4C9F0080343C192768BF08D8
:10754000BF0027602768174327605B1C102BE9DB0F
:10755000F0BD9C006419F1E79C006419276CBF081A
:10756000BF002764276C17432764EEE77CB5044609
:107570001E460D466846FFF79EFF6846009502715D
:1075800069462046FFF736FF21204006844201D19C
:10759000002006E043200006844201D1012000E0E3
:1075A000022032462946FFF7B9FF7CBD003000417A
:1075B000FFFF000000200041F8B50446006B0E46B6
:1075C000400840002063FFF733FE504F012500289C
:1075D00046D03D61FFF726FE7A692946914009F0C1
:1075E00050FE0746306800010AF0E6F90090384680
:1075F0000AF0E2F900990AF0EBF807460AF098F968
:1076000000900AF0D9F939460AF05EFC06210AF02A
:10761000D7F90AF0B3F800223D4B0AF05BF80AF004
:1076200089F8014600986062A162E06AEE21884311
:10763000B188F288114332890243E06A114308435A
:10764000E062206B3349B2890840718911430143DC
:10765000206B08432063206B284320630020F8BD83
:10766000022038617869294681402B48B7E70068D5
:1076700080B270470246526800200A4200D00120C2
:107680007047002A826B01D00A4300E08A4382637C
:1076900070470246126C00200A4200D00120704759
:1076A000426C0A434264704710B504461B48016BA4
:1076B00002290AD0006B032807D0FFF7B3FD21464B
:1076C00009F0DFFD1649086110BDFFF7AEFDF6E7D2
:1076D00010B5FFF7E9FF124988680322800880008F
:1076E00010438860002010BD0D494A68D207FCD1C4
:1076F00008607047016082691207FCD40846704731
:1077000000B50346FFF7F0FF184600BD40110041E9
:107710000000E03FFE3CFFFF00127A000010004135
:1077200000600040194918480860800781684908CE
:1077300049008160704700B50246FFF7F3FF012062
:107740008007116801605168490081600F4901207C
:10775000086000BD0D480C49016089078B68012253
:1077600013438B600260704708480749016001219C
:107770008A07D160016070470449034A0A60920792
:10778000106001200860704751E5CC1A000C0040E1
:10779000007870470170704730B5002405E00D197E
:1077A000ADB2455D1555641CA4B29C42F7D330BD03
:1077B00070B5002405E00E19155DB6B28555641C40
:1077C000A4B29C42F7D370BD70B514000FD01A4A12
:1077D00083049E18F268400795B2184AC00A104305
:1077E0000A4623462946FFF7E3FF2819F06070BDDB
:1077F00070B514000FD0104A83049E18B26A400777
:1078000095B20F4AC00A10430A4623462946FFF79D
:10781000C3FF2819B06270BD10B500290BD0064A0D
:1078200083049B189A6A4007054CC00A51182043EC
:1078300089B20818986210BD000201460000024695
:1078400000000346704770477047704700787047E4
:1078500001707047F0B593B0F748FFF799FF1190AA
:10786000F548401EFFF794FFF34C1090A41E2046ED
:10787000FFF78EFF651E0F902846FFF789FF0E90D9
:10788000A01DFFF785FF0D90601DFFF781FF0C9095
:10789000E9480830FFF77CFF0B90E748C01DFFF771
:1078A00077FFE54E0A90B61D3046FFF771FF09904D
:1078B000E01DFFF76DFF0890B01DFFF769FF07900F
:1078C000701DFFF765FF0690301DFFF761FF059003
:1078D000F01CFFF75DFF0490D7481030FFF758FF0A
:1078E000D54F03900F373846FFF752FF0290781EAE
:1078F000FFF74EFF0190F01DFFF74AFF0090802137
:10790000CE48FFF747FFCD48FFF742FFA01C119973
:10791000FFF740FF601C1099FFF73CFF20460F99CE
:10792000FFF738FF28460E99FFF734FFA01D0D9989
:10793000FFF730FF601D0C99FFF72CFFB01C0B996F
:10794000FFF728FF701C0A99FFF724FF30460999BA
:10795000FFF720FFE01D0899FFF71CFFB01D0799F6
:10796000FFF718FF701D0699FFF714FF301D0599EA
:10797000FFF710FFF01C0499FFF70CFF781C039928
:10798000FFF708FF38460299FFF704FF781E0199B8
:10799000FFF700FFF01D0099FFF7FCFE13B0F0BDEC
:1079A000F8B50D4606460024FFF754FF002E14D00C
:1079B0000022B05C521C001952B244B2082AF8DB13
:1079C000102C17DC9E4F0024A004315DC019FFF776
:1079D000E1FE641C64B2082CF6DB002D19D00021F6
:1079E00008462A5C401C511840B249B20828F8DB0E
:1079F000102902DD0020C043F8BD914E002420363E
:107A0000A004295D8019FFF7C5FE641C64B2082C30
:107A1000F6DB0020F8BD10B5044687484130FFF77B
:107A2000B7FE207084483D300068608010BD10B5FE
:107A300001780446002903D07F484130FFF7AAFEB1
:107A40007D4960883D31086010BD10B57B48FFF767
:107A50009FFE10BD70B50446C720044202D000202E
:107A6000C04370BD754D2846FFF792FE2043014686
:107A70002846FFF78FFE002070BD10B504466E4803
:107A8000FFF786FE20706C48401EFFF781FE607095
:107A90006948801EFFF77CFEA0706748C01EFFF794
:107AA00077FEE0706448001DFFF772FE20716248A7
:107AB000C01CFFF76DFE60715F480830FFF768FE7D
:107AC000A0735D48C01DFFF763FEE0735A48801D38
:107AD000FFF75EFE20745848401DFFF759FE6074A2
:107AE00055480C30FFF754FEA07253480B30FFF797
:107AF0004FFEE07250480A30FFF74AFE20734E48AE
:107B00000930FFF745FE60734B481030FFF740FE29
:107B1000A07149480F30FFF73BFEE07146480E3038
:107B2000FFF736FE207244480D30FFF731FE6072D9
:107B300044480178A1744178E17481782175C07856
:107B400060754048401E0078A07510BD10B5044611
:107B500001783948FFF71EFE37486178401EFFF76D
:107B600019FE3548A178801EFFF714FE3248E178EF
:107B7000C01EFFF70FFE30482179001DFFF70AFEF7
:107B80002D486179C01CFFF705FE2B48A17B08300A
:107B9000FFF700FE2848E17BC01DFFF7FBFD2648EC
:107BA000217C801DFFF7F6FD2348617C401DFFF717
:107BB000F1FD2148A17A0C30FFF7ECFD1E48E17A77
:107BC0000B30FFF7E7FD1C48217B0A30FFF7E2FD91
:107BD0001948617B0930FFF7DDFD1748A1791030A6
:107BE000FFF7D8FD1448E1790F30FFF7D3FD1248B5
:107BF000217A0E30FFF7CEFD0F48617A0D30FFF786
:107C0000C9FD1048A17C0170E17C4170217D81702B
:107C1000617DC1700B49A07D491E087010BD10B573
:107C20000C4603000AF0DFF806041014181C202587
:107C30000846FFF78BFF1AE003600046002300466A
:107C400000020146190000200846FFF716FF0EE06B
:107C50000878FFF7FFFE10BDFFF7F7FE207006E083
:107C60000846FFF7E4FE02E00846FFF7D4FE0020D6
:107C700010BD0020C04310BD70477047704710B55D
:107C800003F007FD10BD7047704710B5124807F0AC
:107C9000ABF910BD10B5114807F0A6F910BD70473B
:107CA000704770477047704770477047704710B50E
:107CB00007F01DF910BD10B508F0CCFE10BD7047DF
:107CC00070477047704770477047704770477047FC
:107CD000704770477047000000C0004000D000406F
:107CE00010B5C0B2FFF70CFD10BD0020C0437047B7
:107CF000FEE77047704770477047040008000001B6
:107D000010B5FFF7B9FF10BDFF00000010B5FFF779
:107D1000B4FF10BD10B5FFF7B1FF10BD10B5FFF7F0
:107D2000AEFF10BD10B5FFF7AEFF10BD10B5FFF7E9
:107D3000ABFF10BD10B5FFF7A8FF10BD10B5FFF7E2
:107D4000A9FF10BD10B5FFF7AAFF10BD10B5FFF7D2
:107D5000A7FF10BD10B5FFF7A4FF10BD10B5FFF7CA
:107D6000A1FF10BD10B5FFF79EFF10BD10B5FFF7C6
:107D70009BFF10BD10B5FFF798FF10BD10B5FFF7C2
:107D800095FF10BD10B5FFF792FF10BD10B5FFF7BE
:107D900092FF10BD10B5FFF792FF10BD10B5FFF7B1
:107DA0008FFF10BD10B5FFF78CFF10BD10B5FFF7AA
:107DB00089FF10BD10B5FFF786FF10BD10B5FFF7A6
:107DC00083FF10BD10B5FFF780FF10BD10B5FFF7A2
:107DD0007DFF10BD10B5FFF77AFF10BD10B5FFF79E
:107DE00077FF10BD10B5FFF774FF10BD10B5FFF79A
:107DF00071FF10BD70B50446082802D90020C043A9
:107E000070BDFA48A604301805461021FFF7C2FCE1
:107E10002846FFF7BDFC0028FAD1F4481F2118308E
:107E20003018FFF7B7FCF24801218288A1408A434D
:107E30008280F04A002061005052ED49891D0855AA
:107E4000EA48203034182046FFF7A2FC0028FAD177
:107E5000012070BDF8B51C4616460F460546082899
:107E600002D90020C043F8BD012F06D0022F04D054
:107E7000042F02D00420C043F8BD6007810FDE4804
:107E8000FAD1002C0CD0012F02D0022F08D103E030
:107E900021210C42F0D003E0A10601D52106EBD54B
:107EA0002846FFF7A7FF21090901D0483943AF044D
:107EB00010383818FFF76EFC002E0AD1CC48CF4A94
:107EC0000688711C89B20180914202D10321890385
:107ED0000180C648F03038184661C448012138187E
:107EE0000646FFF757FC3046FFF752FC0028FAD150
:107EF000BF48E107C90F4288A940114341800121D1
:107F00008288A9408A438280BA4A00206900505280
:107F1000B749891D4855B54820303C182046FFF721
:107F200037FC0028FAD068B2F8BD70B506460828BC
:107F300002D90020C04370BDAC48B40410382018EA
:107F4000FFF726FC0007000F012802D00420C043E1
:107F500070BDA648203020180546FFF719FC1328ED
:107F600002D00220C04370BDA04802212018044660
:107F7000FFF710FC2046FFF70BFC0028FAD128463B
:107F8000FFF706FC142805D03046FFF733FF032027
:107F9000C04370BD012070BDF7B50D4607460828E7
:107FA00002D90020C043FEBD9048BC041038201800
:107FB000FFF7EEFB0007000F012802D00420C043AA
:107FC000FEBD8A48203020180646FFF7E1FB132843
:107FD00002D00220C043FEBD29786A7808028018CA
:107FE000AA7800028018EA7800028018421C32D079
:107FF000002830D00298002830D081482018FFF7A0
:10800000C9FB7F486978401E2018FFF7C3FB7C48F6
:10801000A978801E2018FFF7BDFB7948E978C01EBB
:108020002018FFF7B7FB76490298273961180862D4
:108030006E48042120180546FFF7ACFB2846FFF7E1
:10804000A7FB0028FAD16A4901204988B8400842B4
:108050001CD00020FEBD0B20C043FEBD0A20C04343
:10806000FEBD2846FFF794FB000708D55F480821AE
:1080700018302018FFF78EFB0C20C043FEBD3046A1
:10808000FFF786FB002804D1001FFEBD57481030C3
:1080900025183046FFF77CFB1728E2D10120FEBDF2
:1080A00070B50646082802D90020C04370BD4F486D
:1080B000B50410382818FFF76BFB0007000F0128E4
:1080C00002D00420C04370BD484808212818044647
:1080D000FFF760FB2046FFF75BFB0028FAD144491D
:1080E00001208A88B04082438A80498808420CD0A7
:1080F000002070BD2046FFF74BFB00070BD5304634
:10810000FFF778FE0C20C04370BD384810302C18A3
:10811000364820302D182846FFF73AFB0028E9D1D1
:10812000012070BDF7B582B002981446082803D923
:108130000020C04305B0F0BD86042C48103830182C
:10814000FFF726FB0007000F012802D00420C043E0
:10815000F0E7002C0CD02548203030180190FFF7B4
:1081600017FB172807D01C2805D00620C043E1E7DD
:108170000D20C043DEE7029801251D4F8540B888D9
:10818000054211D0194810303018FFF701FBC00626
:10819000C00EC10621D51548102118303018FFF740
:1081A000F9FAB888A843B8801548D930301800903B
:1081B000FFF7EEFA8006000C844200D904460098CE
:1081C000406887B20198FFF7E3FA17281AD01C28F5
:1081D00018D00298FFF70EFEC7E7000718D50298DF
:1081E000FFF708FE0C20C043A4E700001000014682
:1081F00008000020CC030020FAFFFFFFF0FF000082
:1082000027010146FE484088054203D0BC4201D9FF
:1082100000208FE7BC42D2D8224603990298FFF78C
:10822000D3FAF848202130180646FFF7B3FA304653
:10823000FFF7AEFA0028FAD1F14881880D43858016
:10824000204677E7F7B582B002981446082802D98D
:108250000020C0436EE78704EA4810383818FFF75B
:1082600097FA0007000F012802D00420C04361E7FD
:10827000002C19D0E4483818FFF78AFA8006000C61
:10828000A04200D20446DF48203038180090DE4873
:1082900020383E18706A85B20098FFF779FA1728DF
:1082A00015D01C2803D00CE00D20C04342E7002D60
:1082B0001AD13046FFF76CFA7168800289B28842A1
:1082C00005D10298FFF796FD0620C04332E70299D8
:1082D00001208840CA494988084203D0002D03D1B3
:1082E000002027E7002DD5D0A54200D22C462246FB
:1082F00003990298FFF77CFAC248402138180546D6
:10830000FFF748FA2846FFF743FA0028FAD120463B
:1083100010E7FFB583B003981E461546082803D919
:108320000020C04307B0F0BD8404B64810382018C0
:10833000FFF72EFA0007000F022804D0042802D00D
:108340000420C043EEE7002D1DD030787178000284
:108350004018B17800024018F1780002C84202D1FA
:108360000B20C043DEE70C9800280FD0A548203032
:1083700020180746FFF70CFA42280AD0222808D016
:108380000620C043CEE70D20C043CBE70A20C04300
:10839000C8E79D483178F9382018FFF7FBF99A486B
:1083A0007178FA382018FFF7F5F99748B178FB385B
:1083B0002018FFF7EFF99448F178FC382018FFF700
:1083C000E9F990490C98F031611808628E4820381C
:1083D00020180190FFF7DCF98006000C854200D9D7
:1083E000054603990120884000900198406886B2B4
:1083F0003846FFF7CDF9002808D081490098498810
:10840000084206D0B54204D900208BE70320C043C0
:1084100088E7B542E9D82A4604990398FFF7D4F9CA
:108420007848202120180746FFF7B4F9754818301E
:1084300026183846FFF7ACF90028FAD171481030F9
:1084400024182046FFF7A4F9C006C00EC10605D5C2
:1084500030461021FFF79EF9284663E70007F0D564
:1084600030460821FFF796F90C20C0435AE7FFB5C4
:10847000002485B00646082802D9601E09B0F0BD68
:108480006048B50410382818FFF782F904900007F7
:10849000000F022804D0042802D00420C043EDE7D6
:1084A0000798002805D059487700C05B002803D002
:1084B00022E00D20C043E1E75348203828180390FC
:1084C0005048203028180125B54002900398406A92
:1084D00084B20298FFF75CF9002806D0484840882B
:1084E000054207D0002C03D006E00320C043C5E7B7
:1084F0000020C3E7002CE9D041480021801D8155B0
:108500000498B20441073F48490F151802291FD0AB
:10851000042957D021463046FFF77EF93B48C45323
:1085200028464021FFF736F92846FFF731F90028A1
:10853000FAD13648C15B091B0904090CC15305D0A7
:108540002F480122801D815D11438155204695E70A
:108550002E4CE05B002865D1082269463046FFF7C3
:1085600047F928464021FFF715F92846FFF710F98B
:108570000028FAD168460178089801706846417869
:108580000898417068468178089881706846C1787B
:108590000898C17068460E99007908800102684603
:1085A000407908180E99088068468079010268466B
:1085B000C0790818E05332E0224630460699FFF7AA
:1085C00017F9ADE7114CE05B00282BD10222694678
:1085D0003046FFF70DF928464021FFF7DBF8284623
:1085E000FFF7D6F80028FAD16846007801026846FD
:1085F0004078081880B20649E05388420FD909E054
:10860000080000201000014620020146CC03002093
:10861000EA0500003046FFF7EDFB72482EE772498D
:1086200080208855E45B07988442C5D90446C3E797
:10863000F8B51546082802D90020C043F8BD8404C7
:108640006A4B6A4A6A4880330427E618A218201841
:10865000FF430B0009F0C7FB084F05091042131632
:10866000444F62482978083002E060482978001DAC
:108670002018FFF78FF831E0288810612EE0288855
:1086800010622BE0FFF784F80007000F01282DD1BE
:108690003046FFF77DF8002802D00120C043F8BD26
:1086A00053482221103020180546FFF773F8504830
:1086B000203026180DE03046FFF76AF8000708D58D
:1086C0004B48082128302018FFF764F80C20C043DD
:1086D000F8BD2846FFF75CF80028ECD10120F8BD72
:1086E000FFF756F80007000F012801D03846F8BD03
:1086F00029783046BDE70920C043F8BDF8B51446D7
:108700000646082802D90020C043F8BDB504394BFD
:108710003748364AEF182818AA180B0009F063FBEF
:108720000D080D121517305E323E404248525E0071
:10873000FFF72EF80009000102E02C48083033E072
:1087400020703DE02948001D2EE01069F8E7274819
:1087500027302818FFF71CF82070244826302818E6
:10876000FFF716F86070214825302818FFF710F839
:10877000A0701E4824302818FFF70AF8E0701FE0A8
:10878000106A1CE0FFF704F80007000F01281FD152
:10879000164880302818FEF7FBFF10E078680EE0DE
:1087A000786A0CE0124830302818FEF7F1FFC7E76E
:1087B000FEF7EEFF0128F3D00F497000085A208021
:1087C0000120F8BDFEF7E4FF0007000F012802D0EA
:1087D0000420C043F8BD0448805DB1E70120C043D8
:1087E000F8BD000017FCFFFF0E000020000101464D
:1087F0000000014600020146CC03002070B5744C15
:1088000005462088286161882846FEF769FE012018
:1088100002F02FFF61882846FEF770FE012002F06B
:1088200028FF70BDF8B507460020694D0446460094
:1088300069883846FEF754FE012002F01AFF698865
:108840003846FEF75BFE012002F013FF2988384608
:10885000FEF738FE3043641C102CE8D3F8BD70B529
:108860005B4C054620886861012002F002FF6188A8
:108870002846FEF735FE012002F0FBFE61882846FF
:10888000FEF73CFE012002F0F4FE70BDF8B507468D
:1088900016462020801B81400C464D4D18E029884B
:1088A000002C384602DAFEF71BFE01E0FEF726FE3A
:1088B000012002F0DEFE69883846FEF711FE012035
:1088C00002F0D7FE69883846FEF718FE6400761E6F
:1088D000002EE4D1F8BD70B50C46164600210546C1
:1088E0002022C943FFF7D2FF042205212846FFF7C3
:1088F000CDFF3748052241682846FFF7C7FF05220C
:1089000021462846FFF7C2FF022211462846FFF7FC
:10891000BDFF102231462846FFF7B8FF2846FFF773
:108920006DFF70BDF8B5002543273F0600240021E8
:108930002022C9433846FFF7A9FF04220621384602
:10894000FFF7A4FF052221463846FFF79FFF0522C7
:1089500001213846FFF79AFF3846FFF780FF384677
:10896000FFF760FF06463846FFF748FF002E02D0AB
:108970001848864209D1641C082CD8DD6D1CEDB264
:1089800015A008F0C5F8022DD0D32046F8BD7CB55F
:10899000054614460E466846FEF78DFD30462043D8
:1089A00000900120694608712846FEF723FD012248
:1089B00021461046FEF7B2FD012231461046FEF771
:1089C000ADFD034D6E802C80FFF7ACFF68607CBD71
:1089D00040000020FFFF00000D0A706879206964E4
:1089E00020646574656374206572726F7221210D55
:1089F0000A00000010B5FE4CFE482178FEF7CAFEC2
:108A0000FC486178401EFEF7C5FEFA48A178801E3A
:108A1000FEF7C0FEF748E178C01EFEF7BBFEF54842
:108A200008342178001FFEF7B5FEF2486178401F38
:108A3000FEF7B0FEEF48A178801FFEF7ABFEED48D1
:108A4000E178C01FFEF7A6FEEA48241F2178083807
:108A5000FEF7A0FEE74861780938FEF79BFEE5487F
:108A6000A1780A38FEF796FEE248E1780B38FEF767
:108A700091FE10BD10B5E04C80212046FEF78AFE25
:108A80002046FEF785FEFFF7B5FFD94CD9483934AB
:108A900021781038FEF77EFED64861781138FEF74F
:108AA00079FED448A1781238FEF774FED148E178F7
:108AB0001338FEF76FFECF4821790C38FEF76AFEB7
:108AC000CC4861790D38FEF765FE10BD10B5CA4C73
:108AD00080212046FEF75EFE2046FEF759FEC44C7C
:108AE000C448393421781038FEF754FEC148617803
:108AF0001138FEF74FFEBF48A1781238FEF74AFE44
:108B0000BC48E1781338FEF745FEBA4821790C38A5
:108B1000FEF740FEB74861790D38FEF73BFE10BD09
:108B2000B34B10B5DB1FB54C5C62B54C9C62B54CC9
:108B3000DC62002800D05862002900D09962002A27
:108B400000D0DA6210BD30B5A94B0120DB1FD96B14
:108B500008704870062088700020C8709A6B120E4A
:108B60000A719A6B120C4A711A8F120A8A711A8F43
:108B7000CA71D96B802208818A72C872D96B1A4671
:108B8000087348738873C873087448748874C87409
:108B9000087548758875C875087648768876C876E9
:108BA000403214780C7754784C7794788C77D4785A
:108BB000CC770C46157920342570527962700622E4
:108BC0008C18521CD2B22077102AF9D3DA6B00210C
:108BD00054182034491CC9B220734029F8D3DA6BE9
:108BE000002154186034491CC9B220738029F8D37D
:108BF000D86B6321E0300173822242735322827367
:108C0000C17330BDFEB5FFF79EFF794900202931C1
:108C1000087048708870C870091D087048708870A6
:108C2000C8703439CB6B3522F021CA540127F121A9
:108C3000CF54F221CF543D22F321CA540722F4210C
:108C4000CA54F5216A4ACF5439321478F621CC54EB
:108C500011464C78F721CC541446A578F824E554F5
:108C60001446E578F924E55414462579FA24E554A8
:108C700014466579FB24E5540C21FC24E154FD21C4
:108C8000C8541221941D06E05E18E036491C401CB1
:108C9000357389B280B2255C002DF5D1544CD5785E
:108CA000E41FE36B5E18E0363573491C89B25E1829
:108CB0001579E0363573491C89B25D185279E03573
:108CC0002A73491C89B2C21C081AC018E03002720B
:108CD000E06B37224318E0331A73491C89B24318FA
:108CE0000622E033491C1A7389B24318E033491C49
:108CF0001F7389B243180325E033491C1D7389B2E1
:108D00004318E0331A73491C89B243180F22E03329
:108D10001A73491C89B242183A23E0321373491C72
:108D200089B242183B23E0321373491C89B2FF22F7
:108D30004318E0331A73491C0025FF2389B23933E5
:108D400004E04618E036491C357389B29942F8D3DD
:108D50006846027142718271C2714320009089227B
:108D600001AB9200A078E16BFFF7D3FAFEBDFEB530
:108D7000FFF7E9FE1E4C0020E41FE11D20560B46C4
:108D80002933FF27032849D0042847D068460771B4
:108D900047718771C771E26B3520F025A854012017
:108DA000F125A8540320F225A8543D20F325A8540A
:108DB0000720F425A8540120F525A8540C48F625D1
:108DC00039300078A8540A48F72539304078A8543B
:108DD0000748F82539308078A8540548F9253930F6
:108DE000C078A854024839300079FA25A8540BE01D
:108DF0004F0000201360004600230046F589000064
:108E0000758A0000CD8A0000FC48FB254079A854F3
:108E10006D46ED791020FF2D16D039E0E06B002271
:108E20008272C2720A7802734A7842738A788273B5
:108E3000CA78C2731A78684602715A7842719A7871
:108E40008271DA78C271A6E73225FC2085540425A8
:108E5000FD2085540E78FE2086544E78FF208654DF
:108E60008878AE01B054C978701C81543621401CFA
:108E70008154401C85541978401C81545978401CF9
:108E800081549978401C8154D978401C81541C200D
:108E900013180C21E0331973401C1318D74D00210F
:108EA000E033AD1D1973401C05E01618E036401C78
:108EB000337380B2491C6B5C002BF6D1E36BCF4A55
:108EC0001E18D578E0363573401C80B21E1815790F
:108ED000E0363573401C80B21D185279E0352A7394
:108EE000401C82B2C81C511AC918E0310872E06BEC
:108EF00037218318E0331973521C91B243180822AA
:108F0000E0331A73491C89B243180122E0331A7303
:108F1000491C89B243180322E0331A73491C89B2F1
:108F200043180622E0331A73491C89B243180F22F2
:108F3000E0331A73491C89B242183A23E0321373A2
:108F4000491C89B24218E0323B23491C137389B291
:108F50001F234218E0321373491C89B2421821239F
:108F6000E0321373491C89B24218E0321773491C6E
:108F70000022FF2389B2393303E04518E0352A7314
:108F8000491C9942F9DB43200090892201AB9200F1
:108F9000A078E16BFFF7BDF9FEBD1CB5FFF7D3FD6F
:108FA000964800214038C06B35228172C172F02191
:108FB0000A540122F1210A540422F2210A543D23C9
:108FC000F3210B540722F4210A540122F5210A54FB
:108FD0008A49F6220B7813544B78F72213548B7876
:108FE000F8221354CB78F92213540B79FA22135434
:108FF0004A79FB210A543222FC210A540422FD2121
:109000000A547E4939390A78FE210A547B49393994
:109010004A78FF210A54794939398A78FF21013188
:109020000A5476493939CA78FF2102310A54362266
:10903000491C0A540422491C0A547049FF22103961
:109040000B78053213544B78521C13548B78521CF6
:109050001354CA78FF2108310A54FF22491C0A54CC
:109060001D210023FF2239324418E034491C2373A8
:109070009142F9DBFF206946087148718871C87117
:10908000432000905D4889224038C16B01AB9200BB
:109090008078FFF73EF91CBDF0B5584C584A403C6B
:1090A000A07885B081048918496A0A04120C5BD043
:1090B00003A9009101ABE16BFFF7D9F983B26846D0
:1090C0008089432870D1E06B4C49027F0D78AA4219
:1090D0004AD1427F4D78AA4246D1827F8D78AA42FA
:1090E00042D1C57FCA7895423ED10246203215460C
:1090F00016780A79964237D16A7849798A4233D10B
:10910000214630310D780A1D002D08D14E78002EF1
:1091100005D18E78002E02D1CE78002E27D06E4653
:109120003679AE420ED16D466D794F78BD4209D188
:109130006D46AD798F78BD4204D16D46ED79CF781B
:10914000BD4214D01578AE420ED16D466D79567879
:10915000B54209D16D46AD799678B54204D16D46D8
:10916000EE79D578AE4202D0002005B0F0BDF030E7
:109170000025C318F03B15E00678332E42D008DCFA
:10918000002E15D0012E18D0032E21D0062E06D188
:1091900024E0352E0ED0362E43D0FF2E06D0467852
:1091A000801C80199842E7D368B2DEE71846F9E7D9
:1091B000401CF7E78578C01CF4E7104E8778313EF5
:1091C0003770C77877700779B7704779F7703CE0E8
:1091D00046788778B446094E353E04E0467887786D
:1091E000B446064E2D3E3770C77877700779B77052
:1091F0004779801D6044F770001FD3E78800002086
:10920000000201468678A661C7783602BF19A761B9
:1092100006793F02F719A76146793F02F619A66160
:1092200013E086780E70C6784E7006798E70467997
:10923000CE706E46367916706E46767956706E46EA
:10924000B67996706E46F679D670801DAAE7E84822
:109250000021C161052202624170704770B5E44C83
:1092600001256157002622469057022917DAE26944
:10927000216A914223D2012804D0022805D0042873
:1092800005D102E0FFF7BEFC01E0FFF770FDE661EB
:10929000E069401D20626078401C60700FE001288A
:1092A00004D0022805D0042807D102E0267000254A
:1092B00003E0FFF7A7FC01202070FFF7C8FF284656
:1092C00070BDF8B5CB4E3046FEF762FA0546032175
:1092D0003046FEF75FFAC64BC748DB1DDC1F009027
:1092E0001122C6A1A078FFF714F807462946304698
:1092F000FEF750FA0D3708D0FFF74FFEE069E1693D
:10930000091A0229FBD30020F8BD0120F8BDF8B5E9
:10931000B74C207806281ED0A078BD49800440189C
:10932000FEF736FA222805D0002344220221A07835
:10933000FEF790FD0125FFF7AFFEC1B20022A25655
:10934000AB4800260127C01D130008F04CFD0506A0
:109350000D1C314C2F000520F8BD0670467086703C
:10936000C670FFF74FFC5EE002291CD1E16B0A7C5E
:1093700002704A7C42708A7C8270C97CC170FFF79F
:10938000F6FC02204BE005290BD1FFF79AFF0028DD
:1093900001D0606A3FE0FFF75AFFE06A804726701D
:1093A00004E006293DD0FFF759FF05462846F8BDE1
:1093B000A16904254A1CF9D0E26949089142F5D215
:1093C0008B490278C91C0A7042784A7082788A7088
:1093D000C078C870A06B401CA063FFF7C8FCFFF703
:1093E00036FF04201BE004250529DAD18049667088
:1093F000C91C0A7803789A420BD14A7843789A427A
:1094000007D18A7883789A4203D1C978C07881429B
:1094100002D0A06A03258047FFF719FF03202070C0
:10942000C4E7FFF714FF2770C0E710B5704CA078B1
:10943000FEF7E0FC0620207010BDF3B56D4F83B041
:1094400006460025413F38460095FEF7A1F9684CD5
:1094500040342070781EFEF79BF96070B81EFEF74E
:1094600097F9A070F81EFEF793F9E070381DFEF72B
:109470008FF92071F81CFEF78BF960710146207896
:109480006278E3781043A2781A431043227910439C
:1094900008431FD1257008206070DC20A070E570A3
:1094A0002571294665713846FEF774F96178781E92
:1094B000FEF770F9A178B81EFEF76CF9E178F81E96
:1094C000FEF768F92179381DFEF764F96179F81C17
:1094D000FEF760F9464F4F49BE700498F863E07894
:1094E0006379421821798A1848409A1858408018A0
:1094F000B863684601783F480C463138FEF74AF9B0
:1095000068464078029001463A483238FEF742F900
:10951000684680780190014636483338FEF73AF9BC
:109520006846C678334831463438FEF733F9314857
:1095300021463138FEF72EF92E4802993238FEF7CF
:1095400029F92C4801993338FEF724F92948314686
:109550003438FEF71FF9274821463938FEF71AF943
:10956000244802993A38FEF715F9224801993B3808
:10957000FEF710F91F4831463C38FEF70BF9FFF7AC
:1095800066FE3D70F1E51A48C169491CC16170472A
:109590001749C91D0A7802704A7842708A78827029
:1095A000C978C170704712490B310A7802704A7845
:1095B00042708A788270C978C17070470C490F3147
:1095C0000A7802704A7842708A788270C978C170CD
:1095D0007047074913310A7802704A7842708A78D6
:1095E0008270C978C1707047014880697047000077
:1095F000480000204460004688130000434845436B
:109600004B5F49505F434F4E464C49435400000066
:10961000300001467856341201784078090240182B
:1096200080B270470A0A02704170801C7047F0B522
:1096300084460020054606460C78491C002D00D1C2
:10964000401C2706BF0F032F0AD1002D00D1401C5C
:10965000A4060978A40C6444091901250C78491C56
:10966000002C19D01B1B5B1E1BB2002B02DA002042
:10967000C043F0BD002D05D1001903E00F7817702D
:10968000491C521C2746641EA4B2002FF6D12E247A
:109690001470521C761CCFE7002E02D12E211170BF
:1096A000521C00211170F0BD10B593B00C464B2335
:1096B0006A46FFF7BCFF411C03D02018001D13B001
:1096C00010BD0020FBE770B593B015460C4606466A
:1096D0004B236A46FFF7ABFF411C46D024182046B7
:1096E000FFF79AFF0A34030008F07DFB103C0913D2
:1096F0003C3C13291313133C3C13183C1F3C2078AB
:10970000287060786870A078A870E078E870241DF0
:1097100028E04B236A460BE0241823E02078641CE1
:1097200020180178401C44181CE04B236A46A41CF6
:1097300021463046FFF77BFF411C16D0ECE74B2358
:109740006A4621463046FFF772FF411C0DD02418AF
:109750004B236A4621463046FFF769FF411C04D07F
:1097600024181434204613B070BD0020FBE7F7B571
:109770000D460446122107F0F2FC2846FFF74CFF85
:109780002080A81CFFF748FF02040121002A00DA0C
:10979000A1704204120FE270420500D521718205CA
:1097A00000D56171C20500D5A171020600D5E17135
:1097B0000007000F2072281DFFF72EFF6081A81DF3
:1097C000FFF72AFFA08128460830FFF725FFE08138
:1097D00028460A30FFF720FF29460C310026208258
:1097E000771E06E02846FFF75FFF010014D0761CC5
:1097F000B6B26089B042F5D8002607E02846029A42
:10980000FFF761FF010007D0761CB6B2A089B04215
:10981000F4D80020E18903E03846FEBD401C80B248
:109820008142FBD80020218A01E0401C80B28142A5
:10983000FBD8207A002801D00020FEBD0120FEBD0B
:10984000FFB55E4A0D46518895B00346491C89B262
:1098500017985180FFF7E6FED902FF31013189B236
:10986000FFF7E0FE0121FFF7DDFE0021FFF7DAFE42
:109870000021FFF7D7FE0021FFF7D4FE044629465A
:10988000684607F06BFB6E46304607F08DFB80B2F2
:1098900013902E21304607F015FB070002D0B81BAD
:1098A00085B200E0139D2570641C002D12D02A465D
:1098B0003146204607F058FC6419002F07D0139852
:1098C0007619401B401E80B2761C1390E1E7002001
:1098D0002070641C01212046FFF7A4FE0121FFF740
:1098E000A1FE179919B0401A00B2F0BD3348816843
:1098F00003290BD3002282600178022902D302706F
:10990000501E7047491C01700020704701207047AD
:109910002A4A50702A48516050807047F7B5274C4A
:109920000D46002388B01A4602216078FEF792FAAD
:10993000FF2601363346294600206268FFF780FF84
:109940003525009582B2089B60786168FEF7E1FCDE
:109950001C4F60788004C019406A05042D0C16D095
:10996000B54200D9354607A8009006AB2A46607874
:109970006168FEF77CFD0A9A01A86168FFF7F7FEAF
:1099800005466078FEF736FA28460BB0F0BDFFF7C3
:10999000ADFF002801DA0020F7E70028D9D13520F3
:1099A00000902A46089B60786168FEF7B2FCD0E719
:1099B00002488168491C81607047000098000020BF
:1099C000221100000002014601463039092901D860
:1099D000C8B2704701466139052901D8573804E0FB
:1099E000014641390529F4D83738C0B27047F8B577
:1099F000002506462C4611E0705525280CD130195B
:109A000000904078FFF7E0FF070100988078FFF7AB
:109A1000DBFF38187055A41C641C6D1C305D0028D9
:109A2000EAD17055F8BD3EB50546012931D002296D
:109A300031D0032931D0042931D0052931D0092969
:109A400031D00A2931D00C2931D00B2931D0082945
:109A500031D00D2931D00E2931D0142931D015291A
:109A600031D0162931D0172931D0182931D000240E
:109A70008CA1684607F05AF82146284607F06EFA8E
:109A80006946284607F002FB87A1284607F0FEFA40
:109A90003EBD874CECE787A4EAE795A4E8E7A3A4DA
:109AA000E6E7B14CE4E7B14CE2E7B1A4E0E7BF4C34
:109AB000DEE7BF4CDCE7BFA4DAE7CDA4D8E7DBA440
:109AC000D6E7EA4CD4E7EA4CD2E7EA4CD0E7EA4CD6
:109AD000CEE7EAA4CCE770B50D460446F7A12846C8
:109AE00007F0FAF9002805D1F6A1284607F0F4F9A5
:109AF000002801D0012006E0F4A1284607F0ECF987
:109B0000002802D00220207070BDF2A1284607F084
:109B1000E3F9002805D1F1A1284607F0DDF9002876
:109B200001D00320EFE7EFA1284607F0D5F9002880
:109B300005D1EEA1284607F0CFF9002801D0042076
:109B4000E1E7ECA1284607F0C7F9002801D005207D
:109B5000D9E7EAA1284607F0BFF90826002805D171
:109B6000E8A1284607F0B8F9002801D0267070BD9A
:109B7000E6A1284607F0B0F9002805D1E5A128465E
:109B800007F0AAF9002801D00C20BCE7E3A1284681
:109B900007F0A2F9002805D1E1A1284607F09CF9B9
:109BA000002801D00B20AEE7D6A1284607F094F993
:109BB0000028DBD1D1A1284607F08EF90028D5D1A5
:109BC000D8A1284607F088F9002805D1D7A1284652
:109BD00007F082F9002801D0092094E7D5A1284692
:109BE00007F07AF9002805D1D4A1284607F074F9C6
:109BF000002801D00A2086E7D2A1284607F06CF998
:109C0000002805D1D1A1284607F066F9002801D027
:109C10000D2078E7CFA1284607F05EF9002805D18E
:109C2000CEA1284607F058F9002801D00E206AE797
:109C3000CCA1284607F050F9002805D1CBA1284631
:109C400007F04AF9002801D014205CE7C9A1284692
:109C500007F042F9002805D1C8A1284607F03CF9D1
:109C6000002801D015204EE7C6A1284607F034F998
:109C7000002805D1C5A1284607F02EF9002801D0FB
:109C8000162040E7C3A1284607F026F9002805D191
:109C9000C2A1284607F020F9002801D0172032E79A
:109CA00080E10000256C64000D0A0D0A0000000030
:109CB000AC590100485454502F312E3120323030ED
:109CC000204F4B0D0A436F6E74656E742D5479707E
:109CD000653A20696D6167652F6769660D0A436F94
:109CE0006E74656E742D4C656E6774683A20000062
:109CF000485454502F312E3120323030204F4B0DEC
:109D00000A436F6E74656E742D547970653A2074D1
:109D10006578742F706C61696E0D0A436F6E74659F
:109D20006E742D4C656E6774683A20004854545028
:109D30002F312E3120323030204F4B0D0A436F6EC1
:109D400074656E742D547970653A20696D6167652C
:109D50002F6A7065670D0A436F6E74656E742D4CC3
:109D6000656E6774683A20009C5A0100005A010031
:109D7000485454502F312E3120323030204F4B0D6B
:109D80000A436F6E74656E742D547970653A207451
:109D90006578742F6373730D0A436F6E74656E7408
:109DA0002D4C656E6774683A20000000EC5A010083
:109DB000805B0100485454502F312E312032303016
:109DC000204F4B0D0A436F6E74656E742D5479707D
:109DD000653A20746578742F68746D6C0D0A436F52
:109DE0006E74656E742D4C656E6774683A20000061
:109DF000485454502F312E3120323030204F4B0DEB
:109E00000A436F6E74656E742D547970653A2069DB
:109E10006D6167652F706E670D0A436F6E74656EB6
:109E2000742D4C656E6774683A2000004854545095
:109E30002F312E3120323030204F4B0D0A436F6EC0
:109E400074656E742D547970653A20696D6167652B
:109E50002F782D69636F6E0D0A436F6E74656E7493
:109E60002D4C656E6774683A200000000C590100A3
:109E70005C590100545A0100305B010048545450B1
:109E80002F312E3120323030204F4B0D0A436F6E70
:109E900074656E742D547970653A20696D616765DB
:109EA0002F7376672B786D6C0D0A436F6E74656E39
:109EB000742D4C656E6774683A2000002E68746DCE
:109EC000000000002E68746D6C0000002E6769664B
:109ED000000000002E746578740000002E74787401
:109EE000000000002E6A7065670000002E6A70672F
:109EF000000000002E737766000000002E63676983
:109F0000000000002E434749000000002E6A736FD6
:109F10006E0000002E4A534F4E0000002E6A730060
:109F20002E4A53002E786D6C000000002E584D4CC8
:109F3000000000002E637373000000002E43535393
:109F4000000000002E706E67000000002E504E478B
:109F5000000000002E69636F000000002E49434F8F
:109F6000000000002E747466000000002E54544659
:109F7000000000002E6F7466000000002E4F544653
:109F8000000000002E776F66660000002E574F46D7
:109F9000460000002E656F74000000002E454F54EF
:109FA0000000000085A1284606F096FF002806D193
:109FB00084A1284606F090FF002800D1A3E51820D0
:109FC000A1E570B50A46044680A1104606F072FF6E
:109FD0000026054600283CD07DA107F0FBF80028AC
:109FE0001FD07CA1284607F0F5F8002819D07AA1E7
:109FF000284607F0EFF8002815D079A1284607F089
:10A00000E9F800280FD078A1284607F0E3F80028E7
:10A0100011D077A1284607F0DDF800280BD0267074
:10A0200012E0012000E00220207068A1002006F06C
:10A0300041FF054606E062A1002006F03BFF054611
:10A0400003202070002D04D02946A01C06F086FFB6
:10A0500070BD267070BD70B50E460546002404E044
:10A060006D1CFFF7B1FC744304192878002801D057
:10A070002028F5D1A0B270BDF8B51D4616460C4695
:10A0800006F02AFF0746204606F08EFFC419314627
:10A09000204606F021FF001B86B2324621462846A4
:10A0A00007F062F80020A855F8BDF0B5002689B089
:10A0B0000D4607461446039604960596002842D09E
:10A0C000002D40D003AB4CA24CA1FFF7D5FF0A21D5
:10A0D00003A8FFF7C0FF00904D49384606F0FCFE8C
:10A0E0000099001D4654294606F0F6FE07002AD0C6
:10A0F000284606F059FFC5196D1C46A1284606F0F2
:10A10000EBFE002803D1284606F04EFF4019401B05
:10A110000204120C13D0A6542946204607F024F856
:10A120002046FFF764FC2B212023002003E08A4215
:10A1300000D12354401C225C002AF8D100E0267094
:10A14000204609B0F0BD0020FBE770B50D460028A1
:10A1500013D00146284606F001FF2FA1284606F03D
:10A16000A9FE04462DA107F035F8002800D0641C94
:10A170002146284606F0F2FE012070BD30B50D469E
:10A1800089B00146684606F0E9FE6846002424A12D
:10A1900006F090FE0178302902D1417878290AD062
:10A1A0000A21FFF758FF2855641C0020E4B2042C54
:10A1B000EDD309B030BD1021801CF2E72E73766715
:10A1C000000000002E535647000000002000000051
:10A1D000474554006765740048454144000000004D
:10A1E0006865616400000000504F53540000000097
:10A1F000706F7374000000000D0A0000436F6E74EE
:10A20000656E742D4C656E6774683A20000000001E
:10A21000A89C000026000000203F00002F00000046
:10A220002E0000007047704710B50022FE4B03E07F
:10A230008C5C9C54521CD2B28242F9D310BD10B433
:10A240000446F9482438C461016210BC194610461E
:10A25000EAE7F54A243A002800D09060002900D0AF
:10A26000D160704770B50D46EF491C462439098806
:10A27000884201D9002070BD1C214843EB49401899
:10A280008169002A00D089181A46284606F06CFF1A
:10A2900000202855284606F087FE80B270BDFFB525
:10A2A00081B000200A9C00901F46019800F06BFAD4
:10A2B000411C3DD094214843DD4946183546803540
:10A2C000A968DC48002905D0EA688C1A84420FD9B5
:10A2D00004460FE084420DD96F60AC600446701CE8
:10A2E000802106F03CFF701C029906F037FE01E069
:10A2F00001200090287C012813D1A868002800D0F4
:10A300006F68A3B2B8B2EA680399FFF7ABFF002CFD
:10A3100007D0A2B203990198FDF704FF0098002826
:10A3200003D000206860A86001E0E8680019E860D8
:10A3300005B0F0BD70B5BC4C0546243CA069C82BE7
:10A3400010D01946FF39913913D0042914D0002BAD
:10A3500007D0A06906F028FE82B22846A169FDF761
:10A36000E1FE70BD0829FCD00929FAD0FFF75BFB9C
:10A37000EFE77622B04902E0AF499922993906F019
:10A3800091FEE6E738B50C4605460092ABA2BAA1AD
:10A39000204606F0CBFB82B221462846FDF7C2FEDE
:10A3A00038BDF7B50025A04F2C46A04E243F09E04C
:10A3B0001C2060438119009806F00CFF002806D08D
:10A3C000641CA4B238888442F2D32846FEBD1C2007
:10A3D0006043801941690298012501600198048059
:10A3E000F3E7F3B5FFB086B00D46002769468F81CD
:10A3F0000121490204A8019706F0B3FE859800F0F8
:10A40000C2F90646401C5ED0874CFF23243C206ADC
:10A41000A061002001902878913300287DD0012888
:10A4200004D0022802D0032877D166E004A9A81C32
:10A43000FFF78BFE04A893A1029006F0CBFE002844
:10A4400003D191A1029806F089FD92A1029806F02D
:10A45000C1FE002803D190A1029806F07FFD92A1D1
:10A46000029806F0B7FE002803D191A1029806F0E9
:10A4700075FD681C0299FFF72EFB687801AA082871
:10A4800010D003A904A8FFF78CFF002822D0942144
:10A490004E436749684687897118012080310874E6
:10A4A000C82619E0E169029800F093F9002852D01B
:10A4B00060490198413988424DD883B2E269A16967
:10A4C0008598FFF75FFF7FB008B0F0BD8598FFF774
:10A4D00031FFF8E7FF26953669783346019A85986B
:10A4E000FFF728FFC82EEED1019800903B46A269E5
:10A4F00002998598FFF7D3FEE5E704AB71A261A14D
:10A50000A81CFFF7B9FD04AE3146681CFFF7E3FA5B
:10A510006878082804D0FF23953300221146D5E738
:10A5200001AB29463046A26900F093F9050012D02C
:10A5300040490198413988420DD883B2A269E16946
:10A540008598FFF71FFF022DBDD10A2000F025FEE0
:10A55000A0688047B7E7FF23953300220821B5E7BD
:10A56000FEB5314D0446243D286A2861E8696861DA
:10A570002D48005D0190860454483018FDF708F915
:10A58000142807D007DC00284CD0132802D10198EA
:10A59000FDF7CBFCFEBD172805D01C28FAD1019889
:10A5A000FDF77EFDFEBD494810383018FDF7F0F884
:10A5B000C00705D04548012108383018FDF7EAF8F2
:10A5C000942044431A481A49005D671880370028D0
:10A5D00015D0032827D00428E4D10020B860F86003
:10A5E0007860085539480821203830180446FDF7AE
:10A5F000D1F82046FDF7CCF80028FAD1FEBD34484A
:10A600003618706A0204120CF8D00120C00282428F
:10A6100000D90246044D0198243D2969FDF712FE38
:10A6200080B257E085E077E0C80000207C08002079
:10A63000DC030020FF07000049200100485454506B
:10A640002F312E3120323030204F4B0D0A436F6EA8
:10A6500074656E742D547970653A20746578742F22
:10A6600068746D6C0D0A436F6E74656E742D4C6565
:10A670006E6774683A200000257325640D0A0D0A80
:10A68000257300002F000000696E6465782E6874E1
:10A690006D6C00006D0000006D2F696E6465782E92
:10A6A00068746D6C000000006D6F62696C6500007D
:10A6B0006D6F62696C652F696E6465782E68746D64
:10A6C0006C00000020485454500000003000014647
:10A6D00000020146296900220A546869FFF771FCEB
:10A6E00069690198FFF77DFE6D6804E02D484068B8
:10A6F000401B032807D83046FDF74AF871688002EE
:10A7000089B28842F2D1B9682748002901D00321D3
:10A7100000E004210155FEBD0020009003460146E3
:10A72000AA690198FFF7BBFDB9681F480029F0D05E
:10A73000FEBD00231D4A01210198FDF78BFBFEBDE4
:10A74000F8B50D4607001DD0002D1BD0154C2088F4
:10A75000142817D2384606F027FC284606F024FCB9
:10A76000009020881C214843114E3946801906F07C
:10A77000F5FB20881C224243921900999561401CE8
:10A7800051612080F8BD074A00212432535C834286
:10A7900001D148B27047491CC9B20829F6D300203C
:10A7A000C0437047A4000020DC03002053C3000016
:10A7B0007C08002070B50E46154601242DA106F038
:10A7C00009FD002803D12946304605F029FC204622
:10A7D00070BD38B5154600226B461A8001246A46C2
:10A7E000FFF7E8FF002804D068460088286020466C
:10A7F00038BD0024FBE7FFB581B00F461C46164666
:10A80000012520A1019806F0E5FC00280FD021A128
:10A81000019806F0DFFC00280DD023A1019806F076
:10A82000D9FC00280BD00025284605B0F0BD3846DD
:10A8300005F063FC06E0384605F05DFD02E03846B1
:10A8400005F05BFDC2B21DA1304606F06FF9208015
:10A85000EAE738B51C4600236D462B806B46891C01
:10A86000FFF7C9FF002803D069460988022021604C
:10A8700038BD00006765745F646576696E666F2E2B
:10A88000636769007365745F646576696E666F2ED1
:10A89000636769007365745F646576726573657478
:10A8A0002E636769000000007365745F64657666F7
:10A8B000616372657365742E6367690025640000C7
:10A8C000F0B587B002F0F4FB04466D46A81DFEF714
:10A8D0005FFE03A802300690FEF765FE02A8023074
:10A8E0000746FEF76BFE04A802300646FEF771FE2F
:10A8F000214606221731684602F0F5FC2046042264
:10A90000A91D1D3002F0F3FC2046042221300699D7
:10A9100002F0EDFC204604223946253002F0E7FC27
:10A92000204604223146653002F0E1FC6034E078D4
:10A93000002801D0022000E001206946887500202F
:10A94000FDF76DF907B0F0BD7047000010B5C049C4
:10A95000097801290AD1BF4C2178012906D101F0DB
:10A9600009FC002002F0E2F90020207010BD3EB585
:10A9700002F09EFB6421095C002906D0B6490978E3
:10A98000012906D0B5A006F0C3F8B8A006F0C0F8BB
:10A990003EBD014621314A7C097C12020A43014630
:10A9A00020318B7B4C7B0094019302920B7BCA7A03
:10A9B0004931AFA006F0ACF8E7E7FEB502F078FB4E
:10A9C00004460025B3490420FEF7A2FF204660306C
:10A9D000427969460A7082794A70C27906468A705D
:10A9E000007AC870032000F0A7FF20462B3069349E
:10A9F000019021466846019AFEF790FF074601281C
:10AA00000BD06D1CEDB2022D07D803F0C3FEF07819
:10AA10000028EED0FEF77BFCEBE7012000F08CFF76
:10AA20003846FEBD10B502F043FB6030C078002808
:10AA300006D099480078012803D098A006F068F85D
:10AA400010BDFEF7D1FD014699A006F061F810BDDA
:10AA500070B5002502F02CFB064629368D490320EF
:10AA6000FEF7EBFC9D499C4A0846FEF759F8032087
:10AA700000F062FFFEF74BFC0446042807D0002CD0
:10AA800001D16D1CEDB2032D09D9FEF7CEFC707813
:10AA9000042802D0012000F04FFF60B270BD03F027
:10AAA00079FE0020FFF752FFE4E7F0B591B002F025
:10AAB000FFFA04463C228A496846FCF77BFB611D8D
:10AAC00088A006F025F826462036707A8B4980004B
:10AAD00009588BA006F01CF88FA006F019F8204644
:10AAE00060300F90C07801282AD091A192A006F082
:10AAF0000FF89AA006F00CF827462337787B3A7BAC
:10AB0000010211439AA006F003F8A049A0A005F0A5
:10AB1000FFFF9E49A7A0491C05F0FAFFAE48FCF7CD
:10AB200037FE0146ADA005F0F3FFB5A005F0F0FF3C
:10AB300025464035287E002804D02246583202E0BF
:10AB4000B5A1D3E7B9A2002801D0BAA100E0BBA10A
:10AB5000BDA005F0DDFFC0A005F0DAFF0F988078FA
:10AB6000012811D0B5A1C5A2CCA005F0D1FFCEA07F
:10AB700005F0CEFFD5A005F0CBFF787C3A7C010232
:10AB8000114303D0D7A003E0AAA1ECE7ABA159A0E1
:10AB900005F0BEFFD7A005F0BBFF20462130417D68
:10ABA000007D0902014301D0D8A001E0A3A151A07A
:10ABB00005F0AEFFD9A005F0ABFF0023DDA2DDA1BB
:10ABC000DEA005F0A5FF6879E34980000958E3A0FD
:10ABD00005F09EFFA879694680000958E5A005F0B8
:10ABE00097FFE879E649095CE6A005F091FF287A2D
:10ABF000E54980000958E5A005F08AFF687AE44934
:10AC0000095CE4A005F084FF6979E44800291CD0C0
:10AC10000168E3A005F07CFF0223C6A2C5A1E5A060
:10AC200005F076FFEAA3ECA2EDA1F1A005F070FF1C
:10AC3000F4A005F06DFFFCA005F06AFF787D3A7D79
:10AC40000102114302D0B1A0FAE1F3E1F6E1000004
:10AC5000FC000020FE0000200A01002020232044E8
:10AC60004E53204661696C65640D0A000D0A0000B0
:10AC7000202320444E533A202573203D3E20256456
:10AC80002E25642E25642E2564203A2025640D0A85
:10AC900000000000AC0A00205401002020232044C2
:10ACA000484350204661696C65640D0A000000004D
:10ACB00020232044484350204950204C656173654F
:10ACC000642074696D65203A202575207365636F73
:10ACD0006E64730D0A00000049A90000C1A80000BD
:10ACE0004C560100202D20446576696365206E6115
:10ACF0006D653A2025730D0A000000004401002014
:10AD0000202D20446576696365206D6F64653A2067
:10AD100025730D0A00000000202D204E6574776F0A
:10AD2000726B2073657474696E67733A200D0A0044
:10AD30005374617469630000092D204F6274616966
:10AD40006E696E672049502073657474696E67730D
:10AD50003A205B25735D0D0A00000000092D205488
:10AD600043502F55445020706F7274730D0A0000C9
:10AD7000092020202B20533245206461746120700B
:10AD80006F72743A205B25645D0D0A0051C30000A8
:10AD9000092020202B205443502F55445020736508
:10ADA0007474696E6720706F72743A205B25645DFD
:10ADB0000D0A0000092020202B204669726D776162
:10ADC00072652075706461746520706F72743A20CA
:10ADD0005B25645D0D0A000044600046092D205487
:10ADE00043502052657472616E736D697373696F3D
:10ADF0006E2072657472793A205B25645D0D0A00DD
:10AE0000202D2053656172636820494420636F647C
:10AE1000653A200D0A0000004175746F6D61746918
:10AE200063202D2044484350000000004E6F6E65A3
:10AE300000000000456E61626C65640044697361E6
:10AE4000626C656400000000092D2025733A205BC8
:10AE500025735D0D0A000000202D20457468657281
:10AE60006E657420636F6E6E656374696F6E2070BB
:10AE7000617373776F72643A200D0A00285443504F
:10AE800020736572766572202F206D697865642065
:10AE90006D6F6465206F6E6C79290000092D202587
:10AEA000732025730D0A0000202D20436F6E6E6500
:10AEB0006374696F6E2074696D6572207365747454
:10AEC000696E67733A200D0A00000000092D2049C1
:10AED0006E61637469766974792074696D65723A1C
:10AEE000200000005B25645D2028736563290D0A3E
:10AEF00000000000092D205265636F6E6E6563745B
:10AF000020696E74657276616C3A20005B25645D21
:10AF100020286D736563290D0A000000202D205341
:10AF2000657269616C2073657474696E67733A2029
:10AF30000D0A00005541525400000000092D204424
:10AF400061746120257320706F72743A20205B2534
:10AF50007325645D0D0A00005403002009202020A1
:10AF60002B20554152542049463A205B25735D0DF4
:10AF70000A000000092020202B2025642D0000005D
:10AF80003003002025642D003403002025732D009C
:10AF9000400300202564202F2000000044030020EF
:10AFA000466C6F7720636F6E74726F6C3A202573F6
:10AFB0000D0A0000092D2044656275672025732065
:10AFC000706F72743A205B257325645D0D0A000072
:10AFD00028666978656429004E4F4E4500000000E0
:10AFE0003131353230302D382D4E2D3100000000FA
:10AFF000092020202B202573202F20257320257346
:10B000000D0A0000202D2053657269616C20646177
:10B010007461207061636B696E67206F7074696F13
:10B020006E733A0D0A000000092D2054696D653ACF
:10B0300020000000A97A89004158EAE5AE49AF48EE
:10B0400005F066FDAEA005F063FD717E002901D01C
:10B05000AEA001E0A849A94805F05AFDAFA005F04F
:10B0600057FDB07F01281CD0A349A44805F050FD2E
:10B07000ADA005F04DFD8034E07E012814D09E493E
:10B08000B3A005F045FDE37FA27F617FB2A005F08C
:10B090003FFDBAA005F03CFDE87A002807D0C1A228
:10B0A00006E0B17EC0A0E1E793490839E8E7C3A212
:10B0B000C5A1C7A005F02CFD287B002801D0CBA29C
:10B0C00000E0CBA2CEA1D0A005F022FDD5A005F0D6
:10B0D0001FFDDF4C207804F076FEDE4D80002F58F7
:10B0E000207804F061FEDC4E800032583B46DBA144
:10B0F000DCA005F00DFD607804F065FE80002F589F
:10B10000607804F051FE800032583B46DDA1DFA09C
:10B1100005F0FEFCA07804F056FE80002F58A078C1
:10B1200004F042FE800032583B46E0A1E1A005F069
:10B13000EFFCE07804F047FE80002D58E07804F042
:10B1400033FE800032582B46E2A1E4A005F0E0FC7B
:10B15000EAA1A4A005F0DCFC11B0F0BD38B501F007
:10B16000A7FF04466CA005F0D3FCE4A19DA005F068
:10B17000CFFCEFA1F1A005F0CBFCF2A005F0C8FCDC
:10B18000FAA00090A37D627D217DFAA005F0C0FCAD
:10B19000DAA194A005F0BCFC38BD01B5FE480099C9
:10B1A000416041680029FCD108BD8AB001F080FFF0
:10B1B000044600F07EFAF9A103C907910690F7A1B1
:10B1C00003C909910890FCF745FBFCF72BF8F549FA
:10B1D00006F057F8F449086008A906A8FCF7E0FB58
:10B1E00000F01AFBF1480069800701D5FCF7BCFAB2
:10B1F000E948FF2109040830012522C00838FCF77E
:10B200009AFA02F00FF82046203007908572C01C91
:10B21000417D027D0802104301D0E549088002F01B
:10B22000E8F801F045FF8030817E684601767D2197
:10B230000901418306A8FCF7FAFB04F00DF8079812
:10B24000407A012801D0032807D100F079FE0128B7
:10B2500003D14620005D05F025FA26464036707B76
:10B26000002803D0FFF77AFFFFF71FFC02F0E1F898
:10B2700027466037F87800282BD0FFF7E9FB042831
:10B2800025D0214606221731684602F02CF82146C7
:10B2900001A804221D31023002F029F8214603A83A
:10B2A00004222131023002F022F8214602A80422B1
:10B2B0002531023002F01BF804A80422791D023067
:10B2C00002F015F869460020FCF7A9FC03E0B94834
:10B2D0000570B9480570707B002803D002F00BF8A8
:10B2E000FFF7A0FB0798407A012803D0387900289F
:10B2F00000D063E16DE100003CAE0000F4AC000062
:10B30000092D2053697A653A200000005B25645DB1
:10B3100020286279746573290D0A0000092D2043E5
:10B320006861723A20000000202D20536572696127
:10B330006C20636F6D6D616E64206D6F646520734A
:10B34000776974636820636F64653A0D0A000000D2
:10B35000092D2025730D0A00092D205B252E32585A
:10B360005D5B252E32585D5B252E32585D202848C6
:10B370006578206F6E6C79290D0A0000202D204819
:10B380006172647761726520696E666F726D617457
:10B39000696F6E3A205374617475732070696E73AF
:10B3A0000D0A0000445452005B252E32585D2028BF
:10B3B000686578206F6E6C79290D0A005048592015
:10B3C0006C696E6B0000000050415F31300000007E
:10B3D000092D2053746174757320313A205B2573F5
:10B3E0005D202D2025730D0A0000000044535200FB
:10B3F00054435020636F6E6E656374696F6E000016
:10B4000050415F3031000000092D20537461747584
:10B410007320323A205B25735D202D2025730D0AA1
:10B4200000000000202D2048617264776172652061
:10B43000696E666F726D6174696F6E3A20557365DF
:10B440007220492F4F2070696E730D0A00000000B2
:10B45000900300209C0300209403002050435F31A0
:10B4600033000000092D2055736572494F20413A81
:10B47000205B25735D202D202573202F2025730D43
:10B480000A00000050435F3132000000092D2055B2
:10B49000736572494F20423A205B25735D202D2051
:10B4A0002573202F2025730D0A00000050435F30C4
:10B4B00039000000092D2055736572494F20433A29
:10B4C000205B25735D202D202573202F2025730DF3
:10B4D0000A00000050435F3038000000092D20555D
:10B4E000736572494F20443A205B25735D202D20FF
:10B4F0002573202F2025730D0A0000003D3D3D3DA2
:10B500003D3D3D3D3D3D3D3D3D3D3D3D3D3D3D3D6B
:10B510003D3D3D3D3D3D3D3D3D3D3D3D3D3D3D3D5B
:10B520003D3D3D3D3D3D3D3D3D3D3D3D3D3D0000C5
:10B5300057495A37353053520000000020257320F8
:10B540000D0A0000203E3E2057495A6E6574205374
:10B55000657269616C20746F2045746865726E65F0
:10B5600074204465766963650D0A00005374616256
:10B570006C650000203E3E204669726D7761726501
:10B580002076657273696F6E3A2025642E25642ECD
:10B5900025642025730D0A00D40000200402020255
:10B5A00002020200102700000020004600F00140C7
:10B5B000180100205401002055010020FFF7FDF97B
:10B5C000002801D04F480570707B002801D0FFF79C
:10B5D000CEF94D484D4C057020780025002803D049
:10B5E000002001F0A3FB257004F05DFBFCF7B2F82E
:10B5F000307E00280DD1464B032246494648FEF7CF
:10B600001EFE00214548FEF724FE454945A0FFF7F0
:10B6100097F8FF200004FCF7AFF803F0BBF8002018
:10B62000FFF794F942480078002802D0002001F08A
:10B630003AFBF878002801D0FDF769FE307E00283B
:10B6400006D100242046FEF78BFF641C032CF9DB97
:10B6500038480178002900D00570374C2078002840
:10B66000D7D0707B002802D034A005F051FA2570A5
:10B67000CFE701B581B00020009019210198890120
:10B680004843009902E000BF491C00918842FAD863
:10B690000CBD1F484168002902D04168491E416025
:10B6A0007047BFF34F8F2E492C48C860BFF34F8FB0
:10B6B000FEE710B500F0F3F82A4A01209110FBF7DD
:10B6C00015FE03F0F1FB03F000FEFBF7ABFD7D215F
:10B6D000C90005F0D6FD2449401E88420DD82349F3
:10B6E00048611F480722001DC3691B021B0A4C0446
:10B6F0002343C361002088610A610A20FFF74DFDE2
:10B7000010BD00000A010020FB000020E400002022
:10B71000D4000020A61D0020A61B0020A3B6000018
:10B72000C0200100696E6465782E68746D6C00003D
:10B7300055010020FA000020E4020020203E2055A0
:10B740004152542052782052696E672062756666B5
:10B7500065722046756C6C0D0A0000000400FA0545
:10B7600000ED00E0006CDC02FFFFFF0000E000E005
:10B77000FEB50446032818D26A4E6500705B00903F
:10B780000120694608716848A700C059FBF732FEDE
:10B790006548715B001F025DC01E005DFBF7BEFEC9
:10B7A0006148715BC059FBF79BFEFEBD70B501237C
:10B7B00011249D03A406002229462046FBF7D6FE4D
:10B7C000656170BD10B50123212000225902400699
:10B7D000FBF7CCFE10BD70B5002421256D060221BB
:10B7E0002846FBF76FFE002801D0012070BD052020
:10B7F000FFF7D3FC641CE4B2052CF0D3002070BD2D
:10B8000010B5212464060123002202212046FBF703
:10B81000ADFE0220606110BD70B5012003F0D0FBC9
:10B82000424961200863424B01225A6148619A6192
:10B8300088613F48803082613C49022080318861C4
:10B840004020452109064860086144024325010261
:10B850002D0622462846FDF79AF822460021284662
:10B86000FDF739F8002003F0ABFBFFF7C9FFFFF746
:10B87000B2FF002811D000202B4908390870FFF7CB
:10B88000A1FFFFF793FF0020FFF772FF0120FFF7F2
:10B890006FFF0220FFF76CFF70BD0120ECE7254928
:10B8A00002200863224940398860704710B50121A1
:10B8B000212049024006FBF705FE10BD10B51120FE
:10B8C0000123002240218006FBF750FE10BD10B579
:10B8D000112040218006FBF7F5FD10BD10B50328AF
:10B8E00007D2104A4100515A0F4A80001058FBF706
:10B8F00005FE10BD10B5032807D20A4A4100515A6F
:10B90000094A80001058FBF7EBFD10BD032808D250
:10B910000549820089584A68024B4000185A424043
:10B920004A607047FA7C0000EC0000204030004183
:10B93000402000414011004170B5054601F0B8FBC0
:10B940000446293401F0B4FB2B0006F04CFA061033
:10B950000406090C0E10012003E0022060700EE0C6
:10B960000320607006E00420FBE70520F9E760781B
:10B97000022804D00021022004F0C5FA70BD012184
:10B98000F9E700290FD00023FE4A00280CD0012837
:10B9900013D002281AD0032805D1106B401C1ED0EA
:10B9A000D06B4018D0637047106B401C03D0106BF5
:10B9B00040181063704713637047106B401C03D02E
:10B9C000506B40185063704753637047106B401CB6
:10B9D00003D0906B40189063704793637047D363B4
:10B9E0007047F7B582B015460E46002403F0DCFA26
:10B9F000002811D003F0E1FA009003F0DBFA019087
:10BA000003F0D5FA074603F0CFFA01463A46DEA026
:10BA1000019B05F07DF80DE003F0CFFA009003F0F4
:10BA2000C9FA074603F0C3FA01463A46DCA0009B78
:10BA300005F06EF8022D02D0032D02D018E0DDA132
:10BA400000E0DDA13246DDA005F062F8FF252D04FF
:10BA500009E02846FBF790FE0298015DDAA005F0A8
:10BA600057F8641CA4B2B442F3D3D9A005F050F83F
:10BA7000204605B0F0BDFEB50C46074601F018FBA8
:10BA8000002506464E360095019502950B2C00D3F5
:10BA90000A2422463946684605F004FB304605F084
:10BAA00083FAA04207D122466946304605F028FABB
:10BAB000002800D101252846FEBDF1B584B001F073
:10BAC000F7FA2930039001F0F3FA0546453501F005
:10BAD000EFFA4E3002906879022804D1002003F07A
:10BAE00017FD0028C5D104988104BA480818406A97
:10BAF000002687B20120C002A24C874201D9074626
:10BB000001E0002F3CD0B4480818FBF741FE17288D
:10BB100029D01C2827D022282BD19A483A462830F1
:10BB2000034600901833AD490498FCF7A0FC9549F2
:10BB3000E08440310422081D05F0E2F9002818D005
:10BB40009049086C4864287A002812D00846403092
:10BB5000228DC17801920091837842780178A0A06B
:10BB600004F0D6FF05E03A469C490498FCF76AFBCE
:10BB7000E084E68226832673E18C0220FFF701FF32
:10BB800003984078012804D0022809D16078002861
:10BB900006D10298007D012802D1A07A002806D0A3
:10BBA000E08C002811D0E879012812D015E0394640
:10BBB0008A48FFF760FF012808D0A672E684A07AC1
:10BBC000002802D10498FCF76BFA52E70120A0721A
:10BBD000F4E704F0F3F90128F7D028787F4F012823
:10BBE00008D06879012822D0287A03283DD004287B
:10BBF0003BD03FE0287A032801D0042804D1032257
:10BC0000E18C7648FFF7EDFE002003F036FC0025BE
:10BC100005E0795D002003F0C4FB6D1CADB2E08C43
:10BC20008542F6D3002003F050FCE18C18E0607BE5
:10BC30000128CAD1287A032801D0042804D103227C
:10BC4000E18C6648FFF7CDFE002505E0795D002018
:10BC500003F0A7FB6D1CADB2E08C8542F6D314E077
:10BC60000320FFF78EFEE68403E70322E18C5B48A6
:10BC7000FFF7B7FE002505E0795D002003F091FB9A
:10BC80006D1CADB2E08C8542F6D381B2E8E7F8B521
:10BC900001F00EFA05465C48293501885B480088AA
:10BCA0000A185B480088101A05F0F5FA354C8EB278
:10BCB000A08C01273018FF02B84213D3687C0028FB
:10BCC0000DD0012E0BD1002003F0B3FBC1B25148BF
:10BCD000A28C8154687C884201D11046F8BDA08CAA
:10BCE000381A86B2E87BA97B0002084305D1287C7C
:10BCF000002802D1687C002801D000272AE0002516
:10BD0000444F08E0002003F094FBA18C7854491CB8
:10BD10006D1CA184ADB2B542F4D3A08CF8BD002057
:10BD200003F087FB02463B49A08C0A54401C80B2BA
:10BD3000A0846A7C002A04D009182039C97F8A426D
:10BD400004D0297C002903D0814201D180B2F8BD02
:10BD50007F1CBFB2B742E2D3E87BA97B0002084355
:10BD600060D0A58C002D5DD0207A00285AD02648BE
:10BD70000188264800880A1825480088101A05F00E
:10BD80008AFA49E0FC000020205B2564642F2530FE
:10BD900032643A253032643A253032645D00000066
:10BDA000205B253032643A253032643A25303264E3
:10BDB0005D00000053324500453253005B25735D42
:10BDC0005B253034645D20002530325820000000AF
:10BDD0000D0A00000002014630000146AC120020AE
:10BDE000203E2055445020506565722049502F5008
:10BDF0006F72743A2025642E25642E25642E2564E6
:10BE0000203A2025640D0A00EE020020EA020020FC
:10BE1000EC020020AC0A0020002901D10020207291
:10BE20002846F8BD0020F8BDFEB5074601F040F9F0
:10BE30000546293501F03CF906464536FFF736FD43
:10BE4000002876D1FFF723FFF84C019000286ED030
:10BE500001460020FFF795FD307A022801D0042822
:10BE600004D10222F2480199FFF7BBFDF149B80461
:10BE70004018FBF78DFC14285FD017283BD01C28F6
:10BE800039D0222853D1A878002808D1E878002892
:10BE900005D12879002802D16879002806D0687A6F
:10BEA000297A00020843AB1C009011E0DF484030C3
:10BEB0000178002908D14178002905D1817800292D
:10BEC00002D1C07800280AD0D84B208D4033009092
:10BED000D7493846019AFCF71CFA07B205E0307AD8
:10BEE000002802D0D44804F013FE002F1FDDA08CE0
:10BEF000C01BA0841BE0A07A012818D1CC49384689
:10BF0000019AFCF70FF900B2002802DDA18C081A93
:10BF1000A08401200199FFF734FDE87D012806D1B6
:10BF2000207B002806D000202073002020830020E2
:10BF3000E082FEBD01202071F7E70020A084FEBD55
:10BF400010B501F0B5F8E030407E10BDF0B585B019
:10BF5000074601F0ADF801F0ABF80446293401F0D2
:10BF6000A7F845300390B348BD042818FBF710FC30
:10BF700000260090FFF7E4FF0146009BAF48B04A5F
:10BF8000002B4BD0222B28D1AE4BBC04E418002947
:10BF90000AD0012922D002291FD104F0F7FAAA48B9
:10BFA000017801292DD031E0A8490088098812883C
:10BFB0000818801A05F06FF99C4DA88C014302D037
:10BFC0003846FFF731FF606A0004000C02D1E88CAC
:10BFD000002802D03846FFF770FD4AE504F0B6FBB2
:10BFE0009B480178012904D100210170384604F0F2
:10BFF000E1F9606A0004000CEFD0384604F0C4F99F
:10C0000037E500210170384604F035FA606A000413
:10C01000000CE2D0384604F0F2F92AE50021018054
:10C02000824811808184C184A1780846E0380F28B5
:10C0300055D8012268460270002242705E2282704A
:10C04000E0784206520E6846C2700292227902716E
:10C050000092667946717B48D9382818FBF79AFB1D
:10C060007848E178DA382818FBF794FB754821798D
:10C07000DB382818FBF78EFB72486179DC3828180A
:10C08000FBF788FB607A217A000208436949D031C6
:10C09000691808626B480121E5382818FBF77AFB1C
:10C0A00068480021E6382818FBF774FB65485E21D4
:10C0B000E7382818FBF76EFB5E480299E83028182D
:10C0C000FBF768FB5F480099E3382818FBF762FB31
:10C0D0005C483146E4382818FBF75CFB80260120D9
:10C0E00033460343E079A17902020A43022138462C
:10C0F000FBF7B0FEB84290D10520FFF71DFCE07BB6
:10C10000A17B0002084301D0484988830398007A44
:10C11000002800D1ADE44FA004F0FAFCA9E410B56A
:10C12000424CA08A002809D05149884204D2401CC0
:10C130000840A08202D00DE00020A08202F047FF5C
:10C1400004F09AFEFBF71AF84A4905F0A4F84A48A9
:10C150000818A08280B210BD34480021C170C1719E
:10C16000017141720172C1728172C18201840183C5
:10C170004184704770B5054600F09AFF04462D498A
:10C18000A80429344018FBF703FB002807D02178C6
:10C19000032909D0172804D01C2802D004E028461F
:10C1A00070BD2846FBF77CFF2846FBF723FEF6E729
:10C1B00010B500220621FCF73BFA10BDF0B585B0A2
:10C1C00000F076FF0446293400F072FF054645353D
:10C1D00000F06EFF014600204E31064600900391AC
:10C1E0002648FBF7D5FA6946087002902348401E9E
:10C1F000FBF7CEFA6946487001902048801EFBF795
:10C20000C7FA6946887007461C48C01EFBF7C0FA8B
:10C210006946C8700399897D012933D10349897B17
:10C2200001292FD0287A002861D029E0FC000020C5
:10C23000AC0A002030000146045C0100EA02002044
:10C24000EC02002000020146A4030020EE020020C0
:10C25000C5030020203E205345473A5544505F4DCA
:10C260004F44453A534F434B4F50454E0D0A000043
:10C27000FFFF000010270000B88800001360004690
:10C28000EBA011E00299002906D10199002903D100
:10C29000002F01D1002803D0A178002907D00FE09A
:10C2A000287A002823D0ECA004F032FC1FE0E278CA
:10C2B000002A05D12279002A02D16279002A11D000
:10C2C000029A8A4214D1E2780199914210D12179DF
:10C2D0008F420DD1617988420AD1287A002806D090
:10C2E000ECA0E1E7287A002801D0F748DCE7012636
:10C2F00030466AE4F1B588B000F0DAFE00F0D8FE0E
:10C300000546293500F0D4FE0746453700F0D0FE3B
:10C310004E30002406900294684684810898810477
:10C32000EA4804910818FBF733FAE94A0499012610
:10C3300089180591172856D020DC00287DD01328B5
:10C3400029D0142818D1E34C6078002814D1E24891
:10C350000188E24800880A18E1480088101A04F0B1
:10C360009AFF002908D00898FFF704FF6670687BE1
:10C37000297B00020843E08309B0F0BD1828DDD016
:10C380001C28F9D1FF25D34C2D040598406A0004E0
:10C39000000C7CD1FBE0CF4E70780128ECD1687B9B
:10C3A000297B00020843F18B8842E5D8F483FFF72C
:10C3B00005FF01280DD0687A297A02020A43A91CD8
:10C3C0000898FBF7E9FD707C401CC0B270740A2825
:10C3D000D2D30898FFF7CEFEC04874740480C048DA
:10C3E00004807470C8E7B949049810394018FBF705
:10C3F000CFF9C0075CD00220FFF79EFAB548C18A8A
:10C40000002905D1E97AAA7A0902114300D0C67041
:10C41000B048008B002804D1E87D002801D0AD4849
:10C4200006710698007D002808D0AA4841780129A5
:10C4300004D0827A114304D005E0AFE0A5488672AB
:10C4400001E046724484387A002819D002AA0421F7
:10C450000898FCF753F903AA05210898FCF74EF950
:10C460009C484078002868468189C07A00900191F4
:10C470006846837A427A017A0AD09AA004F048FB8F
:10C4800094484178002905D0012908D008E077E0D8
:10C490009FA0F3E791490C8091490C8000E0447023
:10C4A00044748A490498083940180121FBF772F94D
:10C4B00089480188894800880A1889480088101A24
:10C4C00004F0E9FE834FB88C014302D00898FFF7CF
:10C4D000ABFC0598406A0004000C02D1F88C0028DF
:10C4E00002D00898FFF7E9FAF87801280CD1E87A29
:10C4F000A97A00020843F98A884205D80898FFF70C
:10C5000039FE3C713C837C70E87D012823D1387969
:10C51000012820D1387B002802D001280ED01AE053
:10C52000687E297E00020843398B884213D8002890
:10C5300011D00898FFF73CFE3C833E73E87EA97E4D
:10C5400000020843398B884205D8002803D0089898
:10C55000FFF72EFE3C837878002800D00CE7069881
:10C56000007D0128FAD1B87A0028F7D1788C734978
:10C570008842F3D30898FFF7FDFD7C727C84FBE6CC
:10C580002846FBF7F9F80898FFF797FAFDE6E08CE4
:10C590000028F5D10898FBF783FDEDE60120FFF7B1
:10C5A000CBF94C4A5078002817D020461446D08446
:10C5B000FFF7B5FD0246212301210898FBF74AFC4D
:10C5C00008998842CAD1E87BA97B0002084300D0C1
:10C5D000A083A079002820D025E0FFF7BDFD2046EC
:10C5E0009084D084E8791446A97902020A43212371
:10C5F00001210898FBF72EFC08998842AED1E87B10
:10C60000A97B0002084300D0A0830898FBF78DFCAB
:10C61000387A0028A2D04AA0A7E0687B297B0002D4
:10C62000084300D0A671387A002897D09CE000001B
:10C63000203E205345473A434F4E4E454354494FC1
:10C640004E204641494C4544202D20444E5320461F
:10C6500061696C65640D0A00203E205345473A43EA
:10C660004F4E4E454354494F4E204641494C454458
:10C67000202D20496E76616C6964204950206164E8
:10C6800064726573733A205A65726F2049500D0ABF
:10C6900000000000203E205345473A434F4E4E4590
:10C6A0004354494F4E204641494C4544202D204497
:10C6B00075706C69636174652049502061646472AF
:10C6C0006573730D0A000000505C010030000146E4
:10C6D00000020146FC000020EE020020EA020020D9
:10C6E000EC020020203E205345473A434F4E4E4532
:10C6F0004354454420544F202D2025642E25642E7C
:10C7000025642E2564203A2025640D0A00000000CF
:10C71000203E205345473A434F4E4E4543544544EF
:10C720002046524F4D202D2025642E25642E256451
:10C730002E2564203A2025640D0A0000881300008D
:10C74000203E205345473A5443505F4D4958454495
:10C750005F4D4F44453A5345525645525F534F4300
:10C760004B4F50454E0D0A00FEA004F0D1F903E6F0
:10C77000F1B586B000F09CFC00F09AFC0646293624
:10C7800000F096FC4530009000F092FC4E30002402
:10C790000590029468468481FFF7D2FB04900698C6
:10C7A0008704FA483818FAF7F3FFF9497D18172873
:10C7B0000FD002DC002873D1EFE01828FCD01C2831
:10C7C0006ED1FF26F34C3604686A0004000C68D171
:10C7D000DCE0EE4810383818FAF7DAFFC00738D036
:10C7E0000220FFF7A9F8EB48C18A002906D1F17AA7
:10C7F000B27A0902114301D00121C1700599097D66
:10C8000000292ED00121417244840098007A00282A
:10C8100015D002AA04210698FBF770FF03AA052190
:10C820000698FBF76BFF68468189C07A00900191FA
:10C830006846837A427A017AD74804F069F9D74882
:10C8400001210480D6480480D04808383818FAF707
:10C85000A1FF0498002807D0012823D0022833D054
:10C8600043E001218172D0E7CE480188CB4800889F
:10C870000A18CB480088101A04F00DFDC54FB88C7B
:10C88000014302D00698FFF7CFFA686A0004000C53
:10C8900002D1F88C002828D00698FFF70EF924E082
:10C8A0006BE06CE003F052FFBF480178012903D12F
:10C8B0000470069803F07EFD686A0004000C14D032
:10C8C000069803F061FD10E003F060FEB7480178C0
:10C8D000012903D10470069803F0CDFD686A0004B5
:10C8E000000C02D0069803F08AFDAA4DE8780128D2
:10C8F0000BD1F07AB17A00020843E98A884204D861
:10C900000698FFF737FC2C712C83F07D012824D189
:10C910002879012821D1287B002802D001280FD0B6
:10C920001BE0707E317E00020843298B884214D8B8
:10C93000002812D00698FFF73BFC2C8301202873B7
:10C94000F07EB17E00020843298B884205D800287A
:10C9500003D00698FFF72CFC2C830598007D012856
:10C960000BD1A87A002808D1688C9149884204D359
:10C970000698FFF7FFFB6C726C8407B0F0BD304681
:10C98000FAF7FAFE0698FFF798F81DE7E08C002802
:10C99000F5D10698FBF784FBEFE70120FEF7CCFF0B
:10C9A000FFF7DAFB7B4D2123AC84EC84F079B1797D
:10C9B00002020A4301210698FBF74CFA06998842C5
:10C9C000DBD1F07BB17B0002084300D0A88306983E
:10C9D000FBF7ABFA0098007A0028CED075A004F0DF
:10C9E00097F8CAE7F1B584B000F062FB00F060FB95
:10C9F0000546293500F05CFB4530009000F058FBFF
:10CA00000024684602948481049886045F483018A4
:10CA1000FAF7BEFE5E497718172826D019DC0028E1
:10CA20007ED0132814D1687B2A7B01025948114318
:10CA3000C28B91420CD8C483FFF7C0FB012807D0FA
:10CA4000687A297A02020A43A91C0498FBF7A4FA1F
:10CA50004FE41828E4D01C28FAD1FF254D4C2D04B2
:10CA6000786A0004000C7BD1E6E0484810383018A2
:10CA7000FAF78EFEC00745D00220FEF75DFF45485D
:10CA8000C18A002906D1E97AAA7A0902114301D0A4
:10CA90000121C170018B002904D1E97D002901D059
:10CAA000012101713B48012181728079012802D165
:10CAB00038488471C4830098007A002816D002AAEE
:10CAC00004210498FBF71AFE03AA05210498FBF73A
:10CAD00015FE68468189C07A009001916846837A84
