:020000040000FA
:1070000080350020ED710000DD9D0000DF9D000057
:107010000000000000000000000000000000000070
:10702000000000000000000000000000E19D0000E2
:107030000000000000000000E39D0000E59D00004E
:10704000ED9D0000EF9D0000F19D0000FB9D000004
:10705000059E0000079E0000099E00000B9E000098
:107060000D9E00000F9E0000119E0000139E000068
:10707000159E00001D9E00001F9E0000219E000026
:10708000239E0000259E0000279E0000299E0000F0
:107090002B9E00002D9E0000FF7100002F9E00001F
:1070A000319E0000339E000000F002F800F057F817
:1070B0000CA030C8083824182D18A246671EAB460D
:1070C00054465D46AC4201D100F049F87E460F3E81
:1070D0000FCCB6460126334200D0FB1AA246AB467F
:1070E0003343184758A1000078A100000023002472
:1070F00000250026103A01D378C1FBD8520700D3EF
:1071000030C100D50B60704710B5642902D108F07A
:1071100003FC10BD752902D108F0FEFB10BD7829D3
:1071200002D108F02FFC10BD632902D109F08CFBBD
:1071300010BD732902D109F08FFB10BD002010BDD6
:107140001FB508F03FFD09F0F7FA04000020002108
:1071500009F0F8FC401C60601FBD10B510BD09F0BF
:107160007BFC1146FFF7ECFF03F08BFA09F0A2FC61
:1071700003B4FFF7F2FF03BC02F073FE30B40C4916
:107180000C684A6823681068C0181060241D121D1E
:107190008C4207D28A4208D20C604A6030BC400060
:1071A000400870470C00DC3CF6E70A00DC3AF3E7E5
:1071B0001429002070B505460C46164602E00FCC97
:1071C0000FC5103E102EFAD2082E02D303CC03C5F1
:1071D000083E042E07D301CC01C5361F03E02178F9
:1071E0002970641C6D1C761EF9D270BD074880475B
:1071F00007480047FEE7FEE7FEE7FEE7FEE7FEE79B
:1072000004480549054A064B7047000037720000E4
:10721000A97000008029002080350020802D0020EA
:10722000802D002036480068704735484068704718
:107230003448006A704710B53348816B334A116196
:10724000C16B304841600021016241698907CA0F62
:10725000012191404269D207D20F9140CAB24169DF
:1072600040698904890E51438002294A800E5043A7
:1072700008F09DFE2249086010BDF8B5254F012693
:10728000204D01280FD000202862214C10462146B5
:1072900008F08DFEC0B2012808D8EE616F610121AF
:1072A0000A46134619E02E620C46EFE70021E96119
:1072B000FF2101318006800A084368616869800700
:1072C000C00F86406869C007C00F86406869F2B287
:1072D0008004810E68698002830E2046084C514369
:1072E0006060584308F063FE2060F8BD30B4064B80
:1072F0009C6B064D2C61DB6B024C636030BCBCE7C1
:10730000000000200010004180FD03000012004139
:1073100000127A000001020041210906002801D074
:10732000032000E001200860704741210906486001
:1073300070470120412109068860704741200006FE
:10734000C06880B2704741210906002800D00220A1
:10735000086170474120000600690006000E00D059
:107360000120704701204121090608617047002073
:10737000D2E700B50120FFF7CFFF0020FFF7E3FFC2
:1073800000BD00003F4A3F4B01218032984201D1AD
:10739000116070473B4B2033984201D11162704716
:1073A000394A394B80329842F2D0374B20339842D9
:1073B000F4D07047334A334B0121C943803298429D
:1073C00001D1116070472F4B2033984201D11162D7
:1073D00070472D4A2C4B80329842F2D02A4B2033F2
:1073E0009842F4D070478168802291438160704751
:1073F00081688022914381600021016020228260A7
:1074000081617047826880239A4382600A680260C3
:1074100082684B689B0113438A6892001A43CB68C9
:1074200009695B0013431943EF22114081607047E3
:1074300020220129816802D0914381607047114365
:10744000FBE70121C16070474069C0B270478068A6
:107450008006C00F704781688022114381607047A9
:1074600000687047016070474068704780687047E7
:107470008160704700697047406970478069704754
:1074800081617047001000400020004070B510245A
:10749000002101604160BF4A4261426281624263F1
:1074A00021225206904202D1BB4BBC4A0CE043223F
:1074B0001206904204D1B84BB84A4033403203E040
:1074C000B54BB64A803380320020602685005E517D
:1074D0005151401CA042F9D370BDF0B521220023C8
:1074E00010265206904201D1AB4A08E04322120610
:1074F000904202D1A84A403201E0A74A80320124DA
:1075000025460F689D402F40AF4243D10F79012F90
:107510000DD045614D79AD070DD59C001559AD08CD
:10752000AD001551155902273D4315510BE0076970
:107530002F430761EEE79D005759BF08BF00575121
:107540005759274357514C79640704D59C00155966
:1075500004273D4303E09C0015590427BD43155102
:107560004C79A40604D59C00155920273D4303E01F
:107570009C0015592027BD4315514C79640604D54C
:107580009C00155940273D4303E09C0015594027B6
:10759000BD4315515B1CB342B1D3F0BD7D490160C1
:1075A000002101716221417170470246126800207A
:1075B0000A4200D001207047006880B2704702463E
:1075C000526800200A4200D001207047406880B213
:1075D00070470A06920D012312189B02D2181160FF
:1075E0000A0A920010185A0080180160704710B5FE
:1075F0000B069B0D0124CA431B18A4021B191A6019
:10760000090A8900081861004018026010BD10B511
:107610000B069B0D01241B18A4021B191A60090AF2
:107620008900081861004018026010BD4160704771
:10763000836A0B438362012A03D0426A0A4342628F
:107640007047026A0A4302627047524A8262012905
:1076500001D04262704702627047012A03D0426B38
:107660000A4342637047026B0A4302637047494A08
:10767000012901D042637047026370474549816325
:1076800070470246926B00200A4200D001207047EA
:10769000F0B50126414D002334469C400C420ED0EB
:1076A000002810D0012811D03C4C9F0080343C1998
:1076B0002768BF08BF0027602768174327605B1C47
:1076C000102BE9DBF0BD9C006419F1E79C00641904
:1076D000276CBF08BF002764276C17432764EEE7B9
:1076E0007CB504461E460D466846FFF757FF6846C0
:1076F0000095027169462046FFF7EFFE2120400603
:10770000844201D1002006E043200006844201D1DA
:10771000012000E0022032462946FFF7B9FF7CBD78
:107720007CB5044616460D466846FFF737FF002035
:107730006946009508712046FFF7CFFE206A28436E
:107740002062A06A2843A062324629462046FFF7FD
:1077500084FF21204006124E844206D100200122DF
:107760002946FFF795FF802012E04320000684425F
:1077700007D1012002462946FFF78AFFFF2001308A
:1077800006E0022001222946FFF782FF0120400285
:1077900030607CBDFFFF0000003000410020004150
:1077A00000E100E0E12149020160602181800021C7
:1077B000C180032201811202428181817047016BE5
:1077C0004908490001637047F8B50446006B0E464E
:1077D000400840002063FFF72BFD8A4F0125002859
:1077E00046D03D61FFF71EFD7A692946914008F0B9
:1077F000DEFB07463068000108F078FF009038464D
:1078000008F074FF009908F07DFE074608F02AFF93
:10781000009008F06BFF394609F0F0F9062108F0F6
:1078200069FF08F045FE0022774B08F0EDFD08F0F7
:107830001BFE014600986062A162E06AEE21884367
:10784000B188F288114332890243E06A1143084348
:10785000E062206B6D49B289084071891143014390
:10786000206B08432063206B284320630020F8BD71
:10787000022038617869294681406548B7E710B52C
:10788000C36A10242343C3624907890E5207520F6B
:107890001143416310BDC16A10229143C162704718
:1078A00001607047006880B27047C16A01221143CD
:1078B000C16270470246526800200A4200D001208F
:1078C0007047416070470246926900200A4200D02A
:1078D00001207047002A826B01D00A4300E08A43EE
:1078E000826370470246126C00200A4200D00120D9
:1078F0007047426C0A4342647047704710B50446B3
:107900004448016B02290AD0006B032807D0FFF717
:1079100089FC214608F04BFB3F49086110BDFFF789
:1079200084FCF6E710B5FFF7E9FF3B4988680322BE
:107930008008800010438860002010BD36494A68E6
:10794000D207FCD1086070473348006880B27047A6
:10795000314A0146526800200A4200D00120704797
:107960002D4A0029916801D0014300E081439160D4
:107970007047294A0029916801D0014300E0814302
:1079800091607047244A0146D26800200A4200D024
:10799000012070472049CA680243CA6070470160ED
:1079A00082691207FCD40846704730B50B4605467D
:1079B0001C78002C03D021462846FFF7F0FF5B1C03
:1079C000002CF5D130BD8169C906FCD40068C0B275
:1079D000704700B50346FFF7B1FF184600BD10B56C
:1079E00003461C78002C02D02046FFF7A7FF5B1C43
:1079F000002CF6D110BD084841688907FCD5006805
:107A0000C0B27047401100410000E03FFE3CFFFF64
:107A100000127A00001000410060004000787047BA
:107A20000170704730B5002405E00D19ADB2455D19
:107A30001555641CA4B29C42F7D330BD70B5002428
:107A400005E00E19155DB6B28555641CA4B29C42C2
:107A5000F7D370BD70B514000FD01A4A83049E1876
:107A6000F268400795B2184AC00A10430A462346F6
:107A70002946FFF7E3FF2819F06070BD70B51400C8
:107A80000FD0104A83049E18B26A400795B20F4A7D
:107A9000C00A10430A4623462946FFF7C3FF2819A8
:107AA000B06270BD10B500290BD0064A83049B1844
:107AB0009A6A4007054CC00A5118204389B2081839
:107AC000986210BD00020146000002460000034615
:107AD00070B50446082802D90020C04370BDFA489A
:107AE000A604301805461021FFF79AFF2846FFF735
:107AF00095FF0028FAD1F4481F2118303018FFF7FD
:107B00008FFFF24801218288A1408A438280F04A97
:107B1000002061005052ED49891D0855EA48203087
:107B200034182046FFF77AFF0028FAD1012070BDF3
:107B3000F8B51C4616460F460546082802D900200F
:107B4000C043F8BD012F06D0022F04D0042F02D06D
:107B50000420C043F8BD6007810FDE48FAD1002C35
:107B60000CD0012F02D0022F08D103E021210C42BA
:107B7000F0D003E0A10601D52106EBD52846FFF79A
:107B8000A7FF21090901D0483943AF04103838183C
:107B9000FFF746FF002E0AD1CC48CF4A0688711C59
:107BA00089B20180914202D1032189030180C64834
:107BB000F03038184661C448012138180646FFF7EE
:107BC0002FFF3046FFF72AFF0028FAD1BF48E10710
:107BD000C90F4288A9401143418001218288A940F0
:107BE0008A438280BA4A002069005052B749891DF1
:107BF0004855B54820303C182046FFF70FFF0028B5
:107C0000FAD068B2F8BD70B50646082802D900203F
:107C1000C04370BDAC48B40410382018FFF7FEFE16
:107C20000007000F012802D00420C04370BDA64801
:107C3000203020180546FFF7F1FE132802D002205D
:107C4000C04370BDA048022120180446FFF7E8FE9B
:107C50002046FFF7E3FE0028FAD12846FFF7DEFEB4
:107C6000142805D03046FFF733FF0320C04370BD12
:107C7000012070BDF7B50D460746082802D900203F
:107C8000C043FEBD9048BC0410382018FFF7C6FE64
:107C90000007000F012802D00420C043FEBD8A481F
:107CA000203020180646FFF7B9FE132802D0022024
:107CB000C043FEBD29786A7808028018AA780002BD
:107CC0008018EA7800028018421C32D0002830D098
:107CD0000298002830D081482018FFF7A1FE7F4885
:107CE0006978401E2018FFF79BFE7C48A978801E0B
:107CF0002018FFF795FE7948E978C01E2018FFF795
:107D00008FFE764902982739611808626E4804216F
:107D100020180546FFF784FE2846FFF77FFE00285F
:107D2000FAD16A4901204988B84008421CD0002095
:107D3000FEBD0B20C043FEBD0A20C043FEBD284649
:107D4000FFF76CFE000708D55F480821183020189F
:107D5000FFF766FE0C20C043FEBD3046FFF75EFE17
:107D6000002804D1001FFEBD5748103025183046AA
:107D7000FFF754FE1728E2D10120FEBD70B506467C
:107D8000082802D90020C04370BD4F48B504103800
:107D90002818FFF743FE0007000F012802D0042037
:107DA000C04370BD4848082128180446FFF738FE34
:107DB0002046FFF733FE0028FAD1444901208A8883
:107DC000B04082438A80498808420CD0002070BDB0
:107DD0002046FFF723FE00070BD53046FFF778FE5D
:107DE0000C20C04370BD384810302C183648203065
:107DF0002D182846FFF712FE0028E9D1012070BD9A
:107E0000F7B582B002981446082803D90020C04371
:107E100005B0F0BD86042C4810383018FFF7FEFD81
:107E20000007000F012802D00420C043F0E7002C17
:107E30000CD02548203030180190FFF7EFFD1728AF
:107E400007D01C2805D00620C043E1E70D20C04321
:107E5000DEE7029801251D4F8540B888054211D004
:107E6000194810303018FFF7D9FDC006C00EC10602
:107E700021D51548102118303018FFF7D1FDB888EA
:107E8000A843B8801548D93030180090FFF7C6FDD8
:107E90008006000C844200D904460098406887B2EE
:107EA0000198FFF7BBFD17281AD01C2818D002989C
:107EB000FFF70EFEC7E7000718D50298FFF708FE88
:107EC0000C20C043A4E70000100001460800002079
:107ED0002C030020FAFFFFFFF0FF000027010146FE
:107EE000FE484088054203D0BC4201D900208FE7FC
:107EF000BC42D2D8224603990298FFF7ABFDF8485E
:107F0000202130180646FFF78BFD3046FFF786FD2F
:107F10000028FAD1F14881880D438580204677E713
:107F2000F7B582B002981446082802D90020C04351
:107F30006EE78704EA4810383818FFF76FFD00072E
:107F4000000F012802D00420C04361E7002C19D0A3
:107F5000E4483818FFF762FD8006000CA04200D20A
:107F60000446DF48203038180090DE4820383E189C
:107F7000706A85B20098FFF751FD172815D01C28AC
:107F800003D00CE00D20C04342E7002D1AD130464B
:107F9000FFF744FD7168800289B2884205D10298DA
:107FA000FFF796FD0620C04332E702990120884082
:107FB000CA494988084203D0002D03D1002027E791
:107FC000002DD5D0A54200D22C4622460399029816
:107FD000FFF754FDC248402138180546FFF720FD41
:107FE0002846FFF71BFD0028FAD1204610E7FFB511
:107FF00083B003981E461546082803D90020C043C5
:1080000007B0F0BD8404B64810382018FFF706FD0D
:108010000007000F022804D0042802D00420C04327
:10802000EEE7002D1DD03078717800024018B1784D
:1080300000024018F1780002C84202D10B20C04370
:10804000DEE70C9800280FD0A548203020180746FE
:10805000FFF7E4FC42280AD0222808D00620C043BB
:10806000CEE70D20C043CBE70A20C043C8E79D48B8
:108070003178F9382018FFF7D3FC9A487178FA382C
:108080002018FFF7CDFC9748B178FB382018FFF790
:10809000C7FC9448F178FC382018FFF7C1FC9049E0
:1080A0000C98F031611808628E4820382018019031
:1080B000FFF7B4FC8006000C854200D90546039901
:1080C0000120884000900198406886B23846FFF74A
:1080D000A5FC002808D0814900984988084206D0AC
:1080E000B54204D900208BE70320C04388E7B5429E
:1080F000E9D82A4604990398FFF7ACFC7848202178
:1081000020180746FFF78CFC7548183026183846AB
:10811000FFF784FC0028FAD171481030241820465B
:10812000FFF77CFCC006C00EC10605D53046102105
:10813000FFF776FC284663E70007F0D530460821B4
:10814000FFF76EFC0C20C0435AE7FFB5002485B052
:108150000646082802D9601E09B0F0BD6048B50483
:1081600010382818FFF75AFC04900007000F022867
:1081700004D0042802D00420C043EDE7079800286B
:1081800005D059487700C05B002803D022E00D20BD
:10819000C043E1E753482038281803905048203066
:1081A00028180125B54002900398406A84B20298CD
:1081B000FFF734FC002806D048484088054207D025
:1081C000002C03D006E00320C043C5E70020C3E72E
:1081D000002CE9D041480021801D81550498B2044B
:1081E00041073F48490F151802291FD0042957D0CD
:1081F00021463046FFF756FC3B48C45328464021F1
:10820000FFF70EFC2846FFF709FC0028FAD1364894
:10821000C15B091B0904090CC15305D02F48012279
:10822000801D815D11438155204695E72E4CE05B12
:10823000002865D1082269463046FFF71FFC284612
:108240004021FFF7EDFB2846FFF7E8FB0028FAD1B5
:10825000684601780898017068464178089841702E
:1082600068468178089881706846C1780898C1701E
:1082700068460E990079088001026846407908181E
:108280000E9908806846807901026846C07908180E
:10829000E05332E0224630460699FFF7EFFBADE7A8
:1082A000114CE05B00282BD1022269463046FFF7D3
:1082B000E5FB28464021FFF7B3FB2846FFF7AEFB5E
:1082C0000028FAD16846007801026846407808180C
:1082D00080B20649E05388420FD909E00800002027
:1082E00010000146200201462C030020EA05000090
:1082F0003046FFF7EDFB9E482EE79E4980208855CB
:10830000E45B07988442C5D90446C3E7F8B5144630
:108310000646082802D90020C043F8BD954B964870
:108320009B1F0927B2045D88FF4310180B0008F05B
:10833000F4FB0805171B1D252E373140217801203D
:10834000B040012902D0002905D032E08949891FB7
:10835000284348802BE08749891F85434D8026E0CC
:10836000F540E807C00F19E0844801E08348203059
:108370001018FFF753FB8002208018E020781F2898
:1083800017D8C1067C48C90E001D10180DE07A48A8
:10839000001F1018FFF742FBC006C00E207006E059
:1083A00021781F2905D8C906C90EFFF739FB01201E
:1083B000F8BD3846F8BDF8B51546082802D90020A2
:1083C000C043F8BD84046D4B6B4A6B48803BDC3284
:1083D00024380427E618A2182018FF430B0008F0E1
:1083E0009CFB084F050910421316444F6248297838
:1083F000E43002E060482978E0302018FFF710FBF5
:1084000031E0288810612EE0288810622BE0FFF709
:1084100005FB0007000F01282DD13046FFF7FEFABB
:10842000002802D00120C043F8BD5348222114384F
:1084300020180546FFF7F4FA4F48001F26180DE0F4
:108440003046FFF7EBFA000708D54B480821001D1E
:108450002018FFF7E5FA0C20C043F8BD2846FFF7C7
:10846000DDFA0028ECD10120F8BDFFF7D7FA0007AC
:10847000000F012801D03846F8BD29783046BDE705
:108480000920C043F8BDF8B514460646082802D9AD
:108490000020C043F8BDB5043748374A374B24386D
:1084A000DC32EF182818AA180B0008F036FB0D086C
:1084B0000D121517305E323E404248525E00FFF703
:1084C000ADFA0009000102E02B48E43033E02070EF
:1084D0003DE02948E0302EE01069F8E72748D93818
:1084E0002818FFF79BFA20702448DA382818FFF77D
:1084F00095FA60702148DB382818FFF78FFAA070D2
:108500001E48DC382818FFF789FAE0701FE0106A6F
:108510001CE0FFF783FA0007000F01281FD117485E
:1085200080382818FFF77AFA10E078680EE0786A49
:108530000CE011480C302818FFF770FAC7E7FFF776
:108540006DFA0128F3D00E497000085A20800120EE
:10855000F8BDFFF763FA0007000F012802D00420DE
:10856000C043F8BD0348805DB1E70120C043F8BDBA
:1085700017FCFFFF0E000020240001460002014608
:108580002C03002070477047704770470078704791
:1085900001707047002070477047FE4A002804D0E1
:1085A000002902D0D16090607047FB489060FB4882
:1085B000D0607047F74A002804D0002902D05161EA
:1085C00010617047F6481061F6485061704710B569
:1085D000F04A1388DC05FDD5002804D0002902D01C
:1085E000D161906110BDF0489061F048D06110BD3C
:1085F00010B5E84A13889C05FDD5002804D0002951
:1086000002D0D161906110BDE9489061E948D06124
:1086100010BD0020C04370470020C043704710B514
:10862000E548FFF7FBF90446E3481030FFF7F6F999
:108630000002001980B210BD10B5C1B2040A0909C8
:108640000901DD48FFF7ECF9DB4821461030FFF760
:10865000E7F910BDD84810B5001FFFF7DFF9044651
:10866000D5480C30FFF7DAF90002001980B210BDCE
:1086700010B5C1B2040AD04809090901001DFFF76D
:10868000CFF9CD4821460C30FFF7CAF910BDF0B53F
:1086900093B0CA48FFF7C2F91190C848401EFFF7CF
:1086A000BDF9C64C1090A41E2046FFF7B7F9651E11
:1086B0000F902846FFF7B2F90E90A01DFFF7AEF914
:1086C0000D90601DFFF7AAF90C90BC480830FFF729
:1086D000A5F90B90B948C01DFFF7A0F9B74E0A9055
:1086E000B61D3046FFF79AF90990E01DFFF796F99D
:1086F0000890B01DFFF792F90790701DFFF78EF9F3
:108700000690301DFFF78AF90590F01CFFF786F9F7
:108710000490AA481030FFF781F9A84F03900F3753
:108720003846FFF77BF90290781EFFF777F9019042
:10873000F01DFFF773F900908021A148FFF770F951
:108740009F48FFF76BF9A01C1199FFF769F9601CAE
:108750001099FFF765F920460F99FFF761F9284650
:108760000E99FFF75DF9A01D0D99FFF759F9601DEE
:108770000C99FFF755F9B01C0B99FFF751F9701CD4
:108780000A99FFF74DF930460999FFF749F9E01DBD
:108790000899FFF745F9B01D0799FFF741F9701DDA
:1087A0000699FFF73DF9301D0599FFF739F9F01CDF
:1087B0000499FFF735F9781C0399FFF731F938462A
:1087C0000299FFF72DF9781E0199FFF729F9F01D9D
:1087D0000099FFF725F913B0F0BDF8B50D46064630
:1087E0000024FFF754FF002E14D00022B05C521C6E
:1087F000001952B244B2082AF8DB102C17DC714F72
:108800000024A004315DC019FFF70AF9641C64B2AA
:10881000082CF6DB002D19D0002108462A5C401CEC
:10882000511840B249B20828F8DB102902DD0020B7
:10883000C043F8BD634E00242036A004295D801992
:10884000FFF7EEF8641C64B2082CF6DB0020F8BDDC
:1088500070B50C460246002108464D1E130008F074
:108860005CF90906091511181C2E2E202E00FFF7A1
:108870000EFF22E0002C02D0214620460831FFF7EF
:10888000ACFF70BD2088FFF7F3FE16E0FFF7E2FEB5
:1088900005E02088FFF7D0FE0FE0FFF7C0FE208044
:1088A0000BE03C4882782270C27862700279A27034
:1088B0004279E270807920716171002070BD284694
:1088C00070BD10B504463D484130FFF7A7F8207051
:1088D0003A483D300068608010BD10B5017804460C
:1088E000002903D035484130FFF79AF833496088B2
:1088F0003D31086010BD10B53148FFF78FF810BD4D
:1089000070B50446C720044202D00020C04370BDA9
:108910002B4D2846FFF782F8204301462846FFF7F3
:108920007FF8002070BD10B504462448FFF776F8A4
:1089300020702248401EFFF771F860701F48801EAB
:10894000FFF76CF8A0701D48C01EFFF767F8E070D5
:108950001A48001DFFF762F820711848C01CFFF785
:108960005DF8607115480830FFF758F8A073134898
:10897000C01DFFF753F8E0731048801DFFF74EF855
:1089800020740E48401DFFF749F860740B480C3006
:108990001AE0000020000020858500008785000087
:1089A000898500008B8500008D8500009185000081
:1089B000958500009985000004210046036000466B
:1089C0000023004600020146FFF728F8A0725F4826
:1089D000FFF724F8E0725D48401EFFF71FF8207390
:1089E0005A48801EFFF71AF860735848401DFFF779
:1089F00015F8A0715548001DFFF710F8E0715348B5
:108A0000C01CFFF70BF820725048801CFFF706F8D7
:108A100060724F480178A1744178E17481782175C2
:108A2000C07860754A48401E0078A07510BD10B52A
:108A30000446017845480B38FEF7F2FF4348617859
:108A40000C38FEF7EDFF4148A1780D38FEF7E8FF3E
:108A50003E48E1780E38FEF7E3FF3C482179C01F1D
:108A6000FEF7DEFF394861790838FEF7D9FF37484D
:108A7000A17BC01EFEF7D4FF3448E17B001FFEF748
:108A8000CFFF3248217C401FFEF7CAFF2F48617C90
:108A9000801FFEF7C5FF2D48A17A401CFEF7C0FFDE
:108AA000E17A2A48FEF7BCFF2848217B401EFEF7EA
:108AB000B7FF2648617B801EFEF7B2FF2348A179ED
:108AC000401DFEF7ADFF2148E179001DFEF7A8FF2C
:108AD0001E48217AC01CFEF7A3FF1C48617A801C47
:108AE000FEF79EFF1A48A17C0170E17C4170217D58
:108AF0008170617DC1701649A07D491E087010BD4E
:108B000010B50C46030008F008F80604080C101411
:108B1000181D0846FFF78BFF12E00846FFF703FF1A
:108B20000EE00878FFF7ECFE10BDFFF7E4FE2070C2
:108B300006E00846FFF7D1FE02E00846FFF7C1FE57
:108B4000002010BD0020C04310BD00000E60004694
:108B50001900002070B5914C054620882861618875
:108B60002846FEF736FD012001F083FD6188284686
:108B7000FEF73DFD012001F07CFD70BDF8B5074614
:108B80000020864D0446460069883846FEF721FDE0
:108B9000012001F06EFD69883846FEF728FD0120AE
:108BA00001F067FD29883846FEF7FFFC3043641C5E
:108BB000102CE8D3F8BD70B5784C05462088686164
:108BC000012001F056FD61882846FEF702FD0120D4
:108BD00001F04FFD61882846FEF709FD012001F0F4
:108BE00048FD70BDF8B5074616462020801B814021
:108BF0000C466A4D18E02988002C384602DAFEF748
:108C0000E8FC01E0FEF7F3FC012001F032FD698889
:108C10003846FEF7DEFC012001F02BFD698838465E
:108C2000FEF7E5FC6400761E002EE4D1F8BD70B5B9
:108C30000C46002105462022C943FFF7D3FF04223A
:108C400006212846FFF7CEFF5448052241682846F2
:108C5000FFF7C8FF052221462846FFF7C3FF284635
:108C6000FFF7A9FF2846FFF789FF04462846FFF7CC
:108C700071FF204670BD10B5432001210006FFF7AB
:108C8000D6FF4007C00F10BD70B50C461646002138
:108C900005462022C943FFF7A5FF042205212846E7
:108CA000FFF7A0FF3D48052241682846FFF79AFFDD
:108CB000052221462846FFF795FF02221146284645
:108CC000FFF790FF102231462846FFF78BFF28461A
:108CD000FFF740FF70BD01221203904203D0212113
:108CE000090208400246002143200006CCE7F8B5FF
:108CF000002543273F06002400212022C94338468F
:108D0000FFF770FF042206213846FFF76BFF0522AC
:108D100021463846FFF766FF052201213846FFF756
:108D200061FF3846FFF747FF3846FFF727FF064643
:108D30003846FFF70FFF002E02D01948864209D1AE
:108D4000641C082CD8DD6D1CEDB216A006F070FD79
:108D5000022DD0D32046F8BD7CB5054614460E46FC
:108D60006846FEF71BFC3046204300900120694610
:108D700008712846FEF7B1FB012221461046FEF796
:108D800087FC012231461046FEF782FC034D6E80BF
:108D90002C80FFF7ACFF68607CBD00004000002025
:108DA000FFFF00000D0A7068792069642064657413
:108DB000656374206572726F7221210D0A000000D4
:108DC00010B5FE4CFE482178FEF72AFEFC4861787B
:108DD000401EFEF725FEFA48A178801EFEF720FE11
:108DE000F748E178C01EFEF71BFEF54808342178ED
:108DF000001FFEF715FEF2486178401FFEF710FED7
:108E0000EF48A178801FFEF70BFEED48E178C01F08
:108E1000FEF706FEEA48241F21780838FEF700FE18
:108E2000E74861780938FEF7FBFDE548A1780A3884
:108E3000FEF7F6FDE248E1780B38FEF7F1FD10BDD4
:108E400010B5E04C80212046FEF7EAFD2046FEF7F3
:108E5000E5FDFFF7B5FFD94CD948353421781038F6
:108E6000FEF7DEFDD64861781138FEF7D9FDD4480B
:108E7000A1781238FEF7D4FDD148E1781338FEF717
:108E8000CFFDCF4821790C38FEF7CAFDCC48617977
:108E90000D38FEF7C5FD10BD10B5CA4C8021204627
:108EA000FEF7BEFD2046FEF7B9FDC44CC44835347C
:108EB00021781038FEF7B4FDC14861781138FEF70B
:108EC000AFFDBF48A1781238FEF7AAFDBC48E17893
:108ED0001338FEF7A5FDBA4821790C38FEF7A0FD3E
:108EE000B74861790D38FEF79BFD10BDB34B10B547
:108EF000DB1FB54C5C62B54C9C62B54CDC62002853
:108F000000D05862002900D09962002A00D0DA62AD
:108F100010BD30B5A94B0120DB1F996B087048705C
:108F2000062088700020C8705A6B120E0A715A6BA6
:108F3000120C4A719A8E120A8A719A8ECA71996BB2
:108F4000802208818A72C872996B1A460873487326
:108F50008873C873087448748874C8740875487531
:108F60008875C875087648768876C8763C32147855
:108F70000C7754784C7794788C77D478CC770C46EF
:108F80001579203425705279627006228C18521C93
:108F9000D2B22077102AF9D39A6B002154182034CA
:108FA000491CC9B220734029F8D39A6B0021541888
:108FB0006034491CC9B220738029F8D3986B6321AF
:108FC000E03001738222427353228273C17330BD39
:108FD000FEB5FFF79EFF79483522C01F836BF02155
:108FE000CA540122F121CA54F221CA543D22F3216C
:108FF000CA540722F421CA540122F521CA54014659
:109000003C310A78F621CA5401463C314A78F721AE
:10901000CA5402463C329478F822D45402463C3278
:10902000D478F922D45402463C321479FA22D4542A
:1090300002463C325479FB22D4540C21FC22D154F8
:109040000027FD21CF54122204463946423406E05F
:109050009E18E036521C491C357392B289B2655C89
:10906000002DF5D1846B554BA6183533DD78E036ED
:109070003573521C92B2A6181D79E0363573521C16
:1090800092B2A5185B79E0352B73521C92B2CB1CBF
:10909000511A0919E0310B72816B37238C18E034B7
:1090A0002373521C92B28C18521C92B28D18062354
:1090B000E03423730124E0352C73521C92B28D18D6
:1090C0000324E035521C2C7392B28C18E0342373C5
:1090D000521C92B28C180F23E0342373521C92B2AC
:1090E0008B183A24E0331C73521C92B28B18E03375
:1090F0003B24521C1C7392B2FF238C18E034237360
:10910000521CFF2492B2393404E08D18E035521C11
:109110002F7392B2A242F8D369460B714B718B71D7
:10912000CB71432100918922816B01AB9200807841
:10913000FEF75DFFFEBDFEB5FFF7EBFE1F4C002006
:10914000E41FE11D20560B462933FF2703284AD090
:10915000042848D06846077147718771C771A26BB0
:109160003520F025A8540120F125A8540320F2252C
:10917000A8543D20F325A8540720F425A854012025
:10918000F525A8540D48F62535300078A8540B482D
:10919000F72535304078A8540848F82535308078D0
:1091A000A8540648F9253530C078A8540348FA2554
:1091B00035300079A854014835300BE04F000020CD
:1091C0001360004600230046C18D0000418E000060
:1091D000998E00004079FB25A8546D46ED7910204A
:1091E000FF2D16D039E0A06B00228272C2720A787D
:1091F00002734A7842738A788273CA78C2731A7883
:10920000684602715A7842719A788271DA78C2712E
:10921000A5E73225FC2085540425FD2085540E78D1
:10922000FE2086544E78FF2086548878AE01B054D4
:10923000C978701C81543621401C8154401C8554CF
:109240001978401C81545978401C81549978401CED
:109250008154D978401C81541C2013180C21E03310
:109260001973401C13180021E0331973FB4D401C87
:1092700005E01618E036401C337380B2491C6B5C65
:10928000002BF6D1A36BF54A1E18921FD578E03655
:109290003573401C80B21E181579E0363573401CBA
:1092A00080B21D185279E0352A73401C82B2C81C66
:1092B000511AC918E0310872A06B37218318E033C6
:1092C0001973521C91B243180822E0331A73491CD7
:1092D00089B243180122E0331A73491C89B243183A
:1092E0000322E0331A73491C89B243180622E03383
:1092F0001A73491C89B243180F22E0331A73491CB0
:1093000089B242183A23E0321373491C89B24218D9
:109310003B23E032491C137389B242181F23E03209
:109320001373491C89B242182123E0321373491C7C
:1093300089B24218E0321773491C0022FF2389B218
:10934000393303E04518E0352A73491C9942F9DBAB
:1093500043200090892201AB9200A078A16BFEF718
:1093600046FEFEBD1CB5FFF7D4FDBC4800214238C7
:10937000806B35228172C172F0210A540122F121E1
:109380000A540422F2210A543D23F3210B540722EC
:10939000F4210A540122F5210A54B049F622891F0A
:1093A0000B7813544B78F72213548B78F82213540C
:1093B000CB78F92213540B79FA2213544A79FB2102
:1093C0000A543222FC210A540422FD210A54A349E2
:1093D0003B390A78FE210A54A0493B394A78FF21DB
:1093E0000A549E493B398A78FF2101310A549B492E
:1093F0003B39CA78FF2102310A543622491C0A54EB
:109400000422491C0A549549FF2212390B7805326F
:1094100013544B78521C13548B78521C1354CA7833
:10942000FF2108310A54FF22491C0A541D21002340
:10943000FF2239324418E034491C23739142F9DB8E
:10944000FF206946087148718871C87143200090F7
:10945000824889224238816B01AB92008078FEF706
:10946000C6FD1CBD7FB57D4C7D4A423CA078810481
:109470008918496A0A04120C27D001A9009102AB8D
:10948000A16BFEF762FE82B26846808843283CD119
:10949000A06B21463C31037F0D78AB4215D1457F4F
:1094A0004B789D4211D1837F8D78AB420DD1C37F24
:1094B000CD78AB4209D1034620331D780E79B542F1
:1094C00003D15B7849798B4202D0002004B070BD93
:1094D000F03000258118F03915E00278332A3ED0AB
:1094E00008DC002A15D0012A18D0032A1AD0062A2F
:1094F00006D125E0352A0ED0362A3FD0FF2A06D0E5
:109500004278801C80188842E7D368B2DEE70846BC
:10951000F9E7401CF7E78578C01CF4E74F4A8378E9
:10952000333A2EE04D4A43788678373A1670C6783B
:109530005670067996704679801DD670C0180CE07A
:10954000464B427886782F3B1E70C6785E7006794F
:109550009E704679801DDE708018001FD3E78278E8
:10956000A261C37812029A18A261037912029A18B2
:10957000A261437912029A18A26109E0374A8378FE
:10958000123A1370C3785370037993704379D37090
:10959000801DB8E7314800214238C16105220262CE
:1095A0004170704770B52D4C0125423C6157002633
:1095B0002246905702291ADAE269216A914226D29C
:1095C000012804D0022808D0042808D105E025A0ED
:1095D00006F02EF9FFF7FCFC01E0FFF7ACFDE661B9
:1095E000E069401D20626078401C60700FE0012837
:1095F00004D0022805D0042807D102E026700025F7
:1096000003E0FFF7E5FC01202070FFF7C3FF2846C9
:1096100070BDF8B51E4E3046FEF700FA0546032130
:109620003046FEF7FDF90D4B1A483B3BDC1F00901E
:10963000112219A1A078FEF7DAFC07462946304628
:10964000FEF7EEF90D3731D0FFF78CFEE069E169E6
:10965000091A0229FBD30020F8BD00008A0000206F
:10966000000201463C3C74696D656F75743E3E2096
:109670007374617465203A2053544154455F4448E3
:1096800043505F444953434F5645520D0A00000072
:109690004460004688130000434845434B5F4950EF
:1096A0005F434F4E464C4943540000000120D3E72E
:1096B000F8B5B74C207806281ED0A078B5498004AC
:1096C0004018FEF7ABF9222805D0002344220221DE
:1096D000A078FEF72DFA0125FFF7C4FEC1B20022E3
:1096E000A256AB4800260127C01D130007F015FA4B
:1096F00005060D1C314C2F000520ADE706704670A5
:109700008670C670FFF764FC5EE002291CD1A16B75
:109710000A7C02704A7C42708A7C8270C97CC1706B
:10972000FFF709FD02204BE005290BD1FFF771FF80
:10973000002801D0606A3FE0FFF72CFFE06A804715
:10974000267004E006293DD0FFF72CFF0546284689
:1097500082E7A16904254A1CF9D0E26949089142CF
:10976000F5D28B490278C91C0A7042784A70827817
:109770008A70C078C870606B401C6063FFF7DBFCC8
:10978000FFF708FF04201BE004250529DAD18049F2
:109790006670C91C0A7803789A420BD14A784378DC
:1097A0009A4207D18A7883789A4203D1C978C078DF
:1097B000814202D0A06A03258047FFF7EBFE032019
:1097C0002070C4E7FFF7E6FE2770C0E710B5704CC5
:1097D000A078FEF77DF90620207010BDF3B56E4F1E
:1097E00083B00646002538460095FEF717F9684C09
:1097F0003C342070781EFEF711F96070B81EFEF739
:109800000DF9A070F81EFEF709F9E070381DFEF79B
:1098100005F92071F81CFEF701F960710146207806
:109820006278E3781043A2781A43104322791043F8
:1098300008431FD1257008206070DC20A070E570FF
:109840002571294665713846FEF7EAF86178781E79
:10985000FEF7E6F8A178B81EFEF7E2F8E178F81E08
:10986000FEF7DEF82179381DFEF7DAF86179F81C89
:10987000FEF7D6F8464F4949BE700498B863E078C1
:109880006379421821798A1848409A1858408018FC
:1098900078636846017840480C461030FEF7C0F8FF
:1098A00068464078029001463B480F30FEF7B8F812
:1098B000684680780190014637480E30FEF7B0F8D0
:1098C0006846C678344831460D30FEF7A9F832486C
:1098D00021461030FEF7A4F82F4802990F30FEF70A
:1098E0009FF82D4801990E30FEF79AF82A48314624
:1098F0000D30FEF795F8284821460830FEF790F81D
:1099000025480299C01DFEF78BF823480199801D58
:10991000FEF786F820483146401DFEF781F8FFF734
:1099200039FE3D7005B0F0BD1948C169491CC161DF
:1099300070471749C91D0A7802704A7842708A78C0
:109940008270C978C170704711490B310A78027072
:109950004A7842708A788270C978C17070470C4921
:109960000F310A7802704A7842708A788270C9781A
:10997000C1707047064913310A7802704A78427004
:109980008A788270C978C1707047014880697047D1
:10999000480000203000014603600046785634122B
:1099A000017840780902401880B270470A0A0270B4
:1099B0004170801C7047F0B584460020054606467D
:1099C0000C78491C002D00D1401C2706BF0F032F27
:1099D0000AD1002D00D1401CA4060978A40C6444CF
:1099E000091901250C78491C002C19D01B1B5B1E82
:1099F0001BB2002B02DA0020C043F0BD002D05D1C0
:109A0000001903E00F781770491C521C2746641E8A
:109A1000A4B2002FF6D12E241470521C761CCFE76E
:109A2000002E02D12E211170521C00211170F0BDA8
:109A300010B593B00C464B236A46FFF7BCFF411CA0
:109A400003D02018001D13B010BD0020FBE770B537
:109A500093B015460C4606464B236A46FFF7ABFF0C
:109A6000411C46D024182046FFF79AFF0A34030011
:109A700007F053F8103C09133C3C13291313133C13
:109A80003C13183C1F3C2078287060786870A078E0
:109A9000A870E078E870241D28E04B236A460BE0AC
:109AA000241823E02078641C20180178401C4418F6
:109AB0001CE04B236A46A41C21463046FFF77BFF7F
:109AC000411C16D0ECE74B236A4621463046FFF78F
:109AD00072FF411C0DD024184B236A4621463046A4
:109AE000FFF769FF411C04D024181434204613B03A
:109AF00070BD0020FBE7F7B50D460446122106F0C5
:109B0000BEF92846FFF74CFF2080A81CFFF748FF4E
:109B100002040121002A00DAA1704204120FE2704F
:109B2000420500D52171820500D56171C20500D5BD
:109B3000A171020600D5E1710007000F2072281DF7
:109B4000FFF72EFF6081A81DFFF72AFFA08128469E
:109B50000830FFF725FFE08128460A30FFF720FF95
:109B600029460C3100262082771E06E02846FFF7A2
:109B70005FFF010014D0761CB6B26089B042F5D800
:109B8000002607E02846029AFFF761FF010007D090
:109B9000761CB6B2A089B042F4D80020E18903E077
:109BA0003846FEBD401C80B28142FBD80020218A8D
:109BB00001E0401C80B28142FBD8207A002801D00D
:109BC0000020FEBD0120FEBDFFB55E4A0D46518856
:109BD00095B00346491C89B217985180FFF7E6FEFD
:109BE000D902FF31013189B2FFF7E0FE0121FFF711
:109BF000DDFE0021FFF7DAFE0021FFF7D7FE00218E
:109C0000FFF7D4FE04462946684606F037F86E464C
:109C1000304606F059F880B213902E21304605F0F8
:109C2000E1FF070002D0B81B85B200E0139D25704C
:109C3000641C002D12D02A463146204606F024F935
:109C40006419002F07D013987619401B401E80B26C
:109C5000761C1390E1E700202070641C012120464F
:109C6000FFF7A4FE0121FFF7A1FE179919B0401AD2
:109C700000B2F0BD3348816803290BD30022826013
:109C80000178022902D30270501E7047491C0170EE
:109C900000207047012070472A4A50702A485160BE
:109CA00050807047F7B5274C0D46002388B01A4600
:109CB00002216078FDF73CFFFF2601363346294636
:109CC00000206268FFF780FF3525009582B2089B6F
:109CD00060786168FEF78BF91C4F60788004C019CA
:109CE000406A05042D0C16D0B54200D9354607A8A8
:109CF000009006AB2A4660786168FEF726FA0A9A59
:109D000001A86168FFF7F7FE05466078FDF7E0FE01
:109D100028460BB0F0BDFFF7ADFF002801DA0020A8
:109D2000F7E70028D9D1352000902A46089B6078B3
:109D30006168FEF75CF9D0E702488168491C8160E0
:109D4000704700009400002022110000000201462C
:109D5000F0B587B002F01AFB04466D46A81DFFF768
:109D6000E8FD03A802300690FFF7EEFD02A80230DE
:109D70000746FFF7F4FD04A802300646FFF7FAFD98
:109D8000214606221731684602F01BFC20460422B9
:109D9000A91D1D3002F019FC20460422213006992D
:109DA00002F013FC204604223946253002F00DFC57
:109DB000204604223146653002F007FC6034E0782A
:109DC000002801D0022000E00120694688750020AB
:109DD000FEF796FE07B0F0BD704700007047704771
:109DE0007047704710B500F0D4FC10BD7047704745
:109DF00010B5104804F098FA10BD10B50E4804F0E4
:109E000093FA10BD704770477047704770477047AE
:109E10007047704710B504F0FEF910BD70477047E9
:109E2000704770477047704770477047704770477A
:109E30007047704700C0004000D0004010B5C0B26D
:109E4000FDF7C7FD10BD10B5FDF7D5FDFDF7C1FD50
:109E500010BD0020C043704710B5C0B2FDF7B9FD7A
:109E600010BDFEE73EB502F091FA6421095C0029BD
:109E700006D0AF490978012906D0AEA005F0D8FC7C
:109E8000B0A005F0D5FC3EBD014621314A7C097CDD
:109E900012020A43014620318B7B4C7B00940193D4
:109EA00002920B7BCA7A4931A7A005F0C1FCE7E713
:109EB000FEB502F06BFA04460025AC490420FFF71A
:109EC000EBFE20466030427969460A7082794A701A
:109ED000C27906468A70007AC870032000F0FCFE42
:109EE00020462B306934019021466846019AFFF7DD
:109EF000D9FE074601280BD06D1CEDB2022D07D804
:109F000003F056FEF0780028EED0FFF7D1FBEBE728
:109F1000012000F0E1FE3846FEBD10B502F036FA31
:109F20006030C078002806D091480078012803D01E
:109F300090A005F07DFC10BDFFF727FD014692A023
:109F400005F076FC10BD70B5002488490320FFF7AA
:109F500045FC9849964A0846FEF7C8FF032000F0E2
:109F6000BBFEFFF7A5FB0546042807D0002D01D155
:109F7000641CE4B2032C06D9FFF728FC012000F092
:109F8000ABFE68B270BD03F013FEEAE7F0B591B026
:109F900002F0FCF904463C2287496846FDF70AF9BD
:109FA000611D86A005F044FC26462036707A89495A
:109FB0008000095888A005F03BFC8DA005F038FC16
:109FC000204660300F90C07801282AD08EA190A042
:109FD00005F02EFC97A005F02BFC27462337787B55
:109FE0003A7B0102114398A005F022FC9D499EA0F6
:109FF00005F01EFC9B49A5A0491C05F019FCAC48C6
:10A00000FDF70CFD0146ABA005F012FCB2A005F077
:10A010000FFC25464035287E002804D022465832C1
:10A0200002E0B3A1D3E7B7A2002801D0B7A100E0B6
:10A03000B8A1BBA005F0FCFBBDA005F0F9FB0F9893
:10A040008078012811D0B3A1C2A2CAA005F0F0FB0C
:10A05000CBA005F0EDFBD3A005F0EAFB787C3A7CC1
:10A060000102114303D0D5A003E0A8A1ECE7A9A108
:10A0700056A005F0DDFBD5A005F0DAFB2046213027
:10A08000417D007D0902014301D0D6A001E0A1A1DC
:10A090004EA005F0CDFBD7A005F0CAFB0023DBA244
:10A0A000DAA1DCA005F0C4FB6879E1498000095819
:10A0B000E0A005F0BDFBA879694680000958E3A03F
:10A0C00005F0B6FBE879E449095CE4A005F0B0FBD3
:10A0D000287AE34980000958E2A005F0A9FB687AD4
:10A0E000E149095CE1A005F0A3FB6979E148002999
:10A0F0001CD00168E0A005F09BFB0223C3A2C3A112
:10A10000E2A005F095FBE8A3E9A2EBA1EEA005F023
:10A110008FFBF2A005F08CFBF9A005F089FB787DA0
:10A120003A7D0102114302D0AEA0F5E1EEE1F1E18A
:10A13000CE000020202320444E53204661696C65E8
:10A14000640D0A000D0A0000202320444E533A20DB
:10A150002573203D3E2025642E25642E25642E2562
:10A1600064203A2025640D0A000000003C03002012
:10A170001801002020232044484350204661696C88
:10A1800065640D0A0000000020232044484350204D
:10A190004950204C65617365642074696D65203A8F
:10A1A000202575207365636F6E64730D0A000000CF
:10A1B000D99D0000519D0000E40C0100202D204499
:10A1C0006576696365206E616D653A2025730D0AB9
:10A1D0000000000008010020202D204465766963FE
:10A1E00065206D6F64653A2025730D0A000000003C
:10A1F000202D204E6574776F726B207365747469BF
:10A200006E67733A200D0A0053746174696300002D
:10A21000092D204F627461696E696E672049502074
:10A2200073657474696E67733A205B25735D0D0AFC
:10A2300000000000092D205443502F554450207039
:10A240006F7274730D0A0000092020202B205332F6
:10A2500045206461746120706F72743A205B2564DC
:10A260005D0D0A0051C30000092020202B2054431B
:10A27000502F5544502073657474696E6720706F59
:10A2800072743A205B25645D0D0A000009202020CD
:10A290002B204669726D77617265207570646174F8
:10A2A0006520706F72743A205B25645D0D0A0000B2
:10A2B00044600046092D2054435020526574726159
:10A2C0006E736D697373696F6E2072657472793A1B
:10A2D000205B25645D0D0A00202D205365617263AB
:10A2E0006820494420636F64653A200D0A0000002D
:10A2F0004175746F6D61746963202D20444843502B
:10A30000000000004E6F6E6500000000456E616247
:10A310006C65640044697361626C656400000000F0
:10A32000092D2025733A205B25735D0D0A0000007E
:10A33000202D2045746865726E657420636F6E6EA3
:10A34000656374696F6E2070617373776F72643ABE
:10A35000200D0A00285443502073657276657220E0
:10A360002F206D69786564206D6F6465206F6E6C59
:10A3700079290000092D2025732025730D0A00007E
:10A38000202D20436F6E6E656374696F6E20746953
:10A390006D65722073657474696E67733A200D0A77
:10A3A00000000000092D20496E61637469766974AC
:10A3B000792074696D65723A200000005B25645D48
:10A3C0002028736563290D0A00000000092D205222
:10A3D00065636F6E6E65637420696E746572766115
:10A3E0006C3A20005B25645D20286D736563290D40
:10A3F0000A000000202D2053657269616C2073658E
:10A400007474696E67733A200D0A00005541525406
:10A4100000000000092D2044617461202573207024
:10A420006F72743A20205B257325645D0D0A00006D
:10A43000D8020020092020202B20554152542049C9
:10A44000463A205B25735D0D0A000000092020209C
:10A450002B2025642D000000B402002025642D006F
:10A46000B802002025732D00C40200202564202F8F
:10A4700020000000C8020020466C6F7720636F6EDA
:10A4800074726F6C3A2025730D0A0000092D204468
:10A490006562756720257320706F72743A205B25A2
:10A4A0007325645D0D0A00002866697865642900DB
:10A4B0004E4F4E45000000003131353230302D38DE
:10A4C0002D4E2D3100000000092020202B20257367
:10A4D000202F2025732025730D0A0000202D2053E6
:10A4E000657269616C2064617461207061636B697D
:10A4F0006E67206F7074696F6E733A0D0A0000000A
:10A50000092D2054696D653A20000000A97A890060
:10A510004158EFE5AE49AF4805F08AF9AEA005F025
:10A5200087F9717E002901D0AEA001E0A849A948B1
:10A5300005F07EF9AFA005F07BF9B07F01281CD0B3
:10A54000A349A44805F074F9ADA005F071F9803471
:10A55000E07E012814D09E49B3A005F069F9E37F9D
:10A56000A27F617FB2A005F063F9BAA005F060F99F
:10A57000E87A002807D0C1A206E0B17EC0A0E1E7DA
:10A5800093490839E8E7C3A2C5A1C7A005F050F96F
:10A59000287B002801D0CBA200E0CBA2CEA1D0A086
:10A5A00005F046F9D5A005F043F9DF4C207804F01A
:10A5B000F9FFDE4D80002F58207804F0E4FFDC4ED8
:10A5C000800032583B46DBA1DCA005F031F9607811
:10A5D00004F0E8FF80002F58607804F0D4FF80007A
:10A5E00032583B46DDA1DFA005F022F9A07804F047
:10A5F000D9FF80002F58A07804F0C5FF80003258A2
:10A600003B46E0A1E1A005F013F9E07804F0CAFFB1
:10A6100080002D58E07804F0B6FF800032582B46B9
:10A62000E2A1E4A005F004F9EAA1A4A005F000F974
:10A6300011B0F0BD38B501F0A9FE04466CA005F0DC
:10A64000F7F8E4A19DA005F0F3F8EFA1F1A005F063
:10A65000EFF8F2A005F0ECF8FAA00090A37D627D7F
:10A66000217DFAA005F0E4F8DAA194A005F0E0F865
:10A6700038BD01B5FE480099016001680029FCD190
:10A6800008BD1FB501F082FE044600F08AF8F9A16A
:10A6900003C901910090F7A103C903910290FDF74E
:10A6A000F6FFFCF7BFFDF54905F081FCF4490860B1
:10A6B00002A96846FEF791F800F06EFA01F020FF5B
:10A6C000254601262035AE7202F0E8F801F05EFE64
:10A6D0008030817E684601707D2109014180FEF74E
:10A6E000FCF803F064FF27464037787B002803D04E
:10A6F000FFF7A0FFFFF74AFC6034E078002803D0A2
:10A70000FFF721FC042841D002F0E8F8787B00280C
:10A7100003D001F0B7FFFFF700FC687A01280DD0E5
:10A72000207900280AD0FFF7C3FB002801D0D548C4
:10A730000670787B002801D0FFF794FBD2480025F3
:10A740000670D24E3078002803D0002001F027FC9C
:10A75000357004F07AFECE4E03F02AFA002001F0A4
:10A760005DFCE078002801D0FEF7A2FFC94801781F
:10A77000002900D0057030780028EDD0787B0028C3
:10A7800002D0C5A005F054F83570E5E7CA48067058
:10A79000BCE7B7480168002902D00168491E016082
:10A7A000704710B500F038FAC44A01209110FCF748
:10A7B0009DFD03F00DFD03F033FFFCF733FD7D211C
:10A7C000C90005F0F4FBBE49401E88427AE1000052
:10A7D00014A30000CCA10000092D2053697A653A2A
:10A7E000200000005B25645D202862797465732970
:10A7F0000D0A0000092D20436861723A2000000014
:10A80000202D2053657269616C20636F6D6D616EE0
:10A8100064206D6F64652073776974636820636F6B
:10A8200064653A0D0A000000092D2025730D0A0009
:10A83000092D205B252E32585D5B252E32585D5B3D
:10A84000252E32585D2028486578206F6E6C792956
:10A850000D0A0000202D2048617264776172652026
:10A86000696E666F726D6174696F6E3A20537461C0
:10A870007475732070696E730D0A000044545200A1
:10A880005B252E32585D2028686578206F6E6C79C4
:10A89000290D0A00504859206C696E6B00000000B9
:10A8A00050415F3130000000092D205374617475F0
:10A8B0007320313A205B25735D202D2025730D0A0E
:10A8C000000000004453520054435020636F6E6EEA
:10A8D000656374696F6E000050415F3031000000A5
:10A8E000092D2053746174757320323A205B2573EF
:10A8F0005D202D2025730D0A00000000202D20482A
:10A900006172647761726520696E666F726D6174E1
:10A91000696F6E3A205573657220492F4F20706918
:10A920006E730D0A000000001403002020030020B5
:10A930001803002050435F3133000000092D2055DB
:10A94000736572494F20413A205B25735D202D20AD
:10A950002573202F2025730D0A00000050435F311E
:10A9600032000000092D2055736572494F20423A8C
:10A97000205B25735D202D202573202F2025730D4E
:10A980000A00000050435F3039000000092D2055B7
:10A99000736572494F20433A205B25735D202D205B
:10A9A0002573202F2025730D0A00000050435F30CF
:10A9B00038000000092D2055736572494F20443A34
:10A9C000205B25735D202D202573202F2025730DFE
:10A9D0000A0000003D3D3D3D3D3D3D3D3D3D3D3D91
:10A9E0003D3D3D3D3D3D3D3D3D3D3D3D3D3D3D3D97
:10A9F0003D3D3D3D3D3D3D3D3D3D3D3D3D3D3D3D87
:10AA00003D3D3D3D3D3D000057495A37353053529D
:10AA100000000000202573200D0A0000203E3E208B
:10AA200057495A6E65742053657269616C20746F62
:10AA30002045746865726E65742044657669636547
:10AA40000D0A0000537461626C650000203E3E20D8
:10AA50004669726D776172652076657273696F6E93
:10AA60003A2025642E25642E25642025730D0A00C6
:10AA7000A4000020040202020202020010270000CB
:10AA800000200046CE000020BF000020A8000020CB
:10AA9000A4020020BE000020203E20554152542038
:10AAA00052782052696E672062756666657220462C
:10AAB000756C6C0D0A00000018010020006CDC02AF
:10AAC000FFFFFF000CD80849486108480722C36906
:10AAD0001B021B0A4C042343C361002088610A61E6
:10AAE0000A20FFF7C6FD10BD00E000E004ED00E025
:10AAF000FEB50446032818D2724E6500705B0090C4
:10AB00000120694608717048A700C059FCF7E5FCB0
:10AB10006D48715B001F025DC01E005DFCF7B8FD53
:10AB20006948715BC059FCF754FDFEBD70B5012347
:10AB300011249D03A406002229462046FCF7D0FDDF
:10AB4000656170BD10B50123212000225902400625
:10AB5000FCF7C6FD10BD70B5002421256D0602214D
:10AB60002846FCF722FD002801D0012070BD0520F9
:10AB7000FFF77FFD641CE4B2052CF0D3002070BD0C
:10AB800010B5212464060123002202212046FCF78F
:10AB9000A7FD0220606110BD70B5012003F0B0FB7D
:10ABA0004A49612008634A4B01225A6148619A610F
:10ABB0008861474880308261444902208031886141
:10ABC00040204521090648600861440243250102EE
:10ABD0002D0622462846FEF7BFF8224600212846C9
:10ABE000FEF752F8002003F08BFBFFF7C9FFFFF7D9
:10ABF000B2FF00280ED00020334908390870FFF753
:10AC0000A1FFFFF793FF0020FFF772FF0120FFF77E
:10AC10006FFF70BD0120EFE72E49022008632C4929
:10AC200040398860704710B5012121204902400653
:10AC3000FCF7BBFC10BD10B5112001230022402100
:10AC40008006FCF74DFD10BD10B511204021800697
:10AC5000FCF7ABFC10BD10B5012111208903800663
:10AC6000FCF7A3FC10BD10B5032807D2154A41001C
:10AC7000515A154A80001058FCF7B9FC10BD10B5A8
:10AC8000032807D20F4A4100515A0F4A800010583A
:10AC9000FCF79FFC10BD032808D20B49820089589D
:10ACA0004A68084B4000185A42404A60704710B545
:10ACB000044A4100515A044A80001058FCF77FFCB6
:10ACC00010BD0000200D0100B00000204030004108
:10ACD000402000414011004170B5054601F056FB8F
:10ACE0000446293401F052FB2B0005F016FF061034
:10ACF0000406090C0E10012003E0022060700EE033
:10AD00000320607006E00420FBE70520F9E7607887
:10AD1000022804D00021022004F0E8FC70BD0121CB
:10AD2000F9E700290FD00023FE4A00280CD00128A3
:10AD300013D002281AD0032805D1106B401C1ED056
:10AD4000D06B4018D0637047106B401C03D0106B61
:10AD500040181063704713637047106B401C03D09A
:10AD6000506B40185063704753637047106B401C22
:10AD700003D0906B40189063704793637047D36320
:10AD80007047F7B582B015460E46002403F0A9FAC5
:10AD9000002811D003F0AEFA009003F0A8FA019059
:10ADA00003F0A2FA074603F09CFA01463A46DEA0F9
:10ADB000019B04F03DFD0DE003F09CFA009003F0D0
:10ADC00096FA074603F090FA01463A46DCA0009B4B
:10ADD00004F02EFD022D02D0032D02D013E0DDA1E0
:10ADE00000E0DDA13246DDA004F022FD06E002987D
:10ADF000015DDDA004F01CFD641CA4B2B442F6D3D6
:10AE0000DBA004F015FD204605B0F0BDFEB50C46F4
:10AE1000074601F0BBFA002506464E36009501951F
:10AE200002950B2C00D30A2422463946684604F0CA
:10AE3000C9FF304604F048FFA04207D122466946C8
:10AE4000304604F0EDFE002800D101252846FEBD65
:10AE5000F1B584B001F09AFA2930039001F096FA26
:10AE60000546453501F092FA4E3002906879022885
:10AE700004D1002003F057FD0028C5D104988104B7
:10AE8000BC480818406A002687B20120C002A54CC1
:10AE9000874201D9074601E0002F3CD0B648081888
:10AEA000FCF7BCFD172829D01C2827D022282BD13D
:10AEB0009C483A462830034600901833AF4904981E
:10AEC000FDF743F99749E08440310422081D04F05E
:10AED000A7FE002818D09349086C4864287A0028F7
:10AEE00012D008464030228DC178019200918378BB
:10AEF00042780178A2A004F09BFC05E03A469F4905
:10AF00000498FDF70DF8E084E68226832673E18C31
:10AF10000220FFF706FF03984078012804D002289A
:10AF200009D16078002806D10298007D012802D15D
:10AF3000A07A002806D0E08C002811D0E8790128FA
:10AF400012D015E039468D48FFF760FF012808D080
:10AF5000A672E684A07A002802D10498FCF70EFFBE
:10AF600052E70120A072F4E704F016FC0028F7D0A5
:10AF70002878824F012808D06879012822D0287AC1
:10AF800003283DD004283BD03FE0287A032801D095
:10AF9000042804D10322E18C7848FFF7F2FE002058
:10AFA00003F071FC002505E0795D002003F0A4FBAF
:10AFB0006D1CADB2E08C8542F6D3002003F08BFC13
:10AFC000E18C18E0607B0128CAD1287A032801D0DF
:10AFD000042804D10322E18C6848FFF7D2FE002543
:10AFE00005E0795D002003F087FB6D1CADB2E08CBD
:10AFF0008542F6D314E00320FFF793FEE68403E7CF
:10B000000322E18C5D48FFF7BCFE002505E0795D79
:10B01000002003F071FB6D1CADB2E08C8542F6D3CD
:10B0200081B2E8E7F8B501F0B1F905465E48293587
:10B0300001885E4800880A185D480088101A04F0EC
:10B04000C0FF384C8EB2A08C01273018FF02B842E6
:10B0500013D3687C00280DD0012E0BD1002003F003
:10B0600092FBC1B25348A28C8154687C884201D1C2
:10B070001046F8BDA08C381A86B2E87BA97B000286
:10B08000084305D1287C002802D1687C002801D023
:10B0900000272AE00025474F08E0002003F073FB5B
:10B0A000A18C7854491C6D1CA184ADB2B542F4D377
:10B0B000A08CF8BD002003F066FB02463D49A08C41
:10B0C0000A54401C80B2A0846A7C002A04D009186B
:10B0D0002039C97F8A4204D0297C002903D08142CB
:10B0E00001D180B2F8BD7F1CBFB2B742E2D3E87B8A
:10B0F000A97B000208435FD0A58C002D5CD0207A8C
:10B10000002859D028480188284800880A1828486B
:10B110000088101A04F055FF002901D10020207288
:10B120002846F8BDC0000020205B2564642F253030
:10B1300032643A253032643A253032645D000000D2
:10B14000205B253032643A253032643A253032644F
:10B150005D00000053324500453253005B25735DAE
:10B160005B253034645D200025303258200000001B
:10B170000D0A000000020146300001463C0B002091
:10B18000203E2055445020506565722049502F5074
:10B190006F72743A2025642E25642E25642E256452
:10B1A000203A2025640D0A00AE020020AA020020E9
:10B1B000AC0200203C0300200020F8BDFEB507468D
:10B1C00001F0E4F80546293501F0E0F80646453679
:10B1D000FFF729FD002876D1FFF724FFF34C0190FB
:10B1E00000286ED001460020FFF79BFD307A022830
:10B1F00001D0042804D10222ED480199FFF7C1FDD6
:10B20000EC49B8044018FCF709FC14285FD0172853
:10B210003BD01C2839D0222853D1A878002808D147
:10B22000E878002805D12879002802D1687900281B
:10B2300006D0687A297A00020843AB1C009011E01E
:10B24000DA4840300178002908D14178002905D139
:10B250008178002902D1C07800280AD0D34B208DF4
:10B2600040330090D2493846019AFCF7C0FE07B23D
:10B2700005E0307A002802D0CF4804F0D9FA002F38
:10B280001FDDA08CC01BA0841BE0A07A012818D170
:10B29000C7493846019AFCF7B3FD00B2002802DD29
:10B2A000A18C081AA08401200199FFF73AFDE87DDE
:10B2B000012806D1207B002806D000202073002022
:10B2C00020830020E082FEBD01202071F7E70020EE
:10B2D000A084FEBDF0B589B0074601F057F801F033
:10B2E00055F80546293501F051F80646B148BC0429
:10B2F00045362018FCF792FB0023B04AB0490028DD
:10B3000020D022281CD1AF481288008809888218D2
:10B31000521A0146104604F054FEA44DA88C014375
:10B3200002D03846FFF74AFFA7482018406A0004B9
:10B33000000C02D1E88C002802D03846FFF788FDC7
:10B3400009B0F0BD00201080088098498884C88426
:10B35000A9780846E0380F2856D8012268460274BA
:10B36000002242745E228274E8784206520E6846D9
:10B37000C27402922A79027501926A7942759248E2
:10B380000092D9382018FCF74BFB8F48E978DA385F
:10B390002018FCF745FB8C482979DB382018FCF78E
:10B3A0003FFB89486979DC382018FCF739FB687A5B
:10B3B000297A000208437F49D03161180862824827
:10B3C0000121E5382018FCF72BFB7F480021E638E7
:10B3D0002018FCF725FB7C485E21E7382018FCF795
:10B3E0001FFB74480299E8302018FCF719FB7648D7
:10B3F0000199E3382018FCF713FB73480099E438EF
:10B400002018FCF70DFB8023E879A97902020A4392
:10B4100002213846FCF78CFBB84291D10520FFF79A
:10B420005BFCE87BA97B0002084301D05F4988836D
:10B43000307A002884D065A004F0FAF980E710B5CE
:10B440005A4CA08A002809D06749884204D2401C7F
:10B450000840A08202D00DE00020A08202F057FF39
:10B4600004F09AFBFBF78AFE604904F0AAFD6048ED
:10B470000818A08280B210BD4C480021C170C17173
:10B48000017141720172C1728172C18201840183B2
:10B490004184704770B5054600F078FF0446454981
:10B4A000A80429344018FCF7B9FA002807D02178FD
:10B4B000032909D0172804D01C2802D004E028460C
:10B4C00070BD2846FCF75AFC2846FCF701FBF6E75E
:10B4D00010B500220621FCF76EFF10BDF0B585B057
:10B4E00000F054FF0446293400F050FF054645356E
:10B4F00000F04CFF014600204E31064600900391BB
:10B500003C48FCF78BFA6946087002903948401EA7
:10B51000FCF784FA6946487001903648801EFCF7B3
:10B520007DFA6946887007463248C01EFCF776FAF5
:10B530006946C8700399897D012908D11B49897B17
:10B54000012904D0287A002815D02BA011E00299F7
:10B55000002906D10199002903D1002F01D100282B
:10B5600003D0A178002907D00FE0287A002802D064
:10B570002BA004F05DF994E0E278002A05D122794D
:10B58000002A02D16279002A6CD0029A8A426ED1D6
:10B59000E378019A9A426AD12279974267D1627917
:10B5A000904264D1287A00287BD059E0C000002066
:10B5B0003C03002030000146280E0100AA020020B2
:10B5C000AC020020AE02002000020146203E2053C3
:10B5D00045473A5544505F4D4F44453A534F434BCE
:10B5E0004F50454E0D0A0000FFFF000010270000DD
:10B5F000B888000013600046203E205345473A4378
:10B600004F4E4E454354494F4E204641494C4544C8
:10B61000202D20444E53204661696C65640D0A005C
:10B62000203E205345473A434F4E4E454354494FE1
:10B630004E204641494C4544202D20496E76616C90
:10B64000696420495020616464726573733A205ABA
:10B6500065726F2049500D0A0000000002E006E00C
:10B66000F1A086E7287A00281BD0FC4881E70298E1
:10B67000C02817D10198A82814D10398407D00282C
:10B6800010D1C0290ED1E278A82A0BD123799F428C
:10B6900008D0287A002804D060790090F04804F09F
:10B6A000C7F8012630465BE4F1B588B000F06EFEC5
:10B6B00000F06CFE0546293500F068FE0746453768
:10B6C00000F064FE4E3000240690029468468481A7
:10B6D00008988104E34804910818FCF79FF9E24AAE
:10B6E0000499012689180591172853D01FDC0028DA
:10B6F0007AD0132826D0142818D1DC4C6078002882
:10B7000014D1DB480188DB4800880A18DA48008831
:10B71000101A04F056FC002908D00898FFF7BAFE6A
:10B720006670687B297B00020843E08308E61828DE
:10B73000DED01C28FAD1CD4C0598406A0004000CDC
:10B740007CD1F8E0C94E70780128EFD1687B297B65
:10B7500000020843F18B8842E8D8F483FFF7BEFE6D
:10B7600001280DD0687A297A02020A43A91C089898
:10B77000FCF780FA707C401CC0B270740A28D5D3E4
:10B780000898FFF787FEBB4874740480BA480480A9
:10B790007470D5E5B349049810394018FCF73EF9A8
:10B7A000C0075CD00220FFF797FAB048C18A002991
:10B7B00005D1E97AAA7A0902114300D0C670AB48D4
:10B7C000008B002804D1E87D002801D0A74806712D
:10B7D0000698007D002808D0A4484178012904D0AB
:10B7E000827A114304D005E0ACE0A048867201E003
:10B7F00046724484387A002819D002AA0421089895
:10B80000FCF741FE03AA05210898FCF73CFE974887
:10B810004078002868468189C07A00900191684686
:10B82000837A427A017A0AD094A004F001F88F4812
:10B830004178002905D0012908D008E077E09AA0D6
:10B84000F3E78C490C808C490C8000E04470447410
:10B8500084490498083940180121FCF7E1F884482C
:10B860000188844800880A1883480088101A04F068
:10B87000A8FB7E4FB88C014302D00898FFF79EFCCE
:10B880000598406A0004000C02D1F88C002802D010
:10B890000898FFF7DDFAF87801280CD1E87AA97A40
:10B8A00000020843F98A884205D80898FFF7F2FD9C
:10B8B0003C713C837C70E87D012823D138790128D4
:10B8C00020D1387B002802D001280ED01AE0687EF3
:10B8D000297E00020843398B884213D8002811D0F2
:10B8E0000898FFF7F5FD3C833E73E87EA97E0002D1
:10B8F0000843398B884205D8002803D00898FFF701
:10B90000E7FD3C837878002800D019E50698007D93
:10B910000128FAD1B87A0028F7D1788C6D4988428D
:10B92000F3D30898FFF7B6FD7C727C8408E508988D
:10B93000FFF78EFA00E7E08C0028F8D10898FCF7B2
:10B940001DFAFDE40120FFF7C7F9484A50780028A6
:10B9500017D020461446D084FFF771FD02462023FD
:10B9600001210898FCF7E4F808998842CDD1E87BDA
:10B97000A97B0002084300D0A083A079002820D032
:10B9800025E0FFF779FD20469084D084E8791446BD
:10B99000A97902020A43212301210898FCF7C8F87B
:10B9A00008998842B1D1E87BA97B0002084300D006
:10B9B000A0830898FCF727F9387A0028A5D046A07C
:10B9C00009E0687B297B0002084300D0A671387A21
:10B9D00000289AD04AA003F02BFFB1E4F1B586B05D
:10B9E00000F0D4FC00F0D2FC0646293600F0CEFC74
:10B9F0004530009000F0CAFC4E30002504900295BE
:10BA0000684685810698840416482018FCF706F8D5
:10BA100015496718172803D003DC002802D143E139
:10BA20008CE081E001E10000203E205345473A438D
:10BA30004F4E4E454354494F4E204641494C454494
:10BA4000202D204475706C69636174652049502015
:10BA5000616464726573730D0A000000BC0E01001E
:10BA6000740E01003000014600020146C0000020B3
:10BA7000AE020020AA020020AC020020203E20538B
:10BA800045473A434F4E4E454354454420544F207A
:10BA90002D2025642E25642E25642E2564203A2031
:10BAA00025640D0A00000000203E205345473A431C
:10BAB0004F4E4E45435445442046524F4D202D2075
:10BAC00025642E25642E25642E2564203A202564C5
:10BAD0000D0A000088130000203E205345473A54C9
:10BAE00043505F4D495845445F4D4F44453A534597
:10BAF000525645525F534F434B4F50454E0D0A002F
:10BB0000203E205345473A5443505F4D49584544E1
:10BB10005F4D4F44453A434C49454E545F534F4364
:10BB20004B4F50454E0D0A0018287DD01C287CD163
:10BB3000FE4C786A0004000C78D1AEE0FC48201876
:10BB4000FBF76CFFC00738D00220FFF7C5F8F748B5
:10BB5000C18A002906D1F17AB27A0902114301D0D3
:10BB60000121C1700499097D00293CD00121417255
:10BB700045840098007A002815D002AA042106986E
:10BB8000FCF781FC03AA05210698FCF77CFC6846BB
:10BB90008189C07A009001916846837A427A017A5D
:10BBA000E44803F045FEE44801210580E3480580B0
:10BBB000DF4808302018FBF733FFE1480188DE48F2
:10BBC00000880A18DD480088101A04F0FAF9D74CEA
:10BBD000A08C014302D00698FFF7F0FA786A0004BF
:10BBE000000C06D102E001218172C2E7E08C00283E
:10BBF00002D00698FFF72CF9E07801280BD1F07AF3
:10BC0000B17A00020843E18A884204D80698FFF717
:10BC100041FC25712583F07D012828D12079012858
:10BC200025D1207B002802E03EE030E031E002D068
:10BC300001280FD01BE0707E317E00020843218B6B
:10BC4000884214D8002812D00698FFF741FC2583BB
:10BC500001202073F07EB17E00020843218B8842D0
:10BC600005D8002803D00698FFF732FC25830498F6
:10BC7000007D01280BD1A07A002808D1608CB14941
:10BC8000884204D30698FFF705FC6572658407B007
:10BC9000F0BD0698FFF7DCF84BE7E08C0028F8D100
:10BCA0000698FCF76BF8F2E70120FFF715F8FFF7AD
:10BCB000E3FB9E4C2023A584E584F079B179020250
:10BCC0000A4301210698FBF733FF06998842DED12B
:10BCD000F07BB17B0002084300D0A0830698FBF7FD
:10BCE00092FF0098007A0028D1D097A003F0A0FD21
:10BCF000CDE7F1B584B000F049FB00F047FB054605
:10BD0000293500F043FB4530009000F03FFB002454
:10BD1000684602948481049886048548103030185F
:10BD2000FBF77CFE91497718172824D019DC0028EE
:10BD30007DD0132814D1687B2A7B01027B481143F4
:10BD4000C28B91420CD8C483FFF7C8FB012807D0EF
:10BD5000687A297A02020A43A91C0498FBF78AFF31
:10BD6000A1E41828E4D01C28FAD1704C786A0004A9
:10BD7000000C7CD1A6E06E483018FBF74FFEC007E0
:10BD800045D00220FEF7A8FF6848C18A002906D1E5
:10BD9000E97AAA7A0902114301D00121C170018B0D
:10BDA000002904D1E97D002901D0012101715F48FA
:10BDB000012181728079012802D15C488471C48399
:10BDC0000098007A002816D002AA04210498FCF7F3
:10BDD0005AFB03AA05210498FCF755FB68468189A4
:10BDE000C07A009001916846837A427A017A51487C
:10BDF0002C3803F01DFD5048012104804F48048079
:10BE00004A48C4734A4808303018FBF709FE4C48CA
:10BE10000188494800880A1848480088101A04F028
:10BE2000D0F8424EB08C014304D0049800E050E0BA
:10BE3000FFF7C4F9786A0004000C02D1F08C0028E6
:10BE400002D00498FFF704F8F07801280BD1E87AC3
:10BE5000A97A00020843F18A884204D80498FFF7BF
:10BE600019FB34713483E87D012801D01BE425E0FF
:10BE700030790128FAD1307B00280FD00128F5D184
:10BE8000E87EA97E00020843318B8842EED8002864
:10BE9000ECD00498FFF71CFB348304E4687E297E11
:10BEA00000020843318B8842E0D80028DED0049895
:10BEB000FFF70EFB348301203073E1E70498FEF7AF
:10BEC000C7FF53E7E08C0028F8D10498FBF756FF32
:10BED00046E70120FEF700FFFFF7CEFA134EB484C9
:10BEE000F484FFF7ACFA0246212301210498FBF702
:10BEF0001FFE04998842EBD1E87BA97B000208432E
:10BF000000D0B083B079002806D1687B297B00027D
:10BF1000084301D00120B0710098007A0028D7D0E2
:10BF2000F07B0028D4D112A034E00000C000002033
:10BF300020000146A8BA0000AA020020AC0200209E
:10BF4000AE02002088130000203E205345473A549B
:10BF500043505F5345525645525F4D4F44453A5307
:10BF60004F434B4F50454E0D0A0000000002014662
:10BF7000203E205345473A5443505F434C49454E79
:10BF8000545F4D4F44453A534F434B4F50454E0D30
:10BF90000A00000003F04CFC0120F073E0E6F8B565
:10BFA000044600F0F3F90746293700F0EFF906469A
:10BFB000204645360024DD4D002807D0012028709A
:10BFC000FEF78AFE387802280DD00DE02C70042090
:10BFD000FEF782FE307A002811D0D5A003F028FCAD
:10BFE0000E22D8A108E06C70307A002807D0D9A0C2
:10BFF00003F01EFC0E22DCA1002002F0A7FBDE48AD
:10C00000AC840480DD480480EC702C71EC716C71A0
:10C01000EC822C832C846C832C72F8BDF1B500F07B
:10C02000B5F90646293600F0B1F90546453500F068
:10C03000ADF9BE4C0027217CA830002900D0277420
:10C040000078012832D0207801282FD1A07801284B
:10C0500009D10098FFF71EFA0020FFF7A0FFA77094
:10C060002078012822D13078002806D0012808D075
:10C0700002280AD003280FD10BE00098FFF739FE01
:10C080000AE00098FFF7AAFC06E00098FFF70CFB17
:10C0900002E00098FFF71EF9002002F052FC6879D8
:10C0A000012801D0022801D102F0D0FAF8BD10B564
:10C0B00000F06CF92930407810BDF8B50746B0485B
:10C0C000002400882546AC4E00900FE09748AD490B
:10C0D0002A30025D30880A54401C009903F067FF43
:10C0E000924831802A300555641CE4B2BC42EDD33D
:10C0F0008E4845718574F8BD70B5054600F046F967
:10C1000000F044F9894C4E302178012911D10146C3
:10C1100040310B46497B00290BD0A17C22462A32B4
:10C12000002908D0012912D0022910D0032922D1D8
:10C130001AE0002070BDD87BA8421CD1608BA18B77
:10C14000884218D315700120A074607113E0401864
:10C150004030C07BA8420BD1608BA38B984207D89C
:10C160005554491CA17406E0608BA28B904202D208
:10C170000846FFF7A2FF00206083A07C70BD70B569
:10C18000044600F003F90546293500F0FFF80246A1
:10C19000687845320021012806D0022807D00428FB
:10C1A00005D0052812D102E0287802280ED1507956
:10C1B000012101280AD15D48112C02D0132C02D094
:10C1C00004E0012100E0002141730021084670BD18
:10C1D00010B500F0DBF80446293400F0D7F85348D6
:10C1E000017801290BD1E17BA27B0902114306D022
:10C1F000C179002901D10121C1710021018410BD43
:10C2000000B500224949030004F087FC05090B0D25
:10C21000070408000A634A638A63CA6300BD0A63AD
:10C2200000BD4A6300BD8A6300BD024600203F494D
:10C23000002A07D0012A07D0022A07D0032A00D1FA
:10C24000C86B7047086B7047486B7047886B7047C6
:10C25000F8B500F09BF8354C0646A07929364A4FD0
:10C260000025002807D0E08BB84203D2E08B401CA9
:10C27000E08300E0E5832079002807D0208BB842D6
:10C2800003D2208B401C208300E02583608BA18B90
:10C29000884202D2608B401C60836079002812D0F3
:10C2A000608BA18B88420ED3A07C032819D0042870
:10C2B00001D9FFF702FFA5746571F07BB17B000225
:10C2C000084311D0A083E079002814D0F07BB17B23
:10C2D00000020843218C884209D9208C401C20840C
:10C2E00009E00120A070E6E7FF20F530EAE72584A9
:10C2F000E57101202072607A002805D0608CB84278
:10C3000003D2608C401C6084F8BD6584F8BD07488A
:10C31000C178002906D0C18A1B4A914202D2C18A43
:10C32000491CC1820121017470470000C000002037
:10C33000203E205345473A4154204D6F64650D0A15
:10C34000000000005345473A4154204D6F64650D8D
:10C350000A000000203E205345473A4757204D6FC2
:10C3600064650D0A000000005345473A4757204DC9
:10C370006F64650D0A000000AA020020AC020020D4
:10C38000AE02002035180020FFFF0000EB48704788
:10C39000F8B5EA4DF920287000206870A8700126D1
:10C3A000EE70044628710F21681D03F068FD092214
:10C3B000E3A1681D03F006FD2E7502276F750720A7
:10C3C000A875C0216977A822AA770B232846EB77A6
:10C3D0002030077041708270C3700671FF2545716F
:10C3E0008571C571047246728672C172027343739D
:10C3F0000321D64A8173C11C0A73130A4B73431C71
:10C400001A74150A5D740C74250A4D74D04D1D758F
:10C410002D0A5D750C75230A4B7544768476C476B7
:10C42000047744778477C47720300670C94B411C69
:10C430000B701B0A4B70C11C0A70120A4A704471BF
:10C440000C258571C671047244728472C4720473BF
:10C4500046730A21183003F012FDB8480A214E3005
:10C4600003F00DFDB548082760308470C470047176
:10C4700047718771C77107723221093003F0FFFCE1
:10C48000AE482B2180308776C67604774177817756
:10C49000C177AA4F0F20A037387000207870B81CE1
:10C4A0000670310A41703D71290A79710471210ABF
:10C4B00041713C72A849401E0172090A417201464D
:10C4C0000A31002003F06BFD50203874002078748E
:10C4D00038461330BE741E21044603F0D0FC1322EC
:10C4E0009EA1204603F06EFC3846313028210446D8
:10C4F00003F0C5FC20229EA1204603F063FCF8BD9A
:10C5000010B5FEF798FBF9238C4A0021012001F0B9
:10C51000DFFD8A4A002106231732084601F0D8FDC4
:10C52000864C607821780002084302D098498842FE
:10C5300007D1FFF72DFFF923804A0021012001F0E8
:10C5400022FE01202075022161750721A1757B4C17
:10C550004034A17A032903D0042901D0FEF774FBEB
:10C56000607110BDF0B5754E002540367D27BFB017
:10C570002C46FF00F923714A0021012001F003FE3F
:10C58000F9236A460021012001F0A2FDF922694643
:10C590006A4803F045FB002811D0641C707BE4B2AC
:10C5A000002803D021467BA003F042F93846FEF76D
:10C5B00060F8052C01D2012DDCD13FB0F0BD012582
:10C5C000F4E710B503F0FEFB10BD10B503F0FAFB65
:10C5D00010BD10B504460146584806221730FFF733
:10C5E000F4FF56480422A11D1D30FFF7EEFF53480B
:10C5F000214604220E312130FFF7E7FF4F48214644
:10C6000004220A312530FFF7E0FF4C48214604227E
:10C6100012316530FFF7D9FF4848A17D603001290C
:10C6200002D00121C17010BD0021FBE710B54349C4
:10C63000044606221731FFF7C4FF404904221D318A
:10C64000A01DFFF7BEFF3D492046042221310E30D8
:10C65000FFF7B7FF39492046042225310A30FFF79A
:10C66000B0FF36492046042265311230FFF7A9FF9A
:10C6700032486030C078002801D0022000E001205C
:10C68000A07510BD30B589B02C4D03A90120FCF771
:10C6900037FA6846427C017CC07B6B4607C368461C
:10C6A000837B427B017B45A003F0C2F82846233000
:10C6B000417B007B090201436846407D0090019167
:10C6C0006846037DC27C817C46A003F0B1F86846D1
:10C6D000407F00906846037FC27E817E4AA003F0BF
:10C6E000A7F86846407E00906846037EC27D817D43
:10C6F0004BA003F09DF808A84078009008A80378A4
:10C700006846C27F817F4CA003F092F82C4620340B
:10C71000607A01280FD06420415D601C0129417CB2
:10C720000AD0027C0802A17B104300910190637B38
:10C73000227BE17A8CE0AAE091E000003C1300202B
:10C7400057495A3735305352000000008813000013
:10C75000B80B0000581B000052C3000064657669E6
:10C7600063652E77697A77696B692E6E6574000050
:10C770002F77697A37353073722F66772F573735B1
:10C780003030785F5332455F4170702E62696E00C1
:10C79000FFFF0000203E20446576436F6E666967A8
:10C7A00020757064617465206661696C65642C2015
:10C7B00052657472793A2025640D0A002023204DB9
:10C7C00041433A20253032583A253032583A253004
:10C7D00032583A253032583A253032583A253032DC
:10C7E000580D0A002023204950203A2025642E2588
:10C7F000642E25642E2564202F20506F72743A20F9
:10C8000025640D0A000000002023204757203A200D
:10C8100025642E25642E25642E25640D0A00000053
:10C82000202320534E203A2025642E25642E256493
:10C830002E25640D0A000000202320444E533A2088
:10C8400025642E25642E25642E25640D0A00000023
:10C8500045A002F0EDFF607A032809D017E00A0234
:10C86000007C2946024369314AA002F0E1FF0EE054
:10C87000E07A002808D1207B002805D1607B0028C1
:10C8800002D1A07B002807D04CA002F0D1FF4AA023
:10C8900002F0CEFF09B030BD4DA0F6E710B5514C07
:10C8A0005148E17DFBF7BCF84F48217E401EFBF765
:10C8B000B7F84D48617E801EFBF7B2F84A48A17E6A
:10C8C000C01EFBF7ADF84848E17E001DFBF7A8F855
:10C8D0004548217FC01CFBF7A3F810BD10B5414CA3
:10C8E00086B02146062217316846FFF76AFE2146C8
:10C8F00001A804221D310230FFF763FE214603A880
:10C90000042221310230FFF75CFE214602A80422F6
:10C9100025310230FFF755FE214604A80422653177
:10C920000230FFF74EFE6034E078002801D002208C
:10C9300000E00120694688750020FCF7E1F806B0A8
:10C9400010BD284860300121C17070472548603013
:10C950000021C17070470146224810B506221730E9
:10C9600003F030FA10BD0000202320446573746981
:10C970006E6174696F6E2049503A2025642E2564DB
:10C980002E25642E2564202F20506F72743A2025A6
:10C99000640D0A0020232044657374696E61746914
:10C9A0006F6E20446F6D61696E3A202573202F20D1
:10C9B000506F72743A2025640D0A00002023232052
:10C9C00055445020313A31204D6F64650D0A000006
:10C9D0002023232055445020313A4E204D6F64656A
:10C9E0000D0A00003C1300200360004610B5FA4910
:10C9F000401E884201D9012010BDF8494861F8481D
:10CA00000722C3691B021B0A4C042343C361002095
:10CA100088610A6110BDF34A10B591100120FAF740
:10CA20002CFCFAF7FFFB7D21C90003F0C0FAFFF7E9
:10CA3000DDFF01F0F5FDEC48EC498068086010BDB1
:10CA4000EB4910B50A460020FAF717FCFAF7EAFBA3
:10CA50007D21C90003F0ABFAFFF7C8FF01F0E0FD4C
:10CA6000E2480168E04A91604117016010BDF8B5E5
:10CA70000027DD4E0D4604460F70283609E003F00E
:10CA800023F902462046316803F040F9002804D01B
:10CA9000361D30680028F2D12AE03068002827D0FF
:10CAA000D1482830301A8005060E2B2E07D02C2EA8
:10CAB00011D0A11C284603F0E1F83046F8BD207AD9
:10CAC0000D2815D1607A0A2812D10622A11C284609
:10CAD00003F078F9F1E7002002E02954401CC0B2CD
