:020000040000FA
:10700000883C0020ED710000017D0000F771000058
:107010000000000000000000000000000000000070
:107020000000000000000000000000000D7D0000D6
:107030000000000000000000157D00001D7D000024
:10704000257D00002D7D0000357D00003D7D000088
:10705000457D00004D7D0000557D00005D7D0000F8
:10706000657D00006D7D0000757D00007D7D000068
:10707000857D00008D7D0000957D00009D7D0000D8
:10708000A57D0000AD7D0000B57D0000BD7D000048
:10709000C57D0000CD7D0000D57D0000DD7D0000B8
:1070A000E57D0000ED7D000000F002F800F057F8EB
:1070B0000CA030C8083824182D18A246671EAB460D
:1070C00054465D46AC4201D100F049F87E460F3E81
:1070D0000FCCB6460126334200D0FB1AA246AB467F
:1070E0003343184798E10000B8E100000023002472
:1070F00000250026103A01D378C1FBD8520700D3EF
:1071000030C100D50B60704710B5642902D109F079
:10711000C1F810BD752902D109F0BCF810BD78295D
:1071200002D109F0EDF810BD632902D10AF046F84A
:1071300010BD732902D10AF049F810BD002010BD1E
:107140001FB509F0FDF909F0B1FF0400002000218E
:107150000AF0B2F9401C60601FBD10B510BD0AF006
:1071600035F91146FFF7ECFF04F013F80AF05CF96B
:1071700003B4FFF7F2FF03BC03F0DAFB30B40C49B1
:107180000C684A6823681068C0181060241D121D1E
:107190008C4207D28A4208D20C604A6030BC400060
:1071A000400870470C00DC3CF6E70A00DC3AF3E7E5
:1071B0002030002070B505460C46164602E00FCC84
:1071C0000FC5103E102EFAD2082E02D303CC03C5F1
:1071D000083E042E07D301CC01C5361F03E02178F9
:1071E0002970641C6D1C761EF9D270BD074880475B
:1071F00007480047FEE7FEE7FEE7FEE7FEE7FEE79B
:1072000004480549054A064B7047000037720000E4
:10721000A970000088300020883C002088340020BD
:107220008834002036480068704735484068704709
:107230003448006A704710B53348816B334A116196
:10724000C16B304841600021016241698907CA0F62
:10725000012191404269D207D20F9140CAB24169DF
:1072600040698904890E51438002294A800E5043A7
:1072700009F05BFB2249086010BDF8B5254F0126D7
:10728000204D01280FD000202862214C10462146B5
:1072900009F04BFBC0B2012808D8EE616F610121F3
:1072A0000A46134619E02E620C46EFE70021E96119
:1072B000FF2101318006800A084368616869800700
:1072C000C00F86406869C007C00F86406869F2B287
:1072D0008004810E68698002830E2046084C514369
:1072E0006060584309F021FB2060F8BD30B4064BC4
:1072F0009C6B064D2C61DB6B024C636030BCBCE7C1
:10730000000000200010004180FD03000012004139
:1073100000127A000001020041210906002801D074
:10732000032000E001200860704741210906486001
:1073300070470120412109068860704741200006FE
:10734000C06880B270474120000600690006000E48
:1073500000D0012070470020DEE70000204A204BCB
:1073600001218032984201D1116070471C4B2033BB
:10737000984201D1116270471A4A1A4B80329842E2
:10738000F2D0184B20339842F4D0704782688023A3
:107390009A4382600A68026082684B689B011343CB
:1073A0008A6892001A43CB6809695B00134319434A
:1073B000EF2211408160704720220129816802D0AC
:1073C0009143816070471143FBE70121C160704721
:1073D0004069C0B270478168802211438160704764
:1073E0000010004000200040F0B5212200231026AC
:1073F0005206904201D16A4A08E0432212069042A6
:1074000002D1674A403201E0654A803201242546B4
:107410000F689D402F40AF4243D10F79012F0DD00F
:1074200045614D79AD070DD59C001559AD08AD00EE
:107430001551155902273D4315510BE007692F439C
:107440000761EEE79D005759BF08BF0057515759D4
:10745000274357514C79640704D59C0015590427DC
:107460003D4303E09C0015590427BD4315514C7959
:10747000A40604D59C00155920273D4303E09C0039
:1074800015592027BD4315514C79640604D59C003D
:10749000155940273D4303E09C0015594027BD4343
:1074A00015515B1CB342B1D3F0BD3E4901600021D0
:1074B00001716221417170470246126800200A4240
:1074C00000D0012070470246526800200A4200D0D6
:1074D000012070470A06920D012312189B02D21850
:1074E00011600A0A920010185A0080180160704753
:1074F00010B50B069B0D0124CA431B18A4021B19CF
:107500001A60090A8900081861004018026010BD5D
:10751000F0B50126244D002334469C400C420ED089
:10752000002810D0012811D01F4C9F0080343C1936
:107530002768BF08BF0027602768174327605B1CC8
:10754000102BE9DBF0BD9C006419F1E79C00641985
:10755000276CBF08BF002764276C17432764EEE73A
:107560007CB504461E460D466846FFF79EFF6846FA
:107570000095027169462046FFF736FF212040063C
:10758000844201D1002006E043200006844201D15C
:10759000012000E0022032462946FFF7B9FF7CBDFA
:1075A00000300041FFFF000000200041F8B5044614
:1075B000006B0E46400840002063FFF739FE504F35
:1075C0000125002846D03D61FFF72CFE7A69294647
:1075D000914009F0AAF907463068000109F040FD22
:1075E0000090384609F03CFD009909F045FC07463B
:1075F00009F0F2FC009009F033FD394609F0B8FFBC
:10760000062109F031FD09F00DFC00223D4B09F087
:10761000B5FB09F0E3FB014600986062A162E06AF5
:10762000EE218843B188F288114332890243E06A2F
:1076300011430843E062206B3349B28908407189E5
:1076400011430143206B08432063206B28432063D0
:107650000020F8BD022038617869294681402B4816
:10766000B7E7006880B270470246526800200A42BD
:1076700000D001207047002A826B01D00A4300E04D
:107680008A43826370470246126C00200A4200D08F
:1076900001207047426C0A434264704710B50446AB
:1076A0001B48016B02290AD0006B032807D0FFF7A3
:1076B000B9FD214609F039F91649086110BDFFF7F7
:1076C000B4FDF6E710B5FFF7E9FF12498868032219
:1076D0008008800010438860002010BD0D494A6872
:1076E000D207FCD108607047016082691207FCD4A0
:1076F0000846704700B50346FFF7F0FF184600BD87
:10770000401100410000E03FFE3CFFFF00127A0004
:1077100000100041006000401949184808608007C7
:107720008168490849008160704700B50246FFF74B
:10773000F3FF0120800711680160516849008160F2
:107740000F490120086000BD0D480C490160890700
:107750008B68012213438B60026070470848074919
:10776000016001218A07D160016070470449034A22
:107770000A609207106001200860704751E5CC1A3A
:10778000000C0040007870470170704730B500244D
:1077900005E00D19ADB2455D1555641CA4B29C42BF
:1077A000F7D330BD70B5002405E00E19155DB6B2F3
:1077B0008555641CA4B29C42F7D370BD70B514000B
:1077C0000FD01A4A83049E18F268400795B2184AEF
:1077D000C00A10430A4623462946FFF7E3FF28194B
:1077E000F06070BD70B514000FD0104A83049E186D
:1077F000B26A400795B20F4AC00A10430A462346B0
:107800002946FFF7C3FF2819B06270BD10B50029E3
:107810000BD0064A83049B189A6A4007054CC00A9D
:107820005118204389B20818986210BD0002014621
:1078300000000246000003467047704770477047DB
:107840000078704701707047F0B593B0F748FFF7C4
:1078500099FF1190F548401EFFF794FFF34C1090EC
:10786000A41E2046FFF78EFF651E0F902846FFF7E7
:1078700089FF0E90A01DFFF785FF0D90601DFFF79B
:1078800081FF0C90E9480830FFF77CFF0B90E74838
:10789000C01DFFF777FFE54E0A90B61D3046FFF793
:1078A00071FF0990E01DFFF76DFF0890B01DFFF715
:1078B00069FF0790701DFFF765FF0690301DFFF709
:1078C00061FF0590F01CFFF75DFF0490D748103072
:1078D000FFF758FFD54F03900F373846FFF752FF99
:1078E0000290781EFFF74EFF0190F01DFFF74AFF50
:1078F00000908021CE48FFF747FFCD48FFF742FFB9
:10790000A01C1199FFF740FF601C1099FFF73CFF86
:1079100020460F99FFF738FF28460E99FFF734FFEE
:10792000A01D0D99FFF730FF601D0C99FFF72CFF8C
:10793000B01C0B99FFF728FF701C0A99FFF724FF72
:1079400030460999FFF720FFE01D0899FFF71CFF5B
:10795000B01D0799FFF718FF701D0699FFF714FF78
:10796000301D0599FFF710FFF01C0499FFF70CFF7D
:10797000781C0399FFF708FF38460299FFF704FFC8
:10798000781E0199FFF700FFF01D0099FFF7FCFE3C
:1079900013B0F0BDF8B50D4606460024FFF754FFBE
:1079A000002E14D00022B05C521C001952B244B216
:1079B000082AF8DB102C17DC9E4F0024A004315D50
:1079C000C019FFF7E1FE641C64B2082CF6DB002D41
:1079D00019D0002108462A5C401C511840B249B217
:1079E0000828F8DB102902DD0020C043F8BD914EC5
:1079F00000242036A004295D8019FFF7C5FE641C11
:107A000064B2082CF6DB0020F8BD10B504468748A8
:107A10004130FFF7B7FE207084483D300068608039
:107A200010BD10B501780446002903D07F484130CD
:107A3000FFF7AAFE7D4960883D31086010BD10B592
:107A40007B48FFF79FFE10BD70B50446C720044277
:107A500002D00020C04370BD754D2846FFF792FE4E
:107A6000204301462846FFF78FFE002070BD10B569
:107A700004466E48FFF786FE20706C48401EFFF7F4
:107A800081FE60706948801EFFF77CFEA070674829
:107A9000C01EFFF777FEE0706448001DFFF772FE1E
:107AA00020716248C01CFFF76DFE60715F480830AE
:107AB000FFF768FEA0735D48C01DFFF763FEE0732B
:107AC0005A48801DFFF75EFE20745848401DFFF79E
:107AD00059FE607455480C30FFF754FEA0725348AD
:107AE0000B30FFF74FFEE07250480A30FFF74AFEB6
:107AF00020734E480930FFF745FE60734B48103045
:107B0000FFF740FEA07149480F30FFF73BFEE071E0
:107B100046480E30FFF736FE207244480D30FFF71E
:107B200031FE607244480178A1744178E174817833
:107B30002175C07860754048401E0078A07510BD62
:107B400010B5044601783948FFF71EFE37486178C2
:107B5000401EFFF719FE3548A178801EFFF714FE7E
:107B60003248E178C01EFFF70FFE30482179001D32
:107B7000FFF70AFE2D486179C01CFFF705FE2B4870
:107B8000A17B0830FFF700FE2848E17BC01DFFF70E
:107B9000FBFD2648217C801DFFF7F6FD2348617C14
:107BA000401DFFF7F1FD2148A17A0C30FFF7ECFDF5
:107BB0001E48E17A0B30FFF7E7FD1C48217B0A30B5
:107BC000FFF7E2FD1948617B0930FFF7DDFD17483B
:107BD000A1791030FFF7D8FD1448E1790F30FFF795
:107BE000D3FD1248217A0E30FFF7CEFD0F48617A9F
:107BF0000D30FFF7C9FD1048A17C0170E17C417098
:107C0000217D8170617DC1700B49A07D491E087086
:107C100010BD10B50C46030009F039FC0604101421
:107C2000181C20250846FFF78BFF1AE0036000466A
:107C30000023004600020146190000200846FFF715
:107C400016FF0EE00878FFF7FFFE10BDFFF7F7FE06
:107C5000207006E00846FFF7E4FE02E00846FFF762
:107C6000D4FE002010BD0020C04310BDF0B587B089
:107C700005F062F904466D46A81D01F089FC03A8D1
:107C80000230069001F08FFC02A80230074601F096
:107C900095FC04A80230064601F09BFC2146062212
:107CA0001731684605F063FA20460422A91D1D30ED
:107CB00005F061FA204604222130069905F05BFAAE
:107CC000204604223946253005F055FA2046042284
:107CD0003146653005F04FFA6034E078002801D075
:107CE000022000E00120694688750020FFF791FF1F
:107CF00007B0F0BD7047704770477047704700008D
:107D000010B502F0DDFD10BDFF00000010B502F05F
:107D1000D8FD10BD10B502F0D5FD10BD10B502F0B4
:107D2000D2FD10BD10B502F0D2FD10BD10B502F0AD
:107D3000CFFD10BD10B502F0CCFD10BD10B502F0A6
:107D4000CDFD10BD10B502F0CEFD10BD10B502F096
:107D5000CBFD10BD10B502F0C8FD10BD10B502F08E
:107D6000C5FD10BD10B502F0C2FD10BD10B502F08A
:107D7000BFFD10BD10B502F0BCFD10BD10B502F086
:107D8000B9FD10BD10B502F0B6FD10BD10B502F082
:107D9000B6FD10BD10B502F0B3FD10BD10B502F078
:107DA000B0FD10BD10B502F0ADFD10BD10B502F074
:107DB000AAFD10BD10B502F0A7FD10BD10B502F070
:107DC000A4FD10BD10B502F0A1FD10BD10B502F06C
:107DD0009EFD10BD10B502F09BFD10BD10B502F068
:107DE00098FD10BD10B502F095FD10BD10B502F064
:107DF00092FD10BD70B50446082802D90020C0438A
:107E000070BDFA48A604301805461021FFF7BCFCE7
:107E10002846FFF7B7FC0028FAD1F4481F21183094
:107E20003018FFF7B1FCF24801218288A1408A4353
:107E30008280F04A002061005052ED49891D0855AA
:107E4000EA48203034182046FFF79CFC0028FAD17D
:107E5000012070BDF8B51C4616460F460546082899
:107E600002D90020C043F8BD012F06D0022F04D054
:107E7000042F02D00420C043F8BD6007810FDE4804
:107E8000FAD1002C0CD0012F02D0022F08D103E030
:107E900021210C42F0D003E0A10601D52106EBD54B
:107EA0002846FFF7A7FF21090901D0483943AF044D
:107EB00010383818FFF768FC002E0AD1CC48CF4A9A
:107EC0000688711C89B20180914202D10321890385
:107ED0000180C648F03038184661C448012138187E
:107EE0000646FFF751FC3046FFF74CFC0028FAD15C
:107EF000BF48E107C90F4288A940114341800121D1
:107F00008288A9408A438280BA4A00206900505280
:107F1000B749891D4855B54820303C182046FFF721
:107F200031FC0028FAD068B2F8BD70B506460828C2
:107F300002D90020C04370BDAC48B40410382018EA
:107F4000FFF720FC0007000F012802D00420C043E7
:107F500070BDA648203020180546FFF713FC1328F3
:107F600002D00220C04370BDA04802212018044660
:107F7000FFF70AFC2046FFF705FC0028FAD1284647
:107F8000FFF700FC142805D03046FFF733FF03202D
:107F9000C04370BD012070BDF7B50D4607460828E7
:107FA00002D90020C043FEBD9048BC041038201800
:107FB000FFF7E8FB0007000F012802D00420C043B0
:107FC000FEBD8A48203020180646FFF7DBFB132849
:107FD00002D00220C043FEBD29786A7808028018CA
:107FE000AA7800028018EA7800028018421C32D079
:107FF000002830D00298002830D081482018FFF7A0
:10800000C3FB7F486978401E2018FFF7BDFB7C4802
:10801000A978801E2018FFF7B7FB7948E978C01EC1
:108020002018FFF7B1FB76490298273961180862DA
:108030006E48042120180546FFF7A6FB2846FFF7E7
:10804000A1FB0028FAD16A4901204988B8400842BA
:108050001CD00020FEBD0B20C043FEBD0A20C04343
:10806000FEBD2846FFF78EFB000708D55F480821B4
:1080700018302018FFF788FB0C20C043FEBD3046A7
:10808000FFF780FB002804D1001FFEBD57481030C9
:1080900025183046FFF776FB1728E2D10120FEBDF8
:1080A00070B50646082802D90020C04370BD4F486D
:1080B000B50410382818FFF765FB0007000F0128EA
:1080C00002D00420C04370BD484808212818044647
:1080D000FFF75AFB2046FFF755FB0028FAD1444929
:1080E00001208A88B04082438A80498808420CD0A7
:1080F000002070BD2046FFF745FB00070BD530463A
:10810000FFF778FE0C20C04370BD384810302C18A3
:10811000364820302D182846FFF734FB0028E9D1D7
:10812000012070BDF7B582B002981446082803D923
:108130000020C04305B0F0BD86042C48103830182C
:10814000FFF720FB0007000F012802D00420C043E6
:10815000F0E7002C0CD02548203030180190FFF7B4
:1081600011FB172807D01C2805D00620C043E1E7E3
:108170000D20C043DEE7029801251D4F8540B888D9
:10818000054211D0194810303018FFF7FBFAC0062D
:10819000C00EC10621D51548102118303018FFF740
:1081A000F3FAB888A843B8801548D9303018009041
:1081B000FFF7E8FA8006000C844200D904460098D4
:1081C000406887B20198FFF7DDFA17281AD01C28FB
:1081D00018D00298FFF70EFEC7E7000718D50298DF
:1081E000FFF708FE0C20C043A4E700001000014682
:1081F0000800002068030020FAFFFFFFF0FF0000E6
:1082000027010146FE484088054203D0BC4201D9FF
:1082100000208FE7BC42D2D8224603990298FFF78C
:10822000CDFAF848202130180646FFF7ADFA30465F
:10823000FFF7A8FA0028FAD1F14881880D4385801C
:10824000204677E7F7B582B002981446082802D98D
:108250000020C0436EE78704EA4810383818FFF75B
:1082600091FA0007000F012802D00420C04361E703
:10827000002C19D0E4483818FFF784FA8006000C67
:10828000A04200D20446DF48203038180090DE4873
:1082900020383E18706A85B20098FFF773FA1728E5
:1082A00015D01C2803D00CE00D20C04342E7002D60
:1082B0001AD13046FFF766FA7168800289B28842A7
:1082C00005D10298FFF796FD0620C04332E70299D8
:1082D00001208840CA494988084203D0002D03D1B3
:1082E000002027E7002DD5D0A54200D22C462246FB
:1082F00003990298FFF776FAC248402138180546DC
:10830000FFF742FA2846FFF73DFA0028FAD1204647
:1083100010E7FFB583B003981E461546082803D919
:108320000020C04307B0F0BD8404B64810382018C0
:10833000FFF728FA0007000F022804D0042802D013
:108340000420C043EEE7002D1DD030787178000284
:108350004018B17800024018F1780002C84202D1FA
:108360000B20C043DEE70C9800280FD0A548203032
:1083700020180746FFF706FA42280AD0222808D01C
:108380000620C043CEE70D20C043CBE70A20C04300
:10839000C8E79D483178F9382018FFF7F5F99A4871
:1083A0007178FA382018FFF7EFF99748B178FB3861
:1083B0002018FFF7E9F99448F178FC382018FFF706
:1083C000E3F990490C98F031611808628E48203822
:1083D00020180190FFF7D6F98006000C854200D9DD
:1083E000054603990120884000900198406886B2B4
:1083F0003846FFF7C7F9002808D081490098498816
:10840000084206D0B54204D900208BE70320C043C0
:1084100088E7B542E9D82A4604990398FFF7CEF9D0
:108420007848202120180746FFF7AEF97548183024
:1084300026183846FFF7A6F90028FAD171481030FF
:1084400024182046FFF79EF9C006C00EC10605D5C8
:1084500030461021FFF798F9284663E70007F0D56A
:1084600030460821FFF790F90C20C0435AE7FFB5CA
:10847000002485B00646082802D9601E09B0F0BD68
:108480006048B50410382818FFF77CF904900007FD
:10849000000F022804D0042802D00420C043EDE7D6
:1084A0000798002805D059487700C05B002803D002
:1084B00022E00D20C043E1E75348203828180390FC
:1084C0005048203028180125B54002900398406A92
:1084D00084B20298FFF756F9002806D04848408831
:1084E000054207D0002C03D006E00320C043C5E7B7
:1084F0000020C3E7002CE9D041480021801D8155B0
:108500000498B20441073F48490F151802291FD0AB
:10851000042957D021463046FFF778F93B48C45329
:1085200028464021FFF730F92846FFF72BF90028AD
:10853000FAD13648C15B091B0904090CC15305D0A7
:108540002F480122801D815D11438155204695E70A
:108550002E4CE05B002865D1082269463046FFF7C3
:1085600041F928464021FFF70FF92846FFF70AF99D
:108570000028FAD168460178089801706846417869
:108580000898417068468178089881706846C1787B
:108590000898C17068460E99007908800102684603
:1085A000407908180E99088068468079010268466B
:1085B000C0790818E05332E0224630460699FFF7AA
:1085C00011F9ADE7114CE05B00282BD1022269467E
:1085D0003046FFF707F928464021FFF7D5F828462F
:1085E000FFF7D0F80028FAD1684600780102684603
:1085F0004078081880B20649E05388420FD909E054
:1086000008000020100001462002014668030020F7
:10861000EA0500003046FFF7EDFB72482EE772498D
:1086200080208855E45B07988442C5D90446C3E797
:10863000F8B51546082802D90020C043F8BD8404C7
:108640006A4B6A4A6A4880330427E618A218201841
:10865000FF430B0008F01BFF084F050910421316DB
:10866000444F62482978083002E060482978001DAC
:108670002018FFF789F831E0288810612EE028885B
:1086800010622BE0FFF77EF80007000F01282DD1C4
:108690003046FFF777F8002802D00120C043F8BD2C
:1086A00053482221103020180546FFF76DF8504836
:1086B000203026180DE03046FFF764F8000708D593
:1086C0004B48082128302018FFF75EF80C20C043E3
:1086D000F8BD2846FFF756F80028ECD10120F8BD78
:1086E000FFF750F80007000F012801D03846F8BD09
:1086F00029783046BDE70920C043F8BDF8B51446D7
:108700000646082802D90020C043F8BDB504394BFD
:108710003748364AEF182818AA180B0008F0B7FE99
:108720000D080D121517305E323E404248525E0071
:10873000FFF728F80009000102E02C48083033E078
:1087400020703DE02948001D2EE01069F8E7274819
:1087500027302818FFF716F82070244826302818EC
:10876000FFF710F86070214825302818FFF70AF845
:10877000A0701E4824302818FFF704F8E0701FE0AE
:10878000106A1CE0FEF7FEFF0007000F01281FD152
:10879000164880302818FEF7F5FF10E078680EE0E4
:1087A000786A0CE0124830302818FEF7EBFFC7E774
:1087B000FEF7E8FF0128F3D00F497000085A208027
:1087C0000120F8BDFEF7DEFF0007000F012802D0F0
:1087D0000420C043F8BD0448805DB1E70120C043D8
:1087E000F8BD000017FCFFFF0E000020000101464D
:1087F00000000146000201466803002070B5744C79
:1088000005462088286161882846FEF763FE01201E
:1088100002F0B7FC61882846FEF76AFE012002F0EC
:10882000B0FC70BDF8B507460020694D044646000F
:1088300069883846FEF74EFE012002F0A2FC6988E6
:108840003846FEF755FE012002F09BFC2988384689
:10885000FEF732FE3043641C102CE8D3F8BD70B52F
:108860005B4C054620886861012002F08AFC618823
:108870002846FEF72FFE012002F083FC618828467F
:10888000FEF736FE012002F07CFC70BDF8B507460D
:1088900016462020801B81400C464D4D18E029884B
:1088A000002C384602DAFEF715FE01E0FEF720FE46
:1088B000012002F066FC69883846FEF70BFE0120B5
:1088C00002F05FFC69883846FEF712FE6400761EEF
:1088D000002EE4D1F8BD70B50C46164600210546C1
:1088E0002022C943FFF7D2FF042205212846FFF7C3
:1088F000CDFF3748052241682846FFF7C7FF05220C
:1089000021462846FFF7C2FF022211462846FFF7FC
:10891000BDFF102231462846FFF7B8FF2846FFF773
:108920006DFF70BDF8B5002543273F0600240021E8
:108930002022C9433846FFF7A9FF04220621384602
:10894000FFF7A4FF052221463846FFF79FFF0522C7
:1089500001213846FFF79AFF3846FFF780FF384677
:10896000FFF760FF06463846FFF748FF002E02D0AB
:108970001848864209D1641C082CD8DD6D1CEDB264
:1089800015A007F013FC022DD0D32046F8BD7CB50E
:10899000054614460E466846FEF787FD30462043DE
:1089A00000900120694608712846FEF71DFD01224E
:1089B00021461046FEF7ACFD012231461046FEF777
:1089C000A7FD034D6E802C80FFF7ACFF68607CBD77
:1089D00040000020FFFF00000D0A706879206964E4
:1089E00020646574656374206572726F7221210D55
:1089F0000A00000010B5FE4CFE482178FEF7C4FEC8
:108A0000FC486178401EFEF7BFFEFA48A178801E40
:108A1000FEF7BAFEF748E178C01EFEF7B5FEF5484E
:108A200008342178001FFEF7AFFEF2486178401F3E
:108A3000FEF7AAFEEF48A178801FFEF7A5FEED48DD
:108A4000E178C01FFEF7A0FEEA48241F217808380D
:108A5000FEF79AFEE74861780938FEF795FEE5488B
:108A6000A1780A38FEF790FEE248E1780B38FEF76D
:108A70008BFE10BD10B5E04C80212046FEF784FE31
:108A80002046FEF77FFEFFF7B5FFD94CD9483934B1
:108A900021781038FEF778FED64861781138FEF755
:108AA00073FED448A1781238FEF76EFED148E17803
:108AB0001338FEF769FECF4821790C38FEF764FEC3
:108AC000CC4861790D38FEF75FFE10BD10B5CA4C79
:108AD00080212046FEF758FE2046FEF753FEC44C88
:108AE000C448393421781038FEF74EFEC148617809
:108AF0001138FEF749FEBF48A1781238FEF744FE50
:108B0000BC48E1781338FEF73FFEBA4821790C38AB
:108B1000FEF73AFEB74861790D38FEF735FE10BD15
:108B2000B34B10B5DB1FB54C5C62B54C9C62B54CC9
:108B3000DC62002800D05862002900D09962002A27
:108B400000D0DA6210BD30B5A94B0120DB1FD96B14
:108B500008704870062088700020C8709A6B120E4A
:108B60000A719A6B120C4A711A8F120A8A711A8F43
:108B7000CA71D96B802208818A72C872D96B1A4671
:108B8000087348738873C873087448748874C87409
:108B9000087548758875C875087648768876C876E9
:108BA000403214780C7754784C7794788C77D4785A
:108BB000CC770C46157920342570527962700622E4
:108BC0008C18521CD2B22077102AF9D3DA6B00210C
:108BD00054182034491CC9B220734029F8D3DA6BE9
:108BE000002154186034491CC9B220738029F8D37D
:108BF000D86B6321E0300173822242735322827367
:108C0000C17330BDFEB5FFF79EFF794900202931C1
:108C1000087048708870C870091D087048708870A6
:108C2000C8703439CB6B3522F021CA540127F121A9
:108C3000CF54F221CF543D22F321CA540722F4210C
:108C4000CA54F5216A4ACF5439321478F621CC54EB
:108C500011464C78F721CC541446A578F824E554F5
:108C60001446E578F924E55414462579FA24E554A8
:108C700014466579FB24E5540C21FC24E154FD21C4
:108C8000C8541221941D06E05E18E036491C401CB1
:108C9000357389B280B2255C002DF5D1544CD5785E
:108CA000E41FE36B5E18E0363573491C89B25E1829
:108CB0001579E0363573491C89B25D185279E03573
:108CC0002A73491C89B2C21C081AC018E03002720B
:108CD000E06B37224318E0331A73491C89B24318FA
:108CE0000622E033491C1A7389B24318E033491C49
:108CF0001F7389B243180325E033491C1D7389B2E1
:108D00004318E0331A73491C89B243180F22E03329
:108D10001A73491C89B242183A23E0321373491C72
:108D200089B242183B23E0321373491C89B2FF22F7
:108D30004318E0331A73491C0025FF2389B23933E5
:108D400004E04618E036491C357389B29942F8D3DD
:108D50006846027142718271C2714320009089227B
:108D600001AB9200A078E16BFFF7D3FAFEBDFEB530
:108D7000FFF7E9FE1E4C0020E41FE11D20560B46C4
:108D80002933FF27032849D0042847D068460771B4
:108D900047718771C771E26B3520F025A854012017
:108DA000F125A8540320F225A8543D20F325A8540A
:108DB0000720F425A8540120F525A8540C48F625D1
:108DC00039300078A8540A48F72539304078A8543B
:108DD0000748F82539308078A8540548F9253930F6
:108DE000C078A854024839300079FA25A8540BE01D
:108DF0004F0000201360004600230046F589000064
:108E0000758A0000CD8A0000FC48FB254079A854F3
:108E10006D46ED791020FF2D16D039E0E06B002271
:108E20008272C2720A7802734A7842738A788273B5
:108E3000CA78C2731A78684602715A7842719A7871
:108E40008271DA78C271A6E73225FC2085540425A8
:108E5000FD2085540E78FE2086544E78FF208654DF
:108E60008878AE01B054C978701C81543621401CFA
:108E70008154401C85541978401C81545978401CF9
:108E800081549978401C8154D978401C81541C200D
:108E900013180C21E0331973401C1318D74D00210F
:108EA000E033AD1D1973401C05E01618E036401C78
:108EB000337380B2491C6B5C002BF6D1E36BCF4A55
:108EC0001E18D578E0363573401C80B21E1815790F
:108ED000E0363573401C80B21D185279E0352A7394
:108EE000401C82B2C81C511AC918E0310872E06BEC
:108EF00037218318E0331973521C91B243180822AA
:108F0000E0331A73491C89B243180122E0331A7303
:108F1000491C89B243180322E0331A73491C89B2F1
:108F200043180622E0331A73491C89B243180F22F2
:108F3000E0331A73491C89B242183A23E0321373A2
:108F4000491C89B24218E0323B23491C137389B291
:108F50001F234218E0321373491C89B2421821239F
:108F6000E0321373491C89B24218E0321773491C6E
:108F70000022FF2389B2393303E04518E0352A7314
:108F8000491C9942F9DB43200090892201AB9200F1
:108F9000A078E16BFFF7BDF9FEBD1CB5FFF7D3FD6F
:108FA000964800214038C06B35228172C172F02191
:108FB0000A540122F1210A540422F2210A543D23C9
:108FC000F3210B540722F4210A540122F5210A54FB
:108FD0008A49F6220B7813544B78F72213548B7876
:108FE000F8221354CB78F92213540B79FA22135434
:108FF0004A79FB210A543222FC210A540422FD2121
:109000000A547E4939390A78FE210A547B49393994
:109010004A78FF210A54794939398A78FF21013188
:109020000A5476493939CA78FF2102310A54362266
:10903000491C0A540422491C0A547049FF22103961
:109040000B78053213544B78521C13548B78521CF6
:109050001354CA78FF2108310A54FF22491C0A54CC
:109060001D210023FF2239324418E034491C2373A8
:109070009142F9DBFF206946087148718871C87117
:10908000432000905D4889224038C16B01AB9200BB
:109090008078FFF73EF91CBDF0B5584C584A403C6B
:1090A000A07885B081048918496A0A04120C5BD043
:1090B00003A9009101ABE16BFFF7D9F983B26846D0
:1090C0008089432870D1E06B4C49027F0D78AA4219
:1090D0004AD1427F4D78AA4246D1827F8D78AA42FA
:1090E00042D1C57FCA7895423ED10246203215460C
:1090F00016780A79964237D16A7849798A4233D10B
:10910000214630310D780A1D002D08D14E78002EF1
:1091100005D18E78002E02D1CE78002E27D06E4653
:109120003679AE420ED16D466D794F78BD4209D188
:109130006D46AD798F78BD4204D16D46ED79CF781B
:10914000BD4214D01578AE420ED16D466D79567879
:10915000B54209D16D46AD799678B54204D16D46D8
:10916000EE79D578AE4202D0002005B0F0BDF030E7
:109170000025C318F03B15E00678332E42D008DCFA
:10918000002E15D0012E18D0032E21D0062E06D188
:1091900024E0352E0ED0362E43D0FF2E06D0467852
:1091A000801C80199842E7D368B2DEE71846F9E7D9
:1091B000401CF7E78578C01CF4E7104E8778313EF5
:1091C0003770C77877700779B7704779F7703CE0E8
:1091D00046788778B446094E353E04E0467887786D
:1091E000B446064E2D3E3770C77877700779B77052
:1091F0004779801D6044F770001FD3E78800002086
:10920000000201468678A661C7783602BF19A761B9
:1092100006793F02F719A76146793F02F619A66160
:1092200013E086780E70C6784E7006798E70467997
:10923000CE706E46367916706E46767956706E46EA
:10924000B67996706E46F679D670801DAAE7E84822
:109250000021C161052202624170704770B5E44C83
:1092600001256157002622469057022917DAE26944
:10927000216A914223D2012804D0022805D0042873
:1092800005D102E0FFF7BEFC01E0FFF770FDE661EB
:10929000E069401D20626078401C60700FE001288A
:1092A00004D0022805D0042807D102E0267000254A
:1092B00003E0FFF7A7FC01202070FFF7C8FF284656
:1092C00070BDF8B5CB4E3046FEF75CFA054603217B
:1092D0003046FEF759FAC64BC748DB1DDC1F00902D
:1092E0001122C6A1A078FFF714F807462946304698
:1092F000FEF74AFA0D3708D0FFF74FFEE069E16943
:10930000091A0229FBD30020F8BD0120F8BDF8B5E9
:10931000B74C207806281ED0A078BD49800440189C
:10932000FEF730FA222805D0002344220221A0783B
:10933000FEF790FD0125FFF7AFFEC1B20022A25655
:10934000AB4800260127C01D130008F0A0F8050651
:109350000D1C314C2F000520F8BD0670467086703C
:10936000C670FFF74FFC5EE002291CD1E16B0A7C5E
:1093700002704A7C42708A7C8270C97CC170FFF79F
:10938000F6FC02204BE005290BD1FFF79AFF0028DD
:1093900001D0606A3FE0FFF75AFFE06A804726701D
:1093A00004E006293DD0FFF759FF05462846F8BDE1
:1093B000A16904254A1CF9D0E26949089142F5D215
:1093C0008B490278C91C0A7042784A7082788A7088
:1093D000C078C870A06B401CA063FFF7C8FCFFF703
:1093E00036FF04201BE004250529DAD18049667088
:1093F000C91C0A7803789A420BD14A7843789A427A
:1094000007D18A7883789A4203D1C978C07881429B
:1094100002D0A06A03258047FFF719FF03202070C0
:10942000C4E7FFF714FF2770C0E710B5704CA078B1
:10943000FEF7E0FC0620207010BDF3B56D4F83B041
:1094400006460025413F38460095FEF79BF9684CDB
:1094500040342070781EFEF795F96070B81EFEF754
:1094600091F9A070F81EFEF78DF9E070381DFEF737
:1094700089F92071F81CFEF785F9607101462078A2
:109480006278E3781043A2781A431043227910439C
:1094900008431FD1257008206070DC20A070E570A3
:1094A0002571294665713846FEF76EF96178781E98
:1094B000FEF76AF9A178B81EFEF766F9E178F81EA2
:1094C000FEF762F92179381DFEF75EF96179F81C23
:1094D000FEF75AF9464F4F49BE700498F863E0789A
:1094E0006379421821798A1848409A1858408018A0
:1094F000B863684601783F480C463138FEF744F9B6
:1095000068464078029001463A483238FEF73CF906
:10951000684680780190014636483338FEF734F9C2
:109520006846C678334831463438FEF72DF931485D
:1095300021463138FEF728F92E4802993238FEF7D5
:1095400023F92C4801993338FEF71EF92948314692
:109550003438FEF719F9274821463938FEF714F94F
:10956000244802993A38FEF70FF9224801993B380E
:10957000FEF70AF91F4831463C38FEF705F9FFF7B8
:1095800066FE3D70F1E51A48C169491CC16170472A
:109590001749C91D0A7802704A7842708A78827029
:1095A000C978C170704712490B310A7802704A7845
:1095B00042708A788270C978C17070470C490F3147
:1095C0000A7802704A7842708A788270C978C170CD
:1095D0007047074913310A7802704A7842708A78D6
:1095E0008270C978C1707047014880697047000077
:1095F000480000204460004688130000434845436B
:109600004B5F49505F434F4E464C49435400000066
:10961000300001467856341201784078090240182B
:1096200080B270470A0A02704170801C7047F0B522
:1096300084460020054606460C78491C002D00D1C2
:10964000401C2706BF0F032F0AD1002D00D1401C5C
:10965000A4060978A40C6444091901250C78491C56
:10966000002C19D01B1B5B1E1BB2002B02DA002042
:10967000C043F0BD002D05D1001903E00F7817702D
:10968000491C521C2746641EA4B2002FF6D12E247A
:109690001470521C761CCFE7002E02D12E211170BF
:1096A000521C00211170F0BD10B593B00C464B2335
:1096B0006A46FFF7BCFF411C03D02018001D13B001
:1096C00010BD0020FBE770B593B015460C4606466A
:1096D0004B236A46FFF7ABFF411C46D024182046B7
:1096E000FFF79AFF0A34030007F0D1FE103C09137C
:1096F0003C3C13291313133C3C13183C1F3C2078AB
:10970000287060786870A078A870E078E870241DF0
:1097100028E04B236A460BE0241823E02078641CE1
:1097200020180178401C44181CE04B236A46A41CF6
:1097300021463046FFF77BFF411C16D0ECE74B2358
:109740006A4621463046FFF772FF411C0DD02418AF
:109750004B236A4621463046FFF769FF411C04D07F
:1097600024181434204613B070BD0020FBE7F7B571
:109770000D460446122107F040F82846FFF74CFF3B
:109780002080A81CFFF748FF02040121002A00DA0C
:10979000A1704204120FE270420500D521718205CA
:1097A00000D56171C20500D5A171020600D5E17135
:1097B0000007000F2072281DFFF72EFF6081A81DF3
:1097C000FFF72AFFA08128460830FFF725FFE08138
:1097D00028460A30FFF720FF29460C310026208258
:1097E000771E06E02846FFF75FFF010014D0761CC5
:1097F000B6B26089B042F5D8002607E02846029A42
:10980000FFF761FF010007D0761CB6B2A089B04215
:10981000F4D80020E18903E03846FEBD401C80B248
:109820008142FBD80020218A01E0401C80B28142A5
:10983000FBD8207A002801D00020FEBD0120FEBD0B
:10984000FFB55E4A0D46518895B00346491C89B262
:1098500017985180FFF7E6FED902FF31013189B236
:10986000FFF7E0FE0121FFF7DDFE0021FFF7DAFE42
:109870000021FFF7D7FE0021FFF7D4FE044629465A
:10988000684606F0B9FE6E46304606F0DBFE80B252
:1098900013902E21304606F063FE070002D0B81B5D
:1098A00085B200E0139D2570641C002D12D02A465D
:1098B0003146204606F0A6FF6419002F07D0139802
:1098C0007619401B401E80B2761C1390E1E7002001
:1098D0002070641C01212046FFF7A4FE0121FFF740
:1098E000A1FE179919B0401A00B2F0BD3348816843
:1098F00003290BD3002282600178022902D302706F
:10990000501E7047491C01700020704701207047AD
:109910002A4A50702A48516050807047F7B5274C4A
:109920000D46002388B01A4602216078FEF792FAAD
:10993000FF2601363346294600206268FFF780FF84
:109940003525009582B2089B60786168FEF7E1FCDE
:109950001C4F60788004C019406A05042D0C16D095
:10996000B54200D9354607A8009006AB2A46607874
:109970006168FEF77CFD0A9A01A86168FFF7F7FEAF
:1099800005466078FEF736FA28460BB0F0BDFFF7C3
:10999000ADFF002801DA0020F7E70028D9D13520F3
:1099A00000902A46089B60786168FEF7B2FCD0E719
:1099B00002488168491C81607047000098000020BF
:1099C000221100000002014601463039092901D860
:1099D000C8B2704701466139052901D8573804E0FB
:1099E000014641390529F4D83738C0B27047F8B577
:1099F000002506462C4611E0705525280CD130195B
:109A000000904078FFF7E0FF070100988078FFF7AB
:109A1000DBFF38187055A41C641C6D1C305D0028D9
:109A2000EAD17055F8BD3EB50546012931D002296D
:109A300031D0032931D0042931D0052931D0092969
:109A400031D00A2931D00C2931D00B2931D0082945
:109A500031D00D2931D00E2931D0142931D015291A
:109A600031D0162931D0172931D0182931D000240E
:109A70008CA1684606F0A8FB2146284606F0BCFDEE
:109A80006946284606F050FE87A1284606F04CFE9F
:109A90003EBD874CECE787A4EAE795A4E8E7A3A4DA
:109AA000E6E7B14CE4E7B14CE2E7B1A4E0E7BF4C34
:109AB000DEE7BF4CDCE7BFA4DAE7CDA4D8E7DBA440
:109AC000D6E7EA4CD4E7EA4CD2E7EA4CD0E7EA4CD6
:109AD000CEE7EAA4CCE770B50D460446F7A12846C8
:109AE00006F048FD002805D1F6A1284606F042FD03
:109AF000002801D0012006E0F4A1284606F03AFD36
:109B0000002802D00220207070BDF2A1284606F085
:109B100031FD002805D1F1A1284606F02BFD0028D3
:109B200001D00320EFE7EFA1284606F023FD00282F
:109B300005D1EEA1284606F01DFD002801D0042025
:109B4000E1E7ECA1284606F015FD002801D005202C
:109B5000D9E7EAA1284606F00DFD0826002805D120
:109B6000E8A1284606F006FD002801D0267070BD49
:109B7000E6A1284606F0FEFC002805D1E5A128460E
:109B800006F0F8FC002801D00C20BCE7E3A1284631
:109B900006F0F0FC002805D1E1A1284606F0EAFC19
:109BA000002801D00B20AEE7D6A1284606F0E2FC43
:109BB0000028DBD1D1A1284606F0DCFC0028D5D155
:109BC000D8A1284606F0D6FC002805D1D7A1284602
:109BD00006F0D0FC002801D0092094E7D5A1284642
:109BE00006F0C8FC002805D1D4A1284606F0C2FC26
:109BF000002801D00A2086E7D2A1284606F0BAFC48
:109C0000002805D1D1A1284606F0B4FC002801D0D7
:109C10000D2078E7CFA1284606F0ACFC002805D13E
:109C2000CEA1284606F0A6FC002801D00E206AE747
:109C3000CCA1284606F09EFC002805D1CBA12846E1
:109C400006F098FC002801D014205CE7C9A1284642
:109C500006F090FC002805D1C8A1284606F08AFC31
:109C6000002801D015204EE7C6A1284606F082FC48
:109C7000002805D1C5A1284606F07CFC002801D0AB
:109C8000162040E7C3A1284606F074FC002805D141
:109C9000C2A1284606F06EFC002801D0172032E74A
:109CA00080E10000256C64000D0A0D0A0000000030
:109CB000004B0100485454502F312E3120323030A7
:109CC000204F4B0D0A436F6E74656E742D5479707E
:109CD000653A20696D6167652F6769660D0A436F94
:109CE0006E74656E742D4C656E6774683A20000062
:109CF000485454502F312E3120323030204F4B0DEC
:109D00000A436F6E74656E742D547970653A2074D1
:109D10006578742F706C61696E0D0A436F6E74659F
:109D20006E742D4C656E6774683A20004854545028
:109D30002F312E3120323030204F4B0D0A436F6EC1
:109D400074656E742D547970653A20696D6167652C
:109D50002F6A7065670D0A436F6E74656E742D4CC3
:109D6000656E6774683A2000F04B0100544B0100A7
:109D7000485454502F312E3120323030204F4B0D6B
:109D80000A436F6E74656E742D547970653A207451
:109D90006578742F6373730D0A436F6E74656E7408
:109DA0002D4C656E6774683A20000000404C01003D
:109DB000D44C0100485454502F312E3120323030D1
:109DC000204F4B0D0A436F6E74656E742D5479707D
:109DD000653A20746578742F68746D6C0D0A436F52
:109DE0006E74656E742D4C656E6774683A20000061
:109DF000485454502F312E3120323030204F4B0DEB
:109E00000A436F6E74656E742D547970653A2069DB
:109E10006D6167652F706E670D0A436F6E74656EB6
:109E2000742D4C656E6774683A2000004854545095
:109E30002F312E3120323030204F4B0D0A436F6EC0
:109E400074656E742D547970653A20696D6167652B
:109E50002F782D69636F6E0D0A436F6E74656E7493
:109E60002D4C656E6774683A20000000604A01005E
:109E7000B04A0100A84B0100844C010048545450E2
:109E80002F312E3120323030204F4B0D0A436F6E70
:109E900074656E742D547970653A20696D616765DB
:109EA0002F7376672B786D6C0D0A436F6E74656E39
:109EB000742D4C656E6774683A2000002E68746DCE
:109EC000000000002E68746D6C0000002E6769664B
:109ED000000000002E746578740000002E74787401
:109EE000000000002E6A7065670000002E6A70672F
:109EF000000000002E737766000000002E63676983
:109F0000000000002E434749000000002E6A736FD6
:109F10006E0000002E4A534F4E0000002E6A730060
:109F20002E4A53002E786D6C000000002E584D4CC8
:109F3000000000002E637373000000002E43535393
:109F4000000000002E706E67000000002E504E478B
:109F5000000000002E69636F000000002E49434F8F
:109F6000000000002E747466000000002E54544659
:109F7000000000002E6F7466000000002E4F544653
:109F8000000000002E776F66660000002E574F46D7
:109F9000460000002E656F74000000002E454F54EF
:109FA0000000000085A1284606F0E4FA002806D14A
:109FB00084A1284606F0DEFA002800D1A3E5182087
:109FC000A1E570B50A46044680A1104606F0C0FA25
:109FD0000026054600283CD07DA106F049FC00285B
:109FE0001FD07CA1284606F043FC002819D07AA196
:109FF000284606F03DFC002815D079A1284606F039
:10A0000037FC00280FD078A1284606F031FC002844
:10A0100011D077A1284606F02BFC00280BD0267023
:10A0200012E0012000E00220207068A1002006F06C
:10A030008FFA054606E062A1002006F089FA05467F
:10A0400003202070002D04D02946A01C06F0D4FA6D
:10A0500070BD267070BD70B50E460546002404E044
:10A060006D1CFFF7B1FC744304192878002801D057
:10A070002028F5D1A0B270BDF8B51D4616460C4695
:10A0800006F078FA0746204606F0DCFAC419314695
:10A09000204606F06FFA001B86B23246214628465B
:10A0A00006F0B0FB0020A855F8BDF0B5002689B039
:10A0B0000D4607461446039604960596002842D09E
:10A0C000002D40D003AB4CA24CA1FFF7D5FF0A21D5
:10A0D00003A8FFF7C0FF00904D49384606F04AFA42
:10A0E0000099001D4654294606F044FA07002AD07C
:10A0F000284606F0A7FAC5196D1C46A1284606F0A9
:10A1000039FA002803D1284606F09CFA4019401B72
:10A110000204120C13D0A6542946204606F072FB06
:10A120002046FFF764FC2B212023002003E08A4215
:10A1300000D12354401C225C002AF8D100E0267094
:10A14000204609B0F0BD0020FBE770B50D460028A1
:10A1500013D00146284606F04FFA2FA1284606F0F4
:10A16000F7F904462DA106F083FB002800D0641CFB
:10A170002146284606F040FA012070BD30B50D4654
:10A1800089B00146684606F037FA6846002424A1E3
:10A1900006F0DEF90178302902D1417878290AD019
:10A1A0000A21FFF758FF2855641C0020E4B2042C54
:10A1B000EDD309B030BD1021801CF2E72E73766715
:10A1C000000000002E535647000000002000000051
:10A1D000474554006765740048454144000000004D
:10A1E0006865616400000000504F53540000000097
:10A1F000706F7374000000000D0A0000436F6E74EE
:10A20000656E742D4C656E6774683A20000000001E
:10A21000A89C000026000000203F00002F00000046
:10A220002E0000007047704710B50022FE4B03E07F
:10A230008C5C9C54521CD2B28242F9D310BD10B433
:10A240000446F9482438C461016210BC194610461E
:10A25000EAE7F54A243A002800D09060002900D0AF
:10A26000D160704770B50D46EF491C462439098806
:10A27000884201D9002070BD1C214843EB49401899
:10A280008169002A00D089181A46284606F0BAFAD1
:10A2900000202855284606F0D5F980B270BDFFB5DC
:10A2A00081B000200A9C00901F46019800F06BFAD4
:10A2B000411C3DD094214843DD4946183546803540
:10A2C000A968DC48002905D0EA688C1A84420FD9B5
:10A2D00004460FE084420DD96F60AC600446701CE8
:10A2E000802106F08AFA701C029906F085F901E0D7
:10A2F00001200090287C012813D1A868002800D0F4
:10A300006F68A3B2B8B2EA680399FFF7ABFF002CFD
:10A3100007D0A2B203990198FDF704FF0098002826
:10A3200003D000206860A86001E0E8680019E860D8
:10A3300005B0F0BD70B5BC4C0546243CA069C82BE7
:10A3400010D01946FF39913913D0042914D0002BAD
:10A3500007D0A06906F076F982B22846A169FDF718
:10A36000E1FE70BD0829FCD00929FAD0FFF75BFB9C
:10A37000EFE77622B04902E0AF499922993906F019
:10A38000DFF9E6E738B50C4605460092ABA2BAA164
:10A39000204605F019FF82B221462846FDF7C2FE8D
:10A3A00038BDF7B50025A04F2C46A04E243F09E04C
:10A3B0001C2060438119009806F05AFA002806D044
:10A3C000641CA4B238888442F2D32846FEBD1C2007
:10A3D0006043801941690298012501600198048059
:10A3E000F3E7F3B5FFB086B00D46002769468F81CD
:10A3F0000121490204A8019706F001FA859800F0AE
:10A40000C2F90646401C5ED0874CFF23243C206ADC
:10A41000A061002001902878913300287DD0012888
:10A4200004D0022802D0032877D166E004A9A81C32
:10A43000FFF78BFE04A893A1029006F019FA0028FA
:10A4400003D191A1029806F0D7F892A1029806F0E4
:10A450000FFA002803D190A1029806F0CDF892A13E
:10A46000029806F005FA002803D191A1029806F09F
:10A47000C3F8681C0299FFF72EFB687801AA082828
:10A4800010D003A904A8FFF78CFF002822D0942144
:10A490004E436749684687897118012080310874E6
:10A4A000C82619E0E169029800F093F9002852D01B
:10A4B00060490198413988424DD883B2E269A16967
:10A4C0008598FFF75FFF7FB008B0F0BD8598FFF774
:10A4D00031FFF8E7FF26953669783346019A85986B
:10A4E000FFF728FFC82EEED1019800903B46A269E5
:10A4F00002998598FFF7D3FEE5E704AB71A261A14D
:10A50000A81CFFF7B9FD04AE3146681CFFF7E3FA5B
:10A510006878082804D0FF23953300221146D5E738
:10A5200001AB29463046A26900F093F9050012D02C
:10A5300040490198413988420DD883B2A269E16946
:10A540008598FFF71FFF022DBDD10A2000F019FEEC
:10A55000A0688047B7E7FF23953300220821B5E7BD
:10A56000FEB5314D0446243D286A2861E8696861DA
:10A570002D48005D0190860454483018FDF702F91B
:10A58000142807D007DC00284CD0132802D10198EA
:10A59000FDF7CBFCFEBD172805D01C28FAD1019889
:10A5A000FDF77EFDFEBD494810383018FDF7EAF88A
:10A5B000C00705D04548012108383018FDF7E4F8F8
:10A5C000942044431A481A49005D671880370028D0
:10A5D00015D0032827D00428E4D10020B860F86003
:10A5E0007860085539480821203830180446FDF7AE
:10A5F000CBF82046FDF7C6F80028FAD1FEBD344856
:10A600003618706A0204120CF8D00120C00282428F
:10A6100000D90246044D0198243D2969FDF712FE38
:10A6200080B257E085E077E0C800002018080020DD
:10A6300078030020FF070000F11601004854545031
:10A640002F312E3120323030204F4B0D0A436F6EA8
:10A6500074656E742D547970653A20746578742F22
:10A6600068746D6C0D0A436F6E74656E742D4C6565
:10A670006E6774683A200000257325640D0A0D0A80
:10A68000257300002F000000696E6465782E6874E1
:10A690006D6C00006D0000006D2F696E6465782E92
:10A6A00068746D6C000000006D6F62696C6500007D
:10A6B0006D6F62696C652F696E6465782E68746D64
:10A6C0006C00000020485454500000003000014647
:10A6D00000020146296900220A546869FFF771FCEB
:10A6E00069690198FFF77DFE6D6804E02D484068B8
:10A6F000401B032807D83046FDF744F871688002F4
:10A7000089B28842F2D1B9682748002901D00321D3
:10A7100000E004210155FEBD0020009003460146E3
:10A72000AA690198FFF7BBFDB9681F480029F0D05E
:10A73000FEBD00231D4A01210198FDF78BFBFEBDE4
:10A74000F8B50D4607001DD0002D1BD0154C2088F4
:10A75000142817D2384605F075FF284605F072FF19
:10A76000009020881C214843114E3946801905F07D
:10A7700043FF20881C224243921900999561401C96
:10A7800051612080F8BD074A00212432535C834286
:10A7900001D148B27047491CC9B20829F6D300203C
:10A7A000C0437047A40000207803002053C300007A
:10A7B0001808002070B50E46154601242DA106F09C
:10A7C00057F8002803D12946304605F031FB2046D2
:10A7D00070BD38B5154600226B461A8001246A46C2
:10A7E000FFF7E8FF002804D068460088286020466C
:10A7F00038BD0024FBE7FFB581B00F461C46164666
:10A80000012520A1019806F033F800280FD021A1DE
:10A81000019806F02DF800280DD023A1019806F02C
:10A8200027F800280BD00025284605B0F0BD384693
:10A8300005F06DFB06E0384605F05AFC02E03846AC
:10A8400005F058FCC2B21DA1304605F0BDFC2080C9
:10A85000EAE738B51C4600236D462B806B46891C01
:10A86000FFF7C9FF002803D069460988022021604C
:10A8700038BD00006765745F646576696E666F2E2B
:10A88000636769007365745F646576696E666F2ED1
:10A89000636769007365745F646576726573657478
:10A8A0002E636769000000007365745F64657666F7
:10A8B000616372657365742E6367690025640000C7
:10A8C00070477047704710B500F0BDFE10BD70476F
:10A8D000704710B5104804F083FA10BD10B50F484A
:10A8E00004F07EFA10BD704770477047704770479C
:10A8F00070477047704710B504F0F5F910BD704708
:10A90000704770477047704770477047704770478F
:10A91000704770477047704700C0004000D000404B
:10A9200010B5C0B2FCF7E6FE10BD0020C043704772
:10A93000FEE7000010B5C049097801290AD1BF4CD3
:10A940002178012906D101F0A8FB002002F049F985
:10A950000020207010BD3EB502F0EEFA6421095CC3
:10A96000002906D0B6490978012906D0B5A005F01E
:10A970001DFCB8A005F01AFC3EBD014621314A7C01
:10A98000097C12020A43014620318B7B4C7B0094E8
:10A99000019302920B7BCA7A4931AFA005F006FC05
:10A9A000E7E7FEB502F0C8FA04460025B3490420E3
:10A9B000FEF7AEFF20466030427969460A70827920
:10A9C0004A70C27906468A70007AC870032000F087
:10A9D00087FF20462B306934019021466846019A52
:10A9E000FEF79CFF074601280BD06D1CEDB2022D2F
:10A9F00007D803F0DCFDF0780028EED0FEF787FCE6
:10AA0000EBE7012000F06CFF3846FEBD10B502F008
:10AA100093FA6030C078002806D099480078012861
:10AA200003D098A005F0C2FB10BDFEF7DDFD014686
:10AA300099A005F0BBFB10BD70B5002502F07CFAB3
:10AA4000064629368D490320FEF7F7FC9D499C4AAE
:10AA50000846FEF765F8032000F042FFFEF757FCBA
:10AA60000446042807D0002C01D16D1CEDB2032D43
:10AA700009D9FEF7DAFC7078042802D0012000F032
:10AA80002FFF60B270BD03F092FD0020FFF752FF70
:10AA9000E4E7F0B591B002F04FFA04463C228A494F
:10AAA0006846FCF787FB611D88A005F07FFB264602
:10AAB0002036707A8B49800009588BA005F076FB10
:10AAC0008FA005F073FB204660300F90C0780128FE
:10AAD0002AD091A192A005F069FB9AA005F066FB2F
:10AAE00027462337787B3A7B010211439AA005F071
:10AAF0005DFBA049A0A005F059FB9E49A7A0491CF9
:10AB000005F054FBAE48FCF73DFE0146ADA005F054
:10AB10004DFBB5A005F04AFB25464035287E0028B0
:10AB200004D02246583202E0B5A1D3E7B9A20028EA
:10AB300001D0BAA100E0BBA1BDA005F037FBC0A0C9
:10AB400005F034FB0F988078012811D0B5A1C5A27B
:10AB5000CCA005F02BFBCEA005F028FBD5A005F07E
:10AB600025FB787C3A7C0102114303D0D7A003E097
:10AB7000AAA1ECE7ABA159A005F018FBD7A005F0FE
:10AB800015FB20462130417D007D0902014301D0A3
:10AB9000D8A001E0A3A151A005F008FBD9A005F0C1
:10ABA00005FB0023DDA2DDA1DEA005F0FFFA687938
:10ABB000E34980000958E3A005F0F8FAA87969464E
:10ABC00080000958E5A005F0F1FAE879E649095C4A
:10ABD000E6A005F0EBFA287AE54980000958E5A0DF
:10ABE00005F0E4FA687AE449095CE4A005F0DEFACD
:10ABF0006979E44800291CD00168E3A005F0D6FA81
:10AC00000223C6A2C5A1E5A005F0D0FAEAA3ECA2F2
:10AC1000EDA1F1A005F0CAFAF4A005F0C7FAFCA076
:10AC200005F0C4FA787D3A7D0102114302D0B1A04B
:10AC3000FAE1F3E1F6E10000FC000020FE00002054
:10AC40000A010020202320444E53204661696C6590
:10AC5000640D0A000D0A0000202320444E533A20C0
:10AC60002573203D3E2025642E25642E25642E2547
:10AC700064203A2025640D0A00000000480A0020E4
:10AC80005401002020232044484350204661696C31
:10AC900065640D0A00000000202320444843502032
:10ACA0004950204C65617365642074696D65203A74
:10ACB000202575207365636F6E64730D0A000000B4
:10ACC000F57C00006D7C00005C490100202D2044D3
:10ACD0006576696365206E616D653A2025730D0A9E
:10ACE0000000000044010020202D204465766963A7
:10ACF00065206D6F64653A2025730D0A0000000021
:10AD0000202D204E6574776F726B207365747469A3
:10AD10006E67733A200D0A00537461746963000012
:10AD2000092D204F627461696E696E672049502059
:10AD300073657474696E67733A205B25735D0D0AE1
:10AD400000000000092D205443502F55445020701E
:10AD50006F7274730D0A0000092020202B205332DB
:10AD600045206461746120706F72743A205B2564C1
:10AD70005D0D0A0051C30000092020202B20544300
:10AD8000502F5544502073657474696E6720706F3E
:10AD900072743A205B25645D0D0A000009202020B2
:10ADA0002B204669726D77617265207570646174DD
:10ADB0006520706F72743A205B25645D0D0A000097
:10ADC00044600046092D205443502052657472613E
:10ADD0006E736D697373696F6E2072657472793A00
:10ADE000205B25645D0D0A00202D20536561726390
:10ADF0006820494420636F64653A200D0A00000012
:10AE00004175746F6D61746963202D20444843500F
:10AE1000000000004E6F6E6500000000456E61622C
:10AE20006C65640044697361626C656400000000D5
:10AE3000092D2025733A205B25735D0D0A00000063
:10AE4000202D2045746865726E657420636F6E6E88
:10AE5000656374696F6E2070617373776F72643AA3
:10AE6000200D0A00285443502073657276657220C5
:10AE70002F206D69786564206D6F6465206F6E6C3E
:10AE800079290000092D2025732025730D0A000063
:10AE9000202D20436F6E6E656374696F6E20746938
:10AEA0006D65722073657474696E67733A200D0A5C
:10AEB00000000000092D20496E6163746976697491
:10AEC000792074696D65723A200000005B25645D2D
:10AED0002028736563290D0A00000000092D205207
:10AEE00065636F6E6E65637420696E7465727661FA
:10AEF0006C3A20005B25645D20286D736563290D25
:10AF00000A000000202D2053657269616C20736572
:10AF10007474696E67733A200D0A000055415254EB
:10AF200000000000092D2044617461202573207009
:10AF30006F72743A20205B257325645D0D0A000052
:10AF400014030020092020202B2055415254204971
:10AF5000463A205B25735D0D0A0000000920202081
:10AF60002B2025642D000000F002002025642D0018
:10AF7000F402002025732D00000300202564202FFB
:10AF80002000000004030020466C6F7720636F6E82
:10AF900074726F6C3A2025730D0A0000092D20444D
:10AFA0006562756720257320706F72743A205B2587
:10AFB0007325645D0D0A00002866697865642900C0
:10AFC0004E4F4E45000000003131353230302D38C3
:10AFD0002D4E2D3100000000092020202B2025734C
:10AFE000202F2025732025730D0A0000202D2053CB
:10AFF000657269616C2064617461207061636B6962
:10B000006E67206F7074696F6E733A0D0A000000EE
:10B01000092D2054696D653A20000000A97A890045
:10B020004158EAE5AE49AF4805F0C0F8AEA005F0DA
:10B03000BDF8717E002901D0AEA001E0A849A94861
:10B0400005F0B4F8AFA005F0B1F8B07F01281CD02E
:10B05000A349A44805F0AAF8ADA005F0A7F88034EC
:10B06000E07E012814D09E49B3A005F09FF8E37F4D
:10B07000A27F617FB2A005F099F8BAA005F096F81A
:10B08000E87A002807D0C1A206E0B17EC0A0E1E7BF
:10B0900093490839E8E7C3A2C5A1C7A005F086F81F
:10B0A000287B002801D0CBA200E0CBA2CEA1D0A06B
:10B0B00005F07CF8D5A005F079F8DF4C207804F095
:10B0C0008AFDDE4D80002F58207804F075FDDC4E9F
:10B0D000800032583B46DBA1DCA005F067F86078C1
:10B0E00004F079FD80002F58607804F065FD800041
:10B0F00032583B46DDA1DFA005F058F8A07804F0F7
:10B100006AFD80002F58A07804F056FD8000325868
:10B110003B46E0A1E1A005F049F8E07804F05BFDD2
:10B1200080002D58E07804F047FD800032582B460F
:10B13000E2A1E4A005F03AF8EAA1A4A005F036F8EF
:10B1400011B0F0BD38B501F0F7FE04466CA005F073
:10B150002DF8E4A19DA005F029F8EFA1F1A005F0DC
:10B1600025F8F2A005F022F8FAA00090A37D627DF8
:10B17000217DFAA005F01AF8DAA194A005F016F8DE
:10B1800038BD01B5FE480099416041680029FCD1F5
:10B1900008BD8AB001F0D0FE044600F064FAF9A1BF
:10B1A00003C907910690F7A103C909910890FCF71C
:10B1B0004BFBFCF737F8F54905F0B7FBF44908609D
:10B1C00008A906A8FCF7E6FB00F0FAFAF1480069C6
:10B1D000800701D5FCF7C2FAE948FF2109040830CD
:10B1E000012522C00838FCF7A0FA01F05FFF2046D5
:10B1F000203007908572C01C417D027D08021043FB
:10B2000001D0E549088002F038F801F095FE803061
:10B21000817E684601767D210901418306A8FCF7FD
:10B2200000FC03F01CFF26464036707B002803D04C
:10B23000FFF788FFFFF72DFC02F03FF82746603745
:10B24000F87800282BD0FFF7F7FB042825D02146FB
:10B2500006221731684601F08AFF214601A8042220
:10B260001D31023001F087FF214603A8042221315D
:10B27000023001F080FF214602A80422253102306D
:10B2800001F079FF04A80422791D023001F073FF58
:10B2900069460020FCF7BDFC03E0C0480570C048CB
:10B2A0000570707B002803D001F069FFFFF7AEFB4B
:10B2B0000798407A01280DD0387900280AD0FFF786
:10B2C00070FB002801D0B7480570707B002801D0C2
:10B2D000FFF741FBB448B54C05702078002567E1C5
:10B2E00024AE0000DCAC0000092D2053697A653AD9
:10B2F000200000005B25645D202862797465732955
:10B300000D0A0000092D20436861723A20000000F8
:10B31000202D2053657269616C20636F6D6D616EC5
:10B3200064206D6F64652073776974636820636F50
:10B3300064653A0D0A000000092D2025730D0A00EE
:10B34000092D205B252E32585D5B252E32585D5B22
:10B35000252E32585D2028486578206F6E6C79293B
:10B360000D0A0000202D204861726477617265200B
:10B37000696E666F726D6174696F6E3A20537461A5
:10B380007475732070696E730D0A00004454520086
:10B390005B252E32585D2028686578206F6E6C79A9
:10B3A000290D0A00504859206C696E6B000000009E
:10B3B00050415F3130000000092D205374617475D5
:10B3C0007320313A205B25735D202D2025730D0AF3
:10B3D000000000004453520054435020636F6E6ECF
:10B3E000656374696F6E000050415F30310000008A
:10B3F000092D2053746174757320323A205B2573D4
:10B400005D202D2025730D0A00000000202D20480E
:10B410006172647761726520696E666F726D6174C6
:10B42000696F6E3A205573657220492F4F207069FD
:10B430006E730D0A00000000500300205C03002022
:10B440005403002050435F3133000000092D205584
:10B45000736572494F20413A205B25735D202D2092
:10B460002573202F2025730D0A00000050435F3103
:10B4700032000000092D2055736572494F20423A71
:10B48000205B25735D202D202573202F2025730D33
:10B490000A00000050435F3039000000092D20559C
:10B4A000736572494F20433A205B25735D202D2040
:10B4B0002573202F2025730D0A00000050435F30B4
:10B4C00038000000092D2055736572494F20443A19
:10B4D000205B25735D202D202573202F2025730DE3
:10B4E0000A0000003D3D3D3D3D3D3D3D3D3D3D3D76
:10B4F0003D3D3D3D3D3D3D3D3D3D3D3D3D3D3D3D7C
:10B500003D3D3D3D3D3D3D3D3D3D3D3D3D3D3D3D6B
:10B510003D3D3D3D3D3D000057495A373530535282
:10B5200000000000202573200D0A0000203E3E2070
:10B5300057495A6E65742053657269616C20746F47
:10B540002045746865726E6574204465766963652C
:10B550000D0A0000537461626C650000203E3E20BD
:10B560004669726D776172652076657273696F6E78
:10B570003A2025642E25642E25642025730D0A00AB
:10B58000D400002004020202020202001027000080
:10B590000020004600F00140180100205401002066
:10B5A000550100200A010020FB000020E4000020DB
:10B5B000002803D0002001F014FB257004F07BFA72
:10B5C000FCF7C2F8307E00280DD13B4B03223B49EB
:10B5D0003B48FEF734FE00213A48FEF73AFE3A496E
:10B5E0003AA0FFF7ADF8FF200004FCF7BFF802F027
:10B5F000DEFF0020FFF79EF937480078002802D0D0
:10B60000002001F0ABFAF878002801D0FDF77FFEAA
:10B61000307E002806D100242046FEF7A1FF641CDE
:10B62000032CF9DB2D480178002900D005702C4C43
:10B6300020780028D7D0707B002802D029A004F001
:10B64000B5FD2570CFE71C484168002902D041684C
:10B65000491E41607047BFF34F8F2B492948C8608E
:10B66000BFF34F8FFEE710B500F0EDF8274A012039
:10B670009110FBF73BFE03F013FB03F029FDFBF7F2
:10B68000D1FD7D21C90005F050F92149401E8842B5
:10B690000DD8204948611C480722001DC3691B02C0
:10B6A0001B0A4C042343C361002088610A610A20FD
:10B6B000FFF767FD10BD0000D4000020411D0020F1
:10B6C000411B002057B6000068170100696E6465D1
:10B6D000782E68746D6C000055010020FA0000207F
:10B6E000E0020020203E2055415254205278205242
:10B6F000696E67206275666665722046756C6C0DB2
:10B700000A0000000400FA0500ED00E0006CDC0215
:10B71000FFFFFF0000E000E0FEB50446032818D25A
:10B720006A4E6500705B00900120694608716848A8
:10B73000A700C059FBF758FE6548715B001F025D0A
:10B74000C01E005DFBF7E4FE6148715BC059FBF76A
:10B75000C1FEFEBD70B5012311249D03A406002285
:10B7600029462046FBF7FCFE656170BD10B501233C
:10B770002120002259024006FBF7F2FE10BD70B5F1
:10B78000002421256D0602212846FBF795FE00289E
:10B7900001D0012070BD0520FFF7F3FC641CE4B26A
:10B7A000052CF0D3002070BD10B5212464060123C0
:10B7B000002202212046FBF7D3FE0220606110BD6B
:10B7C00070B5012003F0F8FA424961200863424B4A
:10B7D00001225A6148619A6188613F4880308261E4
:10B7E0003C4902208031886140204521090648609B
:10B7F00008614402432501022D0622462846FDF732
:10B80000C6F8224600212846FDF765F8002003F01F
:10B81000D3FAFFF7C9FFFFF7B2FF002811D00020CD
:10B820002B4908390870FFF7A1FFFFF793FF0020AD
:10B83000FFF772FF0120FFF76FFF0220FFF76CFF99
:10B8400070BD0120ECE725490220086322494039F8
:10B850008860704710B50121212049024006FBF79E
:10B860002BFE10BD10B511200123002240218006BF
:10B87000FBF776FE10BD10B5112040218006FBF7C6
:10B880001BFE10BD10B5032807D2104A4100515AC3
:10B890000F4A80001058FBF72BFE10BD10B503288F
:10B8A00007D20A4A4100515A094A80001058FBF752
:10B8B00011FE10BD032808D20549820089584A6844
:10B8C000024B4000185A42404A60704798490100B4
:10B8D000EC00002040300041402000414011004178
:10B8E00070B5054601F028FB0446293401F024FB1D
:10B8F0002B0005F0CCFD06100406090C0E100120EB
:10B9000003E0022060700EE00320607006E0042077
:10B91000FBE70520F9E76078022804D00021022027
:10B9200004F0F9F970BD0121F9E700290FD00023D7
:10B93000FE4A00280CD0012813D002281AD0032870
:10B9400005D1106B401C1ED0D06B4018D0637047DF
:10B95000106B401C03D0106B4018106370471363CA
:10B960007047106B401C03D0506B401850637047F9
:10B9700053637047106B401C03D0906B401890636A
:10B98000704793637047D3637047F7B582B015462D
:10B990000E46002403F004FA002811D003F009FA3F
:10B9A000009003F003FA019003F0FDF9074603F05D
:10B9B000F7F901463A46DEA0019B04F0F7FB0DE0E3
:10B9C00003F0F7F9009003F0F1F9074603F0EBF903
:10B9D00001463A46DCA0009B04F0E8FB022D02D0B1
:10B9E000032D02D013E0DDA100E0DDA13246DDA091
:10B9F00004F0DCFB06E00298015DDDA004F0D6FB5C
:10BA0000641CA4B2B442F6D3DBA004F0CFFB204602
:10BA100005B0F0BDFEB50C46074601F08DFA0025D5
:10BA200006464E360095019502950B2C00D30A244C
:10BA300022463946684604F083FE304604F002FE92
:10BA4000A04207D122466946304604F0A7FD0028EF
:10BA500000D101252846FEBDF1B584B001F06CFA95
:10BA60002930039001F068FA0546453501F064FA83
:10BA70004E3002906879022804D1002003F04FFC78
:10BA80000028C5D104988104BC480818406A0026E3
:10BA900087B20120C002A54C874201D9074601E0C8
:10BAA000002F3CD0B6480818FBF76CFE172829D0A9
:10BAB0001C2827D022282BD19C483A462830034600
:10BAC00000901833AF490498FCF7D1FC9749E08403
:10BAD00040310422081D04F061FD002818D093496C
:10BAE000086C4864287A002812D008464030228D1D
:10BAF000C17801920091837842780178A2A004F085
:10BB000055FB05E03A469F490498FCF79BFBE0840F
:10BB1000E68226832673E18C0220FFF706FF039856
:10BB20004078012804D0022809D16078002806D185
:10BB30000298007D012802D1A07A002806D0E08C6E
:10BB4000002811D0E879012812D015E039468D4837
:10BB5000FFF760FF012808D0A672E684A07A0028CB
:10BB600002D10498FCF79CFA52E70120A072F4E796
:10BB700004F02CF90128F7D02878824F012808D04A
:10BB80006879012822D0287A03283DD004283BD0A8
:10BB90003FE0287A032801D0042804D10322E18C55
:10BBA0007848FFF7F2FE002003F069FB002505E06E
:10BBB000795D002003F0F8FA6D1CADB2E08C85428F
:10BBC000F6D3002003F083FBE18C18E0607B0128B2
:10BBD000CAD1287A032801D0042804D10322E18C99
:10BBE0006848FFF7D2FE002505E0795D002003F0EC
:10BBF000DBFA6D1CADB2E08C8542F6D314E0032075
:10BC0000FFF793FEE68403E70322E18C5D48FFF72C
:10BC1000BCFE002505E0795D002003F0C5FA6D1C2F
:10BC2000ADB2E08C8542F6D381B2E8E7F8B501F019
:10BC300083F905465E48293501885E4800880A1860
:10BC40005D480088101A04F07AFE384C8EB2A08C41
:10BC500001273018FF02B84213D3687C00280DD0AA
:10BC6000012E0BD1002003F0E6FAC1B25348A28C9A
:10BC70008154687C884201D11046F8BDA08C381AE6
:10BC800086B2E87BA97B0002084305D1287C002806
:10BC900002D1687C002801D000272AE00025474F08
:10BCA00008E0002003F0C7FAA18C7854491C6D1CF1
:10BCB000A184ADB2B542F4D3A08CF8BD002003F04E
:10BCC000BAFA02463D49A08C0A54401C80B2A084B6
:10BCD0006A7C002A04D009182039C97F8A4204D01E
:10BCE000297C002903D0814201D180B2F8BD7F1C9C
:10BCF000BFB2B742E2D3E87BA97B000208435FD022
:10BD0000A58C002D5CD0207A002859D028480188C5
:10BD1000284800880A1828480088101A04F00FFEE6
:10BD2000002901D1002020722846F8BDFC00002027
:10BD3000205B2564642F253032643A253032643A22
:10BD4000253032645D000000205B253032643A25E6
:10BD50003032643A253032645D00000053324500D1
:10BD6000453253005B25735D5B253034645D2000F4
:10BD700025303258200000000D0A00000002014664
:10BD80003000014648120020203E205544502050EB
:10BD90006565722049502F506F72743A2025642EC9
:10BDA00025642E25642E2564203A2025640D0A0082
:10BDB000EA020020E6020020E8020020480A0020F3
:10BDC0000020F8BDFEB5074601F0B6F80546293556
:10BDD00001F0B2F806464536FFF73CFD002876D163
:10BDE000FFF724FFF34C019000286ED0014600209D
:10BDF000FFF79BFD307A022801D0042804D10222EB
:10BE0000ED480199FFF7C1FDEC49B8044018FBF774
:10BE1000B9FC14285FD017283BD01C2839D0222821
:10BE200053D1A878002808D1E878002805D12879CE
:10BE3000002802D16879002806D0687A297A0002A1
:10BE40000843AB1C009011E0DA484030017800292B
:10BE500008D14178002905D18178002902D1C07824
:10BE600000280AD0D34B208D40330090D249384669
:10BE7000019AFCF74EFA07B205E0307A002802D0AA
:10BE8000CF4804F093F9002F1FDDA08CC01BA084C5
:10BE90001BE0A07A012818D1C7493846019AFCF75F
:10BEA00041F900B2002802DDA18C081AA08401200B
:10BEB0000199FFF73AFDE87D012806D1207B002893
:10BEC00006D000202073002020830020E082FEBDE9
:10BED00001202071F7E70020A084FEBDF0B589B0F5
:10BEE000074601F029F801F027F80546293501F049
:10BEF00023F80646B148BC0445362018FBF742FC3F
:10BF00000023B04A00281FD022281BD1AE48018848
:10BF100010880A18AD480088101A04F010FDA54DCD
:10BF2000A88C014302D03846FFF74CFFA8482018E0
:10BF3000406A0004000C02D1E88C002802D0384688
:10BF4000FFF78AFD09B0F0BD0020A04910800880ED
:10BF500098498884C884A9780A46E03A0F2A54D8B8
:10BF600001236A46137450745E209074E87840068A
:10BF7000400ED07402902879107501906879507540
:10BF800000909348D9382018FBF7FEFB9048E978D9
:10BF9000DA382018FBF7F8FB8D482979DB382018B0
:10BFA000FBF7F2FB8A486979DC382018FBF7ECFBD9
:10BFB000687A297A000208438049D0316118086202
:10BFC00083480121E5382018FBF7DEFB804800217B
:10BFD000E6382018FBF7D8FB7D485E21E7382018AB
:10BFE000FBF7D2FB75480299E8302018FBF7CCFB31
:10BFF00077480199E3382018FBF7C6FB744800998D
:10C00000E4382018FBF7C0FB802301200343E879C4
:10C01000A97902020A4302213846FBF71BFFB84206
:10C0200090D10520FFF75CFCE87BA97B0002084368
:10C0300001D060498883307A002883D065A004F05D
:10C04000B5F87FE710B55B4CA08A002809D0684995
:10C05000884204D2401C0840A08202D00DE000209B
:10C06000A08202F0B0FE04F055FAFBF787F86149B0
:10C0700004F065FC60480818A08280B210BD4D48ED
:10C080000021C170C171017141720172C17281726E
:10C09000C182018401834184704770B5054600F078
:10C0A0004BFF04464549A80429344018FBF76AFBB6
:10C0B000002807D02178032909D0172804D01C288C
:10C0C00002D004E0284670BD2846FBF7E9FF284669
:10C0D000FBF790FEF6E710B500220621FCF7A8FA60
:10C0E00010BDF0B585B000F027FF0446293400F0FC
:10C0F00023FF0546453500F01FFF014600204E3165
:10C100000646009003913D48FBF73CFB69460870EA
:10C1100002903A48401EFBF735FB69464870019093
:10C120003648801EFBF72EFB694688700746334869
:10C13000C01EFBF727FB6946C8700399897D01295A
:10C1400008D11C49897B012904D0287A002815D000
:10C150002BA011E00299002906D10199002903D1F1
:10C16000002F01D1002803D0A178002907D00FE0CB
:10C17000287A00287ED02CA004F018F87AE0E27823
:10C18000002A05D12279002A02D16279002A6CD0D6
:10C19000029A8A426FD1E278019991426BD121795A
:10C1A0008F4268D16179884265D1287A002861D0B0
:10C1B00059E05AE0FC000020480A00203000014607
:10C1C000584D0100E6020020EA020020E8020020AB
:10C1D00000020146203E205345473A5544505F4DEA
:10C1E0004F44453A534F434B4F50454E0D0A0000C4
:10C1F000FFFF000010270000B88800001360004611
:10C20000203E205345473A434F4E4E454354494FF5
:10C210004E204641494C4544202D20444E53204653
:10C2200061696C65640D0A00203E205345473A431E
:10C230004F4E4E454354494F4E204641494C45448C
:10C24000202D20496E76616C69642049502061641C
:10C2500064726573733A205A65726F2049500D0AF3
:10C260000000000007E0EDA086E7287A002801D052
:10C27000F74881E70126304676E4F1B588B000F052
:10C280005BFE00F059FE0546293500F055FE0746D5
:10C29000453700F051FE4E30002406900294684667
:10C2A000848108988104EB4804910818FBF76AFA26
:10C2B000E94A0499012689180591172855D01FDCF1
:10C2C00000287CD0132828D0142818D1E34C60789B
:10C2D000002814D1E2480188E24800880A18E248A0
:10C2E0000088101A04F02BFB002908D00898FFF7EB
:10C2F000D4FE6670687B297B00020843E08321E658
:10C300001828DED01C28FAD1FF25D44C2D0405981E
:10C31000406A0004000C73D1FCE0D04E7078012814
:10C32000EDD1687B297B00020843F18B8842E6D877
:10C33000F483FFF7D6FE01280DD0687A297A02022D
:10C340000A43A91C0898FBF727FE707C401CC0B26A
:10C3500070740A28D3D30898FFF79FFEC1487474FD
:10C360000480C14804807470ECE5BA49049810391F
:10C370004018FBF707FAC0075DD00220FFF7B0FABC
:10C38000B648C18A002905D1E97AAA7A090211437F
:10C3900000D0C670B148008B002804D1E87D002889
:10C3A00001D0AE4806710698007D002808D0AB4841
:10C3B0004178012904D0827A114304D005E0B0E02D
:10C3C000A648867201E046724484387A00281BD061
:10C3D00002AA04210898FCF791F903AA05210898FC
:10C3E000FCF78CF99D484078002868468189C07A1E
:10C3F000009001916846837A427A017A0BD000E07E
:10C4000081E09AA003F0D2FE94484178002904D03C
:10C41000012907D007E0A0A0F4E792490C809249D7
:10C420000C8000E0447044748A490498083940182C
:10C430000121FBF7A9F98A4801888A4800880A186F
:10C4400089480088101A04F07AFA844FB88C0143A6
:10C4500002D00898FFF7B6FC0598406A0004000C6B
:10C4600002D1F88C002802D00898FFF7F5FAF87886
:10C4700001280CD1E87AA97A00020843F98A884297
:10C4800005D80898FFF709FE3C713C837C70E87D75
:10C49000012823D13879012820D1387B002802D007
:10C4A00001280ED01AE0687E297E00020843398BED
:10C4B000884213D8002811D00898FFF70CFE3C835F
:10C4C0003E73E87EA97E00020843398B884205D876
:10C4D000002803D00898FFF7FEFD3C8378780028F9
:10C4E00000D02FE50698007D0128FAD1B87A0028FF
:10C4F000F7D1788C73498842F3D30898FFF7CDFDC4
:10C500007C727C841EE52846FBF730F90898FFF71B
:10C51000A3FAFCE6E08C0028F5D10898FBF7C0FDF3
:10C5200010E50120FFF7DCF94C4A5078002817D0BD
:10C5300020461446D084FFF785FD024621230121C1
:10C540000898FBF787FC08998842CAD1E87BA97B49
:10C550000002084300D0A083A079002820D025E065
:10C56000FFF78DFD20469084D084E8791446A979A0
:10C5700002020A43212301210898FBF76BFC08996A
:10C580008842AED1E87BA97B0002084300D0A0839B
:10C590000898FBF7CAFC387A0028A2D04AA009E024
:10C5A000687B297B0002084300D0A671387A0028F6
:10C5B00097D04FA003F0FAFDC4E4F1B586B000F0C7
:10C5C000BBFC00F0B9FC0646293600F0B5FC45304E
:10C5D000009000F0B1FC4E300025049002956846B2
:10C5E0008581069884041B482018FBF7CBF81A496C
:10C5F000671817280FD002DC00280DD141E1182858
:10C60000FCD01C2808D1FF25144C2D04786A0004A6
:10C61000000C02D12EE17FE023E124E1203E2053F3
:10C6200045473A434F4E4E454354494F4E204641AD
:10C63000494C4544202D204475706C6963617465D4
:10C6400020495020616464726573730D0A00000014
:10C65000A44D01003000014600020146FC0000200C
:10C66000EA020020E6020020E8020020203E2053DB
:10C6700045473A434F4E4E454354454420544F207E
:10C680002D2025642E25642E25642E2564203A2035
:10C6900025640D0A00000000203E205345473A4320
:10C6A0004F4E4E45435445442046524F4D202D2079
:10C6B00025642E25642E25642E2564203A202564C9
:10C6C0000D0A000088130000203E205345473A54CD
:10C6D00043505F4D495845445F4D4F44453A53459B
:10C6E000525645525F534F434B4F50454E0D0A0033
:10C6F000203E205345473A5443505F4D49584544E6
:10C700005F4D4F44453A434C49454E545F534F4368
:10C710004B4F50454E0D0A00FC482018FBF732F8ED
:10C72000C00738D00220FFF7DBF8F948C18A00299A
:10C7300006D1F17AB27A0902114301D00121C17008
:10C740000499097D00293CD001214172458400985B
:10C75000007A002815D002AA04210698FBF7CEFF24
:10C7600003AA05210698FBF7C9FF68468189C07AAC
:10C77000009001916846837A427A017AE54803F095
:10C7800015FDE54801210580E4480580DF480830B3
:10C790002018FAF7F9FFE2480188DF4800880A18F4
:10C7A000DE480088101A04F0CAF8D94CA08C014366
:10C7B00002D00698FFF706FB786A0004000C06D149
:10C7C00002E001218172C2E7E08C002802D00698C5
:10C7D000FFF742F9E07801280BD1F07AB17A000234
:10C7E0000843E18A884204D80698FFF756FC257171
:10C7F0002583F07D012824D12079012821D1207BB7
:10C80000002802D001280FD01BE0707E317E00028C
:10C810000843218B884214D8002812D00698FFF7CD
:10C820005AFC258301202073F07EB17E000208436C
:10C83000218B884205D8002803D00698FFF74BFCCF
:10C8400025830498007D01280BD1A07A002808D107
:10C85000608CB449884204D30698FFF71EFC6572C9
:10C86000658407B0F0BD2846FAF780FF0698FFF709
:10C87000F3F8CBE6E08C0028F5D10698FBF710FC26
:10C88000EFE70120FFF72CF8FFF7F9FBA04C21237D
:10C89000A584E584F079B17902020A430121069862
:10C8A000FBF7D8FA06998842DBD1F07BB17B000216
:10C8B000084300D0A0830698FBF737FB0098007A66
:10C8C0000028CED098A003F071FCCAE7F1B584B07F
:10C8D00000F032FB00F030FB0546293500F02CFB60
:10C8E0004530009000F028FB0024684602948481C3
:10C8F00004988604854810303018FAF743FF9349AE
:10C900007718172826D019DC00287DD0132814D1D9
:10C91000687B2A7B01027E481143C28B91420CD86E
:10C92000C483FFF7DEFB012807D0687A297A020268
:10C930000A43A91C0498FBF72FFB9DE41828E4D0B8
:10C940001C28FAD1FF25724C2D04786A0004000CD3
:10C950007CD1A9E06D483018FAF714FFC00745D024
:10C960000220FEF7BDFF6A48C18A002906D1E97A94
:10C97000AA7A0902114301D00121C170018B00295B
:10C9800004D1E97D002901D0012101716048012114
:10C9900081728079012802D15D488471C483009836
:10C9A000007A002816D002AA04210498FBF7A6FEFC
:10C9B00003AA05210498FBF7A1FE68468189C07A85
:10C9C000009001916846837A427A017A51482C3866
:10C9D00003F0ECFB504801210480504804804C488F
:10C9E000C4734A4808303018FAF7CEFE4C48018824
:10C9F000494800880A1849480088101A03F09FFF28
:10CA0000434EB08C014300E055E002D00498FFF79C
:10CA1000D9F9786A0004000C02D1F08C002802D009
:10CA20000498FFF719F8F07801280BD1E87AA97A71
:10CA300000020843F18A884204D80498FFF72DFBCE
:10CA400034713483E87D012801D015E425E0307984
:10CA50000128FAD1307B00280FD00128F5D1E87EDB
:10CA6000A97E00020843318B8842EED80028ECD022
:10CA70000498FFF730FB34835FE7687E297E00026D
:10CA80000843318B8842F7D80028F5D00498FFF787
:10CA900022FB348301203073E1E72846FAF766FE73
:10CAA0000498FEF7D9FF50E7E08C0028F5D10498F0
:10CAB000FBF7F6FA41E70120FEF712FFFFF7DFFA76
:10CAC000134EB484F484FFF7BDFA024621230121FA
:10CAD0000498FBF7BFF904998842CDD1E87BA97B84
