:020000040000FA
:1070000080350020ED71000001FD0100F7710000E6
:107010000000000000000000000000000000000070
:107020000000000000000000000000000DFD010055
:10703000000000000000000015FD01001DFD010022
:1070400025FD01002DFD010035FD01003DFD010084
:1070500045FD01004DFD010055FD01005DFD0100F4
:1070600065FD01006DFD010075FD01007DFD010064
:1070700085FD01008DFD010095FD01009DFD0100D4
:10708000A5FD0100ADFD0100B5FD0100BDFD010044
:10709000C5FD0100CDFD0100D5FD0100DDFD0100B4
:1070A000E5FD0100EDFD010000F002F800F057F8E9
:1070B0000CA030C8083824182D18A246671EAB460D
:1070C00054465D46AC4201D100F049F87E460F3E81
:1070D0000FCCB6460126334200D0FB1AA246AB467F
:1070E0003343184700A2000020A200000023002420
:1070F00000250026103A01D378C1FBD8520700D3EF
:1071000030C100D50B60704710B5642902D108F07A
:107110007BFC10BD752902D108F076FC10BD7829E2
:1071200002D108F0A7FC10BD632902D109F004FCCC
:1071300010BD732902D109F007FC10BD002010BD5D
:107140001FB508F0B7FD09F06FFB04000020002117
:1071500009F070FD401C60601FBD10B510BD09F046
:10716000F3FC1146FFF7ECFF03F0CFFA09F01AFD2C
:1071700003B4FFF7F2FF03BC02F097FE30B40C49F2
:107180000C684A6823681068C0181060241D121D1E
:107190008C4207D28A4208D20C604A6030BC400060
:1071A000400870470C00DC3CF6E70A00DC3AF3E7E5
:1071B0001829002070B505460C46164602E00FCC93
:1071C0000FC5103E102EFAD2082E02D303CC03C5F1
:1071D000083E042E07D301CC01C5361F03E02178F9
:1071E0002970641C6D1C761EF9D270BD074880475B
:1071F00007480047FEE7FEE7FEE7FEE7FEE7FEE79B
:1072000004480549054A064B7047000037720000E4
:10721000A97000008029002080350020802D0020EA
:10722000802D002036480068704735484068704718
:107230003448006A704710B53348816B334A116196
:10724000C16B304841600021016241698907CA0F62
:10725000012191404269D207D20F9140CAB24169DF
:1072600040698904890E51438002294A800E5043A7
:1072700008F015FF2249086010BDF8B5254F01261A
:10728000204D01280FD000202862214C10462146B5
:1072900008F005FFC0B2012808D8EE616F61012136
:1072A0000A46134619E02E620C46EFE70021E96119
:1072B000FF2101318006800A084368616869800700
:1072C000C00F86406869C007C00F86406869F2B287
:1072D0008004810E68698002830E2046084C514369
:1072E0006060584308F0DBFE2060F8BD30B4064B08
:1072F0009C6B064D2C61DB6B024C636030BCBCE7C1
:10730000000000200010004180FD03000012004139
:1073100000127A000001020041210906002801D074
:10732000032000E001200860704741210906486001
:1073300070470120412109068860704741200006FE
:10734000C06880B2704741210906002800D00220A1
:10735000086170474120000600690006000E00D059
:107360000120704701204121090608617047002073
:10737000D2E700B50120FFF7CFFF0020FFF7E3FFC2
:1073800000BD00003F4A3F4B01218032984201D1AD
:10739000116070473B4B2033984201D11162704716
:1073A000394A394B80329842F2D0374B20339842D9
:1073B000F4D07047334A334B0121C943803298429D
:1073C00001D1116070472F4B2033984201D11162D7
:1073D00070472D4A2C4B80329842F2D02A4B2033F2
:1073E0009842F4D070478168802291438160704751
:1073F00081688022914381600021016020228260A7
:1074000081617047826880239A4382600A680260C3
:1074100082684B689B0113438A6892001A43CB68C9
:1074200009695B0013431943EF22114081607047E3
:1074300020220129816802D0914381607047114365
:10744000FBE70121C16070474069C0B270478068A6
:107450008006C00F704781688022114381607047A9
:1074600000687047016070474068704780687047E7
:107470008160704700697047406970478069704754
:1074800081617047001000400020004070B510245A
:10749000002101604160BF4A4261426281624263F1
:1074A00021225206904202D1BB4BBC4A0CE043223F
:1074B0001206904204D1B84BB84A4033403203E040
:1074C000B54BB64A803380320020602685005E517D
:1074D0005151401CA042F9D370BDF0B521220023C8
:1074E00010265206904201D1AB4A08E04322120610
:1074F000904202D1A84A403201E0A74A80320124DA
:1075000025460F689D402F40AF4243D10F79012F90
:107510000DD045614D79AD070DD59C001559AD08CD
:10752000AD001551155902273D4315510BE0076970
:107530002F430761EEE79D005759BF08BF00575121
:107540005759274357514C79640704D59C00155966
:1075500004273D4303E09C0015590427BD43155102
:107560004C79A40604D59C00155920273D4303E01F
:107570009C0015592027BD4315514C79640604D54C
:107580009C00155940273D4303E09C0015594027B6
:10759000BD4315515B1CB342B1D3F0BD7D490160C1
:1075A000002101716221417170470246126800207A
:1075B0000A4200D001207047006880B2704702463E
:1075C000526800200A4200D001207047406880B213
:1075D00070470A06920D012312189B02D2181160FF
:1075E0000A0A920010185A0080180160704710B5FE
:1075F0000B069B0D0124CA431B18A4021B191A6019
:10760000090A8900081861004018026010BD10B511
:107610000B069B0D01241B18A4021B191A60090AF2
:107620008900081861004018026010BD4160704771
:10763000836A0B438362012A03D0426A0A4342628F
:107640007047026A0A4302627047524A8262012905
:1076500001D04262704702627047012A03D0426B38
:107660000A4342637047026B0A4302637047494A08
:10767000012901D042637047026370474549816325
:1076800070470246926B00200A4200D001207047EA
:10769000F0B50126414D002334469C400C420ED0EB
:1076A000002810D0012811D03C4C9F0080343C1998
:1076B0002768BF08BF0027602768174327605B1C47
:1076C000102BE9DBF0BD9C006419F1E79C00641904
:1076D000276CBF08BF002764276C17432764EEE7B9
:1076E0007CB504461E460D466846FFF757FF6846C0
:1076F0000095027169462046FFF7EFFE2120400603
:10770000844201D1002006E043200006844201D1DA
:10771000012000E0022032462946FFF7B9FF7CBD78
:107720007CB5044616460D466846FFF737FF002035
:107730006946009508712046FFF7CFFE206A28436E
:107740002062A06A2843A062324629462046FFF7FD
:1077500084FF21204006124E844206D100200122DF
:107760002946FFF795FF802012E04320000684425F
:1077700007D1012002462946FFF78AFFFF2001308A
:1077800006E0022001222946FFF782FF0120400285
:1077900030607CBDFFFF0000003000410020004150
:1077A00000E100E0E12149020160602181800021C7
:1077B000C180032201811202428181817047016BE5
:1077C0004908490001637047F8B50446006B0E464E
:1077D000400840002063FFF72BFD8A4F0125002859
:1077E00046D03D61FFF71EFD7A692946914008F0B9
:1077F00056FC07463068000108F0F0FF009038465C
:1078000008F0ECFF009908F0F5FE074608F0A2FF2B
:10781000009008F0E3FF394609F068FA062108F005
:10782000E1FF08F0BDFE0022774B08F065FE08F08E
:1078300093FE014600986062A162E06AEE218843EF
:10784000B188F288114332890243E06A1143084348
:10785000E062206B6D49B289084071891143014390
:10786000206B08432063206B284320630020F8BD71
:10787000022038617869294681406548B7E710B52C
:10788000C36A10242343C3624907890E5207520F6B
:107890001143416310BDC16A10229143C162704718
:1078A00001607047006880B27047C16A01221143CD
:1078B000C16270470246526800200A4200D001208F
:1078C0007047416070470246926900200A4200D02A
:1078D00001207047002A826B01D00A4300E08A43EE
:1078E000826370470246126C00200A4200D00120D9
:1078F0007047426C0A4342647047704710B50446B3
:107900004448016B02290AD0006B032807D0FFF717
:1079100089FC214608F0C3FB3F49086110BDFFF711
:1079200084FCF6E710B5FFF7E9FF3B4988680322BE
:107930008008800010438860002010BD36494A68E6
:10794000D207FCD1086070473348006880B27047A6
:10795000314A0146526800200A4200D00120704797
:107960002D4A0029916801D0014300E081439160D4
:107970007047294A0029916801D0014300E0814302
:1079800091607047244A0146D26800200A4200D024
:10799000012070472049CA680243CA6070470160ED
:1079A00082691207FCD40846704730B50B4605467D
:1079B0001C78002C03D021462846FFF7F0FF5B1C03
:1079C000002CF5D130BD8169C906FCD40068C0B275
:1079D000704700B50346FFF7B1FF184600BD10B56C
:1079E00003461C78002C02D02046FFF7A7FF5B1C43
:1079F000002CF6D110BD084841688907FCD5006805
:107A0000C0B27047401100410000E03FFE3CFFFF64
:107A100000127A00001000410060004000787047BA
:107A20000170704730B5002405E00D19ADB2455D19
:107A30001555641CA4B29C42F7D330BD70B5002428
:107A400005E00E19155DB6B28555641CA4B29C42C2
:107A5000F7D370BD70B514000FD01A4A83049E1876
:107A6000F268400795B2184AC00A10430A462346F6
:107A70002946FFF7E3FF2819F06070BD70B51400C8
:107A80000FD0104A83049E18B26A400795B20F4A7D
:107A9000C00A10430A4623462946FFF7C3FF2819A8
:107AA000B06270BD10B500290BD0064A83049B1844
:107AB0009A6A4007054CC00A5118204389B2081839
:107AC000986210BD00020146000002460000034615
:107AD00070B50446082802D90020C04370BDFA489A
:107AE000A604301805461021FFF79AFF2846FFF735
:107AF00095FF0028FAD1F4481F2118303018FFF7FD
:107B00008FFFF24801218288A1408A438280F04A97
:107B1000002061005052ED49891D0855EA48203087
:107B200034182046FFF77AFF0028FAD1012070BDF3
:107B3000F8B51C4616460F460546082802D900200F
:107B4000C043F8BD012F06D0022F04D0042F02D06D
:107B50000420C043F8BD6007810FDE48FAD1002C35
:107B60000CD0012F02D0022F08D103E021210C42BA
:107B7000F0D003E0A10601D52106EBD52846FFF79A
:107B8000A7FF21090901D0483943AF04103838183C
:107B9000FFF746FF002E0AD1CC48CF4A0688711C59
:107BA00089B20180914202D1032189030180C64834
:107BB000F03038184661C448012138180646FFF7EE
:107BC0002FFF3046FFF72AFF0028FAD1BF48E10710
:107BD000C90F4288A9401143418001218288A940F0
:107BE0008A438280BA4A002069005052B749891DF1
:107BF0004855B54820303C182046FFF70FFF0028B5
:107C0000FAD068B2F8BD70B50646082802D900203F
:107C1000C04370BDAC48B40410382018FFF7FEFE16
:107C20000007000F012802D00420C04370BDA64801
:107C3000203020180546FFF7F1FE132802D002205D
:107C4000C04370BDA048022120180446FFF7E8FE9B
:107C50002046FFF7E3FE0028FAD12846FFF7DEFEB4
:107C6000142805D03046FFF733FF0320C04370BD12
:107C7000012070BDF7B50D460746082802D900203F
:107C8000C043FEBD9048BC0410382018FFF7C6FE64
:107C90000007000F012802D00420C043FEBD8A481F
:107CA000203020180646FFF7B9FE132802D0022024
:107CB000C043FEBD29786A7808028018AA780002BD
:107CC0008018EA7800028018421C32D0002830D098
:107CD0000298002830D081482018FFF7A1FE7F4885
:107CE0006978401E2018FFF79BFE7C48A978801E0B
:107CF0002018FFF795FE7948E978C01E2018FFF795
:107D00008FFE764902982739611808626E4804216F
:107D100020180546FFF784FE2846FFF77FFE00285F
:107D2000FAD16A4901204988B84008421CD0002095
:107D3000FEBD0B20C043FEBD0A20C043FEBD284649
:107D4000FFF76CFE000708D55F480821183020189F
:107D5000FFF766FE0C20C043FEBD3046FFF75EFE17
:107D6000002804D1001FFEBD5748103025183046AA
:107D7000FFF754FE1728E2D10120FEBD70B506467C
:107D8000082802D90020C04370BD4F48B504103800
:107D90002818FFF743FE0007000F012802D0042037
:107DA000C04370BD4848082128180446FFF738FE34
:107DB0002046FFF733FE0028FAD1444901208A8883
:107DC000B04082438A80498808420CD0002070BDB0
:107DD0002046FFF723FE00070BD53046FFF778FE5D
:107DE0000C20C04370BD384810302C183648203065
:107DF0002D182846FFF712FE0028E9D1012070BD9A
:107E0000F7B582B002981446082803D90020C04371
:107E100005B0F0BD86042C4810383018FFF7FEFD81
:107E20000007000F012802D00420C043F0E7002C17
:107E30000CD02548203030180190FFF7EFFD1728AF
:107E400007D01C2805D00620C043E1E70D20C04321
:107E5000DEE7029801251D4F8540B888054211D004
:107E6000194810303018FFF7D9FDC006C00EC10602
:107E700021D51548102118303018FFF7D1FDB888EA
:107E8000A843B8801548D93030180090FFF7C6FDD8
:107E90008006000C844200D904460098406887B2EE
:107EA0000198FFF7BBFD17281AD01C2818D002989C
:107EB000FFF70EFEC7E7000718D50298FFF708FE88
:107EC0000C20C043A4E70000100001460800002079
:107ED00030030020FAFFFFFFF0FF000027010146FA
:107EE000FE484088054203D0BC4201D900208FE7FC
:107EF000BC42D2D8224603990298FFF7ABFDF8485E
:107F0000202130180646FFF78BFD3046FFF786FD2F
:107F10000028FAD1F14881880D438580204677E713
:107F2000F7B582B002981446082802D90020C04351
:107F30006EE78704EA4810383818FFF76FFD00072E
:107F4000000F012802D00420C04361E7002C19D0A3
:107F5000E4483818FFF762FD8006000CA04200D20A
:107F60000446DF48203038180090DE4820383E189C
:107F7000706A85B20098FFF751FD172815D01C28AC
:107F800003D00CE00D20C04342E7002D1AD130464B
:107F9000FFF744FD7168800289B2884205D10298DA
:107FA000FFF796FD0620C04332E702990120884082
:107FB000CA494988084203D0002D03D1002027E791
:107FC000002DD5D0A54200D22C4622460399029816
:107FD000FFF754FDC248402138180546FFF720FD41
:107FE0002846FFF71BFD0028FAD1204610E7FFB511
:107FF00083B003981E461546082803D90020C043C5
:1080000007B0F0BD8404B64810382018FFF706FD0D
:108010000007000F022804D0042802D00420C04327
:10802000EEE7002D1DD03078717800024018B1784D
:1080300000024018F1780002C84202D10B20C04370
:10804000DEE70C9800280FD0A548203020180746FE
:10805000FFF7E4FC42280AD0222808D00620C043BB
:10806000CEE70D20C043CBE70A20C043C8E79D48B8
:108070003178F9382018FFF7D3FC9A487178FA382C
:108080002018FFF7CDFC9748B178FB382018FFF790
:10809000C7FC9448F178FC382018FFF7C1FC9049E0
:1080A0000C98F031611808628E4820382018019031
:1080B000FFF7B4FC8006000C854200D90546039901
:1080C0000120884000900198406886B23846FFF74A
:1080D000A5FC002808D0814900984988084206D0AC
:1080E000B54204D900208BE70320C04388E7B5429E
:1080F000E9D82A4604990398FFF7ACFC7848202178
:1081000020180746FFF78CFC7548183026183846AB
:10811000FFF784FC0028FAD171481030241820465B
:10812000FFF77CFCC006C00EC10605D53046102105
:10813000FFF776FC284663E70007F0D530460821B4
:10814000FFF76EFC0C20C0435AE7FFB5002485B052
:108150000646082802D9601E09B0F0BD6048B50483
:1081600010382818FFF75AFC04900007000F022867
:1081700004D0042802D00420C043EDE7079800286B
:1081800005D059487700C05B002803D022E00D20BD
:10819000C043E1E753482038281803905048203066
:1081A00028180125B54002900398406A84B20298CD
:1081B000FFF734FC002806D048484088054207D025
:1081C000002C03D006E00320C043C5E70020C3E72E
:1081D000002CE9D041480021801D81550498B2044B
:1081E00041073F48490F151802291FD0042957D0CD
:1081F00021463046FFF756FC3B48C45328464021F1
:10820000FFF70EFC2846FFF709FC0028FAD1364894
:10821000C15B091B0904090CC15305D02F48012279
:10822000801D815D11438155204695E72E4CE05B12
:10823000002865D1082269463046FFF71FFC284612
:108240004021FFF7EDFB2846FFF7E8FB0028FAD1B5
:10825000684601780898017068464178089841702E
:1082600068468178089881706846C1780898C1701E
:1082700068460E990079088001026846407908181E
:108280000E9908806846807901026846C07908180E
:10829000E05332E0224630460699FFF7EFFBADE7A8
:1082A000114CE05B00282BD1022269463046FFF7D3
:1082B000E5FB28464021FFF7B3FB2846FFF7AEFB5E
:1082C0000028FAD16846007801026846407808180C
:1082D00080B20649E05388420FD909E00800002027
:1082E000100001462002014630030020EA0500008C
:1082F0003046FFF7EDFB9E482EE79E4980208855CB
:10830000E45B07988442C5D90446C3E7F8B5144630
:108310000646082802D90020C043F8BD954B964870
:108320009B1F0927B2045D88FF4310180B0008F05B
:108330006CFC0805171B1D252E37314021780120C4
:10834000B040012902D0002905D032E08949891FB7
:10835000284348802BE08749891F85434D8026E0CC
:10836000F540E807C00F19E0844801E08348203059
:108370001018FFF753FB8002208018E020781F2898
:1083800017D8C1067C48C90E001D10180DE07A48A8
:10839000001F1018FFF742FBC006C00E207006E059
:1083A00021781F2905D8C906C90EFFF739FB01201E
:1083B000F8BD3846F8BDF8B51546082802D90020A2
:1083C000C043F8BD84046D4B6B4A6B48803BDC3284
:1083D00024380427E618A2182018FF430B0008F0E1
:1083E00014FC084F050910421316444F62482978BF
:1083F000E43002E060482978E0302018FFF710FBF5
:1084000031E0288810612EE0288810622BE0FFF709
:1084100005FB0007000F01282DD13046FFF7FEFABB
:10842000002802D00120C043F8BD5348222114384F
:1084300020180546FFF7F4FA4F48001F26180DE0F4
:108440003046FFF7EBFA000708D54B480821001D1E
:108450002018FFF7E5FA0C20C043F8BD2846FFF7C7
:10846000DDFA0028ECD10120F8BDFFF7D7FA0007AC
:10847000000F012801D03846F8BD29783046BDE705
:108480000920C043F8BDF8B514460646082802D9AD
:108490000020C043F8BDB5043748374A374B24386D
:1084A000DC32EF182818AA180B0008F0AEFB0D08F4
:1084B0000D121517305E323E404248525E00FFF703
:1084C000ADFA0009000102E02B48E43033E02070EF
:1084D0003DE02948E0302EE01069F8E72748D93818
:1084E0002818FFF79BFA20702448DA382818FFF77D
:1084F00095FA60702148DB382818FFF78FFAA070D2
:108500001E48DC382818FFF789FAE0701FE0106A6F
:108510001CE0FFF783FA0007000F01281FD117485E
:1085200080382818FFF77AFA10E078680EE0786A49
:108530000CE011480C302818FFF770FAC7E7FFF776
:108540006DFA0128F3D00E497000085A20800120EE
:10855000F8BDFFF763FA0007000F012802D00420DE
:10856000C043F8BD0348805DB1E70120C043F8BDBA
:1085700017FCFFFF0E000020240001460002014608
:10858000300300207047704770477047007870478D
:1085900001707047002070477047FE4A002804D0E1
:1085A000002902D0D16090607047FB489060FB4882
:1085B000D0607047F74A002804D0002902D05161EA
:1085C00010617047F6481061F6485061704710B569
:1085D000F04A1388DC05FDD5002804D0002902D01C
:1085E000D161906110BDF0489061F048D06110BD3C
:1085F00010B5E84A13889C05FDD5002804D0002951
:1086000002D0D161906110BDE9489061E948D06124
:1086100010BD0020C04370470020C043704710B514
:10862000E548FFF7FBF90446E3481030FFF7F6F999
:108630000002001980B210BD10B5C1B2040A0909C8
:108640000901DD48FFF7ECF9DB4821461030FFF760
:10865000E7F910BDD84810B5001FFFF7DFF9044651
:10866000D5480C30FFF7DAF90002001980B210BDCE
:1086700010B5C1B2040AD04809090901001DFFF76D
:10868000CFF9CD4821460C30FFF7CAF910BDF0B53F
:1086900093B0CA48FFF7C2F91190C848401EFFF7CF
:1086A000BDF9C64C1090A41E2046FFF7B7F9651E11
:1086B0000F902846FFF7B2F90E90A01DFFF7AEF914
:1086C0000D90601DFFF7AAF90C90BC480830FFF729
:1086D000A5F90B90B948C01DFFF7A0F9B74E0A9055
:1086E000B61D3046FFF79AF90990E01DFFF796F99D
:1086F0000890B01DFFF792F90790701DFFF78EF9F3
:108700000690301DFFF78AF90590F01CFFF786F9F7
:108710000490AA481030FFF781F9A84F03900F3753
:108720003846FFF77BF90290781EFFF777F9019042
:10873000F01DFFF773F900908021A148FFF770F951
:108740009F48FFF76BF9A01C1199FFF769F9601CAE
:108750001099FFF765F920460F99FFF761F9284650
:108760000E99FFF75DF9A01D0D99FFF759F9601DEE
:108770000C99FFF755F9B01C0B99FFF751F9701CD4
:108780000A99FFF74DF930460999FFF749F9E01DBD
:108790000899FFF745F9B01D0799FFF741F9701DDA
:1087A0000699FFF73DF9301D0599FFF739F9F01CDF
:1087B0000499FFF735F9781C0399FFF731F938462A
:1087C0000299FFF72DF9781E0199FFF729F9F01D9D
:1087D0000099FFF725F913B0F0BDF8B50D46064630
:1087E0000024FFF754FF002E14D00022B05C521C6E
:1087F000001952B244B2082AF8DB102C17DC714F72
:108800000024A004315DC019FFF70AF9641C64B2AA
:10881000082CF6DB002D19D0002108462A5C401CEC
:10882000511840B249B20828F8DB102902DD0020B7
:10883000C043F8BD634E00242036A004295D801992
:10884000FFF7EEF8641C64B2082CF6DB0020F8BDDC
:1088500070B50C460246002108464D1E130008F074
:10886000D4F90906091511181C2E2E202E00FFF729
:108870000EFF22E0002C02D0214620460831FFF7EF
:10888000ACFF70BD2088FFF7F3FE16E0FFF7E2FEB5
:1088900005E02088FFF7D0FE0FE0FFF7C0FE208044
:1088A0000BE03C4882782270C27862700279A27034
:1088B0004279E270807920716171002070BD284694
:1088C00070BD10B504463D484130FFF7A7F8207051
:1088D0003A483D300068608010BD10B5017804460C
:1088E000002903D035484130FFF79AF833496088B2
:1088F0003D31086010BD10B53148FFF78FF810BD4D
:1089000070B50446C720044202D00020C04370BDA9
:108910002B4D2846FFF782F8204301462846FFF7F3
:108920007FF8002070BD10B504462448FFF776F8A4
:1089300020702248401EFFF771F860701F48801EAB
:10894000FFF76CF8A0701D48C01EFFF767F8E070D5
:108950001A48001DFFF762F820711848C01CFFF785
:108960005DF8607115480830FFF758F8A073134898
:10897000C01DFFF753F8E0731048801DFFF74EF855
:1089800020740E48401DFFF749F860740B480C3006
:108990001AE0000020000020858500008785000087
:1089A000898500008B8500008D8500009185000081
:1089B000958500009985000004210046036000466B
:1089C0000023004600020146FFF728F8A0725F4826
:1089D000FFF724F8E0725D48401EFFF71FF8207390
:1089E0005A48801EFFF71AF860735848401DFFF779
:1089F00015F8A0715548001DFFF710F8E0715348B5
:108A0000C01CFFF70BF820725048801CFFF706F8D7
:108A100060724F480178A1744178E17481782175C2
:108A2000C07860754A48401E0078A07510BD10B52A
:108A30000446017845480B38FEF7F2FF4348617859
:108A40000C38FEF7EDFF4148A1780D38FEF7E8FF3E
:108A50003E48E1780E38FEF7E3FF3C482179C01F1D
:108A6000FEF7DEFF394861790838FEF7D9FF37484D
:108A7000A17BC01EFEF7D4FF3448E17B001FFEF748
:108A8000CFFF3248217C401FFEF7CAFF2F48617C90
:108A9000801FFEF7C5FF2D48A17A401CFEF7C0FFDE
:108AA000E17A2A48FEF7BCFF2848217B401EFEF7EA
:108AB000B7FF2648617B801EFEF7B2FF2348A179ED
:108AC000401DFEF7ADFF2148E179001DFEF7A8FF2C
:108AD0001E48217AC01CFEF7A3FF1C48617A801C47
:108AE000FEF79EFF1A48A17C0170E17C4170217D58
:108AF0008170617DC1701649A07D491E087010BD4E
:108B000010B50C46030008F080F80604080C101499
:108B1000181D0846FFF78BFF12E00846FFF703FF1A
:108B20000EE00878FFF7ECFE10BDFFF7E4FE2070C2
:108B300006E00846FFF7D1FE02E00846FFF7C1FE57
:108B4000002010BD0020C04310BD00000E60004694
:108B50001900002070B5914C054620882861618875
:108B60002846FEF736FD012001F0C7FD6188284642
:108B7000FEF73DFD012001F0C0FD70BDF8B50746D0
:108B80000020864D0446460069883846FEF721FDE0
:108B9000012001F0B2FD69883846FEF728FD01206A
:108BA00001F0ABFD29883846FEF7FFFC3043641C1A
:108BB000102CE8D3F8BD70B5784C05462088686164
:108BC000012001F09AFD61882846FEF702FD012090
:108BD00001F093FD61882846FEF709FD012001F0B0
:108BE0008CFD70BDF8B5074616462020801B8140DD
:108BF0000C466A4D18E02988002C384602DAFEF748
:108C0000E8FC01E0FEF7F3FC012001F076FD698845
:108C10003846FEF7DEFC012001F06FFD698838461A
:108C2000FEF7E5FC6400761E002EE4D1F8BD70B5B9
:108C30000C46002105462022C943FFF7D3FF04223A
:108C400006212846FFF7CEFF5448052241682846F2
:108C5000FFF7C8FF052221462846FFF7C3FF284635
:108C6000FFF7A9FF2846FFF789FF04462846FFF7CC
:108C700071FF204670BD10B5432001210006FFF7AB
:108C8000D6FF4007C00F10BD70B50C461646002138
:108C900005462022C943FFF7A5FF042205212846E7
:108CA000FFF7A0FF3D48052241682846FFF79AFFDD
:108CB000052221462846FFF795FF02221146284645
:108CC000FFF790FF102231462846FFF78BFF28461A
:108CD000FFF740FF70BD01221203904203D0212113
:108CE000090208400246002143200006CCE7F8B5FF
:108CF000002543273F06002400212022C94338468F
:108D0000FFF770FF042206213846FFF76BFF0522AC
:108D100021463846FFF766FF052201213846FFF756
:108D200061FF3846FFF747FF3846FFF727FF064643
:108D30003846FFF70FFF002E02D01948864209D1AE
:108D4000641C082CD8DD6D1CEDB216A006F0E8FD01
:108D5000022DD0D32046F8BD7CB5054614460E46FC
:108D60006846FEF71BFC3046204300900120694610
:108D700008712846FEF7B1FB012221461046FEF796
:108D800087FC012231461046FEF782FC034D6E80BF
:108D90002C80FFF7ACFF68607CBD00004000002025
:108DA000FFFF00000D0A7068792069642064657413
:108DB000656374206572726F7221210D0A000000D4
:108DC00010B5FE4CFE482178FEF72AFEFC4861787B
:108DD000401EFEF725FEFA48A178801EFEF720FE11
:108DE000F748E178C01EFEF71BFEF54808342178ED
:108DF000001FFEF715FEF2486178401FFEF710FED7
:108E0000EF48A178801FFEF70BFEED48E178C01F08
:108E1000FEF706FEEA48241F21780838FEF700FE18
:108E2000E74861780938FEF7FBFDE548A1780A3884
:108E3000FEF7F6FDE248E1780B38FEF7F1FD10BDD4
:108E400010B5E04C80212046FEF7EAFD2046FEF7F3
:108E5000E5FDFFF7B5FFD94CD948393421781038F2
:108E6000FEF7DEFDD64861781138FEF7D9FDD4480B
:108E7000A1781238FEF7D4FDD148E1781338FEF717
:108E8000CFFDCF4821790C38FEF7CAFDCC48617977
:108E90000D38FEF7C5FD10BD10B5CA4C8021204627
:108EA000FEF7BEFD2046FEF7B9FDC44CC448393478
:108EB00021781038FEF7B4FDC14861781138FEF70B
:108EC000AFFDBF48A1781238FEF7AAFDBC48E17893
:108ED0001338FEF7A5FDBA4821790C38FEF7A0FD3E
:108EE000B74861790D38FEF79BFD10BDB34B10B547
:108EF000DB1FB54C5C62B54C9C62B54CDC62002853
:108F000000D05862002900D09962002A00D0DA62AD
:108F100010BD30B5A94B0120DB1FD96B087048701C
:108F2000062088700020C8709A6B120E0A719A6B26
:108F3000120C4A711A8F120A8A711A8FCA71D96B70
:108F4000802208818A72C872D96B1A4608734873E6
:108F50008873C873087448748874C8740875487531
:108F60008875C875087648768876C8764032147851
:108F70000C7754784C7794788C77D478CC770C46EF
:108F80001579203425705279627006228C18521C93
:108F9000D2B22077102AF9D3DA6B0021541820348A
:108FA000491CC9B220734029F8D3DA6B0021541848
:108FB0006034491CC9B220738029F8D3D86B63216F
:108FC000E03001738222427353228273C17330BD39
:108FD000FEB5FFF79EFF79490020293108704870DF
:108FE0008870C870091D087048708870C87034395E
:108FF000CB6B3522F021CA540127F121CF54F22145
:10900000CF543D22F321CA540722F421CA54F5213A
:109010006A4ACF5439321478F621CC5411464C7830
:10902000F721CC541446A578F824E5541446E57885
:10903000F924E55414462579FA24E5541446657953
:10904000FB24E5540C21FC24E154FD21C8541221D9
:10905000941D06E05E18E036491C401C357389B249
:1090600080B2255C002DF5D1544CD578E41FE36B1C
:109070005E18E0363573491C89B25E181579E03602
:109080003573491C89B25D185279E0352A73491C41
:1090900089B2C21C081AC018E0300272E06B372295
:1090A0004318E0331A73491C89B243180622E0338F
:1090B000491C1A7389B24318E033491C1F7389B2E3
:1090C00043180325E033491C1D7389B24318E0336C
:1090D0001A73491C89B243180F22E0331A73491CD2
:1090E00089B242183A23E0321373491C89B24218FC
:1090F0003B23E0321373491C89B2FF224318E0334B
:109100001A73491C0025FF2389B2393304E046183D
:10911000E036491C357389B29942F8D3684602712A
:1091200042718271C27143200090892201AB92008A
:10913000A078E16BFEF75BFFFEBDFEB5FFF7E9FE31
:109140001E4C0020E41FE11D20560B462933FF274B
:10915000032849D0042847D06846077147718771B2
:10916000C771E26B3520F025A8540120F125A854E1
:109170000320F225A8543D20F325A8540720F42508
:10918000A8540120F525A8540C48F625393000785C
:10919000A8540A48F72539304078A8540748F825DC
:1091A00039308078A8540548F9253930C078A8545A
:1091B000024839300079FA25A8540BE04F0000200E
:1091C0001360004600230046C18D0000418E000060
:1091D000998E0000FC48FB254079A8546D46ED7936
:1091E0001020FF2D16D039E0E06B00228272C2728F
:1091F0000A7802734A7842738A788273CA78C27393
:109200001A78684602715A7842719A788271DA78CF
:10921000C271A6E73225FC2085540425FD20855423
:109220000E78FE2086544E78FF2086548878AE0152
:10923000B054C978701C81543621401C8154401CA4
:1092400085541978401C81545978401C8154997870
:10925000401C8154D978401C81541C2013180C21C7
:10926000E0331973401C1318D74D0021E033AD1DB6
:109270001973401C05E01618E036401C337380B2A9
:10928000491C6B5C002BF6D1E36BCF4A1E18D578D6
:10929000E0363573401C80B21E181579E036357300
:1092A000401C80B21D185279E0352A73401C82B2EE
:1092B000C81C511AC918E0310872E06B37218318B5
:1092C000E0331973521C91B243180822E0331A7329
:1092D000491C89B243180122E0331A73491C89B230
:1092E00043180322E0331A73491C89B2431806223B
:1092F000E0331A73491C89B243180F22E0331A7302
:10930000491C89B242183A23E0321373491C89B2CE
:109310004218E0323B23491C137389B21F234218C1
:10932000E0321373491C89B242182123E0321373CF
:10933000491C89B24218E0321773491C0022FF23EE
:1093400089B2393303E04518E0352A73491C994244
:10935000F9DB43200090892201AB9200A078E16BF9
:10936000FEF745FEFEBD1CB5FFF7D3FD9648002174
:109370004038C06B35228172C172F0210A5401223B
:10938000F1210A540422F2210A543D23F3210B5403
:109390000722F4210A540122F5210A548A49F622AF
:1093A0000B7813544B78F72213548B78F82213540C
:1093B000CB78F92213540B79FA2213544A79FB2102
:1093C0000A543222FC210A540422FD210A547E4907
:1093D00039390A78FE210A547B4939394A78FF2104
:1093E0000A54794939398A78FF2101310A5476497A
:1093F0003939CA78FF2102310A543622491C0A54ED
:109400000422491C0A547049FF2210390B78053296
:1094100013544B78521C13548B78521C1354CA7833
:10942000FF2108310A54FF22491C0A541D21002340
:10943000FF2239324418E034491C23739142F9DB8E
:10944000FF206946087148718871C87143200090F7
:109450005D4889224038C16B01AB92008078FEF7ED
:10946000C6FD1CBDF0B5584C584A403CA07885B0AC
:1094700081048918496A0A04120C5BD003A900917F
:1094800001ABE16BFEF761FE83B268468089432839
:1094900070D1E06B4C49027F0D78AA424AD1427FDD
:1094A0004D78AA4246D1827F8D78AA4242D1C57FAB
:1094B000CA7895423ED102462032154616780A797E
:1094C000964237D16A7849798A4233D12146303180
:1094D0000D780A1D002D08D14E78002E05D18E780A
:1094E000002E02D1CE78002E27D06E463679AE42BD
:1094F0000ED16D466D794F78BD4209D16D46AD797B
:109500008F78BD4204D16D46ED79CF78BD4214D03D
:109510001578AE420ED16D466D795678B54209D1B7
:109520006D46AD799678B54204D16D46EE79D57821
:10953000AE4202D0002005B0F0BDF0300025C318C7
:10954000F03B15E00678332E42D008DC002E15D013
:10955000012E18D0032E21D0062E06D124E0352E60
:109560000ED0362E43D0FF2E06D04678801C8019B0
:109570009842E7D368B2DEE71846F9E7401CF7E700
:109580008578C01CF4E7104E8778313E3770C77875
:1095900077700779B7704779F7703CE0467887783D
:1095A000B446094E353E04E046788778B446064E08
:1095B0002D3E3770C77877700779B7704779801D6F
:1095C0006044F770001FD3E78800002000020146C6
:1095D0008678A661C7783602BF19A76106793F026F
:1095E000F719A76146793F02F619A66113E086785C
:1095F0000E70C6784E7006798E704679CE706E46C3
:10960000367916706E46767956706E46B6799670D3
:109610006E46F679D670801DAAE7E8480021C16140
:10962000052202624170704770B5E44C0125615714
:10963000002622469057022917DAE269216A9142F0
:1096400023D2012804D0022805D0042805D102E045
:10965000FFF7BEFC01E0FFF770FDE661E069401D29
:1096600020626078401C60700FE0012804D002285E
:1096700005D0042807D102E02670002503E0FFF79B
:10968000A7FC01202070FFF7C8FF284670BDF8B581
:10969000CB4E3046FEF7C2F9054603213046FEF7B1
:1096A000BFF9C64BC748DB1DDC1F00901122C6A1C5
:1096B000A078FEF79CFC074629463046FEF7B0F935
:1096C0000D3708D0FFF74FFEE069E169091A02295A
:1096D000FBD30020F8BD0120F8BDF8B5B74C2078C9
:1096E00006281ED0A078BD4980044018FEF796F9E0
:1096F000222805D0002344220221A078FEF718FA80
:109700000125FFF7AFFEC1B20022A256AB480026EA
:109710000127C01D130007F078FA05060D1C314C17
:109720002F000520F8BD067046708670C670FFF7E2
:109730004FFC5EE002291CD1E16B0A7C02704A7C7E
:1097400042708A7C8270C97CC170FFF7F6FC0220EF
:109750004BE005290BD1FFF79AFF002801D0606A82
:109760003FE0FFF75AFFE06A8047267004E00629D1
:109770003DD0FFF759FF05462846F8BDA1690425ED
:109780004A1CF9D0E26949089142F5D28B49027826
:10979000C91C0A7042784A7082788A70C078C87092
:1097A000A06B401CA063FFF7C8FCFFF736FF042046
:1097B0001BE004250529DAD180496670C91C0A78A6
:1097C00003789A420BD14A7843789A4207D18A7833
:1097D00083789A4203D1C978C078814202D0A06AC6
:1097E00003258047FFF719FF03202070C4E7FFF728
:1097F00014FF2770C0E710B5704CA078FEF768F929
:109800000620207010BDF3B56D4F83B006460025CD
:10981000413F38460095FEF701F9684C403420700E
:10982000781EFEF7FBF86070B81EFEF7F7F8A07020
:10983000F81EFEF7F3F8E070381DFEF7EFF8207120
:10984000F81CFEF7EBF86071014620786278E37847
:109850001043A2781A4310432279104308431FD1C2
:10986000257008206070DC20A070E5702571294605
:1098700065713846FEF7D4F86178781EFEF7D0F8A7
:10988000A178B81EFEF7CCF8E178F81EFEF7C8F80C
:109890002179381DFEF7C4F86179F81CFEF7C0F88D
:1098A000464F4F49BE700498F863E07863794218D8
:1098B00021798A1848409A1858408018B863684639
:1098C00001783F480C463138FEF7AAF868464078E0
:1098D000029001463A483238FEF7A2F8684680788E
:1098E0000190014636483338FEF79AF86846C67844
:1098F000334831463438FEF793F831482146313841
:10990000FEF78EF82E4802993238FEF789F82C4877
:1099100001993338FEF784F8294831463438FEF788
:109920007FF8274821463938FEF77AF8244802990B
:109930003A38FEF775F8224801993B38FEF770F87F
:109940001F4831463C38FEF76BF8FFF766FE3D7066
:10995000F1E51A48C169491CC16170471749C91D21
:109960000A7802704A7842708A788270C978C17029
:10997000704712490B310A7802704A7842708A782F
:109980008270C978C17070470C490F310A78027033
:109990004A7842708A788270C978C17070470749E6
:1099A00013310A7802704A7842708A788270C978D6
:1099B000C17070470148806970470000480000206E
:1099C0004460004688130000434845434B5F4950BC
:1099D0005F434F4E464C494354000000300001465F
:1099E00078563412017840780902401880B27047E6
:1099F0000A0A02704170801C7047F0B5844600204E
:109A0000054606460C78491C002D00D1401C27064F
:109A1000BF0F032F0AD1002D00D1401CA4060978E6
:109A2000A40C6444091901250C78491C002C19D098
:109A30001B1B5B1E1BB2002B02DA0020C043F0BDD3
:109A4000002D05D1001903E00F781770491C521C36
:109A50002746641EA4B2002FF6D12E241470521C87
:109A6000761CCFE7002E02D12E211170521C00214E
:109A70001170F0BD10B593B00C464B236A46FFF74A
:109A8000BCFF411C03D02018001D13B010BD0020E6
:109A9000FBE770B593B015460C4606464B236A4665
:109AA000FFF7ABFF411C46D024182046FFF79AFF72
:109AB0000A34030007F0A9F8103C09133C3C1329B1
:109AC0001313133C3C13183C1F3C2078287060781B
:109AD0006870A078A870E078E870241D28E04B2317
:109AE0006A460BE0241823E02078641C20180178D3
:109AF000401C44181CE04B236A46A41C21463046F7
:109B0000FFF77BFF411C16D0ECE74B236A4621464A
:109B10003046FFF772FF411C0DD024184B236A46D4
:109B200021463046FFF769FF411C04D02418143445
:109B3000204613B070BD0020FBE7F7B50D46044684
:109B4000122106F014FA2846FFF74CFF2080A81CCB
:109B5000FFF748FF02040121002A00DAA170420445
:109B6000120FE270420500D52171820500D56171A6
:109B7000C20500D5A171020600D5E1710007000FF2
:109B80002072281DFFF72EFF6081A81DFFF72AFF16
:109B9000A08128460830FFF725FFE08128460A30DB
:109BA000FFF720FF29460C3100262082771E06E0B1
:109BB0002846FFF75FFF010014D0761CB6B260891B
:109BC000B042F5D8002607E02846029AFFF761FF69
:109BD000010007D0761CB6B2A089B042F4D80020AC
:109BE000E18903E03846FEBD401C80B28142FBD8CB
:109BF0000020218A01E0401C80B28142FBD8207AFB
:109C0000002801D00020FEBD0120FEBDFFB55E4A48
:109C10000D46518895B00346491C89B2179851806A
:109C2000FFF7E6FED902FF31013189B2FFF7E0FE0E
:109C30000121FFF7DDFE0021FFF7DAFE0021FFF72B
:109C4000D7FE0021FFF7D4FE04462946684606F0F9
:109C50008DF86E46304606F0AFF880B213902E2194
:109C6000304606F037F8070002D0B81B85B200E096
:109C7000139D2570641C002D12D02A4631462046C3
:109C800006F07AF96419002F07D013987619401B53
:109C9000401E80B2761C1390E1E700202070641C07
:109CA00001212046FFF7A4FE0121FFF7A1FE17992D
:109CB00019B0401A00B2F0BD3348816803290BD3B4
:109CC000002282600178022902D30270501E704780
:109CD000491C017000207047012070472A4A5070CB
:109CE0002A48516050807047F7B5274C0D46002335
:109CF00088B01A4602216078FDF71AFFFF26013668
:109D00003346294600206268FFF780FF352500951D
:109D100082B2089B60786168FEF769F91C4F607831
:109D20008004C019406A05042D0C16D0B54200D934
:109D3000354607A8009006AB2A4660786168FEF7B2
:109D400004FA0A9A01A86168FFF7F7FE05466078F1
:109D5000FDF7BEFE28460BB0F0BDFFF7ADFF0028B3
:109D600001DA0020F7E70028D9D1352000902A46F3
:109D7000089B60786168FEF73AF9D0E7024881688D
:109D8000491C8160704700009800002022110000EB
:109D900000020146F0B587B002F056FB04466D465E
:109DA000A81DFFF7DBFD03A802300690FFF7E1FDD9
:109DB00002A802300746FFF7E7FD04A80230064676
:109DC000FFF7EDFD214606221731684602F055FCEB
:109DD00020460422A91D1D3002F053FC2046042217
:109DE0002130069902F04DFC2046042239462530E8
:109DF00002F047FC204604223146653002F041FC67
:109E00006034E078002801D0022000E0012069469B
:109E100088750020FEF774FE07B0F0BD70470000A3
:109E2000704770477047704710B500F09AFE10BD3C
:109E30007047704710B5114804F0F2FA10BD10B524
:109E40000F4804F0EDFA10BD704770477047704737
:109E5000704770477047704710B504F054FA10BD52
:109E6000704770477047704770477047704770473A
:109E700070477047704770477047000000C000404F
:109E800000D0004010B5C0B2FDF7A3FD10BD10B565
:109E9000FDF7B1FDFDF79DFD10BD0020C0437047EB
:109EA00010B5C0B2FDF795FD10BDFEE710B5C04975
:109EB000097801290AD1BF4C2178012906D101F086
:109EC0006FFB002002F014F90020207010BD3EB599
:109ED00002F0BAFA6421095C002906D0B649097873
:109EE000012906D0B5A005F01BFDB8A005F018FDAE
:109EF0003EBD014621314A7C097C12020A430146DB
:109F000020318B7B4C7B0094019302920B7BCA7AAD
:109F10004931AFA005F004FDE7E7FEB502F094FA81
:109F200004460025B3490420FFF7D8FE20466030E0
:109F3000427969460A7082794A70C27906468A7007
:109F4000007AC870032000F04DFF20462B306934A2
:109F5000019021466846019AFFF7C6FE0746012890
:109F60000BD06D1CEDB2022D07D803F090FEF078F7
:109F70000028EED0FFF7B1FBEBE7012000F032FF45
:109F80003846FEBD10B502F05FFA6030C078002898
:109F900006D099480078012803D098A005F0C0FCAD
:109FA00010BDFFF707FD014699A005F0B9FC10BDF3
:109FB00070B5002502F048FA064629368D4903207F
:109FC000FFF721FC9D499C4A0846FEF78FFF0320BE
:109FD00000F008FFFFF781FB0446042807D0002C9F
:109FE00001D16D1CEDB2032D09D9FFF704FC707887
:109FF000042802D0012000F0F5FE60B270BD03F02D
:10A0000046FE0020FFF752FFE4E7F0B591B002F002
:10A010001BFA04463C228A496846FDF7CBF8611DCD
:10A0200088A005F07DFC26462036707A8B4980009A
:10A0300009588BA005F074FC8FA005F071FC204638
:10A0400060300F90C07801282AD091A192A005F02D
:10A0500067FC9AA005F064FC27462337787B3A7B9F
:10A06000010211439AA005F05BFCA049A0A005F0F5
:10A0700057FC9E49A7A0491C05F052FCAE48FDF7CD
:10A08000CDFC0146ADA005F04BFCB5A005F048FCA9
:10A0900025464035287E002804D02246583202E06A
:10A0A000B5A1D3E7B9A2002801D0BAA100E0BBA1B5
:10A0B000BDA005F035FCC0A005F032FC0F988078FB
:10A0C000012811D0B5A1C5A2CCA005F029FCCEA0D5
:10A0D00005F026FCD5A005F023FC787C3A7C010233
:10A0E000114303D0D7A003E0AAA1ECE7ABA159A08C
:10A0F00005F016FCD7A005F013FC20462130417D69
:10A10000007D0902014301D0D8A001E0A3A151A024
:10A1100005F006FCD9A005F003FC0023DDA2DDA1BB
:10A12000DEA005F0FDFB6879E34980000958E3A053
:10A1300005F0F6FBA879694680000958E5A005F00E
:10A14000EFFBE879E649095CE6A005F0E9FB287A2F
:10A15000E54980000958E5A005F0E2FB687AE4498A
:10A16000095CE4A005F0DCFB6979E44800291CD017
:10A170000168E3A005F0D4FB0223C6A2C5A1E5A0B7
:10A1800005F0CEFBEAA3ECA2EDA1F1A005F0C8FB1F
:10A19000F4A005F0C5FBFCA005F0C2FB787D3A7D7C
:10A1A0000102114302D0B1A0FAE1F3E1F6E10000AF
:10A1B000C4000020C6000020D2000020202320443C
:10A1C0004E53204661696C65640D0A000D0A00005B
:10A1D000202320444E533A202573203D3E20256401
:10A1E0002E25642E25642E2564203A2025640D0A30
:10A1F00000000000400300201C0100202023204418
:10A20000484350204661696C65640D0A00000000F7
:10A2100020232044484350204950204C65617365F9
:10A22000642074696D65203A202575207365636F1D
:10A230006E64730D0A0000001D9E0000959D0000D5
:10A24000D40D0100202D20446576696365206E6180
:10A250006D653A2025730D0A000000000C010020F6
:10A26000202D20446576696365206D6F64653A2012
:10A2700025730D0A00000000202D204E6574776FB5
:10A28000726B2073657474696E67733A200D0A00EF
:10A290005374617469630000092D204F6274616911
:10A2A0006E696E672049502073657474696E6773B8
:10A2B0003A205B25735D0D0A00000000092D205433
:10A2C00043502F55445020706F7274730D0A000074
:10A2D000092020202B2053324520646174612070B6
:10A2E0006F72743A205B25645D0D0A0051C3000053
:10A2F000092020202B205443502F554450207365B3
:10A300007474696E6720706F72743A205B25645DA7
:10A310000D0A0000092020202B204669726D77610C
:10A3200072652075706461746520706F72743A2074
:10A330005B25645D0D0A000044600046092D205431
:10A3400043502052657472616E736D697373696FE7
:10A350006E2072657472793A205B25645D0D0A0087
:10A36000202D2053656172636820494420636F6427
:10A37000653A200D0A0000004175746F6D617469C3
:10A3800063202D2044484350000000004E6F6E654E
:10A3900000000000456E61626C6564004469736191
:10A3A000626C656400000000092D2025733A205B73
:10A3B00025735D0D0A000000202D2045746865722C
:10A3C0006E657420636F6E6E656374696F6E207066
:10A3D000617373776F72643A200D0A0028544350FA
:10A3E00020736572766572202F206D697865642010
:10A3F0006D6F6465206F6E6C79290000092D202532
:10A40000732025730D0A0000202D20436F6E6E65AA
:10A410006374696F6E2074696D65722073657474FE
:10A42000696E67733A200D0A00000000092D20496B
:10A430006E61637469766974792074696D65723AC6
:10A44000200000005B25645D2028736563290D0AE8
:10A4500000000000092D205265636F6E6E65637405
:10A4600020696E74657276616C3A20005B25645DCC
:10A4700020286D736563290D0A000000202D2053EC
:10A48000657269616C2073657474696E67733A20D4
:10A490000D0A00005541525400000000092D2044CF
:10A4A00061746120257320706F72743A20205B25DF
:10A4B0007325645D0D0A0000DC02002009202020C5
:10A4C0002B20554152542049463A205B25735D0D9F
:10A4D0000A000000092020202B2025642D00000008
:10A4E000B802002025642D00BC02002025732D0039
:10A4F000C80200202564202F20000000CC0200208C
:10A50000466C6F7720636F6E74726F6C3A202573A0
:10A510000D0A0000092D204465627567202573200F
:10A52000706F72743A205B257325645D0D0A00001C
:10A5300028666978656429004E4F4E45000000008A
:10A540003131353230302D382D4E2D3100000000A4
:10A55000092020202B202573202F202573202573F0
:10A560000D0A0000202D2053657269616C20646122
:10A570007461207061636B696E67206F7074696FBE
:10A580006E733A0D0A000000092D2054696D653A7A
:10A5900020000000A97A89004158EAE5AE49AF4899
:10A5A00005F0BEF9AEA005F0BBF9717E002901D01F
:10A5B000AEA001E0A849A94805F0B2F9AFA005F0A6
:10A5C000AFF9B07F01281CD0A349A44805F0A8F931
:10A5D000ADA005F0A5F98034E07E012814D09E4995
:10A5E000B3A005F09DF9E37FA27F617FB2A005F0E3
:10A5F00097F9BAA005F094F9E87A002807D0C1A22B
:10A6000006E0B17EC0A0E1E793490839E8E7C3A2BC
:10A61000C5A1C7A005F084F9287B002801D0CBA2F2
:10A6200000E0CBA2CEA1D0A005F07AF9D5A005F02C
:10A6300077F9DF4C207805F02DF8DE4D80002F589B
:10A64000207805F018F8DC4E800032583B46DBA13C
:10A65000DCA005F065F9607805F01CF880002F5843
:10A66000607805F008F8800032583B46DDA1DFA095
:10A6700005F056F9A07805F00DF880002F58A07865
:10A6800004F0F9FF800032583B46E0A1E1A005F05C
:10A6900047F9E07804F0FEFF80002D58E07804F0E0
:10A6A000EAFF800032582B46E2A1E4A005F038F919
:10A6B000EAA1A4A005F034F911B0F0BD38B501F05D
:10A6C000C3FE04466CA005F02BF9E4A19DA005F0A3
:10A6D00027F9EFA1F1A005F023F9F2A005F020F988
:10A6E000FAA00090A37D627D217DFAA005F018F903
:10A6F000DAA194A005F014F938BD01B5FE4800991F
:10A70000016001680029FCD108BD8AB001F09CFEFF
:10A71000044600F02EFAF9A003C806900791F7A0AE
:10A7200003C809910890FDF7B2FFFCF77BFDF549DE
:10A7300005F0B5FCF449086008A906A8FEF74DF835
:10A7400000F0B0FA01F039FF2046203001250790D3
:10A750008572C01C417D027D0802104301D0EB4987
:10A76000088002F029F901F06FFE8030817E684692
:10A7700001767D210901418306A8FEF7AEF803F0BA
:10A780008EFF26464036707B002803D0FFF796FFE9
:10A79000FFF73BFC02F030F927466037F8780028D5
:10A7A0002BD0FFF705FC042825D0214606221731BF
:10A7B000684601F062FF214601A804221D310230E3
:10A7C00001F05FFF214603A804222131023001F08D
:10A7D00058FF214602A804222531023001F051FF22
:10A7E00004A80422791D023001F04BFF69460020C5
:10A7F000FEF786F903E0C6480570C6480570707B11
:10A80000002803D001F09AFFFFF7BCFB0798407ABD
:10A8100001280DD0387900280AD0FFF77EFB0028E8
:10A8200001D0BD480570707B002801D0FFF74FFBB9
:10A83000BA4800240570BA4D2878002803D00020BB
:10A8400001F056FC2C7004F078FEB64D03F01FFAB0
:10A850000020FFF72BFB67E19CA3000054A200003F
:10A86000092D2053697A653A200000005B25645D5C
:10A8700020286279746573290D0A0000092D204390
:10A880006861723A20000000202D205365726961D2
:10A890006C20636F6D6D616E64206D6F64652073F5
:10A8A000776974636820636F64653A0D0A0000007D
:10A8B000092D2025730D0A00092D205B252E325805
:10A8C0005D5B252E32585D5B252E32585D20284871
:10A8D0006578206F6E6C79290D0A0000202D2048C4
:10A8E0006172647761726520696E666F726D617402
:10A8F000696F6E3A205374617475732070696E735A
:10A900000D0A0000445452005B252E32585D202869
:10A91000686578206F6E6C79290D0A0050485920BF
:10A920006C696E6B0000000050415F313000000028
:10A93000092D2053746174757320313A205B25739F
:10A940005D202D2025730D0A0000000044535200A5
:10A9500054435020636F6E6E656374696F6E0000C0
:10A9600050415F3031000000092D2053746174752F
:10A970007320323A205B25735D202D2025730D0A4C
:10A9800000000000202D204861726477617265200C
:10A99000696E666F726D6174696F6E3A205573658A
:10A9A0007220492F4F2070696E730D0A000000005D
:10A9B00018030020240300201C03002050435F31B3
:10A9C00033000000092D2055736572494F20413A2C
:10A9D000205B25735D202D202573202F2025730DEE
:10A9E0000A00000050435F3132000000092D20555D
:10A9F000736572494F20423A205B25735D202D20FC
:10AA00002573202F2025730D0A00000050435F306E
:10AA100039000000092D2055736572494F20433AD3
:10AA2000205B25735D202D202573202F2025730D9D
:10AA30000A00000050435F3038000000092D205507
:10AA4000736572494F20443A205B25735D202D20A9
:10AA50002573202F2025730D0A0000003D3D3D3D4C
:10AA60003D3D3D3D3D3D3D3D3D3D3D3D3D3D3D3D16
:10AA70003D3D3D3D3D3D3D3D3D3D3D3D3D3D3D3D06
:10AA80003D3D3D3D3D3D3D3D3D3D3D3D3D3D000070
:10AA900057495A37353053520000000020257320A3
:10AAA0000D0A0000203E3E2057495A6E657420531F
:10AAB000657269616C20746F2045746865726E659B
:10AAC00074204465766963650D0A00005374616201
:10AAD0006C650000203E3E204669726D77617265AC
:10AAE0002076657273696F6E3A2025642E25642E78
:10AAF00025642025730D0A00A8000020040202022C
:10AB0000020202001027000000200046E0000020A2
:10AB10001C0100201D010020D2000020C3000020E5
:10AB2000AC000020A802002025480078002802D0B0
:10AB3000002001F066FAF878002801D0FEF7CDFD7C
:10AB400020480178002900D004702878002800D11E
:10AB50007CE6707B002802D01BA004F0E1FE2C7084
:10AB600074E621480168002902D00168491E01608D
:10AB7000704710B500F0D6F81C4A01209110FCF780
:10AB8000B5FB03F09DFB03F0C3FDFCF74BFB7D2100
:10AB9000C90005F084FA1649401E88420CD81549B0
:10ABA000486115480722C3691B021B0A4C04234352
:10ABB000C361002088610A610A20FFF79EFD10BD75
:10ABC0001D010020C2000020203E2055415254208B
:10ABD00052782052696E67206275666665722046FB
:10ABE000756C6C0D0A000000A8000020006CDC02EF
:10ABF000FFFFFF0000E000E004ED00E0FEB50446CA
:10AC0000032818D2724E6500705B009001206946DF
:10AC100008717048A700C059FCF75FFC6D48715B74
:10AC2000001F025DC01E005DFCF732FD6948715BCC
:10AC3000C059FCF7CEFCFEBD70B5012311249D0365
:10AC4000A406002229462046FCF74AFD656170BD36
:10AC500010B501232120002259024006FCF740FDD7
:10AC600010BD70B5002421256D0602212846FCF791
:10AC70009CFC002801D0012070BD0520FFF73DFDA0
:10AC8000641CE4B2052CF0D3002070BD10B5212463
:10AC900064060123002202212046FCF721FD022048
:10ACA000606110BD70B5012003F0A5FB4A49612029
:10ACB00008634A4B01225A6148619A61886147489A
:10ACC00080308261444902208031886140204521E2
:10ACD0000906486008614402432501022D06224608
:10ACE0002846FEF739F8224600212846FDF7CCFF1A
:10ACF000002003F080FBFFF7C9FFFFF7B2FF002839
:10AD00000ED00020334908390870FFF7A1FFFFF784
:10AD100093FF0020FFF772FF0120FFF76FFF70BD68
:10AD20000120EFE72E49022008632C494039886052
:10AD3000704710B50121212049024006FCF735FC7F
:10AD400010BD10B511200123002240218006FCF720
:10AD5000C7FC10BD10B5112040218006FCF725FC72
:10AD600010BD10B50121112089038006FCF71DFCE0
:10AD700010BD10B5032807D2154A4100515A154A93
:10AD800080001058FCF733FC10BD10B5032807D223
:10AD90000F4A4100515A0F4A80001058FCF719FC25
:10ADA00010BD032808D20B49820089584A68084B15
:10ADB0004000185A42404A60704710B5044A4100AA
:10ADC000515A044A80001058FCF7F9FB10BD0000EE
:10ADD000100E0100B400002040300041402000412E
:10ADE0004011004170B5054601F02EFB04462934A0
:10ADF00001F02AFB2B0005F008FF06100406090CE1
:10AE00000E10012003E0022060700EE0032060704D
:10AE100006E00420FBE70520F9E76078022804D06B
:10AE20000021022004F0DAFC70BD0121F9E70029BD
:10AE30000FD00023FE4A00280CD0012813D002288E
:10AE40001AD0032805D1106B401C1ED0D06B4018BF
:10AE5000D0637047106B401C03D0106B4018106318
:10AE6000704713637047106B401C03D0506B401841
:10AE70005063704753637047106B401C03D0906B56
:10AE800040189063704793637047D3637047F7B57A
:10AE900082B015460E46002403F09EFA002811D019
:10AEA00003F0A3FA009003F09DFA019003F097FAE3
:10AEB000074603F091FA01463A46DEA0019B04F0F2
:10AEC0002FFD0DE003F091FA009003F08BFA074696
:10AED00003F085FA01463A46DCA0009B04F020FD11
:10AEE000022D02D0032D02D013E0DDA100E0DDA190
:10AEF0003246DDA004F014FD06E00298015DDDA0FD
:10AF000004F00EFD641CA4B2B442F6D3DBA004F03E
:10AF100007FD204605B0F0BDFEB50C46074601F022
:10AF200093FA002506464E360095019502950B2CA6
:10AF300000D30A2422463946684604F0BBFF304657
:10AF400004F03AFFA04207D122466946304604F099
:10AF5000DFFE002800D101252846FEBDF1B584B0F2
:10AF600001F072FA2930039001F06EFA054645357A
:10AF700001F06AFA4E3002906879022804D100206C
:10AF800003F049FD0028C5D104988104BC48081885
:10AF9000406A002687B20120C002A54C874201D931
:10AFA000074601E0002F3CD0B6480818FCF736FDF4
:10AFB000172829D01C2827D022282BD19C483A4674
:10AFC0002830034600901833AF490498FDF7BDF8C8
:10AFD0009749E08440310422081D04F099FE0028BE
:10AFE00018D09349086C4864287A002812D0084683
:10AFF0004030228DC17801920091837842780178A7
:10B00000A2A004F08DFC05E03A469F490498FCF7A5
:10B0100087FFE084E68226832673E18C0220FFF717
:10B0200006FF03984078012804D0022809D16078EF
:10B03000002806D10298007D012802D1A07A0028BC
:10B0400006D0E08C002811D0E879012812D015E054
:10B0500039468D48FFF760FF012808D0A672E684C4
:10B06000A07A002802D10498FCF788FE52E701205C
:10B07000A072F4E704F008FC0028F7D02878824F8B
:10B08000012808D06879012822D0287A03283DD0E9
:10B0900004283BD03FE0287A032801D0042804D1BB
:10B0A0000322E18C7848FFF7F2FE002003F063FCF6
:10B0B000002505E0795D002003F096FB6D1CADB224
:10B0C000E08C8542F6D3002003F07DFCE18C18E093
:10B0D000607B0128CAD1287A032801D0042804D132
:10B0E0000322E18C6848FFF7D2FE002505E0795D78
:10B0F000002003F079FB6D1CADB2E08C8542F6D3E5
:10B1000014E00320FFF793FEE68403E70322E18CBB
:10B110005D48FFF7BCFE002505E0795D002003F0E7
:10B1200063FB6D1CADB2E08C8542F6D381B2E8E7DB
:10B13000F8B501F089F905465E48293501885E4871
:10B1400000880A185D480088101A04F0B2FF384CD5
:10B150008EB2A08C01273018FF02B84213D3687C4E
:10B1600000280DD0012E0BD1002003F084FBC1B2CA
:10B170005348A28C8154687C884201D11046F8BDA6
:10B18000A08C381A86B2E87BA97B0002084305D15F
:10B19000287C002802D1687C002801D000272AE002
:10B1A0000025474F08E0002003F065FBA18C785490
:10B1B000491C6D1CA184ADB2B542F4D3A08CF8BD7E
:10B1C000002003F058FB02463D49A08C0A54401C65
:10B1D00080B2A0846A7C002A04D009182039C97F73
:10B1E0008A4204D0297C002903D0814201D180B257
:10B1F000F8BD7F1CBFB2B742E2D3E87BA97B000257
:10B2000008435FD0A58C002D5CD0207A002859D04F
:10B2100028480188284800880A1828480088101AF9
:10B2200004F047FF002901D1002020722846F8BD14
:10B23000C4000020205B2564642F253032643A2549
:10B240003032643A253032645D000000205B2530E6
:10B2500032643A253032643A253032645D000000B1
:10B2600053324500453253005B25735D5B25303416
:10B27000645D200025303258200000000D0A0000D7
:10B280000002014630000146400B0020203E2055C0
:10B29000445020506565722049502F506F72743AA7
:10B2A0002025642E25642E25642E2564203A202531
:10B2B000640D0A00B2020020AE020020B00200209D
:10B2C000400300200020F8BDFEB5074601F0BCF8A1
:10B2D0000546293501F0B8F806464536FFF729FD41
:10B2E000002876D1FFF724FFF34C019000286ED0A0
:10B2F00001460020FFF79BFD307A022801D0042888
:10B3000004D10222ED480199FFF7C1FDEC49B804D0
:10B310004018FCF783FB14285FD017283BD01C286B
:10B3200039D0222853D1A878002808D1E8780028FD
:10B3300005D12879002802D16879002806D0687ADA
:10B34000297A00020843AB1C009011E0DA48403033
:10B350000178002908D14178002905D18178002998
:10B3600002D1C07800280AD0D34B208D4033009002
:10B37000D2493846019AFCF73AFE07B205E0307A26
:10B38000002802D0CF4804F0CBFA002F1FDDA08C9C
:10B39000C01BA0841BE0A07A012818D1C7493846F9
:10B3A000019AFCF72DFD00B2002802DDA18C081ADD
:10B3B000A08401200199FFF73AFDE87D012806D11C
:10B3C000207B002806D0002020730020208300204E
:10B3D000E082FEBD01202071F7E70020A084FEBDC1
:10B3E000F0B589B0074601F02FF801F02DF80546B9
:10B3F000293501F029F80646B148BC044536201825
:10B40000FCF70CFB0023B04AB049002820D02228CA
:10B410001CD1AF481288008809888218521A014648
:10B42000104604F046FEA44DA88C014302D03846D5
:10B43000FFF74AFFA7482018406A0004000C02D119
:10B44000E88C002802D03846FFF788FD09B0F0BD2F
:10B4500000201080088098498884C884A97808460C
:10B46000E0380F2856D80122684602740022427440
:10B470005E228274E8784206520E6846C2740292D6
:10B480002A79027501926A79427592480092D938F8
:10B490002018FCF7C5FA8F48E978DA382018FCF74D
:10B4A000BFFA8C482979DB382018FCF7B9FA8948AB
:10B4B0006979DC382018FCF7B3FA687A297A000237
:10B4C00008437F49D0316118086282480121E5387C
:10B4D0002018FCF7A5FA7F480021E6382018FCF771
:10B4E0009FFA7C485E21E7382018FCF799FA7448E7
:10B4F0000299E8302018FCF793FA76480199E3386E
:10B500002018FCF78DFA73480099E4382018FCF7EE
:10B5100087FA8023E879A97902020A430221384692
:10B52000FCF706FBB84291D10520FFF75BFCE87BF6
:10B53000A97B0002084301D05F498883307A002844
:10B5400084D065A004F0ECF980E710B55A4CA08ACD
:10B55000002809D06749884204D2401C0840A082D4
:10B5600002D00DE00020A08202F04CFF04F08CFB22
:10B57000FBF704FE604904F09CFD60480818A082B7
:10B5800080B210BD4C480021C170C171017141727F
:10B590000172C1728172C18201840183418470474A
:10B5A00070B5054600F050FF04464549A80429340B
:10B5B0004018FCF733FA002807D02178032909D076
:10B5C000172804D01C2802D004E0284670BD284665
:10B5D000FCF7D4FB2846FCF77BFAF6E710B500220F
:10B5E0000621FCF7E8FE10BDF0B585B000F02CFF99
:10B5F0000446293400F028FF0546453500F024FFB5
:10B60000014600204E310646009003913C48FCF76D
:10B6100005FA6946087002903948401EFCF7FEF9A9
:10B620006946487001903648801EFCF7F7F9694674
:10B63000887007463248C01EFCF7F0F96946C870AA
:10B640000399897D012908D11B49897B012904D0EF
:10B65000287A002815D02BA011E00299002906D1E4
:10B660000199002903D1002F01D1002803D0A1782E
:10B67000002907D00FE0287A00287ED02BA004F004
:10B680004FF97AE0E278002A05D12279002A02D126
:10B690006279002A6CD0029A8A426FD1E2780199CD
:10B6A00091426BD121798F4268D16179884265D10D
:10B6B000287A002861D059E0C4000020400300200F
:10B6C00030000146180F0100AE020020B002002039
:10B6D000B202002000020146203E205345473A5561
:10B6E00044505F4D4F44453A534F434B4F50454EA6
:10B6F0000D0A0000FFFF000010270000B8880000BE
:10B7000013600046203E205345473A434F4E4E4576
:10B710004354494F4E204641494C4544202D204436
:10B720004E53204661696C65640D0A00203E20532B
:10B7300045473A434F4E4E454354494F4E204641AC
:10B74000494C4544202D20496E76616C696420493E
:10B750005020616464726573733A205A65726F2079
:10B7600049500D0A0000000002E007E0F3A086E760
:10B77000287A002801D0FE4881E70126304675E48A
:10B78000F1B588B000F060FE00F05EFE0546293598
:10B7900000F05AFE0746453700F056FE4E300024B2
:10B7A000069002946846848108988104F1480491C7
:10B7B0000818FCF733F9F04A049901268918059115
:10B7C000172853D01FDC00287AD0132826D014283D
:10B7D00018D1EA4C6078002814D1E9480188E9487A
:10B7E00000880A18E8480088101A04F062FC002952
:10B7F00008D00898FFF7D4FE6670687B297B0002AA
:10B800000843E08322E61828DED01C28FAD1DB4C5E
:10B810000598406A0004000C73D1F9E0D74E7078A7
:10B820000128EFD1687B297B00020843F18B884215
:10B83000E8D8F483FFF7D8FE01280DD0687A297A7A
:10B8400002020A43A91C0898FCF714FA707C401CF9
:10B85000C0B270740A28D5D30898FFF7A1FEC94872
:10B8600074740480C84804807470EFE5C14904987A
:10B8700010394018FCF7D2F8C0075DD00220FFF75E
:10B88000B1FABE48C18A002905D1E97AAA7A09022B
:10B89000114300D0C670B948008B002804D1E87D60
:10B8A000002801D0B54806710698007D002808D010
:10B8B000B2484178012904D0827A114304D005E0CE
:10B8C000ADE0AE48867201E046724484387A0028C2
:10B8D0001BD002AA04210898FCF7D5FD03AA052174
:10B8E0000898FCF7D0FDA548407800286846818973
:10B8F000C07A009001916846837A427A017A0BD02F
:10B9000000E081E0A1A004F00BF89C4841780029F8
:10B9100004D0012907D007E0A7A0F4E799490C80DB
:10B9200099490C8000E044704474924904980839A5
:10B9300040180121FCF774F891480188914800886B
:10B940000A1891480088101A04F0B3FB8B4FB88C8A
:10B95000014302D00898FFF7B7FC0598406A00043D
:10B96000000C02D1F88C002802D00898FFF7F6FAF4
:10B97000F87801280CD1E87AA97A00020843F98AFC
:10B98000884205D80898FFF70BFE3C713C837C7019
:10B99000E87D012823D13879012820D1387B00287F
:10B9A00002D001280ED01AE0687E297E00020843EA
:10B9B000398B884213D8002811D00898FFF70EFE63
:10B9C0003C833E73E87EA97E00020843398B88429F
:10B9D00005D8002803D00898FFF700FE3C8378784C
:10B9E000002800D032E50698007D0128FAD1B87A07
:10B9F0000028F7D1788C7B498842F3D30898FFF769
:10BA0000CFFD7C727C8421E50898FFF7A7FAFFE65A
:10BA1000E08C0028F8D10898FCF7B0F916E5012071
:10BA2000FFF7E0F9554A5078002817D02046144611
:10BA3000D084FFF78AFD0246202301210898FCF7F5
:10BA400077F808998842CDD1E87BA97B00020843AA
:10BA500000D0A083A079002820D025E0FFF792FD38
:10BA600020469084D084E8791446A97902020A43DA
:10BA7000212301210898FCF75BF808998842B1D18D
:10BA8000E87BA97B0002084300D0A0830898FCF75C
:10BA9000BAF8387A0028A5D053A009E0687B297B42
:10BAA0000002084300D0A671387A00289AD058A026
:10BAB00003F036FFCAE4F1B586B000F0C5FC00F033
:10BAC000C3FC0646293600F0BFFC4530009000F06C
:10BAD000BBFC4E300025049002956846858106988F
:10BAE000840424482018FBF799FF23496718172876
:10BAF0000DD002DC00281DD13EE11828FCD01C2806
:10BB000018D11E4C786A0004000C14D12DE119489C
:10BB100010382018FBF782FFC0070DD00220FFF776
:10BB200061F91648C18A002907D1F17AB27A09026F
:10BB3000114381E013E114E1ABE080E0203E2053AB
:10BB400045473A434F4E4E454354494F4E20464198
:10BB5000494C4544202D204475706C6963617465BF
:10BB600020495020616464726573730D0A000000FF
:10BB7000640F01003000014600020146C4000020AD
:10BB8000B2020020AE020020B0020020203E20536E
:10BB900045473A434F4E4E454354454420544F2069
:10BBA0002D2025642E25642E25642E2564203A2020
:10BBB00025640D0A00000000203E205345473A430B
:10BBC0004F4E4E45435445442046524F4D202D2064
:10BBD00025642E25642E25642E2564203A202564B4
:10BBE0000D0A000088130000203E205345473A54B8
:10BBF00043505F4D495845445F4D4F44453A534586
:10BC0000525645525F534F434B4F50454E0D0A001D
:10BC1000203E205345473A5443505F4D49584544D0
:10BC20005F4D4F44453A434C49454E545F534F4353
:10BC30004B4F50454E0D0A0001D00121C1700499AF
:10BC4000097D00293BD00121417245840098007A8A
:10BC5000002815D002AA04210698FCF714FC03AAB8
:10BC600005210698FCF70FFC68468189C07A009090
:10BC700001916846837A427A017AF74803F050FED0
:10BC8000F64801210580F6480580F6482018FBF7A4
:10BC9000C7FEF5480188F14800880A18F048008876
:10BCA000101A04F006FAF14CA08C014302D0069859
:10BCB000FFF70AFB786A0004000C06D102E00121BC
:10BCC0008172C3E7E08C002802D00698FFF746F99E
:10BCD000E07801280BD1F07AB17A00020843E18ABA
:10BCE000884204D80698FFF75BFC25712583F07D18
:10BCF000012824D12079012821D1207B002802D0DD
:10BD000001280FD01BE0707E317E00020843218B9A
:10BD1000884214D8002812D00698FFF75FFC2583CC
:10BD200001202073F07EB17E00020843218B8842FF
:10BD300005D8002803D00698FFF750FC2583049807
:10BD4000007D01280BD1A07A002808D1608CC84959
:10BD5000884204D30698FFF723FC6572658407B018
:10BD6000F0BD0698FFF7FAF8CCE6E08C0028F8D191
:10BD70000698FCF703F8F2E70120FFF733F8FFF726
:10BD800001FCBA4C2023A584E584F079B179020244
:10BD90000A4301210698FBF7CBFE06998842DED1C3
:10BDA000F07BB17B0002084300D0A0830698FBF72C
:10BDB0002AFF0098007A0028D1D0AEA003F0B0FD91
:10BDC000CDE7F1B584B000F03FFB00F03DFB054648
:10BDD000293500F039FB4530009000F035FB002498
:10BDE000684602948481049886049E48083030187E
:10BDF000FBF714FEA8497718172824D019DC00286F
:10BE00007DD0132814D1687B2A7B01029748114307
:10BE1000C28B91420CD8C483FFF7E6FB012807D000
:10BE2000687A297A02020A43A91C0498FBF722FFC8
:10BE3000A5E41828E4D01C28FAD18C4C786A0004B8
:10BE4000000C7CD1A6E0874808383018FBF7E6FDE7
:10BE5000C00744D00220FEF7C5FF8448C18A0029EC
:10BE600006D1E97AAA7A0902114301D00121C170F1
:10BE7000018B002904D1E97D002901D00121017144
:10BE80007A48012181728079012802D17748847132
:10BE9000C4830098007A002816D002AA04210498CE
:10BEA000FCF7F1FA03AA05210498FCF7ECFA6846BE
:10BEB0008189C07A009001916846837A427A017A3A
:10BEC00065482C3803F02CFD644801210480644847
:10BED00004806648C47363483018FBF7A1FD6248CC
:10BEE00001885E4800880A185D480088101A04F02E
:10BEF000E0F85E4EB08C014304D0049800E050E0BE
:10BF0000FFF7E2F9786A0004000C02D1F08C0028F7
:10BF100002D00498FFF722F8F07801280BD1E87AD4
:10BF2000A97A00020843F18A884204D80498FFF7EE
:10BF300037FB34713483E87D012801D01FE425E00C
:10BF400030790128FAD1307B00280FD00128F5D1B3
:10BF5000E87EA97E00020843318B8842EED8002893
:10BF6000ECD00498FFF73AFB348308E4687E297E1E
:10BF700000020843318B8842E0D80028DED00498C4
:10BF8000FFF72CFB348301203073E1E70498FEF7C0
:10BF9000E5FF53E7E08C0028F8D10498FBF7EEFEAC
:10BFA00046E70120FEF71EFFFFF7ECFA2F4EB484A0
:10BFB000F484FFF7CAFA0246212301210498FBF713
:10BFC000B7FD04998842EBD1E87BA97B00020843C6
:10BFD00000D0B083B079002806D1687B297B0002AD
:10BFE000084301D00120B0710098007A0028D7D012
:10BFF000F07B0028D4D129A003F092FC0120F0733B
:10C0000016E770B5064600F01FFA0546293500F020
:10C010001BFA0446453400F017FA1449A8300A7C8C
:10C02000002A01D000220A740078012859D008782B
:10C03000012856D12878002806D0012808D00228E7
:10C040003ED0032843D13FE03046FFF7BAFE3EE042
:10C050003046FFF730FD3AE0B8BB0000AE020020EA
:10C06000B002002028000146B2020020C4000020D7
:10C0700088130000203E205345473A5443505F53F5
:10C0800045525645525F4D4F44453A534F434B4FEF
:10C0900050454E0D0A00000000020146203E20538C
:10C0A00045473A5443505F434C49454E545F4D4FCA
:10C0B00044453A534F434B4F50454E0D0A00000044
:10C0C0003046FFF75DFB02E03046FFF789F90020BC
:10C0D00002F0AFFC6079012801D0022801D102F002
:10C0E0002DFB70BD10B500F0AFF92930407810BDC0
:10C0F000F8B5044600F0A8F90746293700F0A4F97E
:10C100000646204645360024B74D002807D00120BA
:10C110002870FEF767FE387802280DD00DE02C70ED
:10C120000420FEF75FFE307A002811D0AFA003F0A4
:10C13000F7FB0E22B2A108E06C70307A002807D01D
:10C14000B3A003F0EDFB0E22B6A1002002F076FBB7
:10C15000B848AC840480B8480480EC702C71EC7151
:10C160006C71EC822C832C846C832C72F8BDF8B536
:10C170000746B248002400882546AE4E00900FE0E6
:10C180009948AF492A30025D30880A54401C009912
:10C1900003F085FF944831802A300555641CE4B2D1
:10C1A000BC42EDD3904845718574F8BD70B5054625
:10C1B00000F04AF900F048F98B4C002221784E300B
:10C1C000012911D1014640310E46497B00290BD08F
:10C1D000A17C23462A33002908D0012912D0022944
:10C1E00010D0032927D11AE0002070BDF07BA842AF
:10C1F00021D1608BA18B88421DD31D700120A074BA
:10C20000607118E040184030C07BA84210D1608BAC
:10C21000A28B90420CD85D54491CA1740BE0608B3A
:10C22000A18B884200D201220420A074002A02D0EF
:10C23000A07CFFF79CFF00206083A07C70BD70B5E0
:10C24000044600F001F90546293500F0FDF80246E4
:10C25000687845320021012806D0022807D004283A
:10C2600005D0052812D102E0287802280ED1507995
:10C27000012101280AD15C48112C02D0132C02D0D4
:10C2800004E0012100E0002141730021084670BD57
:10C2900010B500F0D9F80446293400F0D5F852481A
:10C2A000017801290BD1E17BA27B0902114306D061
:10C2B000C179002901D10121C1710021018410BD82
:10C2C00000B500224849030004F09FFC05090B0D4E
:10C2D000070408000A634A638A63CA6300BD0A63ED
:10C2E00000BD4A6300BD8A6300BD024600203E498E
:10C2F000002A07D0012A07D0022A07D0032A00D13A
:10C30000C86B7047086B7047486B7047886B704705
:10C31000F8B500F099F8344C0646A0792936494F13
:10C320000025002807D0E08BB84203D2E08B401CE8
:10C33000E08300E0E5832079002807D0208BB84215
:10C3400003D2208B401C208300E02583608BA18BCF
:10C35000884202D2608B401C6083607900280ED036
:10C36000608BA18B88420AD3A07C032815D0FFF7ED
:10C37000FEFEF07BB17B0002084313D0A083E0797E
:10C38000002816D0F07BB17B00020843218C884244
:10C390000BD9208C401C20840BE00120A070A574D8
:10C3A0006571E6E7FF20F530E8E72584E5710120B7
:10C3B0002072607A002805D0608CB84203D2608C6D
:10C3C000401C6084F8BD6584F8BD0748C178002929
:10C3D00006D0C18A1B4A914202D2C18A491CC1823D
:10C3E0000121017470470000C4000020203E20534A
:10C3F00045473A4154204D6F64650D0A0000000026
:10C400005345473A4154204D6F64650D0A000000C2
:10C41000203E205345473A4757204D6F64650D0A2B
:10C42000000000005345473A4757204D6F64650DA3
:10C430000A000000AE020020B0020020B20200207C
:10C4400039180020FFFF0000FB487047F8B5FA4E8E
:10C45000F920307000207070B0700125F57004462E
:10C4600030710F21701D03F082FD0922F3A1701DB0
:10C4700003F020FD357503277775B575C0217177F9
:10C48000A822B2770B23EC48F377022620300670FF
:10C4900041708270C3700571FF2646718671C67146
:10C4A000047245728572C17202734373E64A8773E0
:10C4B000C11C0A73130A4B73431C1A74160A5E7468
:10C4C0000C74260A4E74E14E1E75360A5E750C75A4
:10C4D000230A4B7544768476C47604774477847750
:10C4E000C47720300570DA4B411C0B701B0A4B706F
:10C4F000C11C0A70120A4A7044710C268671C571FB
:10C50000047244728472C472047345730A21183031
:10C5100003F02DFDC8480A214E3003F028FDC6481F
:10C52000082760308470C470047147718771C771C7
:10C5300007723221093003F01AFDBF482B218030E9
:10C540008776C576047741778177C177BA4F0F2018
:10C55000A037387000207870B81C0570290A417027
:10C560003E71310A79710471210A41713C72B949F5
:10C57000401E0172090A417201460A31002003F08F
:10C5800086FD502038740020787438461330BD740E
:10C590001E21044603F0EBFC1322AFA1204603F05A
:10C5A00089FC384631302821044603F0E0FC202283
:10C5B000AEA1204603F07EFCF8BD10B5FEF7C1FB2E
:10C5C000F9239D4A0021012001F0FAFD9A4A002139
:10C5D00006231732084601F0F3FD974C6078217866
:10C5E0000002084302D0A949884207D1FFF72EFF75
:10C5F000F923914A0021012001F03DFE0120207520
:10C6000003216175A0758C4C4034A17A032903D0B5
:10C61000042901D0FEF79EFB607110BDF0B5864E77
:10C62000002540367D27BFB02C46FF00F923824A03
:10C630000021012001F01FFEF9236A46002101209C
:10C6400001F0BEFDF92269467B4803F061FB00283A
:10C6500011D0641C707BE4B2002803D021468CA06A
:10C6600003F05EF93846FEF748F8052C01D2012D9B
:10C67000DCD13FB0F0BD0125F4E710B503F01AFCA2
:10C6800010BD10B503F016FC10BD10B504460146F0
:10C69000694806221730FFF7F4FF67480422A11DFE
:10C6A0001D30FFF7EEFF6448214604220E31213091
:10C6B000FFF7E7FF6048214604220A312530FFF7E3
:10C6C000E0FF5D482146042212316530FFF7D9FFB3
:10C6D0005948A17D6030012902D00121C17010BDEF
:10C6E0000021FBE710B55449044606221731FFF735
:10C6F000C4FF514904221D31A01DFFF7BEFF4E4962
:10C700002046042221310E30FFF7B7FF4A49204668
:10C71000042225310A30FFF7B0FF474920460422A2
:10C7200065311230FFF7A9FF43486030C078002818
:10C7300001D0022000E00120A07510BD30B589B005
:10C740003D4D03A90120FCF7DBF96846427C017CE2
:10C75000C07B6B4607C36846837B427B017B56A048
:10C7600003F0DEF828462330417B007B09020143B9
:10C770006846407D009001916846037DC27C817CC3
:10C7800057A003F0CDF86846407F00906846037FCD
:10C79000C27E817E5BA003F0C3F86846407E0090B5
:10C7A0006846037EC27D817D5CA003F0B9F808A8CD
:10C7B0004078009008A803786846C27F817F5DA01A
:10C7C00003F0AEF82C462034607A01282DD0642086
:10C7D000415D601C0129417C0FD0027C0802A17BD5
:10C7E000104301900091637B227BE17A57A003F014
:10C7F00097F8607A032809D017E00A02007C2946DE
:10C80000024369315CA003F08BF80EE0E07A002867
:10C8100008D1207B002805D1607B002802D1A07BB5
:10C82000002807D05EA003F07BF85CA003F078F846
:10C8300009B030BDBEE000004013002057495A3710
:10C84000353053520000000088130000B80B000080
:10C85000581B000052C300006465766963652E773B
:10C86000697A77696B692E6E657400002F77697A33
:10C8700037353073722F66772F5737353030785F02
:10C880005332455F4170702E62696E00FFFF0000F9
:10C89000203E20446576436F6E666967207570643C
:10C8A000617465206661696C65642C2052657472E0
:10C8B000793A2025640D0A002023204D41433A2077
:10C8C000253032583A253032583A253032583A25F8
:10C8D0003032583A253032583A253032580D0A0055
:10C8E0002023204950203A2025642E25642E2564DB
:10C8F0002E2564202F20506F72743A2025640D0A73
:10C90000000000002023204757203A2025642E25D0
:10C91000642E25642E25640D0A0000002023205378
:10C920004E203A2025642E25642E25642E25640D84
:10C930000A000000202320444E533A2025642E256F
:10C94000642E25642E25640D0A0000002023204457
:10C95000657374696E6174696F6E2049503A202561
:10C96000642E25642E25642E2564202F20506F729E
:10C97000743A2025640D0A002023204465737469ED
:10C980006E6174696F6E20446F6D61696E3A202527
:10C9900073202F20506F72743A2025640D0A000016
:10C9A0002023232055445020313A31204D6F6465B7
:10C9B0000D0A000033A036E710B5374C3748E17D4B
:10C9C000FBF72EF83548217E401EFBF729F8334847
:10C9D000617E801EFBF724F83048A17EC01EFBF765
:10C9E0001FF82E48E17E001DFBF71AF82B48217F27
:10C9F000C01CFBF715F810BD10B5274C86B02146BA
:10CA0000062217316846FFF738FE214601A80422A6
:10CA10001D310230FFF731FE214603A804222131E7
:10CA20000230FFF72AFE214602A8042225310230F7
:10CA3000FFF723FE214604A8042265310230FFF7E8
:10CA40001CFE6034E078002801D0022000E00120C4
:10CA5000694688750020FCF753F806B010BD0E48F3
:10CA600060300121C17070470B4860300021C170F7
:10CA700070470146084810B50622173003F01AFA2D
:10CA800010BD00002023232055445020313A4E2071
:10CA90004D6F64650D0A00004013002003600046DE
:10CAA00010B5FA49401E884201D9012010BDF8494D
:10CAB0004861F8480722C3691B021B0A4C04234340
:10CAC000C361002088610A6110BDF34A10B591105E
:10CAD0000120FAF7D2FBFAF7A5FB7D21C90003F08C
