:020000040000FA
:1070000058350020F1710000759D0000779D00004B
:107010000000000000000000000000000000000070
:10702000000000000000000000000000799D00004A
:1070300000000000000000007B9D00007D9D00001E
:10704000859D0000879D0000899D0000939D0000A4
:107050009D9D00009F9D0000A19D0000A39D00003C
:10706000A59D0000A79D0000A99D0000AB9D00000C
:10707000AD9D0000B59D0000B79D0000B99D0000CA
:10708000BB9D0000BD9D0000BF9D0000C19D000094
:10709000C39D0000C59D000003720000C79D000055
:1070A000C99D0000CB9D000000F002F800F059F8E7
:1070B0000CA030C8083824182D18A246671EAB460D
:1070C00054465D46AC4201D100F04BF87E460F3E7F
:1070D0000FCCB6460126334200D0FB1AA246AB467F
:1070E00033431847D4A10000F4A10000002300247A
:1070F00000250026103A01D378C1FBD8520700D3EF
:1071000030C100D50B60704710B5642902D108F07A
:107110006BF910BD752902D108F066F910BD782908
:1071200002D108F097F910BD632902D109F02EFAB7
:1071300010BD732902D109F031FA10BD002010BD35
:107140001FB5C046C04608F0DDFB09F097F9040002
:107150000020002109F0A0FD401C60601FBD10B59B
:1071600010BD09F035FD1146FFF7EAFF03F03EFAC6
:1071700009F04DFD03B4FFF7F2FF03BC02F03DFE42
:1071800030B40C490C684A6823681068C018106055
:10719000241D121D8C4207D28A4208D20C604A601C
:1071A00030BC4000400870470C00DC3CF6E70A00A9
:1071B000DC3AF3E7EC28002070B505460C4616468D
:1071C00002E00FCC0FC5103E102EFAD2082E02D3CB
:1071D00003CC03C5083E042E07D301CC01C5361FDE
:1071E00003E021782970641C6D1C761EF9D270BDF5
:1071F0000748804707480047FEE7FEE7FEE7FEE74F
:10720000FEE7FEE704480549054A064B70470000C3
:107210003B720000A970000058290020583500205A
:10722000582D0020582D00203648006870473548FA
:10723000406870473448006A704710B53348816B26
:10724000334A1161C16B30484160002101624169DC
:107250008907CA0F012191404269D207D20F91409C
:10726000CAB2416940698904890E51438002294AA2
:10727000800E504308F043FD2249086010BDF8B568
:10728000254F0126204D01280FD000202862214CD7
:107290001046214608F033FDC0B2012808D8EE613F
:1072A0006F6101210A46134619E02E620C46EFE792
:1072B0000021E961FF2101318006800A08436861ED
:1072C00068698007C00F86406869C007C00F8640A4
:1072D0006869F2B28004810E68698002830E2046DC
:1072E000084C51436060584308F009FD2060F8BD28
:1072F00030B4064B9C6B064D2C61DB6B024C63601B
:1073000030BCBCE7000000200010004180FD0300FD
:107310000012004100127A0000010200412109061A
:10732000002801D0032000E00120086070474121BF
:1073300009064860704701204121090688607047AE
:1073400041200006C06880B270474121090600282C
:1073500000D0022008617047412000060069000645
:10736000000E00D00120704701204121090608616C
:1073700070470020D2E700B50120FFF7CFFF0020C3
:10738000FFF7E3FF00BD00003F4A3F4B0121803281
:10739000984201D1116070473B4B2033984201D194
:1073A00011627047394A394B80329842F2D0374BDC
:1073B00020339842F4D07047334A334B0121C943FC
:1073C0008032984201D1116070472F4B2033984290
:1073D00001D1116270472D4A2C4B80329842F2D075
:1073E0002A4B20339842F4D0704781688022914321
:1073F0008160704781688022914381600021016033
:107400002022826081617047826880239A43826073
:107410000A68026082684B689B0113438A68920085
:107420001A43CB6809695B0013431943EF221140EB
:107430008160704720220129816802D091438160D8
:1074400070471143FBE70121C16070474069C0B23A
:10745000704780688006C00F7047816880221143A2
:1074600081607047006870470160704740687047EE
:107470008068704781607047006970474069704755
:107480008069704781617047001000400020004013
:1074900070B51024002101604160DC4A4261426203
:1074A0008162426321225206904202D1D84BD94ACE
:1074B00007E04322120690420CD1D54BD54A403307
:1074C00040320020602685005E515151401CA04290
:1074D000F9D370BD11229206904204D1CC4BCD4A13
:1074E00080338032EDE7CA4BCA4AC033C03205242C
:1074F000E7E7F0B52122002310255206904201D182
:10750000C34A10E043221206904202D1C04A4032E0
:1075100009E011229206904202D1BD4A803202E077
:10752000BB4AC0320525012426460F689E403740DD
:10753000B74243D10F79012F0DD046614E79B6077E
:107540000DD59C001659B608B600165116590227DB
:107550003E4316510BE0076937430761EEE79E0093
:107560009759BF08BF0097519759274397514C79B6
:10757000640704D59C00165904273E4303E09C0091
:1075800016590427BE4316514C79A40604D59C0015
:10759000165920273E4303E09C0016592027BE437E
:1075A00016514C79640604D59C00165940273E4379
:1075B00003E09C0016594027BE4316515B1CAB42AA
:1075C000B1D3F0BD91490160002101716221417187
:1075D00070470246126800200A4200D0012070471E
:1075E0000068C0B270470246526800200A4200D0CC
:1075F00001207047406880B270470A06920D01234F
:1076000012189B02D21811600A0A920010185A0030
:1076100080180160704710B50B069B0D0124CA430A
:107620001B18A4021B191A60090A890008186100B6
:107630004018026010BD30B50B069B0D1C180123CD
:107640009B02E41823680D0AAD002D180120C0022A
:107650002D182868012A04D08B43236088432860B2
:1076600030BD0B4323600843F9E741607047836AEC
:107670000B438362012A03D0426A0A434262704785
:10768000026A0A4302627047604A8262012901D09D
:107690004262704702627047012A03D0426B0A437C
:1076A00042637047026B0A4302637047574A0129DD
:1076B00001D0426370470263704754498163704749
:1076C0000246926B00200A4200D001207047F0B5BC
:1076D0000126504D002334469C400C4210D0002817
:1076E00012D0012813D0022814D04A4C9F008034B5
:1076F0003C19276CBF08BF002764276C1743276419
:107700005B1C102BE7DBF0BD9C00641906E09C00BD
:107710006419EEE73F4C9F0080343C192768BF088E
:10772000BF002760276817432760E9E77CB5044658
:107730001E460D466846FFF745FF684600950271F4
:1077400069462046FFF7D5FE21204006844201D13C
:10775000002004E043200006844205D10120324687
:107760002946FFF7B4FF7CBD11208006844201D179
:107770000220F4E70320F2E77CB5044616460D46E6
:107780006846FFF71FFF00206946009508712046F4
:10779000FFF7AFFE206A28432062A06A2843A06258
:1077A000324629462046FFF777FF212040068442D3
:1077B00006D1002001222946FFF789FF072009E0B2
:1077C00043200006844208D1012002462946FFF7E3
:1077D0007EFF082000F013F87CBD11208006844253
:1077E00006D1022001222946FFF771FF0920F1E7A7
:1077F000032001222946FFF76AFF0A20EAE7C106B3
:10780000C90E01208840044908607047FFFF00004E
:10781000003000410020004100E100E0E121490288
:107820000160602181800021C18003220181120258
:107830004281818170477047F8B50446006B0E465F
:10784000400840002063FFF7F5FC8B4F012500281E
:1078500046D03D61FFF7E8FC7A692946914008F07F
:107860004EFA07463068000108F0E2FD0090384605
:1078700008F0DEFD009908F0E7FC074608F094FDEB
:10788000009008F0D5FD394609F062FA062108F0AB
:10789000D3FD08F0AFFC0022784B08F05DFC08F047
:1078A00087FC014600986062A162E06AEE2188438D
:1078B000B188F288114332890243E06A11430843D8
:1078C000E062206B6E49B28908407189114301431F
:1078D000206B08432063206B284320630020F8BD01
:1078E000022038617869294681406648B7E710B5BB
:1078F000C36A10242343C3624907890E5207520FFB
:107900001143416310BDC16A10229143C1627047A7
:1079100001607047006880B27047C16A012211435C
:10792000C16270470246526800200A4200D001201E
:107930007047416070470246926900200A4200D0B9
:1079400001207047002A03D0826B0A43826370478C
:10795000426C0A43426470470246126C00200A429D
:1079600000D001207047426C0A4342647047704760
:1079700010B504464448016B02290AD0006B032865
:1079800007D0FFF751FC214608F0B9F93F490861DB
:1079900010BDFFF74CFCF6E710B5FFF7E9FF3B49D8
:1079A000886803228008800010438860002010BD92
:1079B00036494A68D207FCD10860704733480068EE
:1079C00080B27047314A0146526800200A4200D016
:1079D000012070472D4A0029916801D0014300E041
:1079E000814391607047294A0029916801D0014381
:1079F00000E0814391607047244A0146D26800202C
:107A00000A4200D0012070472049CA680243CA6078
:107A10007047016082691207FCD40846704730B590
:107A20000B4605461C78002C03D021462846FFF75C
:107A3000F0FF5B1C002CF5D130BD8169C906FCD478
:107A40000068C0B2704700B50346FFF7B1FF1846A3
:107A500000BD10B503461C78002C02D02046FFF76D
:107A6000A7FF5B1C002CF6D110BD084841688907B0
:107A7000FCD50068C0B27047401100410000E03FF3
:107A8000FE3CFFFF00127A00001000410060004041
:107A9000007870470170704730B5002405E00D197B
:107AA000ADB2455D1555641CA4B29C42F7D330BD00
:107AB00070B5002405E00E19155DB6B28555641C3D
:107AC000A4B29C42F7D370BD70B514000FD01A4A0F
:107AD00083049E18F268400795B2184AC00A104302
:107AE0000A4623462946FFF7E3FF2819F06070BDD8
:107AF00070B514000FD0104A83049E18B26A400774
:107B000095B20F4AC00A10430A4623462946FFF79A
:107B1000C3FF2819B06270BD10B500290BD0064A0A
:107B200083049B189A6A4007054CC00A51182043E9
:107B300089B20818986210BD000201460000024692
:107B40000000034670B50446082802D90020C0434F
:107B500070BDF948A604301805461021FFF79AFFBA
:107B60002846FFF795FF0028FAD1F3481F21183067
:107B70003018FFF78FFFF14801218288A1408A4326
:107B80008280EF4A002061005052EC49891D08555F
:107B9000012070BDF8B51C4616460F46054608285C
:107BA00002D90020C043F8BD012F06D0022F04D017
:107BB000042F02D00420C043F8BD6007810FE148C4
:107BC000FAD1002C0CD0012F02D0022F08D103E0F3
:107BD00021210C42F0D003E0A10601D52106EBD50E
:107BE0002846FFF7AFFF21090901D3483943AF0405
:107BF00010383818FFF74EFF002E0AD1CF48D24A6E
:107C00000688711C89B20180914202D10321890347
:107C10000180C948F03038184661C748012138183A
:107C20000646FFF737FF3046FFF732FF0028FAD14C
:107C3000C248E107C90F4288A94011434180012190
:107C40008288A9408A438280BD4A00206900505240
:107C5000BA49891D4855B84820303C182046FFF7DE
:107C600017FF0028FAD068B2F8BD70B5064608289C
:107C700002D90020C04370BDAF48B40410382018AA
:107C8000FFF706FF0007000F012802D00420C043C1
:107C900070BDA948203020180546FFF7F9FE1328CB
:107CA00002D00220C04370BDA34802212018044620
:107CB000FFF7F0FE2046FFF7EBFE0028FAD104E0C4
:107CC0002046FFF7E5FE002806D02846FFF7E0FE35
:107CD0001428F5D1012070BD3046FFF733FF032093
:107CE000C04370BDF7B50D460746082802D90020ED
:107CF000C043FEBD9048BC0410382018FFF7C8FEF2
:107D00000007000F012802D00420C043FEBD8A48AE
:107D1000203020180646FFF7BBFE132802D00220B1
:107D2000C043FEBD29786A7808028018AA7800024C
:107D30008018EA7800028018421C32D0002830D027
:107D40000298002830D081482018FFF7A3FE7F4812
:107D50006978401E2018FFF79DFE7C48A978801E98
:107D60002018FFF797FE7948E978C01E2018FFF722
:107D700091FE764902982739611808626E480421FD
:107D800020180546FFF786FE2846FFF781FE0028EB
:107D9000FAD16A4901204988B84008421CD0002025
:107DA000FEBD0B20C043FEBD0A20C043FEBD2846D9
:107DB000FFF76EFE000708D55F480821183020182D
:107DC000FFF768FE0C20C043FEBD3046FFF760FEA3
:107DD000002804D1001FFEBD57481030251830463A
:107DE000FFF756FE1728E2D10120FEBD70B506460A
:107DF000082802D90020C04370BD4F48B504103890
:107E00002818FFF745FE0007000F012802D00420C4
:107E1000C04370BD4848082128180446FFF73AFEC1
:107E20002046FFF735FE0028FAD1444901208A8810
:107E3000B04082438A80498808420CD0002070BD3F
:107E40002046FFF725FE00070BD53046FFF77AFEE8
:107E50000C20C04370BD384810302C1836482030F4
:107E60002D182846FFF714FE0028E9D1012070BD27
:107E7000F7B582B002981446082803D90020C04301
:107E800005B0F0BD86042C4810383018FFF700FE0E
:107E90000007000F012802D00420C043F0E7002CA7
:107EA0000CD02548203030180190FFF7F1FD17283D
:107EB00007D01C2805D00620C043E1E70D20C043B1
:107EC000DEE7029801251D4F8540B888054211D094
:107ED000194810303018FFF7DBFDC006C00EC10690
:107EE00021D51548102118303018FFF7D3FDB88878
:107EF000A843B8801548D93030180090FFF7C8FD66
:107F00008006000C844200D904460098406887B27D
:107F10000198FFF7BDFD17281AD01C2818D0029829
:107F2000FFF710FEC7E7000718D50298FFF70AFE13
:107F30000C20C043A4E70000100001460800002008
:107F400004030020FAFFFFFFF0FF000027010146B5
:107F5000FE484088054203D0BC4201D900208FE78B
:107F6000BC42D2D8224603990298FFF7ADFDF848EB
:107F7000202130180646FFF78DFD3046FFF788FDBB
:107F80000028FAD1F14881880D438580204677E7A3
:107F9000F7B582B002981446082802D90020C043E1
:107FA0006EE78704EA4810383818FFF771FD0007BC
:107FB000000F012802D00420C04361E7002C19D033
:107FC000E4483818FFF764FD8006000CA04200D298
:107FD0000446DF48203038180090DE4820383E182C
:107FE000706A85B20098FFF753FD172815D01C283A
:107FF00003D00CE00D20C04342E7002D1AD13046DB
:10800000FFF746FD7168800289B2884205D1029867
:10801000FFF798FD0620C04332E70299012088400F
:10802000CA494988084203D0002D03D1002027E720
:10803000002DD5D0A54200D22C46224603990298A5
:10804000FFF756FDC248402138180546FFF722FDCC
:108050002846FFF71DFD0028FAD1204610E7FFB59E
:1080600083B003981E461546082803D90020C04354
:1080700007B0F0BD8404B64810382018FFF708FD9B
:108080000007000F022804D0042802D00420C043B7
:10809000EEE7002D1DD03078717800024018B178DD
:1080A00000024018F1780002C84202D10B20C04300
:1080B000DEE70C9800280FD0A5482030201807468E
:1080C000FFF7E6FC42280AD0222808D00620C04349
:1080D000CEE70D20C043CBE70A20C043C8E79D4848
:1080E0003178F9382018FFF7D5FC9A487178FA38BA
:1080F0002018FFF7CFFC9748B178FB382018FFF71E
:10810000C9FC9448F178FC382018FFF7C3FC90496B
:108110000C98F031611808628E48203820180190C0
:10812000FFF7B6FC8006000C854200D9054603998E
:108130000120884000900198406886B23846FFF7D9
:10814000A7FC002808D0814900984988084206D039
:10815000B54204D900208BE70320C04388E7B5422D
:10816000E9D82A4604990398FFF7AEFC7848202105
:1081700020180746FFF78EFC754818302618384639
:10818000FFF786FC0028FAD17148103024182046E9
:10819000FFF77EFCC006C00EC10605D53046102193
:1081A000FFF778FC284663E70007F0D53046082142
:1081B000FFF770FC0C20C0435AE7FFB5002485B0E0
:1081C0000646082802D9601E09B0F0BD6048B50413
:1081D00010382818FFF75CFC04900007000F0228F5
:1081E00004D0042802D00420C043EDE707980028FB
:1081F00005D059487700C05B002803D022E00D204D
:10820000C043E1E7534820382818039050482030F5
:1082100028180125B54002900398406A84B202985C
:10822000FFF736FC002806D048484088054207D0B2
:10823000002C03D006E00320C043C5E70020C3E7BD
:10824000002CE9D041480021801D81550498B204DA
:1082500041073F48490F151802291FD0042957D05C
:1082600021463046FFF758FC3B48C453284640217E
:10827000FFF710FC2846FFF70BFC0028FAD1364820
:10828000C15B091B0904090CC15305D02F48012209
:10829000801D815D11438155204695E72E4CE05BA2
:1082A000002865D1082269463046FFF721FC2846A0
:1082B0004021FFF7EFFB2846FFF7EAFB0028FAD141
:1082C00068460178089801706846417808984170BE
:1082D00068468178089881706846C1780898C170AE
:1082E00068460E99007908800102684640790818AE
:1082F0000E9908806846807901026846C07908189E
:10830000E05332E0224630460699FFF7F1FBADE735
:10831000114CE05B00282BD1022269463046FFF762
:10832000E7FB28464021FFF7B5FB2846FFF7B0FBE7
:108330000028FAD16846007801026846407808189B
:1083400080B20649E05388420FD909E008000020B6
:10835000100001462002014604030020EA05000047
:108360003046FFF7EFFB9F482EE79F498020885556
:10837000E45B07988442C5D90446C3E7F8B51446C0
:108380000646082802D90020C043F8BD964F9748FA
:10839000BF1FB20410187D880B0008F069FC0805A7
:1083A000131719212A333C4121780120B0400129BB
:1083B00002D0002903D033E02843788029E08543A8
:1083C0007D8026E0F540E807C00F19E0884801E00D
:1083D000874820301018FFF75BFB8002208018E0F0
:1083E00020781F281CD8C1068048C90E001D10180F
:1083F0000DE07E48001F1018FFF74AFBC006C00EB4
:10840000207006E021781F290AD8C906C90EFFF797
:1084100041FB0120F8BDFFF73BFBC006C00E2070FA
:108420000920C043F8BDF8B51546082802D9002038
:10843000C043F8BD84046E4B6C4A6C48803BDC3210
:1084400024380427E618A2182018FF430B0008F070
:108450000FFC084F050910421316444F6348297852
:10846000E43002E061482978E0302018FFF712FB81
:1084700031E0288810612EE0288810622BE0FFF799
:1084800007FB0007000F01282DD13046FFF700FB46
:10849000002802D00120C043F8BD544822211438DE
:1084A00020180546FFF7F6FA5048001F26180DE081
:1084B0003046FFF7EDFA000708D54C480821001DAB
:1084C0002018FFF7E7FA0C20C043F8BD2846FFF755
:1084D000DFFA0028ECD10120F8BDFFF7D9FA000738
:1084E000000F012801D03846F8BD29783046BDE795
:1084F0000920C043F8BDF8B514460646082802D93D
:108500000020C043F8BDB5043848384A384B2438F9
:10851000DC32EF182818AA180B0008F0A9FB0D0888
:108520000D1215173060323E404248546000FFF78C
:10853000AFFA0009000102E02C48E43033E020707B
:108540003DE02A48E0302EE0106920702848D938F4
:108550002818FFF79DFA20702548DA382818FFF709
:1085600097FA60702248DB382818FFF791FAA0705C
:108570001F48DC382818FFF78BFAE0701FE0106AFC
:108580001CE0FFF785FA0007000F012821D11848E9
:1085900080382818FFF77CFA10E078682080786A25
:1085A000208012480C302818FFF772FAC7E7FFF74F
:1085B0006FFA012805D00F497000085A2080012069
:1085C000F8BD786AFAE7FFF763FA0007000F0128A1
:1085D00002D00420C043F8BD0348805DAFE701200E
:1085E000C043F8BD17FCFFFF0E0000202400014629
:1085F000000201460403002070477047704770472F
:108600000078704701707047002070477047FE4A3D
:10861000002804D0002902D0D16090607047FB4848
:108620009060FB48D0607047F74A002804D00029CA
:1086300002D0516110617047F6481061F6485061F0
:10864000704710B5F04A1388DC05FDD5002804D02A
:10865000002902D0D161906110BDF0489061F048CE
:10866000D06110BD10B5E84A13889C05FDD50028DF
:1086700004D0002902D0D161906110BDE948906119
:10868000E948D06110BD0020C04370470020C043BE
:10869000704710B5E548FFF7FBF90446E348103092
:1086A000FFF7F6F90002001980B210BD10B5C1B293
:1086B000040A09090901DD48FFF7ECF9DB48214606
:1086C0001030FFF7E7F910BDD84810B5001FFFF7CD
:1086D000DFF90446D5480C30FFF7DAF9000200193B
:1086E00080B210BD10B5C1B2040AD0480909090111
:1086F000001DFFF7CFF9CD4821460C30FFF7CAF92E
:1087000010BDF0B593B0CA48FFF7C2F91190C84840
:10871000401EFFF7BDF9C64C1090A41E2046FFF77F
:10872000B7F9651E0F902846FFF7B2F90E90A01D0D
:10873000FFF7AEF90D90601DFFF7AAF90C90BC4849
:108740000830FFF7A5F90B90B948C01DFFF7A0F955
:10875000B74E0A90B61D3046FFF79AF90990E01D12
:10876000FFF796F90890B01DFFF792F90790701D7A
:10877000FFF78EF90690301DFFF78AF90590F01C7F
:10878000FFF786F90490AA481030FFF781F9A84F47
:1087900003900F373846FFF77BF90290781EFFF7FA
:1087A00077F90190F01DFFF773F900908021A1483F
:1087B000FFF770F99F48FFF76BF9A01C1199FFF7BD
:1087C00069F9601C1099FFF765F920460F99FFF7CA
:1087D00061F928460E99FFF75DF9A01D0D99FFF785
:1087E00059F9601D0C99FFF755F9B01C0B99FFF76B
:1087F00051F9701C0A99FFF74DF930460999FFF7B6
:1088000049F9E01D0899FFF745F9B01D0799FFF7F1
:1088100041F9701D0699FFF73DF9301D0599FFF7E5
:1088200039F9F01C0499FFF735F9781C0399FFF723
:1088300031F938460299FFF72DF9781E0199FFF7B3
:1088400029F9F01D0099FFF725F913B0F0BDF8B52F
:108850000D4606460024FFF754FF002E14D00022D8
:10886000B05C521C001952B244B2082AF8DB102C3A
:1088700017DC714F0024A004315DC019FFF70AF91D
:10888000641C64B2082CF6DB002D19D000210846C8
:108890002A5C401C511840B249B20828F8DB102964
:1088A00002DD0020C043F8BD634E00242036A00442
:1088B000295D8019FFF7EEF8641C64B2082CF6DB22
:1088C0000020F8BD70B50C460246002108464D1E3A
:1088D000130008F0CDF90906091511181C2E2E20D9
:1088E0002E00FFF70EFF22E0002C02D0214620468A
:1088F0000831FFF7ACFF70BD2088FFF7F3FE16E0EC
:10890000FFF7E2FE05E02088FFF7D0FE0FE0FFF75B
:10891000C0FE20800BE03C4882782270C2786270F2
:108920000279A2704279E270807920716171002031
:1089300070BD284670BD10B504463D484130FFF774
:10894000A7F820703A483D300068608010BD10B52F
:108950000446017836484130FFF79CF83449608876
:108960003D31086010BD10B53248FFF791F810BDD9
:1089700070B50446C720044202D00020C04370BD39
:108980002C4D2846FFF784F8204301462846FFF780
:1089900081F8002070BD10B504462548FFF778F82F
:1089A00020702348401EFFF773F860702048801E37
:1089B000FFF76EF8A0701E48C01EFFF769F8E07060
:1089C0001B48001DFFF764F820711948C01CFFF711
:1089D0005FF8607116480830FFF75AF8A073144822
:1089E000C01DFFF755F8E0731148801DFFF750F8E0
:1089F00020740F48401DFFF74BF860740C480C3092
:108A0000FFF746F8A07219E020000020F985000069
:108A1000FB850000FD850000FF8500000186000049
:108A200005860000098600000D860000042100462E
:108A30000360004600230046000201465F480B30F9
:108A4000FFF726F8E0725D480A30FFF721F820733F
:108A50005A480930FFF71CF8607358481030FFF788
:108A600017F8A07155480F30FFF712F8E07153481E
:108A70000E30FFF70DF8207250480D30FFF708F860
:108A800060724F480178A1744178E1748178217552
:108A9000C07860754A48401E0078A07510BD10B5BA
:108AA000044601784548FEF7F5FF44486178401ECA
:108AB000FEF7F0FF4148A178801EFEF7EBFF3F482C
:108AC000E178C01EFEF7E6FF3C482179001DFEF765
:108AD000E1FF3A486179C01CFEF7DCFF3748A17B13
:108AE0000830FEF7D7FF3548E17BC01DFEF7D2FF07
:108AF0003248217C801DFEF7CDFF3048617C401D4F
:108B0000FEF7C8FF2D48A17A0C30FEF7C3FF2B48B3
:108B1000E17A0B30FEF7BEFF2848217B0A30FEF7D2
:108B2000B9FF2648617B0930FEF7B4FF2348A179DD
:108B30001030FEF7AFFF2148E1790F30FEF7AAFFB2
:108B40001E48217A0E30FEF7A5FF1C48617A0D30D1
:108B5000FEF7A0FF1A48A17C0170E17C4170217DE5
:108B60008170617DC1701649A07D491E087010BDDD
:108B700010B50C46030008F07BF80604080C10142E
:108B8000181D0846FFF78BFF12E00846FFF703FFAA
:108B90000EE00878FFF7ECFE10BDFFF7E4FE207052
:108BA00006E00846FFF7D3FE02E00846FFF7C3FEE3
:108BB000002010BD0020C04310BD0000036000462F
:108BC0001900002070B50446012080032061450093
:108BD00029462046FEF711FD012001F088FD2946B7
:108BE0002046FEF718FD012001F081FD70BDF1B5B2
:108BF00000200126F6030446771045003146009810
:108C0000FEF7FBFC012001F072FD31460098FEF7F3
:108C100002FD012001F06BFD39460098FEF7D9FCFA
:108C20002843641C102CE8D3F8BD70B5044601201D
:108C300080036061012001F05AFD0125ED03294602
:108C40002046FEF7DAFC012001F051FD29462046BE
:108C5000FEF7E1FC012001F04AFD70BDF7B51446B6
:108C60002020001B81400127BF030D467E0018E035
:108C70000098002D394602DAFEF7BFFC01E0FEF74E
:108C8000CAFC012001F033FD31460098FEF7B5FC27
:108C9000012001F02CFD31460098FEF7BCFC6D0070
:108CA000641E002CE4D1FEBD70B50C4600210546C3
:108CB0002022C943FFF7D2FF042206212846FFF7EE
:108CC000CDFF052207212846FFF7C8FF05222146D0
:108CD0002846FFF7C3FF2846FFF7A7FF2846FFF700
:108CE00086FF04462846FFF76DFF204670BD10B58D
:108CF000432001210006FFF7D7FF4007C00F10BD3A
:108D000070B50C461646002105462022C943FFF7E0
:108D1000A5FF042205212846FFF7A0FF0522072111
:108D20002846FFF79BFF052221462846FFF796FFBE
:108D3000022211462846FFF791FF102231462846AD
:108D4000FFF78CFF2846FFF73DFF70BD0122D202DE
:108D5000904203D02121C90108400246002143204E
:108D60000006CDE77CB514460D4621430091012154
:108D70006A4611716946FEF7BCFB01222146104686
:108D8000FEF7A5FC012229461046FEF7A0FC7CBD9B
:108D900010B5FE4CFE482178FEF77CFEFC48617859
:108DA000401EFEF777FEFA48A178801EFEF772FE9D
:108DB000F748E178C01EFEF76DFEF54808342178CB
:108DC000001FFEF767FEF2486178401FFEF762FE63
:108DD000EF48A178801FFEF75DFEED48E178C01FE7
:108DE000FEF758FEEA48241F21780838FEF752FEA5
:108DF000E74861780938FEF74DFEE548A1780A3862
:108E0000FEF748FEE248E1780B38FEF743FE10BD5E
:108E100010B5E04C80212046FEF73CFE2046FEF7D0
:108E200037FEFFF7B5FFD94CD948353421781038D3
:108E3000FEF730FED64861781138FEF72BFED44895
:108E4000A1781238FEF726FED148E1781338FEF7F4
:108E500021FECF4821790C38FEF71CFECC48617901
:108E60000D38FEF717FE10BD10B5CA4C8021204604
:108E7000FEF710FE2046FEF70BFEC44CC448353406
:108E800021781038FEF706FEC14861781138FEF7E8
:108E900001FEBF48A1781238FEF7FCFDBC48E1781E
:108EA0001338FEF7F7FDBA4821790C38FEF7F2FDCA
:108EB000B74861790D38FEF7EDFD10BDB34B10B525
:108EC000DB1FB54C5C62B54C9C62B54CDC62002883
:108ED00000D05862002900D09962002A00D0DA62DE
:108EE00010BD30B5A94B0120DB1F996B087048708D
:108EF000062088700020C8705A6B120E0A715A6BD7
:108F0000120C4A719A8E120A8A719A8ECA71996BE2
:108F1000802208818A72C872996B1A460873487356
:108F20008873C873087448748874C8740875487561
:108F30008875C875087648768876C8763C32147885
:108F40000C7754784C7794788C77D478CC770C461F
:108F50001579203425705279627006228C18521CC3
:108F6000D2B22077102AF9D39A6B002154182034FA
:108F7000491CC9B220734029F8D39A6B00215418B8
:108F80006034491CC9B220738029F8D3986B6321DF
:108F9000E03001738222427353228273C17330BD69
:108FA000FEB5FFF79EFF79483522C01F836BF02185
:108FB000CA540122F121CA54F221CA543D22F3219C
:108FC000CA540722F421CA540122F521CA54014689
:108FD0003C310A78F621CA5401463C314A78F721DF
:108FE000CA5402463C329478F822D45402463C32A9
:108FF000D478F922D45402463C321479FA22D4545B
:1090000002463C325479FB22D4540C21FC22D15428
:109010000027FD21CF54122204463946423406E08F
:109020009E18E036521C491C357392B289B2655CB9
:10903000002DF5D1846B554BA6183533DD78E0361D
:109040003573521C92B2A6181D79E0363573521C46
:1090500092B2A5185B79E0352B73521C92B2CB1CEF
:10906000511A0919E0310B72816B37238C18E034E7
:109070002373521C92B28C18521C92B28D18062384
:10908000E03423730124E0352C73521C92B28D1806
:109090000324E035521C2C7392B28C18E0342373F5
:1090A000521C92B28C180F23E0342373521C92B2DC
:1090B0008B183A24E0331C73521C92B28B18E033A5
:1090C0003B24521C1C7392B2FF238C18E034237390
:1090D000521CFF2492B2393404E08D18E035521C42
:1090E0002F7392B2A242F8D369460B714B718B7108
:1090F000CB71432100918922816B01AB9200807872
:10910000FEF7ADFFFEBDFEB5FFF7EBFE1F4C0020E6
:10911000E41FE11D20560B462933FF2703284AD0C0
:10912000042848D06846077147718771C771A26BE0
:109130003520F025A8540120F125A8540320F2255C
:10914000A8543D20F325A8540720F425A854012055
:10915000F525A8540D48F62535300078A8540B485D
:10916000F72535304078A8540848F8253530807800
:10917000A8540648F9253530C078A8540348FA2584
:1091800035300079A854014835300BE04700002005
:109190001360004600230046918D0000118E0000F0
:1091A000698E00004079FB25A8546D46ED791020AA
:1091B000FF2D16D039E0A06B00228272C2720A78AD
:1091C00002734A7842738A788273CA78C2731A78B3
:1091D000684602715A7842719A788271DA78C2715F
:1091E000A5E73225FC2085540425FD2085540E7802
:1091F000FE2086544E78FF2086548878AE01B05405
:10920000C978701C81543621401C8154401C8554FF
:109210001978401C81545978401C81549978401C1D
:109220008154D978401C81541C2013180C21E03340
:109230001973401C13180021E0331973F94D401CB9
:1092400005E01618E036401C337380B2491C6B5C95
:10925000002BF6D1A36BF34A1E18921FD578E03687
:109260003573401C80B21E181579E0363573401CEA
:1092700080B21D185279E0352A73401C82B2C81C96
:10928000511AC918E0310872A06B37218318E033F6
:109290001973521C91B243180822E0331A73491C07
:1092A00089B243180122E0331A73491C89B243186A
:1092B0000322E0331A73491C89B243180622E033B3
:1092C0001A73491C89B243180F22E0331A73491CE0
:1092D00089B242183A23E0321373491C89B242180A
:1092E0003B23E032491C137389B242181F23E0323A
:1092F0001373491C89B242182123E0321373491CAD
:1093000089B24218E0321773491C0022FF2389B248
:10931000393303E04518E0352A73491C9942F9DBDB
:1093200043200090892201AB9200A078A16BFEF748
:1093300096FEFEBD1CB5FFF7D4FDBA4800214238A9
:10934000806B35228172C172F0210A540122F12111
:109350000A540422F2210A543D23F3210B5407221C
:10936000F4210A540122F5210A54AE49F622891F3C
:109370000B7813544B78F72213548B78F82213543C
:10938000CB78F92213540B79FA2213544A79FB2132
:109390000A543222FC210A540422FD210A54A14914
:1093A0003B390A78FE210A549E493B394A78FF210D
:1093B0000A549C493B398A78FF2101310A54994962
:1093C0003B39CA78FF2102310A543622491C0A541B
:1093D0000422491C0A549349FF2212390B780532A2
:1093E00013544B78521C13548B78521C1354CA7864
:1093F000FF2108310A54FF22491C0A541D21002371
:10940000FF2239324418E034491C23739142F9DBBE
:10941000FF206946087148718871C8714320009027
:10942000804889224238816B01AB92008078FEF738
:1094300016FE1CBD7FB57B4C7B4A423CA078810464
:109440008918496A0A04120C27D001A9009102ABBD
:10945000A16BFEF7B2FE82B26846808843283CD1F9
:10946000A06B21463C31037F0D78AB4215D1457F7F
:109470004B789D4211D1837F8D78AB420DD1C37F54
:10948000CD78AB4209D1034620331D780E79B54221
:1094900003D15B7849798B4202D0002004B070BDC3
:1094A000F03000258118F03915E00278332A3ED0DB
:1094B00008DC002A15D0012A18D0032A1AD0062A5F
:1094C00006D125E0352A0ED0362A3FD0FF2A06D015
:1094D0004278801C80188842E7D368B2DEE70846ED
:1094E000F9E7401CF7E78578C01CF4E74D4A83781C
:1094F000333A2EE04B4A43788678373A1670C6786E
:109500005670067996704679801DD670C0180CE0AA
:10951000444B427886782F3B1E70C6785E70067981
:109520009E704679801DDE708018001FD3E7827818
:10953000A261C37812029A18A261037912029A18E2
:10954000A261437912029A18A26109E0354A837830
:10955000123A1370C3785370037993704379D370C0
:10956000801DB8E72F4800214238C1610522026200
:109570004170704770B52B4C0125423C6157002665
:1095800022469057022917DAE269216A914223D2D2
:10959000012804D0022805D0042805D102E0FFF7F5
:1095A000FFFC01E0FFF7AFFDE661E069401D2062CE
:1095B0006078401C60700FE0012804D0022805D0BC
:1095C000042807D102E02670002503E0FFF7E8FC3D
:1095D00001202070FFF7C6FF284670BDF8B5134E76
:1095E0003046FEF755FA054603213046FEF752FA9B
:1095F0000C4B0F483B3BDC1F009011220DA1A078C3
:10960000FEF72DFD074629463046FEF743FA0D3793
:109610001AD0FFF78FFEE069E169091A0229FBD32E
:109620000020F8BD82000020000201464460004690
:1096300088130000434845434B5F49505F434F4EFA
:10964000464C4943540000000120EAE7F8B5B74C06
:10965000207806281ED0A078B54980044018FEF76F
:1096600017FA222805D0002344220221A078FEF711
:1096700091FA0125FFF7DEFEC1B20022A256AB48E7
:1096800000260127C01D130007F0F2FA05060D1C85
:10969000314C2F000520C4E7067046708670C670F6
:1096A000FFF77EFC5EE002291CD1A16B0A7C0270F0
:1096B0004A7C42708A7C8270C97CC170FFF723FDAE
:1096C00002204BE005290BD1FFF788FF002801D0CD
:1096D000606A3FE0FFF746FFE06A8047267004E0DB
:1096E00006293DD0FFF746FF0546284699E7A169C0
:1096F00004254A1CF9D0E26949089142F5D28B4908
:109700000278C91C0A7042784A7082788A70C078E0
:10971000C870606B401C6063FFF7F5FCFFF722FF29
:1097200004201BE004250529DAD180496670C91C94
:109730000A7803789A420BD14A7843789A4207D143
:109740008A7883789A4203D1C978C078814202D05E
:10975000A06A03258047FFF705FF03202070C4E7B8
:10976000FFF700FF2770C0E710B5704CA078FEF738
:10977000E9F90620207010BDF3B56E4F83B00646A0
:10978000002538460095FEF783F9684C3C3420707C
:10979000781EFEF77DF96070B81EFEF779F9A070AB
:1097A000F81EFEF775F9E070381DFEF771F92071AB
:1097B000F81CFEF76DF96071014620786278E37855
:1097C0001043A2781A4310432279104308431FD153
:1097D000257008206070DC20A070E5702571294696
:1097E00065713846FEF756F96178781EFEF752F932
:1097F000A178B81EFEF74EF9E178F81EFEF74AF997
:109800002179381DFEF746F96179F81CFEF742F917
:10981000464F4949BE700498B863E07863794218AE
:1098200021798A1848409A18584080187863684609
:10983000017840480C461030FEF72CF96846407815
:10984000029001463B480F30FEF724F968468078C5
:109850000190014637480E30FEF71CF96846C6787D
:10986000344831460D30FEF715F9324821461030A4
:10987000FEF710F92F4802990F30FEF70BF92D482B
:1098800001990E30FEF706F92A4831460D30FEF7F1
:1098900001F9284821460830FEF7FCF825480299CE
:1098A000C01DFEF7F7F823480199801DFEF7F2F876
:1098B00020483146401DFEF7EDF8FFF753FE3D709E
:1098C00005B0F0BD1948C169491CC161704717490D
:1098D000C91D0A7802704A7842708A788270C97805
:1098E000C170704711490B310A7802704A78427092
:1098F0008A788270C978C17070470C490F310A7834
:1099000002704A7842708A788270C978C170704754
:10991000064913310A7802704A7842708A78827058
:10992000C978C170704701488069704740000020C5
:1099300030000146036000467856341201784078C2
:109940000902401880B270470A0A02704170801CF8
:109950007047F0B584460020054606460C78491C41
:10996000002D00D1401C2706BF0F032F0AD1002D68
:1099700000D1401CA4060978A40C644409190125EF
:109980000C78491C002C19D01B1B5B1E1BB2002B32
:1099900002DA0020C043F0BD002D05D1001903E01C
:1099A0000F781770491C521C2746641EA4B2002F62
:1099B000F6D12E241470521C761CCFE7002E02D153
:1099C0002E211170521C00211170F0BD10B586B00F
:1099D0000C4618236A46FFF7BCFF411C03D0201831
:1099E000001D06B010BD0020FBE770B586B015461F
:1099F0000C46064618236A46FFF7ABFF411C46D0CB
:109A000024182046FFF79AFF0A34030007F030F9C4
:109A1000103C09133C3C13291313133C3C13183C12
:109A20001F3C2078287060786870A078A870E07873
:109A3000E870241D28E018236A460BE0241823E070
:109A40002078641C20180178401C44181CE018235E
:109A50006A46A41C21463046FFF77BFF411C16D006
:109A6000ECE718236A4621463046FFF772FF411C97
:109A70000DD0241818236A4621463046FFF769FFA7
:109A8000411C04D024181434204606B070BD0020B8
:109A9000FBE7F7B504460020208060800D460846AD
:109AA000FFF74CFF2080A81CFFF748FF02040121AC
:109AB000002A00DAA1704204120FE270420500D5BC
:109AC0002171820500D56171C20500D5A171020620
:109AD00000D5E1710007000F2072281DFFF72EFF4F
:109AE0006081A81DFFF72AFFA08128460830FFF7F4
:109AF00025FFE08128460A30FFF720FF29460C3178
:109B000000262082771E06E02846FFF75FFF01004F
:109B100014D0761CB6B26089B042F5D8002607E0B2
:109B20002846029AFFF761FF010007D0761CB6B203
:109B3000A089B042F4D80020E18903E03846FEBD98
:109B4000401C80B28142FBD80020218A01E0401CE9
:109B500080B28142FBD8207A002801D00020FEBDCF
:109B60000120FEBDFFB55D4A0D46518887B0034612
:109B7000491C89B209985180FFF7E6FED902FF31EE
:109B8000013189B2FFF7E0FE0121FFF7DDFE002180
:109B9000FFF7DAFE0021FFF7D7FE0021FFF7D4FE22
:109BA00004462946684605F009FF6E46304605F032
:109BB0002BFF80B206902E21304605F0B3FE070041
:109BC00002D0B81B85B200E0069D2570641C002DF4
:109BD00012D02A463146204605F0FEFF6419002FB8
:109BE00007D006987619401B401E80B2761C06905E
:109BF000E1E700202070641C01212046FFF7A4FE4D
:109C00000121FFF7A1FE0999401A00B20BB0F0BD87
:109C10003248816802290BD3002282600178022930
:109C200002D30270501E7047491C0170002070471B
:109C300001207047294A5070294851605080704770
:109C4000F7B5264C0D46002388B01A4602216078ED
:109C5000FDF7A0FFFF260136334629460020626843
:109C6000FFF780FF3525009582B2089B6078616818
:109C7000FEF7F5F91B4F60788004C019406A0504AF
:109C80002D0C15D0B54200D9354607A8009006AB7B
:109C90002A4660786168FEF790FA0A9A01A861681E
:109CA000FFF7F7FE05466078FDF74CFF2846ADE765
:109CB000FFF7AEFF002801DA0020A7E70028DAD17D
:109CC000352000902A46089B60786168FEF7C7F946
:109CD000D1E702488168491C816070478C000020F0
:109CE0002211000000020146F0B587B002F09EF993
:109CF00004466D46A81DFFF7EAFD03A80230069052
:109D0000FFF7F0FD02A802300746FFF7F6FD04A8B2
:109D100002300646FFF7FCFD214606221731684651
:109D200002F06CFA20460422A91D1D3002F06AFAE6
:109D3000204604222130069902F064FA20460422CB
:109D40003946253002F05EFA20460422314665305D
:109D500002F058FA6034E078002801D0022000E0D8
:109D60000120694688750020FEF702FF07B0F0BDAC
:109D700070470000704770477047704710B500F09B
:109D8000BEFC10BD7047704710B5104803F0D8FFF7
:109D900010BD10B50E4803F0D3FF10BD70477047DB
:109DA00070477047704770477047704710B503F0B1
:109DB0005AFF10BD70477047704770477047704733
:109DC00070477047704770477047704700C0004049
:109DD00000D0004010B5C0B2FDF735FE10BD10B583
:109DE000FDF743FEFDF72FFE10BD0020C043704776
:109DF00010B5C0B2FDF727FE10BDFEE73EB502F07C
:109E000015F96421095C002906D0B34909780129B4
:109E100006D0B2A005F074FAB4A005F071FA3EBD08
:109E2000014621314A7C097C12020A430146203155
:109E30008B7B4C7B0094019302920B7BCA7A493155
:109E4000ABA005F05DFAE7E7FEB502F0EFF80446D7
:109E50000025B0490420FFF7EDFE2046603042792E
:109E600069460A7082794A70C27906468A70007A19
:109E7000C870032000F0B0FE20462B3069340190FA
:109E800021466846019AFFF7DBFE074601280BD002
:109E90006D1CEDB2022D07D803F0ABFBF078002863
:109EA000EED0FFF7D3FBEBE7012000F095FE38463C
:109EB000FEBD10B502F0BAF86030C078002806D0B8
:109EC00095480078012803D094A005F019FA10BD38
:109ED000FFF729FD014696A005F012FA10BD70B5F6
:109EE00000248C490320FFF747FC9C499A4A084606
:109EF000FEF7E4FF032000F06FFEFFF7A7FB054627
:109F0000042807D0002D01D1641CE4B2032C06D92B
:109F1000FFF72AFC012000F05FFE68B270BD03F07D
:109F200068FBEAE7F0B58FB002F080F8044638220B
:109F30008B496846FDF740F9611D8AA005F0E0F9FC
:109F400026462036707A8D49800009588CA005F08D
:109F5000D7F991A005F0D4F9204660300E90C07872
:109F6000012823D092A194A005F0CAF99BA005F086
:109F7000C7F927462337787B3A7B010211439CA01F
:109F800005F0BEF9A149A2A005F0BAF99F49A9A020
:109F9000491C05F0B5F9B0A005F0B2F925464035E9
:109FA000287E002804D02246583202E0B0A1DAE729
:109FB000B4A2002801D0B5A100E0B6A1B8A005F078
:109FC0009FF9BBA005F09CF90E988078012811D06C
:109FD000B0A1C0A2C7A005F093F9C9A005F090F9FF
:109FE000D0A005F08DF9787C3A7C0102114303D0B2
:109FF000D2A003E0A5A1ECE7A6A15EA005F080F940
:10A00000D2A005F07DF920462130417D007D090276
:10A01000014301D0D3A001E09EA156A005F070F944
:10A02000D4A005F06DF90023D8A2D8A1D9A005F0DD
:10A0300067F96879DE4980000958DEA005F060F90B
:10A04000A879694680000958E0A005F059F9E87937
:10A05000E149095CE1A005F053F9287AE049800064
:10A060000958E0A005F04CF9687ADF49095CDFA0E7
:10A0700005F046F96979DF4800291CD00168DEA0A7
:10A0800005F03EF90223C1A2C0A1E0A005F038F915
:10A09000E5A3E7A2E8A1ECA005F032F9EFA005F0F6
:10A0A0002FF9F7A005F02CF9787D3A7D01021143D4
:10A0B00005D0ACA005E0A97A89004158DFE775A179
:10A0C0002CA005F01DF9F1A005F01AF9717E002908
:10A0D00001D0F1A0EAE1E7E1C20000202023204402
:10A0E0004E53204661696C65640D0A000D0A00003C
:10A0F000202320444E533A202573203D3E202564E2
:10A100002E25642E25642E2564203A2025640D0A10
:10A1100000000000140300200C0100202023204434
:10A12000484350204661696C65640D0A00000000D8
:10A1300020232044484350204950204C65617365DA
:10A14000642074696D65203A202575207365636FFE
:10A150006E64730D0A000000719D0000E99C000010
:10A16000380E0100202D20446576696365206E61FC
:10A170006D653A2025730D0A00000000FC000020E8
:10A18000202D20446576696365206D6F64653A20F3
:10A1900025730D0A00000000202D204E6574776F96
:10A1A000726B2073657474696E67733A200D0A00D0
:10A1B0005374617469630000092D204F62746169F2
:10A1C0006E696E672049502073657474696E677399
:10A1D0003A205B25735D0D0A00000000092D205414
:10A1E00043502F55445020706F7274730D0A000055
:10A1F000092020202B205332452064617461207097
:10A200006F72743A205B25645D0D0A0051C3000033
:10A21000092020202B205443502F55445020736593
:10A220007474696E6720706F72743A205B25645D88
:10A230000D0A0000092020202B204669726D7761ED
:10A2400072652075706461746520706F72743A2055
:10A250005B25645D0D0A0000202D2053656172634B
:10A260006820494420636F64653A200D0A000000AD
:10A270004175746F6D61746963202D2044484350AB
:10A28000000000004E6F6E6500000000456E6162C8
:10A290006C65640044697361626C65640000000071
:10A2A000092D2025733A205B25735D0D0A000000FF
:10A2B000202D2045746865726E657420636F6E6E24
:10A2C000656374696F6E2070617373776F72643A3F
:10A2D000200D0A0028544350207365727665722061
:10A2E0002F206D69786564206D6F6465206F6E6CDA
:10A2F00079290000092D2025732025730D0A0000FF
:10A30000202D20436F6E6E656374696F6E207469D3
:10A310006D65722073657474696E67733A200D0AF7
:10A3200000000000092D20496E616374697669742C
:10A33000792074696D65723A200000005B25645DC8
:10A340002028736563290D0A00000000092D2052A2
:10A3500065636F6E6E65637420696E746572766195
:10A360006C3A20005B25645D20286D736563290DC0
:10A370000A000000202D2053657269616C2073650E
:10A380007474696E67733A200D0A00005541525487
:10A3900000000000092D20446174612025732070A5
:10A3A0006F72743A20205B257325645D0D0A0000EE
:10A3B000B4020020092020202B205541525420496E
:10A3C000463A205B25735D0D0A000000092020201D
:10A3D0002B2025642D0000009402002025642D0010
:10A3E0009802002025732D00A40200202564202F50
:10A3F00020000000A8020020466C6F7720636F6E7B
:10A4000074726F6C3A2025730D0A0000092D2044E8
:10A410006562756720257320706F72743A205B2522
:10A420007325645D0D0A000028666978656429005B
:10A430004E4F4E45000000003131353230302D385E
:10A440002D4E2D3100000000092020202B202573E7
:10A45000202F2025732025730D0A0000202D205366
:10A46000657269616C2064617461207061636B69FD
:10A470006E67206F7074696F6E733A0D0A0000008A
:10A48000092D2054696D653A20000000092D2053E4
:10A49000697A653A200000005B25645D20286279B6
:10A4A000746573290D0A0000AB49AC4804F028FF1D
:10A4B000ABA004F025FFB07F01281CD0A649A74817
:10A4C00004F01EFFA9A004F01BFF8034E07E0128E9
:10A4D00014D0A149AFA004F013FFE37FA27F617FF6
:10A4E000AEA004F00DFFB6A004F00AFFE87A002841
:10A4F00007D0BDA206E0B17EBCA0E1E796490839CD
:10A50000E8E7BFA2C1A1C3A004F0FAFE287B00289F
:10A5100001D0C7A200E0C7A2CAA1CCA004F0F0FEFF
:10A52000D1A004F0EDFEDB4C207804F0FFFBDA4D07
:10A5300080002F58207804F0EAFBD84E8000325873
:10A540003B46D7A1D8A004F0DBFE607804F0EEFB18
:10A5500080002F58607804F0DAFB800032583B46C8
:10A56000D9A1DBA004F0CCFEA07804F0DFFB8000D2
:10A570002F58A07804F0CBFB800032583B46DCA17A
:10A58000DDA004F0BDFEE07804F0D0FB80002D5883
:10A59000E07804F0BCFB800032582B46DEA1E0A03E
:10A5A00004F0AEFEE6A1A0A004F0AAFE0FB0F0BD3C
:10A5B00038B501F03BFD044680A004F0A1FEE0A107
:10A5C00099A004F09DFEEBA004F09AFEEDA004F02B
:10A5D00097FEF6A00090A37D627D217DF5A004F09A
:10A5E0008FFED7A190A004F08BFE38BD1FB501F0FF
:10A5F0001DFD044600F08BF8F7A103C901910090FE
:10A60000F5A103C903910290FCF70EFEF44905F091
:10A6100076FBF449086008202870F34868802846D3
:10A62000FEF795F902A96846FEF711F900F04AFA1B
:10A6300001F0B4FD01F0C1FE03F07FFC04F0C9FAA3
:10A6400025464035687B002803D0FFF7B1FFFFF7B0
:10A6500069FC26466036F0780127002803D0FFF712
:10A660003EFC042840D001F0C8FE687B002803D0DF
:10A6700001F025FEFFF71DFC2034607A012808D088
:10A680003079002805D0FFF7DFFB002801D0D7483C
:10A690000770687B002801D0FFF7B0FBD448002486
:10A6A0000770D44F3878002803D0002001F0B8FAA2
:10A6B0003C70D14F02F09DFF002001F0F0FAF078DD
:10A6C000002801D0FEF7C2FFCC480178002900D055
:10A6D000047038780028EDD0687B002802D0C8A02C
:10A6E00004F00EFE3C70E5E7CD480770BDE701B50C
:10A6F000CC480099016001680029FCD108BDC94817
:10A700000168002902D00168491E0160704710B538
:10A7100000F003FAC44A01209110FCF7E9FD03F0B0
:10A720007FFA03F043FCFCF77FFD7D21C90005F0B3
:10A73000E6FABE49401E88420CD8BD494861BD4872
:10A740000722C3691B021B0A4C042343C361002078
:10A7500088610A6110BD000094A2000074A100008D
:10A76000092D20436861723A20000000202D2053FB
:10A77000657269616C20636F6D6D616E64206D6FD1
:10A7800064652073777469636820636F64653A0D4C
:10A790000A000000092D2025730D0A00092D205BF9
:10A7A000252E32585D5B252E32585D5B252E3258A2
:10A7B0005D2028486578206F6E6C79290D0A0000AD
:10A7C000202D20486172647761726520696E666F22
:10A7D000726D6174696F6E3A205374617475732081
:10A7E00070696E730D0A0000445452005B252E32CE
:10A7F000585D2028686578206F6E6C79290D0A00F5
:10A80000504859206C696E6B0000000050415F3168
:10A8100030000000092D2053746174757320313AA3
:10A82000205B25735D202D2025730D0A000000009C
:10A830004453520054435020636F6E6E65637469D5
:10A840006F6E000050415F3031000000092D205331
:10A85000746174757320323A205B25735D202D205E
:10A8600025730D0A00000000202D204861726477D6
:10A8700061726520696E666F726D6174696F6E3AA0
:10A88000205573657220492F4F2070696E730D0A31
:10A8900000000000EC020020F8020020F00200207E
:10A8A00050435F3133000000092D20557365724914
:10A8B0004F20413A205B25735D202D202573202FEA
:10A8C0002025730D0A00000050435F313200000064
:10A8D000092D2055736572494F20423A205B25733C
:10A8E0005D202D202573202F2025730D0A000000E8
:10A8F00050435F3039000000092D205573657249BF
:10A900004F20433A205B25735D202D202573202F97
:10A910002025730D0A00000050435F30380000000E
:10A92000092D2055736572494F20443A205B2573E9
:10A930005D202D202573202F2025730D0A00000097
:10A940003D3D3D3D3D3D3D3D3D3D3D3D3D3D3D3D37
:10A950003D3D3D3D3D3D3D3D3D3D3D3D3D3D3D3D27
:10A960003D3D3D3D3D3D3D3D3D3D3D3D3D3D3D3D17
:10A970003D3D00002057495A3735305352200D0ACB
:10A9800000000000203E3E2057495A6E6574205357
:10A99000657269616C20746F2045746865726E65BC
:10A9A00074204465766963650D0A00005374616222
:10A9B0006C650000203E3E204669726D77617265CD
:10A9C0002076657273696F6E3A2025642E25642E99
:10A9D00025642025730D0A0004020202020202000F
:10A9E0001027000000200046C4090000C20000201B
:10A9F000B3000020A000002084020020B20000204C
:10AA0000203E20554152542052782052696E6720D2
:10AA10006275666665722046756C6C0D0A000000F2
:10AA20000C0100209C000020006CDC02FFFFFF00F6
:10AA300000E000E004ED00E0FEB50446022818D274
:10AA4000604E6500705B00900120694608715E48A9
:10AA5000A700C059FCF74DFD5B48715B401F025DCC
:10AA6000801E005DFCF733FE5748715BC059FCF750
:10AA7000C4FDFEBD70B5012311249D03A406002270
:10AA800029462046FCF752FE656170BD10B50123D2
:10AA90002120002259024006FCF748FE10BD10B5E7
:10AAA000212002214006FCF794FD10BD10B52124A1
:10AAB00064060123002202212046FCF737FE022013
:10AAC000606110BD10B5012003F026F93F486121F7
:10AAD0000163416101229203432051000006FEF709
:10AAE00041F9002003F018F9FFF7E0FFFFF7D7FF67
:10AAF000002810D00020344908390870FFF7C6FF3D
:10AB000004F03CFAFFF7B6FF0020FFF795FF0120A5
:10AB1000FFF792FF10BD0120EDE72D4902200863E9
:10AB20002C498860704710B5012121204902400658
:10AB3000FCF74FFD10BD10B511200123002240216C
:10AB40008006FCF7F3FD10BD10B5112040218006F2
:10AB5000FCF73FFD10BD10B50121112089038006CF
:10AB6000FCF737FD10BD10B5022807D2154A410089
:10AB7000515A154A80001058FCF74DFD10BD10B514
:10AB8000022807D20F4A4100515A0F4A800010583C
:10AB9000FCF733FD10BD022808D20B49820089580A
:10ABA0004A68084B4000185A42404A60704710B546
:10ABB000044A4100515A044A80001058FCF713FD22
:10ABC00010BD0000700E0100A800002040300041C0
:10ABD000401100410020004170B5054601F026FA01
:10ABE0000446293401F022FA2B0006F041F8061041
:10ABF0000406090C0E10012003E0022060700EE034
:10AC00000320607006E00420FBE70520F9E7607888
:10AC1000022804D00021022004F01FF970BD012198
:10AC2000F9E700290FD00023FA4A00280CD00128A8
:10AC300013D002281AD0032805D1106B401C1ED057
:10AC4000D06B4018D0637047106B401C03D0106B62
:10AC500040181063704713637047106B401C03D09B
:10AC6000506B40185063704753637047106B401C23
:10AC700003D0906B40189063704793637047D36321
:10AC80007047FEB50C46074601F0D0F90025064690
:10AC90004E360095019502950B2C00D30A242246CE
:10ACA0003946684604F02EFF304604F0ADFEA0425F
:10ACB00007D122466946304604F052FE002800D1F2
:10ACC00001252846FEBDF1B584B001F0AFF9293069
:10ACD000039001F0ABF90646453601F0A7F94E3076
:10ACE000029004988104CC480818406A002587B275
:10ACF0000120C002C74C874201D9074601E0002F5E
:10AD00003CD0C6480818FCF7C3FE172829D01C28D9
:10AD100027D022282BD1BF483A462830034600903E
:10AD20001833BF490498FDF748FABA49E084403126
:10AD30000422081D04F014FE002818D0B549086C40
:10AD40004864307A012812D108464030228DC178FB
:10AD500001920091837842780178B2A004F0D0FA91
:10AD600005E03A46AE490498FDF712F9E084E58221
:10AD700025832573E18C0220FFF753FF0398407869
:10AD8000012804D0022809D16078002806D1029851
:10AD9000007D012802D1A07A002806D0E08C00288E
:10ADA00011D0F079012813D016E039469C48FFF7FE
:10ADB00068FF012809D0A572E584A07A002802D195
:10ADC0000498FDF713F805B0F0BD0120A072F3E779
:10ADD00004F09EF80028F6D03078012805D070796C
:10ADE00001280ED000268E4F1FE0002003F0D6F978
:10ADF000E28C8B49002003F023F9002003F0E6F9F0
:10AE000007E0607B0128DED1E28C8549002003F059
:10AE100017F9E18C0320FFF704FFE584D3E7B95D60
:10AE2000002003F0F8F8761CB6B2E08C8642F6D328
:10AE300081B2EFE7F8B501F0F9F805468348293506
:10AE40000188834800880A1882480088101A04F094
:10AE500060FF704C8EB2A08C01273018FF02B84200
:10AE600013D3687C00280DD0012E0BD1002003F0F5
:10AE700004F9C1B27848A28C8154687C884201D11F
:10AE80001046F8BDA08C381A86B2E87BA97B000278
:10AE9000084305D1287C002802D1687C002801D015
:10AEA00000272AE000256C4F08E0002003F0E5F8B9
:10AEB000A18C7854491C6D1CA184ADB2B542F4D369
:10AEC000A08CF8BD002003F0D8F802466249A08C9F
:10AED0000A54401C80B2A0846A7C002A04D009185D
:10AEE0002039C97F8A4204D0297C002903D08142BD
:10AEF00001D180B2F8BD7F1CBFB2B742E2D3E87B7C
:10AF0000A97B0002084315D0A58C002D12D0207A11
:10AF100000280FD04D4801884D4800880A184D4838
:10AF20000088101A04F0F5FE002901D100202072DB
:10AF30002846F8BD0020F8BDF1B582B001F076F8E2
:10AF40000446293401F072F807464537FFF772FFCF
:10AF5000014601900020FFF764FE019800262D4D68
:10AF6000002855D002982D4980044018FCF790FD28
:10AF7000142879D0172836D01C2834D0222847D15D
:10AF8000A078002808D1E078002805D12079002891
:10AF900002D16079002806D0607A217A0002084345
:10AFA000A31C009011E01B4840300178002908D113
:10AFB0004178002905D18178002902D1C078002884
:10AFC00009D0144B288D403300902349019A0298F0
:10AFD000FDF745F805E0387A012802D11F4804F052
:10AFE0008FF9AE8414E0A87A012811D11A49019A88
:10AFF0000298FCF73DFF81B2AE840120FFF711FEFD
:10B00000E07D012804D1287B00282AD02E732E83CE
:10B01000EE82FEBDB4000020000201463000014671
:10B02000140B0020203E20554450205065657220AE
:10B0300049502F506F72743A2025642E25642E25B6
:10B04000642E2564203A2025640D0A008C0200201D
:10B05000880200208A020020140300206C0F0100E7
:10B0600002E001202871D2E7AE84D2E7F8B50746A6
:10B0700000F0DCFF00F0DAFF0446293400F0D6FFD0
:10B080000646FC48BD0445362818FCF701FDFA4A7F
:10B09000FA4B00281BD0222818D1F94801881088C3
:10B0A0001A880818801A04F034FEF64CA08C01436C
:10B0B00002D03846FFF740FFF3482818406AE18C79
:10B0C00080B2084302D03846FFF7FDFDF8BD0020EE
:10B0D00010801880EB4D0023A884E884E079A179E2
:10B0E00002020A4302213846FCF754FDB842EDD172
:10B0F0000520FFF771FDE07BA17B0002084300D033
:10B10000A883307A0128E1D1E0A004F0F9F8F8BD75
:10B1100010B5DC4CA08A002809D0E349884204D24B
:10B12000401C0840A08202D00DE00020A08202F066
:10B13000FAFD04F0D1FBFCF723F8DC4904F0E9FD4B
:10B14000DB480818A08280B210BDCE480021C17033
:10B15000C171017141720172C1728172C182018437
:10B1600001834184704770B5054600F05FFF0446D7
:10B17000C049A80429344018FCF78AFC002807D0ED
:10B180002178032909D0172804D01C2802D004E014
:10B19000284670BD2846FCF729FE2846FCF7D2FC5D
:10B1A000F6E710B500220621FDF73DF910BDF0B518
:10B1B00085B000F03BFF0446293400F037FF054618
:10B1C000453500F033FF014600204E310646009021
:10B1D0000391B848FCF75CFC694608700290B548DA
:10B1E000401EFCF755FC694648700190B148801E2E
:10B1F000FCF74EFC694688700746AE48C01EFCF757
:10B2000047FC6946C8700399897D012908D19D4989
:10B21000897B012904D0287A012851D1A6A011E008
:10B220000299002906D10199002903D1002F01D1EB
:10B23000002803D0A178002907D00FE0287A012840
:10B240003ED1A7A004F05CF83AE0E278002A05D1EC
:10B250002279002A02D16279002A10D0029A8A4209
:10B2600014D1E378019A9A4210D1227997420DD1F4
:10B27000627990420AD1287A012805D020E0287A04
:10B2800001281DD1A548DDE7A5A0DBE70298C0286D
:10B2900017D10198A82814D10398407D002810D117
:10B2A000C0290ED1E278A82A0BD123799F4208D079
:10B2B000287A012804D160790090A64804F020F88B
:10B2C000012630467FE5F1B586B000F0AFFE00F014
:10B2D000ADFE0546293500F0A9FE4530009000F08E
:10B2E000A5FE0646002468460294848106984E36E0
:10B2F0008104604804910818FCF7CAFB624A04996B
:10B30000012789180591172858D020DC00287DD006
:10B3100013282BD0142818D15A4C6078002814D147
:10B3200057480188544800880A1854480088101A61
:10B3300004F0EFFC002908D00698FFF714FF6770AF
:10B34000687B297B00020843E08307B0F0BD182822
:10B35000DDD01C28F9D14B4C0598406AE18C80B2B5
:10B36000084306987ED0FFF7AEFCF5E7454E7078AF
:10B370000128EAD1687B297B00020843F18B8842CF
:10B38000E3D8F483FFF713FF01280DD0687A297AF8
:10B3900002020A43A91C0698FCF7A4FC707C401C1E
:10B3A000C0B270740A28D0D30698FFF7DCFE32488A
:10B3B00074740480314804807470C6E72D49049881
:10B3C00010394018FCF764FBC0074ED00220FFF78D
:10B3D00003FC2C48C18A002905D1E97AAA7A09021E
:10B3E000114300D0C7702748008B002804D1E87DA6
:10B3F000002801D023480771307D002809D021485A
:10B400004178012905D0827A114300E036E103D06A
:10B4100004E01C48877201E0477244840098007A77
:10B42000012819D102AA04210698FDF764F803AA9D
:10B4300005210698FDF75FF8124840780028684615
:10B440008189C07A009001916846837A427A017AB4
:10B450000CD041A003F054FF0A484178002906D0DF
:10B46000012900E007E103D094E09AE08AE08BE054
:10B470008FE0000030000146880200208A02002090
:10B480008C020020B400002000020146203E205320
:10B4900045473A5544505F4D4F44453A534F434B0F
:10B4A0004F50454E0D0A0000FFFF0000102700001E
:10B4B000B888000013600046203E205345473A43B9
:10B4C0004F4E4E454354494F4E204641494C45440A
:10B4D000202D20444E53204661696C65640D0A009E
:10B4E000203E205345473A434F4E4E454354494F23
:10B4F0004E204641494C4544202D20496E76616CD2
:10B50000696420495020616464726573733A205AFB
:10B5100065726F2049500D0A000000000010010004
:10B52000203E205345473A434F4E4E454354494FE2
:10B530004E204641494C4544202D204475706C698D
:10B540006361746520495020616464726573730D92
:10B550000A000000B80F0100203E205345473A433F
:10B560004F4E4E454354454420544F202D202564D2
:10B570002E25642E25642E2564203A2025640D0A8C
:10B5800000000000F4A065E7FE490C80FE490C8035
:10B5900000E044704474FD49049840180121FCF710
:10B5A00079FAFB480188F74800880A18F6480088AD
:10B5B000101A04F0AEFBF748808C014302D00698C5
:10B5C000FFF7BAFC0598406AF24980B2C98C08437B
:10B5D00002D00698FFF777FBEE48C07801280ED11D
:10B5E000E87AA97A00020843EA49C98A884206D85B
:10B5F0000698FFF7B8FDE748047104834470E87DBE
:10B60000012823D1E348017901291FD1007B0028BB
:10B6100002D001280ED019E0687E297E000208437E
:10B62000DC49098B884211D80698FFF7BAFDD94842
:10B6300004830773E87EA97E0002D64D0843298B58
:10B64000884203D80698FFF7ACFD2C83D14D68786B
:10B65000002800D079E6307D0128FBD1A87A0028A7
:10B66000F8D1688CCC498842F4D30698FFF77BFD6B
:10B670006C726C8469E6FCF7B9FB66E60120FFF7A3
:10B68000ABFAC44A5078002812D020461446D08421
:10B69000FFF73EFD0246202301210698FCF77AFAC7
:10B6A00006998842D6D14036707B012825D02AE001
:10B6B000FFF74BFD20469084D084E8791446A979A1
:10B6C00002020A43202301210698FCF763FA069937
:10B6D0008842BFD14036707B012805D1E87BA97B29
:10B6E0000002084300D0A0830698FCF7BEFA009839
:10B6F000007A0128AED1A9A013E0E87BA97B000263
:10B70000084300D0A083A079002805D1687B297B5D
:10B710000002084300D0A7710098007A012899D14F
:10B72000A8A003F0EDFD10E6F1B586B000F07EFCB8
:10B7300000F07CFC0646293600F078FC453000908D
:10B7400000F074FC0746002568460295858106983E
:10B750004E3784048D4808302018FCF799F9A34926
:10B7600061180491172812D002DC00287ED1B3E0C2
:10B770001828FCD01C2879D1864C0498406AE18CAA
:10B7800080B20843069872D0FFF79DFAF5E77F482C
:10B7900008382018FCF77CF9C0073AD00220FFF7E0
:10B7A0001BFA7C48C18A002906D1F17AB27A0902D3
:10B7B000114301D00121C170397D002907D0012139
:10B7C000417245840098007A012803D018E00121D5
:10B7D0008172F7E702AA04210698FCF78CFE03AAFF
:10B7E00005210698FCF787FE68468189C07A00909B
:10B7F00001916846837A427A017A57A003F080FD6E
:10B800006048012105806048058060482018FCF7E9
:10B8100041F95F4801885B4800880A185A48008847
:10B82000101A04F076FA5B4CA08C014302D0069803
:10B83000FFF782FB0498406AE18C80B2084302D093
:10B840000698FFF740FAE07801280BD1F07AB17A38
:10B8500000020843E18A884204D80698FFF783FC77
:10B8600025712583F07D012823D101E030E030E00F
:10B87000207901281DD1207B002802D001280DD07D
:10B8800017E0707E317E00020843218B884210D879
:10B890000698FFF786FC258301202073F07EB17E99
:10B8A00000020843218B884203D80698FFF779FCF1
:10B8B0002583387D01280BD1A07A002808D1608C1F
:10B8C0003549884204D30698FFF74DFC65726584BC
:10B8D0003BE5FCF78BFA38E50120FFF77DF9FFF730
:10B8E00034FC2C4C2023A584E584F079B179020244
:10B8F0000A4301210698FCF74DF906998842E7D1E1
:10B900004037787B012805D1F07BB17B00020843EA
:10B9100000D0A0830698FCF7A8F90098007A0128C7
:10B92000D6D133A003F0ECFC0FE5F1B584B000F004
:10B930007DFB00F07BFB0546293500F077FB4530A9
:10B94000009000F073FB4E30002401900294684692
:10B950008481049886045DE0203E205345473A43A5
:10B960004F4E4E45435445442046524F4D202D20C6
:10B9700025642E25642E25642E2564203A20256416
:10B980000D0A0000880200208A02002028000146DB
:10B990008C020020B400002088130000203E2053B9
:10B9A00045473A5443505F4D495845445F4D4F44D5
:10B9B000453A5345525645525F534F434B4F5045BE
:10B9C0004E0D0A00203E205345473A5443505F4DE8
:10B9D000495845445F4D4F44453A434C49454E54C0
:10B9E0005F534F434B4F50454E0D0A000002014636
:10B9F000203E205345473A5443505F5345525645E5
:10BA0000525F4D4F44453A534F434B4F50454E0DB7
:10BA10000A000000F84808303018FCF739F8F749F8
:10BA20007718172828D019DC00287DD0132814D1C6
:10BA3000687B2A7B0102F2481143C28B91420CD8E9
:10BA4000C483FFF7B4FB012807D0687A297A020281
:10BA50000A43A91C0498FCF745F933E41828E4D0FC
:10BA60001C28FAD1E64C786AE18C80B2084304982D
:10BA70007BD0FFF728F9F6E7DF4808383018FCF7E5
:10BA800007F8C00743D00220FFF7A6F8DC48C18AB8
:10BA9000002906D1E97AAA7A0902114301D00121CD
:10BAA000C170018B002904D1E97D002901D0012159
:10BAB0000171D348012181728079012802D1D048D7
:10BAC0008471C4830098007A012815D102AA042148
:10BAD0000498FCF710FD03AA05210498FCF70BFD60
:10BAE00068468189C07A009001916846837A427ADB
:10BAF000017AC44803F004FCC34801210480C34810
:10BB00000480BF48C473BC483018FBF7C3FFC0486B
:10BB10000188BD4800880A18BC480088101A04F043
:10BB2000F8F8B74EB08C00E045E0014302D004982D
:10BB3000FFF702FA786AF18C80B2084302D00498C9
:10BB4000FFF7C1F8F07801280BD1E87AA97A000252
:10BB50000843F18A884204D80498FFF704FB347143
:10BB60003483E87D012801D077E721E0307901288E
:10BB7000FAD1307B00280DD00128F5D1E87EA97ECE
:10BB800000020843318B8842EED80498FFF709FB86
:10BB9000348362E7687E297E00020843318B884245
:10BBA000F7D80498FFF7FDFA348301203073E5E7F6
:10BBB000FCF71CF951E70120FFF70EF8FFF7C5FA73
:10BBC0008F4EB484F484FFF7A3FA024620230121A8
:10BBD0000498FBF7DFFF04998842DAD101984030DE
:10BBE000407B012805D1E87BA97B0002084300D0F7
:10BBF000B083B079002806D1687B297B0002084316
:10BC000001D00120B0710098007A0128C1D1F07BE9
:10BC10000028BED17FA003F073FB0120F0731CE766
:10BC2000F8B5044600F002FA0746293700F0FEF99D
:10BC30000646204645360024714D002807D00120D5
:10BC40002870FEF7C9FF387802280DD00DE02C705F
:10BC50000420FEF7C1FF307A002802D076A003F05E
:10BC60004FFB0E2279A108E06C70307A002802D0D8
:10BC70007AA003F045FB0E227DA1002002F0E0F93E
:10BC80006148AC84048061480480EC702C71EC71D4
:10BC90006C71EC822C832C846C832C72F8BDF1B512
:10BCA00000F0C4F90646293600F0C0F905464535CE
:10BCB00000F0BCF9524C0027217CA830002900D0AC
:10BCC0002774007801282DD0207801282AD1A07867
:10BCD000012809D10098FFF746FA0020FFF7A0FFDE
:10BCE000A770207801281DD13078002806D00128BF
:10BCF00008D002280AD003280FD10BE00098FFF7E4
:10BD000014FE0AE00098FFF70FFD06E00098FFF729
:10BD1000DAFA02E00098FFF7A9F96879012801D161
:10BD200002F04AF9F8BD10B500F080F929304078EA
:10BD300010BDF8B507463648002400882546324E27
:10BD400000900FE02E484E492A30025D30880A5498
:10BD5000401C009903F0D3FF294831802A30055553
:10BD6000641CE4B2BC42EDD3254845718574F8BD2E
:10BD700070B5054600F05AF900F058F9204C4E30E5
:10BD80002178012911D1014640310B46497B002918
:10BD90000BD0A17C22462A32002908D0012912D0DA
:10BDA000022910D0032922D11AE0002070BDD87BCF
:10BDB000A8421CD1608BA18B884218D1157001203C
:10BDC000A074607113E040184030C07BA8420BD1D2
:10BDD000608BA38B984207D25554491CA17406E08E
:10BDE000608BA28B904202D20846FFF7A2FF002090
:10BDF0006083A07C70BD000028000146000201465F
:10BE0000B400002058B50000880200208A020020FB
:10BE10008C020020203E205345473A5443505F4354
:10BE20004C49454E545F4D4F44453A534F434B4F59
:10BE300050454E0D0A000000203E205345473A4130
:10BE400054204D6F64650D0A000000005345473AC9
:10BE50004154204D6F64650D0A000000203E2053C0
:10BE600045473A4757204D6F64650D0A00000000B2
:10BE70005345473A4757204D6F64650D0A0000004F
:10BE80000D18002070B5044600F0D0F8054629359D
:10BE900000F0CCF80246687845320021012806D02F
:10BEA000022807D0042805D0052812D102E02878FE
:10BEB00002280ED15079012101280AD15948112CAC
:10BEC00002D0132C02D004E0012100E000214173D4
:10BED0000021084670BD10B500F0A8F804462934CA
:10BEE00000F0A4F88E30407B01280FD14D4908782E
:10BEF00001280BD1E07BA27B0002104306D0C87959
:10BF0000002801D10120C8710020088410BD00B5AF
:10BF100000224449030004F0ABFE05090B0D0704A1
:10BF200008000A634A638A63CA6300BD0A6300BDEE
:10BF30004A6300BD8A6300BD024600203949002AD9
:10BF400007D0012A07D0022A07D0032A00D1C86BE4
:10BF50007047086B7047486B7047886B7047F8B53F
:10BF600000F064F82F4C0646A07929362E4F0025A4
:10BF7000002807D0E08BB84203D2E08B401CE0835E
:10BF800000E0E5832079002807D0208BB84203D257
:10BF9000208B401C208300E02583608BA18B88428E
:10BFA00002D2608B401C6083607900280AD0608BCD
:10BFB000A18B884206D1A07C032811D0FFF7B9FEDF
:10BFC000A5746571E079002811D0F07BB17B000287
:10BFD0000843218C884206D9208C401C208406E02E
:10BFE0000120A070ECE72584E57101202072607AC1
:10BFF000002805D0608CB84203D2608C401C60845D
:10C00000F8BD6584F8BD0748C178002906D0C18A0B
:10C01000054A914202D2C18A491CC18201210174A0
:10C0200070470000B4000020FFFF0000FE4870478A
:10C03000F8B5FD4EF920307000207070B070012509
:10C04000F570044630710F21701D03F0C1FD092207
:10C05000F6A1701D03F056FD35757475B475C021D9
:10C060007177A822B2770B23EF48F37702262030AE
:10C07000067041708270C3700571FF26467186712B
:10C08000C671047245728572C172027343730321D3
:10C09000E94A8173C11C0A73130A4B73431C1A7457
:10C0A000160A5E740C74260A4E74E44E1E75360A27
:10C0B0005E750C75230A4B7544768476C4760477D6
:10C0C00044778477C47720300570DD4B411C0B70BA
:10C0D0001B0A4B70C11C0A70120A4A7044710C266C
:10C0E0008671C571047244728472C472047345739C
:10C0F0000A21183003F06CFDCB480A214E3003F0C2
:10C1000067FDC948082160308470C47004714171B2
:10C110008171C17101723221093003F059FDC248A9
:10C120002B218030C576047741778177C177BE4F68
:10C130000F20A037387000207870B81C0570290ACD
:10C1400041703E71310A79710471210A41713C726A
:10C15000BC49401E0172090A417201460A310020A1
:10C1600003F0C5FD50203874002078743846133031
:10C17000BD741E21044603F02BFD1322B2A12046FC
:10C1800003F0C0FC384631302821044603F020FD7E
:10C190002022B2A1204603F0B5FCF8BD10B5FEF791
:10C1A000CAFCF923A04A0021012001F0C8FC9E4CE2
:10C1B000607821780002084302D0B049884207D154
:10C1C000FFF736FFF923984A0021012001F0D5FC42
:10C1D0009549012020318872207500206075A07576
:10C1E000FEF7B2FC90494031487110BD10B5F923FB
:10C1F0008D4A0021012001F0C0FC10BD10B503F0F4
:10C2000081FC10BD10B503F07DFC10BD10B50446D7
:10C210000146854806221730FFF7F4FF82480422C2
:10C22000A11D1D30FFF7EEFF7F48214604220E318D
:10C230002130FFF7E7FF7C48214604220A312530F0
:10C24000FFF7E0FF78482146042212316530FFF7FE
:10C25000D9FF7548A17D6030012902D00121C1704C
:10C2600010BD0021FBE710B56F49044606221731C7
:10C27000FFF7C4FF6C4904221D31A01DFFF7BEFF6C
:10C2800069492046042221310E30FFF7B7FF664985
:10C290002046042225310A30FFF7B0FF62492046CC
:10C2A000042265311230FFF7A9FF5F486030C07883
:10C2B000002801D0022000E00120A07510BD30B59B
:10C2C00089B0594D03A90120FCF752FC6846427C15
:10C2D000017CC07B6B4607C36846837B427B017B46
:10C2E00067A003F00DF828462330417B007B09024C
:10C2F00001436846407D009001916846037DC27C01
:10C30000817C69A002F0FCFF6846407F009068468F
:10C31000037FC27E817E6DA002F0F2FF6846407E00
:10C3200000906846037EC27D817D6EA002F0E8FF2A
:10C3300008A84078009008A803786846C27F817FEB
:10C340006EA002F0DDFF2C462034607A01282DD04B
:10C350006420415D601C0129417C0FD0027C0802F1
:10C36000A17B104301900091637B227BE17A69A05D
:10C3700002F0C6FF607A032809D017E00A02007CA9
:10C380002946024369316EA002F0BAFF0EE0E07A5E
:10C39000002808D1207B002805D1607B002802D12D
:10C3A000A07B002807D070A002F0AAFF6DA002F0C9
:10C3B000A7FF09B030BD71A0F6E710B51A4C74485C
:10C3C000E17DFBF767FB7248217E401EFBF762FBB5
:10C3D0006F48617E801EFBF75DFB6D48A17EC01E2D
:10C3E000FBF758FB6A48E17E001DFBF753FB6848EA
:10C3F000217FC01CFBF74EFB10BD10B50A4C86B068
:10C400002146062217316846FFF7F8FE214601A8AB
:10C4100004221D310230FFF7F1FE214604222131B2
:10C4200003A80230B6E000001413002057495A3721
:10C43000353053520000000088130000B80B000094
:10C44000581B000052C300006465766963652E774F
:10C45000697A77696B692E6E657400002F77697A47
:10C4600037353073722F66772F5737353030785F16
:10C470005332455F4170702E62696E00FFFF00000D
:10C480002023204D41433A20253032583A2530327E
:10C49000583A253032583A253032583A25303258F9
:10C4A0003A253032580D0A002023204950203A20E6
:10C4B00025642E25642E25642E2564202F20506FA0
:10C4C00072743A2025640D0A0000000020232047E2
:10C4D00057203A2025642E25642E25642E25640DD0
:10C4E0000A000000202320534E203A2025642E25E8
:10C4F000642E25642E25640D0A00000020232044AC
:10C500004E533A2025642E25642E25642E25640D75
:10C510000A00000020232044657374696E61746909
:10C520006F6E2049503A2025642E25642E25642EF6
:10C530002564202F20506F72743A2025640D0A0064
:10C5400020232044657374696E6174696F6E2044A2
:10C550006F6D61696E3A202573202F20506F7274C1
:10C560003A2025640D0A0000202323205544502042
:10C57000313A31204D6F64650D0A000020232320DD
:10C5800055445020313A4E204D6F64650D0A00002D
:10C5900003600046FFF732FE214602A8042225313F
:10C5A0000230FFF72BFE214604A804226531023039
:10C5B000FFF724FE6034E078002801D0022000E07C
:10C5C0000120694688750020FCF7D2FA06B010BD3C
:10C5D00007480121C170704705480021C1707047AC
:10C5E0000146034810B50622493803F08BFA10BD06
:10C5F00074130020F8B500270D4604460F70FB4E5B
:10C6000009E003F001FA02462046316803F01EFA01
:10C61000002804D0361D30680028F2D129E03068A7
:10C62000002826D0F148301A8005060E2B2E07D0A0
:10C630002C2E11D0A11C284603F0C0F93046F8BDBD
:10C64000207A0D2815D1607A0A2812D10622A11C61
:10C65000284603F057FAF1E7002002E02954401C75
:10C66000C0B2211889780D29F8D12118C9780A2972
:10C6700001D0FF20F8BD2F5428184770DEE7F0B531
:10C680009FB00F460546FFF7D1FC1590002410A976
:10C690000C8404213846199403F09AFAD4A1284650
:10C6A000DCE304A9FFF7A6FF0646FF2867D004A82D
:10C6B00003F0AAF980B202906846007C002854D0AA
:10C6C000CA49882224390978114259D0482E56D2B5
:10C6D00073007B449B885B009F4482029502950215
:10C6E0009802A3025705B3025705BE02C802D3023F
:10C6F000DF02EE02FA0213031E0333036C046C0420
:10C700006C046C046C046C044803560365037103E9
:10C710009A03AA03B503FE03090419042904380483
:10C720004A0462046D047B048A04790579059B043C
:10C730007905790579057905790579057905790509
:10C740004C0551005705CA04CA04CA04CA04E004CF
:10C75000E004E004E0040D051203120312031203C7
:10C7600030053B05120312037905A048B10040587B
:10C770000178397040787870BF1C169701E0F5E3B6
:10C78000F5E3330004F074FA4825384B5054EE5961
:10C79000EE5D6165686D707B7E87EDEDEE91EDED90
:10C7A00093A5AAADC3C7EFF3F7FBE8E7E6E5E4E33B
:10C7B000E2E1E1E0E1E1DFDEDDDCDBDAD9D8EED792
:10C7C000D7D7D7D6D6D6D6D5D4D3D2D1D0CFCECD33
:10C7D000CCCB159B159A159915981B7FD27E897E17
:10C7E000407E009001A80EC0159882A1037EC27DF4
:10C7F000384602F093FDD3E186A188A003F022FA27
:10C8000000281598807D00901598437D027D04D006
:10C8100084A1169802F082FDC2E185A1F9E7159A7C
:10C8200086A13846521D40E115986030C27802E07A
:10C83000159820309DE082A17FE1159860308278C4
:10C84000F9E715984030427BF5E7159840300278BB
:10C85000F1E71598413001E01598433041780078B0
:10C8600096E01598213091E01598159920300078C0
:10C87000C97F019015980091837F427F13E015983E
:10C8800020300AE0159820300279C1780192009199
:10C890008378427807E015986030027AC179019276
:10C8A00000918379427967A10FE0694AC3E715983F
:10C8B0004079002855D015991598097FC07E0191BF
:10C8C0000090159863A1837E421D384602F026FD34
:10C8D00066E115982330417B007B59E015982130A3
:10C8E0004FE0159860300179002907D0407A002880
:10C8F00037D0159A51A138466932D6E015982030C4
:10C90000827B417B01920091037BC27ACBE7159831
:10C91000403082798FE715984030C2798BE750E13B
:10C920002CE108E105E101E1FCE0EBE0E3E0DDE022
:10C93000D9E0CFE0BCE0AAE03EE139E12AE121E123
:10C9400015E10DE105E1FAE09EE09AE043E038E010
:10C950002EE029E023E01EE016E010E00BE006E008
:10C9600001E08BE02BE115984030027A63E71598DF
:10C970004030427A5FE715984030827A5BE715983D
:10C980002330417C007C03E015982330417D007DFD
:10C990000A0202434FE715982030427E4BE7159874
:10C9A00030A12030827EC8E015988030C27E42E7F8
:10C9B00015988030C17F0091837F427F2BA138463C
:10C9C00028E715984030807B002857D0159A1BA186
:10C9D00038464E3269E015984030007E00284DD030
:10C9E000159A16A1384658325FE000003401002045
:10C9F0000D0A0000253032583A253032583A253099
:10CA000032583A253032583A253032583A253032A9
:10CA100058000000446576656C6F70005374616265
:10CA20006C65000025642E25642E2564000000003E
:10CA300025642E25642E2564646576002573000028
:10CA40002564000025642E25642E25642E256400AF
:10CA5000D60B000025732D2530327825303278250D
:10CA6000303278002530325800000000253032582E
:10CA70002530325825303258000000002022F8A11D
:10CA80005BE0812000028AE04120400287E03046DE
:10CA90003638F449C0B2085C18A902F062F90028DF
:10CAA000EFD010A8028CF0A12AE002F037FC77E06A
:10CAB00030463A38C7B2EB48C05D02F028F9019021
:10CAC000E848C05D02F032F901460198C007820FC4
:10CAD0000A43E8E71598E5A14030037BC27A38465F
